{
  "_format": "hh-sol-artifact-1",
  "contractName": "ArbitrumCrossDomainForwarder",
  "sourceName": "contracts/chainlink/v0.8/dev/ArbitrumCrossDomainForwarder.sol",
  "abi": [
    {
      "inputs": [
        {
          "internalType": "address",
          "name": "l1OwnerAddr",
          "type": "address"
        }
      ],
      "stateMutability": "nonpayable",
      "type": "constructor"
    },
    {
      "anonymous": false,
      "inputs": [
        {
          "indexed": true,
          "internalType": "address",
          "name": "from",
          "type": "address"
        },
        {
          "indexed": true,
          "internalType": "address",
          "name": "to",
          "type": "address"
        }
      ],
      "name": "L1OwnershipTransferred",
      "type": "event"
    },
    {
      "anonymous": false,
      "inputs": [
        {
          "indexed": true,
          "internalType": "address",
          "name": "from",
          "type": "address"
        },
        {
          "indexed": true,
          "internalType": "address",
          "name": "to",
          "type": "address"
        }
      ],
      "name": "OwnershipTransferRequested",
      "type": "event"
    },
    {
      "anonymous": false,
      "inputs": [
        {
          "indexed": true,
          "internalType": "address",
          "name": "from",
          "type": "address"
        },
        {
          "indexed": true,
          "internalType": "address",
          "name": "to",
          "type": "address"
        }
      ],
      "name": "OwnershipTransferred",
      "type": "event"
    },
    {
      "inputs": [],
      "name": "acceptOwnership",
      "outputs": [],
      "stateMutability": "nonpayable",
      "type": "function"
    },
    {
      "inputs": [],
      "name": "crossDomainMessenger",
      "outputs": [
        {
          "internalType": "address",
          "name": "",
          "type": "address"
        }
      ],
      "stateMutability": "view",
      "type": "function"
    },
    {
      "inputs": [
        {
          "internalType": "address",
          "name": "target",
          "type": "address"
        },
        {
          "internalType": "bytes",
          "name": "data",
          "type": "bytes"
        }
      ],
      "name": "forward",
      "outputs": [],
      "stateMutability": "nonpayable",
      "type": "function"
    },
    {
      "inputs": [],
      "name": "l1Owner",
      "outputs": [
        {
          "internalType": "address",
          "name": "",
          "type": "address"
        }
      ],
      "stateMutability": "view",
      "type": "function"
    },
    {
      "inputs": [],
      "name": "owner",
      "outputs": [
        {
          "internalType": "address",
          "name": "",
          "type": "address"
        }
      ],
      "stateMutability": "view",
      "type": "function"
    },
    {
      "inputs": [
        {
          "internalType": "address",
          "name": "to",
          "type": "address"
        }
      ],
      "name": "transferL1Ownership",
      "outputs": [],
      "stateMutability": "nonpayable",
      "type": "function"
    },
    {
      "inputs": [
        {
          "internalType": "address",
          "name": "to",
          "type": "address"
        }
      ],
      "name": "transferOwnership",
      "outputs": [],
      "stateMutability": "nonpayable",
      "type": "function"
    },
    {
      "inputs": [],
      "name": "typeAndVersion",
      "outputs": [
        {
          "internalType": "string",
          "name": "",
          "type": "string"
        }
      ],
      "stateMutability": "pure",
      "type": "function"
    }
  ],
  "bytecode": "0x60806040523480156200001157600080fd5b506040516200133138038062001331833981810160405281019062000037919062000393565b80338060008073ffffffffffffffffffffffffffffffffffffffff168273ffffffffffffffffffffffffffffffffffffffff161415620000ae576040517f08c379a0000000000000000000000000000000000000000000000000000000008152600401620000a59062000413565b60405180910390fd5b816000806101000a81548173ffffffffffffffffffffffffffffffffffffffff021916908373ffffffffffffffffffffffffffffffffffffffff160217905550600073ffffffffffffffffffffffffffffffffffffffff168173ffffffffffffffffffffffffffffffffffffffff1614620001355762000134816200015160201b60201c565b5b50505062000149816200028160201b60201c565b50506200050d565b3373ffffffffffffffffffffffffffffffffffffffff168173ffffffffffffffffffffffffffffffffffffffff161415620001c3576040517f08c379a0000000000000000000000000000000000000000000000000000000008152600401620001ba9062000435565b60405180910390fd5b80600160006101000a81548173ffffffffffffffffffffffffffffffffffffffff021916908373ffffffffffffffffffffffffffffffffffffffff1602179055508073ffffffffffffffffffffffffffffffffffffffff1660008054906101000a900473ffffffffffffffffffffffffffffffffffffffff1673ffffffffffffffffffffffffffffffffffffffff167fed8889f560326eb138920d842192f0eb3dd22b4f139c87a2c57538e05bae127860405160405180910390a350565b6000600260009054906101000a900473ffffffffffffffffffffffffffffffffffffffff1690508173ffffffffffffffffffffffffffffffffffffffff168173ffffffffffffffffffffffffffffffffffffffff1614620003785781600260006101000a81548173ffffffffffffffffffffffffffffffffffffffff021916908373ffffffffffffffffffffffffffffffffffffffff1602179055508173ffffffffffffffffffffffffffffffffffffffff168173ffffffffffffffffffffffffffffffffffffffff167fb0121dbcab67289d5cb13a1f35ca086715f35ef418e0eda134c4145a086b627260405160405180910390a35b5050565b6000815190506200038d81620004f3565b92915050565b600060208284031215620003ac57620003ab6200049c565b5b6000620003bc848285016200037c565b91505092915050565b6000620003d460188362000457565b9150620003e182620004a1565b602082019050919050565b6000620003fb60178362000457565b91506200040882620004ca565b602082019050919050565b600060208201905081810360008301526200042e81620003c5565b9050919050565b600060208201905081810360008301526200045081620003ec565b9050919050565b600082825260208201905092915050565b600062000475826200047c565b9050919050565b600073ffffffffffffffffffffffffffffffffffffffff82169050919050565b600080fd5b7f43616e6e6f7420736574206f776e657220746f207a65726f0000000000000000600082015250565b7f43616e6e6f74207472616e7366657220746f2073656c66000000000000000000600082015250565b620004fe8162000468565b81146200050a57600080fd5b50565b610e14806200051d6000396000f3fe608060405234801561001057600080fd5b50600436106100885760003560e01c806396b8d7c01161005b57806396b8d7c0146100ef578063d2db63721461010b578063f2fde38b14610129578063f43b36131461014557610088565b8063181f5a771461008d5780636fadcf72146100ab57806379ba5097146100c75780638da5cb5b146100d1575b600080fd5b610095610163565b6040516100a29190610a6f565b60405180910390f35b6100c560048036038101906100c09190610880565b610183565b005b6100cf6102d0565b005b6100d9610465565b6040516100e69190610a54565b60405180910390f35b61010960048036038101906101049190610853565b61048e565b005b6101136104a2565b6040516101209190610a54565b60405180910390f35b610143600480360381019061013e9190610853565b6104cc565b005b61014d6104e0565b60405161015a9190610a54565b60405180910390f35b6060604051806060016040528060228152602001610dbd60229139905090565b61018b6104e0565b73ffffffffffffffffffffffffffffffffffffffff163373ffffffffffffffffffffffffffffffffffffffff16146101f8576040517f08c379a00000000000000000000000000000000000000000000000000000000081526004016101ef90610ab1565b60405180910390fd5b6000808373ffffffffffffffffffffffffffffffffffffffff16836040516102209190610a3d565b6000604051808303816000865af19150503d806000811461025d576040519150601f19603f3d011682016040523d82523d6000602084013e610262565b606091505b509150915081816040516020016102799190610af1565b604051602081830303815290604052906102c9576040517f08c379a00000000000000000000000000000000000000000000000000000000081526004016102c09190610a6f565b60405180910390fd5b5050505050565b600160009054906101000a900473ffffffffffffffffffffffffffffffffffffffff1673ffffffffffffffffffffffffffffffffffffffff163373ffffffffffffffffffffffffffffffffffffffff1614610360576040517f08c379a000000000000000000000000000000000000000000000000000000000815260040161035790610a91565b60405180910390fd5b60008060009054906101000a900473ffffffffffffffffffffffffffffffffffffffff169050336000806101000a81548173ffffffffffffffffffffffffffffffffffffffff021916908373ffffffffffffffffffffffffffffffffffffffff1602179055506000600160006101000a81548173ffffffffffffffffffffffffffffffffffffffff021916908373ffffffffffffffffffffffffffffffffffffffff1602179055503373ffffffffffffffffffffffffffffffffffffffff168173ffffffffffffffffffffffffffffffffffffffff167f8be0079c531659141344cd1fd0a4f28419497f9722a3daafe3b4186f6b6457e060405160405180910390a350565b60008060009054906101000a900473ffffffffffffffffffffffffffffffffffffffff16905090565b6104966104f7565b61049f81610587565b50565b6000600260009054906101000a900473ffffffffffffffffffffffffffffffffffffffff16905090565b6104d46104f7565b6104dd81610681565b50565b60006104f26104ed6104a2565b6107ae565b905090565b60008054906101000a900473ffffffffffffffffffffffffffffffffffffffff1673ffffffffffffffffffffffffffffffffffffffff163373ffffffffffffffffffffffffffffffffffffffff1614610585576040517f08c379a000000000000000000000000000000000000000000000000000000000815260040161057c90610ad1565b60405180910390fd5b565b6000600260009054906101000a900473ffffffffffffffffffffffffffffffffffffffff1690508173ffffffffffffffffffffffffffffffffffffffff168173ffffffffffffffffffffffffffffffffffffffff161461067d5781600260006101000a81548173ffffffffffffffffffffffffffffffffffffffff021916908373ffffffffffffffffffffffffffffffffffffffff1602179055508173ffffffffffffffffffffffffffffffffffffffff168173ffffffffffffffffffffffffffffffffffffffff167fb0121dbcab67289d5cb13a1f35ca086715f35ef418e0eda134c4145a086b627260405160405180910390a35b5050565b3373ffffffffffffffffffffffffffffffffffffffff168173ffffffffffffffffffffffffffffffffffffffff1614156106f0576040517f08c379a00000000000000000000000000000000000000000000000000000000081526004016106e790610b26565b60405180910390fd5b80600160006101000a81548173ffffffffffffffffffffffffffffffffffffffff021916908373ffffffffffffffffffffffffffffffffffffffff1602179055508073ffffffffffffffffffffffffffffffffffffffff1660008054906101000a900473ffffffffffffffffffffffffffffffffffffffff1673ffffffffffffffffffffffffffffffffffffffff167fed8889f560326eb138920d842192f0eb3dd22b4f139c87a2c57538e05bae127860405160405180910390a350565b600073111100000000000000000000000000000000111182019050919050565b60006107e16107dc84610b6b565b610b46565b9050828152602081018484840111156107fd576107fc610cb8565b5b610808848285610c11565b509392505050565b60008135905061081f81610da5565b92915050565b600082601f83011261083a57610839610cb3565b5b813561084a8482602086016107ce565b91505092915050565b60006020828403121561086957610868610cc2565b5b600061087784828501610810565b91505092915050565b6000806040838503121561089757610896610cc2565b5b60006108a585828601610810565b925050602083013567ffffffffffffffff8111156108c6576108c5610cbd565b5b6108d285828601610825565b9150509250929050565b6108e581610bdf565b82525050565b60006108f682610b9c565b6109008185610bb2565b9350610910818560208601610c20565b61091981610cc7565b840191505092915050565b600061092f82610b9c565b6109398185610bc3565b9350610949818560208601610c20565b80840191505092915050565b600061096082610ba7565b61096a8185610bce565b935061097a818560208601610c20565b61098381610cc7565b840191505092915050565b600061099b601683610bce565b91506109a682610cd8565b602082019050919050565b60006109be601e83610bce565b91506109c982610d01565b602082019050919050565b60006109e1601683610bce565b91506109ec82610d2a565b602082019050919050565b6000610a04601483610bce565b9150610a0f82610d53565b602082019050919050565b6000610a27601783610bce565b9150610a3282610d7c565b602082019050919050565b6000610a498284610924565b915081905092915050565b6000602082019050610a6960008301846108dc565b92915050565b60006020820190508181036000830152610a898184610955565b905092915050565b60006020820190508181036000830152610aaa8161098e565b9050919050565b60006020820190508181036000830152610aca816109b1565b9050919050565b60006020820190508181036000830152610aea816109d4565b9050919050565b60006040820190508181036000830152610b0a816109f7565b90508181036020830152610b1e81846108eb565b905092915050565b60006020820190508181036000830152610b3f81610a1a565b9050919050565b6000610b50610b61565b9050610b5c8282610c53565b919050565b6000604051905090565b600067ffffffffffffffff821115610b8657610b85610c84565b5b610b8f82610cc7565b9050602081019050919050565b600081519050919050565b600081519050919050565b600082825260208201905092915050565b600081905092915050565b600082825260208201905092915050565b6000610bea82610bf1565b9050919050565b600073ffffffffffffffffffffffffffffffffffffffff82169050919050565b82818337600083830152505050565b60005b83811015610c3e578082015181840152602081019050610c23565b83811115610c4d576000848401525b50505050565b610c5c82610cc7565b810181811067ffffffffffffffff82111715610c7b57610c7a610c84565b5b80604052505050565b7f4e487b7100000000000000000000000000000000000000000000000000000000600052604160045260246000fd5b600080fd5b600080fd5b600080fd5b600080fd5b6000601f19601f8301169050919050565b7f4d7573742062652070726f706f736564206f776e657200000000000000000000600082015250565b7f53656e646572206973206e6f7420746865204c32206d657373656e6765720000600082015250565b7f4f6e6c792063616c6c61626c65206279206f776e657200000000000000000000600082015250565b7f78446f6d61696e2063616c6c206661696c65643a000000000000000000000000600082015250565b7f43616e6e6f74207472616e7366657220746f2073656c66000000000000000000600082015250565b610dae81610bdf565b8114610db957600080fd5b5056fe417262697472756d43726f7373446f6d61696e466f7277617264657220302e312e30a2646970667358221220fe60e5395f0316ea27f23d513dfdcb47c138269ce4c66154d651a864a08d430b64736f6c63430008060033",
  "linkReferences": {},
  "deployedLinkReferences": {}
}