{
  "_format": "hh-sol-artifact-1",
  "contractName": "VRFRequestIDBaseTestHelper",
  "sourceName": "contracts/chainlink/v0.8/tests/VRFRequestIDBaseTestHelper.sol",
  "abi": [
    {
      "inputs": [
        {
          "internalType": "bytes32",
          "name": "_keyHash",
          "type": "bytes32"
        },
        {
          "internalType": "uint256",
          "name": "_vRFInputSeed",
          "type": "uint256"
        }
      ],
      "name": "makeRequestId_",
      "outputs": [
        {
          "internalType": "bytes32",
          "name": "",
          "type": "bytes32"
        }
      ],
      "stateMutability": "pure",
      "type": "function"
    },
    {
      "inputs": [
        {
          "internalType": "bytes32",
          "name": "_keyHash",
          "type": "bytes32"
        },
        {
          "internalType": "uint256",
          "name": "_userSeed",
          "type": "uint256"
        },
        {
          "internalType": "address",
          "name": "_requester",
          "type": "address"
        },
        {
          "internalType": "uint256",
          "name": "_nonce",
          "type": "uint256"
        }
      ],
      "name": "makeVRFInputSeed_",
      "outputs": [
        {
          "internalType": "uint256",
          "name": "",
          "type": "uint256"
        }
      ],
      "stateMutability": "pure",
      "type": "function"
    }
  ],
  "bytecode": "0x608060405234801561001057600080fd5b506103f8806100206000396000f3fe608060405234801561001057600080fd5b50600436106100365760003560e01c806337ab429a1461003b578063bda087ae1461006b575b600080fd5b610055600480360381019061005091906101b5565b61009b565b6040516100629190610303565b60405180910390f35b61008560048036038101906100809190610175565b6100b3565b60405161009291906102a3565b60405180910390f35b60006100a9858585856100c7565b9050949350505050565b60006100bf8383610103565b905092915050565b6000848484846040516020016100e094939291906102be565b6040516020818303038152906040528051906020012060001c9050949350505050565b60008282604051602001610118929190610277565b60405160208183030381529060405280519060200120905092915050565b6000813590506101458161037d565b92915050565b60008135905061015a81610394565b92915050565b60008135905061016f816103ab565b92915050565b6000806040838503121561018c5761018b610378565b5b600061019a8582860161014b565b92505060206101ab85828601610160565b9150509250929050565b600080600080608085870312156101cf576101ce610378565b5b60006101dd8782880161014b565b94505060206101ee87828801610160565b93505060406101ff87828801610136565b925050606061021087828801610160565b91505092959194509250565b6102258161031e565b82525050565b61023481610330565b82525050565b61024b61024682610330565b610364565b82525050565b61025a8161035a565b82525050565b61027161026c8261035a565b61036e565b82525050565b6000610283828561023a565b6020820191506102938284610260565b6020820191508190509392505050565b60006020820190506102b8600083018461022b565b92915050565b60006080820190506102d3600083018761022b565b6102e06020830186610251565b6102ed604083018561021c565b6102fa6060830184610251565b95945050505050565b60006020820190506103186000830184610251565b92915050565b60006103298261033a565b9050919050565b6000819050919050565b600073ffffffffffffffffffffffffffffffffffffffff82169050919050565b6000819050919050565b6000819050919050565b6000819050919050565b600080fd5b6103868161031e565b811461039157600080fd5b50565b61039d81610330565b81146103a857600080fd5b50565b6103b48161035a565b81146103bf57600080fd5b5056fea26469706673582212201a6065f1e809d93538da5d3251db63143f5855f2d38635e6928aab823f6cb11164736f6c63430008060033",
  "linkReferences": {},
  "deployedLinkReferences": {}
}