{
  "_format": "hh-sol-artifact-1",
  "contractName": "GameItem",
  "sourceName": "contracts/WrappedNft.sol",
  "abi": [
    {
      "inputs": [
        {
          "internalType": "address",
          "name": "_source",
          "type": "address"
        }
      ],
      "stateMutability": "nonpayable",
      "type": "constructor"
    },
    {
      "anonymous": false,
      "inputs": [
        {
          "indexed": true,
          "internalType": "address",
          "name": "owner",
          "type": "address"
        },
        {
          "indexed": true,
          "internalType": "address",
          "name": "approved",
          "type": "address"
        },
        {
          "indexed": true,
          "internalType": "uint256",
          "name": "tokenId",
          "type": "uint256"
        }
      ],
      "name": "Approval",
      "type": "event"
    },
    {
      "anonymous": false,
      "inputs": [
        {
          "indexed": true,
          "internalType": "address",
          "name": "owner",
          "type": "address"
        },
        {
          "indexed": true,
          "internalType": "address",
          "name": "operator",
          "type": "address"
        },
        {
          "indexed": false,
          "internalType": "bool",
          "name": "approved",
          "type": "bool"
        }
      ],
      "name": "ApprovalForAll",
      "type": "event"
    },
    {
      "anonymous": false,
      "inputs": [
        {
          "indexed": true,
          "internalType": "address",
          "name": "from",
          "type": "address"
        },
        {
          "indexed": true,
          "internalType": "address",
          "name": "to",
          "type": "address"
        },
        {
          "indexed": true,
          "internalType": "uint256",
          "name": "tokenId",
          "type": "uint256"
        }
      ],
      "name": "Transfer",
      "type": "event"
    },
    {
      "inputs": [
        {
          "internalType": "address",
          "name": "to",
          "type": "address"
        },
        {
          "internalType": "uint256",
          "name": "tokenId",
          "type": "uint256"
        }
      ],
      "name": "approve",
      "outputs": [],
      "stateMutability": "nonpayable",
      "type": "function"
    },
    {
      "inputs": [
        {
          "internalType": "address",
          "name": "owner",
          "type": "address"
        }
      ],
      "name": "balanceOf",
      "outputs": [
        {
          "internalType": "uint256",
          "name": "",
          "type": "uint256"
        }
      ],
      "stateMutability": "view",
      "type": "function"
    },
    {
      "inputs": [
        {
          "internalType": "uint256",
          "name": "tokenId",
          "type": "uint256"
        }
      ],
      "name": "getApproved",
      "outputs": [
        {
          "internalType": "address",
          "name": "",
          "type": "address"
        }
      ],
      "stateMutability": "view",
      "type": "function"
    },
    {
      "inputs": [
        {
          "internalType": "address",
          "name": "owner",
          "type": "address"
        },
        {
          "internalType": "address",
          "name": "operator",
          "type": "address"
        }
      ],
      "name": "isApprovedForAll",
      "outputs": [
        {
          "internalType": "bool",
          "name": "",
          "type": "bool"
        }
      ],
      "stateMutability": "view",
      "type": "function"
    },
    {
      "inputs": [
        {
          "internalType": "uint256",
          "name": "id",
          "type": "uint256"
        },
        {
          "internalType": "address",
          "name": "player",
          "type": "address"
        },
        {
          "internalType": "string",
          "name": "tokenURI",
          "type": "string"
        }
      ],
      "name": "mint",
      "outputs": [
        {
          "internalType": "uint256",
          "name": "",
          "type": "uint256"
        }
      ],
      "stateMutability": "nonpayable",
      "type": "function"
    },
    {
      "inputs": [],
      "name": "name",
      "outputs": [
        {
          "internalType": "string",
          "name": "",
          "type": "string"
        }
      ],
      "stateMutability": "view",
      "type": "function"
    },
    {
      "inputs": [
        {
          "internalType": "uint256",
          "name": "tokenId",
          "type": "uint256"
        }
      ],
      "name": "ownerOf",
      "outputs": [
        {
          "internalType": "address",
          "name": "",
          "type": "address"
        }
      ],
      "stateMutability": "view",
      "type": "function"
    },
    {
      "inputs": [
        {
          "internalType": "address",
          "name": "from",
          "type": "address"
        },
        {
          "internalType": "address",
          "name": "to",
          "type": "address"
        },
        {
          "internalType": "uint256",
          "name": "tokenId",
          "type": "uint256"
        }
      ],
      "name": "safeTransferFrom",
      "outputs": [],
      "stateMutability": "nonpayable",
      "type": "function"
    },
    {
      "inputs": [
        {
          "internalType": "address",
          "name": "_from",
          "type": "address"
        },
        {
          "internalType": "address",
          "name": "_to",
          "type": "address"
        },
        {
          "internalType": "uint256",
          "name": "_tokenId",
          "type": "uint256"
        },
        {
          "internalType": "bytes",
          "name": "_data",
          "type": "bytes"
        }
      ],
      "name": "safeTransferFrom",
      "outputs": [],
      "stateMutability": "nonpayable",
      "type": "function"
    },
    {
      "inputs": [
        {
          "internalType": "address",
          "name": "operator",
          "type": "address"
        },
        {
          "internalType": "bool",
          "name": "approved",
          "type": "bool"
        }
      ],
      "name": "setApprovalForAll",
      "outputs": [],
      "stateMutability": "nonpayable",
      "type": "function"
    },
    {
      "inputs": [],
      "name": "source",
      "outputs": [
        {
          "internalType": "address",
          "name": "",
          "type": "address"
        }
      ],
      "stateMutability": "view",
      "type": "function"
    },
    {
      "inputs": [
        {
          "internalType": "bytes4",
          "name": "interfaceId",
          "type": "bytes4"
        }
      ],
      "name": "supportsInterface",
      "outputs": [
        {
          "internalType": "bool",
          "name": "",
          "type": "bool"
        }
      ],
      "stateMutability": "view",
      "type": "function"
    },
    {
      "inputs": [],
      "name": "symbol",
      "outputs": [
        {
          "internalType": "string",
          "name": "",
          "type": "string"
        }
      ],
      "stateMutability": "view",
      "type": "function"
    },
    {
      "inputs": [
        {
          "internalType": "uint256",
          "name": "tokenId",
          "type": "uint256"
        }
      ],
      "name": "tokenURI",
      "outputs": [
        {
          "internalType": "string",
          "name": "",
          "type": "string"
        }
      ],
      "stateMutability": "view",
      "type": "function"
    },
    {
      "inputs": [
        {
          "internalType": "address",
          "name": "_from",
          "type": "address"
        },
        {
          "internalType": "address",
          "name": "_to",
          "type": "address"
        },
        {
          "internalType": "uint256",
          "name": "_tokenId",
          "type": "uint256"
        }
      ],
      "name": "transferFrom",
      "outputs": [],
      "stateMutability": "nonpayable",
      "type": "function"
    }
  ],
  "bytecode": "0x60806040523480156200001157600080fd5b506040516200282838038062002828833981810160405281019062000037919062000259565b6040518060400160405280601581526020017f57726170706564204272696467652053636170657300000000000000000000008152506040518060400160405280600781526020017f57534341504553000000000000000000000000000000000000000000000000008152508160009080519060200190620000bb92919062000192565b508060019080519060200190620000d492919062000192565b505050600073ffffffffffffffffffffffffffffffffffffffff168173ffffffffffffffffffffffffffffffffffffffff1614156200014a576040517f08c379a00000000000000000000000000000000000000000000000000000000081526004016200014190620002c7565b60405180910390fd5b80600860006101000a81548173ffffffffffffffffffffffffffffffffffffffff021916908373ffffffffffffffffffffffffffffffffffffffff16021790555050620003ad565b828054620001a0906200032e565b90600052602060002090601f016020900481019282620001c4576000855562000210565b82601f10620001df57805160ff191683800117855562000210565b8280016001018555821562000210579182015b828111156200020f578251825591602001919060010190620001f2565b5b5090506200021f919062000223565b5090565b5b808211156200023e57600081600090555060010162000224565b5090565b600081519050620002538162000393565b92915050565b6000602082840312156200026c57600080fd5b60006200027c8482850162000242565b91505092915050565b600062000294600c83620002e9565b91507f5a45524f5f4144445245535300000000000000000000000000000000000000006000830152602082019050919050565b60006020820190508181036000830152620002e28162000285565b9050919050565b600082825260208201905092915050565b600062000307826200030e565b9050919050565b600073ffffffffffffffffffffffffffffffffffffffff82169050919050565b600060028204905060018216806200034757607f821691505b602082108114156200035e576200035d62000364565b5b50919050565b7f4e487b7100000000000000000000000000000000000000000000000000000000600052602260045260246000fd5b6200039e81620002fa565b8114620003aa57600080fd5b50565b61246b80620003bd6000396000f3fe608060405234801561001057600080fd5b50600436106100f55760003560e01c806367e828bf11610097578063b88d4fde11610066578063b88d4fde14610284578063c87b56dd146102a0578063e67e402c146102d0578063e985e9c514610300576100f5565b806367e828bf146101fc57806370a082311461021a57806395d89b411461024a578063a22cb46514610268576100f5565b8063095ea7b3116100d3578063095ea7b31461017857806323b872dd1461019457806342842e0e146101b05780636352211e146101cc576100f5565b806301ffc9a7146100fa57806306fdde031461012a578063081812fc14610148575b600080fd5b610114600480360381019061010f91906117e0565b610330565b6040516101219190611e1f565b60405180910390f35b610132610412565b60405161013f9190611e3a565b60405180910390f35b610162600480360381019061015d9190611809565b6104a4565b60405161016f9190611e04565b60405180910390f35b610192600480360381019061018d91906117a4565b610529565b005b6101ae60048036038101906101a9919061169e565b610641565b005b6101ca60048036038101906101c5919061169e565b610646565b005b6101e660048036038101906101e19190611809565b610666565b6040516101f39190611e04565b60405180910390f35b610204610718565b6040516102119190611e04565b60405180910390f35b610234600480360381019061022f9190611610565b61073e565b604051610241919061201c565b60405180910390f35b6102526107f6565b60405161025f9190611e3a565b60405180910390f35b610282600480360381019061027d9190611768565b610888565b005b61029e600480360381019061029991906116ed565b610a09565b005b6102ba60048036038101906102b59190611809565b610a0e565b6040516102c79190611e3a565b60405180910390f35b6102ea60048036038101906102e59190611832565b610b60565b6040516102f7919061201c565b60405180910390f35b61031a60048036038101906103159190611662565b610d57565b6040516103279190611e1f565b60405180910390f35b60007f80ac58cd000000000000000000000000000000000000000000000000000000007bffffffffffffffffffffffffffffffffffffffffffffffffffffffff1916827bffffffffffffffffffffffffffffffffffffffffffffffffffffffff191614806103fb57507f5b5e139f000000000000000000000000000000000000000000000000000000007bffffffffffffffffffffffffffffffffffffffffffffffffffffffff1916827bffffffffffffffffffffffffffffffffffffffffffffffffffffffff1916145b8061040b575061040a82610deb565b5b9050919050565b60606000805461042190612260565b80601f016020809104026020016040519081016040528092919081815260200182805461044d90612260565b801561049a5780601f1061046f5761010080835404028352916020019161049a565b820191906000526020600020905b81548152906001019060200180831161047d57829003601f168201915b5050505050905090565b60006104af82610e55565b6104ee576040517f08c379a00000000000000000000000000000000000000000000000000000000081526004016104e590611f9c565b60405180910390fd5b6004600083815260200190815260200160002060009054906101000a900473ffffffffffffffffffffffffffffffffffffffff169050919050565b600061053482610666565b90508073ffffffffffffffffffffffffffffffffffffffff168373ffffffffffffffffffffffffffffffffffffffff1614156105a5576040517f08c379a000000000000000000000000000000000000000000000000000000000815260040161059c90611fdc565b60405180910390fd5b8073ffffffffffffffffffffffffffffffffffffffff166105c4610ec1565b73ffffffffffffffffffffffffffffffffffffffff1614806105f357506105f2816105ed610ec1565b610d57565b5b610632576040517f08c379a000000000000000000000000000000000000000000000000000000000815260040161062990611ebc565b60405180910390fd5b61063c8383610ec9565b505050565b600080fd5b61066183838360405180602001604052806000815250610a09565b505050565b6000806002600084815260200190815260200160002060009054906101000a900473ffffffffffffffffffffffffffffffffffffffff169050600073ffffffffffffffffffffffffffffffffffffffff168173ffffffffffffffffffffffffffffffffffffffff16141561070f576040517f08c379a000000000000000000000000000000000000000000000000000000000815260040161070690611efc565b60405180910390fd5b80915050919050565b600860009054906101000a900473ffffffffffffffffffffffffffffffffffffffff1681565b60008073ffffffffffffffffffffffffffffffffffffffff168273ffffffffffffffffffffffffffffffffffffffff1614156107af576040517f08c379a00000000000000000000000000000000000000000000000000000000081526004016107a690611edc565b60405180910390fd5b600360008373ffffffffffffffffffffffffffffffffffffffff1673ffffffffffffffffffffffffffffffffffffffff168152602001908152602001600020549050919050565b60606001805461080590612260565b80601f016020809104026020016040519081016040528092919081815260200182805461083190612260565b801561087e5780601f106108535761010080835404028352916020019161087e565b820191906000526020600020905b81548152906001019060200180831161086157829003601f168201915b5050505050905090565b610890610ec1565b73ffffffffffffffffffffffffffffffffffffffff168273ffffffffffffffffffffffffffffffffffffffff1614156108fe576040517f08c379a00000000000000000000000000000000000000000000000000000000081526004016108f590611e7c565b60405180910390fd5b806005600061090b610ec1565b73ffffffffffffffffffffffffffffffffffffffff1673ffffffffffffffffffffffffffffffffffffffff16815260200190815260200160002060008473ffffffffffffffffffffffffffffffffffffffff1673ffffffffffffffffffffffffffffffffffffffff16815260200190815260200160002060006101000a81548160ff0219169083151502179055508173ffffffffffffffffffffffffffffffffffffffff166109b8610ec1565b73ffffffffffffffffffffffffffffffffffffffff167f17307eab39ab6107e8899845ad3d59bd9653f200f220920489ca2b5937696c31836040516109fd9190611e1f565b60405180910390a35050565b600080fd5b6060610a1982610e55565b610a58576040517f08c379a0000000000000000000000000000000000000000000000000000000008152600401610a4f90611f7c565b60405180910390fd5b6000600660008481526020019081526020016000208054610a7890612260565b80601f0160208091040260200160405190810160405280929190818152602001828054610aa490612260565b8015610af15780601f10610ac657610100808354040283529160200191610af1565b820191906000526020600020905b815481529060010190602001808311610ad457829003601f168201915b505050505090506000610b02610f82565b9050600081511415610b18578192505050610b5b565b600082511115610b4d578082604051602001610b35929190611de0565b60405160208183030381529060405292505050610b5b565b610b5684610f99565b925050505b919050565b6000808411610ba4576040517f08c379a0000000000000000000000000000000000000000000000000000000008152600401610b9b90611f3c565b60405180910390fd5b6000600860009054906101000a900473ffffffffffffffffffffffffffffffffffffffff1690508373ffffffffffffffffffffffffffffffffffffffff168173ffffffffffffffffffffffffffffffffffffffff16636352211e876040518263ffffffff1660e01b8152600401610c1b919061201c565b60206040518083038186803b158015610c3357600080fd5b505afa158015610c47573d6000803e3d6000fd5b505050506040513d601f19601f82011682018060405250810190610c6b9190611639565b73ffffffffffffffffffffffffffffffffffffffff1614610cc1576040517f08c379a0000000000000000000000000000000000000000000000000000000008152600401610cb890611ffc565b60405180910390fd5b600073ffffffffffffffffffffffffffffffffffffffff16610ce286610666565b73ffffffffffffffffffffffffffffffffffffffff1614610d38576040517f08c379a0000000000000000000000000000000000000000000000000000000008152600401610d2f90611e9c565b60405180910390fd5b610d428486611040565b610d4c858461120e565b849150509392505050565b6000600560008473ffffffffffffffffffffffffffffffffffffffff1673ffffffffffffffffffffffffffffffffffffffff16815260200190815260200160002060008373ffffffffffffffffffffffffffffffffffffffff1673ffffffffffffffffffffffffffffffffffffffff16815260200190815260200160002060009054906101000a900460ff16905092915050565b60007f01ffc9a7000000000000000000000000000000000000000000000000000000007bffffffffffffffffffffffffffffffffffffffffffffffffffffffff1916827bffffffffffffffffffffffffffffffffffffffffffffffffffffffff1916149050919050565b60008073ffffffffffffffffffffffffffffffffffffffff166002600084815260200190815260200160002060009054906101000a900473ffffffffffffffffffffffffffffffffffffffff1673ffffffffffffffffffffffffffffffffffffffff1614159050919050565b600033905090565b816004600083815260200190815260200160002060006101000a81548173ffffffffffffffffffffffffffffffffffffffff021916908373ffffffffffffffffffffffffffffffffffffffff160217905550808273ffffffffffffffffffffffffffffffffffffffff16610f3c83610666565b73ffffffffffffffffffffffffffffffffffffffff167f8c5be1e5ebec7d5bd14f71427d1e84f3dd0314c0f7b2291e5b200ac8c7c3b92560405160405180910390a45050565b606060405180602001604052806000815250905090565b6060610fa482610e55565b610fe3576040517f08c379a0000000000000000000000000000000000000000000000000000000008152600401610fda90611fbc565b60405180910390fd5b6000610fed610f82565b9050600081511161100d5760405180602001604052806000815250611038565b8061101784611282565b604051602001611028929190611de0565b6040516020818303038152906040525b915050919050565b600073ffffffffffffffffffffffffffffffffffffffff168273ffffffffffffffffffffffffffffffffffffffff1614156110b0576040517f08c379a00000000000000000000000000000000000000000000000000000000081526004016110a790611f5c565b60405180910390fd5b6110b981610e55565b156110f9576040517f08c379a00000000000000000000000000000000000000000000000000000000081526004016110f090611e5c565b60405180910390fd5b6111056000838361142f565b6001600360008473ffffffffffffffffffffffffffffffffffffffff1673ffffffffffffffffffffffffffffffffffffffff168152602001908152602001600020600082825461115591906120ef565b92505081905550816002600083815260200190815260200160002060006101000a81548173ffffffffffffffffffffffffffffffffffffffff021916908373ffffffffffffffffffffffffffffffffffffffff160217905550808273ffffffffffffffffffffffffffffffffffffffff16600073ffffffffffffffffffffffffffffffffffffffff167fddf252ad1be2c89b69c2b068fc378daa952ba7f163c4a11628f55a4df523b3ef60405160405180910390a45050565b61121782610e55565b611256576040517f08c379a000000000000000000000000000000000000000000000000000000000815260040161124d90611f1c565b60405180910390fd5b8060066000848152602001908152602001600020908051906020019061127d929190611434565b505050565b606060008214156112ca576040518060400160405280600181526020017f3000000000000000000000000000000000000000000000000000000000000000815250905061142a565b600082905060005b600082146112fc5780806112e590612292565b915050600a826112f59190612145565b91506112d2565b60008167ffffffffffffffff81111561133e577f4e487b7100000000000000000000000000000000000000000000000000000000600052604160045260246000fd5b6040519080825280601f01601f1916602001820160405280156113705781602001600182028036833780820191505090505b5090505b60008514611423576001826113899190612176565b9150600a8561139891906122db565b60306113a491906120ef565b60f81b8183815181106113e0577f4e487b7100000000000000000000000000000000000000000000000000000000600052603260045260246000fd5b60200101907effffffffffffffffffffffffffffffffffffffffffffffffffffffffffffff1916908160001a905350600a8561141c9190612145565b9450611374565b8093505050505b919050565b505050565b82805461144090612260565b90600052602060002090601f01602090048101928261146257600085556114a9565b82601f1061147b57805160ff19168380011785556114a9565b828001600101855582156114a9579182015b828111156114a857825182559160200191906001019061148d565b5b5090506114b691906114ba565b5090565b5b808211156114d35760008160009055506001016114bb565b5090565b60006114ea6114e584612068565b612037565b90508281526020810184848401111561150257600080fd5b61150d84828561221e565b509392505050565b600061152861152384612098565b612037565b90508281526020810184848401111561154057600080fd5b61154b84828561221e565b509392505050565b600081359050611562816123d9565b92915050565b600081519050611577816123d9565b92915050565b60008135905061158c816123f0565b92915050565b6000813590506115a181612407565b92915050565b600082601f8301126115b857600080fd5b81356115c88482602086016114d7565b91505092915050565b600082601f8301126115e257600080fd5b81356115f2848260208601611515565b91505092915050565b60008135905061160a8161241e565b92915050565b60006020828403121561162257600080fd5b600061163084828501611553565b91505092915050565b60006020828403121561164b57600080fd5b600061165984828501611568565b91505092915050565b6000806040838503121561167557600080fd5b600061168385828601611553565b925050602061169485828601611553565b9150509250929050565b6000806000606084860312156116b357600080fd5b60006116c186828701611553565b93505060206116d286828701611553565b92505060406116e3868287016115fb565b9150509250925092565b6000806000806080858703121561170357600080fd5b600061171187828801611553565b945050602061172287828801611553565b9350506040611733878288016115fb565b925050606085013567ffffffffffffffff81111561175057600080fd5b61175c878288016115a7565b91505092959194509250565b6000806040838503121561177b57600080fd5b600061178985828601611553565b925050602061179a8582860161157d565b9150509250929050565b600080604083850312156117b757600080fd5b60006117c585828601611553565b92505060206117d6858286016115fb565b9150509250929050565b6000602082840312156117f257600080fd5b600061180084828501611592565b91505092915050565b60006020828403121561181b57600080fd5b6000611829848285016115fb565b91505092915050565b60008060006060848603121561184757600080fd5b6000611855868287016115fb565b935050602061186686828701611553565b925050604084013567ffffffffffffffff81111561188357600080fd5b61188f868287016115d1565b9150509250925092565b6118a2816121aa565b82525050565b6118b1816121bc565b82525050565b60006118c2826120c8565b6118cc81856120d3565b93506118dc81856020860161222d565b6118e5816123c8565b840191505092915050565b60006118fb826120c8565b61190581856120e4565b935061191581856020860161222d565b80840191505092915050565b600061192e601c836120d3565b91507f4552433732313a20746f6b656e20616c7265616479206d696e746564000000006000830152602082019050919050565b600061196e6019836120d3565b91507f4552433732313a20617070726f766520746f2063616c6c6572000000000000006000830152602082019050919050565b60006119ae6006836120d3565b91507f4d494e54454400000000000000000000000000000000000000000000000000006000830152602082019050919050565b60006119ee6038836120d3565b91507f4552433732313a20617070726f76652063616c6c6572206973206e6f74206f7760008301527f6e6572206e6f7220617070726f76656420666f7220616c6c00000000000000006020830152604082019050919050565b6000611a54602a836120d3565b91507f4552433732313a2062616c616e636520717565727920666f7220746865207a6560008301527f726f2061646472657373000000000000000000000000000000000000000000006020830152604082019050919050565b6000611aba6029836120d3565b91507f4552433732313a206f776e657220717565727920666f72206e6f6e657869737460008301527f656e7420746f6b656e00000000000000000000000000000000000000000000006020830152604082019050919050565b6000611b20602e836120d3565b91507f45524337323155524953746f726167653a2055524920736574206f66206e6f6e60008301527f6578697374656e7420746f6b656e0000000000000000000000000000000000006020830152604082019050919050565b6000611b866010836120d3565b91507f494e56414c49445f544f4b454e5f4944000000000000000000000000000000006000830152602082019050919050565b6000611bc66020836120d3565b91507f4552433732313a206d696e7420746f20746865207a65726f20616464726573736000830152602082019050919050565b6000611c066031836120d3565b91507f45524337323155524953746f726167653a2055524920717565727920666f722060008301527f6e6f6e6578697374656e7420746f6b656e0000000000000000000000000000006020830152604082019050919050565b6000611c6c602c836120d3565b91507f4552433732313a20617070726f76656420717565727920666f72206e6f6e657860008301527f697374656e7420746f6b656e00000000000000000000000000000000000000006020830152604082019050919050565b6000611cd2602f836120d3565b91507f4552433732314d657461646174613a2055524920717565727920666f72206e6f60008301527f6e6578697374656e7420746f6b656e00000000000000000000000000000000006020830152604082019050919050565b6000611d386021836120d3565b91507f4552433732313a20617070726f76616c20746f2063757272656e74206f776e6560008301527f72000000000000000000000000000000000000000000000000000000000000006020830152604082019050919050565b6000611d9e6009836120d3565b91507f4e4f545f4f574e455200000000000000000000000000000000000000000000006000830152602082019050919050565b611dda81612214565b82525050565b6000611dec82856118f0565b9150611df882846118f0565b91508190509392505050565b6000602082019050611e196000830184611899565b92915050565b6000602082019050611e3460008301846118a8565b92915050565b60006020820190508181036000830152611e5481846118b7565b905092915050565b60006020820190508181036000830152611e7581611921565b9050919050565b60006020820190508181036000830152611e9581611961565b9050919050565b60006020820190508181036000830152611eb5816119a1565b9050919050565b60006020820190508181036000830152611ed5816119e1565b9050919050565b60006020820190508181036000830152611ef581611a47565b9050919050565b60006020820190508181036000830152611f1581611aad565b9050919050565b60006020820190508181036000830152611f3581611b13565b9050919050565b60006020820190508181036000830152611f5581611b79565b9050919050565b60006020820190508181036000830152611f7581611bb9565b9050919050565b60006020820190508181036000830152611f9581611bf9565b9050919050565b60006020820190508181036000830152611fb581611c5f565b9050919050565b60006020820190508181036000830152611fd581611cc5565b9050919050565b60006020820190508181036000830152611ff581611d2b565b9050919050565b6000602082019050818103600083015261201581611d91565b9050919050565b60006020820190506120316000830184611dd1565b92915050565b6000604051905081810181811067ffffffffffffffff8211171561205e5761205d612399565b5b8060405250919050565b600067ffffffffffffffff82111561208357612082612399565b5b601f19601f8301169050602081019050919050565b600067ffffffffffffffff8211156120b3576120b2612399565b5b601f19601f8301169050602081019050919050565b600081519050919050565b600082825260208201905092915050565b600081905092915050565b60006120fa82612214565b915061210583612214565b9250827fffffffffffffffffffffffffffffffffffffffffffffffffffffffffffffffff0382111561213a5761213961230c565b5b828201905092915050565b600061215082612214565b915061215b83612214565b92508261216b5761216a61233b565b5b828204905092915050565b600061218182612214565b915061218c83612214565b92508282101561219f5761219e61230c565b5b828203905092915050565b60006121b5826121f4565b9050919050565b60008115159050919050565b60007fffffffff0000000000000000000000000000000000000000000000000000000082169050919050565b600073ffffffffffffffffffffffffffffffffffffffff82169050919050565b6000819050919050565b82818337600083830152505050565b60005b8381101561224b578082015181840152602081019050612230565b8381111561225a576000848401525b50505050565b6000600282049050600182168061227857607f821691505b6020821081141561228c5761228b61236a565b5b50919050565b600061229d82612214565b91507fffffffffffffffffffffffffffffffffffffffffffffffffffffffffffffffff8214156122d0576122cf61230c565b5b600182019050919050565b60006122e682612214565b91506122f183612214565b9250826123015761230061233b565b5b828206905092915050565b7f4e487b7100000000000000000000000000000000000000000000000000000000600052601160045260246000fd5b7f4e487b7100000000000000000000000000000000000000000000000000000000600052601260045260246000fd5b7f4e487b7100000000000000000000000000000000000000000000000000000000600052602260045260246000fd5b7f4e487b7100000000000000000000000000000000000000000000000000000000600052604160045260246000fd5b6000601f19601f8301169050919050565b6123e2816121aa565b81146123ed57600080fd5b50565b6123f9816121bc565b811461240457600080fd5b50565b612410816121c8565b811461241b57600080fd5b50565b61242781612214565b811461243257600080fd5b5056fea26469706673582212201c4fcdd61119a15f64fbb6c2d5b7715753d08b380612e9cbd5ed21fbac61f69a64736f6c63430008000033",
  "linkReferences": {},
  "deployedLinkReferences": {}
}