{
  "_format": "hh-sol-artifact-1",
  "contractName": "WrappedNft",
  "sourceName": "contracts/WrappedNft.sol",
  "abi": [
    {
      "inputs": [
        {
          "internalType": "address",
          "name": "_source",
          "type": "address"
        }
      ],
      "stateMutability": "nonpayable",
      "type": "constructor"
    },
    {
      "anonymous": false,
      "inputs": [
        {
          "indexed": true,
          "internalType": "address",
          "name": "owner",
          "type": "address"
        },
        {
          "indexed": true,
          "internalType": "address",
          "name": "approved",
          "type": "address"
        },
        {
          "indexed": true,
          "internalType": "uint256",
          "name": "tokenId",
          "type": "uint256"
        }
      ],
      "name": "Approval",
      "type": "event"
    },
    {
      "anonymous": false,
      "inputs": [
        {
          "indexed": true,
          "internalType": "address",
          "name": "owner",
          "type": "address"
        },
        {
          "indexed": true,
          "internalType": "address",
          "name": "operator",
          "type": "address"
        },
        {
          "indexed": false,
          "internalType": "bool",
          "name": "approved",
          "type": "bool"
        }
      ],
      "name": "ApprovalForAll",
      "type": "event"
    },
    {
      "anonymous": false,
      "inputs": [
        {
          "indexed": false,
          "internalType": "address",
          "name": "operator",
          "type": "address"
        },
        {
          "indexed": false,
          "internalType": "address",
          "name": "from",
          "type": "address"
        },
        {
          "indexed": false,
          "internalType": "uint256",
          "name": "tokenId",
          "type": "uint256"
        },
        {
          "indexed": false,
          "internalType": "bytes",
          "name": "data",
          "type": "bytes"
        }
      ],
      "name": "NftReceived",
      "type": "event"
    },
    {
      "anonymous": false,
      "inputs": [
        {
          "indexed": true,
          "internalType": "address",
          "name": "from",
          "type": "address"
        },
        {
          "indexed": true,
          "internalType": "address",
          "name": "to",
          "type": "address"
        },
        {
          "indexed": true,
          "internalType": "uint256",
          "name": "tokenId",
          "type": "uint256"
        }
      ],
      "name": "Transfer",
      "type": "event"
    },
    {
      "inputs": [
        {
          "internalType": "address",
          "name": "to",
          "type": "address"
        },
        {
          "internalType": "uint256",
          "name": "tokenId",
          "type": "uint256"
        }
      ],
      "name": "approve",
      "outputs": [],
      "stateMutability": "nonpayable",
      "type": "function"
    },
    {
      "inputs": [
        {
          "internalType": "address",
          "name": "owner",
          "type": "address"
        }
      ],
      "name": "balanceOf",
      "outputs": [
        {
          "internalType": "uint256",
          "name": "",
          "type": "uint256"
        }
      ],
      "stateMutability": "view",
      "type": "function"
    },
    {
      "inputs": [
        {
          "internalType": "uint256",
          "name": "tokenId",
          "type": "uint256"
        }
      ],
      "name": "getApproved",
      "outputs": [
        {
          "internalType": "address",
          "name": "",
          "type": "address"
        }
      ],
      "stateMutability": "view",
      "type": "function"
    },
    {
      "inputs": [
        {
          "internalType": "address",
          "name": "owner",
          "type": "address"
        },
        {
          "internalType": "address",
          "name": "operator",
          "type": "address"
        }
      ],
      "name": "isApprovedForAll",
      "outputs": [
        {
          "internalType": "bool",
          "name": "",
          "type": "bool"
        }
      ],
      "stateMutability": "view",
      "type": "function"
    },
    {
      "inputs": [
        {
          "internalType": "uint256",
          "name": "id",
          "type": "uint256"
        }
      ],
      "name": "mint",
      "outputs": [
        {
          "internalType": "uint256",
          "name": "",
          "type": "uint256"
        }
      ],
      "stateMutability": "nonpayable",
      "type": "function"
    },
    {
      "inputs": [],
      "name": "name",
      "outputs": [
        {
          "internalType": "string",
          "name": "",
          "type": "string"
        }
      ],
      "stateMutability": "view",
      "type": "function"
    },
    {
      "inputs": [
        {
          "internalType": "address",
          "name": "operator",
          "type": "address"
        },
        {
          "internalType": "address",
          "name": "from",
          "type": "address"
        },
        {
          "internalType": "uint256",
          "name": "tokenId",
          "type": "uint256"
        },
        {
          "internalType": "bytes",
          "name": "data",
          "type": "bytes"
        }
      ],
      "name": "onERC721Received",
      "outputs": [
        {
          "internalType": "bytes4",
          "name": "",
          "type": "bytes4"
        }
      ],
      "stateMutability": "nonpayable",
      "type": "function"
    },
    {
      "inputs": [
        {
          "internalType": "uint256",
          "name": "tokenId",
          "type": "uint256"
        }
      ],
      "name": "ownerOf",
      "outputs": [
        {
          "internalType": "address",
          "name": "",
          "type": "address"
        }
      ],
      "stateMutability": "view",
      "type": "function"
    },
    {
      "inputs": [
        {
          "internalType": "address",
          "name": "from",
          "type": "address"
        },
        {
          "internalType": "address",
          "name": "to",
          "type": "address"
        },
        {
          "internalType": "uint256",
          "name": "tokenId",
          "type": "uint256"
        }
      ],
      "name": "safeTransferFrom",
      "outputs": [],
      "stateMutability": "nonpayable",
      "type": "function"
    },
    {
      "inputs": [
        {
          "internalType": "address",
          "name": "_from",
          "type": "address"
        },
        {
          "internalType": "address",
          "name": "_to",
          "type": "address"
        },
        {
          "internalType": "uint256",
          "name": "_tokenId",
          "type": "uint256"
        },
        {
          "internalType": "bytes",
          "name": "_data",
          "type": "bytes"
        }
      ],
      "name": "safeTransferFrom",
      "outputs": [],
      "stateMutability": "nonpayable",
      "type": "function"
    },
    {
      "inputs": [
        {
          "internalType": "address",
          "name": "operator",
          "type": "address"
        },
        {
          "internalType": "bool",
          "name": "approved",
          "type": "bool"
        }
      ],
      "name": "setApprovalForAll",
      "outputs": [],
      "stateMutability": "nonpayable",
      "type": "function"
    },
    {
      "inputs": [],
      "name": "source",
      "outputs": [
        {
          "internalType": "address",
          "name": "",
          "type": "address"
        }
      ],
      "stateMutability": "view",
      "type": "function"
    },
    {
      "inputs": [
        {
          "internalType": "bytes4",
          "name": "interfaceId",
          "type": "bytes4"
        }
      ],
      "name": "supportsInterface",
      "outputs": [
        {
          "internalType": "bool",
          "name": "",
          "type": "bool"
        }
      ],
      "stateMutability": "view",
      "type": "function"
    },
    {
      "inputs": [],
      "name": "symbol",
      "outputs": [
        {
          "internalType": "string",
          "name": "",
          "type": "string"
        }
      ],
      "stateMutability": "view",
      "type": "function"
    },
    {
      "inputs": [
        {
          "internalType": "uint256",
          "name": "tokenId",
          "type": "uint256"
        }
      ],
      "name": "tokenURI",
      "outputs": [
        {
          "internalType": "string",
          "name": "",
          "type": "string"
        }
      ],
      "stateMutability": "view",
      "type": "function"
    },
    {
      "inputs": [
        {
          "internalType": "address",
          "name": "_from",
          "type": "address"
        },
        {
          "internalType": "address",
          "name": "_to",
          "type": "address"
        },
        {
          "internalType": "uint256",
          "name": "_tokenId",
          "type": "uint256"
        }
      ],
      "name": "transferFrom",
      "outputs": [],
      "stateMutability": "nonpayable",
      "type": "function"
    },
    {
      "inputs": [
        {
          "internalType": "uint256",
          "name": "id",
          "type": "uint256"
        }
      ],
      "name": "withdraw",
      "outputs": [
        {
          "internalType": "uint256",
          "name": "",
          "type": "uint256"
        }
      ],
      "stateMutability": "nonpayable",
      "type": "function"
    }
  ],
  "bytecode": "0x60806040523480156200001157600080fd5b5060405162002ed638038062002ed6833981810160405281019062000037919062000259565b6040518060400160405280601581526020017f57726170706564204272696467652053636170657300000000000000000000008152506040518060400160405280600781526020017f57534341504553000000000000000000000000000000000000000000000000008152508160009080519060200190620000bb92919062000192565b508060019080519060200190620000d492919062000192565b505050600073ffffffffffffffffffffffffffffffffffffffff168173ffffffffffffffffffffffffffffffffffffffff1614156200014a576040517f08c379a00000000000000000000000000000000000000000000000000000000081526004016200014190620002c7565b60405180910390fd5b80600860006101000a81548173ffffffffffffffffffffffffffffffffffffffff021916908373ffffffffffffffffffffffffffffffffffffffff16021790555050620003ad565b828054620001a0906200032e565b90600052602060002090601f016020900481019282620001c4576000855562000210565b82601f10620001df57805160ff191683800117855562000210565b8280016001018555821562000210579182015b828111156200020f578251825591602001919060010190620001f2565b5b5090506200021f919062000223565b5090565b5b808211156200023e57600081600090555060010162000224565b5090565b600081519050620002538162000393565b92915050565b6000602082840312156200026c57600080fd5b60006200027c8482850162000242565b91505092915050565b600062000294600c83620002e9565b91507f5a45524f5f4144445245535300000000000000000000000000000000000000006000830152602082019050919050565b60006020820190508181036000830152620002e28162000285565b9050919050565b600082825260208201905092915050565b600062000307826200030e565b9050919050565b600073ffffffffffffffffffffffffffffffffffffffff82169050919050565b600060028204905060018216806200034757607f821691505b602082108114156200035e576200035d62000364565b5b50919050565b7f4e487b7100000000000000000000000000000000000000000000000000000000600052602260045260246000fd5b6200039e81620002fa565b8114620003aa57600080fd5b50565b612b1980620003bd6000396000f3fe608060405234801561001057600080fd5b506004361061010b5760003560e01c80636352211e116100a2578063a0712d6811610071578063a0712d68146102de578063a22cb4651461030e578063b88d4fde1461032a578063c87b56dd14610346578063e985e9c5146103765761010b565b80636352211e1461024257806367e828bf1461027257806370a082311461029057806395d89b41146102c05761010b565b8063150b7a02116100de578063150b7a02146101aa57806323b872dd146101da5780632e1a7d4d146101f657806342842e0e146102265761010b565b806301ffc9a71461011057806306fdde0314610140578063081812fc1461015e578063095ea7b31461018e575b600080fd5b61012a60048036038101906101259190611d85565b6103a6565b6040516101379190612496565b60405180910390f35b610148610488565b60405161015591906124cc565b60405180910390f35b61017860048036038101906101739190611def565b61051a565b60405161018591906123e5565b60405180910390f35b6101a860048036038101906101a39190611d49565b61059f565b005b6101c460048036038101906101bf9190611c92565b6106b7565b6040516101d191906124b1565b60405180910390f35b6101f460048036038101906101ef9190611c43565b610761565b005b610210600480360381019061020b9190611def565b610766565b60405161021d91906126ae565b60405180910390f35b610240600480360381019061023b9190611c43565b6109be565b005b61025c60048036038101906102579190611def565b6109de565b60405161026991906123e5565b60405180910390f35b61027a610a90565b60405161028791906123e5565b60405180910390f35b6102aa60048036038101906102a59190611bb5565b610ab6565b6040516102b791906126ae565b60405180910390f35b6102c8610b6e565b6040516102d591906124cc565b60405180910390f35b6102f860048036038101906102f39190611def565b610c00565b60405161030591906126ae565b60405180910390f35b61032860048036038101906103239190611d0d565b610e80565b005b610344600480360381019061033f9190611c92565b611001565b005b610360600480360381019061035b9190611def565b611006565b60405161036d91906124cc565b60405180910390f35b610390600480360381019061038b9190611c07565b611158565b60405161039d9190612496565b60405180910390f35b60007f80ac58cd000000000000000000000000000000000000000000000000000000007bffffffffffffffffffffffffffffffffffffffffffffffffffffffff1916827bffffffffffffffffffffffffffffffffffffffffffffffffffffffff1916148061047157507f5b5e139f000000000000000000000000000000000000000000000000000000007bffffffffffffffffffffffffffffffffffffffffffffffffffffffff1916827bffffffffffffffffffffffffffffffffffffffffffffffffffffffff1916145b806104815750610480826111ec565b5b9050919050565b6060600080546104979061290e565b80601f01602080910402602001604051908101604052809291908181526020018280546104c39061290e565b80156105105780601f106104e557610100808354040283529160200191610510565b820191906000526020600020905b8154815290600101906020018083116104f357829003601f168201915b5050505050905090565b600061052582611256565b610564576040517f08c379a000000000000000000000000000000000000000000000000000000000815260040161055b9061262e565b60405180910390fd5b6004600083815260200190815260200160002060009054906101000a900473ffffffffffffffffffffffffffffffffffffffff169050919050565b60006105aa826109de565b90508073ffffffffffffffffffffffffffffffffffffffff168373ffffffffffffffffffffffffffffffffffffffff16141561061b576040517f08c379a00000000000000000000000000000000000000000000000000000000081526004016106129061266e565b60405180910390fd5b8073ffffffffffffffffffffffffffffffffffffffff1661063a6112c2565b73ffffffffffffffffffffffffffffffffffffffff1614806106695750610668816106636112c2565b611158565b5b6106a8576040517f08c379a000000000000000000000000000000000000000000000000000000000815260040161069f9061254e565b60405180910390fd5b6106b283836112ca565b505050565b60008473ffffffffffffffffffffffffffffffffffffffff163073ffffffffffffffffffffffffffffffffffffffff16146106f857600060e01b9050610759565b7f0895c277367ff99b8c0dec875f3149fc2c82df592f63ca6f0747ac20951690878585858560405161072d9493929190612400565b60405180910390a17f150b7a023d4804d13e8c85fb27262cb750cf6ba9f9dd3bb30d90f482ceeb4b1f90505b949350505050565b600080fd5b60008082116107aa576040517f08c379a00000000000000000000000000000000000000000000000000000000081526004016107a1906125ce565b60405180910390fd5b3373ffffffffffffffffffffffffffffffffffffffff166107ca836109de565b73ffffffffffffffffffffffffffffffffffffffff1614610820576040517f08c379a00000000000000000000000000000000000000000000000000000000081526004016108179061268e565b60405180910390fd5b6000600860009054906101000a900473ffffffffffffffffffffffffffffffffffffffff1690503073ffffffffffffffffffffffffffffffffffffffff168173ffffffffffffffffffffffffffffffffffffffff16636352211e856040518263ffffffff1660e01b815260040161089791906126ae565b60206040518083038186803b1580156108af57600080fd5b505afa1580156108c3573d6000803e3d6000fd5b505050506040513d601f19601f820116820180604052508101906108e79190611bde565b73ffffffffffffffffffffffffffffffffffffffff161461093d576040517f08c379a00000000000000000000000000000000000000000000000000000000081526004016109349061252e565b60405180910390fd5b8073ffffffffffffffffffffffffffffffffffffffff1663b88d4fde3033866040518463ffffffff1660e01b815260040161097a9392919061244c565b600060405180830381600087803b15801561099457600080fd5b505af11580156109a8573d6000803e3d6000fd5b505050506109b583611383565b82915050919050565b6109d983838360405180602001604052806000815250611001565b505050565b6000806002600084815260200190815260200160002060009054906101000a900473ffffffffffffffffffffffffffffffffffffffff169050600073ffffffffffffffffffffffffffffffffffffffff168173ffffffffffffffffffffffffffffffffffffffff161415610a87576040517f08c379a0000000000000000000000000000000000000000000000000000000008152600401610a7e9061258e565b60405180910390fd5b80915050919050565b600860009054906101000a900473ffffffffffffffffffffffffffffffffffffffff1681565b60008073ffffffffffffffffffffffffffffffffffffffff168273ffffffffffffffffffffffffffffffffffffffff161415610b27576040517f08c379a0000000000000000000000000000000000000000000000000000000008152600401610b1e9061256e565b60405180910390fd5b600360008373ffffffffffffffffffffffffffffffffffffffff1673ffffffffffffffffffffffffffffffffffffffff168152602001908152602001600020549050919050565b606060018054610b7d9061290e565b80601f0160208091040260200160405190810160405280929190818152602001828054610ba99061290e565b8015610bf65780601f10610bcb57610100808354040283529160200191610bf6565b820191906000526020600020905b815481529060010190602001808311610bd957829003601f168201915b5050505050905090565b6000808211610c44576040517f08c379a0000000000000000000000000000000000000000000000000000000008152600401610c3b906125ce565b60405180910390fd5b6000600860009054906101000a900473ffffffffffffffffffffffffffffffffffffffff1690503373ffffffffffffffffffffffffffffffffffffffff168173ffffffffffffffffffffffffffffffffffffffff16636352211e856040518263ffffffff1660e01b8152600401610cbb91906126ae565b60206040518083038186803b158015610cd357600080fd5b505afa158015610ce7573d6000803e3d6000fd5b505050506040513d601f19601f82011682018060405250810190610d0b9190611bde565b73ffffffffffffffffffffffffffffffffffffffff1614610d61576040517f08c379a0000000000000000000000000000000000000000000000000000000008152600401610d589061268e565b60405180910390fd5b60008173ffffffffffffffffffffffffffffffffffffffff1663c87b56dd856040518263ffffffff1660e01b8152600401610d9c91906126ae565b60006040518083038186803b158015610db457600080fd5b505afa158015610dc8573d6000803e3d6000fd5b505050506040513d6000823e3d601f19601f82011682018060405250810190610df19190611dae565b90508173ffffffffffffffffffffffffffffffffffffffff1663b88d4fde3330876040518463ffffffff1660e01b8152600401610e309392919061244c565b600060405180830381600087803b158015610e4a57600080fd5b505af1158015610e5e573d6000803e3d6000fd5b50505050610e6c33856113d6565b610e7684826115a4565b8392505050919050565b610e886112c2565b73ffffffffffffffffffffffffffffffffffffffff168273ffffffffffffffffffffffffffffffffffffffff161415610ef6576040517f08c379a0000000000000000000000000000000000000000000000000000000008152600401610eed9061250e565b60405180910390fd5b8060056000610f036112c2565b73ffffffffffffffffffffffffffffffffffffffff1673ffffffffffffffffffffffffffffffffffffffff16815260200190815260200160002060008473ffffffffffffffffffffffffffffffffffffffff1673ffffffffffffffffffffffffffffffffffffffff16815260200190815260200160002060006101000a81548160ff0219169083151502179055508173ffffffffffffffffffffffffffffffffffffffff16610fb06112c2565b73ffffffffffffffffffffffffffffffffffffffff167f17307eab39ab6107e8899845ad3d59bd9653f200f220920489ca2b5937696c3183604051610ff59190612496565b60405180910390a35050565b600080fd5b606061101182611256565b611050576040517f08c379a00000000000000000000000000000000000000000000000000000000081526004016110479061260e565b60405180910390fd5b60006006600084815260200190815260200160002080546110709061290e565b80601f016020809104026020016040519081016040528092919081815260200182805461109c9061290e565b80156110e95780601f106110be576101008083540402835291602001916110e9565b820191906000526020600020905b8154815290600101906020018083116110cc57829003601f168201915b5050505050905060006110fa611618565b9050600081511415611110578192505050611153565b60008251111561114557808260405160200161112d9291906123c1565b60405160208183030381529060405292505050611153565b61114e8461162f565b925050505b919050565b6000600560008473ffffffffffffffffffffffffffffffffffffffff1673ffffffffffffffffffffffffffffffffffffffff16815260200190815260200160002060008373ffffffffffffffffffffffffffffffffffffffff1673ffffffffffffffffffffffffffffffffffffffff16815260200190815260200160002060009054906101000a900460ff16905092915050565b60007f01ffc9a7000000000000000000000000000000000000000000000000000000007bffffffffffffffffffffffffffffffffffffffffffffffffffffffff1916827bffffffffffffffffffffffffffffffffffffffffffffffffffffffff1916149050919050565b60008073ffffffffffffffffffffffffffffffffffffffff166002600084815260200190815260200160002060009054906101000a900473ffffffffffffffffffffffffffffffffffffffff1673ffffffffffffffffffffffffffffffffffffffff1614159050919050565b600033905090565b816004600083815260200190815260200160002060006101000a81548173ffffffffffffffffffffffffffffffffffffffff021916908373ffffffffffffffffffffffffffffffffffffffff160217905550808273ffffffffffffffffffffffffffffffffffffffff1661133d836109de565b73ffffffffffffffffffffffffffffffffffffffff167f8c5be1e5ebec7d5bd14f71427d1e84f3dd0314c0f7b2291e5b200ac8c7c3b92560405160405180910390a45050565b61138c816116d6565b60006006600083815260200190815260200160002080546113ac9061290e565b9050146113d3576006600082815260200190815260200160002060006113d29190611999565b5b50565b600073ffffffffffffffffffffffffffffffffffffffff168273ffffffffffffffffffffffffffffffffffffffff161415611446576040517f08c379a000000000000000000000000000000000000000000000000000000000815260040161143d906125ee565b60405180910390fd5b61144f81611256565b1561148f576040517f08c379a0000000000000000000000000000000000000000000000000000000008152600401611486906124ee565b60405180910390fd5b61149b600083836117e7565b6001600360008473ffffffffffffffffffffffffffffffffffffffff1673ffffffffffffffffffffffffffffffffffffffff16815260200190815260200160002060008282546114eb919061279d565b92505081905550816002600083815260200190815260200160002060006101000a81548173ffffffffffffffffffffffffffffffffffffffff021916908373ffffffffffffffffffffffffffffffffffffffff160217905550808273ffffffffffffffffffffffffffffffffffffffff16600073ffffffffffffffffffffffffffffffffffffffff167fddf252ad1be2c89b69c2b068fc378daa952ba7f163c4a11628f55a4df523b3ef60405160405180910390a45050565b6115ad82611256565b6115ec576040517f08c379a00000000000000000000000000000000000000000000000000000000081526004016115e3906125ae565b60405180910390fd5b806006600084815260200190815260200160002090805190602001906116139291906119d9565b505050565b606060405180602001604052806000815250905090565b606061163a82611256565b611679576040517f08c379a00000000000000000000000000000000000000000000000000000000081526004016116709061264e565b60405180910390fd5b6000611683611618565b905060008151116116a357604051806020016040528060008152506116ce565b806116ad846117ec565b6040516020016116be9291906123c1565b6040516020818303038152906040525b915050919050565b60006116e1826109de565b90506116ef816000846117e7565b6116fa6000836112ca565b6001600360008373ffffffffffffffffffffffffffffffffffffffff1673ffffffffffffffffffffffffffffffffffffffff168152602001908152602001600020600082825461174a9190612824565b925050819055506002600083815260200190815260200160002060006101000a81549073ffffffffffffffffffffffffffffffffffffffff021916905581600073ffffffffffffffffffffffffffffffffffffffff168273ffffffffffffffffffffffffffffffffffffffff167fddf252ad1be2c89b69c2b068fc378daa952ba7f163c4a11628f55a4df523b3ef60405160405180910390a45050565b505050565b60606000821415611834576040518060400160405280600181526020017f30000000000000000000000000000000000000000000000000000000000000008152509050611994565b600082905060005b6000821461186657808061184f90612940565b915050600a8261185f91906127f3565b915061183c565b60008167ffffffffffffffff8111156118a8577f4e487b7100000000000000000000000000000000000000000000000000000000600052604160045260246000fd5b6040519080825280601f01601f1916602001820160405280156118da5781602001600182028036833780820191505090505b5090505b6000851461198d576001826118f39190612824565b9150600a856119029190612989565b603061190e919061279d565b60f81b81838151811061194a577f4e487b7100000000000000000000000000000000000000000000000000000000600052603260045260246000fd5b60200101907effffffffffffffffffffffffffffffffffffffffffffffffffffffffffffff1916908160001a905350600a8561198691906127f3565b94506118de565b8093505050505b919050565b5080546119a59061290e565b6000825580601f106119b757506119d6565b601f0160209004906000526020600020908101906119d59190611a5f565b5b50565b8280546119e59061290e565b90600052602060002090601f016020900481019282611a075760008555611a4e565b82601f10611a2057805160ff1916838001178555611a4e565b82800160010185558215611a4e579182015b82811115611a4d578251825591602001919060010190611a32565b5b509050611a5b9190611a5f565b5090565b5b80821115611a78576000816000905550600101611a60565b5090565b6000611a8f611a8a846126fa565b6126c9565b905082815260208101848484011115611aa757600080fd5b611ab28482856128cc565b509392505050565b6000611acd611ac88461272a565b6126c9565b905082815260208101848484011115611ae557600080fd5b611af08482856128db565b509392505050565b600081359050611b0781612a87565b92915050565b600081519050611b1c81612a87565b92915050565b600081359050611b3181612a9e565b92915050565b600081359050611b4681612ab5565b92915050565b600082601f830112611b5d57600080fd5b8135611b6d848260208601611a7c565b91505092915050565b600082601f830112611b8757600080fd5b8151611b97848260208601611aba565b91505092915050565b600081359050611baf81612acc565b92915050565b600060208284031215611bc757600080fd5b6000611bd584828501611af8565b91505092915050565b600060208284031215611bf057600080fd5b6000611bfe84828501611b0d565b91505092915050565b60008060408385031215611c1a57600080fd5b6000611c2885828601611af8565b9250506020611c3985828601611af8565b9150509250929050565b600080600060608486031215611c5857600080fd5b6000611c6686828701611af8565b9350506020611c7786828701611af8565b9250506040611c8886828701611ba0565b9150509250925092565b60008060008060808587031215611ca857600080fd5b6000611cb687828801611af8565b9450506020611cc787828801611af8565b9350506040611cd887828801611ba0565b925050606085013567ffffffffffffffff811115611cf557600080fd5b611d0187828801611b4c565b91505092959194509250565b60008060408385031215611d2057600080fd5b6000611d2e85828601611af8565b9250506020611d3f85828601611b22565b9150509250929050565b60008060408385031215611d5c57600080fd5b6000611d6a85828601611af8565b9250506020611d7b85828601611ba0565b9150509250929050565b600060208284031215611d9757600080fd5b6000611da584828501611b37565b91505092915050565b600060208284031215611dc057600080fd5b600082015167ffffffffffffffff811115611dda57600080fd5b611de684828501611b76565b91505092915050565b600060208284031215611e0157600080fd5b6000611e0f84828501611ba0565b91505092915050565b611e2181612858565b82525050565b611e308161286a565b82525050565b611e3f81612876565b82525050565b6000611e508261275a565b611e5a8185612770565b9350611e6a8185602086016128db565b611e7381612a76565b840191505092915050565b6000611e8982612765565b611e938185612781565b9350611ea38185602086016128db565b611eac81612a76565b840191505092915050565b6000611ec282612765565b611ecc8185612792565b9350611edc8185602086016128db565b80840191505092915050565b6000611ef5601c83612781565b91507f4552433732313a20746f6b656e20616c7265616479206d696e746564000000006000830152602082019050919050565b6000611f35601983612781565b91507f4552433732313a20617070726f766520746f2063616c6c6572000000000000006000830152602082019050919050565b6000611f75600b83612781565b91507f4e4f545f575241505045440000000000000000000000000000000000000000006000830152602082019050919050565b6000611fb5603883612781565b91507f4552433732313a20617070726f76652063616c6c6572206973206e6f74206f7760008301527f6e6572206e6f7220617070726f76656420666f7220616c6c00000000000000006020830152604082019050919050565b600061201b602a83612781565b91507f4552433732313a2062616c616e636520717565727920666f7220746865207a6560008301527f726f2061646472657373000000000000000000000000000000000000000000006020830152604082019050919050565b6000612081602983612781565b91507f4552433732313a206f776e657220717565727920666f72206e6f6e657869737460008301527f656e7420746f6b656e00000000000000000000000000000000000000000000006020830152604082019050919050565b60006120e7602e83612781565b91507f45524337323155524953746f726167653a2055524920736574206f66206e6f6e60008301527f6578697374656e7420746f6b656e0000000000000000000000000000000000006020830152604082019050919050565b600061214d601083612781565b91507f494e56414c49445f544f4b454e5f4944000000000000000000000000000000006000830152602082019050919050565b600061218d602083612781565b91507f4552433732313a206d696e7420746f20746865207a65726f20616464726573736000830152602082019050919050565b60006121cd603183612781565b91507f45524337323155524953746f726167653a2055524920717565727920666f722060008301527f6e6f6e6578697374656e7420746f6b656e0000000000000000000000000000006020830152604082019050919050565b6000612233602c83612781565b91507f4552433732313a20617070726f76656420717565727920666f72206e6f6e657860008301527f697374656e7420746f6b656e00000000000000000000000000000000000000006020830152604082019050919050565b6000612299602f83612781565b91507f4552433732314d657461646174613a2055524920717565727920666f72206e6f60008301527f6e6578697374656e7420746f6b656e00000000000000000000000000000000006020830152604082019050919050565b60006122ff602183612781565b91507f4552433732313a20617070726f76616c20746f2063757272656e74206f776e6560008301527f72000000000000000000000000000000000000000000000000000000000000006020830152604082019050919050565b6000612365600083612770565b9150600082019050919050565b600061237f600983612781565b91507f4e4f545f4f574e455200000000000000000000000000000000000000000000006000830152602082019050919050565b6123bb816128c2565b82525050565b60006123cd8285611eb7565b91506123d98284611eb7565b91508190509392505050565b60006020820190506123fa6000830184611e18565b92915050565b60006080820190506124156000830187611e18565b6124226020830186611e18565b61242f60408301856123b2565b81810360608301526124418184611e45565b905095945050505050565b60006080820190506124616000830186611e18565b61246e6020830185611e18565b61247b60408301846123b2565b818103606083015261248c81612358565b9050949350505050565b60006020820190506124ab6000830184611e27565b92915050565b60006020820190506124c66000830184611e36565b92915050565b600060208201905081810360008301526124e68184611e7e565b905092915050565b6000602082019050818103600083015261250781611ee8565b9050919050565b6000602082019050818103600083015261252781611f28565b9050919050565b6000602082019050818103600083015261254781611f68565b9050919050565b6000602082019050818103600083015261256781611fa8565b9050919050565b600060208201905081810360008301526125878161200e565b9050919050565b600060208201905081810360008301526125a781612074565b9050919050565b600060208201905081810360008301526125c7816120da565b9050919050565b600060208201905081810360008301526125e781612140565b9050919050565b6000602082019050818103600083015261260781612180565b9050919050565b60006020820190508181036000830152612627816121c0565b9050919050565b6000602082019050818103600083015261264781612226565b9050919050565b600060208201905081810360008301526126678161228c565b9050919050565b60006020820190508181036000830152612687816122f2565b9050919050565b600060208201905081810360008301526126a781612372565b9050919050565b60006020820190506126c360008301846123b2565b92915050565b6000604051905081810181811067ffffffffffffffff821117156126f0576126ef612a47565b5b8060405250919050565b600067ffffffffffffffff82111561271557612714612a47565b5b601f19601f8301169050602081019050919050565b600067ffffffffffffffff82111561274557612744612a47565b5b601f19601f8301169050602081019050919050565b600081519050919050565b600081519050919050565b600082825260208201905092915050565b600082825260208201905092915050565b600081905092915050565b60006127a8826128c2565b91506127b3836128c2565b9250827fffffffffffffffffffffffffffffffffffffffffffffffffffffffffffffffff038211156127e8576127e76129ba565b5b828201905092915050565b60006127fe826128c2565b9150612809836128c2565b925082612819576128186129e9565b5b828204905092915050565b600061282f826128c2565b915061283a836128c2565b92508282101561284d5761284c6129ba565b5b828203905092915050565b6000612863826128a2565b9050919050565b60008115159050919050565b60007fffffffff0000000000000000000000000000000000000000000000000000000082169050919050565b600073ffffffffffffffffffffffffffffffffffffffff82169050919050565b6000819050919050565b82818337600083830152505050565b60005b838110156128f95780820151818401526020810190506128de565b83811115612908576000848401525b50505050565b6000600282049050600182168061292657607f821691505b6020821081141561293a57612939612a18565b5b50919050565b600061294b826128c2565b91507fffffffffffffffffffffffffffffffffffffffffffffffffffffffffffffffff82141561297e5761297d6129ba565b5b600182019050919050565b6000612994826128c2565b915061299f836128c2565b9250826129af576129ae6129e9565b5b828206905092915050565b7f4e487b7100000000000000000000000000000000000000000000000000000000600052601160045260246000fd5b7f4e487b7100000000000000000000000000000000000000000000000000000000600052601260045260246000fd5b7f4e487b7100000000000000000000000000000000000000000000000000000000600052602260045260246000fd5b7f4e487b7100000000000000000000000000000000000000000000000000000000600052604160045260246000fd5b6000601f19601f8301169050919050565b612a9081612858565b8114612a9b57600080fd5b50565b612aa78161286a565b8114612ab257600080fd5b50565b612abe81612876565b8114612ac957600080fd5b50565b612ad5816128c2565b8114612ae057600080fd5b5056fea26469706673582212202e950c57c4daf2c98e7f6a6a414fa4f1155a87412cfcdf1c0f215dd23cf4212064736f6c63430008000033",
  "linkReferences": {},
  "deployedLinkReferences": {}
}