{
  "_format": "hh-sol-artifact-1",
  "contractName": "WrappedNft",
  "sourceName": "contracts/WrappedNft.sol",
  "abi": [
    {
      "inputs": [
        {
          "internalType": "address",
          "name": "_source",
          "type": "address"
        }
      ],
      "stateMutability": "nonpayable",
      "type": "constructor"
    },
    {
      "anonymous": false,
      "inputs": [
        {
          "indexed": true,
          "internalType": "address",
          "name": "owner",
          "type": "address"
        },
        {
          "indexed": true,
          "internalType": "address",
          "name": "approved",
          "type": "address"
        },
        {
          "indexed": true,
          "internalType": "uint256",
          "name": "tokenId",
          "type": "uint256"
        }
      ],
      "name": "Approval",
      "type": "event"
    },
    {
      "anonymous": false,
      "inputs": [
        {
          "indexed": true,
          "internalType": "address",
          "name": "owner",
          "type": "address"
        },
        {
          "indexed": true,
          "internalType": "address",
          "name": "operator",
          "type": "address"
        },
        {
          "indexed": false,
          "internalType": "bool",
          "name": "approved",
          "type": "bool"
        }
      ],
      "name": "ApprovalForAll",
      "type": "event"
    },
    {
      "anonymous": false,
      "inputs": [
        {
          "indexed": false,
          "internalType": "address",
          "name": "operator",
          "type": "address"
        },
        {
          "indexed": false,
          "internalType": "address",
          "name": "from",
          "type": "address"
        },
        {
          "indexed": false,
          "internalType": "uint256",
          "name": "tokenId",
          "type": "uint256"
        },
        {
          "indexed": false,
          "internalType": "bytes",
          "name": "data",
          "type": "bytes"
        }
      ],
      "name": "NftReceived",
      "type": "event"
    },
    {
      "anonymous": false,
      "inputs": [
        {
          "indexed": true,
          "internalType": "address",
          "name": "from",
          "type": "address"
        },
        {
          "indexed": true,
          "internalType": "address",
          "name": "to",
          "type": "address"
        },
        {
          "indexed": true,
          "internalType": "uint256",
          "name": "tokenId",
          "type": "uint256"
        }
      ],
      "name": "Transfer",
      "type": "event"
    },
    {
      "inputs": [
        {
          "internalType": "address",
          "name": "to",
          "type": "address"
        },
        {
          "internalType": "uint256",
          "name": "tokenId",
          "type": "uint256"
        }
      ],
      "name": "approve",
      "outputs": [],
      "stateMutability": "nonpayable",
      "type": "function"
    },
    {
      "inputs": [
        {
          "internalType": "address",
          "name": "owner",
          "type": "address"
        }
      ],
      "name": "balanceOf",
      "outputs": [
        {
          "internalType": "uint256",
          "name": "",
          "type": "uint256"
        }
      ],
      "stateMutability": "view",
      "type": "function"
    },
    {
      "inputs": [
        {
          "internalType": "uint256",
          "name": "",
          "type": "uint256"
        }
      ],
      "name": "blockNumbers",
      "outputs": [
        {
          "internalType": "uint256",
          "name": "",
          "type": "uint256"
        }
      ],
      "stateMutability": "view",
      "type": "function"
    },
    {
      "inputs": [
        {
          "internalType": "uint256",
          "name": "tokenId",
          "type": "uint256"
        }
      ],
      "name": "getApproved",
      "outputs": [
        {
          "internalType": "address",
          "name": "",
          "type": "address"
        }
      ],
      "stateMutability": "view",
      "type": "function"
    },
    {
      "inputs": [
        {
          "internalType": "address",
          "name": "owner",
          "type": "address"
        },
        {
          "internalType": "address",
          "name": "operator",
          "type": "address"
        }
      ],
      "name": "isApprovedForAll",
      "outputs": [
        {
          "internalType": "bool",
          "name": "",
          "type": "bool"
        }
      ],
      "stateMutability": "view",
      "type": "function"
    },
    {
      "inputs": [
        {
          "internalType": "uint256",
          "name": "id",
          "type": "uint256"
        }
      ],
      "name": "mint",
      "outputs": [
        {
          "internalType": "uint256",
          "name": "",
          "type": "uint256"
        }
      ],
      "stateMutability": "nonpayable",
      "type": "function"
    },
    {
      "inputs": [],
      "name": "name",
      "outputs": [
        {
          "internalType": "string",
          "name": "",
          "type": "string"
        }
      ],
      "stateMutability": "view",
      "type": "function"
    },
    {
      "inputs": [
        {
          "internalType": "address",
          "name": "operator",
          "type": "address"
        },
        {
          "internalType": "address",
          "name": "from",
          "type": "address"
        },
        {
          "internalType": "uint256",
          "name": "tokenId",
          "type": "uint256"
        },
        {
          "internalType": "bytes",
          "name": "data",
          "type": "bytes"
        }
      ],
      "name": "onERC721Received",
      "outputs": [
        {
          "internalType": "bytes4",
          "name": "",
          "type": "bytes4"
        }
      ],
      "stateMutability": "nonpayable",
      "type": "function"
    },
    {
      "inputs": [
        {
          "internalType": "uint256",
          "name": "tokenId",
          "type": "uint256"
        }
      ],
      "name": "ownerOf",
      "outputs": [
        {
          "internalType": "address",
          "name": "",
          "type": "address"
        }
      ],
      "stateMutability": "view",
      "type": "function"
    },
    {
      "inputs": [
        {
          "internalType": "address",
          "name": "from",
          "type": "address"
        },
        {
          "internalType": "address",
          "name": "to",
          "type": "address"
        },
        {
          "internalType": "uint256",
          "name": "tokenId",
          "type": "uint256"
        }
      ],
      "name": "safeTransferFrom",
      "outputs": [],
      "stateMutability": "nonpayable",
      "type": "function"
    },
    {
      "inputs": [
        {
          "internalType": "address",
          "name": "_from",
          "type": "address"
        },
        {
          "internalType": "address",
          "name": "_to",
          "type": "address"
        },
        {
          "internalType": "uint256",
          "name": "_tokenId",
          "type": "uint256"
        },
        {
          "internalType": "bytes",
          "name": "_data",
          "type": "bytes"
        }
      ],
      "name": "safeTransferFrom",
      "outputs": [],
      "stateMutability": "nonpayable",
      "type": "function"
    },
    {
      "inputs": [
        {
          "internalType": "address",
          "name": "operator",
          "type": "address"
        },
        {
          "internalType": "bool",
          "name": "approved",
          "type": "bool"
        }
      ],
      "name": "setApprovalForAll",
      "outputs": [],
      "stateMutability": "nonpayable",
      "type": "function"
    },
    {
      "inputs": [],
      "name": "source",
      "outputs": [
        {
          "internalType": "address",
          "name": "",
          "type": "address"
        }
      ],
      "stateMutability": "view",
      "type": "function"
    },
    {
      "inputs": [
        {
          "internalType": "bytes4",
          "name": "interfaceId",
          "type": "bytes4"
        }
      ],
      "name": "supportsInterface",
      "outputs": [
        {
          "internalType": "bool",
          "name": "",
          "type": "bool"
        }
      ],
      "stateMutability": "view",
      "type": "function"
    },
    {
      "inputs": [],
      "name": "symbol",
      "outputs": [
        {
          "internalType": "string",
          "name": "",
          "type": "string"
        }
      ],
      "stateMutability": "view",
      "type": "function"
    },
    {
      "inputs": [
        {
          "internalType": "uint256",
          "name": "tokenId",
          "type": "uint256"
        }
      ],
      "name": "tokenURI",
      "outputs": [
        {
          "internalType": "string",
          "name": "",
          "type": "string"
        }
      ],
      "stateMutability": "view",
      "type": "function"
    },
    {
      "inputs": [
        {
          "internalType": "address",
          "name": "_from",
          "type": "address"
        },
        {
          "internalType": "address",
          "name": "_to",
          "type": "address"
        },
        {
          "internalType": "uint256",
          "name": "_tokenId",
          "type": "uint256"
        }
      ],
      "name": "transferFrom",
      "outputs": [],
      "stateMutability": "nonpayable",
      "type": "function"
    },
    {
      "inputs": [
        {
          "internalType": "uint256",
          "name": "id",
          "type": "uint256"
        }
      ],
      "name": "withdraw",
      "outputs": [
        {
          "internalType": "uint256",
          "name": "",
          "type": "uint256"
        }
      ],
      "stateMutability": "nonpayable",
      "type": "function"
    }
  ],
  "bytecode": "0x60806040523480156200001157600080fd5b50604051620030c4380380620030c4833981810160405281019062000037919062000259565b6040518060400160405280601581526020017f57726170706564204272696467652053636170657300000000000000000000008152506040518060400160405280600781526020017f57534341504553000000000000000000000000000000000000000000000000008152508160009080519060200190620000bb92919062000192565b508060019080519060200190620000d492919062000192565b505050600073ffffffffffffffffffffffffffffffffffffffff168173ffffffffffffffffffffffffffffffffffffffff1614156200014a576040517f08c379a00000000000000000000000000000000000000000000000000000000081526004016200014190620002c7565b60405180910390fd5b80600860006101000a81548173ffffffffffffffffffffffffffffffffffffffff021916908373ffffffffffffffffffffffffffffffffffffffff16021790555050620003ad565b828054620001a0906200032e565b90600052602060002090601f016020900481019282620001c4576000855562000210565b82601f10620001df57805160ff191683800117855562000210565b8280016001018555821562000210579182015b828111156200020f578251825591602001919060010190620001f2565b5b5090506200021f919062000223565b5090565b5b808211156200023e57600081600090555060010162000224565b5090565b600081519050620002538162000393565b92915050565b6000602082840312156200026c57600080fd5b60006200027c8482850162000242565b91505092915050565b600062000294600c83620002e9565b91507f5a45524f5f4144445245535300000000000000000000000000000000000000006000830152602082019050919050565b60006020820190508181036000830152620002e28162000285565b9050919050565b600082825260208201905092915050565b600062000307826200030e565b9050919050565b600073ffffffffffffffffffffffffffffffffffffffff82169050919050565b600060028204905060018216806200034757607f821691505b602082108114156200035e576200035d62000364565b5b50919050565b7f4e487b7100000000000000000000000000000000000000000000000000000000600052602260045260246000fd5b6200039e81620002fa565b8114620003aa57600080fd5b50565b612d0780620003bd6000396000f3fe608060405234801561001057600080fd5b50600436106101165760003560e01c806367e828bf116100a2578063a22cb46511610071578063a22cb46514610319578063b88d4fde14610335578063c87b56dd14610351578063cd8bff3314610381578063e985e9c5146103b157610116565b806367e828bf1461027d57806370a082311461029b57806395d89b41146102cb578063a0712d68146102e957610116565b8063150b7a02116100e9578063150b7a02146101b557806323b872dd146101e55780632e1a7d4d1461020157806342842e0e146102315780636352211e1461024d57610116565b806301ffc9a71461011b57806306fdde031461014b578063081812fc14610169578063095ea7b314610199575b600080fd5b61013560048036038101906101309190611eb3565b6103e1565b6040516101429190612644565b60405180910390f35b6101536104c3565b604051610160919061267a565b60405180910390f35b610183600480360381019061017e9190611f1d565b610555565b6040516101909190612593565b60405180910390f35b6101b360048036038101906101ae9190611e77565b6105da565b005b6101cf60048036038101906101ca9190611dc0565b6106f2565b6040516101dc919061265f565b60405180910390f35b6101ff60048036038101906101fa9190611d71565b61079c565b005b61021b60048036038101906102169190611f1d565b6107a1565b604051610228919061289c565b60405180910390f35b61024b60048036038101906102469190611d71565b610a66565b005b61026760048036038101906102629190611f1d565b610a86565b6040516102749190612593565b60405180910390f35b610285610b38565b6040516102929190612593565b60405180910390f35b6102b560048036038101906102b09190611ce3565b610b5e565b6040516102c2919061289c565b60405180910390f35b6102d3610c16565b6040516102e0919061267a565b60405180910390f35b61030360048036038101906102fe9190611f1d565b610ca8565b604051610310919061289c565b60405180910390f35b610333600480360381019061032e9190611e3b565b610f96565b005b61034f600480360381019061034a9190611dc0565b611117565b005b61036b60048036038101906103669190611f1d565b61111c565b604051610378919061267a565b60405180910390f35b61039b60048036038101906103969190611f1d565b61126e565b6040516103a8919061289c565b60405180910390f35b6103cb60048036038101906103c69190611d35565b611286565b6040516103d89190612644565b60405180910390f35b60007f80ac58cd000000000000000000000000000000000000000000000000000000007bffffffffffffffffffffffffffffffffffffffffffffffffffffffff1916827bffffffffffffffffffffffffffffffffffffffffffffffffffffffff191614806104ac57507f5b5e139f000000000000000000000000000000000000000000000000000000007bffffffffffffffffffffffffffffffffffffffffffffffffffffffff1916827bffffffffffffffffffffffffffffffffffffffffffffffffffffffff1916145b806104bc57506104bb8261131a565b5b9050919050565b6060600080546104d290612afc565b80601f01602080910402602001604051908101604052809291908181526020018280546104fe90612afc565b801561054b5780601f106105205761010080835404028352916020019161054b565b820191906000526020600020905b81548152906001019060200180831161052e57829003601f168201915b5050505050905090565b600061056082611384565b61059f576040517f08c379a0000000000000000000000000000000000000000000000000000000008152600401610596906127dc565b60405180910390fd5b6004600083815260200190815260200160002060009054906101000a900473ffffffffffffffffffffffffffffffffffffffff169050919050565b60006105e582610a86565b90508073ffffffffffffffffffffffffffffffffffffffff168373ffffffffffffffffffffffffffffffffffffffff161415610656576040517f08c379a000000000000000000000000000000000000000000000000000000000815260040161064d9061281c565b60405180910390fd5b8073ffffffffffffffffffffffffffffffffffffffff166106756113f0565b73ffffffffffffffffffffffffffffffffffffffff1614806106a457506106a38161069e6113f0565b611286565b5b6106e3576040517f08c379a00000000000000000000000000000000000000000000000000000000081526004016106da906126fc565b60405180910390fd5b6106ed83836113f8565b505050565b60008473ffffffffffffffffffffffffffffffffffffffff163073ffffffffffffffffffffffffffffffffffffffff161461073357600060e01b9050610794565b7f0895c277367ff99b8c0dec875f3149fc2c82df592f63ca6f0747ac20951690878585858560405161076894939291906125ae565b60405180910390a17f150b7a023d4804d13e8c85fb27262cb750cf6ba9f9dd3bb30d90f482ceeb4b1f90505b949350505050565b600080fd5b60008082116107e5576040517f08c379a00000000000000000000000000000000000000000000000000000000081526004016107dc9061277c565b60405180910390fd5b600060096000848152602001908152602001600020541161083b576040517f08c379a00000000000000000000000000000000000000000000000000000000081526004016108329061287c565b60405180910390fd5b3373ffffffffffffffffffffffffffffffffffffffff1661085b83610a86565b73ffffffffffffffffffffffffffffffffffffffff16146108b1576040517f08c379a00000000000000000000000000000000000000000000000000000000081526004016108a89061283c565b60405180910390fd5b6000600860009054906101000a900473ffffffffffffffffffffffffffffffffffffffff1690503073ffffffffffffffffffffffffffffffffffffffff168173ffffffffffffffffffffffffffffffffffffffff16636352211e856040518263ffffffff1660e01b8152600401610928919061289c565b60206040518083038186803b15801561094057600080fd5b505afa158015610954573d6000803e3d6000fd5b505050506040513d601f19601f820116820180604052508101906109789190611d0c565b73ffffffffffffffffffffffffffffffffffffffff16146109ce576040517f08c379a00000000000000000000000000000000000000000000000000000000081526004016109c5906126dc565b60405180910390fd5b8073ffffffffffffffffffffffffffffffffffffffff1663b88d4fde3033866040518463ffffffff1660e01b8152600401610a0b939291906125fa565b600060405180830381600087803b158015610a2557600080fd5b505af1158015610a39573d6000803e3d6000fd5b50505050610a46836114b1565b600960008481526020019081526020016000206000905582915050919050565b610a8183838360405180602001604052806000815250611117565b505050565b6000806002600084815260200190815260200160002060009054906101000a900473ffffffffffffffffffffffffffffffffffffffff169050600073ffffffffffffffffffffffffffffffffffffffff168173ffffffffffffffffffffffffffffffffffffffff161415610b2f576040517f08c379a0000000000000000000000000000000000000000000000000000000008152600401610b269061273c565b60405180910390fd5b80915050919050565b600860009054906101000a900473ffffffffffffffffffffffffffffffffffffffff1681565b60008073ffffffffffffffffffffffffffffffffffffffff168273ffffffffffffffffffffffffffffffffffffffff161415610bcf576040517f08c379a0000000000000000000000000000000000000000000000000000000008152600401610bc69061271c565b60405180910390fd5b600360008373ffffffffffffffffffffffffffffffffffffffff1673ffffffffffffffffffffffffffffffffffffffff168152602001908152602001600020549050919050565b606060018054610c2590612afc565b80601f0160208091040260200160405190810160405280929190818152602001828054610c5190612afc565b8015610c9e5780601f10610c7357610100808354040283529160200191610c9e565b820191906000526020600020905b815481529060010190602001808311610c8157829003601f168201915b5050505050905090565b6000808211610cec576040517f08c379a0000000000000000000000000000000000000000000000000000000008152600401610ce39061277c565b60405180910390fd5b6000600960008481526020019081526020016000205414610d42576040517f08c379a0000000000000000000000000000000000000000000000000000000008152600401610d399061285c565b60405180910390fd5b6000600860009054906101000a900473ffffffffffffffffffffffffffffffffffffffff1690503373ffffffffffffffffffffffffffffffffffffffff168173ffffffffffffffffffffffffffffffffffffffff16636352211e856040518263ffffffff1660e01b8152600401610db9919061289c565b60206040518083038186803b158015610dd157600080fd5b505afa158015610de5573d6000803e3d6000fd5b505050506040513d601f19601f82011682018060405250810190610e099190611d0c565b73ffffffffffffffffffffffffffffffffffffffff1614610e5f576040517f08c379a0000000000000000000000000000000000000000000000000000000008152600401610e569061283c565b60405180910390fd5b60008173ffffffffffffffffffffffffffffffffffffffff1663c87b56dd856040518263ffffffff1660e01b8152600401610e9a919061289c565b60006040518083038186803b158015610eb257600080fd5b505afa158015610ec6573d6000803e3d6000fd5b505050506040513d6000823e3d601f19601f82011682018060405250810190610eef9190611edc565b90508173ffffffffffffffffffffffffffffffffffffffff1663b88d4fde3330876040518463ffffffff1660e01b8152600401610f2e939291906125fa565b600060405180830381600087803b158015610f4857600080fd5b505af1158015610f5c573d6000803e3d6000fd5b50505050610f6a3385611504565b610f7484826116d2565b4360096000868152602001908152602001600020819055508392505050919050565b610f9e6113f0565b73ffffffffffffffffffffffffffffffffffffffff168273ffffffffffffffffffffffffffffffffffffffff16141561100c576040517f08c379a0000000000000000000000000000000000000000000000000000000008152600401611003906126bc565b60405180910390fd5b80600560006110196113f0565b73ffffffffffffffffffffffffffffffffffffffff1673ffffffffffffffffffffffffffffffffffffffff16815260200190815260200160002060008473ffffffffffffffffffffffffffffffffffffffff1673ffffffffffffffffffffffffffffffffffffffff16815260200190815260200160002060006101000a81548160ff0219169083151502179055508173ffffffffffffffffffffffffffffffffffffffff166110c66113f0565b73ffffffffffffffffffffffffffffffffffffffff167f17307eab39ab6107e8899845ad3d59bd9653f200f220920489ca2b5937696c318360405161110b9190612644565b60405180910390a35050565b600080fd5b606061112782611384565b611166576040517f08c379a000000000000000000000000000000000000000000000000000000000815260040161115d906127bc565b60405180910390fd5b600060066000848152602001908152602001600020805461118690612afc565b80601f01602080910402602001604051908101604052809291908181526020018280546111b290612afc565b80156111ff5780601f106111d4576101008083540402835291602001916111ff565b820191906000526020600020905b8154815290600101906020018083116111e257829003601f168201915b505050505090506000611210611746565b9050600081511415611226578192505050611269565b60008251111561125b57808260405160200161124392919061256f565b60405160208183030381529060405292505050611269565b6112648461175d565b925050505b919050565b60096020528060005260406000206000915090505481565b6000600560008473ffffffffffffffffffffffffffffffffffffffff1673ffffffffffffffffffffffffffffffffffffffff16815260200190815260200160002060008373ffffffffffffffffffffffffffffffffffffffff1673ffffffffffffffffffffffffffffffffffffffff16815260200190815260200160002060009054906101000a900460ff16905092915050565b60007f01ffc9a7000000000000000000000000000000000000000000000000000000007bffffffffffffffffffffffffffffffffffffffffffffffffffffffff1916827bffffffffffffffffffffffffffffffffffffffffffffffffffffffff1916149050919050565b60008073ffffffffffffffffffffffffffffffffffffffff166002600084815260200190815260200160002060009054906101000a900473ffffffffffffffffffffffffffffffffffffffff1673ffffffffffffffffffffffffffffffffffffffff1614159050919050565b600033905090565b816004600083815260200190815260200160002060006101000a81548173ffffffffffffffffffffffffffffffffffffffff021916908373ffffffffffffffffffffffffffffffffffffffff160217905550808273ffffffffffffffffffffffffffffffffffffffff1661146b83610a86565b73ffffffffffffffffffffffffffffffffffffffff167f8c5be1e5ebec7d5bd14f71427d1e84f3dd0314c0f7b2291e5b200ac8c7c3b92560405160405180910390a45050565b6114ba81611804565b60006006600083815260200190815260200160002080546114da90612afc565b905014611501576006600082815260200190815260200160002060006115009190611ac7565b5b50565b600073ffffffffffffffffffffffffffffffffffffffff168273ffffffffffffffffffffffffffffffffffffffff161415611574576040517f08c379a000000000000000000000000000000000000000000000000000000000815260040161156b9061279c565b60405180910390fd5b61157d81611384565b156115bd576040517f08c379a00000000000000000000000000000000000000000000000000000000081526004016115b49061269c565b60405180910390fd5b6115c960008383611915565b6001600360008473ffffffffffffffffffffffffffffffffffffffff1673ffffffffffffffffffffffffffffffffffffffff1681526020019081526020016000206000828254611619919061298b565b92505081905550816002600083815260200190815260200160002060006101000a81548173ffffffffffffffffffffffffffffffffffffffff021916908373ffffffffffffffffffffffffffffffffffffffff160217905550808273ffffffffffffffffffffffffffffffffffffffff16600073ffffffffffffffffffffffffffffffffffffffff167fddf252ad1be2c89b69c2b068fc378daa952ba7f163c4a11628f55a4df523b3ef60405160405180910390a45050565b6116db82611384565b61171a576040517f08c379a00000000000000000000000000000000000000000000000000000000081526004016117119061275c565b60405180910390fd5b80600660008481526020019081526020016000209080519060200190611741929190611b07565b505050565b606060405180602001604052806000815250905090565b606061176882611384565b6117a7576040517f08c379a000000000000000000000000000000000000000000000000000000000815260040161179e906127fc565b60405180910390fd5b60006117b1611746565b905060008151116117d157604051806020016040528060008152506117fc565b806117db8461191a565b6040516020016117ec92919061256f565b6040516020818303038152906040525b915050919050565b600061180f82610a86565b905061181d81600084611915565b6118286000836113f8565b6001600360008373ffffffffffffffffffffffffffffffffffffffff1673ffffffffffffffffffffffffffffffffffffffff16815260200190815260200160002060008282546118789190612a12565b925050819055506002600083815260200190815260200160002060006101000a81549073ffffffffffffffffffffffffffffffffffffffff021916905581600073ffffffffffffffffffffffffffffffffffffffff168273ffffffffffffffffffffffffffffffffffffffff167fddf252ad1be2c89b69c2b068fc378daa952ba7f163c4a11628f55a4df523b3ef60405160405180910390a45050565b505050565b60606000821415611962576040518060400160405280600181526020017f30000000000000000000000000000000000000000000000000000000000000008152509050611ac2565b600082905060005b6000821461199457808061197d90612b2e565b915050600a8261198d91906129e1565b915061196a565b60008167ffffffffffffffff8111156119d6577f4e487b7100000000000000000000000000000000000000000000000000000000600052604160045260246000fd5b6040519080825280601f01601f191660200182016040528015611a085781602001600182028036833780820191505090505b5090505b60008514611abb57600182611a219190612a12565b9150600a85611a309190612b77565b6030611a3c919061298b565b60f81b818381518110611a78577f4e487b7100000000000000000000000000000000000000000000000000000000600052603260045260246000fd5b60200101907effffffffffffffffffffffffffffffffffffffffffffffffffffffffffffff1916908160001a905350600a85611ab491906129e1565b9450611a0c565b8093505050505b919050565b508054611ad390612afc565b6000825580601f10611ae55750611b04565b601f016020900490600052602060002090810190611b039190611b8d565b5b50565b828054611b1390612afc565b90600052602060002090601f016020900481019282611b355760008555611b7c565b82601f10611b4e57805160ff1916838001178555611b7c565b82800160010185558215611b7c579182015b82811115611b7b578251825591602001919060010190611b60565b5b509050611b899190611b8d565b5090565b5b80821115611ba6576000816000905550600101611b8e565b5090565b6000611bbd611bb8846128e8565b6128b7565b905082815260208101848484011115611bd557600080fd5b611be0848285612aba565b509392505050565b6000611bfb611bf684612918565b6128b7565b905082815260208101848484011115611c1357600080fd5b611c1e848285612ac9565b509392505050565b600081359050611c3581612c75565b92915050565b600081519050611c4a81612c75565b92915050565b600081359050611c5f81612c8c565b92915050565b600081359050611c7481612ca3565b92915050565b600082601f830112611c8b57600080fd5b8135611c9b848260208601611baa565b91505092915050565b600082601f830112611cb557600080fd5b8151611cc5848260208601611be8565b91505092915050565b600081359050611cdd81612cba565b92915050565b600060208284031215611cf557600080fd5b6000611d0384828501611c26565b91505092915050565b600060208284031215611d1e57600080fd5b6000611d2c84828501611c3b565b91505092915050565b60008060408385031215611d4857600080fd5b6000611d5685828601611c26565b9250506020611d6785828601611c26565b9150509250929050565b600080600060608486031215611d8657600080fd5b6000611d9486828701611c26565b9350506020611da586828701611c26565b9250506040611db686828701611cce565b9150509250925092565b60008060008060808587031215611dd657600080fd5b6000611de487828801611c26565b9450506020611df587828801611c26565b9350506040611e0687828801611cce565b925050606085013567ffffffffffffffff811115611e2357600080fd5b611e2f87828801611c7a565b91505092959194509250565b60008060408385031215611e4e57600080fd5b6000611e5c85828601611c26565b9250506020611e6d85828601611c50565b9150509250929050565b60008060408385031215611e8a57600080fd5b6000611e9885828601611c26565b9250506020611ea985828601611cce565b9150509250929050565b600060208284031215611ec557600080fd5b6000611ed384828501611c65565b91505092915050565b600060208284031215611eee57600080fd5b600082015167ffffffffffffffff811115611f0857600080fd5b611f1484828501611ca4565b91505092915050565b600060208284031215611f2f57600080fd5b6000611f3d84828501611cce565b91505092915050565b611f4f81612a46565b82525050565b611f5e81612a58565b82525050565b611f6d81612a64565b82525050565b6000611f7e82612948565b611f88818561295e565b9350611f98818560208601612ac9565b611fa181612c64565b840191505092915050565b6000611fb782612953565b611fc1818561296f565b9350611fd1818560208601612ac9565b611fda81612c64565b840191505092915050565b6000611ff082612953565b611ffa8185612980565b935061200a818560208601612ac9565b80840191505092915050565b6000612023601c8361296f565b91507f4552433732313a20746f6b656e20616c7265616479206d696e746564000000006000830152602082019050919050565b600061206360198361296f565b91507f4552433732313a20617070726f766520746f2063616c6c6572000000000000006000830152602082019050919050565b60006120a3600b8361296f565b91507f4e4f545f575241505045440000000000000000000000000000000000000000006000830152602082019050919050565b60006120e360388361296f565b91507f4552433732313a20617070726f76652063616c6c6572206973206e6f74206f7760008301527f6e6572206e6f7220617070726f76656420666f7220616c6c00000000000000006020830152604082019050919050565b6000612149602a8361296f565b91507f4552433732313a2062616c616e636520717565727920666f7220746865207a6560008301527f726f2061646472657373000000000000000000000000000000000000000000006020830152604082019050919050565b60006121af60298361296f565b91507f4552433732313a206f776e657220717565727920666f72206e6f6e657869737460008301527f656e7420746f6b656e00000000000000000000000000000000000000000000006020830152604082019050919050565b6000612215602e8361296f565b91507f45524337323155524953746f726167653a2055524920736574206f66206e6f6e60008301527f6578697374656e7420746f6b656e0000000000000000000000000000000000006020830152604082019050919050565b600061227b60108361296f565b91507f494e56414c49445f544f4b454e5f4944000000000000000000000000000000006000830152602082019050919050565b60006122bb60208361296f565b91507f4552433732313a206d696e7420746f20746865207a65726f20616464726573736000830152602082019050919050565b60006122fb60318361296f565b91507f45524337323155524953746f726167653a2055524920717565727920666f722060008301527f6e6f6e6578697374656e7420746f6b656e0000000000000000000000000000006020830152604082019050919050565b6000612361602c8361296f565b91507f4552433732313a20617070726f76656420717565727920666f72206e6f6e657860008301527f697374656e7420746f6b656e00000000000000000000000000000000000000006020830152604082019050919050565b60006123c7602f8361296f565b91507f4552433732314d657461646174613a2055524920717565727920666f72206e6f60008301527f6e6578697374656e7420746f6b656e00000000000000000000000000000000006020830152604082019050919050565b600061242d60218361296f565b91507f4552433732313a20617070726f76616c20746f2063757272656e74206f776e6560008301527f72000000000000000000000000000000000000000000000000000000000000006020830152604082019050919050565b600061249360008361295e565b9150600082019050919050565b60006124ad60098361296f565b91507f4e4f545f4f574e455200000000000000000000000000000000000000000000006000830152602082019050919050565b60006124ed600e8361296f565b91507f414c52454144595f4d494e5445440000000000000000000000000000000000006000830152602082019050919050565b600061252d600a8361296f565b91507f4e4f545f4d494e544544000000000000000000000000000000000000000000006000830152602082019050919050565b61256981612ab0565b82525050565b600061257b8285611fe5565b91506125878284611fe5565b91508190509392505050565b60006020820190506125a86000830184611f46565b92915050565b60006080820190506125c36000830187611f46565b6125d06020830186611f46565b6125dd6040830185612560565b81810360608301526125ef8184611f73565b905095945050505050565b600060808201905061260f6000830186611f46565b61261c6020830185611f46565b6126296040830184612560565b818103606083015261263a81612486565b9050949350505050565b60006020820190506126596000830184611f55565b92915050565b60006020820190506126746000830184611f64565b92915050565b600060208201905081810360008301526126948184611fac565b905092915050565b600060208201905081810360008301526126b581612016565b9050919050565b600060208201905081810360008301526126d581612056565b9050919050565b600060208201905081810360008301526126f581612096565b9050919050565b60006020820190508181036000830152612715816120d6565b9050919050565b600060208201905081810360008301526127358161213c565b9050919050565b60006020820190508181036000830152612755816121a2565b9050919050565b6000602082019050818103600083015261277581612208565b9050919050565b600060208201905081810360008301526127958161226e565b9050919050565b600060208201905081810360008301526127b5816122ae565b9050919050565b600060208201905081810360008301526127d5816122ee565b9050919050565b600060208201905081810360008301526127f581612354565b9050919050565b60006020820190508181036000830152612815816123ba565b9050919050565b6000602082019050818103600083015261283581612420565b9050919050565b60006020820190508181036000830152612855816124a0565b9050919050565b60006020820190508181036000830152612875816124e0565b9050919050565b6000602082019050818103600083015261289581612520565b9050919050565b60006020820190506128b16000830184612560565b92915050565b6000604051905081810181811067ffffffffffffffff821117156128de576128dd612c35565b5b8060405250919050565b600067ffffffffffffffff82111561290357612902612c35565b5b601f19601f8301169050602081019050919050565b600067ffffffffffffffff82111561293357612932612c35565b5b601f19601f8301169050602081019050919050565b600081519050919050565b600081519050919050565b600082825260208201905092915050565b600082825260208201905092915050565b600081905092915050565b600061299682612ab0565b91506129a183612ab0565b9250827fffffffffffffffffffffffffffffffffffffffffffffffffffffffffffffffff038211156129d6576129d5612ba8565b5b828201905092915050565b60006129ec82612ab0565b91506129f783612ab0565b925082612a0757612a06612bd7565b5b828204905092915050565b6000612a1d82612ab0565b9150612a2883612ab0565b925082821015612a3b57612a3a612ba8565b5b828203905092915050565b6000612a5182612a90565b9050919050565b60008115159050919050565b60007fffffffff0000000000000000000000000000000000000000000000000000000082169050919050565b600073ffffffffffffffffffffffffffffffffffffffff82169050919050565b6000819050919050565b82818337600083830152505050565b60005b83811015612ae7578082015181840152602081019050612acc565b83811115612af6576000848401525b50505050565b60006002820490506001821680612b1457607f821691505b60208210811415612b2857612b27612c06565b5b50919050565b6000612b3982612ab0565b91507fffffffffffffffffffffffffffffffffffffffffffffffffffffffffffffffff821415612b6c57612b6b612ba8565b5b600182019050919050565b6000612b8282612ab0565b9150612b8d83612ab0565b925082612b9d57612b9c612bd7565b5b828206905092915050565b7f4e487b7100000000000000000000000000000000000000000000000000000000600052601160045260246000fd5b7f4e487b7100000000000000000000000000000000000000000000000000000000600052601260045260246000fd5b7f4e487b7100000000000000000000000000000000000000000000000000000000600052602260045260246000fd5b7f4e487b7100000000000000000000000000000000000000000000000000000000600052604160045260246000fd5b6000601f19601f8301169050919050565b612c7e81612a46565b8114612c8957600080fd5b50565b612c9581612a58565b8114612ca057600080fd5b50565b612cac81612a64565b8114612cb757600080fd5b50565b612cc381612ab0565b8114612cce57600080fd5b5056fea26469706673582212205935685904391a7438d2c1382fbb22299d4df1903ade8628148455cbcd66a29f64736f6c63430008000033",
  "linkReferences": {},
  "deployedLinkReferences": {}
}