{
  "_format": "hh-sol-artifact-1",
  "contractName": "VRFSingleConsumerExample",
  "sourceName": "contracts/chainlink/v0.8/tests/VRFSingleConsumerExample.sol",
  "abi": [
    {
      "inputs": [
        {
          "internalType": "address",
          "name": "vrfCoordinator",
          "type": "address"
        },
        {
          "internalType": "address",
          "name": "link",
          "type": "address"
        },
        {
          "internalType": "uint32",
          "name": "callbackGasLimit",
          "type": "uint32"
        },
        {
          "internalType": "uint16",
          "name": "requestConfirmations",
          "type": "uint16"
        },
        {
          "internalType": "uint32",
          "name": "numWords",
          "type": "uint32"
        },
        {
          "internalType": "bytes32",
          "name": "keyHash",
          "type": "bytes32"
        }
      ],
      "stateMutability": "nonpayable",
      "type": "constructor"
    },
    {
      "inputs": [
        {
          "internalType": "address",
          "name": "have",
          "type": "address"
        },
        {
          "internalType": "address",
          "name": "want",
          "type": "address"
        }
      ],
      "name": "OnlyCoordinatorCanFulfill",
      "type": "error"
    },
    {
      "inputs": [
        {
          "internalType": "uint256",
          "name": "requestId",
          "type": "uint256"
        },
        {
          "internalType": "uint256[]",
          "name": "randomWords",
          "type": "uint256[]"
        }
      ],
      "name": "rawFulfillRandomWords",
      "outputs": [],
      "stateMutability": "nonpayable",
      "type": "function"
    },
    {
      "inputs": [],
      "name": "requestRandomWords",
      "outputs": [],
      "stateMutability": "nonpayable",
      "type": "function"
    },
    {
      "inputs": [],
      "name": "subscribe",
      "outputs": [],
      "stateMutability": "nonpayable",
      "type": "function"
    },
    {
      "inputs": [
        {
          "internalType": "uint256",
          "name": "amount",
          "type": "uint256"
        }
      ],
      "name": "topUpSubscription",
      "outputs": [],
      "stateMutability": "nonpayable",
      "type": "function"
    },
    {
      "inputs": [],
      "name": "unsubscribe",
      "outputs": [],
      "stateMutability": "nonpayable",
      "type": "function"
    }
  ],
  "bytecode": "0x60a06040523480156200001157600080fd5b50604051620011483803806200114883398181016040528101906200003791906200024a565b858073ffffffffffffffffffffffffffffffffffffffff1660808173ffffffffffffffffffffffffffffffffffffffff1660601b8152505050856000806101000a81548173ffffffffffffffffffffffffffffffffffffffff021916908373ffffffffffffffffffffffffffffffffffffffff16021790555084600160006101000a81548173ffffffffffffffffffffffffffffffffffffffff021916908373ffffffffffffffffffffffffffffffffffffffff1602179055506040518060a00160405280600067ffffffffffffffff1681526020018563ffffffff1681526020018461ffff1681526020018363ffffffff16815260200182815250600260008201518160000160006101000a81548167ffffffffffffffff021916908367ffffffffffffffff16021790555060208201518160000160086101000a81548163ffffffff021916908363ffffffff160217905550604082015181600001600c6101000a81548161ffff021916908361ffff160217905550606082015181600001600e6101000a81548163ffffffff021916908363ffffffff16021790555060808201518160010155905050505050505050620003af565b600081519050620001ff8162000347565b92915050565b600081519050620002168162000361565b92915050565b6000815190506200022d816200037b565b92915050565b600081519050620002448162000395565b92915050565b60008060008060008060c087890312156200026a576200026962000342565b5b60006200027a89828a01620001ee565b96505060206200028d89828a01620001ee565b9550506040620002a089828a0162000233565b9450506060620002b389828a016200021c565b9350506080620002c689828a0162000233565b92505060a0620002d989828a0162000205565b9150509295509295509295565b6000620002f38262000312565b9050919050565b6000819050919050565b600061ffff82169050919050565b600073ffffffffffffffffffffffffffffffffffffffff82169050919050565b600063ffffffff82169050919050565b600080fd5b6200035281620002e6565b81146200035e57600080fd5b50565b6200036c81620002fa565b81146200037857600080fd5b50565b620003868162000304565b81146200039257600080fd5b50565b620003a08162000332565b8114620003ac57600080fd5b50565b60805160601c610d74620003d46000396000818160b401526101080152610d746000f3fe608060405234801561001057600080fd5b50600436106100575760003560e01c80631fe543e31461005c57806386850e93146100785780638f449a0514610094578063e0c862891461009e578063fcae4484146100a8575b600080fd5b61007660048036038101906100719190610907565b6100b2565b005b610092600480360381019061008d91906108ad565b610172565b005b61009c61027f565b005b6100a66104ab565b005b6100b0610634565b005b7f000000000000000000000000000000000000000000000000000000000000000073ffffffffffffffffffffffffffffffffffffffff163373ffffffffffffffffffffffffffffffffffffffff161461016457337f00000000000000000000000000000000000000000000000000000000000000006040517f1cf993f400000000000000000000000000000000000000000000000000000000815260040161015b929190610a23565b60405180910390fd5b61016e8282610709565b5050565b600160009054906101000a900473ffffffffffffffffffffffffffffffffffffffff1673ffffffffffffffffffffffffffffffffffffffff16634000aea060008054906101000a900473ffffffffffffffffffffffffffffffffffffffff1683600260000160009054906101000a900467ffffffffffffffff166040516020016101fc9190610add565b6040516020818303038152906040526040518463ffffffff1660e01b815260040161022993929190610a4c565b602060405180830381600087803b15801561024357600080fd5b505af1158015610257573d6000803e3d6000fd5b505050506040513d601f19601f8201168201806040525081019061027b9190610880565b5050565b6000600167ffffffffffffffff81111561029c5761029b610ca5565b5b6040519080825280602002602001820160405280156102ca5781602001602082028036833780820191505090505b50905030816000815181106102e2576102e1610c76565b5b602002602001019073ffffffffffffffffffffffffffffffffffffffff16908173ffffffffffffffffffffffffffffffffffffffff168152505060008054906101000a900473ffffffffffffffffffffffffffffffffffffffff1673ffffffffffffffffffffffffffffffffffffffff1663a21a23e46040518163ffffffff1660e01b8152600401602060405180830381600087803b15801561038457600080fd5b505af1158015610398573d6000803e3d6000fd5b505050506040513d601f19601f820116820180604052508101906103bc9190610963565b600260000160006101000a81548167ffffffffffffffff021916908367ffffffffffffffff16021790555060008054906101000a900473ffffffffffffffffffffffffffffffffffffffff1673ffffffffffffffffffffffffffffffffffffffff16637341c10c600260000160009054906101000a900467ffffffffffffffff168360008151811061045157610450610c76565b5b60200260200101516040518363ffffffff1660e01b8152600401610476929190610af8565b600060405180830381600087803b15801561049057600080fd5b505af11580156104a4573d6000803e3d6000fd5b5050505050565b600060026040518060a00160405290816000820160009054906101000a900467ffffffffffffffff1667ffffffffffffffff1667ffffffffffffffff1681526020016000820160089054906101000a900463ffffffff1663ffffffff1663ffffffff16815260200160008201600c9054906101000a900461ffff1661ffff1661ffff16815260200160008201600e9054906101000a900463ffffffff1663ffffffff1663ffffffff168152602001600182015481525050905060008054906101000a900473ffffffffffffffffffffffffffffffffffffffff1673ffffffffffffffffffffffffffffffffffffffff16635d3b1d30826080015183600001518460400151856020015186606001516040518663ffffffff1660e01b81526004016105d9959493929190610a8a565b602060405180830381600087803b1580156105f357600080fd5b505af1158015610607573d6000803e3d6000fd5b505050506040513d601f19601f8201168201806040525081019061062b91906108da565b60058190555050565b60008054906101000a900473ffffffffffffffffffffffffffffffffffffffff1673ffffffffffffffffffffffffffffffffffffffff1663d7ae1d30600260000160009054906101000a900467ffffffffffffffff16306040518363ffffffff1660e01b81526004016106a8929190610af8565b600060405180830381600087803b1580156106c257600080fd5b505af11580156106d6573d6000803e3d6000fd5b505050506000600260000160006101000a81548167ffffffffffffffff021916908367ffffffffffffffff160217905550565b806004908051906020019061071f929190610724565b505050565b828054828255906000526020600020908101928215610760579160200282015b8281111561075f578251825591602001919060010190610744565b5b50905061076d9190610771565b5090565b5b8082111561078a576000816000905550600101610772565b5090565b60006107a161079c84610b46565b610b21565b905080838252602082019050828560208602820111156107c4576107c3610cd9565b5b60005b858110156107f457816107da8882610841565b8452602084019350602083019250506001810190506107c7565b5050509392505050565b600082601f83011261081357610812610cd4565b5b813561082384826020860161078e565b91505092915050565b60008151905061083b81610cf9565b92915050565b60008135905061085081610d10565b92915050565b60008151905061086581610d10565b92915050565b60008151905061087a81610d27565b92915050565b60006020828403121561089657610895610ce3565b5b60006108a48482850161082c565b91505092915050565b6000602082840312156108c3576108c2610ce3565b5b60006108d184828501610841565b91505092915050565b6000602082840312156108f0576108ef610ce3565b5b60006108fe84828501610856565b91505092915050565b6000806040838503121561091e5761091d610ce3565b5b600061092c85828601610841565b925050602083013567ffffffffffffffff81111561094d5761094c610cde565b5b610959858286016107fe565b9150509250929050565b60006020828403121561097957610978610ce3565b5b60006109878482850161086b565b91505092915050565b61099981610b8e565b82525050565b6109a881610bac565b82525050565b60006109b982610b72565b6109c38185610b7d565b93506109d3818560208601610c12565b6109dc81610ce8565b840191505092915050565b6109f081610bb6565b82525050565b6109ff81610be4565b82525050565b610a0e81610bee565b82525050565b610a1d81610bfe565b82525050565b6000604082019050610a386000830185610990565b610a456020830184610990565b9392505050565b6000606082019050610a616000830186610990565b610a6e60208301856109f6565b8181036040830152610a8081846109ae565b9050949350505050565b600060a082019050610a9f600083018861099f565b610aac6020830187610a14565b610ab960408301866109e7565b610ac66060830185610a05565b610ad36080830184610a05565b9695505050505050565b6000602082019050610af26000830184610a14565b92915050565b6000604082019050610b0d6000830185610a14565b610b1a6020830184610990565b9392505050565b6000610b2b610b3c565b9050610b378282610c45565b919050565b6000604051905090565b600067ffffffffffffffff821115610b6157610b60610ca5565b5b602082029050602081019050919050565b600081519050919050565b600082825260208201905092915050565b6000610b9982610bc4565b9050919050565b60008115159050919050565b6000819050919050565b600061ffff82169050919050565b600073ffffffffffffffffffffffffffffffffffffffff82169050919050565b6000819050919050565b600063ffffffff82169050919050565b600067ffffffffffffffff82169050919050565b60005b83811015610c30578082015181840152602081019050610c15565b83811115610c3f576000848401525b50505050565b610c4e82610ce8565b810181811067ffffffffffffffff82111715610c6d57610c6c610ca5565b5b80604052505050565b7f4e487b7100000000000000000000000000000000000000000000000000000000600052603260045260246000fd5b7f4e487b7100000000000000000000000000000000000000000000000000000000600052604160045260246000fd5b600080fd5b600080fd5b600080fd5b600080fd5b6000601f19601f8301169050919050565b610d0281610ba0565b8114610d0d57600080fd5b50565b610d1981610be4565b8114610d2457600080fd5b50565b610d3081610bfe565b8114610d3b57600080fd5b5056fea2646970667358221220d40f9d68b2f651745ec05a2395880f6848381240ecad70b5aa6d62f7fd615b6964736f6c63430008060033",
  "linkReferences": {},
  "deployedLinkReferences": {}
}