{
  "_format": "hh-sol-artifact-1",
  "contractName": "VRFMaliciousConsumerV2",
  "sourceName": "contracts/chainlink/v0.8/tests/VRFMaliciousConsumerV2.sol",
  "abi": [
    {
      "inputs": [
        {
          "internalType": "address",
          "name": "vrfCoordinator",
          "type": "address"
        },
        {
          "internalType": "address",
          "name": "link",
          "type": "address"
        }
      ],
      "stateMutability": "nonpayable",
      "type": "constructor"
    },
    {
      "inputs": [
        {
          "internalType": "address",
          "name": "have",
          "type": "address"
        },
        {
          "internalType": "address",
          "name": "want",
          "type": "address"
        }
      ],
      "name": "OnlyCoordinatorCanFulfill",
      "type": "error"
    },
    {
      "inputs": [
        {
          "internalType": "uint256",
          "name": "requestId",
          "type": "uint256"
        },
        {
          "internalType": "uint256[]",
          "name": "randomWords",
          "type": "uint256[]"
        }
      ],
      "name": "rawFulfillRandomWords",
      "outputs": [],
      "stateMutability": "nonpayable",
      "type": "function"
    },
    {
      "inputs": [],
      "name": "s_gasAvailable",
      "outputs": [
        {
          "internalType": "uint256",
          "name": "",
          "type": "uint256"
        }
      ],
      "stateMutability": "view",
      "type": "function"
    },
    {
      "inputs": [
        {
          "internalType": "uint256",
          "name": "",
          "type": "uint256"
        }
      ],
      "name": "s_randomWords",
      "outputs": [
        {
          "internalType": "uint256",
          "name": "",
          "type": "uint256"
        }
      ],
      "stateMutability": "view",
      "type": "function"
    },
    {
      "inputs": [],
      "name": "s_requestId",
      "outputs": [
        {
          "internalType": "uint256",
          "name": "",
          "type": "uint256"
        }
      ],
      "stateMutability": "view",
      "type": "function"
    },
    {
      "inputs": [],
      "name": "s_subId",
      "outputs": [
        {
          "internalType": "uint64",
          "name": "",
          "type": "uint64"
        }
      ],
      "stateMutability": "view",
      "type": "function"
    },
    {
      "inputs": [
        {
          "internalType": "bytes32",
          "name": "keyHash",
          "type": "bytes32"
        }
      ],
      "name": "setKeyHash",
      "outputs": [],
      "stateMutability": "nonpayable",
      "type": "function"
    },
    {
      "inputs": [
        {
          "internalType": "uint96",
          "name": "amount",
          "type": "uint96"
        }
      ],
      "name": "testCreateSubscriptionAndFund",
      "outputs": [],
      "stateMutability": "nonpayable",
      "type": "function"
    },
    {
      "inputs": [],
      "name": "testRequestRandomness",
      "outputs": [
        {
          "internalType": "uint256",
          "name": "",
          "type": "uint256"
        }
      ],
      "stateMutability": "nonpayable",
      "type": "function"
    },
    {
      "inputs": [
        {
          "internalType": "address[]",
          "name": "consumers",
          "type": "address[]"
        }
      ],
      "name": "updateSubscription",
      "outputs": [],
      "stateMutability": "nonpayable",
      "type": "function"
    }
  ],
  "bytecode": "0x60a06040523480156200001157600080fd5b506040516200149838038062001498833981810160405281019062000037919062000111565b818073ffffffffffffffffffffffffffffffffffffffff1660808173ffffffffffffffffffffffffffffffffffffffff1660601b815250505081600260006101000a81548173ffffffffffffffffffffffffffffffffffffffff021916908373ffffffffffffffffffffffffffffffffffffffff16021790555080600360006101000a81548173ffffffffffffffffffffffffffffffffffffffff021916908373ffffffffffffffffffffffffffffffffffffffff1602179055505050620001ab565b6000815190506200010b8162000191565b92915050565b600080604083850312156200012b576200012a6200018c565b5b60006200013b85828601620000fa565b92505060206200014e85828601620000fa565b9150509250929050565b600062000165826200016c565b9050919050565b600073ffffffffffffffffffffffffffffffffffffffff82169050919050565b600080fd5b6200019c8162000158565b8114620001a857600080fd5b50565b60805160601c6112c7620001d1600039600081816101b2015261020601526112c76000f3fe608060405234801561001057600080fd5b50600436106100935760003560e01c8063706da1ca11610066578063706da1ca1461010a5780639854471014610128578063e89e106a14610144578063f08c5daa14610162578063f6eaffc81461018057610093565b80631fe543e31461009857806336bfffed146100b45780636802f726146100d0578063702a2ec9146100ec575b600080fd5b6100b260048036038101906100ad9190610bba565b6101b0565b005b6100ce60048036038101906100c99190610abd565b610270565b005b6100ea60048036038101906100e59190610c43565b6103b6565b005b6100f461065b565b6040516101019190610e80565b60405180910390f35b610112610734565b60405161011f9190610e9b565b60405180910390f35b610142600480360381019061013d9190610b33565b61074e565b005b61014c610758565b6040516101599190610e80565b60405180910390f35b61016a61075e565b6040516101779190610e80565b60405180910390f35b61019a60048036038101906101959190610b60565b610764565b6040516101a79190610e80565b60405180910390f35b7f000000000000000000000000000000000000000000000000000000000000000073ffffffffffffffffffffffffffffffffffffffff163373ffffffffffffffffffffffffffffffffffffffff161461026257337f00000000000000000000000000000000000000000000000000000000000000006040517f1cf993f4000000000000000000000000000000000000000000000000000000008152600401610259929190610d53565b60405180910390fd5b61026c8282610788565b5050565b6000600360149054906101000a900467ffffffffffffffff1667ffffffffffffffff1614156102d4576040517f08c379a00000000000000000000000000000000000000000000000000000000081526004016102cb90610e60565b60405180910390fd5b60005b81518110156103b257600260009054906101000a900473ffffffffffffffffffffffffffffffffffffffff1673ffffffffffffffffffffffffffffffffffffffff16637341c10c600360149054906101000a900467ffffffffffffffff168484815181106103485761034761115b565b5b60200260200101516040518363ffffffff1660e01b815260040161036d929190610eb6565b600060405180830381600087803b15801561038757600080fd5b505af115801561039b573d6000803e3d6000fd5b5050505080806103aa906110e3565b9150506102d7565b5050565b6000600360149054906101000a900467ffffffffffffffff1667ffffffffffffffff16141561054f57600260009054906101000a900473ffffffffffffffffffffffffffffffffffffffff1673ffffffffffffffffffffffffffffffffffffffff1663a21a23e46040518163ffffffff1660e01b8152600401602060405180830381600087803b15801561044957600080fd5b505af115801561045d573d6000803e3d6000fd5b505050506040513d601f19601f820116820180604052508101906104819190610c16565b600360146101000a81548167ffffffffffffffff021916908367ffffffffffffffff160217905550600260009054906101000a900473ffffffffffffffffffffffffffffffffffffffff1673ffffffffffffffffffffffffffffffffffffffff16637341c10c600360149054906101000a900467ffffffffffffffff16306040518363ffffffff1660e01b815260040161051c929190610eb6565b600060405180830381600087803b15801561053657600080fd5b505af115801561054a573d6000803e3d6000fd5b505050505b600360009054906101000a900473ffffffffffffffffffffffffffffffffffffffff1673ffffffffffffffffffffffffffffffffffffffff16634000aea0600260009054906101000a900473ffffffffffffffffffffffffffffffffffffffff1683600360149054906101000a900467ffffffffffffffff166040516020016105d89190610e9b565b6040516020818303038152906040526040518463ffffffff1660e01b815260040161060593929190610d7c565b602060405180830381600087803b15801561061f57600080fd5b505af1158015610633573d6000803e3d6000fd5b505050506040513d601f19601f820116820180604052508101906106579190610b06565b5050565b6000600260009054906101000a900473ffffffffffffffffffffffffffffffffffffffff1673ffffffffffffffffffffffffffffffffffffffff16635d3b1d30600554600360149054906101000a900467ffffffffffffffff1660016207a12060016040518663ffffffff1660e01b81526004016106dd959493929190610e0d565b602060405180830381600087803b1580156106f757600080fd5b505af115801561070b573d6000803e3d6000fd5b505050506040513d601f19601f8201168201806040525081019061072f9190610b8d565b905090565b600360149054906101000a900467ffffffffffffffff1681565b8060058190555050565b60015481565b60045481565b6000818154811061077457600080fd5b906000526020600020016000915090505481565b5a60048190555080600090805190602001906107a5929190610884565b5081600181905550600260009054906101000a900473ffffffffffffffffffffffffffffffffffffffff1673ffffffffffffffffffffffffffffffffffffffff16635d3b1d30600554600360149054906101000a900467ffffffffffffffff16600162030d4060016040518663ffffffff1660e01b815260040161082d959493929190610dba565b602060405180830381600087803b15801561084757600080fd5b505af115801561085b573d6000803e3d6000fd5b505050506040513d601f19601f8201168201806040525081019061087f9190610b8d565b505050565b8280548282559060005260206000209081019282156108c0579160200282015b828111156108bf5782518255916020019190600101906108a4565b5b5090506108cd91906108d1565b5090565b5b808211156108ea5760008160009055506001016108d2565b5090565b60006109016108fc84610f04565b610edf565b90508083825260208201905082856020860282011115610924576109236111be565b5b60005b85811015610954578161093a88826109ce565b845260208401935060208301925050600181019050610927565b5050509392505050565b600061097161096c84610f30565b610edf565b90508083825260208201905082856020860282011115610994576109936111be565b5b60005b858110156109c457816109aa8882610a69565b845260208401935060208301925050600181019050610997565b5050509392505050565b6000813590506109dd81611207565b92915050565b600082601f8301126109f8576109f76111b9565b5b8135610a088482602086016108ee565b91505092915050565b600082601f830112610a2657610a256111b9565b5b8135610a3684826020860161095e565b91505092915050565b600081519050610a4e8161121e565b92915050565b600081359050610a6381611235565b92915050565b600081359050610a788161124c565b92915050565b600081519050610a8d8161124c565b92915050565b600081519050610aa281611263565b92915050565b600081359050610ab78161127a565b92915050565b600060208284031215610ad357610ad26111c8565b5b600082013567ffffffffffffffff811115610af157610af06111c3565b5b610afd848285016109e3565b91505092915050565b600060208284031215610b1c57610b1b6111c8565b5b6000610b2a84828501610a3f565b91505092915050565b600060208284031215610b4957610b486111c8565b5b6000610b5784828501610a54565b91505092915050565b600060208284031215610b7657610b756111c8565b5b6000610b8484828501610a69565b91505092915050565b600060208284031215610ba357610ba26111c8565b5b6000610bb184828501610a7e565b91505092915050565b60008060408385031215610bd157610bd06111c8565b5b6000610bdf85828601610a69565b925050602083013567ffffffffffffffff811115610c0057610bff6111c3565b5b610c0c85828601610a11565b9150509250929050565b600060208284031215610c2c57610c2b6111c8565b5b6000610c3a84828501610a93565b91505092915050565b600060208284031215610c5957610c586111c8565b5b6000610c6784828501610aa8565b91505092915050565b610c7981610f89565b82525050565b610c8881610fa7565b82525050565b6000610c9982610f5c565b610ca38185610f67565b9350610cb381856020860161107f565b610cbc816111cd565b840191505092915050565b610cd081611025565b82525050565b610cdf81611037565b82525050565b610cee81611049565b82525050565b610cfd8161105b565b82525050565b6000610d10600d83610f78565b9150610d1b826111de565b602082019050919050565b610d2f81610fdf565b82525050565b610d3e81610ff9565b82525050565b610d4d8161106d565b82525050565b6000604082019050610d686000830185610c70565b610d756020830184610c70565b9392505050565b6000606082019050610d916000830186610c70565b610d9e6020830185610d44565b8181036040830152610db08184610c8e565b9050949350505050565b600060a082019050610dcf6000830188610c7f565b610ddc6020830187610d35565b610de96040830186610cc7565b610df66060830185610ce5565b610e036080830184610cd6565b9695505050505050565b600060a082019050610e226000830188610c7f565b610e2f6020830187610d35565b610e3c6040830186610cc7565b610e496060830185610cf4565b610e566080830184610cd6565b9695505050505050565b60006020820190508181036000830152610e7981610d03565b9050919050565b6000602082019050610e956000830184610d26565b92915050565b6000602082019050610eb06000830184610d35565b92915050565b6000604082019050610ecb6000830185610d35565b610ed86020830184610c70565b9392505050565b6000610ee9610efa565b9050610ef582826110b2565b919050565b6000604051905090565b600067ffffffffffffffff821115610f1f57610f1e61118a565b5b602082029050602081019050919050565b600067ffffffffffffffff821115610f4b57610f4a61118a565b5b602082029050602081019050919050565b600081519050919050565b600082825260208201905092915050565b600082825260208201905092915050565b6000610f9482610fbf565b9050919050565b60008115159050919050565b6000819050919050565b600061ffff82169050919050565b600073ffffffffffffffffffffffffffffffffffffffff82169050919050565b6000819050919050565b600063ffffffff82169050919050565b600067ffffffffffffffff82169050919050565b60006bffffffffffffffffffffffff82169050919050565b600061103082610fb1565b9050919050565b600061104282610fe9565b9050919050565b600061105482610fe9565b9050919050565b600061106682610fe9565b9050919050565b60006110788261100d565b9050919050565b60005b8381101561109d578082015181840152602081019050611082565b838111156110ac576000848401525b50505050565b6110bb826111cd565b810181811067ffffffffffffffff821117156110da576110d961118a565b5b80604052505050565b60006110ee82610fdf565b91507fffffffffffffffffffffffffffffffffffffffffffffffffffffffffffffffff8214156111215761112061112c565b5b600182019050919050565b7f4e487b7100000000000000000000000000000000000000000000000000000000600052601160045260246000fd5b7f4e487b7100000000000000000000000000000000000000000000000000000000600052603260045260246000fd5b7f4e487b7100000000000000000000000000000000000000000000000000000000600052604160045260246000fd5b600080fd5b600080fd5b600080fd5b600080fd5b6000601f19601f8301169050919050565b7f7375624944206e6f742073657400000000000000000000000000000000000000600082015250565b61121081610f89565b811461121b57600080fd5b50565b61122781610f9b565b811461123257600080fd5b50565b61123e81610fa7565b811461124957600080fd5b50565b61125581610fdf565b811461126057600080fd5b50565b61126c81610ff9565b811461127757600080fd5b50565b6112838161100d565b811461128e57600080fd5b5056fea26469706673582212206face929e0bbccb8651ed1ad816a8a6d03dcefd7eb1cfbb16fcbe73431520e7464736f6c63430008060033",
  "linkReferences": {},
  "deployedLinkReferences": {}
}