{
  "_format": "hh-sol-artifact-1",
  "contractName": "VRFCoordinatorV2",
  "sourceName": "contracts/chainlink/v0.8/dev/VRFCoordinatorV2.sol",
  "abi": [
    {
      "inputs": [
        {
          "internalType": "address",
          "name": "link",
          "type": "address"
        },
        {
          "internalType": "address",
          "name": "blockhashStore",
          "type": "address"
        },
        {
          "internalType": "address",
          "name": "linkEthFeed",
          "type": "address"
        }
      ],
      "stateMutability": "nonpayable",
      "type": "constructor"
    },
    {
      "inputs": [
        {
          "internalType": "uint256",
          "name": "internalBalance",
          "type": "uint256"
        },
        {
          "internalType": "uint256",
          "name": "externalBalance",
          "type": "uint256"
        }
      ],
      "name": "BalanceInvariantViolated",
      "type": "error"
    },
    {
      "inputs": [
        {
          "internalType": "uint256",
          "name": "blockNum",
          "type": "uint256"
        }
      ],
      "name": "BlockhashNotInStore",
      "type": "error"
    },
    {
      "inputs": [
        {
          "internalType": "uint32",
          "name": "have",
          "type": "uint32"
        },
        {
          "internalType": "uint32",
          "name": "want",
          "type": "uint32"
        }
      ],
      "name": "GasLimitTooBig",
      "type": "error"
    },
    {
      "inputs": [],
      "name": "IncorrectCommitment",
      "type": "error"
    },
    {
      "inputs": [],
      "name": "InsufficientBalance",
      "type": "error"
    },
    {
      "inputs": [
        {
          "internalType": "uint256",
          "name": "have",
          "type": "uint256"
        },
        {
          "internalType": "uint256",
          "name": "want",
          "type": "uint256"
        }
      ],
      "name": "InsufficientGasForConsumer",
      "type": "error"
    },
    {
      "inputs": [],
      "name": "InvalidCalldata",
      "type": "error"
    },
    {
      "inputs": [
        {
          "internalType": "uint64",
          "name": "subId",
          "type": "uint64"
        },
        {
          "internalType": "address",
          "name": "consumer",
          "type": "address"
        }
      ],
      "name": "InvalidConsumer",
      "type": "error"
    },
    {
      "inputs": [
        {
          "internalType": "int256",
          "name": "linkWei",
          "type": "int256"
        }
      ],
      "name": "InvalidLinkWeiPrice",
      "type": "error"
    },
    {
      "inputs": [
        {
          "internalType": "uint16",
          "name": "have",
          "type": "uint16"
        },
        {
          "internalType": "uint16",
          "name": "min",
          "type": "uint16"
        },
        {
          "internalType": "uint16",
          "name": "max",
          "type": "uint16"
        }
      ],
      "name": "InvalidRequestConfirmations",
      "type": "error"
    },
    {
      "inputs": [],
      "name": "InvalidSubscription",
      "type": "error"
    },
    {
      "inputs": [
        {
          "internalType": "address",
          "name": "proposedOwner",
          "type": "address"
        }
      ],
      "name": "MustBeRequestedOwner",
      "type": "error"
    },
    {
      "inputs": [
        {
          "internalType": "address",
          "name": "owner",
          "type": "address"
        }
      ],
      "name": "MustBeSubOwner",
      "type": "error"
    },
    {
      "inputs": [],
      "name": "NoCorrespondingRequest",
      "type": "error"
    },
    {
      "inputs": [
        {
          "internalType": "bytes32",
          "name": "keyHash",
          "type": "bytes32"
        }
      ],
      "name": "NoSuchProvingKey",
      "type": "error"
    },
    {
      "inputs": [
        {
          "internalType": "uint32",
          "name": "have",
          "type": "uint32"
        },
        {
          "internalType": "uint32",
          "name": "want",
          "type": "uint32"
        }
      ],
      "name": "NumWordsTooBig",
      "type": "error"
    },
    {
      "inputs": [],
      "name": "OnlyCallableFromLink",
      "type": "error"
    },
    {
      "inputs": [],
      "name": "PaymentTooLarge",
      "type": "error"
    },
    {
      "inputs": [
        {
          "internalType": "bytes32",
          "name": "keyHash",
          "type": "bytes32"
        }
      ],
      "name": "ProvingKeyAlreadyRegistered",
      "type": "error"
    },
    {
      "inputs": [],
      "name": "Reentrant",
      "type": "error"
    },
    {
      "inputs": [],
      "name": "TooManyConsumers",
      "type": "error"
    },
    {
      "anonymous": false,
      "inputs": [
        {
          "indexed": false,
          "internalType": "uint16",
          "name": "minimumRequestConfirmations",
          "type": "uint16"
        },
        {
          "indexed": false,
          "internalType": "uint32",
          "name": "fulfillmentFlatFeeLinkPPM",
          "type": "uint32"
        },
        {
          "indexed": false,
          "internalType": "uint32",
          "name": "maxGasLimit",
          "type": "uint32"
        },
        {
          "indexed": false,
          "internalType": "uint32",
          "name": "stalenessSeconds",
          "type": "uint32"
        },
        {
          "indexed": false,
          "internalType": "uint32",
          "name": "gasAfterPaymentCalculation",
          "type": "uint32"
        },
        {
          "indexed": false,
          "internalType": "uint96",
          "name": "minimumSubscriptionBalance",
          "type": "uint96"
        },
        {
          "indexed": false,
          "internalType": "int256",
          "name": "fallbackWeiPerUnitLink",
          "type": "int256"
        }
      ],
      "name": "ConfigSet",
      "type": "event"
    },
    {
      "anonymous": false,
      "inputs": [
        {
          "indexed": false,
          "internalType": "address",
          "name": "to",
          "type": "address"
        },
        {
          "indexed": false,
          "internalType": "uint256",
          "name": "amount",
          "type": "uint256"
        }
      ],
      "name": "FundsRecovered",
      "type": "event"
    },
    {
      "anonymous": false,
      "inputs": [
        {
          "indexed": true,
          "internalType": "address",
          "name": "from",
          "type": "address"
        },
        {
          "indexed": true,
          "internalType": "address",
          "name": "to",
          "type": "address"
        }
      ],
      "name": "OwnershipTransferRequested",
      "type": "event"
    },
    {
      "anonymous": false,
      "inputs": [
        {
          "indexed": true,
          "internalType": "address",
          "name": "from",
          "type": "address"
        },
        {
          "indexed": true,
          "internalType": "address",
          "name": "to",
          "type": "address"
        }
      ],
      "name": "OwnershipTransferred",
      "type": "event"
    },
    {
      "anonymous": false,
      "inputs": [
        {
          "indexed": false,
          "internalType": "bytes32",
          "name": "keyHash",
          "type": "bytes32"
        },
        {
          "indexed": true,
          "internalType": "address",
          "name": "oracle",
          "type": "address"
        }
      ],
      "name": "ProvingKeyDeregistered",
      "type": "event"
    },
    {
      "anonymous": false,
      "inputs": [
        {
          "indexed": false,
          "internalType": "bytes32",
          "name": "keyHash",
          "type": "bytes32"
        },
        {
          "indexed": true,
          "internalType": "address",
          "name": "oracle",
          "type": "address"
        }
      ],
      "name": "ProvingKeyRegistered",
      "type": "event"
    },
    {
      "anonymous": false,
      "inputs": [
        {
          "indexed": true,
          "internalType": "uint256",
          "name": "requestId",
          "type": "uint256"
        },
        {
          "indexed": false,
          "internalType": "uint256[]",
          "name": "output",
          "type": "uint256[]"
        },
        {
          "indexed": false,
          "internalType": "bool",
          "name": "success",
          "type": "bool"
        }
      ],
      "name": "RandomWordsFulfilled",
      "type": "event"
    },
    {
      "anonymous": false,
      "inputs": [
        {
          "indexed": true,
          "internalType": "bytes32",
          "name": "keyHash",
          "type": "bytes32"
        },
        {
          "indexed": false,
          "internalType": "uint256",
          "name": "requestId",
          "type": "uint256"
        },
        {
          "indexed": false,
          "internalType": "uint256",
          "name": "preSeed",
          "type": "uint256"
        },
        {
          "indexed": false,
          "internalType": "uint64",
          "name": "subId",
          "type": "uint64"
        },
        {
          "indexed": false,
          "internalType": "uint16",
          "name": "minimumRequestConfirmations",
          "type": "uint16"
        },
        {
          "indexed": false,
          "internalType": "uint32",
          "name": "callbackGasLimit",
          "type": "uint32"
        },
        {
          "indexed": false,
          "internalType": "uint32",
          "name": "numWords",
          "type": "uint32"
        },
        {
          "indexed": true,
          "internalType": "address",
          "name": "sender",
          "type": "address"
        }
      ],
      "name": "RandomWordsRequested",
      "type": "event"
    },
    {
      "anonymous": false,
      "inputs": [
        {
          "indexed": true,
          "internalType": "uint64",
          "name": "subId",
          "type": "uint64"
        },
        {
          "indexed": false,
          "internalType": "address",
          "name": "to",
          "type": "address"
        },
        {
          "indexed": false,
          "internalType": "uint256",
          "name": "amount",
          "type": "uint256"
        }
      ],
      "name": "SubscriptionCanceled",
      "type": "event"
    },
    {
      "anonymous": false,
      "inputs": [
        {
          "indexed": true,
          "internalType": "uint64",
          "name": "subId",
          "type": "uint64"
        },
        {
          "indexed": false,
          "internalType": "address",
          "name": "consumer",
          "type": "address"
        }
      ],
      "name": "SubscriptionConsumerAdded",
      "type": "event"
    },
    {
      "anonymous": false,
      "inputs": [
        {
          "indexed": true,
          "internalType": "uint64",
          "name": "subId",
          "type": "uint64"
        },
        {
          "indexed": false,
          "internalType": "address",
          "name": "consumer",
          "type": "address"
        }
      ],
      "name": "SubscriptionConsumerRemoved",
      "type": "event"
    },
    {
      "anonymous": false,
      "inputs": [
        {
          "indexed": true,
          "internalType": "uint64",
          "name": "subId",
          "type": "uint64"
        },
        {
          "indexed": false,
          "internalType": "address",
          "name": "owner",
          "type": "address"
        }
      ],
      "name": "SubscriptionCreated",
      "type": "event"
    },
    {
      "anonymous": false,
      "inputs": [
        {
          "indexed": true,
          "internalType": "uint64",
          "name": "subId",
          "type": "uint64"
        },
        {
          "indexed": false,
          "internalType": "uint256",
          "name": "oldBalance",
          "type": "uint256"
        },
        {
          "indexed": false,
          "internalType": "uint256",
          "name": "newBalance",
          "type": "uint256"
        }
      ],
      "name": "SubscriptionDefunded",
      "type": "event"
    },
    {
      "anonymous": false,
      "inputs": [
        {
          "indexed": true,
          "internalType": "uint64",
          "name": "subId",
          "type": "uint64"
        },
        {
          "indexed": false,
          "internalType": "uint256",
          "name": "oldBalance",
          "type": "uint256"
        },
        {
          "indexed": false,
          "internalType": "uint256",
          "name": "newBalance",
          "type": "uint256"
        }
      ],
      "name": "SubscriptionFunded",
      "type": "event"
    },
    {
      "anonymous": false,
      "inputs": [
        {
          "indexed": true,
          "internalType": "uint64",
          "name": "subId",
          "type": "uint64"
        },
        {
          "indexed": false,
          "internalType": "address",
          "name": "from",
          "type": "address"
        },
        {
          "indexed": false,
          "internalType": "address",
          "name": "to",
          "type": "address"
        }
      ],
      "name": "SubscriptionOwnerTransferRequested",
      "type": "event"
    },
    {
      "anonymous": false,
      "inputs": [
        {
          "indexed": true,
          "internalType": "uint64",
          "name": "subId",
          "type": "uint64"
        },
        {
          "indexed": false,
          "internalType": "address",
          "name": "from",
          "type": "address"
        },
        {
          "indexed": false,
          "internalType": "address",
          "name": "to",
          "type": "address"
        }
      ],
      "name": "SubscriptionOwnerTransferred",
      "type": "event"
    },
    {
      "inputs": [],
      "name": "BLOCKHASH_STORE",
      "outputs": [
        {
          "internalType": "contract BlockhashStoreInterface",
          "name": "",
          "type": "address"
        }
      ],
      "stateMutability": "view",
      "type": "function"
    },
    {
      "inputs": [],
      "name": "LINK",
      "outputs": [
        {
          "internalType": "contract LinkTokenInterface",
          "name": "",
          "type": "address"
        }
      ],
      "stateMutability": "view",
      "type": "function"
    },
    {
      "inputs": [],
      "name": "LINK_ETH_FEED",
      "outputs": [
        {
          "internalType": "contract AggregatorV3Interface",
          "name": "",
          "type": "address"
        }
      ],
      "stateMutability": "view",
      "type": "function"
    },
    {
      "inputs": [],
      "name": "MAX_CONSUMERS",
      "outputs": [
        {
          "internalType": "uint16",
          "name": "",
          "type": "uint16"
        }
      ],
      "stateMutability": "view",
      "type": "function"
    },
    {
      "inputs": [],
      "name": "MAX_NUM_WORDS",
      "outputs": [
        {
          "internalType": "uint32",
          "name": "",
          "type": "uint32"
        }
      ],
      "stateMutability": "view",
      "type": "function"
    },
    {
      "inputs": [],
      "name": "MAX_REQUEST_CONFIRMATIONS",
      "outputs": [
        {
          "internalType": "uint16",
          "name": "",
          "type": "uint16"
        }
      ],
      "stateMutability": "view",
      "type": "function"
    },
    {
      "inputs": [],
      "name": "MIN_GAS_LIMIT",
      "outputs": [
        {
          "internalType": "uint256",
          "name": "",
          "type": "uint256"
        }
      ],
      "stateMutability": "view",
      "type": "function"
    },
    {
      "inputs": [],
      "name": "acceptOwnership",
      "outputs": [],
      "stateMutability": "nonpayable",
      "type": "function"
    },
    {
      "inputs": [
        {
          "internalType": "uint64",
          "name": "subId",
          "type": "uint64"
        }
      ],
      "name": "acceptSubscriptionOwnerTransfer",
      "outputs": [],
      "stateMutability": "nonpayable",
      "type": "function"
    },
    {
      "inputs": [
        {
          "internalType": "uint64",
          "name": "subId",
          "type": "uint64"
        },
        {
          "internalType": "address",
          "name": "consumer",
          "type": "address"
        }
      ],
      "name": "addConsumer",
      "outputs": [],
      "stateMutability": "nonpayable",
      "type": "function"
    },
    {
      "inputs": [
        {
          "internalType": "uint64",
          "name": "subId",
          "type": "uint64"
        },
        {
          "internalType": "address",
          "name": "to",
          "type": "address"
        }
      ],
      "name": "cancelSubscription",
      "outputs": [],
      "stateMutability": "nonpayable",
      "type": "function"
    },
    {
      "inputs": [],
      "name": "createSubscription",
      "outputs": [
        {
          "internalType": "uint64",
          "name": "",
          "type": "uint64"
        }
      ],
      "stateMutability": "nonpayable",
      "type": "function"
    },
    {
      "inputs": [
        {
          "internalType": "uint64",
          "name": "subId",
          "type": "uint64"
        },
        {
          "internalType": "address",
          "name": "to",
          "type": "address"
        },
        {
          "internalType": "uint96",
          "name": "amount",
          "type": "uint96"
        }
      ],
      "name": "defundSubscription",
      "outputs": [],
      "stateMutability": "nonpayable",
      "type": "function"
    },
    {
      "inputs": [
        {
          "internalType": "uint256[2]",
          "name": "publicProvingKey",
          "type": "uint256[2]"
        }
      ],
      "name": "deregisterProvingKey",
      "outputs": [],
      "stateMutability": "nonpayable",
      "type": "function"
    },
    {
      "inputs": [
        {
          "components": [
            {
              "internalType": "uint256[2]",
              "name": "pk",
              "type": "uint256[2]"
            },
            {
              "internalType": "uint256[2]",
              "name": "gamma",
              "type": "uint256[2]"
            },
            {
              "internalType": "uint256",
              "name": "c",
              "type": "uint256"
            },
            {
              "internalType": "uint256",
              "name": "s",
              "type": "uint256"
            },
            {
              "internalType": "uint256",
              "name": "seed",
              "type": "uint256"
            },
            {
              "internalType": "address",
              "name": "uWitness",
              "type": "address"
            },
            {
              "internalType": "uint256[2]",
              "name": "cGammaWitness",
              "type": "uint256[2]"
            },
            {
              "internalType": "uint256[2]",
              "name": "sHashWitness",
              "type": "uint256[2]"
            },
            {
              "internalType": "uint256",
              "name": "zInv",
              "type": "uint256"
            }
          ],
          "internalType": "struct VRF.Proof",
          "name": "proof",
          "type": "tuple"
        },
        {
          "components": [
            {
              "internalType": "uint64",
              "name": "blockNum",
              "type": "uint64"
            },
            {
              "internalType": "uint64",
              "name": "subId",
              "type": "uint64"
            },
            {
              "internalType": "uint32",
              "name": "callbackGasLimit",
              "type": "uint32"
            },
            {
              "internalType": "uint32",
              "name": "numWords",
              "type": "uint32"
            },
            {
              "internalType": "address",
              "name": "sender",
              "type": "address"
            }
          ],
          "internalType": "struct VRFCoordinatorV2.RequestCommitment",
          "name": "rc",
          "type": "tuple"
        }
      ],
      "name": "fulfillRandomWords",
      "outputs": [],
      "stateMutability": "nonpayable",
      "type": "function"
    },
    {
      "inputs": [
        {
          "internalType": "uint256",
          "name": "requestId",
          "type": "uint256"
        }
      ],
      "name": "getCommitment",
      "outputs": [
        {
          "internalType": "bytes32",
          "name": "",
          "type": "bytes32"
        }
      ],
      "stateMutability": "view",
      "type": "function"
    },
    {
      "inputs": [],
      "name": "getConfig",
      "outputs": [
        {
          "internalType": "uint16",
          "name": "minimumRequestConfirmations",
          "type": "uint16"
        },
        {
          "internalType": "uint32",
          "name": "fulfillmentFlatFeeLinkPPM",
          "type": "uint32"
        },
        {
          "internalType": "uint32",
          "name": "maxGasLimit",
          "type": "uint32"
        },
        {
          "internalType": "uint32",
          "name": "stalenessSeconds",
          "type": "uint32"
        },
        {
          "internalType": "uint32",
          "name": "gasAfterPaymentCalculation",
          "type": "uint32"
        },
        {
          "internalType": "uint96",
          "name": "minimumSubscriptionBalance",
          "type": "uint96"
        },
        {
          "internalType": "int256",
          "name": "fallbackWeiPerUnitLink",
          "type": "int256"
        }
      ],
      "stateMutability": "view",
      "type": "function"
    },
    {
      "inputs": [
        {
          "internalType": "uint64",
          "name": "subId",
          "type": "uint64"
        }
      ],
      "name": "getSubscription",
      "outputs": [
        {
          "internalType": "uint96",
          "name": "balance",
          "type": "uint96"
        },
        {
          "internalType": "address",
          "name": "owner",
          "type": "address"
        },
        {
          "internalType": "address[]",
          "name": "consumers",
          "type": "address[]"
        }
      ],
      "stateMutability": "view",
      "type": "function"
    },
    {
      "inputs": [
        {
          "internalType": "uint256[2]",
          "name": "publicKey",
          "type": "uint256[2]"
        }
      ],
      "name": "hashOfKey",
      "outputs": [
        {
          "internalType": "bytes32",
          "name": "",
          "type": "bytes32"
        }
      ],
      "stateMutability": "pure",
      "type": "function"
    },
    {
      "inputs": [
        {
          "internalType": "address",
          "name": "sender",
          "type": "address"
        },
        {
          "internalType": "uint256",
          "name": "amount",
          "type": "uint256"
        },
        {
          "internalType": "bytes",
          "name": "data",
          "type": "bytes"
        }
      ],
      "name": "onTokenTransfer",
      "outputs": [],
      "stateMutability": "nonpayable",
      "type": "function"
    },
    {
      "inputs": [
        {
          "internalType": "address",
          "name": "recipient",
          "type": "address"
        },
        {
          "internalType": "uint96",
          "name": "amount",
          "type": "uint96"
        }
      ],
      "name": "oracleWithdraw",
      "outputs": [],
      "stateMutability": "nonpayable",
      "type": "function"
    },
    {
      "inputs": [],
      "name": "owner",
      "outputs": [
        {
          "internalType": "address",
          "name": "",
          "type": "address"
        }
      ],
      "stateMutability": "view",
      "type": "function"
    },
    {
      "inputs": [
        {
          "internalType": "address",
          "name": "to",
          "type": "address"
        }
      ],
      "name": "recoverFunds",
      "outputs": [],
      "stateMutability": "nonpayable",
      "type": "function"
    },
    {
      "inputs": [
        {
          "internalType": "address",
          "name": "oracle",
          "type": "address"
        },
        {
          "internalType": "uint256[2]",
          "name": "publicProvingKey",
          "type": "uint256[2]"
        }
      ],
      "name": "registerProvingKey",
      "outputs": [],
      "stateMutability": "nonpayable",
      "type": "function"
    },
    {
      "inputs": [
        {
          "internalType": "uint64",
          "name": "subId",
          "type": "uint64"
        },
        {
          "internalType": "address",
          "name": "consumer",
          "type": "address"
        }
      ],
      "name": "removeConsumer",
      "outputs": [],
      "stateMutability": "nonpayable",
      "type": "function"
    },
    {
      "inputs": [
        {
          "internalType": "bytes32",
          "name": "keyHash",
          "type": "bytes32"
        },
        {
          "internalType": "uint64",
          "name": "subId",
          "type": "uint64"
        },
        {
          "internalType": "uint16",
          "name": "requestConfirmations",
          "type": "uint16"
        },
        {
          "internalType": "uint32",
          "name": "callbackGasLimit",
          "type": "uint32"
        },
        {
          "internalType": "uint32",
          "name": "numWords",
          "type": "uint32"
        }
      ],
      "name": "requestRandomWords",
      "outputs": [
        {
          "internalType": "uint256",
          "name": "",
          "type": "uint256"
        }
      ],
      "stateMutability": "nonpayable",
      "type": "function"
    },
    {
      "inputs": [
        {
          "internalType": "uint64",
          "name": "subId",
          "type": "uint64"
        },
        {
          "internalType": "address",
          "name": "newOwner",
          "type": "address"
        }
      ],
      "name": "requestSubscriptionOwnerTransfer",
      "outputs": [],
      "stateMutability": "nonpayable",
      "type": "function"
    },
    {
      "inputs": [],
      "name": "s_totalBalance",
      "outputs": [
        {
          "internalType": "uint96",
          "name": "",
          "type": "uint96"
        }
      ],
      "stateMutability": "view",
      "type": "function"
    },
    {
      "inputs": [
        {
          "internalType": "uint16",
          "name": "minimumRequestConfirmations",
          "type": "uint16"
        },
        {
          "internalType": "uint32",
          "name": "fulfillmentFlatFeeLinkPPM",
          "type": "uint32"
        },
        {
          "internalType": "uint32",
          "name": "maxGasLimit",
          "type": "uint32"
        },
        {
          "internalType": "uint32",
          "name": "stalenessSeconds",
          "type": "uint32"
        },
        {
          "internalType": "uint32",
          "name": "gasAfterPaymentCalculation",
          "type": "uint32"
        },
        {
          "internalType": "uint96",
          "name": "minimumSubscriptionBalance",
          "type": "uint96"
        },
        {
          "internalType": "int256",
          "name": "fallbackWeiPerUnitLink",
          "type": "int256"
        }
      ],
      "name": "setConfig",
      "outputs": [],
      "stateMutability": "nonpayable",
      "type": "function"
    },
    {
      "inputs": [
        {
          "internalType": "address",
          "name": "to",
          "type": "address"
        }
      ],
      "name": "transferOwnership",
      "outputs": [],
      "stateMutability": "nonpayable",
      "type": "function"
    },
    {
      "inputs": [],
      "name": "typeAndVersion",
      "outputs": [
        {
          "internalType": "string",
          "name": "",
          "type": "string"
        }
      ],
      "stateMutability": "pure",
      "type": "function"
    }
  ],
  "bytecode": "0x60e06040523480156200001157600080fd5b50604051620085153803806200851583398181016040528101906200003791906200032c565b338060008073ffffffffffffffffffffffffffffffffffffffff168273ffffffffffffffffffffffffffffffffffffffff161415620000ad576040517f08c379a0000000000000000000000000000000000000000000000000000000008152600401620000a490620003d6565b60405180910390fd5b816000806101000a81548173ffffffffffffffffffffffffffffffffffffffff021916908373ffffffffffffffffffffffffffffffffffffffff160217905550600073ffffffffffffffffffffffffffffffffffffffff168173ffffffffffffffffffffffffffffffffffffffff161462000134576200013381620001e560201b60201c565b5b5050508273ffffffffffffffffffffffffffffffffffffffff1660808173ffffffffffffffffffffffffffffffffffffffff1660601b815250508073ffffffffffffffffffffffffffffffffffffffff1660a08173ffffffffffffffffffffffffffffffffffffffff1660601b815250508173ffffffffffffffffffffffffffffffffffffffff1660c08173ffffffffffffffffffffffffffffffffffffffff1660601b81525050505050620004d0565b3373ffffffffffffffffffffffffffffffffffffffff168173ffffffffffffffffffffffffffffffffffffffff16141562000257576040517f08c379a00000000000000000000000000000000000000000000000000000000081526004016200024e90620003f8565b60405180910390fd5b80600160006101000a81548173ffffffffffffffffffffffffffffffffffffffff021916908373ffffffffffffffffffffffffffffffffffffffff1602179055508073ffffffffffffffffffffffffffffffffffffffff1660008054906101000a900473ffffffffffffffffffffffffffffffffffffffff1673ffffffffffffffffffffffffffffffffffffffff167fed8889f560326eb138920d842192f0eb3dd22b4f139c87a2c57538e05bae127860405160405180910390a350565b6000815190506200032681620004b6565b92915050565b6000806000606084860312156200034857620003476200045f565b5b6000620003588682870162000315565b93505060206200036b8682870162000315565b92505060406200037e8682870162000315565b9150509250925092565b6000620003976018836200041a565b9150620003a48262000464565b602082019050919050565b6000620003be6017836200041a565b9150620003cb826200048d565b602082019050919050565b60006020820190508181036000830152620003f18162000388565b9050919050565b600060208201905081810360008301526200041381620003af565b9050919050565b600082825260208201905092915050565b600062000438826200043f565b9050919050565b600073ffffffffffffffffffffffffffffffffffffffff82169050919050565b600080fd5b7f43616e6e6f7420736574206f776e657220746f207a65726f0000000000000000600082015250565b7f43616e6e6f74207472616e7366657220746f2073656c66000000000000000000600082015250565b620004c1816200042b565b8114620004cd57600080fd5b50565b60805160601c60a05160601c60c05160601c617fd462000541600039600081816117a4015261453601526000818161339f01526149aa015260008181610a1101528181610d6f015281816116bd01528181612fd701528181613f450152818161408c01526141c30152617fd46000f3fe608060405234801561001057600080fd5b50600436106101e55760003560e01c80637ce1ffeb1161010f578063a4c0ed36116100a2578063caf70c4a11610071578063caf70c4a14610528578063d7ae1d3014610558578063e72f6e3014610574578063f2fde38b14610590576101e5565b8063a4c0ed36146104ae578063ad178361146104ca578063af198b97146104e8578063c3f909d414610504576101e5565b80638da5cb5b116100de5780638da5cb5b146104245780639f87fad714610442578063a21a23e41461045e578063a47c76961461047c576101e5565b80637ce1ffeb146103b057806382359740146103ce578063862545d1146103ea57806386fe91c714610406576101e5565b80635d3b1d301161018757806369bcdb7d1161015657806369bcdb7d1461033e5780636f64f03f1461036e5780637341c10c1461038a57806379ba5097146103a6576101e5565b80635d3b1d30146102b657806364d51a2a146102e657806366316d8d14610304578063689c451714610320576101e5565b8063181f5a77116101c3578063181f5a77146102405780631b6b6d231461025e57806340d6bb821461027c57806344380d1f1461029a576101e5565b806304c357cb146101ea57806308821d581461020657806315c48b8414610222575b600080fd5b61020460048036038101906101ff91906164f7565b6105ac565b005b610220600480360381019061021b919061625d565b61084e565b005b61022a6109cd565b6040516102379190617154565b60405180910390f35b6102486109d2565b6040516102559190616ef2565b60405180910390f35b610266610a0f565b6040516102739190616ebc565b60405180910390f35b610284610a33565b6040516102919190617427565b60405180910390f35b6102b460048036038101906102af9190616537565b610a39565b005b6102d060048036038101906102cb9190616311565b610ede565b6040516102dd9190617215565b60405180910390f35b6102ee6114d4565b6040516102fb9190617154565b60405180910390f35b61031e6004803603810190610319919061621d565b6114d9565b005b6103286117a2565b6040516103359190616ea1565b60405180910390f35b61035860048036038101906103539190616470565b6117c6565b6040516103659190616db8565b60405180910390f35b61038860048036038101906103839190616169565b6117e3565b005b6103a4600480360381019061039f91906164f7565b611978565b005b6103ae611daa565b005b6103b8611f3f565b6040516103c59190617215565b60405180910390f35b6103e860048036038101906103e391906164ca565b611f45565b005b61040460048036038101906103ff91906163ce565b6122ae565b005b61040e61251c565b60405161041b91906174ca565b60405180910390f35b61042c61253a565b6040516104399190616cd7565b60405180910390f35b61045c600480360381019061045791906164f7565b612563565b005b610466612ad4565b6040516104739190617486565b60405180910390f35b610496600480360381019061049191906164ca565b612d88565b6040516104a5939291906174e5565b60405180910390f35b6104c860048036038101906104c391906161a9565b612f8b565b005b6104d261339d565b6040516104df9190616e86565b60405180910390f35b61050260048036038101906104fd919061638c565b6133c1565b005b61050c6138a9565b60405161051f97969594939291906171a6565b60405180910390f35b610542600480360381019061053d919061628a565b613a0e565b60405161054f9190616db8565b60405180910390f35b610572600480360381019061056d91906164f7565b613a3e565b005b61058e6004803603810190610589919061613c565b614080565b005b6105aa60048036038101906105a5919061613c565b6142af565b005b816000600360008367ffffffffffffffff1667ffffffffffffffff168152602001908152602001600020600001600c9054906101000a900473ffffffffffffffffffffffffffffffffffffffff169050600073ffffffffffffffffffffffffffffffffffffffff168173ffffffffffffffffffffffffffffffffffffffff161415610663576040517f1f6a65b600000000000000000000000000000000000000000000000000000000815260040160405180910390fd5b8073ffffffffffffffffffffffffffffffffffffffff163373ffffffffffffffffffffffffffffffffffffffff16146106d357806040517fd8a3fb520000000000000000000000000000000000000000000000000000000081526004016106ca9190616cd7565b60405180910390fd5b6009600001601e9054906101000a900460ff161561071d576040517fed3ba6a600000000000000000000000000000000000000000000000000000000815260040160405180910390fd5b8273ffffffffffffffffffffffffffffffffffffffff16600360008667ffffffffffffffff1667ffffffffffffffff16815260200190815260200160002060010160009054906101000a900473ffffffffffffffffffffffffffffffffffffffff1673ffffffffffffffffffffffffffffffffffffffff16146108485782600360008667ffffffffffffffff1667ffffffffffffffff16815260200190815260200160002060010160006101000a81548173ffffffffffffffffffffffffffffffffffffffff021916908373ffffffffffffffffffffffffffffffffffffffff1602179055508367ffffffffffffffff167f69436ea6df009049404f564eff6622cd00522b0bd6a89efd9e52a355c4a879be338560405161083f929190616cf2565b60405180910390a25b50505050565b6108566142c3565b6000610898826002806020026040519081016040528092919082600260200280828437600081840152601f19601f820116905080830192505050505050613a0e565b905060006005600083815260200190815260200160002060009054906101000a900473ffffffffffffffffffffffffffffffffffffffff169050600073ffffffffffffffffffffffffffffffffffffffff168173ffffffffffffffffffffffffffffffffffffffff16141561094457816040517f77f5b84c00000000000000000000000000000000000000000000000000000000815260040161093b9190616db8565b60405180910390fd5b6005600083815260200190815260200160002060006101000a81549073ffffffffffffffffffffffffffffffffffffffff02191690558073ffffffffffffffffffffffffffffffffffffffff167f72be339577868f868798bac2c93e52d6f034fef4689a9848996c14ebb7416c0d836040516109c09190616db8565b60405180910390a2505050565b60c881565b60606040518060400160405280601681526020017f565246436f6f7264696e61746f72563220312e302e3000000000000000000000815250905090565b7f000000000000000000000000000000000000000000000000000000000000000081565b6101f481565b826000600360008367ffffffffffffffff1667ffffffffffffffff168152602001908152602001600020600001600c9054906101000a900473ffffffffffffffffffffffffffffffffffffffff169050600073ffffffffffffffffffffffffffffffffffffffff168173ffffffffffffffffffffffffffffffffffffffff161415610af0576040517f1f6a65b600000000000000000000000000000000000000000000000000000000815260040160405180910390fd5b8073ffffffffffffffffffffffffffffffffffffffff163373ffffffffffffffffffffffffffffffffffffffff1614610b6057806040517fd8a3fb52000000000000000000000000000000000000000000000000000000008152600401610b579190616cd7565b60405180910390fd5b6009600001601e9054906101000a900460ff1615610baa576040517fed3ba6a600000000000000000000000000000000000000000000000000000000815260040160405180910390fd5b826bffffffffffffffffffffffff16600360008767ffffffffffffffff1667ffffffffffffffff16815260200190815260200160002060000160009054906101000a90046bffffffffffffffffffffffff166bffffffffffffffffffffffff161015610c42576040517ff4d678b800000000000000000000000000000000000000000000000000000000815260040160405180910390fd5b6000600360008767ffffffffffffffff1667ffffffffffffffff16815260200190815260200160002060000160009054906101000a90046bffffffffffffffffffffffff166bffffffffffffffffffffffff16905083600360008867ffffffffffffffff1667ffffffffffffffff16815260200190815260200160002060000160008282829054906101000a90046bffffffffffffffffffffffff16610ce891906177c9565b92506101000a8154816bffffffffffffffffffffffff02191690836bffffffffffffffffffffffff16021790555083600460088282829054906101000a90046bffffffffffffffffffffffff16610d3f91906177c9565b92506101000a8154816bffffffffffffffffffffffff02191690836bffffffffffffffffffffffff1602179055507f000000000000000000000000000000000000000000000000000000000000000073ffffffffffffffffffffffffffffffffffffffff1663a9059cbb86866040518363ffffffff1660e01b8152600401610dc8929190616d44565b602060405180830381600087803b158015610de257600080fd5b505af1158015610df6573d6000803e3d6000fd5b505050506040513d601f19601f82011682018060405250810190610e1a91906162b7565b610e50576040517ff4d678b800000000000000000000000000000000000000000000000000000000815260040160405180910390fd5b8567ffffffffffffffff167ffd47f8dea665a4ba9fd5ac2d5d60d09da40628a32c3e5b3ee970f0a36b43dd3282600360008a67ffffffffffffffff1667ffffffffffffffff16815260200190815260200160002060000160009054906101000a90046bffffffffffffffffffffffff16604051610ece9291906173fe565b60405180910390a2505050505050565b60006009600001601e9054906101000a900460ff1615610f2a576040517fed3ba6a600000000000000000000000000000000000000000000000000000000815260040160405180910390fd5b600073ffffffffffffffffffffffffffffffffffffffff16600360008767ffffffffffffffff1667ffffffffffffffff168152602001908152602001600020600001600c9054906101000a900473ffffffffffffffffffffffffffffffffffffffff1673ffffffffffffffffffffffffffffffffffffffff161415610fdb576040517f1f6a65b600000000000000000000000000000000000000000000000000000000815260040160405180910390fd5b6000600260003373ffffffffffffffffffffffffffffffffffffffff1673ffffffffffffffffffffffffffffffffffffffff16815260200190815260200160002060008767ffffffffffffffff1667ffffffffffffffff1681526020019081526020016000206040518060400160405290816000820160009054906101000a900467ffffffffffffffff1667ffffffffffffffff1667ffffffffffffffff1681526020016000820160089054906101000a900467ffffffffffffffff1667ffffffffffffffff1667ffffffffffffffff168152505090506000816000015167ffffffffffffffff1614156111085785336040517ff0019fe60000000000000000000000000000000000000000000000000000000081526004016110ff9291906174a1565b60405180910390fd5b600960000160009054906101000a900461ffff1661ffff168561ffff161080611139575060c861ffff168561ffff16115b156111935784600960000160009054906101000a900461ffff1660c86040517fa738697600000000000000000000000000000000000000000000000000000000815260040161118a9392919061716f565b60405180910390fd5b600960000160129054906101000a90046bffffffffffffffffffffffff166bffffffffffffffffffffffff16600360008867ffffffffffffffff1667ffffffffffffffff16815260200190815260200160002060000160009054906101000a90046bffffffffffffffffffffffff166bffffffffffffffffffffffff161015611248576040517ff4d678b800000000000000000000000000000000000000000000000000000000815260040160405180910390fd5b600960000160069054906101000a900463ffffffff1663ffffffff168463ffffffff1611156112c55783600960000160069054906101000a900463ffffffff166040517ff5d7e01e0000000000000000000000000000000000000000000000000000000081526004016112bc929190617442565b60405180910390fd5b6101f463ffffffff168363ffffffff16111561131c57826101f46040517f47386bec000000000000000000000000000000000000000000000000000000008152600401611313929190617442565b60405180910390fd5b60006001826020015161132f919061768a565b905060008833898460405160200161134a9493929190616dd3565b6040516020818303038152906040528051906020012060001c90506000898260405160200161137a929190616e18565b6040516020818303038152906040528051906020012060001c905080438a8989336040516020016113b096959493929190617313565b6040516020818303038152906040528051906020012060076000838152602001908152602001600020819055503373ffffffffffffffffffffffffffffffffffffffff168a7f63373d1c4696214b898952999c9aaec57dac1ee2723cec59bea6888f489a977283858d8d8d8d60405161142e969594939291906172b2565b60405180910390a382600260003373ffffffffffffffffffffffffffffffffffffffff1673ffffffffffffffffffffffffffffffffffffffff16815260200190815260200160002060008b67ffffffffffffffff1667ffffffffffffffff16815260200190815260200160002060000160086101000a81548167ffffffffffffffff021916908367ffffffffffffffff1602179055508094505050505095945050505050565b606481565b6009600001601e9054906101000a900460ff1615611523576040517fed3ba6a600000000000000000000000000000000000000000000000000000000815260040160405180910390fd5b806bffffffffffffffffffffffff16600660003373ffffffffffffffffffffffffffffffffffffffff1673ffffffffffffffffffffffffffffffffffffffff16815260200190815260200160002060009054906101000a90046bffffffffffffffffffffffff166bffffffffffffffffffffffff1610156115d0576040517ff4d678b800000000000000000000000000000000000000000000000000000000815260040160405180910390fd5b80600660003373ffffffffffffffffffffffffffffffffffffffff1673ffffffffffffffffffffffffffffffffffffffff16815260200190815260200160002060008282829054906101000a90046bffffffffffffffffffffffff1661163691906177c9565b92506101000a8154816bffffffffffffffffffffffff02191690836bffffffffffffffffffffffff16021790555080600460088282829054906101000a90046bffffffffffffffffffffffff1661168d91906177c9565b92506101000a8154816bffffffffffffffffffffffff02191690836bffffffffffffffffffffffff1602179055507f000000000000000000000000000000000000000000000000000000000000000073ffffffffffffffffffffffffffffffffffffffff1663a9059cbb83836040518363ffffffff1660e01b8152600401611716929190616d44565b602060405180830381600087803b15801561173057600080fd5b505af1158015611744573d6000803e3d6000fd5b505050506040513d601f19601f8201168201806040525081019061176891906162b7565b61179e576040517ff4d678b800000000000000000000000000000000000000000000000000000000815260040160405180910390fd5b5050565b7f000000000000000000000000000000000000000000000000000000000000000081565b600060076000838152602001908152602001600020549050919050565b6117eb6142c3565b600061182d826002806020026040519081016040528092919082600260200280828437600081840152601f19601f820116905080830192505050505050613a0e565b9050600073ffffffffffffffffffffffffffffffffffffffff166005600083815260200190815260200160002060009054906101000a900473ffffffffffffffffffffffffffffffffffffffff1673ffffffffffffffffffffffffffffffffffffffff16146118d357806040517f4a0b8fa70000000000000000000000000000000000000000000000000000000081526004016118ca9190616db8565b60405180910390fd5b826005600083815260200190815260200160002060006101000a81548173ffffffffffffffffffffffffffffffffffffffff021916908373ffffffffffffffffffffffffffffffffffffffff1602179055508273ffffffffffffffffffffffffffffffffffffffff167fe729ae16526293f74ade739043022254f1489f616295a25bf72dfb4511ed73b88260405161196b9190616db8565b60405180910390a2505050565b816000600360008367ffffffffffffffff1667ffffffffffffffff168152602001908152602001600020600001600c9054906101000a900473ffffffffffffffffffffffffffffffffffffffff169050600073ffffffffffffffffffffffffffffffffffffffff168173ffffffffffffffffffffffffffffffffffffffff161415611a2f576040517f1f6a65b600000000000000000000000000000000000000000000000000000000815260040160405180910390fd5b8073ffffffffffffffffffffffffffffffffffffffff163373ffffffffffffffffffffffffffffffffffffffff1614611a9f57806040517fd8a3fb52000000000000000000000000000000000000000000000000000000008152600401611a969190616cd7565b60405180910390fd5b6009600001601e9054906101000a900460ff1615611ae9576040517fed3ba6a600000000000000000000000000000000000000000000000000000000815260040160405180910390fd5b606461ffff16600360008667ffffffffffffffff1667ffffffffffffffff168152602001908152602001600020600201805490501415611b55576040517f05a48e0f00000000000000000000000000000000000000000000000000000000815260040160405180910390fd5b6000600260008573ffffffffffffffffffffffffffffffffffffffff1673ffffffffffffffffffffffffffffffffffffffff16815260200190815260200160002060008667ffffffffffffffff1667ffffffffffffffff16815260200190815260200160002060000160009054906101000a900467ffffffffffffffff1667ffffffffffffffff1614611be757611da4565b60405180604001604052808567ffffffffffffffff168152602001600067ffffffffffffffff16815250600260008573ffffffffffffffffffffffffffffffffffffffff1673ffffffffffffffffffffffffffffffffffffffff16815260200190815260200160002060008667ffffffffffffffff1667ffffffffffffffff16815260200190815260200160002060008201518160000160006101000a81548167ffffffffffffffff021916908367ffffffffffffffff16021790555060208201518160000160086101000a81548167ffffffffffffffff021916908367ffffffffffffffff160217905550905050600360008567ffffffffffffffff1667ffffffffffffffff168152602001908152602001600020600201839080600181540180825580915050600190039060005260206000200160009091909190916101000a81548173ffffffffffffffffffffffffffffffffffffffff021916908373ffffffffffffffffffffffffffffffffffffffff1602179055508367ffffffffffffffff167f43dc749a04ac8fb825cbd514f7c0e13f13bc6f2ee66043b76629d51776cff8e084604051611d9b9190616cd7565b60405180910390a25b50505050565b600160009054906101000a900473ffffffffffffffffffffffffffffffffffffffff1673ffffffffffffffffffffffffffffffffffffffff163373ffffffffffffffffffffffffffffffffffffffff1614611e3a576040517f08c379a0000000000000000000000000000000000000000000000000000000008152600401611e3190616f14565b60405180910390fd5b60008060009054906101000a900473ffffffffffffffffffffffffffffffffffffffff169050336000806101000a81548173ffffffffffffffffffffffffffffffffffffffff021916908373ffffffffffffffffffffffffffffffffffffffff1602179055506000600160006101000a81548173ffffffffffffffffffffffffffffffffffffffff021916908373ffffffffffffffffffffffffffffffffffffffff1602179055503373ffffffffffffffffffffffffffffffffffffffff168173ffffffffffffffffffffffffffffffffffffffff167f8be0079c531659141344cd1fd0a4f28419497f9722a3daafe3b4186f6b6457e060405160405180910390a350565b61138881565b6009600001601e9054906101000a900460ff1615611f8f576040517fed3ba6a600000000000000000000000000000000000000000000000000000000815260040160405180910390fd5b600073ffffffffffffffffffffffffffffffffffffffff16600360008367ffffffffffffffff1667ffffffffffffffff168152602001908152602001600020600001600c9054906101000a900473ffffffffffffffffffffffffffffffffffffffff1673ffffffffffffffffffffffffffffffffffffffff161415612040576040517f1f6a65b600000000000000000000000000000000000000000000000000000000815260040160405180910390fd5b3373ffffffffffffffffffffffffffffffffffffffff16600360008367ffffffffffffffff1667ffffffffffffffff16815260200190815260200160002060010160009054906101000a900473ffffffffffffffffffffffffffffffffffffffff1673ffffffffffffffffffffffffffffffffffffffff161461214457600360008267ffffffffffffffff1667ffffffffffffffff16815260200190815260200160002060010160009054906101000a900473ffffffffffffffffffffffffffffffffffffffff166040517fd084e97500000000000000000000000000000000000000000000000000000000815260040161213b9190616cd7565b60405180910390fd5b6000600360008367ffffffffffffffff1667ffffffffffffffff168152602001908152602001600020600001600c9054906101000a900473ffffffffffffffffffffffffffffffffffffffff16905033600360008467ffffffffffffffff1667ffffffffffffffff168152602001908152602001600020600001600c6101000a81548173ffffffffffffffffffffffffffffffffffffffff021916908373ffffffffffffffffffffffffffffffffffffffff1602179055506000600360008467ffffffffffffffff1667ffffffffffffffff16815260200190815260200160002060010160006101000a81548173ffffffffffffffffffffffffffffffffffffffff021916908373ffffffffffffffffffffffffffffffffffffffff1602179055508167ffffffffffffffff167f6f1dc65165ffffedfd8e507b4a0f1fcfdada045ed11f6c26ba27cedfe87802f082336040516122a2929190616cf2565b60405180910390a25050565b6122b66142c3565b60c861ffff168761ffff16111561230957868760c86040517fa73869760000000000000000000000000000000000000000000000000000000081526004016123009392919061716f565b60405180910390fd5b6000811361234e57806040517f43d4cf660000000000000000000000000000000000000000000000000000000081526004016123459190616ed7565b60405180910390fd5b6040518060e001604052808861ffff1681526020018763ffffffff1681526020018663ffffffff1681526020018563ffffffff1681526020018463ffffffff168152602001836bffffffffffffffffffffffff16815260200160001515815250600960008201518160000160006101000a81548161ffff021916908361ffff16021790555060208201518160000160026101000a81548163ffffffff021916908363ffffffff16021790555060408201518160000160066101000a81548163ffffffff021916908363ffffffff160217905550606082015181600001600a6101000a81548163ffffffff021916908363ffffffff160217905550608082015181600001600e6101000a81548163ffffffff021916908363ffffffff16021790555060a08201518160000160126101000a8154816bffffffffffffffffffffffff02191690836bffffffffffffffffffffffff16021790555060c082015181600001601e6101000a81548160ff021916908315150217905550905050806008819055507f56583fc0e609f432152501e64e8a4aaf7ecc715b33697f1cacb307f4b562d2c48787878787878760405161250b97969594939291906171a6565b60405180910390a150505050505050565b600460089054906101000a90046bffffffffffffffffffffffff1681565b60008060009054906101000a900473ffffffffffffffffffffffffffffffffffffffff16905090565b816000600360008367ffffffffffffffff1667ffffffffffffffff168152602001908152602001600020600001600c9054906101000a900473ffffffffffffffffffffffffffffffffffffffff169050600073ffffffffffffffffffffffffffffffffffffffff168173ffffffffffffffffffffffffffffffffffffffff16141561261a576040517f1f6a65b600000000000000000000000000000000000000000000000000000000815260040160405180910390fd5b8073ffffffffffffffffffffffffffffffffffffffff163373ffffffffffffffffffffffffffffffffffffffff161461268a57806040517fd8a3fb520000000000000000000000000000000000000000000000000000000081526004016126819190616cd7565b60405180910390fd5b6009600001601e9054906101000a900460ff16156126d4576040517fed3ba6a600000000000000000000000000000000000000000000000000000000815260040160405180910390fd5b6000600260008573ffffffffffffffffffffffffffffffffffffffff1673ffffffffffffffffffffffffffffffffffffffff16815260200190815260200160002060008667ffffffffffffffff1667ffffffffffffffff16815260200190815260200160002060000160009054906101000a900467ffffffffffffffff1667ffffffffffffffff1614156127a15783836040517ff0019fe60000000000000000000000000000000000000000000000000000000081526004016127989291906174a1565b60405180910390fd5b6000600360008667ffffffffffffffff1667ffffffffffffffff16815260200190815260200160002060020180548060200260200160405190810160405280929190818152602001828054801561284d57602002820191906000526020600020905b8160009054906101000a900473ffffffffffffffffffffffffffffffffffffffff1673ffffffffffffffffffffffffffffffffffffffff1681526020019060010190808311612803575b505050505090506000600182516128649190617795565b905060005b82518110156129ec578573ffffffffffffffffffffffffffffffffffffffff1683828151811061289c5761289b617b3c565b5b602002602001015173ffffffffffffffffffffffffffffffffffffffff1614156129d95760008383815181106128d5576128d4617b3c565b5b6020026020010151905080600360008a67ffffffffffffffff1667ffffffffffffffff168152602001908152602001600020600201838154811061291c5761291b617b3c565b5b9060005260206000200160006101000a81548173ffffffffffffffffffffffffffffffffffffffff021916908373ffffffffffffffffffffffffffffffffffffffff160217905550600360008967ffffffffffffffff1667ffffffffffffffff16815260200190815260200160002060020180548061299e5761299d617b0d565b5b6001900381819060005260206000200160006101000a81549073ffffffffffffffffffffffffffffffffffffffff02191690559055506129ec565b80806129e4906179cc565b915050612869565b50600260008673ffffffffffffffffffffffffffffffffffffffff1673ffffffffffffffffffffffffffffffffffffffff16815260200190815260200160002060008767ffffffffffffffff1667ffffffffffffffff168152602001908152602001600020600080820160006101000a81549067ffffffffffffffff02191690556000820160086101000a81549067ffffffffffffffff021916905550508567ffffffffffffffff167f182bff9831466789164ca77075fffd84916d35a8180ba73c27e45634549b445b86604051612ac49190616cd7565b60405180910390a2505050505050565b60006009600001601e9054906101000a900460ff1615612b20576040517fed3ba6a600000000000000000000000000000000000000000000000000000000815260040160405180910390fd5b6004600081819054906101000a900467ffffffffffffffff1680929190612b4690617a15565b91906101000a81548167ffffffffffffffff021916908367ffffffffffffffff160217905550506000600460009054906101000a900467ffffffffffffffff16905060008067ffffffffffffffff811115612ba457612ba3617b6b565b5b604051908082528060200260200182016040528015612bd25781602001602082028036833780820191505090505b509050604051806080016040528060006bffffffffffffffffffffffff1681526020013373ffffffffffffffffffffffffffffffffffffffff168152602001600073ffffffffffffffffffffffffffffffffffffffff16815260200182815250600360008467ffffffffffffffff1667ffffffffffffffff16815260200190815260200160002060008201518160000160006101000a8154816bffffffffffffffffffffffff02191690836bffffffffffffffffffffffff160217905550602082015181600001600c6101000a81548173ffffffffffffffffffffffffffffffffffffffff021916908373ffffffffffffffffffffffffffffffffffffffff16021790555060408201518160010160006101000a81548173ffffffffffffffffffffffffffffffffffffffff021916908373ffffffffffffffffffffffffffffffffffffffff1602179055506060820151816002019080519060200190612d3a929190615c85565b509050508167ffffffffffffffff167f464722b4166576d3dcbba877b999bc35cf911f4eaf434b7eba68fa113951d0bf33604051612d789190616cd7565b60405180910390a2819250505090565b6000806060600073ffffffffffffffffffffffffffffffffffffffff16600360008667ffffffffffffffff1667ffffffffffffffff168152602001908152602001600020600001600c9054906101000a900473ffffffffffffffffffffffffffffffffffffffff1673ffffffffffffffffffffffffffffffffffffffff161415612e3e576040517f1f6a65b600000000000000000000000000000000000000000000000000000000815260040160405180910390fd5b600360008567ffffffffffffffff1667ffffffffffffffff16815260200190815260200160002060000160009054906101000a90046bffffffffffffffffffffffff16600360008667ffffffffffffffff1667ffffffffffffffff168152602001908152602001600020600001600c9054906101000a900473ffffffffffffffffffffffffffffffffffffffff16600360008767ffffffffffffffff1667ffffffffffffffff16815260200190815260200160002060020180805480602002602001604051908101604052809291908181526020018280548015612f7757602002820191906000526020600020905b8160009054906101000a900473ffffffffffffffffffffffffffffffffffffffff1673ffffffffffffffffffffffffffffffffffffffff1681526020019060010190808311612f2d575b505050505090509250925092509193909250565b6009600001601e9054906101000a900460ff1615612fd5576040517fed3ba6a600000000000000000000000000000000000000000000000000000000815260040160405180910390fd5b7f000000000000000000000000000000000000000000000000000000000000000073ffffffffffffffffffffffffffffffffffffffff163373ffffffffffffffffffffffffffffffffffffffff161461305a576040517f44b0e3c300000000000000000000000000000000000000000000000000000000815260040160405180910390fd5b60208282905014613097576040517f8129bbcd00000000000000000000000000000000000000000000000000000000815260040160405180910390fd5b600082828101906130a891906164ca565b9050600073ffffffffffffffffffffffffffffffffffffffff16600360008367ffffffffffffffff1667ffffffffffffffff168152602001908152602001600020600001600c9054906101000a900473ffffffffffffffffffffffffffffffffffffffff1673ffffffffffffffffffffffffffffffffffffffff16141561315b576040517f1f6a65b600000000000000000000000000000000000000000000000000000000815260040160405180910390fd5b6000600360008367ffffffffffffffff1667ffffffffffffffff168152602001908152602001600020600001600c9054906101000a900473ffffffffffffffffffffffffffffffffffffffff1690508573ffffffffffffffffffffffffffffffffffffffff168173ffffffffffffffffffffffffffffffffffffffff161461321a57806040517fd8a3fb520000000000000000000000000000000000000000000000000000000081526004016132119190616cd7565b60405180910390fd5b6000600360008467ffffffffffffffff1667ffffffffffffffff16815260200190815260200160002060000160009054906101000a90046bffffffffffffffffffffffff166bffffffffffffffffffffffff16905085600360008567ffffffffffffffff1667ffffffffffffffff16815260200190815260200160002060000160008282829054906101000a90046bffffffffffffffffffffffff166132c091906176c8565b92506101000a8154816bffffffffffffffffffffffff02191690836bffffffffffffffffffffffff16021790555085600460088282829054906101000a90046bffffffffffffffffffffffff1661331791906176c8565b92506101000a8154816bffffffffffffffffffffffff02191690836bffffffffffffffffffffffff1602179055508267ffffffffffffffff167fd39ec07f4e209f627a4c427971473820dc129761ba28de8906bd56f57101d4f882888461337e9190617634565b60405161338c929190617289565b60405180910390a250505050505050565b7f000000000000000000000000000000000000000000000000000000000000000081565b6009600001601e9054906101000a900460ff161561340b576040517fed3ba6a600000000000000000000000000000000000000000000000000000000815260040160405180910390fd5b60005a9050600080600061341f8686614353565b9250925092506000856060015163ffffffff1667ffffffffffffffff81111561344b5761344a617b6b565b5b6040519080825280602002602001820160405280156134795781602001602082028036833780820191505090505b50905060005b866060015163ffffffff168110156134ef5782816040516020016134a4929190617289565b6040516020818303038152906040528051906020012060001c8282815181106134d0576134cf617b3c565b5b60200260200101818152505080806134e7906179cc565b91505061347f565b506007600084815260200190815260200160002060009055600080631fe543e360e01b896080015184604051602401613529929190617259565b604051602081830303815290604052907bffffffffffffffffffffffffffffffffffffffffffffffffffffffff19166020820180517bffffffffffffffffffffffffffffffffffffffffffffffffffffffff8381831617835250505050905060005a9050886040015163ffffffff168110156135e2578089604001516040517fd17e76640000000000000000000000000000000000000000000000000000000081526004016135d9929190617374565b60405180910390fd5b60016009600001601e6101000a81548160ff021916908315150217905550600061361b8a6040015163ffffffff168b608001518561467b565b9050867f969e72fbacf24da85b4bce2a3cef3d8dc2497b1750c4cc5a06b52c1041338337868360405161364f929190616d88565b60405180910390a260006009600001601e6101000a81548160ff02191690831515021790555060006136b38a6009600001600e9054906101000a900463ffffffff1663ffffffff16600960000160029054906101000a900463ffffffff163a6146c8565b9050806bffffffffffffffffffffffff16600360008d6020015167ffffffffffffffff1667ffffffffffffffff16815260200190815260200160002060000160009054906101000a90046bffffffffffffffffffffffff166bffffffffffffffffffffffff161015613751576040517ff4d678b800000000000000000000000000000000000000000000000000000000815260040160405180910390fd5b80600360008d6020015167ffffffffffffffff1667ffffffffffffffff16815260200190815260200160002060000160008282829054906101000a90046bffffffffffffffffffffffff166137a691906177c9565b92506101000a8154816bffffffffffffffffffffffff02191690836bffffffffffffffffffffffff1602179055508060066000600560008d815260200190815260200160002060009054906101000a900473ffffffffffffffffffffffffffffffffffffffff1673ffffffffffffffffffffffffffffffffffffffff1673ffffffffffffffffffffffffffffffffffffffff16815260200190815260200160002060008282829054906101000a90046bffffffffffffffffffffffff1661386d91906176c8565b92506101000a8154816bffffffffffffffffffffffff02191690836bffffffffffffffffffffffff160217905550505050505050505050505050565b60008060008060008060008060096040518060e00160405290816000820160009054906101000a900461ffff1661ffff1661ffff1681526020016000820160029054906101000a900463ffffffff1663ffffffff1663ffffffff1681526020016000820160069054906101000a900463ffffffff1663ffffffff1663ffffffff16815260200160008201600a9054906101000a900463ffffffff1663ffffffff1663ffffffff16815260200160008201600e9054906101000a900463ffffffff1663ffffffff1663ffffffff1681526020016000820160129054906101000a90046bffffffffffffffffffffffff166bffffffffffffffffffffffff166bffffffffffffffffffffffff16815260200160008201601e9054906101000a900460ff1615151515815250509050806000015181602001518260400151836060015184608001518560a0015160085497509750975097509750975097505090919293949596565b600081604051602001613a219190616d6d565b604051602081830303815290604052805190602001209050919050565b816000600360008367ffffffffffffffff1667ffffffffffffffff168152602001908152602001600020600001600c9054906101000a900473ffffffffffffffffffffffffffffffffffffffff169050600073ffffffffffffffffffffffffffffffffffffffff168173ffffffffffffffffffffffffffffffffffffffff161415613af5576040517f1f6a65b600000000000000000000000000000000000000000000000000000000815260040160405180910390fd5b8073ffffffffffffffffffffffffffffffffffffffff163373ffffffffffffffffffffffffffffffffffffffff1614613b6557806040517fd8a3fb52000000000000000000000000000000000000000000000000000000008152600401613b5c9190616cd7565b60405180910390fd5b6009600001601e9054906101000a900460ff1615613baf576040517fed3ba6a600000000000000000000000000000000000000000000000000000000815260040160405180910390fd5b6000600360008667ffffffffffffffff1667ffffffffffffffff1681526020019081526020016000206040518060800160405290816000820160009054906101000a90046bffffffffffffffffffffffff166bffffffffffffffffffffffff166bffffffffffffffffffffffff16815260200160008201600c9054906101000a900473ffffffffffffffffffffffffffffffffffffffff1673ffffffffffffffffffffffffffffffffffffffff1673ffffffffffffffffffffffffffffffffffffffff1681526020016001820160009054906101000a900473ffffffffffffffffffffffffffffffffffffffff1673ffffffffffffffffffffffffffffffffffffffff1673ffffffffffffffffffffffffffffffffffffffff16815260200160028201805480602002602001604051908101604052809291908181526020018280548015613d5257602002820191906000526020600020905b8160009054906101000a900473ffffffffffffffffffffffffffffffffffffffff1673ffffffffffffffffffffffffffffffffffffffff1681526020019060010190808311613d08575b505050505081525050905060008160000151905060005b826060015151811015613e44576002600084606001518381518110613d9157613d90617b3c565b5b602002602001015173ffffffffffffffffffffffffffffffffffffffff1673ffffffffffffffffffffffffffffffffffffffff16815260200190815260200160002060008867ffffffffffffffff1667ffffffffffffffff168152602001908152602001600020600080820160006101000a81549067ffffffffffffffff02191690556000820160086101000a81549067ffffffffffffffff021916905550508080613e3c906179cc565b915050613d69565b50600360008767ffffffffffffffff1667ffffffffffffffff168152602001908152602001600020600080820160006101000a8154906bffffffffffffffffffffffff021916905560008201600c6101000a81549073ffffffffffffffffffffffffffffffffffffffff02191690556001820160006101000a81549073ffffffffffffffffffffffffffffffffffffffff0219169055600282016000613eea9190615d0f565b505080600460088282829054906101000a90046bffffffffffffffffffffffff16613f1591906177c9565b92506101000a8154816bffffffffffffffffffffffff02191690836bffffffffffffffffffffffff1602179055507f000000000000000000000000000000000000000000000000000000000000000073ffffffffffffffffffffffffffffffffffffffff1663a9059cbb86836bffffffffffffffffffffffff166040518363ffffffff1660e01b8152600401613fac929190616d1b565b602060405180830381600087803b158015613fc657600080fd5b505af1158015613fda573d6000803e3d6000fd5b505050506040513d601f19601f82011682018060405250810190613ffe91906162b7565b614034576040517ff4d678b800000000000000000000000000000000000000000000000000000000815260040160405180910390fd5b8567ffffffffffffffff167fe8ed5b475a5b5987aa9165e8731bb78043f39eee32ec5a1169a89e27fcd498158683604051614070929190616d44565b60405180910390a2505050505050565b6140886142c3565b60007f000000000000000000000000000000000000000000000000000000000000000073ffffffffffffffffffffffffffffffffffffffff166370a08231306040518263ffffffff1660e01b81526004016140e39190616cd7565b60206040518083038186803b1580156140fb57600080fd5b505afa15801561410f573d6000803e3d6000fd5b505050506040513d601f19601f82011682018060405250810190614133919061649d565b90506000600460089054906101000a90046bffffffffffffffffffffffff166bffffffffffffffffffffffff169050818111156141a95780826040517fa99da3020000000000000000000000000000000000000000000000000000000081526004016141a0929190617289565b60405180910390fd5b818110156142aa57600081836141bf9190617795565b90507f000000000000000000000000000000000000000000000000000000000000000073ffffffffffffffffffffffffffffffffffffffff1663a9059cbb85836040518363ffffffff1660e01b815260040161421c929190616d1b565b602060405180830381600087803b15801561423657600080fd5b505af115801561424a573d6000803e3d6000fd5b505050506040513d601f19601f8201168201806040525081019061426e91906162b7565b507f59bfc682b673f8cbf945f1e454df9334834abf7dfe7f92237ca29ecb9b43660084826040516142a0929190616d1b565b60405180910390a1505b505050565b6142b76142c3565b6142c0816147e3565b50565b60008054906101000a900473ffffffffffffffffffffffffffffffffffffffff1673ffffffffffffffffffffffffffffffffffffffff163373ffffffffffffffffffffffffffffffffffffffff1614614351576040517f08c379a000000000000000000000000000000000000000000000000000000000815260040161434890616f74565b60405180910390fd5b565b60008060006143658560000151613a0e565b925060006005600085815260200190815260200160002060009054906101000a900473ffffffffffffffffffffffffffffffffffffffff169050600073ffffffffffffffffffffffffffffffffffffffff168173ffffffffffffffffffffffffffffffffffffffff16141561441157836040517f77f5b84c0000000000000000000000000000000000000000000000000000000081526004016144089190616db8565b60405180910390fd5b838660800151604051602001614428929190616e18565b6040516020818303038152906040528051906020012060001c92506000600760008581526020019081526020016000205490506000801b811415614498576040517f3688124a00000000000000000000000000000000000000000000000000000000815260040160405180910390fd5b8386600001518760200151886040015189606001518a608001516040516020016144c79695949392919061739d565b604051602081830303815290604052805190602001208114614515576040517fd529142c00000000000000000000000000000000000000000000000000000000815260040160405180910390fd5b6000866000015167ffffffffffffffff164090506000801b811415614630577f000000000000000000000000000000000000000000000000000000000000000073ffffffffffffffffffffffffffffffffffffffff1663e9413d3888600001516040518263ffffffff1660e01b8152600401614591919061746b565b60206040518083038186803b1580156145a957600080fd5b505afa1580156145bd573d6000803e3d6000fd5b505050506040513d601f19601f820116820180604052508101906145e191906162e4565b90506000801b81141561462f5786600001516040517f175dadad000000000000000000000000000000000000000000000000000000008152600401614626919061746b565b60405180910390fd5b5b6000886080015182604051602001614649929190616cab565b6040516020818303038152906040528051906020012060001c905061466e8982614910565b9450505050509250925092565b60005a61138881101561468d57600080fd5b6113888103905084604082048203116146a557600080fd5b833b6146b057600080fd5b6000808451602086016000888af19150509392505050565b6000806146d361497d565b90506000811361471a57806040517f43d4cf660000000000000000000000000000000000000000000000000000000081526004016147119190616ed7565b60405180910390fd5b6000815a888861472a9190617634565b6147349190617795565b85670de0b6b3a7640000614748919061773b565b614752919061773b565b61475c919061770a565b905060008563ffffffff1664e8d4a51000614777919061773b565b9050806b033b2e3c9fd0803ce80000006147919190617795565b8211156147ca576040517fe80fa38100000000000000000000000000000000000000000000000000000000815260040160405180910390fd5b80826147d69190617634565b9350505050949350505050565b3373ffffffffffffffffffffffffffffffffffffffff168173ffffffffffffffffffffffffffffffffffffffff161415614852576040517f08c379a0000000000000000000000000000000000000000000000000000000008152600401614849906170b4565b60405180910390fd5b80600160006101000a81548173ffffffffffffffffffffffffffffffffffffffff021916908373ffffffffffffffffffffffffffffffffffffffff1602179055508073ffffffffffffffffffffffffffffffffffffffff1660008054906101000a900473ffffffffffffffffffffffffffffffffffffffff1673ffffffffffffffffffffffffffffffffffffffff167fed8889f560326eb138920d842192f0eb3dd22b4f139c87a2c57538e05bae127860405160405180910390a350565b60006149448360000151846020015185604001518660600151868860a001518960c001518a60e001518b6101000151614a89565b6003836020015160405160200161495c929190617230565b6040516020818303038152906040528051906020012060001c905092915050565b6000806009600001600a9054906101000a900463ffffffff1690506000808263ffffffff161190506000807f000000000000000000000000000000000000000000000000000000000000000073ffffffffffffffffffffffffffffffffffffffff1663feaf968c6040518163ffffffff1660e01b815260040160a06040518083038186803b158015614a0e57600080fd5b505afa158015614a22573d6000803e3d6000fd5b505050506040513d601f19601f82011682018060405250810190614a46919061658a565b9091929350909150508093508192505050828015614a7457508142614a6b9190617795565b8463ffffffff16105b15614a7f5760085490505b8094505050505090565b614a9289614c76565b614ad1576040517f08c379a0000000000000000000000000000000000000000000000000000000008152600401614ac890617054565b60405180910390fd5b614ada88614c76565b614b19576040517f08c379a0000000000000000000000000000000000000000000000000000000008152600401614b1090617074565b60405180910390fd5b614b2283614c76565b614b61576040517f08c379a0000000000000000000000000000000000000000000000000000000008152600401614b5890617034565b60405180910390fd5b614b6a82614c76565b614ba9576040517f08c379a0000000000000000000000000000000000000000000000000000000008152600401614ba090617134565b60405180910390fd5b614bb5878a8887614df7565b614bf4576040517f08c379a0000000000000000000000000000000000000000000000000000000008152600401614beb90616ff4565b60405180910390fd5b6000614c008a87615015565b90506000614c13898b878b8689896150a7565b90506000614c24838d8d8a86615201565b9050808a14614c68576040517f08c379a0000000000000000000000000000000000000000000000000000000008152600401614c5f90617094565b60405180910390fd5b505050505050505050505050565b60007ffffffffffffffffffffffffffffffffffffffffffffffffffffffffefffffc2f82600060028110614cad57614cac617b3c565b5b602002015110614cf2576040517f08c379a0000000000000000000000000000000000000000000000000000000008152600401614ce990616fb4565b60405180910390fd5b7ffffffffffffffffffffffffffffffffffffffffffffffffffffffffefffffc2f82600160028110614d2757614d26617b3c565b5b602002015110614d6c576040517f08c379a0000000000000000000000000000000000000000000000000000000008152600401614d6390617114565b60405180910390fd5b7ffffffffffffffffffffffffffffffffffffffffffffffffffffffffefffffc2f80614d9b57614d9a617ade565b5b82600160028110614daf57614dae617b3c565b5b602002015183600160028110614dc857614dc7617b3c565b5b602002015109614def83600060028110614de557614de4617b3c565b5b6020020151615243565b149050919050565b60008073ffffffffffffffffffffffffffffffffffffffff168273ffffffffffffffffffffffffffffffffffffffff161415614e68576040517f08c379a0000000000000000000000000000000000000000000000000000000008152600401614e5f90616fd4565b60405180910390fd5b600080600286600160028110614e8157614e80617b3c565b5b602002015181614e9457614e93617ade565b5b0614614ea157601c614ea4565b601b5b905060007ffffffffffffffffffffffffffffffffebaaedce6af48a03bbfd25e8cd036414180614ed757614ed6617ade565b5b8587600060028110614eec57614eeb617b3c565b5b6020020151097ffffffffffffffffffffffffffffffffebaaedce6af48a03bbfd25e8cd03641410360001b905060007ffffffffffffffffffffffffffffffffebaaedce6af48a03bbfd25e8cd036414180614f4a57614f49617ade565b5b87600060028110614f5e57614f5d617b3c565b5b6020020151890960001b90506000600183858a600060028110614f8457614f83617b3c565b5b602002015160001b8560405160008152602001604052604051614faa9493929190616e41565b6020604051602081039080840390855afa158015614fcc573d6000803e3d6000fd5b5050506020604051035190508573ffffffffffffffffffffffffffffffffffffffff168173ffffffffffffffffffffffffffffffffffffffff1614945050505050949350505050565b61501d615d30565b61504a6001848460405160200161503693929190616c6e565b6040516020818303038152906040526152e6565b90505b61505681614c76565b6150a15761509a8160006002811061507157615070617b3c565b5b60200201516040516020016150869190616be3565b6040516020818303038152906040526152e6565b905061504d565b92915050565b6150af615d30565b60007ffffffffffffffffffffffffffffffffffffffffffffffffffffffffefffffc2f846000600281106150e6576150e5617b3c565b5b6020020151886000600281106150ff576150fe617b3c565b5b6020020151038161511357615112617ade565b5b061415615155576040517f08c379a000000000000000000000000000000000000000000000000000000000815260040161514c90616f54565b60405180910390fd5b6151608789886153ea565b61519f576040517f08c379a0000000000000000000000000000000000000000000000000000000008152600401615196906170d4565b60405180910390fd5b6151aa8486856153ea565b6151e9576040517f08c379a00000000000000000000000000000000000000000000000000000000081526004016151e090616f34565b60405180910390fd5b6151f4868484615582565b9050979650505050505050565b60006002868686858760405160200161521f96959493929190616bfe565b6040516020818303038152906040528051906020012060001c905095945050505050565b6000807ffffffffffffffffffffffffffffffffffffffffffffffffffffffffefffffc2f8061527557615274617ade565b5b7ffffffffffffffffffffffffffffffffffffffffffffffffffffffffefffffc2f806152a4576152a3617ade565b5b848509840990507ffffffffffffffffffffffffffffffffffffffffffffffffffffffffefffffc2f806152da576152d9617ade565b5b60078208915050919050565b6152ee615d30565b6152f7826156fe565b8160006002811061530b5761530a617b3c565b5b60200201818152505061533d6153388260006002811061532e5761532d617b3c565b5b6020020151615243565b61576b565b8160016002811061535157615350617b3c565b5b602002018181525050600160028260016002811061537257615371617b3c565b5b60200201518161538557615384617ade565b5b0614156153e557806001600281106153a05761539f617b3c565b5b60200201517ffffffffffffffffffffffffffffffffffffffffffffffffffffffffefffffc2f03816001600281106153db576153da617b3c565b5b6020020181815250505b919050565b60008083141561542f576040517f08c379a0000000000000000000000000000000000000000000000000000000008152600401615426906170f4565b60405180910390fd5b60008460006002811061544557615444617b3c565b5b6020020151905060008060028760016002811061546557615464617b3c565b5b60200201516154749190617a7e565b1461548057601c615483565b601b5b905060007ffffffffffffffffffffffffffffffffebaaedce6af48a03bbfd25e8cd0364141806154b6576154b5617ade565b5b83870960001b9050600060016000801b848660001b85604051600081526020016040526040516154e99493929190616e41565b6020604051602081039080840390855afa15801561550b573d6000803e3d6000fd5b50505060206040510351905060008660405160200161552a9190616bc8565b6040516020818303038152906040528051906020012060001c90508073ffffffffffffffffffffffffffffffffffffffff168273ffffffffffffffffffffffffffffffffffffffff1614955050505050509392505050565b61558a615d30565b60008060006155fb876000600281106155a6576155a5617b3c565b5b6020020151886001600281106155bf576155be617b3c565b5b6020020151886000600281106155d8576155d7617b3c565b5b6020020151896001600281106155f1576155f0617b3c565b5b60200201516157ae565b80935081945082955050505060017ffffffffffffffffffffffffffffffffffffffffffffffffffffffffefffffc2f8061563857615637617ade565b5b8683091461567b576040517f08c379a000000000000000000000000000000000000000000000000000000000815260040161567290617014565b60405180910390fd5b60405180604001604052807ffffffffffffffffffffffffffffffffffffffffffffffffffffffffefffffc2f806156b5576156b4617ade565b5b87860981526020017ffffffffffffffffffffffffffffffffffffffffffffffffffffffffefffffc2f806156ec576156eb617ade565b5b87850981525093505050509392505050565b6000818051906020012060001c90505b7ffffffffffffffffffffffffffffffffffffffffffffffffffffffffefffffc2f811061576657806040516020016157469190616be3565b6040516020818303038152906040528051906020012060001c905061570e565b919050565b60006157a782600260017ffffffffffffffffffffffffffffffffffffffffffffffffffffffffefffffc2f6157a09190617634565b901c6159a5565b9050919050565b60008060008060006001809150915060007ffffffffffffffffffffffffffffffffffffffffffffffffffffffffefffffc2f806157ee576157ed617ade565b5b897ffffffffffffffffffffffffffffffffffffffffffffffffffffffffefffffc2f038808905060007ffffffffffffffffffffffffffffffffffffffffffffffffffffffffefffffc2f8061584657615845617ade565b5b8b7ffffffffffffffffffffffffffffffffffffffffffffffffffffffffefffffc2f038a089050600061587b83838585615b05565b809250819950505061588f88828e88615b7d565b80925081995050506158a388828c87615b7d565b809250819950505060006158b98d878b85615b7d565b80925081995050506158cd88828686615b05565b80925081995050506158e188828e89615b7d565b8092508199505050808214615991577ffffffffffffffffffffffffffffffffffffffffffffffffffffffffefffffc2f8061591f5761591e617ade565b5b818a0998507ffffffffffffffffffffffffffffffffffffffffffffffffffffffffefffffc2f8061595357615952617ade565b5b82890997507ffffffffffffffffffffffffffffffffffffffffffffffffffffffffefffffc2f8061598757615986617ade565b5b8183099650615995565b8196505b5050505050509450945094915050565b6000806159b0615d52565b6020816000600681106159c6576159c5617b3c565b5b6020020181815250506020816001600681106159e5576159e4617b3c565b5b602002018181525050602081600260068110615a0457615a03617b3c565b5b6020020181815250508481600360068110615a2257615a21617b3c565b5b6020020181815250508381600460068110615a4057615a3f617b3c565b5b6020020181815250507ffffffffffffffffffffffffffffffffffffffffffffffffffffffffefffffc2f81600560068110615a7e57615a7d617b3c565b5b602002018181525050615a8f615d74565b60208160c0846005600019fa92506000831415615ae1576040517f08c379a0000000000000000000000000000000000000000000000000000000008152600401615ad890616f94565b60405180910390fd5b80600060018110615af557615af4617b3c565b5b6020020151935050505092915050565b6000807ffffffffffffffffffffffffffffffffffffffffffffffffffffffffefffffc2f80615b3757615b36617ade565b5b8487097ffffffffffffffffffffffffffffffffffffffffffffffffffffffffefffffc2f80615b6957615b68617ade565b5b848709809250819350505094509492505050565b60008060007ffffffffffffffffffffffffffffffffffffffffffffffffffffffffefffffc2f80615bb157615bb0617ade565b5b878509905060007ffffffffffffffffffffffffffffffffffffffffffffffffffffffffefffffc2f80615be757615be6617ade565b5b87877ffffffffffffffffffffffffffffffffffffffffffffffffffffffffefffffc2f030990507ffffffffffffffffffffffffffffffffffffffffffffffffffffffffefffffc2f80615c3d57615c3c617ade565b5b8183087ffffffffffffffffffffffffffffffffffffffffffffffffffffffffefffffc2f80615c6f57615c6e617ade565b5b8689098094508195505050505094509492505050565b828054828255906000526020600020908101928215615cfe579160200282015b82811115615cfd5782518260006101000a81548173ffffffffffffffffffffffffffffffffffffffff021916908373ffffffffffffffffffffffffffffffffffffffff16021790555091602001919060010190615ca5565b5b509050615d0b9190615d96565b5090565b5080546000825590600052602060002090810190615d2d9190615d96565b50565b6040518060400160405280600290602082028036833780820191505090505090565b6040518060c00160405280600690602082028036833780820191505090505090565b6040518060200160405280600190602082028036833780820191505090505090565b5b80821115615daf576000816000905550600101615d97565b5090565b6000615dc6615dc184617548565b617523565b90508082856020860282011115615de057615ddf617ba9565b5b60005b85811015615e105781615df688826160be565b845260208401935060208301925050600181019050615de3565b5050509392505050565b600081359050615e2981617eb8565b92915050565b600081905082602060020282011115615e4b57615e4a617ba9565b5b92915050565b600082601f830112615e6657615e65617b9f565b5b6002615e73848285615db3565b91505092915050565b600081519050615e8b81617ecf565b92915050565b600081359050615ea081617ee6565b92915050565b600081519050615eb581617ee6565b92915050565b60008083601f840112615ed157615ed0617b9f565b5b8235905067ffffffffffffffff811115615eee57615eed617b9a565b5b602083019150836001820283011115615f0a57615f09617ba9565b5b9250929050565b600081359050615f2081617efd565b92915050565b600081519050615f3581617efd565b92915050565b60006101a08284031215615f5257615f51617ba4565b5b615f5d610120617523565b90506000615f6d84828501615e51565b6000830152506040615f8184828501615e51565b6020830152506080615f95848285016160be565b60408301525060a0615fa9848285016160be565b60608301525060c0615fbd848285016160be565b60808301525060e0615fd184828501615e1a565b60a083015250610100615fe684828501615e51565b60c083015250610140615ffb84828501615e51565b60e083015250610180616010848285016160be565b6101008301525092915050565b600060a0828403121561603357616032617ba4565b5b61603d60a0617523565b9050600061604d848285016160fd565b6000830152506020616061848285016160fd565b6020830152506040616075848285016160e8565b6040830152506060616089848285016160e8565b606083015250608061609d84828501615e1a565b60808301525092915050565b6000813590506160b881617f14565b92915050565b6000813590506160cd81617f2b565b92915050565b6000815190506160e281617f2b565b92915050565b6000813590506160f781617f42565b92915050565b60008135905061610c81617f59565b92915050565b60008151905061612181617f70565b92915050565b60008135905061613681617f87565b92915050565b60006020828403121561615257616151617bb3565b5b600061616084828501615e1a565b91505092915050565b600080606083850312156161805761617f617bb3565b5b600061618e85828601615e1a565b925050602061619f85828601615e2f565b9150509250929050565b600080600080606085870312156161c3576161c2617bb3565b5b60006161d187828801615e1a565b94505060206161e2878288016160be565b935050604085013567ffffffffffffffff81111561620357616202617bae565b5b61620f87828801615ebb565b925092505092959194509250565b6000806040838503121561623457616233617bb3565b5b600061624285828601615e1a565b925050602061625385828601616127565b9150509250929050565b60006040828403121561627357616272617bb3565b5b600061628184828501615e2f565b91505092915050565b6000604082840312156162a05761629f617bb3565b5b60006162ae84828501615e51565b91505092915050565b6000602082840312156162cd576162cc617bb3565b5b60006162db84828501615e7c565b91505092915050565b6000602082840312156162fa576162f9617bb3565b5b600061630884828501615ea6565b91505092915050565b600080600080600060a0868803121561632d5761632c617bb3565b5b600061633b88828901615e91565b955050602061634c888289016160fd565b945050604061635d888289016160a9565b935050606061636e888289016160e8565b925050608061637f888289016160e8565b9150509295509295909350565b60008061024083850312156163a4576163a3617bb3565b5b60006163b285828601615f3b565b9250506101a06163c48582860161601d565b9150509250929050565b600080600080600080600060e0888a0312156163ed576163ec617bb3565b5b60006163fb8a828b016160a9565b975050602061640c8a828b016160e8565b965050604061641d8a828b016160e8565b955050606061642e8a828b016160e8565b945050608061643f8a828b016160e8565b93505060a06164508a828b01616127565b92505060c06164618a828b01615f11565b91505092959891949750929550565b60006020828403121561648657616485617bb3565b5b6000616494848285016160be565b91505092915050565b6000602082840312156164b3576164b2617bb3565b5b60006164c1848285016160d3565b91505092915050565b6000602082840312156164e0576164df617bb3565b5b60006164ee848285016160fd565b91505092915050565b6000806040838503121561650e5761650d617bb3565b5b600061651c858286016160fd565b925050602061652d85828601615e1a565b9150509250929050565b6000806000606084860312156165505761654f617bb3565b5b600061655e868287016160fd565b935050602061656f86828701615e1a565b925050604061658086828701616127565b9150509250925092565b600080600080600060a086880312156165a6576165a5617bb3565b5b60006165b488828901616112565b95505060206165c588828901615f26565b94505060406165d6888289016160d3565b93505060606165e7888289016160d3565b92505060806165f888828901616112565b9150509295509295909350565b6000616611838361664d565b60208301905092915050565b60006166298383616b1b565b60208301905092915050565b60006166418383616b39565b60208301905092915050565b616656816177fd565b82525050565b616665816177fd565b82525050565b61667c616677826177fd565b617a46565b82525050565b600061668d82617598565b61669781856175eb565b93506166a28361756e565b8060005b838110156166d35781516166ba8882616605565b97506166c5836175c4565b9250506001810190506166a6565b5085935050505092915050565b6166e9816175a3565b6166f381846175fc565b92506166fe8261757e565b8060005b8381101561672f578151616716878261661d565b9650616721836175d1565b925050600181019050616702565b505050505050565b616740816175a3565b61674a8184617607565b92506167558261757e565b8060005b8381101561678657815161676d8782616635565b9650616778836175d1565b925050600181019050616759565b505050505050565b6000616799826175ae565b6167a38185617612565b93506167ae83617588565b8060005b838110156167df5781516167c6888261661d565b97506167d1836175de565b9250506001810190506167b2565b5085935050505092915050565b6167f58161780f565b82525050565b6168048161781b565b82525050565b61681b6168168261781b565b617a58565b82525050565b61682a816178c6565b82525050565b616839816178ea565b82525050565b6168488161790e565b82525050565b61685781617825565b82525050565b6000616868826175b9565b6168728185617623565b9350616882818560208601617968565b61688b81617bb8565b840191505092915050565b60006168a3601683617623565b91506168ae82617bd6565b602082019050919050565b60006168c6601783617623565b91506168d182617bff565b602082019050919050565b60006168e9601e83617623565b91506168f482617c28565b602082019050919050565b600061690c601683617623565b915061691782617c51565b602082019050919050565b600061692f601283617623565b915061693a82617c7a565b602082019050919050565b6000616952601283617623565b915061695d82617ca3565b602082019050919050565b6000616975600b83617623565b915061698082617ccc565b602082019050919050565b6000616998601983617623565b91506169a382617cf5565b602082019050919050565b60006169bb601983617623565b91506169c682617d1e565b602082019050919050565b60006169de601d83617623565b91506169e982617d47565b602082019050919050565b6000616a01601a83617623565b9150616a0c82617d70565b602082019050919050565b6000616a24601583617623565b9150616a2f82617d99565b602082019050919050565b6000616a47600d83617623565b9150616a5282617dc2565b602082019050919050565b6000616a6a601783617623565b9150616a7582617deb565b602082019050919050565b6000616a8d601683617623565b9150616a9882617e14565b602082019050919050565b6000616ab0600b83617623565b9150616abb82617e3d565b602082019050919050565b6000616ad3601283617623565b9150616ade82617e66565b602082019050919050565b6000616af6601c83617623565b9150616b0182617e8f565b602082019050919050565b616b158161782f565b82525050565b616b248161785d565b82525050565b616b338161785d565b82525050565b616b428161785d565b82525050565b616b59616b548261785d565b617a74565b82525050565b616b6881617932565b82525050565b616b7781617867565b82525050565b616b8681617944565b82525050565b616b9581617877565b82525050565b616ba48161788b565b82525050565b616bb381617956565b82525050565b616bc2816178ae565b82525050565b6000616bd48284616737565b60408201915081905092915050565b6000616bef8284616b48565b60208201915081905092915050565b6000616c0a8289616b48565b602082019150616c1a8288616737565b604082019150616c2a8287616737565b604082019150616c3a8286616737565b604082019150616c4a8285616737565b604082019150616c5a828461666b565b601482019150819050979650505050505050565b6000616c7a8286616b48565b602082019150616c8a8285616737565b604082019150616c9a8284616b48565b602082019150819050949350505050565b6000616cb78285616b48565b602082019150616cc7828461680a565b6020820191508190509392505050565b6000602082019050616cec600083018461665c565b92915050565b6000604082019050616d07600083018561665c565b616d14602083018461665c565b9392505050565b6000604082019050616d30600083018561665c565b616d3d6020830184616b2a565b9392505050565b6000604082019050616d59600083018561665c565b616d666020830184616baa565b9392505050565b6000604082019050616d8260008301846166e0565b92915050565b60006040820190508181036000830152616da2818561678e565b9050616db160208301846167ec565b9392505050565b6000602082019050616dcd60008301846167fb565b92915050565b6000608082019050616de860008301876167fb565b616df5602083018661665c565b616e026040830185616b8c565b616e0f6060830184616b8c565b95945050505050565b6000604082019050616e2d60008301856167fb565b616e3a6020830184616b2a565b9392505050565b6000608082019050616e5660008301876167fb565b616e636020830186616b9b565b616e7060408301856167fb565b616e7d60608301846167fb565b95945050505050565b6000602082019050616e9b6000830184616821565b92915050565b6000602082019050616eb66000830184616830565b92915050565b6000602082019050616ed1600083018461683f565b92915050565b6000602082019050616eec600083018461684e565b92915050565b60006020820190508181036000830152616f0c818461685d565b905092915050565b60006020820190508181036000830152616f2d81616896565b9050919050565b60006020820190508181036000830152616f4d816168b9565b9050919050565b60006020820190508181036000830152616f6d816168dc565b9050919050565b60006020820190508181036000830152616f8d816168ff565b9050919050565b60006020820190508181036000830152616fad81616922565b9050919050565b60006020820190508181036000830152616fcd81616945565b9050919050565b60006020820190508181036000830152616fed81616968565b9050919050565b6000602082019050818103600083015261700d8161698b565b9050919050565b6000602082019050818103600083015261702d816169ae565b9050919050565b6000602082019050818103600083015261704d816169d1565b9050919050565b6000602082019050818103600083015261706d816169f4565b9050919050565b6000602082019050818103600083015261708d81616a17565b9050919050565b600060208201905081810360008301526170ad81616a3a565b9050919050565b600060208201905081810360008301526170cd81616a5d565b9050919050565b600060208201905081810360008301526170ed81616a80565b9050919050565b6000602082019050818103600083015261710d81616aa3565b9050919050565b6000602082019050818103600083015261712d81616ac6565b9050919050565b6000602082019050818103600083015261714d81616ae9565b9050919050565b60006020820190506171696000830184616b0c565b92915050565b60006060820190506171846000830186616b0c565b6171916020830185616b0c565b61719e6040830184616b0c565b949350505050565b600060e0820190506171bb600083018a616b0c565b6171c86020830189616b6e565b6171d56040830188616b6e565b6171e26060830187616b6e565b6171ef6080830186616b6e565b6171fc60a0830185616bb9565b61720960c083018461684e565b98975050505050505050565b600060208201905061722a6000830184616b2a565b92915050565b60006060820190506172456000830185616b2a565b61725260208301846166e0565b9392505050565b600060408201905061726e6000830185616b2a565b8181036020830152617280818461678e565b90509392505050565b600060408201905061729e6000830185616b2a565b6172ab6020830184616b2a565b9392505050565b600060c0820190506172c76000830189616b2a565b6172d46020830188616b2a565b6172e16040830187616b8c565b6172ee6060830186616b0c565b6172fb6080830185616b6e565b61730860a0830184616b6e565b979650505050505050565b600060c0820190506173286000830189616b2a565b6173356020830188616b2a565b6173426040830187616b8c565b61734f6060830186616b6e565b61735c6080830185616b6e565b61736960a083018461665c565b979650505050505050565b60006040820190506173896000830185616b2a565b6173966020830184616b5f565b9392505050565b600060c0820190506173b26000830189616b2a565b6173bf6020830188616b8c565b6173cc6040830187616b8c565b6173d96060830186616b6e565b6173e66080830185616b6e565b6173f360a083018461665c565b979650505050505050565b60006040820190506174136000830185616b2a565b6174206020830184616baa565b9392505050565b600060208201905061743c6000830184616b6e565b92915050565b60006040820190506174576000830185616b6e565b6174646020830184616b6e565b9392505050565b60006020820190506174806000830184616b7d565b92915050565b600060208201905061749b6000830184616b8c565b92915050565b60006040820190506174b66000830185616b8c565b6174c3602083018461665c565b9392505050565b60006020820190506174df6000830184616bb9565b92915050565b60006060820190506174fa6000830186616bb9565b617507602083018561665c565b81810360408301526175198184616682565b9050949350505050565b600061752d61753e565b9050617539828261799b565b919050565b6000604051905090565b600067ffffffffffffffff82111561756357617562617b6b565b5b602082029050919050565b6000819050602082019050919050565b6000819050919050565b6000819050602082019050919050565b600081519050919050565b600060029050919050565b600081519050919050565b600081519050919050565b6000602082019050919050565b6000602082019050919050565b6000602082019050919050565b600082825260208201905092915050565b600081905092915050565b600081905092915050565b600082825260208201905092915050565b600082825260208201905092915050565b600061763f8261785d565b915061764a8361785d565b9250827fffffffffffffffffffffffffffffffffffffffffffffffffffffffffffffffff0382111561767f5761767e617aaf565b5b828201905092915050565b600061769582617877565b91506176a083617877565b92508267ffffffffffffffff038211156176bd576176bc617aaf565b5b828201905092915050565b60006176d3826178ae565b91506176de836178ae565b9250826bffffffffffffffffffffffff038211156176ff576176fe617aaf565b5b828201905092915050565b60006177158261785d565b91506177208361785d565b9250826177305761772f617ade565b5b828204905092915050565b60006177468261785d565b91506177518361785d565b9250817fffffffffffffffffffffffffffffffffffffffffffffffffffffffffffffffff048311821515161561778a57617789617aaf565b5b828202905092915050565b60006177a08261785d565b91506177ab8361785d565b9250828210156177be576177bd617aaf565b5b828203905092915050565b60006177d4826178ae565b91506177df836178ae565b9250828210156177f2576177f1617aaf565b5b828203905092915050565b60006178088261783d565b9050919050565b60008115159050919050565b6000819050919050565b6000819050919050565b600061ffff82169050919050565b600073ffffffffffffffffffffffffffffffffffffffff82169050919050565b6000819050919050565b600063ffffffff82169050919050565b600067ffffffffffffffff82169050919050565b600060ff82169050919050565b600069ffffffffffffffffffff82169050919050565b60006bffffffffffffffffffffffff82169050919050565b60006178d1826178d8565b9050919050565b60006178e38261783d565b9050919050565b60006178f5826178fc565b9050919050565b60006179078261783d565b9050919050565b600061791982617920565b9050919050565b600061792b8261783d565b9050919050565b600061793d82617867565b9050919050565b600061794f82617877565b9050919050565b6000617961826178ae565b9050919050565b60005b8381101561798657808201518184015260208101905061796b565b83811115617995576000848401525b50505050565b6179a482617bb8565b810181811067ffffffffffffffff821117156179c3576179c2617b6b565b5b80604052505050565b60006179d78261785d565b91507fffffffffffffffffffffffffffffffffffffffffffffffffffffffffffffffff821415617a0a57617a09617aaf565b5b600182019050919050565b6000617a2082617877565b915067ffffffffffffffff821415617a3b57617a3a617aaf565b5b600182019050919050565b6000617a5182617a62565b9050919050565b6000819050919050565b6000617a6d82617bc9565b9050919050565b6000819050919050565b6000617a898261785d565b9150617a948361785d565b925082617aa457617aa3617ade565b5b828206905092915050565b7f4e487b7100000000000000000000000000000000000000000000000000000000600052601160045260246000fd5b7f4e487b7100000000000000000000000000000000000000000000000000000000600052601260045260246000fd5b7f4e487b7100000000000000000000000000000000000000000000000000000000600052603160045260246000fd5b7f4e487b7100000000000000000000000000000000000000000000000000000000600052603260045260246000fd5b7f4e487b7100000000000000000000000000000000000000000000000000000000600052604160045260246000fd5b600080fd5b600080fd5b600080fd5b600080fd5b600080fd5b600080fd5b6000601f19601f8301169050919050565b60008160601b9050919050565b7f4d7573742062652070726f706f736564206f776e657200000000000000000000600082015250565b7f5365636f6e64206d756c20636865636b206661696c6564000000000000000000600082015250565b7f706f696e747320696e2073756d206d7573742062652064697374696e63740000600082015250565b7f4f6e6c792063616c6c61626c65206279206f776e657200000000000000000000600082015250565b7f6269674d6f64457870206661696c757265210000000000000000000000000000600082015250565b7f696e76616c696420782d6f7264696e6174650000000000000000000000000000600082015250565b7f626164207769746e657373000000000000000000000000000000000000000000600082015250565b7f6164647228632a706b2b732a6729213d5f755769746e65737300000000000000600082015250565b7f696e765a206d75737420626520696e7665727365206f66207a00000000000000600082015250565b7f6347616d6d615769746e657373206973206e6f74206f6e206375727665000000600082015250565b7f7075626c6963206b6579206973206e6f74206f6e206375727665000000000000600082015250565b7f67616d6d61206973206e6f74206f6e2063757276650000000000000000000000600082015250565b7f696e76616c69642070726f6f6600000000000000000000000000000000000000600082015250565b7f43616e6e6f74207472616e7366657220746f2073656c66000000000000000000600082015250565b7f4669727374206d756c20636865636b206661696c656400000000000000000000600082015250565b7f7a65726f207363616c6172000000000000000000000000000000000000000000600082015250565b7f696e76616c696420792d6f7264696e6174650000000000000000000000000000600082015250565b7f73486173685769746e657373206973206e6f74206f6e20637572766500000000600082015250565b617ec1816177fd565b8114617ecc57600080fd5b50565b617ed88161780f565b8114617ee357600080fd5b50565b617eef8161781b565b8114617efa57600080fd5b50565b617f0681617825565b8114617f1157600080fd5b50565b617f1d8161782f565b8114617f2857600080fd5b50565b617f348161785d565b8114617f3f57600080fd5b50565b617f4b81617867565b8114617f5657600080fd5b50565b617f6281617877565b8114617f6d57600080fd5b50565b617f7981617898565b8114617f8457600080fd5b50565b617f90816178ae565b8114617f9b57600080fd5b5056fea2646970667358221220e4a976d6d1e5569f2ece3b34636dfd6d053005030c1e6766a53b8ca5e836d81c64736f6c63430008060033",
  "linkReferences": {},
  "deployedLinkReferences": {}
}