{
  "_format": "hh-sol-artifact-1",
  "contractName": "Flags",
  "sourceName": "contracts/chainlink/v0.8/dev/Flags.sol",
  "abi": [
    {
      "inputs": [
        {
          "internalType": "address",
          "name": "racAddress",
          "type": "address"
        },
        {
          "internalType": "address",
          "name": "lacAddress",
          "type": "address"
        }
      ],
      "stateMutability": "nonpayable",
      "type": "constructor"
    },
    {
      "anonymous": false,
      "inputs": [
        {
          "indexed": false,
          "internalType": "address",
          "name": "user",
          "type": "address"
        }
      ],
      "name": "AddedAccess",
      "type": "event"
    },
    {
      "anonymous": false,
      "inputs": [],
      "name": "CheckAccessDisabled",
      "type": "event"
    },
    {
      "anonymous": false,
      "inputs": [],
      "name": "CheckAccessEnabled",
      "type": "event"
    },
    {
      "anonymous": false,
      "inputs": [
        {
          "indexed": true,
          "internalType": "address",
          "name": "subject",
          "type": "address"
        }
      ],
      "name": "FlagLowered",
      "type": "event"
    },
    {
      "anonymous": false,
      "inputs": [
        {
          "indexed": true,
          "internalType": "address",
          "name": "subject",
          "type": "address"
        }
      ],
      "name": "FlagRaised",
      "type": "event"
    },
    {
      "anonymous": false,
      "inputs": [
        {
          "indexed": true,
          "internalType": "address",
          "name": "previous",
          "type": "address"
        },
        {
          "indexed": true,
          "internalType": "address",
          "name": "current",
          "type": "address"
        }
      ],
      "name": "LoweringAccessControllerUpdated",
      "type": "event"
    },
    {
      "anonymous": false,
      "inputs": [
        {
          "indexed": true,
          "internalType": "address",
          "name": "from",
          "type": "address"
        },
        {
          "indexed": true,
          "internalType": "address",
          "name": "to",
          "type": "address"
        }
      ],
      "name": "OwnershipTransferRequested",
      "type": "event"
    },
    {
      "anonymous": false,
      "inputs": [
        {
          "indexed": true,
          "internalType": "address",
          "name": "from",
          "type": "address"
        },
        {
          "indexed": true,
          "internalType": "address",
          "name": "to",
          "type": "address"
        }
      ],
      "name": "OwnershipTransferred",
      "type": "event"
    },
    {
      "anonymous": false,
      "inputs": [
        {
          "indexed": true,
          "internalType": "address",
          "name": "previous",
          "type": "address"
        },
        {
          "indexed": true,
          "internalType": "address",
          "name": "current",
          "type": "address"
        }
      ],
      "name": "RaisingAccessControllerUpdated",
      "type": "event"
    },
    {
      "anonymous": false,
      "inputs": [
        {
          "indexed": false,
          "internalType": "address",
          "name": "user",
          "type": "address"
        }
      ],
      "name": "RemovedAccess",
      "type": "event"
    },
    {
      "inputs": [],
      "name": "acceptOwnership",
      "outputs": [],
      "stateMutability": "nonpayable",
      "type": "function"
    },
    {
      "inputs": [
        {
          "internalType": "address",
          "name": "_user",
          "type": "address"
        }
      ],
      "name": "addAccess",
      "outputs": [],
      "stateMutability": "nonpayable",
      "type": "function"
    },
    {
      "inputs": [],
      "name": "checkEnabled",
      "outputs": [
        {
          "internalType": "bool",
          "name": "",
          "type": "bool"
        }
      ],
      "stateMutability": "view",
      "type": "function"
    },
    {
      "inputs": [],
      "name": "disableAccessCheck",
      "outputs": [],
      "stateMutability": "nonpayable",
      "type": "function"
    },
    {
      "inputs": [],
      "name": "enableAccessCheck",
      "outputs": [],
      "stateMutability": "nonpayable",
      "type": "function"
    },
    {
      "inputs": [
        {
          "internalType": "address",
          "name": "subject",
          "type": "address"
        }
      ],
      "name": "getFlag",
      "outputs": [
        {
          "internalType": "bool",
          "name": "",
          "type": "bool"
        }
      ],
      "stateMutability": "view",
      "type": "function"
    },
    {
      "inputs": [
        {
          "internalType": "address[]",
          "name": "subjects",
          "type": "address[]"
        }
      ],
      "name": "getFlags",
      "outputs": [
        {
          "internalType": "bool[]",
          "name": "",
          "type": "bool[]"
        }
      ],
      "stateMutability": "view",
      "type": "function"
    },
    {
      "inputs": [
        {
          "internalType": "address",
          "name": "_user",
          "type": "address"
        },
        {
          "internalType": "bytes",
          "name": "_calldata",
          "type": "bytes"
        }
      ],
      "name": "hasAccess",
      "outputs": [
        {
          "internalType": "bool",
          "name": "",
          "type": "bool"
        }
      ],
      "stateMutability": "view",
      "type": "function"
    },
    {
      "inputs": [
        {
          "internalType": "address",
          "name": "subject",
          "type": "address"
        }
      ],
      "name": "lowerFlag",
      "outputs": [],
      "stateMutability": "nonpayable",
      "type": "function"
    },
    {
      "inputs": [
        {
          "internalType": "address[]",
          "name": "subjects",
          "type": "address[]"
        }
      ],
      "name": "lowerFlags",
      "outputs": [],
      "stateMutability": "nonpayable",
      "type": "function"
    },
    {
      "inputs": [],
      "name": "loweringAccessController",
      "outputs": [
        {
          "internalType": "contract AccessControllerInterface",
          "name": "",
          "type": "address"
        }
      ],
      "stateMutability": "view",
      "type": "function"
    },
    {
      "inputs": [],
      "name": "owner",
      "outputs": [
        {
          "internalType": "address",
          "name": "",
          "type": "address"
        }
      ],
      "stateMutability": "view",
      "type": "function"
    },
    {
      "inputs": [
        {
          "internalType": "address",
          "name": "subject",
          "type": "address"
        }
      ],
      "name": "raiseFlag",
      "outputs": [],
      "stateMutability": "nonpayable",
      "type": "function"
    },
    {
      "inputs": [
        {
          "internalType": "address[]",
          "name": "subjects",
          "type": "address[]"
        }
      ],
      "name": "raiseFlags",
      "outputs": [],
      "stateMutability": "nonpayable",
      "type": "function"
    },
    {
      "inputs": [],
      "name": "raisingAccessController",
      "outputs": [
        {
          "internalType": "contract AccessControllerInterface",
          "name": "",
          "type": "address"
        }
      ],
      "stateMutability": "view",
      "type": "function"
    },
    {
      "inputs": [
        {
          "internalType": "address",
          "name": "_user",
          "type": "address"
        }
      ],
      "name": "removeAccess",
      "outputs": [],
      "stateMutability": "nonpayable",
      "type": "function"
    },
    {
      "inputs": [
        {
          "internalType": "address",
          "name": "lacAddress",
          "type": "address"
        }
      ],
      "name": "setLoweringAccessController",
      "outputs": [],
      "stateMutability": "nonpayable",
      "type": "function"
    },
    {
      "inputs": [
        {
          "internalType": "address",
          "name": "racAddress",
          "type": "address"
        }
      ],
      "name": "setRaisingAccessController",
      "outputs": [],
      "stateMutability": "nonpayable",
      "type": "function"
    },
    {
      "inputs": [
        {
          "internalType": "address",
          "name": "to",
          "type": "address"
        }
      ],
      "name": "transferOwnership",
      "outputs": [],
      "stateMutability": "nonpayable",
      "type": "function"
    },
    {
      "inputs": [],
      "name": "typeAndVersion",
      "outputs": [
        {
          "internalType": "string",
          "name": "",
          "type": "string"
        }
      ],
      "stateMutability": "pure",
      "type": "function"
    }
  ],
  "bytecode": "0x60806040523480156200001157600080fd5b50604051620026103803806200261083398181016040528101906200003791906200056b565b338060008073ffffffffffffffffffffffffffffffffffffffff168273ffffffffffffffffffffffffffffffffffffffff161415620000ad576040517f08c379a0000000000000000000000000000000000000000000000000000000008152600401620000a49062000649565b60405180910390fd5b816000806101000a81548173ffffffffffffffffffffffffffffffffffffffff021916908373ffffffffffffffffffffffffffffffffffffffff160217905550600073ffffffffffffffffffffffffffffffffffffffff168173ffffffffffffffffffffffffffffffffffffffff1614620001345762000133816200017b60201b60201c565b5b50505060018060146101000a81548160ff0219169083151502179055506200016282620002ab60201b60201c565b6200017381620003b660201b60201c565b50506200076c565b3373ffffffffffffffffffffffffffffffffffffffff168173ffffffffffffffffffffffffffffffffffffffff161415620001ed576040517f08c379a0000000000000000000000000000000000000000000000000000000008152600401620001e4906200066b565b60405180910390fd5b80600160006101000a81548173ffffffffffffffffffffffffffffffffffffffff021916908373ffffffffffffffffffffffffffffffffffffffff1602179055508073ffffffffffffffffffffffffffffffffffffffff1660008054906101000a900473ffffffffffffffffffffffffffffffffffffffff1673ffffffffffffffffffffffffffffffffffffffff167fed8889f560326eb138920d842192f0eb3dd22b4f139c87a2c57538e05bae127860405160405180910390a350565b620002bb620004c160201b60201c565b6000600360009054906101000a900473ffffffffffffffffffffffffffffffffffffffff1690508173ffffffffffffffffffffffffffffffffffffffff168173ffffffffffffffffffffffffffffffffffffffff1614620003b25781600360006101000a81548173ffffffffffffffffffffffffffffffffffffffff021916908373ffffffffffffffffffffffffffffffffffffffff1602179055508173ffffffffffffffffffffffffffffffffffffffff168173ffffffffffffffffffffffffffffffffffffffff167fbaf9ea078655a4fffefd08f9435677bbc91e457a6d015fe7de1d0e68b8802cac60405160405180910390a35b5050565b620003c6620004c160201b60201c565b6000600460009054906101000a900473ffffffffffffffffffffffffffffffffffffffff1690508173ffffffffffffffffffffffffffffffffffffffff168173ffffffffffffffffffffffffffffffffffffffff1614620004bd5781600460006101000a81548173ffffffffffffffffffffffffffffffffffffffff021916908373ffffffffffffffffffffffffffffffffffffffff1602179055508173ffffffffffffffffffffffffffffffffffffffff168173ffffffffffffffffffffffffffffffffffffffff167f1c53b7601a990492bede34fbf4b374d7299e723e9568332d09154d0db2f893ff60405160405180910390a35b5050565b60008054906101000a900473ffffffffffffffffffffffffffffffffffffffff1673ffffffffffffffffffffffffffffffffffffffff163373ffffffffffffffffffffffffffffffffffffffff161462000552576040517f08c379a0000000000000000000000000000000000000000000000000000000008152600401620005499062000627565b60405180910390fd5b565b600081519050620005658162000752565b92915050565b60008060408385031215620005855762000584620006d2565b5b6000620005958582860162000554565b9250506020620005a88582860162000554565b9150509250929050565b6000620005c16016836200068d565b9150620005ce82620006d7565b602082019050919050565b6000620005e86018836200068d565b9150620005f58262000700565b602082019050919050565b60006200060f6017836200068d565b91506200061c8262000729565b602082019050919050565b600060208201905081810360008301526200064281620005b2565b9050919050565b600060208201905081810360008301526200066481620005d9565b9050919050565b60006020820190508181036000830152620006868162000600565b9050919050565b600082825260208201905092915050565b6000620006ab82620006b2565b9050919050565b600073ffffffffffffffffffffffffffffffffffffffff82169050919050565b600080fd5b7f4f6e6c792063616c6c61626c65206279206f776e657200000000000000000000600082015250565b7f43616e6e6f7420736574206f776e657220746f207a65726f0000000000000000600082015250565b7f43616e6e6f74207472616e7366657220746f2073656c66000000000000000000600082015250565b6200075d816200069e565b81146200076957600080fd5b50565b611e94806200077c6000396000f3fe608060405234801561001057600080fd5b506004361061012c5760003560e01c80638038e4a1116100ad578063b8b77f1111610071578063b8b77f11146102e1578063d74af263146102ff578063dc7f01241461031b578063e37a836614610339578063f2fde38b146103555761012c565b80638038e4a1146102655780638823da6c1461026f5780638da5cb5b1461028b57806395f0c058146102a9578063a118f249146102c55761012c565b8063517e89fe116100f4578063517e89fe146101c35780636b14daf8146101df578063760bc82d1461020f57806379ba50971461022b5780637d723cac146102355761012c565b80630a75698314610131578063181f5a771461013b57806328286596146101595780632e1d859c14610175578063357e47fe14610193575b600080fd5b610139610371565b005b6101436103d8565b60405161015091906119b8565b60405180910390f35b610173600480360381019061016e91906116af565b610415565b005b61017d6104b8565b60405161018a919061199d565b60405180910390f35b6101ad60048036038101906101a89190611626565b6104de565b6040516101ba9190611982565b60405180910390f35b6101dd60048036038101906101d89190611626565b6105c2565b005b6101f960048036038101906101f49190611653565b6106c4565b6040516102069190611982565b60405180910390f35b610229600480360381019061022491906116af565b61070e565b005b6102336107ab565b005b61024f600480360381019061024a91906116af565b610940565b60405161025c9190611960565b60405180910390f35b61026d610ae5565b005b61028960048036038101906102849190611626565b610b4a565b005b610293610c37565b6040516102a09190611913565b60405180910390f35b6102c360048036038101906102be9190611626565b610c60565b005b6102df60048036038101906102da9190611626565b610d62565b005b6102e9610e4e565b6040516102f6919061199d565b60405180910390f35b61031960048036038101906103149190611626565b610e74565b005b610323610ec7565b6040516103309190611982565b60405180910390f35b610353600480360381019061034e9190611626565b610eda565b005b61036f600480360381019061036a9190611626565b610f2d565b005b610379610f41565b600160149054906101000a900460ff16156103d6576000600160146101000a81548160ff0219169083151502179055507f3be8a977a014527b50ae38adda80b56911c267328965c98ddc385d248f53963860405160405180910390a15b565b60606040518060400160405280600b81526020017f466c61677320312e312e30000000000000000000000000000000000000000000815250905090565b61041d610fd1565b61045c576040517f08c379a0000000000000000000000000000000000000000000000000000000008152600401610453906119da565b60405180910390fd5b60005b828290508110156104b357600083838381811061047f5761047e611cad565b5b90506020020160208101906104949190611626565b905061049f816110c5565b5080806104ab90611c35565b91505061045f565b505050565b600360009054906101000a900473ffffffffffffffffffffffffffffffffffffffff1681565b600061052f336000368080601f016020809104026020016040519081016040528093929190818152602001838380828437600081840152601f19601f820116905080830192505050505050506106c4565b61056e576040517f08c379a000000000000000000000000000000000000000000000000000000000815260040161056590611a5a565b60405180910390fd5b600560008373ffffffffffffffffffffffffffffffffffffffff1673ffffffffffffffffffffffffffffffffffffffff16815260200190815260200160002060009054906101000a900460ff169050919050565b6105ca610f41565b6000600360009054906101000a900473ffffffffffffffffffffffffffffffffffffffff1690508173ffffffffffffffffffffffffffffffffffffffff168173ffffffffffffffffffffffffffffffffffffffff16146106c05781600360006101000a81548173ffffffffffffffffffffffffffffffffffffffff021916908373ffffffffffffffffffffffffffffffffffffffff1602179055508173ffffffffffffffffffffffffffffffffffffffff168173ffffffffffffffffffffffffffffffffffffffff167fbaf9ea078655a4fffefd08f9435677bbc91e457a6d015fe7de1d0e68b8802cac60405160405180910390a35b5050565b60006106d083836111b6565b8061070657503273ffffffffffffffffffffffffffffffffffffffff168373ffffffffffffffffffffffffffffffffffffffff16145b905092915050565b610716611225565b610755576040517f08c379a000000000000000000000000000000000000000000000000000000000815260040161074c90611a3a565b60405180910390fd5b60005b828290508110156107a65761079383838381811061077957610778611cad565b5b905060200201602081019061078e9190611626565b611319565b808061079e90611c35565b915050610758565b505050565b600160009054906101000a900473ffffffffffffffffffffffffffffffffffffffff1673ffffffffffffffffffffffffffffffffffffffff163373ffffffffffffffffffffffffffffffffffffffff161461083b576040517f08c379a0000000000000000000000000000000000000000000000000000000008152600401610832906119fa565b60405180910390fd5b60008060009054906101000a900473ffffffffffffffffffffffffffffffffffffffff169050336000806101000a81548173ffffffffffffffffffffffffffffffffffffffff021916908373ffffffffffffffffffffffffffffffffffffffff1602179055506000600160006101000a81548173ffffffffffffffffffffffffffffffffffffffff021916908373ffffffffffffffffffffffffffffffffffffffff1602179055503373ffffffffffffffffffffffffffffffffffffffff168173ffffffffffffffffffffffffffffffffffffffff167f8be0079c531659141344cd1fd0a4f28419497f9722a3daafe3b4186f6b6457e060405160405180910390a350565b6060610991336000368080601f016020809104026020016040519081016040528093929190818152602001838380828437600081840152601f19601f820116905080830192505050505050506106c4565b6109d0576040517f08c379a00000000000000000000000000000000000000000000000000000000081526004016109c790611a5a565b60405180910390fd5b60008383905067ffffffffffffffff8111156109ef576109ee611cdc565b5b604051908082528060200260200182016040528015610a1d5781602001602082028036833780820191505090505b50905060005b84849050811015610ada5760056000868684818110610a4557610a44611cad565b5b9050602002016020810190610a5a9190611626565b73ffffffffffffffffffffffffffffffffffffffff1673ffffffffffffffffffffffffffffffffffffffff16815260200190815260200160002060009054906101000a900460ff16828281518110610ab557610ab4611cad565b5b6020026020010190151590811515815250508080610ad290611c35565b915050610a23565b508091505092915050565b610aed610f41565b600160149054906101000a900460ff16610b485760018060146101000a81548160ff0219169083151502179055507faebf329500988c6488a0074e5a0a9ff304561fc5c6fc877aeb1d59c8282c348060405160405180910390a15b565b610b52610f41565b600260008273ffffffffffffffffffffffffffffffffffffffff1673ffffffffffffffffffffffffffffffffffffffff16815260200190815260200160002060009054906101000a900460ff1615610c34576000600260008373ffffffffffffffffffffffffffffffffffffffff1673ffffffffffffffffffffffffffffffffffffffff16815260200190815260200160002060006101000a81548160ff0219169083151502179055507f3d68a6fce901d20453d1a7aa06bf3950302a735948037deb182a8db66df2a0d181604051610c2b9190611913565b60405180910390a15b50565b60008060009054906101000a900473ffffffffffffffffffffffffffffffffffffffff16905090565b610c68610f41565b6000600460009054906101000a900473ffffffffffffffffffffffffffffffffffffffff1690508173ffffffffffffffffffffffffffffffffffffffff168173ffffffffffffffffffffffffffffffffffffffff1614610d5e5781600460006101000a81548173ffffffffffffffffffffffffffffffffffffffff021916908373ffffffffffffffffffffffffffffffffffffffff1602179055508173ffffffffffffffffffffffffffffffffffffffff168173ffffffffffffffffffffffffffffffffffffffff167f1c53b7601a990492bede34fbf4b374d7299e723e9568332d09154d0db2f893ff60405160405180910390a35b5050565b610d6a610f41565b600260008273ffffffffffffffffffffffffffffffffffffffff1673ffffffffffffffffffffffffffffffffffffffff16815260200190815260200160002060009054906101000a900460ff16610e4b576001600260008373ffffffffffffffffffffffffffffffffffffffff1673ffffffffffffffffffffffffffffffffffffffff16815260200190815260200160002060006101000a81548160ff0219169083151502179055507f87286ad1f399c8e82bf0c4ef4fcdc570ea2e1e92176e5c848b6413545b885db481604051610e429190611913565b60405180910390a15b50565b600460009054906101000a900473ffffffffffffffffffffffffffffffffffffffff1681565b610e7c611225565b610ebb576040517f08c379a0000000000000000000000000000000000000000000000000000000008152600401610eb290611a3a565b60405180910390fd5b610ec481611319565b50565b600160149054906101000a900460ff1681565b610ee2610fd1565b610f21576040517f08c379a0000000000000000000000000000000000000000000000000000000008152600401610f18906119da565b60405180910390fd5b610f2a816110c5565b50565b610f35610f41565b610f3e81611409565b50565b60008054906101000a900473ffffffffffffffffffffffffffffffffffffffff1673ffffffffffffffffffffffffffffffffffffffff163373ffffffffffffffffffffffffffffffffffffffff1614610fcf576040517f08c379a0000000000000000000000000000000000000000000000000000000008152600401610fc690611a1a565b60405180910390fd5b565b6000610fdb610c37565b73ffffffffffffffffffffffffffffffffffffffff163373ffffffffffffffffffffffffffffffffffffffff1614806110c05750600460009054906101000a900473ffffffffffffffffffffffffffffffffffffffff1673ffffffffffffffffffffffffffffffffffffffff16636b14daf8336000366040518463ffffffff1660e01b815260040161106f9392919061192e565b60206040518083038186803b15801561108757600080fd5b505afa15801561109b573d6000803e3d6000fd5b505050506040513d601f19601f820116820180604052508101906110bf91906116fc565b5b905090565b600560008273ffffffffffffffffffffffffffffffffffffffff1673ffffffffffffffffffffffffffffffffffffffff16815260200190815260200160002060009054906101000a900460ff16156111b3576000600560008373ffffffffffffffffffffffffffffffffffffffff1673ffffffffffffffffffffffffffffffffffffffff16815260200190815260200160002060006101000a81548160ff0219169083151502179055508073ffffffffffffffffffffffffffffffffffffffff167fd86728e2e5cbaa28c1d357b5fbccc9c1ab0add09950eb7cac42df9acb24c4bc860405160405180910390a25b50565b6000600260008473ffffffffffffffffffffffffffffffffffffffff1673ffffffffffffffffffffffffffffffffffffffff16815260200190815260200160002060009054906101000a900460ff168061121d5750600160149054906101000a900460ff16155b905092915050565b600061122f610c37565b73ffffffffffffffffffffffffffffffffffffffff163373ffffffffffffffffffffffffffffffffffffffff1614806113145750600360009054906101000a900473ffffffffffffffffffffffffffffffffffffffff1673ffffffffffffffffffffffffffffffffffffffff16636b14daf8336000366040518463ffffffff1660e01b81526004016112c39392919061192e565b60206040518083038186803b1580156112db57600080fd5b505afa1580156112ef573d6000803e3d6000fd5b505050506040513d601f19601f8201168201806040525081019061131391906116fc565b5b905090565b600560008273ffffffffffffffffffffffffffffffffffffffff1673ffffffffffffffffffffffffffffffffffffffff16815260200190815260200160002060009054906101000a900460ff16611406576001600560008373ffffffffffffffffffffffffffffffffffffffff1673ffffffffffffffffffffffffffffffffffffffff16815260200190815260200160002060006101000a81548160ff0219169083151502179055508073ffffffffffffffffffffffffffffffffffffffff167f881febd4cd194dd4ace637642862aef1fb59a65c7e5551a5d9208f268d11c00660405160405180910390a25b50565b3373ffffffffffffffffffffffffffffffffffffffff168173ffffffffffffffffffffffffffffffffffffffff161415611478576040517f08c379a000000000000000000000000000000000000000000000000000000000815260040161146f90611a7a565b60405180910390fd5b80600160006101000a81548173ffffffffffffffffffffffffffffffffffffffff021916908373ffffffffffffffffffffffffffffffffffffffff1602179055508073ffffffffffffffffffffffffffffffffffffffff1660008054906101000a900473ffffffffffffffffffffffffffffffffffffffff1673ffffffffffffffffffffffffffffffffffffffff167fed8889f560326eb138920d842192f0eb3dd22b4f139c87a2c57538e05bae127860405160405180910390a350565b600061154961154484611abf565b611a9a565b90508281526020810184848401111561156557611564611d1a565b5b611570848285611bc2565b509392505050565b60008135905061158781611e30565b92915050565b60008083601f8401126115a3576115a2611d10565b5b8235905067ffffffffffffffff8111156115c0576115bf611d0b565b5b6020830191508360208202830111156115dc576115db611d15565b5b9250929050565b6000815190506115f281611e47565b92915050565b600082601f83011261160d5761160c611d10565b5b813561161d848260208601611536565b91505092915050565b60006020828403121561163c5761163b611d24565b5b600061164a84828501611578565b91505092915050565b6000806040838503121561166a57611669611d24565b5b600061167885828601611578565b925050602083013567ffffffffffffffff81111561169957611698611d1f565b5b6116a5858286016115f8565b9150509250929050565b600080602083850312156116c6576116c5611d24565b5b600083013567ffffffffffffffff8111156116e4576116e3611d1f565b5b6116f08582860161158d565b92509250509250929050565b60006020828403121561171257611711611d24565b5b6000611720848285016115e3565b91505092915050565b600061173583836117ae565b60208301905092915050565b61174a81611b56565b82525050565b600061175b82611b00565b6117658185611b23565b935061177083611af0565b8060005b838110156117a15781516117888882611729565b975061179383611b16565b925050600181019050611774565b5085935050505092915050565b6117b781611b68565b82525050565b6117c681611b68565b82525050565b60006117d88385611b34565b93506117e5838584611bc2565b6117ee83611d29565b840190509392505050565b61180281611b9e565b82525050565b600061181382611b0b565b61181d8185611b45565b935061182d818560208601611bd1565b61183681611d29565b840191505092915050565b600061184e601a83611b45565b915061185982611d3a565b602082019050919050565b6000611871601683611b45565b915061187c82611d63565b602082019050919050565b6000611894601683611b45565b915061189f82611d8c565b602082019050919050565b60006118b7601a83611b45565b91506118c282611db5565b602082019050919050565b60006118da600983611b45565b91506118e582611dde565b602082019050919050565b60006118fd601783611b45565b915061190882611e07565b602082019050919050565b60006020820190506119286000830184611741565b92915050565b60006040820190506119436000830186611741565b81810360208301526119568184866117cc565b9050949350505050565b6000602082019050818103600083015261197a8184611750565b905092915050565b600060208201905061199760008301846117bd565b92915050565b60006020820190506119b260008301846117f9565b92915050565b600060208201905081810360008301526119d28184611808565b905092915050565b600060208201905081810360008301526119f381611841565b9050919050565b60006020820190508181036000830152611a1381611864565b9050919050565b60006020820190508181036000830152611a3381611887565b9050919050565b60006020820190508181036000830152611a53816118aa565b9050919050565b60006020820190508181036000830152611a73816118cd565b9050919050565b60006020820190508181036000830152611a93816118f0565b9050919050565b6000611aa4611ab5565b9050611ab08282611c04565b919050565b6000604051905090565b600067ffffffffffffffff821115611ada57611ad9611cdc565b5b611ae382611d29565b9050602081019050919050565b6000819050602082019050919050565b600081519050919050565b600081519050919050565b6000602082019050919050565b600082825260208201905092915050565b600082825260208201905092915050565b600082825260208201905092915050565b6000611b6182611b74565b9050919050565b60008115159050919050565b600073ffffffffffffffffffffffffffffffffffffffff82169050919050565b6000819050919050565b6000611ba982611bb0565b9050919050565b6000611bbb82611b74565b9050919050565b82818337600083830152505050565b60005b83811015611bef578082015181840152602081019050611bd4565b83811115611bfe576000848401525b50505050565b611c0d82611d29565b810181811067ffffffffffffffff82111715611c2c57611c2b611cdc565b5b80604052505050565b6000611c4082611b94565b91507fffffffffffffffffffffffffffffffffffffffffffffffffffffffffffffffff821415611c7357611c72611c7e565b5b600182019050919050565b7f4e487b7100000000000000000000000000000000000000000000000000000000600052601160045260246000fd5b7f4e487b7100000000000000000000000000000000000000000000000000000000600052603260045260246000fd5b7f4e487b7100000000000000000000000000000000000000000000000000000000600052604160045260246000fd5b600080fd5b600080fd5b600080fd5b600080fd5b600080fd5b600080fd5b6000601f19601f8301169050919050565b7f4e6f7420616c6c6f77656420746f206c6f77657220666c616773000000000000600082015250565b7f4d7573742062652070726f706f736564206f776e657200000000000000000000600082015250565b7f4f6e6c792063616c6c61626c65206279206f776e657200000000000000000000600082015250565b7f4e6f7420616c6c6f77656420746f20726169736520666c616773000000000000600082015250565b7f4e6f206163636573730000000000000000000000000000000000000000000000600082015250565b7f43616e6e6f74207472616e7366657220746f2073656c66000000000000000000600082015250565b611e3981611b56565b8114611e4457600080fd5b50565b611e5081611b68565b8114611e5b57600080fd5b5056fea26469706673582212200feac5281bb4dee0925329966b8343e7e138be4d19b6851cce14d4a44c24a2a864736f6c63430008060033",
  "linkReferences": {},
  "deployedLinkReferences": {}
}