{
  "_format": "hh-sol-artifact-1",
  "contractName": "BridgedNft",
  "sourceName": "contracts/BridgedNft.sol",
  "abi": [
    {
      "inputs": [
        {
          "internalType": "address",
          "name": "_wrapped",
          "type": "address"
        }
      ],
      "stateMutability": "nonpayable",
      "type": "constructor"
    },
    {
      "anonymous": false,
      "inputs": [
        {
          "indexed": true,
          "internalType": "address",
          "name": "owner",
          "type": "address"
        },
        {
          "indexed": true,
          "internalType": "address",
          "name": "approved",
          "type": "address"
        },
        {
          "indexed": true,
          "internalType": "uint256",
          "name": "tokenId",
          "type": "uint256"
        }
      ],
      "name": "Approval",
      "type": "event"
    },
    {
      "anonymous": false,
      "inputs": [
        {
          "indexed": true,
          "internalType": "address",
          "name": "owner",
          "type": "address"
        },
        {
          "indexed": true,
          "internalType": "address",
          "name": "operator",
          "type": "address"
        },
        {
          "indexed": false,
          "internalType": "bool",
          "name": "approved",
          "type": "bool"
        }
      ],
      "name": "ApprovalForAll",
      "type": "event"
    },
    {
      "anonymous": false,
      "inputs": [
        {
          "indexed": true,
          "internalType": "bytes32",
          "name": "id",
          "type": "bytes32"
        }
      ],
      "name": "ChainlinkCancelled",
      "type": "event"
    },
    {
      "anonymous": false,
      "inputs": [
        {
          "indexed": true,
          "internalType": "bytes32",
          "name": "id",
          "type": "bytes32"
        }
      ],
      "name": "ChainlinkFulfilled",
      "type": "event"
    },
    {
      "anonymous": false,
      "inputs": [
        {
          "indexed": true,
          "internalType": "bytes32",
          "name": "id",
          "type": "bytes32"
        }
      ],
      "name": "ChainlinkRequested",
      "type": "event"
    },
    {
      "anonymous": false,
      "inputs": [
        {
          "indexed": true,
          "internalType": "address",
          "name": "from",
          "type": "address"
        },
        {
          "indexed": true,
          "internalType": "address",
          "name": "to",
          "type": "address"
        },
        {
          "indexed": true,
          "internalType": "uint256",
          "name": "tokenId",
          "type": "uint256"
        }
      ],
      "name": "Transfer",
      "type": "event"
    },
    {
      "inputs": [
        {
          "internalType": "address",
          "name": "to",
          "type": "address"
        },
        {
          "internalType": "uint256",
          "name": "tokenId",
          "type": "uint256"
        }
      ],
      "name": "approve",
      "outputs": [],
      "stateMutability": "nonpayable",
      "type": "function"
    },
    {
      "inputs": [
        {
          "internalType": "address",
          "name": "owner",
          "type": "address"
        }
      ],
      "name": "balanceOf",
      "outputs": [
        {
          "internalType": "uint256",
          "name": "",
          "type": "uint256"
        }
      ],
      "stateMutability": "view",
      "type": "function"
    },
    {
      "inputs": [
        {
          "internalType": "bytes32",
          "name": "",
          "type": "bytes32"
        }
      ],
      "name": "confirms",
      "outputs": [
        {
          "internalType": "uint256",
          "name": "id",
          "type": "uint256"
        },
        {
          "internalType": "address",
          "name": "minter",
          "type": "address"
        }
      ],
      "stateMutability": "view",
      "type": "function"
    },
    {
      "inputs": [
        {
          "internalType": "bytes32",
          "name": "_requestId",
          "type": "bytes32"
        },
        {
          "internalType": "bytes32",
          "name": "_result",
          "type": "bytes32"
        }
      ],
      "name": "fulfill",
      "outputs": [],
      "stateMutability": "nonpayable",
      "type": "function"
    },
    {
      "inputs": [
        {
          "internalType": "uint256",
          "name": "tokenId",
          "type": "uint256"
        }
      ],
      "name": "getApproved",
      "outputs": [
        {
          "internalType": "address",
          "name": "",
          "type": "address"
        }
      ],
      "stateMutability": "view",
      "type": "function"
    },
    {
      "inputs": [
        {
          "internalType": "address",
          "name": "owner",
          "type": "address"
        },
        {
          "internalType": "address",
          "name": "operator",
          "type": "address"
        }
      ],
      "name": "isApprovedForAll",
      "outputs": [
        {
          "internalType": "bool",
          "name": "",
          "type": "bool"
        }
      ],
      "stateMutability": "view",
      "type": "function"
    },
    {
      "inputs": [
        {
          "internalType": "uint256",
          "name": "id",
          "type": "uint256"
        }
      ],
      "name": "mint",
      "outputs": [],
      "stateMutability": "nonpayable",
      "type": "function"
    },
    {
      "inputs": [],
      "name": "name",
      "outputs": [
        {
          "internalType": "string",
          "name": "",
          "type": "string"
        }
      ],
      "stateMutability": "view",
      "type": "function"
    },
    {
      "inputs": [
        {
          "internalType": "uint256",
          "name": "tokenId",
          "type": "uint256"
        }
      ],
      "name": "ownerOf",
      "outputs": [
        {
          "internalType": "address",
          "name": "",
          "type": "address"
        }
      ],
      "stateMutability": "view",
      "type": "function"
    },
    {
      "inputs": [
        {
          "internalType": "uint256",
          "name": "",
          "type": "uint256"
        }
      ],
      "name": "params",
      "outputs": [
        {
          "internalType": "bytes32",
          "name": "",
          "type": "bytes32"
        }
      ],
      "stateMutability": "view",
      "type": "function"
    },
    {
      "inputs": [
        {
          "internalType": "address",
          "name": "from",
          "type": "address"
        },
        {
          "internalType": "address",
          "name": "to",
          "type": "address"
        },
        {
          "internalType": "uint256",
          "name": "tokenId",
          "type": "uint256"
        }
      ],
      "name": "safeTransferFrom",
      "outputs": [],
      "stateMutability": "nonpayable",
      "type": "function"
    },
    {
      "inputs": [
        {
          "internalType": "address",
          "name": "from",
          "type": "address"
        },
        {
          "internalType": "address",
          "name": "to",
          "type": "address"
        },
        {
          "internalType": "uint256",
          "name": "tokenId",
          "type": "uint256"
        },
        {
          "internalType": "bytes",
          "name": "_data",
          "type": "bytes"
        }
      ],
      "name": "safeTransferFrom",
      "outputs": [],
      "stateMutability": "nonpayable",
      "type": "function"
    },
    {
      "inputs": [
        {
          "internalType": "address",
          "name": "operator",
          "type": "address"
        },
        {
          "internalType": "bool",
          "name": "approved",
          "type": "bool"
        }
      ],
      "name": "setApprovalForAll",
      "outputs": [],
      "stateMutability": "nonpayable",
      "type": "function"
    },
    {
      "inputs": [
        {
          "internalType": "bytes4",
          "name": "interfaceId",
          "type": "bytes4"
        }
      ],
      "name": "supportsInterface",
      "outputs": [
        {
          "internalType": "bool",
          "name": "",
          "type": "bool"
        }
      ],
      "stateMutability": "view",
      "type": "function"
    },
    {
      "inputs": [],
      "name": "symbol",
      "outputs": [
        {
          "internalType": "string",
          "name": "",
          "type": "string"
        }
      ],
      "stateMutability": "view",
      "type": "function"
    },
    {
      "inputs": [
        {
          "internalType": "address",
          "name": "account",
          "type": "address"
        }
      ],
      "name": "toString",
      "outputs": [
        {
          "internalType": "string",
          "name": "",
          "type": "string"
        }
      ],
      "stateMutability": "pure",
      "type": "function"
    },
    {
      "inputs": [
        {
          "internalType": "uint256",
          "name": "value",
          "type": "uint256"
        }
      ],
      "name": "toString",
      "outputs": [
        {
          "internalType": "string",
          "name": "",
          "type": "string"
        }
      ],
      "stateMutability": "pure",
      "type": "function"
    },
    {
      "inputs": [
        {
          "internalType": "bytes",
          "name": "data",
          "type": "bytes"
        }
      ],
      "name": "toString",
      "outputs": [
        {
          "internalType": "string",
          "name": "",
          "type": "string"
        }
      ],
      "stateMutability": "pure",
      "type": "function"
    },
    {
      "inputs": [
        {
          "internalType": "bytes32",
          "name": "value",
          "type": "bytes32"
        }
      ],
      "name": "toString",
      "outputs": [
        {
          "internalType": "string",
          "name": "",
          "type": "string"
        }
      ],
      "stateMutability": "pure",
      "type": "function"
    },
    {
      "inputs": [
        {
          "internalType": "uint256",
          "name": "tokenId",
          "type": "uint256"
        }
      ],
      "name": "tokenURI",
      "outputs": [
        {
          "internalType": "string",
          "name": "",
          "type": "string"
        }
      ],
      "stateMutability": "view",
      "type": "function"
    },
    {
      "inputs": [
        {
          "internalType": "address",
          "name": "from",
          "type": "address"
        },
        {
          "internalType": "address",
          "name": "to",
          "type": "address"
        },
        {
          "internalType": "uint256",
          "name": "tokenId",
          "type": "uint256"
        }
      ],
      "name": "transferFrom",
      "outputs": [],
      "stateMutability": "nonpayable",
      "type": "function"
    },
    {
      "inputs": [],
      "name": "wrapped",
      "outputs": [
        {
          "internalType": "address",
          "name": "",
          "type": "address"
        }
      ],
      "stateMutability": "view",
      "type": "function"
    }
  ],
  "bytecode": "0x60806040526001600b557f3463323438363563343139323433376338316164663230333036326337303735600e5573474260ab28874faa67c8d1197af91959556d7ac0600f60006101000a81548173ffffffffffffffffffffffffffffffffffffffff021916908373ffffffffffffffffffffffffffffffffffffffff1602179055503480156200008f57600080fd5b5060405162004916380380620049168339818101604052810190620000b59190620003d3565b6040518060400160405280600981526020017f5363617065204e465400000000000000000000000000000000000000000000008152506040518060400160405280600681526020017f53434150455300000000000000000000000000000000000000000000000000008152508160009080519060200190620001399291906200030c565b508060019080519060200190620001529291906200030c565b505050620001656200022060201b60201c565b600073ffffffffffffffffffffffffffffffffffffffff168173ffffffffffffffffffffffffffffffffffffffff161415620001d8576040517f08c379a0000000000000000000000000000000000000000000000000000000008152600401620001cf906200042c565b60405180910390fd5b80600d60006101000a81548173ffffffffffffffffffffffffffffffffffffffff021916908373ffffffffffffffffffffffffffffffffffffffff1602179055505062000540565b620002c673c89bd4e1632d3a43cb03aaad5262cbe4038bc57173ffffffffffffffffffffffffffffffffffffffff166338cc48316040518163ffffffff1660e01b815260040160206040518083038186803b1580156200027f57600080fd5b505afa15801562000294573d6000803e3d6000fd5b505050506040513d601f19601f82011682018060405250810190620002ba9190620003d3565b620002c860201b60201c565b565b80600960006101000a81548173ffffffffffffffffffffffffffffffffffffffff021916908373ffffffffffffffffffffffffffffffffffffffff16021790555050565b8280546200031a9062000493565b90600052602060002090601f0160209004810192826200033e57600085556200038a565b82601f106200035957805160ff19168380011785556200038a565b828001600101855582156200038a579182015b82811115620003895782518255916020019190600101906200036c565b5b5090506200039991906200039d565b5090565b5b80821115620003b85760008160009055506001016200039e565b5090565b600081519050620003cd8162000526565b92915050565b600060208284031215620003ec57620003eb620004f8565b5b6000620003fc84828501620003bc565b91505092915050565b600062000414600c836200044e565b91506200042182620004fd565b602082019050919050565b60006020820190508181036000830152620004478162000405565b9050919050565b600082825260208201905092915050565b60006200046c8262000473565b9050919050565b600073ffffffffffffffffffffffffffffffffffffffff82169050919050565b60006002820490506001821680620004ac57607f821691505b60208210811415620004c357620004c2620004c9565b5b50919050565b7f4e487b7100000000000000000000000000000000000000000000000000000000600052602260045260246000fd5b600080fd5b7f5a45524f5f414444524553530000000000000000000000000000000000000000600082015250565b62000531816200045f565b81146200053d57600080fd5b50565b6143c680620005506000396000f3fe608060405234801561001057600080fd5b50600436106101425760003560e01c806370a08231116100b8578063a22cb4651161007c578063a22cb465146103ad578063b11a19e8146103c9578063b88d4fde146103f9578063c87b56dd14610415578063e985e9c514610445578063f055eca31461047557610142565b806370a08231146102e357806371aad10d1461031357806395d89b41146103435780639d2f053c14610361578063a0712d681461039157610142565b806323b872dd1161010a57806323b872dd146101fd57806342842e0e1461021957806350e70d481461023557806356ca623e146102535780636352211e146102835780636900a3ae146102b357610142565b806301ffc9a714610147578063042f2b651461017757806306fdde0314610193578063081812fc146101b1578063095ea7b3146101e1575b600080fd5b610161600480360381019061015c9190612e6a565b6104a6565b60405161016e91906134c5565b60405180910390f35b610191600480360381019061018c9190612e2a565b610588565b005b61019b61073d565b6040516101a891906134fb565b60405180910390f35b6101cb60048036038101906101c69190612f0d565b6107cf565b6040516101d8919061339b565b60405180910390f35b6101fb60048036038101906101f69190612d90565b610854565b005b61021760048036038101906102129190612c7a565b61096c565b005b610233600480360381019061022e9190612c7a565b6109cc565b005b61023d6109ec565b60405161024a919061339b565b60405180910390f35b61026d60048036038101906102689190612c0d565b610a12565b60405161027a91906134fb565b60405180910390f35b61029d60048036038101906102989190612f0d565b610a43565b6040516102aa919061339b565b60405180910390f35b6102cd60048036038101906102c89190612f0d565b610af5565b6040516102da91906134fb565b60405180910390f35b6102fd60048036038101906102f89190612c0d565b610b26565b60405161030a919061375d565b60405180910390f35b61032d60048036038101906103289190612ec4565b610bde565b60405161033a91906134fb565b60405180910390f35b61034b610ed8565b60405161035891906134fb565b60405180910390f35b61037b60048036038101906103769190612f0d565b610f6a565b60405161038891906134e0565b60405180910390f35b6103ab60048036038101906103a69190612f0d565b610f82565b005b6103c760048036038101906103c29190612d50565b610fd2565b005b6103e360048036038101906103de9190612dfd565b611153565b6040516103f091906134fb565b60405180910390f35b610413600480360381019061040e9190612ccd565b611184565b005b61042f600480360381019061042a9190612f0d565b6111e6565b60405161043c91906134fb565b60405180910390f35b61045f600480360381019061045a9190612c3a565b611338565b60405161046c91906134c5565b60405180910390f35b61048f600480360381019061048a9190612dfd565b6113cc565b60405161049d929190613778565b60405180910390f35b60007f80ac58cd000000000000000000000000000000000000000000000000000000007bffffffffffffffffffffffffffffffffffffffffffffffffffffffff1916827bffffffffffffffffffffffffffffffffffffffffffffffffffffffff1916148061057157507f5b5e139f000000000000000000000000000000000000000000000000000000007bffffffffffffffffffffffffffffffffffffffffffffffffffffffff1916827bffffffffffffffffffffffffffffffffffffffffffffffffffffffff1916145b80610581575061058082611410565b5b9050919050565b81600c600082815260200190815260200160002060009054906101000a900473ffffffffffffffffffffffffffffffffffffffff1673ffffffffffffffffffffffffffffffffffffffff163373ffffffffffffffffffffffffffffffffffffffff161461062a576040517f08c379a00000000000000000000000000000000000000000000000000000000081526004016106219061373d565b60405180910390fd5b600c600082815260200190815260200160002060006101000a81549073ffffffffffffffffffffffffffffffffffffffff0219169055807f7cc135e0cebb02c3480ae5d74d377283180a2601f8f644edf7987b009316c63a60405160405180910390a26000601260008581526020019081526020016000209050826011600083600001548152602001908152602001600020819055506106f28160010160009054906101000a900473ffffffffffffffffffffffffffffffffffffffff16826000015461147a565b601260008581526020019081526020016000206000808201600090556001820160006101000a81549073ffffffffffffffffffffffffffffffffffffffff0219169055505050505050565b60606000805461074c90613be8565b80601f016020809104026020016040519081016040528092919081815260200182805461077890613be8565b80156107c55780601f1061079a576101008083540402835291602001916107c5565b820191906000526020600020905b8154815290600101906020018083116107a857829003601f168201915b5050505050905090565b60006107da82611648565b610819576040517f08c379a00000000000000000000000000000000000000000000000000000000081526004016108109061369d565b60405180910390fd5b6004600083815260200190815260200160002060009054906101000a900473ffffffffffffffffffffffffffffffffffffffff169050919050565b600061085f82610a43565b90508073ffffffffffffffffffffffffffffffffffffffff168373ffffffffffffffffffffffffffffffffffffffff1614156108d0576040517f08c379a00000000000000000000000000000000000000000000000000000000081526004016108c7906136fd565b60405180910390fd5b8073ffffffffffffffffffffffffffffffffffffffff166108ef6116b4565b73ffffffffffffffffffffffffffffffffffffffff16148061091e575061091d816109186116b4565b611338565b5b61095d576040517f08c379a0000000000000000000000000000000000000000000000000000000008152600401610954906135dd565b60405180910390fd5b61096783836116bc565b505050565b61097d6109776116b4565b82611775565b6109bc576040517f08c379a00000000000000000000000000000000000000000000000000000000081526004016109b39061371d565b60405180910390fd5b6109c7838383611853565b505050565b6109e783838360405180602001604052806000815250611184565b505050565b600d60009054906101000a900473ffffffffffffffffffffffffffffffffffffffff1681565b6060610a3c82604051602001610a2891906132fa565b604051602081830303815290604052610bde565b9050919050565b6000806002600084815260200190815260200160002060009054906101000a900473ffffffffffffffffffffffffffffffffffffffff169050600073ffffffffffffffffffffffffffffffffffffffff168173ffffffffffffffffffffffffffffffffffffffff161415610aec576040517f08c379a0000000000000000000000000000000000000000000000000000000008152600401610ae39061361d565b60405180910390fd5b80915050919050565b6060610b1f82604051602001610b0b9190613380565b604051602081830303815290604052610bde565b9050919050565b60008073ffffffffffffffffffffffffffffffffffffffff168273ffffffffffffffffffffffffffffffffffffffff161415610b97576040517f08c379a0000000000000000000000000000000000000000000000000000000008152600401610b8e906135fd565b60405180910390fd5b600360008373ffffffffffffffffffffffffffffffffffffffff1673ffffffffffffffffffffffffffffffffffffffff168152602001908152602001600020549050919050565b606060006040518060400160405280601081526020017f30313233343536373839616263646566000000000000000000000000000000008152509050600060028451610c2a9190613a69565b6002610c36919061383a565b67ffffffffffffffff811115610c4f57610c4e613db9565b5b6040519080825280601f01601f191660200182016040528015610c815781602001600182028036833780820191505090505b5090507f300000000000000000000000000000000000000000000000000000000000000081600081518110610cb957610cb8613d8a565b5b60200101907effffffffffffffffffffffffffffffffffffffffffffffffffffffffffffff1916908160001a9053507f780000000000000000000000000000000000000000000000000000000000000081600181518110610d1d57610d1c613d8a565b5b60200101907effffffffffffffffffffffffffffffffffffffffffffffffffffffffffffff1916908160001a90535060005b8451811015610ecd57826004868381518110610d6e57610d6d613d8a565b5b602001015160f81c60f81b7effffffffffffffffffffffffffffffffffffffffffffffffffffffffffffff1916901c60f81c60ff1681518110610db457610db3613d8a565b5b602001015160f81c60f81b82600283610dcd9190613a69565b6002610dd9919061383a565b81518110610dea57610de9613d8a565b5b60200101907effffffffffffffffffffffffffffffffffffffffffffffffffffffffffffff1916908160001a90535082600f60f81b868381518110610e3257610e31613d8a565b5b602001015160f81c60f81b1660f81c60ff1681518110610e5557610e54613d8a565b5b602001015160f81c60f81b82600283610e6e9190613a69565b6003610e7a919061383a565b81518110610e8b57610e8a613d8a565b5b60200101907effffffffffffffffffffffffffffffffffffffffffffffffffffffffffffff1916908160001a9053508080610ec590613c4b565b915050610d4f565b508092505050919050565b606060018054610ee790613be8565b80601f0160208091040260200160405190810160405280929190818152602001828054610f1390613be8565b8015610f605780601f10610f3557610100808354040283529160200191610f60565b820191906000526020600020905b815481529060010190602001808311610f4357829003601f168201915b5050505050905090565b60116020528060005260406000206000915090505481565b60008111610fc5576040517f08c379a0000000000000000000000000000000000000000000000000000000008152600401610fbc9061363d565b60405180910390fd5b610fcf3382611aaf565b50565b610fda6116b4565b73ffffffffffffffffffffffffffffffffffffffff168273ffffffffffffffffffffffffffffffffffffffff161415611048576040517f08c379a000000000000000000000000000000000000000000000000000000000815260040161103f9061359d565b60405180910390fd5b80600560006110556116b4565b73ffffffffffffffffffffffffffffffffffffffff1673ffffffffffffffffffffffffffffffffffffffff16815260200190815260200160002060008473ffffffffffffffffffffffffffffffffffffffff1673ffffffffffffffffffffffffffffffffffffffff16815260200190815260200160002060006101000a81548160ff0219169083151502179055508173ffffffffffffffffffffffffffffffffffffffff166111026116b4565b73ffffffffffffffffffffffffffffffffffffffff167f17307eab39ab6107e8899845ad3d59bd9653f200f220920489ca2b5937696c318360405161114791906134c5565b60405180910390a35050565b606061117d826040516020016111699190613315565b604051602081830303815290604052610bde565b9050919050565b61119561118f6116b4565b83611775565b6111d4576040517f08c379a00000000000000000000000000000000000000000000000000000000081526004016111cb9061371d565b60405180910390fd5b6111e084848484611ce8565b50505050565b60606111f182611648565b611230576040517f08c379a00000000000000000000000000000000000000000000000000000000081526004016112279061367d565b60405180910390fd5b600060066000848152602001908152602001600020805461125090613be8565b80601f016020809104026020016040519081016040528092919081815260200182805461127c90613be8565b80156112c95780601f1061129e576101008083540402835291602001916112c9565b820191906000526020600020905b8154815290600101906020018083116112ac57829003601f168201915b5050505050905060006112da611d44565b90506000815114156112f0578192505050611333565b60008251111561132557808260405160200161130d92919061335c565b60405160208183030381529060405292505050611333565b61132e84611d5b565b925050505b919050565b6000600560008473ffffffffffffffffffffffffffffffffffffffff1673ffffffffffffffffffffffffffffffffffffffff16815260200190815260200160002060008373ffffffffffffffffffffffffffffffffffffffff1673ffffffffffffffffffffffffffffffffffffffff16815260200190815260200160002060009054906101000a900460ff16905092915050565b60126020528060005260406000206000915090508060000154908060010160009054906101000a900473ffffffffffffffffffffffffffffffffffffffff16905082565b60007f01ffc9a7000000000000000000000000000000000000000000000000000000007bffffffffffffffffffffffffffffffffffffffffffffffffffffffff1916827bffffffffffffffffffffffffffffffffffffffffffffffffffffffff1916149050919050565b600073ffffffffffffffffffffffffffffffffffffffff168273ffffffffffffffffffffffffffffffffffffffff1614156114ea576040517f08c379a00000000000000000000000000000000000000000000000000000000081526004016114e19061365d565b60405180910390fd5b6114f381611648565b15611533576040517f08c379a000000000000000000000000000000000000000000000000000000000815260040161152a9061353d565b60405180910390fd5b61153f60008383611e02565b6001600360008473ffffffffffffffffffffffffffffffffffffffff1673ffffffffffffffffffffffffffffffffffffffff168152602001908152602001600020600082825461158f919061383a565b92505081905550816002600083815260200190815260200160002060006101000a81548173ffffffffffffffffffffffffffffffffffffffff021916908373ffffffffffffffffffffffffffffffffffffffff160217905550808273ffffffffffffffffffffffffffffffffffffffff16600073ffffffffffffffffffffffffffffffffffffffff167fddf252ad1be2c89b69c2b068fc378daa952ba7f163c4a11628f55a4df523b3ef60405160405180910390a45050565b60008073ffffffffffffffffffffffffffffffffffffffff166002600084815260200190815260200160002060009054906101000a900473ffffffffffffffffffffffffffffffffffffffff1673ffffffffffffffffffffffffffffffffffffffff1614159050919050565b600033905090565b816004600083815260200190815260200160002060006101000a81548173ffffffffffffffffffffffffffffffffffffffff021916908373ffffffffffffffffffffffffffffffffffffffff160217905550808273ffffffffffffffffffffffffffffffffffffffff1661172f83610a43565b73ffffffffffffffffffffffffffffffffffffffff167f8c5be1e5ebec7d5bd14f71427d1e84f3dd0314c0f7b2291e5b200ac8c7c3b92560405160405180910390a45050565b600061178082611648565b6117bf576040517f08c379a00000000000000000000000000000000000000000000000000000000081526004016117b6906135bd565b60405180910390fd5b60006117ca83610a43565b90508073ffffffffffffffffffffffffffffffffffffffff168473ffffffffffffffffffffffffffffffffffffffff16148061183957508373ffffffffffffffffffffffffffffffffffffffff16611821846107cf565b73ffffffffffffffffffffffffffffffffffffffff16145b8061184a57506118498185611338565b5b91505092915050565b8273ffffffffffffffffffffffffffffffffffffffff1661187382610a43565b73ffffffffffffffffffffffffffffffffffffffff16146118c9576040517f08c379a00000000000000000000000000000000000000000000000000000000081526004016118c0906136bd565b60405180910390fd5b600073ffffffffffffffffffffffffffffffffffffffff168273ffffffffffffffffffffffffffffffffffffffff161415611939576040517f08c379a00000000000000000000000000000000000000000000000000000000081526004016119309061357d565b60405180910390fd5b611944838383611e02565b61194f6000826116bc565b6001600360008573ffffffffffffffffffffffffffffffffffffffff1673ffffffffffffffffffffffffffffffffffffffff168152602001908152602001600020600082825461199f9190613ac3565b925050819055506001600360008473ffffffffffffffffffffffffffffffffffffffff1673ffffffffffffffffffffffffffffffffffffffff16815260200190815260200160002060008282546119f6919061383a565b92505081905550816002600083815260200190815260200160002060006101000a81548173ffffffffffffffffffffffffffffffffffffffff021916908373ffffffffffffffffffffffffffffffffffffffff160217905550808273ffffffffffffffffffffffffffffffffffffffff168473ffffffffffffffffffffffffffffffffffffffff167fddf252ad1be2c89b69c2b068fc378daa952ba7f163c4a11628f55a4df523b3ef60405160405180910390a4505050565b6000611ac5600e543063042f2b6560e01b611e07565b9050611b196040518060400160405280600781526020017f746f6b656e494400000000000000000000000000000000000000000000000000815250611b0984611e38565b83611fc19092919063ffffffff16565b611b8a6040518060400160405280600681526020017f6d696e7465720000000000000000000000000000000000000000000000000000815250611b7a85604051602001611b6691906132fa565b604051602081830303815290604052610bde565b83611fc19092919063ffffffff16565b611c1d6040518060400160405280600781526020017f7772617070656400000000000000000000000000000000000000000000000000815250611c0d600d60009054906101000a900473ffffffffffffffffffffffffffffffffffffffff16604051602001611bf991906132fa565b604051602081830303815290604052610bde565b83611fc19092919063ffffffff16565b6000611c4e600f60009054906101000a900473ffffffffffffffffffffffffffffffffffffffff1683601054611ff4565b905060405180604001604052808481526020018573ffffffffffffffffffffffffffffffffffffffff16815250601260008381526020019081526020016000206000820151816000015560208201518160010160006101000a81548173ffffffffffffffffffffffffffffffffffffffff021916908373ffffffffffffffffffffffffffffffffffffffff16021790555090505050505050565b611cf3848484611853565b611cff84848484612014565b611d3e576040517f08c379a0000000000000000000000000000000000000000000000000000000008152600401611d359061351d565b60405180910390fd5b50505050565b606060405180602001604052806000815250905090565b6060611d6682611648565b611da5576040517f08c379a0000000000000000000000000000000000000000000000000000000008152600401611d9c906136dd565b60405180910390fd5b6000611daf611d44565b90506000815111611dcf5760405180602001604052806000815250611dfa565b80611dd9846121ab565b604051602001611dea92919061335c565b6040516020818303038152906040525b915050919050565b505050565b611e0f612a83565b611e17612a83565b611e2e8585858461230c909392919063ffffffff16565b9150509392505050565b60606000821415611e80576040518060400160405280600181526020017f30000000000000000000000000000000000000000000000000000000000000008152509050611fbc565b600082905060005b60008214611eb2578080611e9b90613c4b565b915050600a82611eab91906138c7565b9150611e88565b60008167ffffffffffffffff811115611ece57611ecd613db9565b5b6040519080825280601f01601f191660200182016040528015611f005781602001600182028036833780820191505090505b50905060008290505b60008614611fb457600181611f1e9190613ac3565b90506000600a8088611f3091906138c7565b611f3a9190613a69565b87611f459190613ac3565b6030611f519190613890565b905060008160f81b905080848481518110611f6f57611f6e613d8a565b5b60200101907effffffffffffffffffffffffffffffffffffffffffffffffffffffffffffff1916908160001a905350600a88611fab91906138c7565b97505050611f09565b819450505050505b919050565b611fd88284608001516123bc90919063ffffffff16565b611fef8184608001516123bc90919063ffffffff16565b505050565b600061200b8484846001634042994660e01b6123e1565b90509392505050565b60006120358473ffffffffffffffffffffffffffffffffffffffff16612649565b1561219e578373ffffffffffffffffffffffffffffffffffffffff1663150b7a0261205e6116b4565b8786866040518563ffffffff1660e01b815260040161208094939291906133b6565b602060405180830381600087803b15801561209a57600080fd5b505af19250505080156120cb57506040513d601f19601f820116820180604052508101906120c89190612e97565b60015b61214e573d80600081146120fb576040519150601f19603f3d011682016040523d82523d6000602084013e612100565b606091505b50600081511415612146576040517f08c379a000000000000000000000000000000000000000000000000000000000815260040161213d9061351d565b60405180910390fd5b805181602001fd5b63150b7a0260e01b7bffffffffffffffffffffffffffffffffffffffffffffffffffffffff1916817bffffffffffffffffffffffffffffffffffffffffffffffffffffffff1916149150506121a3565b600190505b949350505050565b606060008214156121f3576040518060400160405280600181526020017f30000000000000000000000000000000000000000000000000000000000000008152509050612307565b600082905060005b6000821461222557808061220e90613c4b565b915050600a8261221e91906138c7565b91506121fb565b60008167ffffffffffffffff81111561224157612240613db9565b5b6040519080825280601f01601f1916602001820160405280156122735781602001600182028036833780820191505090505b5090505b600085146123005760018261228c9190613ac3565b9150600a8561229b9190613ccc565b60306122a7919061383a565b60f81b8183815181106122bd576122bc613d8a565b5b60200101907effffffffffffffffffffffffffffffffffffffffffffffffffffffffffffff1916908160001a905350600a856122f991906138c7565b9450612277565b8093505050505b919050565b612314612a83565b612324856080015161010061265c565b508385600001818152505082856020019073ffffffffffffffffffffffffffffffffffffffff16908173ffffffffffffffffffffffffffffffffffffffff16815250508185604001907bffffffffffffffffffffffffffffffffffffffffffffffffffffffff191690817bffffffffffffffffffffffffffffffffffffffffffffffffffffffff191681525050849050949350505050565b6123c982600383516126c6565b6123dc818361280b90919063ffffffff16565b505050565b600030600b546040516020016123f8929190613330565b604051602081830303815290604052805190602001209050600b5485606001818152505085600c600083815260200190815260200160002060006101000a81548173ffffffffffffffffffffffffffffffffffffffff021916908373ffffffffffffffffffffffffffffffffffffffff160217905550807fb5e6e01e79f91267dc17b4e6314d5d4d03593d2ceee0fbb452b750bd70ea5af960405160405180910390a2600082600080886000015189602001518a604001518b606001518a8d60800151600001516040516024016124d6989796959493929190613402565b604051602081830303815290604052907bffffffffffffffffffffffffffffffffffffffffffffffffffffffff19166020820180517bffffffffffffffffffffffffffffffffffffffffffffffffffffffff83818316178352505050509050600960009054906101000a900473ffffffffffffffffffffffffffffffffffffffff1673ffffffffffffffffffffffffffffffffffffffff16634000aea08887846040518463ffffffff1660e01b815260040161259493929190613487565b602060405180830381600087803b1580156125ae57600080fd5b505af11580156125c2573d6000803e3d6000fd5b505050506040513d601f19601f820116820180604052508101906125e69190612dd0565b612625576040517f08c379a000000000000000000000000000000000000000000000000000000000815260040161261c9061355d565b60405180910390fd5b6001600b6000828254612638919061383a565b925050819055505095945050505050565b600080823b905060008111915050919050565b612664612af0565b60006020836126739190613ccc565b1461269f576020826126859190613ccc565b60206126919190613ac3565b8261269c919061383a565b91505b81836020018181525050604051808452600081528281016020016040525082905092915050565b601781116126f3576126ed8160058460ff16901b60ff16178461282d90919063ffffffff16565b50612806565b60ff811161273557612718601860058460ff16901b178461282d90919063ffffffff16565b5061272f8160018561284d9092919063ffffffff16565b50612805565b61ffff81116127785761275b601960058460ff16901b178461282d90919063ffffffff16565b506127728160028561284d9092919063ffffffff16565b50612804565b63ffffffff81116127bd576127a0601a60058460ff16901b178461282d90919063ffffffff16565b506127b78160048561284d9092919063ffffffff16565b50612803565b67ffffffffffffffff8111612802576127e9601b60058460ff16901b178461282d90919063ffffffff16565b506128008160088561284d9092919063ffffffff16565b505b5b5b5b5b505050565b612813612af0565b6128258384600001515184855161286f565b905092915050565b612835612af0565b612845838460000151518461295e565b905092915050565b612855612af0565b6128668485600001515185856129b5565b90509392505050565b612877612af0565b825182111561288557600080fd5b84602001518285612896919061383a565b11156128cb576128ca8560026128bb886020015188876128b6919061383a565b612a43565b6128c59190613a69565b612a5f565b5b6000808651805187602083010193508088870111156128ea5787860182525b60208701925050505b60208410612931578051825260208261290c919061383a565b915060208161291b919061383a565b905060208461292a9190613ac3565b93506128f3565b60006001856020036101000a03905080198251168184511681811785525050508692505050949350505050565b612966612af0565b8360200151831061298c5761298b84600286602001516129869190613a69565b612a5f565b5b83518051602085830101848153818614156129a8576001820183525b5050508390509392505050565b6129bd612af0565b846020015184836129ce919061383a565b11156129f6576129f585600286856129e6919061383a565b6129f09190613a69565b612a5f565b5b6000600183610100612a08919061394b565b612a129190613ac3565b90508551838682010185831982511617815281518588011115612a355784870182525b505085915050949350505050565b600081831115612a5557829050612a59565b8190505b92915050565b600082600001519050612a72838361265c565b50612a7d838261280b565b50505050565b6040518060a0016040528060008019168152602001600073ffffffffffffffffffffffffffffffffffffffff16815260200160007bffffffffffffffffffffffffffffffffffffffffffffffffffffffff1916815260200160008152602001612aea612af0565b81525090565b604051806040016040528060608152602001600081525090565b6000612b1d612b18846137c6565b6137a1565b905082815260208101848484011115612b3957612b38613ded565b5b612b44848285613ba6565b509392505050565b600081359050612b5b8161431d565b92915050565b600081359050612b7081614334565b92915050565b600081519050612b8581614334565b92915050565b600081359050612b9a8161434b565b92915050565b600081359050612baf81614362565b92915050565b600081519050612bc481614362565b92915050565b600082601f830112612bdf57612bde613de8565b5b8135612bef848260208601612b0a565b91505092915050565b600081359050612c0781614379565b92915050565b600060208284031215612c2357612c22613df7565b5b6000612c3184828501612b4c565b91505092915050565b60008060408385031215612c5157612c50613df7565b5b6000612c5f85828601612b4c565b9250506020612c7085828601612b4c565b9150509250929050565b600080600060608486031215612c9357612c92613df7565b5b6000612ca186828701612b4c565b9350506020612cb286828701612b4c565b9250506040612cc386828701612bf8565b9150509250925092565b60008060008060808587031215612ce757612ce6613df7565b5b6000612cf587828801612b4c565b9450506020612d0687828801612b4c565b9350506040612d1787828801612bf8565b925050606085013567ffffffffffffffff811115612d3857612d37613df2565b5b612d4487828801612bca565b91505092959194509250565b60008060408385031215612d6757612d66613df7565b5b6000612d7585828601612b4c565b9250506020612d8685828601612b61565b9150509250929050565b60008060408385031215612da757612da6613df7565b5b6000612db585828601612b4c565b9250506020612dc685828601612bf8565b9150509250929050565b600060208284031215612de657612de5613df7565b5b6000612df484828501612b76565b91505092915050565b600060208284031215612e1357612e12613df7565b5b6000612e2184828501612b8b565b91505092915050565b60008060408385031215612e4157612e40613df7565b5b6000612e4f85828601612b8b565b9250506020612e6085828601612b8b565b9150509250929050565b600060208284031215612e8057612e7f613df7565b5b6000612e8e84828501612ba0565b91505092915050565b600060208284031215612ead57612eac613df7565b5b6000612ebb84828501612bb5565b91505092915050565b600060208284031215612eda57612ed9613df7565b5b600082013567ffffffffffffffff811115612ef857612ef7613df2565b5b612f0484828501612bca565b91505092915050565b600060208284031215612f2357612f22613df7565b5b6000612f3184828501612bf8565b91505092915050565b612f4381613af7565b82525050565b612f5a612f5582613af7565b613c94565b82525050565b612f6981613b09565b82525050565b612f7881613b15565b82525050565b612f8f612f8a82613b15565b613ca6565b82525050565b612f9e81613b1f565b82525050565b6000612faf826137f7565b612fb9818561380d565b9350612fc9818560208601613bb5565b612fd281613dfc565b840191505092915050565b612fee612fe982613b82565b613c94565b82525050565b6000612fff82613802565b613009818561381e565b9350613019818560208601613bb5565b61302281613dfc565b840191505092915050565b600061303882613802565b613042818561382f565b9350613052818560208601613bb5565b80840191505092915050565b600061306b60328361381e565b915061307682613e27565b604082019050919050565b600061308e601c8361381e565b915061309982613e76565b602082019050919050565b60006130b160238361381e565b91506130bc82613e9f565b604082019050919050565b60006130d460248361381e565b91506130df82613eee565b604082019050919050565b60006130f760198361381e565b915061310282613f3d565b602082019050919050565b600061311a602c8361381e565b915061312582613f66565b604082019050919050565b600061313d60388361381e565b915061314882613fb5565b604082019050919050565b6000613160602a8361381e565b915061316b82614004565b604082019050919050565b600061318360298361381e565b915061318e82614053565b604082019050919050565b60006131a660108361381e565b91506131b1826140a2565b602082019050919050565b60006131c960208361381e565b91506131d4826140cb565b602082019050919050565b60006131ec60318361381e565b91506131f7826140f4565b604082019050919050565b600061320f602c8361381e565b915061321a82614143565b604082019050919050565b600061323260298361381e565b915061323d82614192565b604082019050919050565b6000613255602f8361381e565b9150613260826141e1565b604082019050919050565b600061327860218361381e565b915061328382614230565b604082019050919050565b600061329b60318361381e565b91506132a68261427f565b604082019050919050565b60006132be60288361381e565b91506132c9826142ce565b604082019050919050565b6132dd81613b6b565b82525050565b6132f46132ef82613b6b565b613cc2565b82525050565b60006133068284612f49565b60148201915081905092915050565b60006133218284612f7e565b60208201915081905092915050565b600061333c8285612fdd565b60148201915061334c82846132e3565b6020820191508190509392505050565b6000613368828561302d565b9150613374828461302d565b91508190509392505050565b600061338c82846132e3565b60208201915081905092915050565b60006020820190506133b06000830184612f3a565b92915050565b60006080820190506133cb6000830187612f3a565b6133d86020830186612f3a565b6133e560408301856132d4565b81810360608301526133f78184612fa4565b905095945050505050565b600061010082019050613418600083018b612f3a565b613425602083018a6132d4565b6134326040830189612f6f565b61343f6060830188612f3a565b61344c6080830187612f95565b61345960a08301866132d4565b61346660c08301856132d4565b81810360e08301526134788184612fa4565b90509998505050505050505050565b600060608201905061349c6000830186612f3a565b6134a960208301856132d4565b81810360408301526134bb8184612fa4565b9050949350505050565b60006020820190506134da6000830184612f60565b92915050565b60006020820190506134f56000830184612f6f565b92915050565b600060208201905081810360008301526135158184612ff4565b905092915050565b600060208201905081810360008301526135368161305e565b9050919050565b6000602082019050818103600083015261355681613081565b9050919050565b60006020820190508181036000830152613576816130a4565b9050919050565b60006020820190508181036000830152613596816130c7565b9050919050565b600060208201905081810360008301526135b6816130ea565b9050919050565b600060208201905081810360008301526135d68161310d565b9050919050565b600060208201905081810360008301526135f681613130565b9050919050565b6000602082019050818103600083015261361681613153565b9050919050565b6000602082019050818103600083015261363681613176565b9050919050565b6000602082019050818103600083015261365681613199565b9050919050565b60006020820190508181036000830152613676816131bc565b9050919050565b60006020820190508181036000830152613696816131df565b9050919050565b600060208201905081810360008301526136b681613202565b9050919050565b600060208201905081810360008301526136d681613225565b9050919050565b600060208201905081810360008301526136f681613248565b9050919050565b600060208201905081810360008301526137168161326b565b9050919050565b600060208201905081810360008301526137368161328e565b9050919050565b60006020820190508181036000830152613756816132b1565b9050919050565b600060208201905061377260008301846132d4565b92915050565b600060408201905061378d60008301856132d4565b61379a6020830184612f3a565b9392505050565b60006137ab6137bc565b90506137b78282613c1a565b919050565b6000604051905090565b600067ffffffffffffffff8211156137e1576137e0613db9565b5b6137ea82613dfc565b9050602081019050919050565b600081519050919050565b600081519050919050565b600082825260208201905092915050565b600082825260208201905092915050565b600081905092915050565b600061384582613b6b565b915061385083613b6b565b9250827fffffffffffffffffffffffffffffffffffffffffffffffffffffffffffffffff0382111561388557613884613cfd565b5b828201905092915050565b600061389b82613b75565b91506138a683613b75565b92508260ff038211156138bc576138bb613cfd565b5b828201905092915050565b60006138d282613b6b565b91506138dd83613b6b565b9250826138ed576138ec613d2c565b5b828204905092915050565b6000808291508390505b60018511156139425780860481111561391e5761391d613cfd565b5b600185161561392d5780820291505b808102905061393b85613e1a565b9450613902565b94509492505050565b600061395682613b6b565b915061396183613b6b565b925061398e7fffffffffffffffffffffffffffffffffffffffffffffffffffffffffffffffff8484613996565b905092915050565b6000826139a65760019050613a62565b816139b45760009050613a62565b81600181146139ca57600281146139d457613a03565b6001915050613a62565b60ff8411156139e6576139e5613cfd565b5b8360020a9150848211156139fd576139fc613cfd565b5b50613a62565b5060208310610133831016604e8410600b8410161715613a385782820a905083811115613a3357613a32613cfd565b5b613a62565b613a4584848460016138f8565b92509050818404811115613a5c57613a5b613cfd565b5b81810290505b9392505050565b6000613a7482613b6b565b9150613a7f83613b6b565b9250817fffffffffffffffffffffffffffffffffffffffffffffffffffffffffffffffff0483118215151615613ab857613ab7613cfd565b5b828202905092915050565b6000613ace82613b6b565b9150613ad983613b6b565b925082821015613aec57613aeb613cfd565b5b828203905092915050565b6000613b0282613b4b565b9050919050565b60008115159050919050565b6000819050919050565b60007fffffffff0000000000000000000000000000000000000000000000000000000082169050919050565b600073ffffffffffffffffffffffffffffffffffffffff82169050919050565b6000819050919050565b600060ff82169050919050565b6000613b8d82613b94565b9050919050565b6000613b9f82613b4b565b9050919050565b82818337600083830152505050565b60005b83811015613bd3578082015181840152602081019050613bb8565b83811115613be2576000848401525b50505050565b60006002820490506001821680613c0057607f821691505b60208210811415613c1457613c13613d5b565b5b50919050565b613c2382613dfc565b810181811067ffffffffffffffff82111715613c4257613c41613db9565b5b80604052505050565b6000613c5682613b6b565b91507fffffffffffffffffffffffffffffffffffffffffffffffffffffffffffffffff821415613c8957613c88613cfd565b5b600182019050919050565b6000613c9f82613cb0565b9050919050565b6000819050919050565b6000613cbb82613e0d565b9050919050565b6000819050919050565b6000613cd782613b6b565b9150613ce283613b6b565b925082613cf257613cf1613d2c565b5b828206905092915050565b7f4e487b7100000000000000000000000000000000000000000000000000000000600052601160045260246000fd5b7f4e487b7100000000000000000000000000000000000000000000000000000000600052601260045260246000fd5b7f4e487b7100000000000000000000000000000000000000000000000000000000600052602260045260246000fd5b7f4e487b7100000000000000000000000000000000000000000000000000000000600052603260045260246000fd5b7f4e487b7100000000000000000000000000000000000000000000000000000000600052604160045260246000fd5b600080fd5b600080fd5b600080fd5b600080fd5b6000601f19601f8301169050919050565b60008160601b9050919050565b60008160011c9050919050565b7f4552433732313a207472616e7366657220746f206e6f6e20455243373231526560008201527f63656976657220696d706c656d656e7465720000000000000000000000000000602082015250565b7f4552433732313a20746f6b656e20616c7265616479206d696e74656400000000600082015250565b7f756e61626c6520746f207472616e73666572416e6443616c6c20746f206f726160008201527f636c650000000000000000000000000000000000000000000000000000000000602082015250565b7f4552433732313a207472616e7366657220746f20746865207a65726f2061646460008201527f7265737300000000000000000000000000000000000000000000000000000000602082015250565b7f4552433732313a20617070726f766520746f2063616c6c657200000000000000600082015250565b7f4552433732313a206f70657261746f7220717565727920666f72206e6f6e657860008201527f697374656e7420746f6b656e0000000000000000000000000000000000000000602082015250565b7f4552433732313a20617070726f76652063616c6c6572206973206e6f74206f7760008201527f6e6572206e6f7220617070726f76656420666f7220616c6c0000000000000000602082015250565b7f4552433732313a2062616c616e636520717565727920666f7220746865207a6560008201527f726f206164647265737300000000000000000000000000000000000000000000602082015250565b7f4552433732313a206f776e657220717565727920666f72206e6f6e657869737460008201527f656e7420746f6b656e0000000000000000000000000000000000000000000000602082015250565b7f494e56414c49445f544f4b454e5f494400000000000000000000000000000000600082015250565b7f4552433732313a206d696e7420746f20746865207a65726f2061646472657373600082015250565b7f45524337323155524953746f726167653a2055524920717565727920666f722060008201527f6e6f6e6578697374656e7420746f6b656e000000000000000000000000000000602082015250565b7f4552433732313a20617070726f76656420717565727920666f72206e6f6e657860008201527f697374656e7420746f6b656e0000000000000000000000000000000000000000602082015250565b7f4552433732313a207472616e73666572206f6620746f6b656e2074686174206960008201527f73206e6f74206f776e0000000000000000000000000000000000000000000000602082015250565b7f4552433732314d657461646174613a2055524920717565727920666f72206e6f60008201527f6e6578697374656e7420746f6b656e0000000000000000000000000000000000602082015250565b7f4552433732313a20617070726f76616c20746f2063757272656e74206f776e6560008201527f7200000000000000000000000000000000000000000000000000000000000000602082015250565b7f4552433732313a207472616e736665722063616c6c6572206973206e6f74206f60008201527f776e6572206e6f7220617070726f766564000000000000000000000000000000602082015250565b7f536f75726365206d75737420626520746865206f7261636c65206f662074686560008201527f2072657175657374000000000000000000000000000000000000000000000000602082015250565b61432681613af7565b811461433157600080fd5b50565b61433d81613b09565b811461434857600080fd5b50565b61435481613b15565b811461435f57600080fd5b50565b61436b81613b1f565b811461437657600080fd5b50565b61438281613b6b565b811461438d57600080fd5b5056fea26469706673582212201f47d52afd5c4d90821e78d8b50c26701438e61e7d7928feb7267448d838b27a64736f6c63430008060033",
  "linkReferences": {},
  "deployedLinkReferences": {}
}