{
  "_format": "hh-sol-artifact-1",
  "contractName": "BridgedNft",
  "sourceName": "contracts/BridgedNft.sol",
  "abi": [
    {
      "inputs": [
        {
          "internalType": "address",
          "name": "_wrapped",
          "type": "address"
        }
      ],
      "stateMutability": "nonpayable",
      "type": "constructor"
    },
    {
      "anonymous": false,
      "inputs": [
        {
          "indexed": true,
          "internalType": "address",
          "name": "owner",
          "type": "address"
        },
        {
          "indexed": true,
          "internalType": "address",
          "name": "approved",
          "type": "address"
        },
        {
          "indexed": true,
          "internalType": "uint256",
          "name": "tokenId",
          "type": "uint256"
        }
      ],
      "name": "Approval",
      "type": "event"
    },
    {
      "anonymous": false,
      "inputs": [
        {
          "indexed": true,
          "internalType": "address",
          "name": "owner",
          "type": "address"
        },
        {
          "indexed": true,
          "internalType": "address",
          "name": "operator",
          "type": "address"
        },
        {
          "indexed": false,
          "internalType": "bool",
          "name": "approved",
          "type": "bool"
        }
      ],
      "name": "ApprovalForAll",
      "type": "event"
    },
    {
      "anonymous": false,
      "inputs": [
        {
          "indexed": true,
          "internalType": "bytes32",
          "name": "id",
          "type": "bytes32"
        }
      ],
      "name": "ChainlinkCancelled",
      "type": "event"
    },
    {
      "anonymous": false,
      "inputs": [
        {
          "indexed": true,
          "internalType": "bytes32",
          "name": "id",
          "type": "bytes32"
        }
      ],
      "name": "ChainlinkFulfilled",
      "type": "event"
    },
    {
      "anonymous": false,
      "inputs": [
        {
          "indexed": true,
          "internalType": "bytes32",
          "name": "id",
          "type": "bytes32"
        }
      ],
      "name": "ChainlinkRequested",
      "type": "event"
    },
    {
      "anonymous": false,
      "inputs": [
        {
          "indexed": true,
          "internalType": "address",
          "name": "from",
          "type": "address"
        },
        {
          "indexed": true,
          "internalType": "address",
          "name": "to",
          "type": "address"
        },
        {
          "indexed": true,
          "internalType": "uint256",
          "name": "tokenId",
          "type": "uint256"
        }
      ],
      "name": "Transfer",
      "type": "event"
    },
    {
      "inputs": [
        {
          "internalType": "address",
          "name": "to",
          "type": "address"
        },
        {
          "internalType": "uint256",
          "name": "tokenId",
          "type": "uint256"
        }
      ],
      "name": "approve",
      "outputs": [],
      "stateMutability": "nonpayable",
      "type": "function"
    },
    {
      "inputs": [
        {
          "internalType": "address",
          "name": "owner",
          "type": "address"
        }
      ],
      "name": "balanceOf",
      "outputs": [
        {
          "internalType": "uint256",
          "name": "",
          "type": "uint256"
        }
      ],
      "stateMutability": "view",
      "type": "function"
    },
    {
      "inputs": [
        {
          "internalType": "bytes32",
          "name": "",
          "type": "bytes32"
        }
      ],
      "name": "confirms",
      "outputs": [
        {
          "internalType": "uint256",
          "name": "id",
          "type": "uint256"
        },
        {
          "internalType": "address",
          "name": "minter",
          "type": "address"
        }
      ],
      "stateMutability": "view",
      "type": "function"
    },
    {
      "inputs": [],
      "name": "fee",
      "outputs": [
        {
          "internalType": "uint256",
          "name": "",
          "type": "uint256"
        }
      ],
      "stateMutability": "view",
      "type": "function"
    },
    {
      "inputs": [
        {
          "internalType": "bytes32",
          "name": "_requestId",
          "type": "bytes32"
        },
        {
          "internalType": "uint256",
          "name": "_result",
          "type": "uint256"
        }
      ],
      "name": "fulfill",
      "outputs": [],
      "stateMutability": "nonpayable",
      "type": "function"
    },
    {
      "inputs": [
        {
          "internalType": "uint256",
          "name": "tokenId",
          "type": "uint256"
        }
      ],
      "name": "getApproved",
      "outputs": [
        {
          "internalType": "address",
          "name": "",
          "type": "address"
        }
      ],
      "stateMutability": "view",
      "type": "function"
    },
    {
      "inputs": [
        {
          "internalType": "address",
          "name": "owner",
          "type": "address"
        },
        {
          "internalType": "address",
          "name": "operator",
          "type": "address"
        }
      ],
      "name": "isApprovedForAll",
      "outputs": [
        {
          "internalType": "bool",
          "name": "",
          "type": "bool"
        }
      ],
      "stateMutability": "view",
      "type": "function"
    },
    {
      "inputs": [],
      "name": "jobId",
      "outputs": [
        {
          "internalType": "bytes32",
          "name": "",
          "type": "bytes32"
        }
      ],
      "stateMutability": "view",
      "type": "function"
    },
    {
      "inputs": [
        {
          "internalType": "uint256",
          "name": "id",
          "type": "uint256"
        }
      ],
      "name": "mint",
      "outputs": [],
      "stateMutability": "nonpayable",
      "type": "function"
    },
    {
      "inputs": [],
      "name": "name",
      "outputs": [
        {
          "internalType": "string",
          "name": "",
          "type": "string"
        }
      ],
      "stateMutability": "view",
      "type": "function"
    },
    {
      "inputs": [],
      "name": "oracle",
      "outputs": [
        {
          "internalType": "address",
          "name": "",
          "type": "address"
        }
      ],
      "stateMutability": "view",
      "type": "function"
    },
    {
      "inputs": [],
      "name": "oracleManager",
      "outputs": [
        {
          "internalType": "address",
          "name": "",
          "type": "address"
        }
      ],
      "stateMutability": "view",
      "type": "function"
    },
    {
      "inputs": [
        {
          "internalType": "uint256",
          "name": "tokenId",
          "type": "uint256"
        }
      ],
      "name": "ownerOf",
      "outputs": [
        {
          "internalType": "address",
          "name": "",
          "type": "address"
        }
      ],
      "stateMutability": "view",
      "type": "function"
    },
    {
      "inputs": [
        {
          "internalType": "uint256",
          "name": "",
          "type": "uint256"
        }
      ],
      "name": "params",
      "outputs": [
        {
          "internalType": "bytes32",
          "name": "",
          "type": "bytes32"
        }
      ],
      "stateMutability": "view",
      "type": "function"
    },
    {
      "inputs": [
        {
          "internalType": "address",
          "name": "from",
          "type": "address"
        },
        {
          "internalType": "address",
          "name": "to",
          "type": "address"
        },
        {
          "internalType": "uint256",
          "name": "tokenId",
          "type": "uint256"
        }
      ],
      "name": "safeTransferFrom",
      "outputs": [],
      "stateMutability": "nonpayable",
      "type": "function"
    },
    {
      "inputs": [
        {
          "internalType": "address",
          "name": "from",
          "type": "address"
        },
        {
          "internalType": "address",
          "name": "to",
          "type": "address"
        },
        {
          "internalType": "uint256",
          "name": "tokenId",
          "type": "uint256"
        },
        {
          "internalType": "bytes",
          "name": "_data",
          "type": "bytes"
        }
      ],
      "name": "safeTransferFrom",
      "outputs": [],
      "stateMutability": "nonpayable",
      "type": "function"
    },
    {
      "inputs": [
        {
          "internalType": "address",
          "name": "operator",
          "type": "address"
        },
        {
          "internalType": "bool",
          "name": "approved",
          "type": "bool"
        }
      ],
      "name": "setApprovalForAll",
      "outputs": [],
      "stateMutability": "nonpayable",
      "type": "function"
    },
    {
      "inputs": [
        {
          "internalType": "uint256",
          "name": "newFee",
          "type": "uint256"
        }
      ],
      "name": "setFee",
      "outputs": [],
      "stateMutability": "nonpayable",
      "type": "function"
    },
    {
      "inputs": [
        {
          "internalType": "string",
          "name": "newId",
          "type": "string"
        }
      ],
      "name": "setJobId",
      "outputs": [],
      "stateMutability": "nonpayable",
      "type": "function"
    },
    {
      "inputs": [
        {
          "internalType": "address",
          "name": "newOracle",
          "type": "address"
        }
      ],
      "name": "setOracle",
      "outputs": [],
      "stateMutability": "nonpayable",
      "type": "function"
    },
    {
      "inputs": [
        {
          "internalType": "address",
          "name": "newManager",
          "type": "address"
        }
      ],
      "name": "setOracleManager",
      "outputs": [],
      "stateMutability": "nonpayable",
      "type": "function"
    },
    {
      "inputs": [
        {
          "internalType": "bytes4",
          "name": "interfaceId",
          "type": "bytes4"
        }
      ],
      "name": "supportsInterface",
      "outputs": [
        {
          "internalType": "bool",
          "name": "",
          "type": "bool"
        }
      ],
      "stateMutability": "view",
      "type": "function"
    },
    {
      "inputs": [],
      "name": "symbol",
      "outputs": [
        {
          "internalType": "string",
          "name": "",
          "type": "string"
        }
      ],
      "stateMutability": "view",
      "type": "function"
    },
    {
      "inputs": [
        {
          "internalType": "bytes32",
          "name": "value",
          "type": "bytes32"
        }
      ],
      "name": "toStr",
      "outputs": [
        {
          "internalType": "string",
          "name": "",
          "type": "string"
        }
      ],
      "stateMutability": "pure",
      "type": "function"
    },
    {
      "inputs": [
        {
          "internalType": "bytes",
          "name": "data",
          "type": "bytes"
        }
      ],
      "name": "toStr",
      "outputs": [
        {
          "internalType": "string",
          "name": "",
          "type": "string"
        }
      ],
      "stateMutability": "pure",
      "type": "function"
    },
    {
      "inputs": [
        {
          "internalType": "address",
          "name": "account",
          "type": "address"
        }
      ],
      "name": "toStr",
      "outputs": [
        {
          "internalType": "string",
          "name": "",
          "type": "string"
        }
      ],
      "stateMutability": "pure",
      "type": "function"
    },
    {
      "inputs": [
        {
          "internalType": "uint256",
          "name": "value",
          "type": "uint256"
        }
      ],
      "name": "toStr",
      "outputs": [
        {
          "internalType": "string",
          "name": "",
          "type": "string"
        }
      ],
      "stateMutability": "pure",
      "type": "function"
    },
    {
      "inputs": [
        {
          "internalType": "uint256",
          "name": "tokenId",
          "type": "uint256"
        }
      ],
      "name": "tokenURI",
      "outputs": [
        {
          "internalType": "string",
          "name": "",
          "type": "string"
        }
      ],
      "stateMutability": "view",
      "type": "function"
    },
    {
      "inputs": [
        {
          "internalType": "address",
          "name": "from",
          "type": "address"
        },
        {
          "internalType": "address",
          "name": "to",
          "type": "address"
        },
        {
          "internalType": "uint256",
          "name": "tokenId",
          "type": "uint256"
        }
      ],
      "name": "transferFrom",
      "outputs": [],
      "stateMutability": "nonpayable",
      "type": "function"
    },
    {
      "inputs": [],
      "name": "wrapped",
      "outputs": [
        {
          "internalType": "address",
          "name": "",
          "type": "address"
        }
      ],
      "stateMutability": "view",
      "type": "function"
    }
  ],
  "bytecode": "0x60806040526001600b557f6537646631626461623062343438643261666364636562313562383930333435600e55739c18b429c89395ff036b84bbd95a2d7de171d3d2600f60006101000a81548173ffffffffffffffffffffffffffffffffffffffff021916908373ffffffffffffffffffffffffffffffffffffffff1602179055503480156200008f57600080fd5b50604051620050c2380380620050c28339818101604052810190620000b5919062000423565b6040518060400160405280600981526020017f5363617065204e465400000000000000000000000000000000000000000000008152506040518060400160405280600681526020017f53434150455300000000000000000000000000000000000000000000000000008152508160009080519060200190620001399291906200035c565b508060019080519060200190620001529291906200035c565b505050620001656200027060201b60201c565b600073ffffffffffffffffffffffffffffffffffffffff168173ffffffffffffffffffffffffffffffffffffffff161415620001d8576040517f08c379a0000000000000000000000000000000000000000000000000000000008152600401620001cf906200047c565b60405180910390fd5b80600d60006101000a81548173ffffffffffffffffffffffffffffffffffffffff021916908373ffffffffffffffffffffffffffffffffffffffff16021790555033601360006101000a81548173ffffffffffffffffffffffffffffffffffffffff021916908373ffffffffffffffffffffffffffffffffffffffff160217905550670de0b6b3a76400006010819055505062000590565b6200031673c89bd4e1632d3a43cb03aaad5262cbe4038bc57173ffffffffffffffffffffffffffffffffffffffff166338cc48316040518163ffffffff1660e01b815260040160206040518083038186803b158015620002cf57600080fd5b505afa158015620002e4573d6000803e3d6000fd5b505050506040513d601f19601f820116820180604052508101906200030a919062000423565b6200031860201b60201c565b565b80600960006101000a81548173ffffffffffffffffffffffffffffffffffffffff021916908373ffffffffffffffffffffffffffffffffffffffff16021790555050565b8280546200036a90620004e3565b90600052602060002090601f0160209004810192826200038e5760008555620003da565b82601f10620003a957805160ff1916838001178555620003da565b82800160010185558215620003da579182015b82811115620003d9578251825591602001919060010190620003bc565b5b509050620003e99190620003ed565b5090565b5b8082111562000408576000816000905550600101620003ee565b5090565b6000815190506200041d8162000576565b92915050565b6000602082840312156200043c576200043b62000548565b5b60006200044c848285016200040c565b91505092915050565b600062000464600c836200049e565b915062000471826200054d565b602082019050919050565b60006020820190508181036000830152620004978162000455565b9050919050565b600082825260208201905092915050565b6000620004bc82620004c3565b9050919050565b600073ffffffffffffffffffffffffffffffffffffffff82169050919050565b60006002820490506001821680620004fc57607f821691505b6020821081141562000513576200051262000519565b5b50919050565b7f4e487b7100000000000000000000000000000000000000000000000000000000600052602260045260246000fd5b600080fd5b7f5a45524f5f414444524553530000000000000000000000000000000000000000600082015250565b6200058181620004af565b81146200058d57600080fd5b50565b614b2280620005a06000396000f3fe608060405234801561001057600080fd5b50600436106101da5760003560e01c80637adbf97311610104578063a0712d68116100a2578063c87b56dd11610071578063c87b56dd14610577578063ddca3f43146105a7578063e985e9c5146105c5578063f055eca3146105f5576101da565b8063a0712d6814610505578063a22cb46514610521578063b88d4fde1461053d578063c2939d9714610559576101da565b806391d6df7d116100de57806391d6df7d1461046b578063929e2e081461049b57806395d89b41146104b75780639d2f053c146104d5576101da565b80637adbf973146104015780637dc0d1d01461041d5780638e263dff1461043b576101da565b80633730816f1161017c578063565d878c1161014b578063565d878c146103675780636352211e1461038557806369fe0e2d146103b557806370a08231146103d1576101da565b80633730816f146102e157806342842e0e146103115780634357855e1461032d57806350e70d4814610349576101da565b8063095ea7b3116101b8578063095ea7b31461025d578063129fc1c0146102795780631dcd03051461029557806323b872dd146102c5576101da565b806301ffc9a7146101df57806306fdde031461020f578063081812fc1461022d575b600080fd5b6101f960048036038101906101f491906133d3565b610626565b6040516102069190613b38565b60405180910390f35b610217610708565b6040516102249190613b6e565b60405180910390f35b610247600480360381019061024291906134bf565b61079a565b6040516102549190613a0e565b60405180910390f35b610277600480360381019061027291906132f9565b61081f565b005b610293600480360381019061028e9190613476565b610937565b005b6102af60048036038101906102aa9190613366565b6109d9565b6040516102bc9190613b6e565b60405180910390f35b6102df60048036038101906102da91906131e3565b610a0a565b005b6102fb60048036038101906102f6919061342d565b610a6a565b6040516103089190613b6e565b60405180910390f35b61032b600480360381019061032691906131e3565b610d64565b005b61034760048036038101906103429190613393565b610d84565b005b610351610f1d565b60405161035e9190613a0e565b60405180910390f35b61036f610f43565b60405161037c9190613a0e565b60405180910390f35b61039f600480360381019061039a91906134bf565b610f69565b6040516103ac9190613a0e565b60405180910390f35b6103cf60048036038101906103ca91906134bf565b61101b565b005b6103eb60048036038101906103e69190613176565b6110b5565b6040516103f89190613e30565b60405180910390f35b61041b60048036038101906104169190613176565b61116d565b005b6104256112b1565b6040516104329190613a0e565b60405180910390f35b61045560048036038101906104509190613176565b6112d7565b6040516104629190613b6e565b60405180910390f35b610485600480360381019061048091906134bf565b611308565b6040516104929190613b6e565b60405180910390f35b6104b560048036038101906104b09190613176565b611339565b005b6104bf61147d565b6040516104cc9190613b6e565b60405180910390f35b6104ef60048036038101906104ea91906134bf565b61150f565b6040516104fc9190613b53565b60405180910390f35b61051f600480360381019061051a91906134bf565b611527565b005b61053b600480360381019061053691906132b9565b6115cf565b005b61055760048036038101906105529190613236565b611750565b005b6105616117b2565b60405161056e9190613b53565b60405180910390f35b610591600480360381019061058c91906134bf565b6117b8565b60405161059e9190613b6e565b60405180910390f35b6105af61190a565b6040516105bc9190613e30565b60405180910390f35b6105df60048036038101906105da91906131a3565b611910565b6040516105ec9190613b38565b60405180910390f35b61060f600480360381019061060a9190613366565b6119a4565b60405161061d929190613e4b565b60405180910390f35b60007f80ac58cd000000000000000000000000000000000000000000000000000000007bffffffffffffffffffffffffffffffffffffffffffffffffffffffff1916827bffffffffffffffffffffffffffffffffffffffffffffffffffffffff191614806106f157507f5b5e139f000000000000000000000000000000000000000000000000000000007bffffffffffffffffffffffffffffffffffffffffffffffffffffffff1916827bffffffffffffffffffffffffffffffffffffffffffffffffffffffff1916145b806107015750610700826119e8565b5b9050919050565b606060008054610717906142a8565b80601f0160208091040260200160405190810160405280929190818152602001828054610743906142a8565b80156107905780601f1061076557610100808354040283529160200191610790565b820191906000526020600020905b81548152906001019060200180831161077357829003601f168201915b5050505050905090565b60006107a582611a52565b6107e4576040517f08c379a00000000000000000000000000000000000000000000000000000000081526004016107db90613d50565b60405180910390fd5b6004600083815260200190815260200160002060009054906101000a900473ffffffffffffffffffffffffffffffffffffffff169050919050565b600061082a82610f69565b90508073ffffffffffffffffffffffffffffffffffffffff168373ffffffffffffffffffffffffffffffffffffffff16141561089b576040517f08c379a000000000000000000000000000000000000000000000000000000000815260040161089290613db0565b60405180910390fd5b8073ffffffffffffffffffffffffffffffffffffffff166108ba611abe565b73ffffffffffffffffffffffffffffffffffffffff1614806108e957506108e8816108e3611abe565b611910565b5b610928576040517f08c379a000000000000000000000000000000000000000000000000000000000815260040161091f90613c50565b60405180910390fd5b6109328383611ac6565b505050565b3373ffffffffffffffffffffffffffffffffffffffff16601360009054906101000a900473ffffffffffffffffffffffffffffffffffffffff1673ffffffffffffffffffffffffffffffffffffffff16146109c7576040517f08c379a00000000000000000000000000000000000000000000000000000000081526004016109be90613c90565b60405180910390fd5b6109d081611b7f565b600e8190555050565b6060610a03826040516020016109ef9190613930565b604051602081830303815290604052610a6a565b9050919050565b610a1b610a15611abe565b82611ba9565b610a5a576040517f08c379a0000000000000000000000000000000000000000000000000000000008152600401610a5190613dd0565b60405180910390fd5b610a65838383611c87565b505050565b606060006040518060400160405280601081526020017f30313233343536373839616263646566000000000000000000000000000000008152509050600060028451610ab69190614136565b6002610ac29190613f3e565b67ffffffffffffffff811115610adb57610ada614479565b5b6040519080825280601f01601f191660200182016040528015610b0d5781602001600182028036833780820191505090505b5090507f300000000000000000000000000000000000000000000000000000000000000081600081518110610b4557610b4461444a565b5b60200101907effffffffffffffffffffffffffffffffffffffffffffffffffffffffffffff1916908160001a9053507f780000000000000000000000000000000000000000000000000000000000000081600181518110610ba957610ba861444a565b5b60200101907effffffffffffffffffffffffffffffffffffffffffffffffffffffffffffff1916908160001a90535060005b8451811015610d5957826004868381518110610bfa57610bf961444a565b5b602001015160f81c60f81b7effffffffffffffffffffffffffffffffffffffffffffffffffffffffffffff1916901c60f81c60ff1681518110610c4057610c3f61444a565b5b602001015160f81c60f81b82600283610c599190614136565b6002610c659190613f3e565b81518110610c7657610c7561444a565b5b60200101907effffffffffffffffffffffffffffffffffffffffffffffffffffffffffffff1916908160001a90535082600f60f81b868381518110610cbe57610cbd61444a565b5b602001015160f81c60f81b1660f81c60ff1681518110610ce157610ce061444a565b5b602001015160f81c60f81b82600283610cfa9190614136565b6003610d069190613f3e565b81518110610d1757610d1661444a565b5b60200101907effffffffffffffffffffffffffffffffffffffffffffffffffffffffffffff1916908160001a9053508080610d519061430b565b915050610bdb565b508092505050919050565b610d7f83838360405180602001604052806000815250611750565b505050565b81600c600082815260200190815260200160002060009054906101000a900473ffffffffffffffffffffffffffffffffffffffff1673ffffffffffffffffffffffffffffffffffffffff163373ffffffffffffffffffffffffffffffffffffffff1614610e26576040517f08c379a0000000000000000000000000000000000000000000000000000000008152600401610e1d90613df0565b60405180910390fd5b600c600082815260200190815260200160002060006101000a81549073ffffffffffffffffffffffffffffffffffffffff0219169055807f7cc135e0cebb02c3480ae5d74d377283180a2601f8f644edf7987b009316c63a60405160405180910390a26000601260008581526020019081526020016000209050610ed28160010160009054906101000a900473ffffffffffffffffffffffffffffffffffffffff168260000154611ee3565b601260008581526020019081526020016000206000808201600090556001820160006101000a81549073ffffffffffffffffffffffffffffffffffffffff0219169055505050505050565b600d60009054906101000a900473ffffffffffffffffffffffffffffffffffffffff1681565b601360009054906101000a900473ffffffffffffffffffffffffffffffffffffffff1681565b6000806002600084815260200190815260200160002060009054906101000a900473ffffffffffffffffffffffffffffffffffffffff169050600073ffffffffffffffffffffffffffffffffffffffff168173ffffffffffffffffffffffffffffffffffffffff161415611012576040517f08c379a000000000000000000000000000000000000000000000000000000000815260040161100990613cd0565b60405180910390fd5b80915050919050565b3373ffffffffffffffffffffffffffffffffffffffff16601360009054906101000a900473ffffffffffffffffffffffffffffffffffffffff1673ffffffffffffffffffffffffffffffffffffffff16146110ab576040517f08c379a00000000000000000000000000000000000000000000000000000000081526004016110a290613c90565b60405180910390fd5b8060108190555050565b60008073ffffffffffffffffffffffffffffffffffffffff168273ffffffffffffffffffffffffffffffffffffffff161415611126576040517f08c379a000000000000000000000000000000000000000000000000000000000815260040161111d90613cb0565b60405180910390fd5b600360008373ffffffffffffffffffffffffffffffffffffffff1673ffffffffffffffffffffffffffffffffffffffff168152602001908152602001600020549050919050565b3373ffffffffffffffffffffffffffffffffffffffff16601360009054906101000a900473ffffffffffffffffffffffffffffffffffffffff1673ffffffffffffffffffffffffffffffffffffffff16146111fd576040517f08c379a00000000000000000000000000000000000000000000000000000000081526004016111f490613c90565b60405180910390fd5b600073ffffffffffffffffffffffffffffffffffffffff168173ffffffffffffffffffffffffffffffffffffffff16141561126d576040517f08c379a000000000000000000000000000000000000000000000000000000000815260040161126490613c70565b60405180910390fd5b80600f60006101000a81548173ffffffffffffffffffffffffffffffffffffffff021916908373ffffffffffffffffffffffffffffffffffffffff16021790555050565b600f60009054906101000a900473ffffffffffffffffffffffffffffffffffffffff1681565b6060611301826040516020016112ed9190613915565b604051602081830303815290604052610a6a565b9050919050565b60606113328260405160200161131e91906139f3565b604051602081830303815290604052610a6a565b9050919050565b3373ffffffffffffffffffffffffffffffffffffffff16601360009054906101000a900473ffffffffffffffffffffffffffffffffffffffff1673ffffffffffffffffffffffffffffffffffffffff16146113c9576040517f08c379a00000000000000000000000000000000000000000000000000000000081526004016113c090613c90565b60405180910390fd5b600073ffffffffffffffffffffffffffffffffffffffff168173ffffffffffffffffffffffffffffffffffffffff161415611439576040517f08c379a000000000000000000000000000000000000000000000000000000000815260040161143090613c70565b60405180910390fd5b80601360006101000a81548173ffffffffffffffffffffffffffffffffffffffff021916908373ffffffffffffffffffffffffffffffffffffffff16021790555050565b60606001805461148c906142a8565b80601f01602080910402602001604051908101604052809291908181526020018280546114b8906142a8565b80156115055780601f106114da57610100808354040283529160200191611505565b820191906000526020600020905b8154815290600101906020018083116114e857829003601f168201915b5050505050905090565b60116020528060005260406000206000915090505481565b6000811161156a576040517f08c379a000000000000000000000000000000000000000000000000000000000815260040161156190613cf0565b60405180910390fd5b6000801b6011600083815260200190815260200160002054146115c2576040517f08c379a00000000000000000000000000000000000000000000000000000000081526004016115b990613e10565b60405180910390fd5b6115cc33826120b1565b50565b6115d7611abe565b73ffffffffffffffffffffffffffffffffffffffff168273ffffffffffffffffffffffffffffffffffffffff161415611645576040517f08c379a000000000000000000000000000000000000000000000000000000000815260040161163c90613c10565b60405180910390fd5b8060056000611652611abe565b73ffffffffffffffffffffffffffffffffffffffff1673ffffffffffffffffffffffffffffffffffffffff16815260200190815260200160002060008473ffffffffffffffffffffffffffffffffffffffff1673ffffffffffffffffffffffffffffffffffffffff16815260200190815260200160002060006101000a81548160ff0219169083151502179055508173ffffffffffffffffffffffffffffffffffffffff166116ff611abe565b73ffffffffffffffffffffffffffffffffffffffff167f17307eab39ab6107e8899845ad3d59bd9653f200f220920489ca2b5937696c31836040516117449190613b38565b60405180910390a35050565b61176161175b611abe565b83611ba9565b6117a0576040517f08c379a000000000000000000000000000000000000000000000000000000000815260040161179790613dd0565b60405180910390fd5b6117ac84848484612332565b50505050565b600e5481565b60606117c382611a52565b611802576040517f08c379a00000000000000000000000000000000000000000000000000000000081526004016117f990613d30565b60405180910390fd5b6000600660008481526020019081526020016000208054611822906142a8565b80601f016020809104026020016040519081016040528092919081815260200182805461184e906142a8565b801561189b5780601f106118705761010080835404028352916020019161189b565b820191906000526020600020905b81548152906001019060200180831161187e57829003601f168201915b5050505050905060006118ac61238e565b90506000815114156118c2578192505050611905565b6000825111156118f75780826040516020016118df929190613977565b60405160208183030381529060405292505050611905565b611900846123a5565b925050505b919050565b60105481565b6000600560008473ffffffffffffffffffffffffffffffffffffffff1673ffffffffffffffffffffffffffffffffffffffff16815260200190815260200160002060008373ffffffffffffffffffffffffffffffffffffffff1673ffffffffffffffffffffffffffffffffffffffff16815260200190815260200160002060009054906101000a900460ff16905092915050565b60126020528060005260406000206000915090508060000154908060010160009054906101000a900473ffffffffffffffffffffffffffffffffffffffff16905082565b60007f01ffc9a7000000000000000000000000000000000000000000000000000000007bffffffffffffffffffffffffffffffffffffffffffffffffffffffff1916827bffffffffffffffffffffffffffffffffffffffffffffffffffffffff1916149050919050565b60008073ffffffffffffffffffffffffffffffffffffffff166002600084815260200190815260200160002060009054906101000a900473ffffffffffffffffffffffffffffffffffffffff1673ffffffffffffffffffffffffffffffffffffffff1614159050919050565b600033905090565b816004600083815260200190815260200160002060006101000a81548173ffffffffffffffffffffffffffffffffffffffff021916908373ffffffffffffffffffffffffffffffffffffffff160217905550808273ffffffffffffffffffffffffffffffffffffffff16611b3983610f69565b73ffffffffffffffffffffffffffffffffffffffff167f8c5be1e5ebec7d5bd14f71427d1e84f3dd0314c0f7b2291e5b200ac8c7c3b92560405160405180910390a45050565b600080829050600081511415611b9b576000801b915050611ba4565b60208301519150505b919050565b6000611bb482611a52565b611bf3576040517f08c379a0000000000000000000000000000000000000000000000000000000008152600401611bea90613c30565b60405180910390fd5b6000611bfe83610f69565b90508073ffffffffffffffffffffffffffffffffffffffff168473ffffffffffffffffffffffffffffffffffffffff161480611c6d57508373ffffffffffffffffffffffffffffffffffffffff16611c558461079a565b73ffffffffffffffffffffffffffffffffffffffff16145b80611c7e5750611c7d8185611910565b5b91505092915050565b8273ffffffffffffffffffffffffffffffffffffffff16611ca782610f69565b73ffffffffffffffffffffffffffffffffffffffff1614611cfd576040517f08c379a0000000000000000000000000000000000000000000000000000000008152600401611cf490613d70565b60405180910390fd5b600073ffffffffffffffffffffffffffffffffffffffff168273ffffffffffffffffffffffffffffffffffffffff161415611d6d576040517f08c379a0000000000000000000000000000000000000000000000000000000008152600401611d6490613bf0565b60405180910390fd5b611d7883838361244c565b611d83600082611ac6565b6001600360008573ffffffffffffffffffffffffffffffffffffffff1673ffffffffffffffffffffffffffffffffffffffff1681526020019081526020016000206000828254611dd39190614190565b925050819055506001600360008473ffffffffffffffffffffffffffffffffffffffff1673ffffffffffffffffffffffffffffffffffffffff1681526020019081526020016000206000828254611e2a9190613f3e565b92505081905550816002600083815260200190815260200160002060006101000a81548173ffffffffffffffffffffffffffffffffffffffff021916908373ffffffffffffffffffffffffffffffffffffffff160217905550808273ffffffffffffffffffffffffffffffffffffffff168473ffffffffffffffffffffffffffffffffffffffff167fddf252ad1be2c89b69c2b068fc378daa952ba7f163c4a11628f55a4df523b3ef60405160405180910390a4505050565b600073ffffffffffffffffffffffffffffffffffffffff168273ffffffffffffffffffffffffffffffffffffffff161415611f53576040517f08c379a0000000000000000000000000000000000000000000000000000000008152600401611f4a90613d10565b60405180910390fd5b611f5c81611a52565b15611f9c576040517f08c379a0000000000000000000000000000000000000000000000000000000008152600401611f9390613bb0565b60405180910390fd5b611fa86000838361244c565b6001600360008473ffffffffffffffffffffffffffffffffffffffff1673ffffffffffffffffffffffffffffffffffffffff1681526020019081526020016000206000828254611ff89190613f3e565b92505081905550816002600083815260200190815260200160002060006101000a81548173ffffffffffffffffffffffffffffffffffffffff021916908373ffffffffffffffffffffffffffffffffffffffff160217905550808273ffffffffffffffffffffffffffffffffffffffff16600073ffffffffffffffffffffffffffffffffffffffff167fddf252ad1be2c89b69c2b068fc378daa952ba7f163c4a11628f55a4df523b3ef60405160405180910390a45050565b60006120c7600e5430634357855e60e01b612451565b90506000604051806060016040528060218152602001614acc602191399050600061219a826120f5876112d7565b6040518060400160405280600981526020017f26777261707065643d0000000000000000000000000000000000000000000000815250612156600d60009054906101000a900473ffffffffffffffffffffffffffffffffffffffff166112d7565b6040518060400160405280600981526020017f26746f6b656e49443d00000000000000000000000000000000000000000000008152506121958a611308565b612482565b90506121e66040518060400160405280600381526020017f676574000000000000000000000000000000000000000000000000000000000081525082856124ba9092919063ffffffff16565b6122656040518060400160405280600481526020017f70617468000000000000000000000000000000000000000000000000000000008152506040518060400160405280600781526020017f746f6b656e494400000000000000000000000000000000000000000000000000815250856124ba9092919063ffffffff16565b6000612296600f60009054906101000a900473ffffffffffffffffffffffffffffffffffffffff16856010546124ed565b905060405180604001604052808681526020018773ffffffffffffffffffffffffffffffffffffffff16815250601260008381526020019081526020016000206000820151816000015560208201518160010160006101000a81548173ffffffffffffffffffffffffffffffffffffffff021916908373ffffffffffffffffffffffffffffffffffffffff160217905550905050505050505050565b61233d848484611c87565b6123498484848461250d565b612388576040517f08c379a000000000000000000000000000000000000000000000000000000000815260040161237f90613b90565b60405180910390fd5b50505050565b606060405180602001604052806000815250905090565b60606123b082611a52565b6123ef576040517f08c379a00000000000000000000000000000000000000000000000000000000081526004016123e690613d90565b60405180910390fd5b60006123f961238e565b905060008151116124195760405180602001604052806000815250612444565b80612423846126a4565b604051602001612434929190613977565b6040516020818303038152906040525b915050919050565b505050565b612459612f7c565b612461612f7c565b61247885858584612805909392919063ffffffff16565b9150509392505050565b606086868686868660405160200161249f9695949392919061399b565b60405160208183030381529060405290509695505050505050565b6124d18284608001516128b590919063ffffffff16565b6124e88184608001516128b590919063ffffffff16565b505050565b60006125048484846001634042994660e01b6128da565b90509392505050565b600061252e8473ffffffffffffffffffffffffffffffffffffffff16612b42565b15612697578373ffffffffffffffffffffffffffffffffffffffff1663150b7a02612557611abe565b8786866040518563ffffffff1660e01b81526004016125799493929190613a29565b602060405180830381600087803b15801561259357600080fd5b505af19250505080156125c457506040513d601f19601f820116820180604052508101906125c19190613400565b60015b612647573d80600081146125f4576040519150601f19603f3d011682016040523d82523d6000602084013e6125f9565b606091505b5060008151141561263f576040517f08c379a000000000000000000000000000000000000000000000000000000000815260040161263690613b90565b60405180910390fd5b805181602001fd5b63150b7a0260e01b7bffffffffffffffffffffffffffffffffffffffffffffffffffffffff1916817bffffffffffffffffffffffffffffffffffffffffffffffffffffffff19161491505061269c565b600190505b949350505050565b606060008214156126ec576040518060400160405280600181526020017f30000000000000000000000000000000000000000000000000000000000000008152509050612800565b600082905060005b6000821461271e5780806127079061430b565b915050600a826127179190613f94565b91506126f4565b60008167ffffffffffffffff81111561273a57612739614479565b5b6040519080825280601f01601f19166020018201604052801561276c5781602001600182028036833780820191505090505b5090505b600085146127f9576001826127859190614190565b9150600a85612794919061438c565b60306127a09190613f3e565b60f81b8183815181106127b6576127b561444a565b5b60200101907effffffffffffffffffffffffffffffffffffffffffffffffffffffffffffff1916908160001a905350600a856127f29190613f94565b9450612770565b8093505050505b919050565b61280d612f7c565b61281d8560800151610100612b55565b508385600001818152505082856020019073ffffffffffffffffffffffffffffffffffffffff16908173ffffffffffffffffffffffffffffffffffffffff16815250508185604001907bffffffffffffffffffffffffffffffffffffffffffffffffffffffff191690817bffffffffffffffffffffffffffffffffffffffffffffffffffffffff191681525050849050949350505050565b6128c28260038351612bbf565b6128d58183612d0490919063ffffffff16565b505050565b600030600b546040516020016128f192919061394b565b604051602081830303815290604052805190602001209050600b5485606001818152505085600c600083815260200190815260200160002060006101000a81548173ffffffffffffffffffffffffffffffffffffffff021916908373ffffffffffffffffffffffffffffffffffffffff160217905550807fb5e6e01e79f91267dc17b4e6314d5d4d03593d2ceee0fbb452b750bd70ea5af960405160405180910390a2600082600080886000015189602001518a604001518b606001518a8d60800151600001516040516024016129cf989796959493929190613a75565b604051602081830303815290604052907bffffffffffffffffffffffffffffffffffffffffffffffffffffffff19166020820180517bffffffffffffffffffffffffffffffffffffffffffffffffffffffff83818316178352505050509050600960009054906101000a900473ffffffffffffffffffffffffffffffffffffffff1673ffffffffffffffffffffffffffffffffffffffff16634000aea08887846040518463ffffffff1660e01b8152600401612a8d93929190613afa565b602060405180830381600087803b158015612aa757600080fd5b505af1158015612abb573d6000803e3d6000fd5b505050506040513d601f19601f82011682018060405250810190612adf9190613339565b612b1e576040517f08c379a0000000000000000000000000000000000000000000000000000000008152600401612b1590613bd0565b60405180910390fd5b6001600b6000828254612b319190613f3e565b925050819055505095945050505050565b600080823b905060008111915050919050565b612b5d612fe9565b6000602083612b6c919061438c565b14612b9857602082612b7e919061438c565b6020612b8a9190614190565b82612b959190613f3e565b91505b81836020018181525050604051808452600081528281016020016040525082905092915050565b60178111612bec57612be68160058460ff16901b60ff161784612d2690919063ffffffff16565b50612cff565b60ff8111612c2e57612c11601860058460ff16901b1784612d2690919063ffffffff16565b50612c2881600185612d469092919063ffffffff16565b50612cfe565b61ffff8111612c7157612c54601960058460ff16901b1784612d2690919063ffffffff16565b50612c6b81600285612d469092919063ffffffff16565b50612cfd565b63ffffffff8111612cb657612c99601a60058460ff16901b1784612d2690919063ffffffff16565b50612cb081600485612d469092919063ffffffff16565b50612cfc565b67ffffffffffffffff8111612cfb57612ce2601b60058460ff16901b1784612d2690919063ffffffff16565b50612cf981600885612d469092919063ffffffff16565b505b5b5b5b5b505050565b612d0c612fe9565b612d1e83846000015151848551612d68565b905092915050565b612d2e612fe9565b612d3e8384600001515184612e57565b905092915050565b612d4e612fe9565b612d5f848560000151518585612eae565b90509392505050565b612d70612fe9565b8251821115612d7e57600080fd5b84602001518285612d8f9190613f3e565b1115612dc457612dc3856002612db488602001518887612daf9190613f3e565b612f3c565b612dbe9190614136565b612f58565b5b600080865180518760208301019350808887011115612de35787860182525b60208701925050505b60208410612e2a5780518252602082612e059190613f3e565b9150602081612e149190613f3e565b9050602084612e239190614190565b9350612dec565b60006001856020036101000a03905080198251168184511681811785525050508692505050949350505050565b612e5f612fe9565b83602001518310612e8557612e848460028660200151612e7f9190614136565b612f58565b5b8351805160208583010184815381861415612ea1576001820183525b5050508390509392505050565b612eb6612fe9565b84602001518483612ec79190613f3e565b1115612eef57612eee8560028685612edf9190613f3e565b612ee99190614136565b612f58565b5b6000600183610100612f019190614018565b612f0b9190614190565b90508551838682010185831982511617815281518588011115612f2e5784870182525b505085915050949350505050565b600081831115612f4e57829050612f52565b8190505b92915050565b600082600001519050612f6b8383612b55565b50612f768382612d04565b50505050565b6040518060a0016040528060008019168152602001600073ffffffffffffffffffffffffffffffffffffffff16815260200160007bffffffffffffffffffffffffffffffffffffffffffffffffffffffff1916815260200160008152602001612fe3612fe9565b81525090565b604051806040016040528060608152602001600081525090565b600061301661301184613e99565b613e74565b905082815260208101848484011115613032576130316144ad565b5b61303d848285614266565b509392505050565b600061305861305384613eca565b613e74565b905082815260208101848484011115613074576130736144ad565b5b61307f848285614266565b509392505050565b60008135905061309681614a58565b92915050565b6000813590506130ab81614a6f565b92915050565b6000815190506130c081614a6f565b92915050565b6000813590506130d581614a86565b92915050565b6000813590506130ea81614a9d565b92915050565b6000815190506130ff81614a9d565b92915050565b600082601f83011261311a576131196144a8565b5b813561312a848260208601613003565b91505092915050565b600082601f830112613148576131476144a8565b5b8135613158848260208601613045565b91505092915050565b60008135905061317081614ab4565b92915050565b60006020828403121561318c5761318b6144b7565b5b600061319a84828501613087565b91505092915050565b600080604083850312156131ba576131b96144b7565b5b60006131c885828601613087565b92505060206131d985828601613087565b9150509250929050565b6000806000606084860312156131fc576131fb6144b7565b5b600061320a86828701613087565b935050602061321b86828701613087565b925050604061322c86828701613161565b9150509250925092565b600080600080608085870312156132505761324f6144b7565b5b600061325e87828801613087565b945050602061326f87828801613087565b935050604061328087828801613161565b925050606085013567ffffffffffffffff8111156132a1576132a06144b2565b5b6132ad87828801613105565b91505092959194509250565b600080604083850312156132d0576132cf6144b7565b5b60006132de85828601613087565b92505060206132ef8582860161309c565b9150509250929050565b600080604083850312156133105761330f6144b7565b5b600061331e85828601613087565b925050602061332f85828601613161565b9150509250929050565b60006020828403121561334f5761334e6144b7565b5b600061335d848285016130b1565b91505092915050565b60006020828403121561337c5761337b6144b7565b5b600061338a848285016130c6565b91505092915050565b600080604083850312156133aa576133a96144b7565b5b60006133b8858286016130c6565b92505060206133c985828601613161565b9150509250929050565b6000602082840312156133e9576133e86144b7565b5b60006133f7848285016130db565b91505092915050565b600060208284031215613416576134156144b7565b5b6000613424848285016130f0565b91505092915050565b600060208284031215613443576134426144b7565b5b600082013567ffffffffffffffff811115613461576134606144b2565b5b61346d84828501613105565b91505092915050565b60006020828403121561348c5761348b6144b7565b5b600082013567ffffffffffffffff8111156134aa576134a96144b2565b5b6134b684828501613133565b91505092915050565b6000602082840312156134d5576134d46144b7565b5b60006134e384828501613161565b91505092915050565b6134f5816141c4565b82525050565b61350c613507826141c4565b614354565b82525050565b61351b816141d6565b82525050565b61352a816141e2565b82525050565b61354161353c826141e2565b614366565b82525050565b613550816141ec565b82525050565b600061356182613efb565b61356b8185613f11565b935061357b818560208601614275565b613584816144bc565b840191505092915050565b6135a061359b82614242565b614354565b82525050565b60006135b182613f06565b6135bb8185613f22565b93506135cb818560208601614275565b6135d4816144bc565b840191505092915050565b60006135ea82613f06565b6135f48185613f33565b9350613604818560208601614275565b80840191505092915050565b600061361d603283613f22565b9150613628826144e7565b604082019050919050565b6000613640601c83613f22565b915061364b82614536565b602082019050919050565b6000613663602383613f22565b915061366e8261455f565b604082019050919050565b6000613686602483613f22565b9150613691826145ae565b604082019050919050565b60006136a9601983613f22565b91506136b4826145fd565b602082019050919050565b60006136cc602c83613f22565b91506136d782614626565b604082019050919050565b60006136ef603883613f22565b91506136fa82614675565b604082019050919050565b6000613712600c83613f22565b915061371d826146c4565b602082019050919050565b6000613735600983613f22565b9150613740826146ed565b602082019050919050565b6000613758602a83613f22565b915061376382614716565b604082019050919050565b600061377b602983613f22565b915061378682614765565b604082019050919050565b600061379e601083613f22565b91506137a9826147b4565b602082019050919050565b60006137c1602083613f22565b91506137cc826147dd565b602082019050919050565b60006137e4603183613f22565b91506137ef82614806565b604082019050919050565b6000613807602c83613f22565b915061381282614855565b604082019050919050565b600061382a602983613f22565b9150613835826148a4565b604082019050919050565b600061384d602f83613f22565b9150613858826148f3565b604082019050919050565b6000613870602183613f22565b915061387b82614942565b604082019050919050565b6000613893603183613f22565b915061389e82614991565b604082019050919050565b60006138b6602883613f22565b91506138c1826149e0565b604082019050919050565b60006138d9600e83613f22565b91506138e482614a2f565b602082019050919050565b6138f881614238565b82525050565b61390f61390a82614238565b614382565b82525050565b600061392182846134fb565b60148201915081905092915050565b600061393c8284613530565b60208201915081905092915050565b6000613957828561358f565b60148201915061396782846138fe565b6020820191508190509392505050565b600061398382856135df565b915061398f82846135df565b91508190509392505050565b60006139a782896135df565b91506139b382886135df565b91506139bf82876135df565b91506139cb82866135df565b91506139d782856135df565b91506139e382846135df565b9150819050979650505050505050565b60006139ff82846138fe565b60208201915081905092915050565b6000602082019050613a2360008301846134ec565b92915050565b6000608082019050613a3e60008301876134ec565b613a4b60208301866134ec565b613a5860408301856138ef565b8181036060830152613a6a8184613556565b905095945050505050565b600061010082019050613a8b600083018b6134ec565b613a98602083018a6138ef565b613aa56040830189613521565b613ab260608301886134ec565b613abf6080830187613547565b613acc60a08301866138ef565b613ad960c08301856138ef565b81810360e0830152613aeb8184613556565b90509998505050505050505050565b6000606082019050613b0f60008301866134ec565b613b1c60208301856138ef565b8181036040830152613b2e8184613556565b9050949350505050565b6000602082019050613b4d6000830184613512565b92915050565b6000602082019050613b686000830184613521565b92915050565b60006020820190508181036000830152613b8881846135a6565b905092915050565b60006020820190508181036000830152613ba981613610565b9050919050565b60006020820190508181036000830152613bc981613633565b9050919050565b60006020820190508181036000830152613be981613656565b9050919050565b60006020820190508181036000830152613c0981613679565b9050919050565b60006020820190508181036000830152613c298161369c565b9050919050565b60006020820190508181036000830152613c49816136bf565b9050919050565b60006020820190508181036000830152613c69816136e2565b9050919050565b60006020820190508181036000830152613c8981613705565b9050919050565b60006020820190508181036000830152613ca981613728565b9050919050565b60006020820190508181036000830152613cc98161374b565b9050919050565b60006020820190508181036000830152613ce98161376e565b9050919050565b60006020820190508181036000830152613d0981613791565b9050919050565b60006020820190508181036000830152613d29816137b4565b9050919050565b60006020820190508181036000830152613d49816137d7565b9050919050565b60006020820190508181036000830152613d69816137fa565b9050919050565b60006020820190508181036000830152613d898161381d565b9050919050565b60006020820190508181036000830152613da981613840565b9050919050565b60006020820190508181036000830152613dc981613863565b9050919050565b60006020820190508181036000830152613de981613886565b9050919050565b60006020820190508181036000830152613e09816138a9565b9050919050565b60006020820190508181036000830152613e29816138cc565b9050919050565b6000602082019050613e4560008301846138ef565b92915050565b6000604082019050613e6060008301856138ef565b613e6d60208301846134ec565b9392505050565b6000613e7e613e8f565b9050613e8a82826142da565b919050565b6000604051905090565b600067ffffffffffffffff821115613eb457613eb3614479565b5b613ebd826144bc565b9050602081019050919050565b600067ffffffffffffffff821115613ee557613ee4614479565b5b613eee826144bc565b9050602081019050919050565b600081519050919050565b600081519050919050565b600082825260208201905092915050565b600082825260208201905092915050565b600081905092915050565b6000613f4982614238565b9150613f5483614238565b9250827fffffffffffffffffffffffffffffffffffffffffffffffffffffffffffffffff03821115613f8957613f886143bd565b5b828201905092915050565b6000613f9f82614238565b9150613faa83614238565b925082613fba57613fb96143ec565b5b828204905092915050565b6000808291508390505b600185111561400f57808604811115613feb57613fea6143bd565b5b6001851615613ffa5780820291505b8081029050614008856144da565b9450613fcf565b94509492505050565b600061402382614238565b915061402e83614238565b925061405b7fffffffffffffffffffffffffffffffffffffffffffffffffffffffffffffffff8484614063565b905092915050565b600082614073576001905061412f565b81614081576000905061412f565b816001811461409757600281146140a1576140d0565b600191505061412f565b60ff8411156140b3576140b26143bd565b5b8360020a9150848211156140ca576140c96143bd565b5b5061412f565b5060208310610133831016604e8410600b84101617156141055782820a905083811115614100576140ff6143bd565b5b61412f565b6141128484846001613fc5565b92509050818404811115614129576141286143bd565b5b81810290505b9392505050565b600061414182614238565b915061414c83614238565b9250817fffffffffffffffffffffffffffffffffffffffffffffffffffffffffffffffff0483118215151615614185576141846143bd565b5b828202905092915050565b600061419b82614238565b91506141a683614238565b9250828210156141b9576141b86143bd565b5b828203905092915050565b60006141cf82614218565b9050919050565b60008115159050919050565b6000819050919050565b60007fffffffff0000000000000000000000000000000000000000000000000000000082169050919050565b600073ffffffffffffffffffffffffffffffffffffffff82169050919050565b6000819050919050565b600061424d82614254565b9050919050565b600061425f82614218565b9050919050565b82818337600083830152505050565b60005b83811015614293578082015181840152602081019050614278565b838111156142a2576000848401525b50505050565b600060028204905060018216806142c057607f821691505b602082108114156142d4576142d361441b565b5b50919050565b6142e3826144bc565b810181811067ffffffffffffffff8211171561430257614301614479565b5b80604052505050565b600061431682614238565b91507fffffffffffffffffffffffffffffffffffffffffffffffffffffffffffffffff821415614349576143486143bd565b5b600182019050919050565b600061435f82614370565b9050919050565b6000819050919050565b600061437b826144cd565b9050919050565b6000819050919050565b600061439782614238565b91506143a283614238565b9250826143b2576143b16143ec565b5b828206905092915050565b7f4e487b7100000000000000000000000000000000000000000000000000000000600052601160045260246000fd5b7f4e487b7100000000000000000000000000000000000000000000000000000000600052601260045260246000fd5b7f4e487b7100000000000000000000000000000000000000000000000000000000600052602260045260246000fd5b7f4e487b7100000000000000000000000000000000000000000000000000000000600052603260045260246000fd5b7f4e487b7100000000000000000000000000000000000000000000000000000000600052604160045260246000fd5b600080fd5b600080fd5b600080fd5b600080fd5b6000601f19601f8301169050919050565b60008160601b9050919050565b60008160011c9050919050565b7f4552433732313a207472616e7366657220746f206e6f6e20455243373231526560008201527f63656976657220696d706c656d656e7465720000000000000000000000000000602082015250565b7f4552433732313a20746f6b656e20616c7265616479206d696e74656400000000600082015250565b7f756e61626c6520746f207472616e73666572416e6443616c6c20746f206f726160008201527f636c650000000000000000000000000000000000000000000000000000000000602082015250565b7f4552433732313a207472616e7366657220746f20746865207a65726f2061646460008201527f7265737300000000000000000000000000000000000000000000000000000000602082015250565b7f4552433732313a20617070726f766520746f2063616c6c657200000000000000600082015250565b7f4552433732313a206f70657261746f7220717565727920666f72206e6f6e657860008201527f697374656e7420746f6b656e0000000000000000000000000000000000000000602082015250565b7f4552433732313a20617070726f76652063616c6c6572206973206e6f74206f7760008201527f6e6572206e6f7220617070726f76656420666f7220616c6c0000000000000000602082015250565b7f5a45524f5f414444524553530000000000000000000000000000000000000000600082015250565b7f464f5242494444454e0000000000000000000000000000000000000000000000600082015250565b7f4552433732313a2062616c616e636520717565727920666f7220746865207a6560008201527f726f206164647265737300000000000000000000000000000000000000000000602082015250565b7f4552433732313a206f776e657220717565727920666f72206e6f6e657869737460008201527f656e7420746f6b656e0000000000000000000000000000000000000000000000602082015250565b7f494e56414c49445f544f4b454e5f494400000000000000000000000000000000600082015250565b7f4552433732313a206d696e7420746f20746865207a65726f2061646472657373600082015250565b7f45524337323155524953746f726167653a2055524920717565727920666f722060008201527f6e6f6e6578697374656e7420746f6b656e000000000000000000000000000000602082015250565b7f4552433732313a20617070726f76656420717565727920666f72206e6f6e657860008201527f697374656e7420746f6b656e0000000000000000000000000000000000000000602082015250565b7f4552433732313a207472616e73666572206f6620746f6b656e2074686174206960008201527f73206e6f74206f776e0000000000000000000000000000000000000000000000602082015250565b7f4552433732314d657461646174613a2055524920717565727920666f72206e6f60008201527f6e6578697374656e7420746f6b656e0000000000000000000000000000000000602082015250565b7f4552433732313a20617070726f76616c20746f2063757272656e74206f776e6560008201527f7200000000000000000000000000000000000000000000000000000000000000602082015250565b7f4552433732313a207472616e736665722063616c6c6572206973206e6f74206f60008201527f776e6572206e6f7220617070726f766564000000000000000000000000000000602082015250565b7f536f75726365206d75737420626520746865206f7261636c65206f662074686560008201527f2072657175657374000000000000000000000000000000000000000000000000602082015250565b7f414c52454144595f4d494e544544000000000000000000000000000000000000600082015250565b614a61816141c4565b8114614a6c57600080fd5b50565b614a78816141d6565b8114614a8357600080fd5b50565b614a8f816141e2565b8114614a9a57600080fd5b50565b614aa6816141ec565b8114614ab157600080fd5b50565b614abd81614238565b8114614ac857600080fd5b5056fe687474703a2f2f3134352e31342e3135372e34383a383038303f6d696e7465723da26469706673582212207a68aff2374ac4bfdb68ecddb72a254e4666084d79864d24deaad5168f2d0b7f64736f6c63430008060033",
  "linkReferences": {},
  "deployedLinkReferences": {}
}