{
  "_format": "hh-sol-artifact-1",
  "contractName": "BridgedNft",
  "sourceName": "contracts/BridgedNft.sol",
  "abi": [
    {
      "inputs": [
        {
          "internalType": "address",
          "name": "_wrapped",
          "type": "address"
        }
      ],
      "stateMutability": "nonpayable",
      "type": "constructor"
    },
    {
      "anonymous": false,
      "inputs": [
        {
          "indexed": true,
          "internalType": "address",
          "name": "owner",
          "type": "address"
        },
        {
          "indexed": true,
          "internalType": "address",
          "name": "approved",
          "type": "address"
        },
        {
          "indexed": true,
          "internalType": "uint256",
          "name": "tokenId",
          "type": "uint256"
        }
      ],
      "name": "Approval",
      "type": "event"
    },
    {
      "anonymous": false,
      "inputs": [
        {
          "indexed": true,
          "internalType": "address",
          "name": "owner",
          "type": "address"
        },
        {
          "indexed": true,
          "internalType": "address",
          "name": "operator",
          "type": "address"
        },
        {
          "indexed": false,
          "internalType": "bool",
          "name": "approved",
          "type": "bool"
        }
      ],
      "name": "ApprovalForAll",
      "type": "event"
    },
    {
      "anonymous": false,
      "inputs": [
        {
          "indexed": true,
          "internalType": "bytes32",
          "name": "id",
          "type": "bytes32"
        }
      ],
      "name": "ChainlinkCancelled",
      "type": "event"
    },
    {
      "anonymous": false,
      "inputs": [
        {
          "indexed": true,
          "internalType": "bytes32",
          "name": "id",
          "type": "bytes32"
        }
      ],
      "name": "ChainlinkFulfilled",
      "type": "event"
    },
    {
      "anonymous": false,
      "inputs": [
        {
          "indexed": true,
          "internalType": "bytes32",
          "name": "id",
          "type": "bytes32"
        }
      ],
      "name": "ChainlinkRequested",
      "type": "event"
    },
    {
      "anonymous": false,
      "inputs": [
        {
          "indexed": true,
          "internalType": "address",
          "name": "from",
          "type": "address"
        },
        {
          "indexed": true,
          "internalType": "address",
          "name": "to",
          "type": "address"
        },
        {
          "indexed": true,
          "internalType": "uint256",
          "name": "tokenId",
          "type": "uint256"
        }
      ],
      "name": "Transfer",
      "type": "event"
    },
    {
      "inputs": [
        {
          "internalType": "address",
          "name": "to",
          "type": "address"
        },
        {
          "internalType": "uint256",
          "name": "tokenId",
          "type": "uint256"
        }
      ],
      "name": "approve",
      "outputs": [],
      "stateMutability": "nonpayable",
      "type": "function"
    },
    {
      "inputs": [
        {
          "internalType": "address",
          "name": "owner",
          "type": "address"
        }
      ],
      "name": "balanceOf",
      "outputs": [
        {
          "internalType": "uint256",
          "name": "",
          "type": "uint256"
        }
      ],
      "stateMutability": "view",
      "type": "function"
    },
    {
      "inputs": [
        {
          "internalType": "bytes32",
          "name": "",
          "type": "bytes32"
        }
      ],
      "name": "confirms",
      "outputs": [
        {
          "internalType": "uint256",
          "name": "id",
          "type": "uint256"
        },
        {
          "internalType": "address",
          "name": "minter",
          "type": "address"
        }
      ],
      "stateMutability": "view",
      "type": "function"
    },
    {
      "inputs": [],
      "name": "fee",
      "outputs": [
        {
          "internalType": "uint256",
          "name": "",
          "type": "uint256"
        }
      ],
      "stateMutability": "view",
      "type": "function"
    },
    {
      "inputs": [
        {
          "internalType": "bytes32",
          "name": "_requestId",
          "type": "bytes32"
        },
        {
          "internalType": "bytes32",
          "name": "_result",
          "type": "bytes32"
        }
      ],
      "name": "fulfill",
      "outputs": [],
      "stateMutability": "nonpayable",
      "type": "function"
    },
    {
      "inputs": [
        {
          "internalType": "uint256",
          "name": "tokenId",
          "type": "uint256"
        }
      ],
      "name": "getApproved",
      "outputs": [
        {
          "internalType": "address",
          "name": "",
          "type": "address"
        }
      ],
      "stateMutability": "view",
      "type": "function"
    },
    {
      "inputs": [
        {
          "internalType": "address",
          "name": "owner",
          "type": "address"
        },
        {
          "internalType": "address",
          "name": "operator",
          "type": "address"
        }
      ],
      "name": "isApprovedForAll",
      "outputs": [
        {
          "internalType": "bool",
          "name": "",
          "type": "bool"
        }
      ],
      "stateMutability": "view",
      "type": "function"
    },
    {
      "inputs": [],
      "name": "jobId",
      "outputs": [
        {
          "internalType": "bytes32",
          "name": "",
          "type": "bytes32"
        }
      ],
      "stateMutability": "view",
      "type": "function"
    },
    {
      "inputs": [
        {
          "internalType": "uint256",
          "name": "id",
          "type": "uint256"
        }
      ],
      "name": "mint",
      "outputs": [],
      "stateMutability": "nonpayable",
      "type": "function"
    },
    {
      "inputs": [],
      "name": "name",
      "outputs": [
        {
          "internalType": "string",
          "name": "",
          "type": "string"
        }
      ],
      "stateMutability": "view",
      "type": "function"
    },
    {
      "inputs": [],
      "name": "oracle",
      "outputs": [
        {
          "internalType": "address",
          "name": "",
          "type": "address"
        }
      ],
      "stateMutability": "view",
      "type": "function"
    },
    {
      "inputs": [],
      "name": "oracleManager",
      "outputs": [
        {
          "internalType": "address",
          "name": "",
          "type": "address"
        }
      ],
      "stateMutability": "view",
      "type": "function"
    },
    {
      "inputs": [
        {
          "internalType": "uint256",
          "name": "tokenId",
          "type": "uint256"
        }
      ],
      "name": "ownerOf",
      "outputs": [
        {
          "internalType": "address",
          "name": "",
          "type": "address"
        }
      ],
      "stateMutability": "view",
      "type": "function"
    },
    {
      "inputs": [
        {
          "internalType": "uint256",
          "name": "",
          "type": "uint256"
        }
      ],
      "name": "params",
      "outputs": [
        {
          "internalType": "bytes32",
          "name": "",
          "type": "bytes32"
        }
      ],
      "stateMutability": "view",
      "type": "function"
    },
    {
      "inputs": [
        {
          "internalType": "address",
          "name": "from",
          "type": "address"
        },
        {
          "internalType": "address",
          "name": "to",
          "type": "address"
        },
        {
          "internalType": "uint256",
          "name": "tokenId",
          "type": "uint256"
        }
      ],
      "name": "safeTransferFrom",
      "outputs": [],
      "stateMutability": "nonpayable",
      "type": "function"
    },
    {
      "inputs": [
        {
          "internalType": "address",
          "name": "from",
          "type": "address"
        },
        {
          "internalType": "address",
          "name": "to",
          "type": "address"
        },
        {
          "internalType": "uint256",
          "name": "tokenId",
          "type": "uint256"
        },
        {
          "internalType": "bytes",
          "name": "_data",
          "type": "bytes"
        }
      ],
      "name": "safeTransferFrom",
      "outputs": [],
      "stateMutability": "nonpayable",
      "type": "function"
    },
    {
      "inputs": [
        {
          "internalType": "address",
          "name": "operator",
          "type": "address"
        },
        {
          "internalType": "bool",
          "name": "approved",
          "type": "bool"
        }
      ],
      "name": "setApprovalForAll",
      "outputs": [],
      "stateMutability": "nonpayable",
      "type": "function"
    },
    {
      "inputs": [
        {
          "internalType": "uint256",
          "name": "newFee",
          "type": "uint256"
        }
      ],
      "name": "setFee",
      "outputs": [],
      "stateMutability": "nonpayable",
      "type": "function"
    },
    {
      "inputs": [
        {
          "internalType": "string",
          "name": "newId",
          "type": "string"
        }
      ],
      "name": "setJobId",
      "outputs": [],
      "stateMutability": "nonpayable",
      "type": "function"
    },
    {
      "inputs": [
        {
          "internalType": "address",
          "name": "newOracle",
          "type": "address"
        }
      ],
      "name": "setOracle",
      "outputs": [],
      "stateMutability": "nonpayable",
      "type": "function"
    },
    {
      "inputs": [
        {
          "internalType": "address",
          "name": "newManager",
          "type": "address"
        }
      ],
      "name": "setOracleManager",
      "outputs": [],
      "stateMutability": "nonpayable",
      "type": "function"
    },
    {
      "inputs": [
        {
          "internalType": "bytes4",
          "name": "interfaceId",
          "type": "bytes4"
        }
      ],
      "name": "supportsInterface",
      "outputs": [
        {
          "internalType": "bool",
          "name": "",
          "type": "bool"
        }
      ],
      "stateMutability": "view",
      "type": "function"
    },
    {
      "inputs": [],
      "name": "symbol",
      "outputs": [
        {
          "internalType": "string",
          "name": "",
          "type": "string"
        }
      ],
      "stateMutability": "view",
      "type": "function"
    },
    {
      "inputs": [
        {
          "internalType": "bytes32",
          "name": "value",
          "type": "bytes32"
        }
      ],
      "name": "toStr",
      "outputs": [
        {
          "internalType": "string",
          "name": "",
          "type": "string"
        }
      ],
      "stateMutability": "pure",
      "type": "function"
    },
    {
      "inputs": [
        {
          "internalType": "bytes",
          "name": "data",
          "type": "bytes"
        }
      ],
      "name": "toStr",
      "outputs": [
        {
          "internalType": "string",
          "name": "",
          "type": "string"
        }
      ],
      "stateMutability": "pure",
      "type": "function"
    },
    {
      "inputs": [
        {
          "internalType": "address",
          "name": "account",
          "type": "address"
        }
      ],
      "name": "toStr",
      "outputs": [
        {
          "internalType": "string",
          "name": "",
          "type": "string"
        }
      ],
      "stateMutability": "pure",
      "type": "function"
    },
    {
      "inputs": [
        {
          "internalType": "uint256",
          "name": "value",
          "type": "uint256"
        }
      ],
      "name": "toStr",
      "outputs": [
        {
          "internalType": "string",
          "name": "",
          "type": "string"
        }
      ],
      "stateMutability": "pure",
      "type": "function"
    },
    {
      "inputs": [
        {
          "internalType": "uint256",
          "name": "tokenId",
          "type": "uint256"
        }
      ],
      "name": "tokenURI",
      "outputs": [
        {
          "internalType": "string",
          "name": "",
          "type": "string"
        }
      ],
      "stateMutability": "view",
      "type": "function"
    },
    {
      "inputs": [
        {
          "internalType": "address",
          "name": "from",
          "type": "address"
        },
        {
          "internalType": "address",
          "name": "to",
          "type": "address"
        },
        {
          "internalType": "uint256",
          "name": "tokenId",
          "type": "uint256"
        }
      ],
      "name": "transferFrom",
      "outputs": [],
      "stateMutability": "nonpayable",
      "type": "function"
    },
    {
      "inputs": [],
      "name": "wrapped",
      "outputs": [
        {
          "internalType": "address",
          "name": "",
          "type": "address"
        }
      ],
      "stateMutability": "view",
      "type": "function"
    }
  ],
  "bytecode": "0x60806040526001600b557f6136663130306135626165353461633961616235633333313164373836313239600e557352e2c651e41d608d6991a66d709ede84b93580ec600f60006101000a81548173ffffffffffffffffffffffffffffffffffffffff021916908373ffffffffffffffffffffffffffffffffffffffff1602179055503480156200008f57600080fd5b50604051620051a3380380620051a38339818101604052810190620000b5919062000414565b6040518060400160405280600981526020017f5363617065204e465400000000000000000000000000000000000000000000008152506040518060400160405280600681526020017f53434150455300000000000000000000000000000000000000000000000000008152508160009080519060200190620001399291906200034d565b508060019080519060200190620001529291906200034d565b505050620001656200026160201b60201c565b600073ffffffffffffffffffffffffffffffffffffffff168173ffffffffffffffffffffffffffffffffffffffff161415620001d8576040517f08c379a0000000000000000000000000000000000000000000000000000000008152600401620001cf906200046d565b60405180910390fd5b80600d60006101000a81548173ffffffffffffffffffffffffffffffffffffffff021916908373ffffffffffffffffffffffffffffffffffffffff16021790555033601360006101000a81548173ffffffffffffffffffffffffffffffffffffffff021916908373ffffffffffffffffffffffffffffffffffffffff1602179055505062000581565b6200030773c89bd4e1632d3a43cb03aaad5262cbe4038bc57173ffffffffffffffffffffffffffffffffffffffff166338cc48316040518163ffffffff1660e01b815260040160206040518083038186803b158015620002c057600080fd5b505afa158015620002d5573d6000803e3d6000fd5b505050506040513d601f19601f82011682018060405250810190620002fb919062000414565b6200030960201b60201c565b565b80600960006101000a81548173ffffffffffffffffffffffffffffffffffffffff021916908373ffffffffffffffffffffffffffffffffffffffff16021790555050565b8280546200035b90620004d4565b90600052602060002090601f0160209004810192826200037f5760008555620003cb565b82601f106200039a57805160ff1916838001178555620003cb565b82800160010185558215620003cb579182015b82811115620003ca578251825591602001919060010190620003ad565b5b509050620003da9190620003de565b5090565b5b80821115620003f9576000816000905550600101620003df565b5090565b6000815190506200040e8162000567565b92915050565b6000602082840312156200042d576200042c62000539565b5b60006200043d84828501620003fd565b91505092915050565b600062000455600c836200048f565b915062000462826200053e565b602082019050919050565b60006020820190508181036000830152620004888162000446565b9050919050565b600082825260208201905092915050565b6000620004ad82620004b4565b9050919050565b600073ffffffffffffffffffffffffffffffffffffffff82169050919050565b60006002820490506001821680620004ed57607f821691505b602082108114156200050457620005036200050a565b5b50919050565b7f4e487b7100000000000000000000000000000000000000000000000000000000600052602260045260246000fd5b600080fd5b7f5a45524f5f414444524553530000000000000000000000000000000000000000600082015250565b6200057281620004a0565b81146200057e57600080fd5b50565b614c1280620005916000396000f3fe608060405234801561001057600080fd5b50600436106101da5760003560e01c80637adbf97311610104578063a0712d68116100a2578063c87b56dd11610071578063c87b56dd14610577578063ddca3f43146105a7578063e985e9c5146105c5578063f055eca3146105f5576101da565b8063a0712d6814610505578063a22cb46514610521578063b88d4fde1461053d578063c2939d9714610559576101da565b806391d6df7d116100de57806391d6df7d1461046b578063929e2e081461049b57806395d89b41146104b75780639d2f053c146104d5576101da565b80637adbf973146104015780637dc0d1d01461041d5780638e263dff1461043b576101da565b806323b872dd1161017c578063565d878c1161014b578063565d878c146103675780636352211e1461038557806369fe0e2d146103b557806370a08231146103d1576101da565b806323b872dd146102e15780633730816f146102fd57806342842e0e1461032d57806350e70d4814610349576101da565b8063081812fc116101b8578063081812fc14610249578063095ea7b314610279578063129fc1c0146102955780631dcd0305146102b1576101da565b806301ffc9a7146101df578063042f2b651461020f57806306fdde031461022b575b600080fd5b6101f960048036038101906101f491906134f8565b610626565b6040516102069190613c05565b60405180910390f35b610229600480360381019061022491906134b8565b610708565b005b6102336108bd565b6040516102409190613c3b565b60405180910390f35b610263600480360381019061025e91906135e4565b61094f565b6040516102709190613adb565b60405180910390f35b610293600480360381019061028e919061341e565b6109d4565b005b6102af60048036038101906102aa919061359b565b610aec565b005b6102cb60048036038101906102c6919061348b565b610b8e565b6040516102d89190613c3b565b60405180910390f35b6102fb60048036038101906102f69190613308565b610bbf565b005b61031760048036038101906103129190613552565b610c1f565b6040516103249190613c3b565b60405180910390f35b61034760048036038101906103429190613308565b610f19565b005b610351610f39565b60405161035e9190613adb565b60405180910390f35b61036f610f5f565b60405161037c9190613adb565b60405180910390f35b61039f600480360381019061039a91906135e4565b610f85565b6040516103ac9190613adb565b60405180910390f35b6103cf60048036038101906103ca91906135e4565b611037565b005b6103eb60048036038101906103e6919061329b565b6110d1565b6040516103f89190613efd565b60405180910390f35b61041b6004803603810190610416919061329b565b611189565b005b6104256112cd565b6040516104329190613adb565b60405180910390f35b6104556004803603810190610450919061329b565b6112f3565b6040516104629190613c3b565b60405180910390f35b610485600480360381019061048091906135e4565b611324565b6040516104929190613c3b565b60405180910390f35b6104b560048036038101906104b0919061329b565b611355565b005b6104bf611499565b6040516104cc9190613c3b565b60405180910390f35b6104ef60048036038101906104ea91906135e4565b61152b565b6040516104fc9190613c20565b60405180910390f35b61051f600480360381019061051a91906135e4565b611543565b005b61053b600480360381019061053691906133de565b6115eb565b005b6105576004803603810190610552919061335b565b61176c565b005b6105616117ce565b60405161056e9190613c20565b60405180910390f35b610591600480360381019061058c91906135e4565b6117d4565b60405161059e9190613c3b565b60405180910390f35b6105af611926565b6040516105bc9190613efd565b60405180910390f35b6105df60048036038101906105da91906132c8565b61192c565b6040516105ec9190613c05565b60405180910390f35b61060f600480360381019061060a919061348b565b6119c0565b60405161061d929190613f18565b60405180910390f35b60007f80ac58cd000000000000000000000000000000000000000000000000000000007bffffffffffffffffffffffffffffffffffffffffffffffffffffffff1916827bffffffffffffffffffffffffffffffffffffffffffffffffffffffff191614806106f157507f5b5e139f000000000000000000000000000000000000000000000000000000007bffffffffffffffffffffffffffffffffffffffffffffffffffffffff1916827bffffffffffffffffffffffffffffffffffffffffffffffffffffffff1916145b80610701575061070082611a04565b5b9050919050565b81600c600082815260200190815260200160002060009054906101000a900473ffffffffffffffffffffffffffffffffffffffff1673ffffffffffffffffffffffffffffffffffffffff163373ffffffffffffffffffffffffffffffffffffffff16146107aa576040517f08c379a00000000000000000000000000000000000000000000000000000000081526004016107a190613ebd565b60405180910390fd5b600c600082815260200190815260200160002060006101000a81549073ffffffffffffffffffffffffffffffffffffffff0219169055807f7cc135e0cebb02c3480ae5d74d377283180a2601f8f644edf7987b009316c63a60405160405180910390a26000601260008581526020019081526020016000209050826011600083600001548152602001908152602001600020819055506108728160010160009054906101000a900473ffffffffffffffffffffffffffffffffffffffff168260000154611a6e565b601260008581526020019081526020016000206000808201600090556001820160006101000a81549073ffffffffffffffffffffffffffffffffffffffff0219169055505050505050565b6060600080546108cc906143b9565b80601f01602080910402602001604051908101604052809291908181526020018280546108f8906143b9565b80156109455780601f1061091a57610100808354040283529160200191610945565b820191906000526020600020905b81548152906001019060200180831161092857829003601f168201915b5050505050905090565b600061095a82611c3c565b610999576040517f08c379a000000000000000000000000000000000000000000000000000000000815260040161099090613e1d565b60405180910390fd5b6004600083815260200190815260200160002060009054906101000a900473ffffffffffffffffffffffffffffffffffffffff169050919050565b60006109df82610f85565b90508073ffffffffffffffffffffffffffffffffffffffff168373ffffffffffffffffffffffffffffffffffffffff161415610a50576040517f08c379a0000000000000000000000000000000000000000000000000000000008152600401610a4790613e7d565b60405180910390fd5b8073ffffffffffffffffffffffffffffffffffffffff16610a6f611ca8565b73ffffffffffffffffffffffffffffffffffffffff161480610a9e5750610a9d81610a98611ca8565b61192c565b5b610add576040517f08c379a0000000000000000000000000000000000000000000000000000000008152600401610ad490613d1d565b60405180910390fd5b610ae78383611cb0565b505050565b3373ffffffffffffffffffffffffffffffffffffffff16601360009054906101000a900473ffffffffffffffffffffffffffffffffffffffff1673ffffffffffffffffffffffffffffffffffffffff1614610b7c576040517f08c379a0000000000000000000000000000000000000000000000000000000008152600401610b7390613d5d565b60405180910390fd5b610b8581611d69565b600e8190555050565b6060610bb882604051602001610ba49190613a55565b604051602081830303815290604052610c1f565b9050919050565b610bd0610bca611ca8565b82611d93565b610c0f576040517f08c379a0000000000000000000000000000000000000000000000000000000008152600401610c0690613e9d565b60405180910390fd5b610c1a838383611e71565b505050565b606060006040518060400160405280601081526020017f30313233343536373839616263646566000000000000000000000000000000008152509050600060028451610c6b919061423a565b6002610c77919061400b565b67ffffffffffffffff811115610c9057610c8f61458a565b5b6040519080825280601f01601f191660200182016040528015610cc25781602001600182028036833780820191505090505b5090507f300000000000000000000000000000000000000000000000000000000000000081600081518110610cfa57610cf961455b565b5b60200101907effffffffffffffffffffffffffffffffffffffffffffffffffffffffffffff1916908160001a9053507f780000000000000000000000000000000000000000000000000000000000000081600181518110610d5e57610d5d61455b565b5b60200101907effffffffffffffffffffffffffffffffffffffffffffffffffffffffffffff1916908160001a90535060005b8451811015610f0e57826004868381518110610daf57610dae61455b565b5b602001015160f81c60f81b7effffffffffffffffffffffffffffffffffffffffffffffffffffffffffffff1916901c60f81c60ff1681518110610df557610df461455b565b5b602001015160f81c60f81b82600283610e0e919061423a565b6002610e1a919061400b565b81518110610e2b57610e2a61455b565b5b60200101907effffffffffffffffffffffffffffffffffffffffffffffffffffffffffffff1916908160001a90535082600f60f81b868381518110610e7357610e7261455b565b5b602001015160f81c60f81b1660f81c60ff1681518110610e9657610e9561455b565b5b602001015160f81c60f81b82600283610eaf919061423a565b6003610ebb919061400b565b81518110610ecc57610ecb61455b565b5b60200101907effffffffffffffffffffffffffffffffffffffffffffffffffffffffffffff1916908160001a9053508080610f069061441c565b915050610d90565b508092505050919050565b610f348383836040518060200160405280600081525061176c565b505050565b600d60009054906101000a900473ffffffffffffffffffffffffffffffffffffffff1681565b601360009054906101000a900473ffffffffffffffffffffffffffffffffffffffff1681565b6000806002600084815260200190815260200160002060009054906101000a900473ffffffffffffffffffffffffffffffffffffffff169050600073ffffffffffffffffffffffffffffffffffffffff168173ffffffffffffffffffffffffffffffffffffffff16141561102e576040517f08c379a000000000000000000000000000000000000000000000000000000000815260040161102590613d9d565b60405180910390fd5b80915050919050565b3373ffffffffffffffffffffffffffffffffffffffff16601360009054906101000a900473ffffffffffffffffffffffffffffffffffffffff1673ffffffffffffffffffffffffffffffffffffffff16146110c7576040517f08c379a00000000000000000000000000000000000000000000000000000000081526004016110be90613d5d565b60405180910390fd5b8060108190555050565b60008073ffffffffffffffffffffffffffffffffffffffff168273ffffffffffffffffffffffffffffffffffffffff161415611142576040517f08c379a000000000000000000000000000000000000000000000000000000000815260040161113990613d7d565b60405180910390fd5b600360008373ffffffffffffffffffffffffffffffffffffffff1673ffffffffffffffffffffffffffffffffffffffff168152602001908152602001600020549050919050565b3373ffffffffffffffffffffffffffffffffffffffff16601360009054906101000a900473ffffffffffffffffffffffffffffffffffffffff1673ffffffffffffffffffffffffffffffffffffffff1614611219576040517f08c379a000000000000000000000000000000000000000000000000000000000815260040161121090613d5d565b60405180910390fd5b600073ffffffffffffffffffffffffffffffffffffffff168173ffffffffffffffffffffffffffffffffffffffff161415611289576040517f08c379a000000000000000000000000000000000000000000000000000000000815260040161128090613d3d565b60405180910390fd5b80600f60006101000a81548173ffffffffffffffffffffffffffffffffffffffff021916908373ffffffffffffffffffffffffffffffffffffffff16021790555050565b600f60009054906101000a900473ffffffffffffffffffffffffffffffffffffffff1681565b606061131d826040516020016113099190613a3a565b604051602081830303815290604052610c1f565b9050919050565b606061134e8260405160200161133a9190613ac0565b604051602081830303815290604052610c1f565b9050919050565b3373ffffffffffffffffffffffffffffffffffffffff16601360009054906101000a900473ffffffffffffffffffffffffffffffffffffffff1673ffffffffffffffffffffffffffffffffffffffff16146113e5576040517f08c379a00000000000000000000000000000000000000000000000000000000081526004016113dc90613d5d565b60405180910390fd5b600073ffffffffffffffffffffffffffffffffffffffff168173ffffffffffffffffffffffffffffffffffffffff161415611455576040517f08c379a000000000000000000000000000000000000000000000000000000000815260040161144c90613d3d565b60405180910390fd5b80601360006101000a81548173ffffffffffffffffffffffffffffffffffffffff021916908373ffffffffffffffffffffffffffffffffffffffff16021790555050565b6060600180546114a8906143b9565b80601f01602080910402602001604051908101604052809291908181526020018280546114d4906143b9565b80156115215780601f106114f657610100808354040283529160200191611521565b820191906000526020600020905b81548152906001019060200180831161150457829003601f168201915b5050505050905090565b60116020528060005260406000206000915090505481565b60008111611586576040517f08c379a000000000000000000000000000000000000000000000000000000000815260040161157d90613dbd565b60405180910390fd5b6000801b6011600083815260200190815260200160002054146115de576040517f08c379a00000000000000000000000000000000000000000000000000000000081526004016115d590613edd565b60405180910390fd5b6115e833826120cd565b50565b6115f3611ca8565b73ffffffffffffffffffffffffffffffffffffffff168273ffffffffffffffffffffffffffffffffffffffff161415611661576040517f08c379a000000000000000000000000000000000000000000000000000000000815260040161165890613cdd565b60405180910390fd5b806005600061166e611ca8565b73ffffffffffffffffffffffffffffffffffffffff1673ffffffffffffffffffffffffffffffffffffffff16815260200190815260200160002060008473ffffffffffffffffffffffffffffffffffffffff1673ffffffffffffffffffffffffffffffffffffffff16815260200190815260200160002060006101000a81548160ff0219169083151502179055508173ffffffffffffffffffffffffffffffffffffffff1661171b611ca8565b73ffffffffffffffffffffffffffffffffffffffff167f17307eab39ab6107e8899845ad3d59bd9653f200f220920489ca2b5937696c31836040516117609190613c05565b60405180910390a35050565b61177d611777611ca8565b83611d93565b6117bc576040517f08c379a00000000000000000000000000000000000000000000000000000000081526004016117b390613e9d565b60405180910390fd5b6117c884848484612306565b50505050565b600e5481565b60606117df82611c3c565b61181e576040517f08c379a000000000000000000000000000000000000000000000000000000000815260040161181590613dfd565b60405180910390fd5b600060066000848152602001908152602001600020805461183e906143b9565b80601f016020809104026020016040519081016040528092919081815260200182805461186a906143b9565b80156118b75780601f1061188c576101008083540402835291602001916118b7565b820191906000526020600020905b81548152906001019060200180831161189a57829003601f168201915b5050505050905060006118c8612362565b90506000815114156118de578192505050611921565b6000825111156119135780826040516020016118fb929190613a9c565b60405160208183030381529060405292505050611921565b61191c84612379565b925050505b919050565b60105481565b6000600560008473ffffffffffffffffffffffffffffffffffffffff1673ffffffffffffffffffffffffffffffffffffffff16815260200190815260200160002060008373ffffffffffffffffffffffffffffffffffffffff1673ffffffffffffffffffffffffffffffffffffffff16815260200190815260200160002060009054906101000a900460ff16905092915050565b60126020528060005260406000206000915090508060000154908060010160009054906101000a900473ffffffffffffffffffffffffffffffffffffffff16905082565b60007f01ffc9a7000000000000000000000000000000000000000000000000000000007bffffffffffffffffffffffffffffffffffffffffffffffffffffffff1916827bffffffffffffffffffffffffffffffffffffffffffffffffffffffff1916149050919050565b600073ffffffffffffffffffffffffffffffffffffffff168273ffffffffffffffffffffffffffffffffffffffff161415611ade576040517f08c379a0000000000000000000000000000000000000000000000000000000008152600401611ad590613ddd565b60405180910390fd5b611ae781611c3c565b15611b27576040517f08c379a0000000000000000000000000000000000000000000000000000000008152600401611b1e90613c7d565b60405180910390fd5b611b3360008383612420565b6001600360008473ffffffffffffffffffffffffffffffffffffffff1673ffffffffffffffffffffffffffffffffffffffff1681526020019081526020016000206000828254611b83919061400b565b92505081905550816002600083815260200190815260200160002060006101000a81548173ffffffffffffffffffffffffffffffffffffffff021916908373ffffffffffffffffffffffffffffffffffffffff160217905550808273ffffffffffffffffffffffffffffffffffffffff16600073ffffffffffffffffffffffffffffffffffffffff167fddf252ad1be2c89b69c2b068fc378daa952ba7f163c4a11628f55a4df523b3ef60405160405180910390a45050565b60008073ffffffffffffffffffffffffffffffffffffffff166002600084815260200190815260200160002060009054906101000a900473ffffffffffffffffffffffffffffffffffffffff1673ffffffffffffffffffffffffffffffffffffffff1614159050919050565b600033905090565b816004600083815260200190815260200160002060006101000a81548173ffffffffffffffffffffffffffffffffffffffff021916908373ffffffffffffffffffffffffffffffffffffffff160217905550808273ffffffffffffffffffffffffffffffffffffffff16611d2383610f85565b73ffffffffffffffffffffffffffffffffffffffff167f8c5be1e5ebec7d5bd14f71427d1e84f3dd0314c0f7b2291e5b200ac8c7c3b92560405160405180910390a45050565b600080829050600081511415611d85576000801b915050611d8e565b60208301519150505b919050565b6000611d9e82611c3c565b611ddd576040517f08c379a0000000000000000000000000000000000000000000000000000000008152600401611dd490613cfd565b60405180910390fd5b6000611de883610f85565b90508073ffffffffffffffffffffffffffffffffffffffff168473ffffffffffffffffffffffffffffffffffffffff161480611e5757508373ffffffffffffffffffffffffffffffffffffffff16611e3f8461094f565b73ffffffffffffffffffffffffffffffffffffffff16145b80611e685750611e67818561192c565b5b91505092915050565b8273ffffffffffffffffffffffffffffffffffffffff16611e9182610f85565b73ffffffffffffffffffffffffffffffffffffffff1614611ee7576040517f08c379a0000000000000000000000000000000000000000000000000000000008152600401611ede90613e3d565b60405180910390fd5b600073ffffffffffffffffffffffffffffffffffffffff168273ffffffffffffffffffffffffffffffffffffffff161415611f57576040517f08c379a0000000000000000000000000000000000000000000000000000000008152600401611f4e90613cbd565b60405180910390fd5b611f62838383612420565b611f6d600082611cb0565b6001600360008573ffffffffffffffffffffffffffffffffffffffff1673ffffffffffffffffffffffffffffffffffffffff1681526020019081526020016000206000828254611fbd9190614294565b925050819055506001600360008473ffffffffffffffffffffffffffffffffffffffff1673ffffffffffffffffffffffffffffffffffffffff1681526020019081526020016000206000828254612014919061400b565b92505081905550816002600083815260200190815260200160002060006101000a81548173ffffffffffffffffffffffffffffffffffffffff021916908373ffffffffffffffffffffffffffffffffffffffff160217905550808273ffffffffffffffffffffffffffffffffffffffff168473ffffffffffffffffffffffffffffffffffffffff167fddf252ad1be2c89b69c2b068fc378daa952ba7f163c4a11628f55a4df523b3ef60405160405180910390a4505050565b60006120e3600e543063042f2b6560e01b612425565b90506121376040518060400160405280600781526020017f746f6b656e49440000000000000000000000000000000000000000000000000081525061212784612456565b836125df9092919063ffffffff16565b6121a86040518060400160405280600681526020017f6d696e7465720000000000000000000000000000000000000000000000000000815250612198856040516020016121849190613a3a565b604051602081830303815290604052610c1f565b836125df9092919063ffffffff16565b61223b6040518060400160405280600781526020017f777261707065640000000000000000000000000000000000000000000000000081525061222b600d60009054906101000a900473ffffffffffffffffffffffffffffffffffffffff166040516020016122179190613a3a565b604051602081830303815290604052610c1f565b836125df9092919063ffffffff16565b600061226c600f60009054906101000a900473ffffffffffffffffffffffffffffffffffffffff1683601054612612565b905060405180604001604052808481526020018573ffffffffffffffffffffffffffffffffffffffff16815250601260008381526020019081526020016000206000820151816000015560208201518160010160006101000a81548173ffffffffffffffffffffffffffffffffffffffff021916908373ffffffffffffffffffffffffffffffffffffffff16021790555090505050505050565b612311848484611e71565b61231d84848484612632565b61235c576040517f08c379a000000000000000000000000000000000000000000000000000000000815260040161235390613c5d565b60405180910390fd5b50505050565b606060405180602001604052806000815250905090565b606061238482611c3c565b6123c3576040517f08c379a00000000000000000000000000000000000000000000000000000000081526004016123ba90613e5d565b60405180910390fd5b60006123cd612362565b905060008151116123ed5760405180602001604052806000815250612418565b806123f7846127c9565b604051602001612408929190613a9c565b6040516020818303038152906040525b915050919050565b505050565b61242d6130a1565b6124356130a1565b61244c8585858461292a909392919063ffffffff16565b9150509392505050565b6060600082141561249e576040518060400160405280600181526020017f300000000000000000000000000000000000000000000000000000000000000081525090506125da565b600082905060005b600082146124d05780806124b99061441c565b915050600a826124c99190614098565b91506124a6565b60008167ffffffffffffffff8111156124ec576124eb61458a565b5b6040519080825280601f01601f19166020018201604052801561251e5781602001600182028036833780820191505090505b50905060008290505b600086146125d25760018161253c9190614294565b90506000600a808861254e9190614098565b612558919061423a565b876125639190614294565b603061256f9190614061565b905060008160f81b90508084848151811061258d5761258c61455b565b5b60200101907effffffffffffffffffffffffffffffffffffffffffffffffffffffffffffff1916908160001a905350600a886125c99190614098565b97505050612527565b819450505050505b919050565b6125f68284608001516129da90919063ffffffff16565b61260d8184608001516129da90919063ffffffff16565b505050565b60006126298484846001634042994660e01b6129ff565b90509392505050565b60006126538473ffffffffffffffffffffffffffffffffffffffff16612c67565b156127bc578373ffffffffffffffffffffffffffffffffffffffff1663150b7a0261267c611ca8565b8786866040518563ffffffff1660e01b815260040161269e9493929190613af6565b602060405180830381600087803b1580156126b857600080fd5b505af19250505080156126e957506040513d601f19601f820116820180604052508101906126e69190613525565b60015b61276c573d8060008114612719576040519150601f19603f3d011682016040523d82523d6000602084013e61271e565b606091505b50600081511415612764576040517f08c379a000000000000000000000000000000000000000000000000000000000815260040161275b90613c5d565b60405180910390fd5b805181602001fd5b63150b7a0260e01b7bffffffffffffffffffffffffffffffffffffffffffffffffffffffff1916817bffffffffffffffffffffffffffffffffffffffffffffffffffffffff1916149150506127c1565b600190505b949350505050565b60606000821415612811576040518060400160405280600181526020017f30000000000000000000000000000000000000000000000000000000000000008152509050612925565b600082905060005b6000821461284357808061282c9061441c565b915050600a8261283c9190614098565b9150612819565b60008167ffffffffffffffff81111561285f5761285e61458a565b5b6040519080825280601f01601f1916602001820160405280156128915781602001600182028036833780820191505090505b5090505b6000851461291e576001826128aa9190614294565b9150600a856128b9919061449d565b60306128c5919061400b565b60f81b8183815181106128db576128da61455b565b5b60200101907effffffffffffffffffffffffffffffffffffffffffffffffffffffffffffff1916908160001a905350600a856129179190614098565b9450612895565b8093505050505b919050565b6129326130a1565b6129428560800151610100612c7a565b508385600001818152505082856020019073ffffffffffffffffffffffffffffffffffffffff16908173ffffffffffffffffffffffffffffffffffffffff16815250508185604001907bffffffffffffffffffffffffffffffffffffffffffffffffffffffff191690817bffffffffffffffffffffffffffffffffffffffffffffffffffffffff191681525050849050949350505050565b6129e78260038351612ce4565b6129fa8183612e2990919063ffffffff16565b505050565b600030600b54604051602001612a16929190613a70565b604051602081830303815290604052805190602001209050600b5485606001818152505085600c600083815260200190815260200160002060006101000a81548173ffffffffffffffffffffffffffffffffffffffff021916908373ffffffffffffffffffffffffffffffffffffffff160217905550807fb5e6e01e79f91267dc17b4e6314d5d4d03593d2ceee0fbb452b750bd70ea5af960405160405180910390a2600082600080886000015189602001518a604001518b606001518a8d6080015160000151604051602401612af4989796959493929190613b42565b604051602081830303815290604052907bffffffffffffffffffffffffffffffffffffffffffffffffffffffff19166020820180517bffffffffffffffffffffffffffffffffffffffffffffffffffffffff83818316178352505050509050600960009054906101000a900473ffffffffffffffffffffffffffffffffffffffff1673ffffffffffffffffffffffffffffffffffffffff16634000aea08887846040518463ffffffff1660e01b8152600401612bb293929190613bc7565b602060405180830381600087803b158015612bcc57600080fd5b505af1158015612be0573d6000803e3d6000fd5b505050506040513d601f19601f82011682018060405250810190612c04919061345e565b612c43576040517f08c379a0000000000000000000000000000000000000000000000000000000008152600401612c3a90613c9d565b60405180910390fd5b6001600b6000828254612c56919061400b565b925050819055505095945050505050565b600080823b905060008111915050919050565b612c8261310e565b6000602083612c91919061449d565b14612cbd57602082612ca3919061449d565b6020612caf9190614294565b82612cba919061400b565b91505b81836020018181525050604051808452600081528281016020016040525082905092915050565b60178111612d1157612d0b8160058460ff16901b60ff161784612e4b90919063ffffffff16565b50612e24565b60ff8111612d5357612d36601860058460ff16901b1784612e4b90919063ffffffff16565b50612d4d81600185612e6b9092919063ffffffff16565b50612e23565b61ffff8111612d9657612d79601960058460ff16901b1784612e4b90919063ffffffff16565b50612d9081600285612e6b9092919063ffffffff16565b50612e22565b63ffffffff8111612ddb57612dbe601a60058460ff16901b1784612e4b90919063ffffffff16565b50612dd581600485612e6b9092919063ffffffff16565b50612e21565b67ffffffffffffffff8111612e2057612e07601b60058460ff16901b1784612e4b90919063ffffffff16565b50612e1e81600885612e6b9092919063ffffffff16565b505b5b5b5b5b505050565b612e3161310e565b612e4383846000015151848551612e8d565b905092915050565b612e5361310e565b612e638384600001515184612f7c565b905092915050565b612e7361310e565b612e84848560000151518585612fd3565b90509392505050565b612e9561310e565b8251821115612ea357600080fd5b84602001518285612eb4919061400b565b1115612ee957612ee8856002612ed988602001518887612ed4919061400b565b613061565b612ee3919061423a565b61307d565b5b600080865180518760208301019350808887011115612f085787860182525b60208701925050505b60208410612f4f5780518252602082612f2a919061400b565b9150602081612f39919061400b565b9050602084612f489190614294565b9350612f11565b60006001856020036101000a03905080198251168184511681811785525050508692505050949350505050565b612f8461310e565b83602001518310612faa57612fa98460028660200151612fa4919061423a565b61307d565b5b8351805160208583010184815381861415612fc6576001820183525b5050508390509392505050565b612fdb61310e565b84602001518483612fec919061400b565b1115613014576130138560028685613004919061400b565b61300e919061423a565b61307d565b5b6000600183610100613026919061411c565b6130309190614294565b905085518386820101858319825116178152815185880111156130535784870182525b505085915050949350505050565b60008183111561307357829050613077565b8190505b92915050565b6000826000015190506130908383612c7a565b5061309b8382612e29565b50505050565b6040518060a0016040528060008019168152602001600073ffffffffffffffffffffffffffffffffffffffff16815260200160007bffffffffffffffffffffffffffffffffffffffffffffffffffffffff191681526020016000815260200161310861310e565b81525090565b604051806040016040528060608152602001600081525090565b600061313b61313684613f66565b613f41565b905082815260208101848484011115613157576131566145be565b5b613162848285614377565b509392505050565b600061317d61317884613f97565b613f41565b905082815260208101848484011115613199576131986145be565b5b6131a4848285614377565b509392505050565b6000813590506131bb81614b69565b92915050565b6000813590506131d081614b80565b92915050565b6000815190506131e581614b80565b92915050565b6000813590506131fa81614b97565b92915050565b60008135905061320f81614bae565b92915050565b60008151905061322481614bae565b92915050565b600082601f83011261323f5761323e6145b9565b5b813561324f848260208601613128565b91505092915050565b600082601f83011261326d5761326c6145b9565b5b813561327d84826020860161316a565b91505092915050565b60008135905061329581614bc5565b92915050565b6000602082840312156132b1576132b06145c8565b5b60006132bf848285016131ac565b91505092915050565b600080604083850312156132df576132de6145c8565b5b60006132ed858286016131ac565b92505060206132fe858286016131ac565b9150509250929050565b600080600060608486031215613321576133206145c8565b5b600061332f868287016131ac565b9350506020613340868287016131ac565b925050604061335186828701613286565b9150509250925092565b60008060008060808587031215613375576133746145c8565b5b6000613383878288016131ac565b9450506020613394878288016131ac565b93505060406133a587828801613286565b925050606085013567ffffffffffffffff8111156133c6576133c56145c3565b5b6133d28782880161322a565b91505092959194509250565b600080604083850312156133f5576133f46145c8565b5b6000613403858286016131ac565b9250506020613414858286016131c1565b9150509250929050565b60008060408385031215613435576134346145c8565b5b6000613443858286016131ac565b925050602061345485828601613286565b9150509250929050565b600060208284031215613474576134736145c8565b5b6000613482848285016131d6565b91505092915050565b6000602082840312156134a1576134a06145c8565b5b60006134af848285016131eb565b91505092915050565b600080604083850312156134cf576134ce6145c8565b5b60006134dd858286016131eb565b92505060206134ee858286016131eb565b9150509250929050565b60006020828403121561350e5761350d6145c8565b5b600061351c84828501613200565b91505092915050565b60006020828403121561353b5761353a6145c8565b5b600061354984828501613215565b91505092915050565b600060208284031215613568576135676145c8565b5b600082013567ffffffffffffffff811115613586576135856145c3565b5b6135928482850161322a565b91505092915050565b6000602082840312156135b1576135b06145c8565b5b600082013567ffffffffffffffff8111156135cf576135ce6145c3565b5b6135db84828501613258565b91505092915050565b6000602082840312156135fa576135f96145c8565b5b600061360884828501613286565b91505092915050565b61361a816142c8565b82525050565b61363161362c826142c8565b614465565b82525050565b613640816142da565b82525050565b61364f816142e6565b82525050565b613666613661826142e6565b614477565b82525050565b613675816142f0565b82525050565b600061368682613fc8565b6136908185613fde565b93506136a0818560208601614386565b6136a9816145cd565b840191505092915050565b6136c56136c082614353565b614465565b82525050565b60006136d682613fd3565b6136e08185613fef565b93506136f0818560208601614386565b6136f9816145cd565b840191505092915050565b600061370f82613fd3565b6137198185614000565b9350613729818560208601614386565b80840191505092915050565b6000613742603283613fef565b915061374d826145f8565b604082019050919050565b6000613765601c83613fef565b915061377082614647565b602082019050919050565b6000613788602383613fef565b915061379382614670565b604082019050919050565b60006137ab602483613fef565b91506137b6826146bf565b604082019050919050565b60006137ce601983613fef565b91506137d98261470e565b602082019050919050565b60006137f1602c83613fef565b91506137fc82614737565b604082019050919050565b6000613814603883613fef565b915061381f82614786565b604082019050919050565b6000613837600c83613fef565b9150613842826147d5565b602082019050919050565b600061385a600983613fef565b9150613865826147fe565b602082019050919050565b600061387d602a83613fef565b915061388882614827565b604082019050919050565b60006138a0602983613fef565b91506138ab82614876565b604082019050919050565b60006138c3601083613fef565b91506138ce826148c5565b602082019050919050565b60006138e6602083613fef565b91506138f1826148ee565b602082019050919050565b6000613909603183613fef565b915061391482614917565b604082019050919050565b600061392c602c83613fef565b915061393782614966565b604082019050919050565b600061394f602983613fef565b915061395a826149b5565b604082019050919050565b6000613972602f83613fef565b915061397d82614a04565b604082019050919050565b6000613995602183613fef565b91506139a082614a53565b604082019050919050565b60006139b8603183613fef565b91506139c382614aa2565b604082019050919050565b60006139db602883613fef565b91506139e682614af1565b604082019050919050565b60006139fe600e83613fef565b9150613a0982614b40565b602082019050919050565b613a1d8161433c565b82525050565b613a34613a2f8261433c565b614493565b82525050565b6000613a468284613620565b60148201915081905092915050565b6000613a618284613655565b60208201915081905092915050565b6000613a7c82856136b4565b601482019150613a8c8284613a23565b6020820191508190509392505050565b6000613aa88285613704565b9150613ab48284613704565b91508190509392505050565b6000613acc8284613a23565b60208201915081905092915050565b6000602082019050613af06000830184613611565b92915050565b6000608082019050613b0b6000830187613611565b613b186020830186613611565b613b256040830185613a14565b8181036060830152613b37818461367b565b905095945050505050565b600061010082019050613b58600083018b613611565b613b65602083018a613a14565b613b726040830189613646565b613b7f6060830188613611565b613b8c608083018761366c565b613b9960a0830186613a14565b613ba660c0830185613a14565b81810360e0830152613bb8818461367b565b90509998505050505050505050565b6000606082019050613bdc6000830186613611565b613be96020830185613a14565b8181036040830152613bfb818461367b565b9050949350505050565b6000602082019050613c1a6000830184613637565b92915050565b6000602082019050613c356000830184613646565b92915050565b60006020820190508181036000830152613c5581846136cb565b905092915050565b60006020820190508181036000830152613c7681613735565b9050919050565b60006020820190508181036000830152613c9681613758565b9050919050565b60006020820190508181036000830152613cb68161377b565b9050919050565b60006020820190508181036000830152613cd68161379e565b9050919050565b60006020820190508181036000830152613cf6816137c1565b9050919050565b60006020820190508181036000830152613d16816137e4565b9050919050565b60006020820190508181036000830152613d3681613807565b9050919050565b60006020820190508181036000830152613d568161382a565b9050919050565b60006020820190508181036000830152613d768161384d565b9050919050565b60006020820190508181036000830152613d9681613870565b9050919050565b60006020820190508181036000830152613db681613893565b9050919050565b60006020820190508181036000830152613dd6816138b6565b9050919050565b60006020820190508181036000830152613df6816138d9565b9050919050565b60006020820190508181036000830152613e16816138fc565b9050919050565b60006020820190508181036000830152613e368161391f565b9050919050565b60006020820190508181036000830152613e5681613942565b9050919050565b60006020820190508181036000830152613e7681613965565b9050919050565b60006020820190508181036000830152613e9681613988565b9050919050565b60006020820190508181036000830152613eb6816139ab565b9050919050565b60006020820190508181036000830152613ed6816139ce565b9050919050565b60006020820190508181036000830152613ef6816139f1565b9050919050565b6000602082019050613f126000830184613a14565b92915050565b6000604082019050613f2d6000830185613a14565b613f3a6020830184613611565b9392505050565b6000613f4b613f5c565b9050613f5782826143eb565b919050565b6000604051905090565b600067ffffffffffffffff821115613f8157613f8061458a565b5b613f8a826145cd565b9050602081019050919050565b600067ffffffffffffffff821115613fb257613fb161458a565b5b613fbb826145cd565b9050602081019050919050565b600081519050919050565b600081519050919050565b600082825260208201905092915050565b600082825260208201905092915050565b600081905092915050565b60006140168261433c565b91506140218361433c565b9250827fffffffffffffffffffffffffffffffffffffffffffffffffffffffffffffffff03821115614056576140556144ce565b5b828201905092915050565b600061406c82614346565b915061407783614346565b92508260ff0382111561408d5761408c6144ce565b5b828201905092915050565b60006140a38261433c565b91506140ae8361433c565b9250826140be576140bd6144fd565b5b828204905092915050565b6000808291508390505b6001851115614113578086048111156140ef576140ee6144ce565b5b60018516156140fe5780820291505b808102905061410c856145eb565b94506140d3565b94509492505050565b60006141278261433c565b91506141328361433c565b925061415f7fffffffffffffffffffffffffffffffffffffffffffffffffffffffffffffffff8484614167565b905092915050565b6000826141775760019050614233565b816141855760009050614233565b816001811461419b57600281146141a5576141d4565b6001915050614233565b60ff8411156141b7576141b66144ce565b5b8360020a9150848211156141ce576141cd6144ce565b5b50614233565b5060208310610133831016604e8410600b84101617156142095782820a905083811115614204576142036144ce565b5b614233565b61421684848460016140c9565b9250905081840481111561422d5761422c6144ce565b5b81810290505b9392505050565b60006142458261433c565b91506142508361433c565b9250817fffffffffffffffffffffffffffffffffffffffffffffffffffffffffffffffff0483118215151615614289576142886144ce565b5b828202905092915050565b600061429f8261433c565b91506142aa8361433c565b9250828210156142bd576142bc6144ce565b5b828203905092915050565b60006142d38261431c565b9050919050565b60008115159050919050565b6000819050919050565b60007fffffffff0000000000000000000000000000000000000000000000000000000082169050919050565b600073ffffffffffffffffffffffffffffffffffffffff82169050919050565b6000819050919050565b600060ff82169050919050565b600061435e82614365565b9050919050565b60006143708261431c565b9050919050565b82818337600083830152505050565b60005b838110156143a4578082015181840152602081019050614389565b838111156143b3576000848401525b50505050565b600060028204905060018216806143d157607f821691505b602082108114156143e5576143e461452c565b5b50919050565b6143f4826145cd565b810181811067ffffffffffffffff821117156144135761441261458a565b5b80604052505050565b60006144278261433c565b91507fffffffffffffffffffffffffffffffffffffffffffffffffffffffffffffffff82141561445a576144596144ce565b5b600182019050919050565b600061447082614481565b9050919050565b6000819050919050565b600061448c826145de565b9050919050565b6000819050919050565b60006144a88261433c565b91506144b38361433c565b9250826144c3576144c26144fd565b5b828206905092915050565b7f4e487b7100000000000000000000000000000000000000000000000000000000600052601160045260246000fd5b7f4e487b7100000000000000000000000000000000000000000000000000000000600052601260045260246000fd5b7f4e487b7100000000000000000000000000000000000000000000000000000000600052602260045260246000fd5b7f4e487b7100000000000000000000000000000000000000000000000000000000600052603260045260246000fd5b7f4e487b7100000000000000000000000000000000000000000000000000000000600052604160045260246000fd5b600080fd5b600080fd5b600080fd5b600080fd5b6000601f19601f8301169050919050565b60008160601b9050919050565b60008160011c9050919050565b7f4552433732313a207472616e7366657220746f206e6f6e20455243373231526560008201527f63656976657220696d706c656d656e7465720000000000000000000000000000602082015250565b7f4552433732313a20746f6b656e20616c7265616479206d696e74656400000000600082015250565b7f756e61626c6520746f207472616e73666572416e6443616c6c20746f206f726160008201527f636c650000000000000000000000000000000000000000000000000000000000602082015250565b7f4552433732313a207472616e7366657220746f20746865207a65726f2061646460008201527f7265737300000000000000000000000000000000000000000000000000000000602082015250565b7f4552433732313a20617070726f766520746f2063616c6c657200000000000000600082015250565b7f4552433732313a206f70657261746f7220717565727920666f72206e6f6e657860008201527f697374656e7420746f6b656e0000000000000000000000000000000000000000602082015250565b7f4552433732313a20617070726f76652063616c6c6572206973206e6f74206f7760008201527f6e6572206e6f7220617070726f76656420666f7220616c6c0000000000000000602082015250565b7f5a45524f5f414444524553530000000000000000000000000000000000000000600082015250565b7f464f5242494444454e0000000000000000000000000000000000000000000000600082015250565b7f4552433732313a2062616c616e636520717565727920666f7220746865207a6560008201527f726f206164647265737300000000000000000000000000000000000000000000602082015250565b7f4552433732313a206f776e657220717565727920666f72206e6f6e657869737460008201527f656e7420746f6b656e0000000000000000000000000000000000000000000000602082015250565b7f494e56414c49445f544f4b454e5f494400000000000000000000000000000000600082015250565b7f4552433732313a206d696e7420746f20746865207a65726f2061646472657373600082015250565b7f45524337323155524953746f726167653a2055524920717565727920666f722060008201527f6e6f6e6578697374656e7420746f6b656e000000000000000000000000000000602082015250565b7f4552433732313a20617070726f76656420717565727920666f72206e6f6e657860008201527f697374656e7420746f6b656e0000000000000000000000000000000000000000602082015250565b7f4552433732313a207472616e73666572206f6620746f6b656e2074686174206960008201527f73206e6f74206f776e0000000000000000000000000000000000000000000000602082015250565b7f4552433732314d657461646174613a2055524920717565727920666f72206e6f60008201527f6e6578697374656e7420746f6b656e0000000000000000000000000000000000602082015250565b7f4552433732313a20617070726f76616c20746f2063757272656e74206f776e6560008201527f7200000000000000000000000000000000000000000000000000000000000000602082015250565b7f4552433732313a207472616e736665722063616c6c6572206973206e6f74206f60008201527f776e6572206e6f7220617070726f766564000000000000000000000000000000602082015250565b7f536f75726365206d75737420626520746865206f7261636c65206f662074686560008201527f2072657175657374000000000000000000000000000000000000000000000000602082015250565b7f414c52454144595f4d494e544544000000000000000000000000000000000000600082015250565b614b72816142c8565b8114614b7d57600080fd5b50565b614b89816142da565b8114614b9457600080fd5b50565b614ba0816142e6565b8114614bab57600080fd5b50565b614bb7816142f0565b8114614bc257600080fd5b50565b614bce8161433c565b8114614bd957600080fd5b5056fea26469706673582212208ff0c3b61cdf863842e2619ebcde088710d9771da62292366d6d15b1cd0a69d364736f6c63430008060033",
  "linkReferences": {},
  "deployedLinkReferences": {}
}