{
  "_format": "hh-sol-artifact-1",
  "contractName": "VRFConsumerV2",
  "sourceName": "contracts/chainlink/v0.8/tests/VRFConsumerV2.sol",
  "abi": [
    {
      "inputs": [
        {
          "internalType": "address",
          "name": "vrfCoordinator",
          "type": "address"
        },
        {
          "internalType": "address",
          "name": "link",
          "type": "address"
        }
      ],
      "stateMutability": "nonpayable",
      "type": "constructor"
    },
    {
      "inputs": [
        {
          "internalType": "address",
          "name": "have",
          "type": "address"
        },
        {
          "internalType": "address",
          "name": "want",
          "type": "address"
        }
      ],
      "name": "OnlyCoordinatorCanFulfill",
      "type": "error"
    },
    {
      "inputs": [
        {
          "internalType": "uint256",
          "name": "requestId",
          "type": "uint256"
        },
        {
          "internalType": "uint256[]",
          "name": "randomWords",
          "type": "uint256[]"
        }
      ],
      "name": "rawFulfillRandomWords",
      "outputs": [],
      "stateMutability": "nonpayable",
      "type": "function"
    },
    {
      "inputs": [],
      "name": "s_gasAvailable",
      "outputs": [
        {
          "internalType": "uint256",
          "name": "",
          "type": "uint256"
        }
      ],
      "stateMutability": "view",
      "type": "function"
    },
    {
      "inputs": [
        {
          "internalType": "uint256",
          "name": "",
          "type": "uint256"
        }
      ],
      "name": "s_randomWords",
      "outputs": [
        {
          "internalType": "uint256",
          "name": "",
          "type": "uint256"
        }
      ],
      "stateMutability": "view",
      "type": "function"
    },
    {
      "inputs": [],
      "name": "s_requestId",
      "outputs": [
        {
          "internalType": "uint256",
          "name": "",
          "type": "uint256"
        }
      ],
      "stateMutability": "view",
      "type": "function"
    },
    {
      "inputs": [],
      "name": "s_subId",
      "outputs": [
        {
          "internalType": "uint64",
          "name": "",
          "type": "uint64"
        }
      ],
      "stateMutability": "view",
      "type": "function"
    },
    {
      "inputs": [
        {
          "internalType": "uint96",
          "name": "amount",
          "type": "uint96"
        }
      ],
      "name": "testCreateSubscriptionAndFund",
      "outputs": [],
      "stateMutability": "nonpayable",
      "type": "function"
    },
    {
      "inputs": [
        {
          "internalType": "bytes32",
          "name": "keyHash",
          "type": "bytes32"
        },
        {
          "internalType": "uint64",
          "name": "subId",
          "type": "uint64"
        },
        {
          "internalType": "uint16",
          "name": "minReqConfs",
          "type": "uint16"
        },
        {
          "internalType": "uint32",
          "name": "callbackGasLimit",
          "type": "uint32"
        },
        {
          "internalType": "uint32",
          "name": "numWords",
          "type": "uint32"
        }
      ],
      "name": "testRequestRandomness",
      "outputs": [
        {
          "internalType": "uint256",
          "name": "",
          "type": "uint256"
        }
      ],
      "stateMutability": "nonpayable",
      "type": "function"
    },
    {
      "inputs": [
        {
          "internalType": "address[]",
          "name": "consumers",
          "type": "address[]"
        }
      ],
      "name": "updateSubscription",
      "outputs": [],
      "stateMutability": "nonpayable",
      "type": "function"
    }
  ],
  "bytecode": "0x60a06040523480156200001157600080fd5b506040516200139138038062001391833981810160405281019062000037919062000111565b818073ffffffffffffffffffffffffffffffffffffffff1660808173ffffffffffffffffffffffffffffffffffffffff1660601b815250505081600260006101000a81548173ffffffffffffffffffffffffffffffffffffffff021916908373ffffffffffffffffffffffffffffffffffffffff16021790555080600360006101000a81548173ffffffffffffffffffffffffffffffffffffffff021916908373ffffffffffffffffffffffffffffffffffffffff1602179055505050620001ab565b6000815190506200010b8162000191565b92915050565b600080604083850312156200012b576200012a6200018c565b5b60006200013b85828601620000fa565b92505060206200014e85828601620000fa565b9150509250929050565b600062000165826200016c565b9050919050565b600073ffffffffffffffffffffffffffffffffffffffff82169050919050565b600080fd5b6200019c8162000158565b8114620001a857600080fd5b50565b60805160601c6111c0620001d16000396000818161019d01526101f101526111c06000f3fe608060405234801561001057600080fd5b50600436106100885760003560e01c8063706da1ca1161005b578063706da1ca14610111578063e89e106a1461012f578063f08c5daa1461014d578063f6eaffc81461016b57610088565b80631fe543e31461008d57806327784fad146100a957806336bfffed146100d95780636802f726146100f5575b600080fd5b6100a760048036038101906100a29190610b3e565b61019b565b005b6100c360048036038101906100be9190610a69565b61025b565b6040516100d09190610d93565b60405180910390f35b6100f360048036038101906100ee91906109f3565b61031d565b005b61010f600480360381019061010a9190610bc7565b610463565b005b610119610708565b6040516101269190610dae565b60405180910390f35b610137610722565b6040516101449190610d93565b60405180910390f35b610155610728565b6040516101629190610d93565b60405180910390f35b61018560048036038101906101809190610ae4565b61072e565b6040516101929190610d93565b60405180910390f35b7f000000000000000000000000000000000000000000000000000000000000000073ffffffffffffffffffffffffffffffffffffffff163373ffffffffffffffffffffffffffffffffffffffff161461024d57337f00000000000000000000000000000000000000000000000000000000000000006040517f1cf993f4000000000000000000000000000000000000000000000000000000008152600401610244929190610cb9565b60405180910390fd5b6102578282610752565b5050565b6000600260009054906101000a900473ffffffffffffffffffffffffffffffffffffffff1673ffffffffffffffffffffffffffffffffffffffff16635d3b1d3087878787876040518663ffffffff1660e01b81526004016102c0959493929190610d20565b602060405180830381600087803b1580156102da57600080fd5b505af11580156102ee573d6000803e3d6000fd5b505050506040513d601f19601f820116820180604052508101906103129190610b11565b905095945050505050565b6000600360149054906101000a900467ffffffffffffffff1667ffffffffffffffff161415610381576040517f08c379a000000000000000000000000000000000000000000000000000000000815260040161037890610d73565b60405180910390fd5b60005b815181101561045f57600260009054906101000a900473ffffffffffffffffffffffffffffffffffffffff1673ffffffffffffffffffffffffffffffffffffffff16637341c10c600360149054906101000a900467ffffffffffffffff168484815181106103f5576103f4611026565b5b60200260200101516040518363ffffffff1660e01b815260040161041a929190610dc9565b600060405180830381600087803b15801561043457600080fd5b505af1158015610448573d6000803e3d6000fd5b50505050808061045790610fae565b915050610384565b5050565b6000600360149054906101000a900467ffffffffffffffff1667ffffffffffffffff1614156105fc57600260009054906101000a900473ffffffffffffffffffffffffffffffffffffffff1673ffffffffffffffffffffffffffffffffffffffff1663a21a23e46040518163ffffffff1660e01b8152600401602060405180830381600087803b1580156104f657600080fd5b505af115801561050a573d6000803e3d6000fd5b505050506040513d601f19601f8201168201806040525081019061052e9190610b9a565b600360146101000a81548167ffffffffffffffff021916908367ffffffffffffffff160217905550600260009054906101000a900473ffffffffffffffffffffffffffffffffffffffff1673ffffffffffffffffffffffffffffffffffffffff16637341c10c600360149054906101000a900467ffffffffffffffff16306040518363ffffffff1660e01b81526004016105c9929190610dc9565b600060405180830381600087803b1580156105e357600080fd5b505af11580156105f7573d6000803e3d6000fd5b505050505b600360009054906101000a900473ffffffffffffffffffffffffffffffffffffffff1673ffffffffffffffffffffffffffffffffffffffff16634000aea0600260009054906101000a900473ffffffffffffffffffffffffffffffffffffffff1683600360149054906101000a900467ffffffffffffffff166040516020016106859190610dae565b6040516020818303038152906040526040518463ffffffff1660e01b81526004016106b293929190610ce2565b602060405180830381600087803b1580156106cc57600080fd5b505af11580156106e0573d6000803e3d6000fd5b505050506040513d601f19601f820116820180604052508101906107049190610a3c565b5050565b600360149054906101000a900467ffffffffffffffff1681565b60015481565b60045481565b6000818154811061073e57600080fd5b906000526020600020016000915090505481565b5a600481905550806000908051906020019061076f92919061077b565b50816001819055505050565b8280548282559060005260206000209081019282156107b7579160200282015b828111156107b657825182559160200191906001019061079b565b5b5090506107c491906107c8565b5090565b5b808211156107e15760008160009055506001016107c9565b5090565b60006107f86107f384610e17565b610df2565b9050808382526020820190508285602086028201111561081b5761081a611089565b5b60005b8581101561084b578161083188826108c5565b84526020840193506020830192505060018101905061081e565b5050509392505050565b600061086861086384610e43565b610df2565b9050808382526020820190508285602086028201111561088b5761088a611089565b5b60005b858110156108bb57816108a18882610975565b84526020840193506020830192505060018101905061088e565b5050509392505050565b6000813590506108d4816110d2565b92915050565b600082601f8301126108ef576108ee611084565b5b81356108ff8482602086016107e5565b91505092915050565b600082601f83011261091d5761091c611084565b5b813561092d848260208601610855565b91505092915050565b600081519050610945816110e9565b92915050565b60008135905061095a81611100565b92915050565b60008135905061096f81611117565b92915050565b6000813590506109848161112e565b92915050565b6000815190506109998161112e565b92915050565b6000813590506109ae81611145565b92915050565b6000813590506109c38161115c565b92915050565b6000815190506109d88161115c565b92915050565b6000813590506109ed81611173565b92915050565b600060208284031215610a0957610a08611093565b5b600082013567ffffffffffffffff811115610a2757610a2661108e565b5b610a33848285016108da565b91505092915050565b600060208284031215610a5257610a51611093565b5b6000610a6084828501610936565b91505092915050565b600080600080600060a08688031215610a8557610a84611093565b5b6000610a938882890161094b565b9550506020610aa4888289016109b4565b9450506040610ab588828901610960565b9350506060610ac68882890161099f565b9250506080610ad78882890161099f565b9150509295509295909350565b600060208284031215610afa57610af9611093565b5b6000610b0884828501610975565b91505092915050565b600060208284031215610b2757610b26611093565b5b6000610b358482850161098a565b91505092915050565b60008060408385031215610b5557610b54611093565b5b6000610b6385828601610975565b925050602083013567ffffffffffffffff811115610b8457610b8361108e565b5b610b9085828601610908565b9150509250929050565b600060208284031215610bb057610baf611093565b5b6000610bbe848285016109c9565b91505092915050565b600060208284031215610bdd57610bdc611093565b5b6000610beb848285016109de565b91505092915050565b610bfd81610e9c565b82525050565b610c0c81610eba565b82525050565b6000610c1d82610e6f565b610c278185610e7a565b9350610c37818560208601610f4a565b610c4081611098565b840191505092915050565b6000610c58600d83610e8b565b9150610c63826110a9565b602082019050919050565b610c7781610ec4565b82525050565b610c8681610ef2565b82525050565b610c9581610efc565b82525050565b610ca481610f0c565b82525050565b610cb381610f38565b82525050565b6000604082019050610cce6000830185610bf4565b610cdb6020830184610bf4565b9392505050565b6000606082019050610cf76000830186610bf4565b610d046020830185610caa565b8181036040830152610d168184610c12565b9050949350505050565b600060a082019050610d356000830188610c03565b610d426020830187610c9b565b610d4f6040830186610c6e565b610d5c6060830185610c8c565b610d696080830184610c8c565b9695505050505050565b60006020820190508181036000830152610d8c81610c4b565b9050919050565b6000602082019050610da86000830184610c7d565b92915050565b6000602082019050610dc36000830184610c9b565b92915050565b6000604082019050610dde6000830185610c9b565b610deb6020830184610bf4565b9392505050565b6000610dfc610e0d565b9050610e088282610f7d565b919050565b6000604051905090565b600067ffffffffffffffff821115610e3257610e31611055565b5b602082029050602081019050919050565b600067ffffffffffffffff821115610e5e57610e5d611055565b5b602082029050602081019050919050565b600081519050919050565b600082825260208201905092915050565b600082825260208201905092915050565b6000610ea782610ed2565b9050919050565b60008115159050919050565b6000819050919050565b600061ffff82169050919050565b600073ffffffffffffffffffffffffffffffffffffffff82169050919050565b6000819050919050565b600063ffffffff82169050919050565b600067ffffffffffffffff82169050919050565b60006bffffffffffffffffffffffff82169050919050565b6000610f4382610f20565b9050919050565b60005b83811015610f68578082015181840152602081019050610f4d565b83811115610f77576000848401525b50505050565b610f8682611098565b810181811067ffffffffffffffff82111715610fa557610fa4611055565b5b80604052505050565b6000610fb982610ef2565b91507fffffffffffffffffffffffffffffffffffffffffffffffffffffffffffffffff821415610fec57610feb610ff7565b5b600182019050919050565b7f4e487b7100000000000000000000000000000000000000000000000000000000600052601160045260246000fd5b7f4e487b7100000000000000000000000000000000000000000000000000000000600052603260045260246000fd5b7f4e487b7100000000000000000000000000000000000000000000000000000000600052604160045260246000fd5b600080fd5b600080fd5b600080fd5b600080fd5b6000601f19601f8301169050919050565b7f7375624944206e6f742073657400000000000000000000000000000000000000600082015250565b6110db81610e9c565b81146110e657600080fd5b50565b6110f281610eae565b81146110fd57600080fd5b50565b61110981610eba565b811461111457600080fd5b50565b61112081610ec4565b811461112b57600080fd5b50565b61113781610ef2565b811461114257600080fd5b50565b61114e81610efc565b811461115957600080fd5b50565b61116581610f0c565b811461117057600080fd5b50565b61117c81610f20565b811461118757600080fd5b5056fea2646970667358221220e0a39f6cc4274ebca5b8822eb2e57ffd8545d61f87e6981d4f6c9fc3a03b59ad64736f6c63430008060033",
  "linkReferences": {},
  "deployedLinkReferences": {}
}