{
  "_format": "hh-sol-artifact-1",
  "contractName": "WrappedNft",
  "sourceName": "contracts/WrappedNft.sol",
  "abi": [
    {
      "inputs": [
        {
          "internalType": "address",
          "name": "_source",
          "type": "address"
        }
      ],
      "stateMutability": "nonpayable",
      "type": "constructor"
    },
    {
      "anonymous": false,
      "inputs": [
        {
          "indexed": true,
          "internalType": "address",
          "name": "owner",
          "type": "address"
        },
        {
          "indexed": true,
          "internalType": "address",
          "name": "approved",
          "type": "address"
        },
        {
          "indexed": true,
          "internalType": "uint256",
          "name": "tokenId",
          "type": "uint256"
        }
      ],
      "name": "Approval",
      "type": "event"
    },
    {
      "anonymous": false,
      "inputs": [
        {
          "indexed": true,
          "internalType": "address",
          "name": "owner",
          "type": "address"
        },
        {
          "indexed": true,
          "internalType": "address",
          "name": "operator",
          "type": "address"
        },
        {
          "indexed": false,
          "internalType": "bool",
          "name": "approved",
          "type": "bool"
        }
      ],
      "name": "ApprovalForAll",
      "type": "event"
    },
    {
      "anonymous": false,
      "inputs": [
        {
          "indexed": false,
          "internalType": "address",
          "name": "operator",
          "type": "address"
        },
        {
          "indexed": false,
          "internalType": "address",
          "name": "from",
          "type": "address"
        },
        {
          "indexed": false,
          "internalType": "uint256",
          "name": "tokenId",
          "type": "uint256"
        },
        {
          "indexed": false,
          "internalType": "bytes",
          "name": "data",
          "type": "bytes"
        }
      ],
      "name": "NftReceived",
      "type": "event"
    },
    {
      "anonymous": false,
      "inputs": [
        {
          "indexed": true,
          "internalType": "address",
          "name": "from",
          "type": "address"
        },
        {
          "indexed": true,
          "internalType": "address",
          "name": "to",
          "type": "address"
        },
        {
          "indexed": true,
          "internalType": "uint256",
          "name": "tokenId",
          "type": "uint256"
        }
      ],
      "name": "Transfer",
      "type": "event"
    },
    {
      "inputs": [
        {
          "internalType": "address",
          "name": "to",
          "type": "address"
        },
        {
          "internalType": "uint256",
          "name": "tokenId",
          "type": "uint256"
        }
      ],
      "name": "approve",
      "outputs": [],
      "stateMutability": "nonpayable",
      "type": "function"
    },
    {
      "inputs": [
        {
          "internalType": "address",
          "name": "owner",
          "type": "address"
        }
      ],
      "name": "balanceOf",
      "outputs": [
        {
          "internalType": "uint256",
          "name": "",
          "type": "uint256"
        }
      ],
      "stateMutability": "view",
      "type": "function"
    },
    {
      "inputs": [
        {
          "internalType": "uint256",
          "name": "",
          "type": "uint256"
        }
      ],
      "name": "blockNumbers",
      "outputs": [
        {
          "internalType": "uint256",
          "name": "",
          "type": "uint256"
        }
      ],
      "stateMutability": "view",
      "type": "function"
    },
    {
      "inputs": [
        {
          "internalType": "uint256",
          "name": "tokenId",
          "type": "uint256"
        }
      ],
      "name": "getApproved",
      "outputs": [
        {
          "internalType": "address",
          "name": "",
          "type": "address"
        }
      ],
      "stateMutability": "view",
      "type": "function"
    },
    {
      "inputs": [
        {
          "internalType": "address",
          "name": "owner",
          "type": "address"
        },
        {
          "internalType": "address",
          "name": "operator",
          "type": "address"
        }
      ],
      "name": "isApprovedForAll",
      "outputs": [
        {
          "internalType": "bool",
          "name": "",
          "type": "bool"
        }
      ],
      "stateMutability": "view",
      "type": "function"
    },
    {
      "inputs": [
        {
          "internalType": "uint256",
          "name": "id",
          "type": "uint256"
        }
      ],
      "name": "mint",
      "outputs": [
        {
          "internalType": "uint256",
          "name": "",
          "type": "uint256"
        }
      ],
      "stateMutability": "nonpayable",
      "type": "function"
    },
    {
      "inputs": [],
      "name": "name",
      "outputs": [
        {
          "internalType": "string",
          "name": "",
          "type": "string"
        }
      ],
      "stateMutability": "view",
      "type": "function"
    },
    {
      "inputs": [
        {
          "internalType": "address",
          "name": "operator",
          "type": "address"
        },
        {
          "internalType": "address",
          "name": "from",
          "type": "address"
        },
        {
          "internalType": "uint256",
          "name": "tokenId",
          "type": "uint256"
        },
        {
          "internalType": "bytes",
          "name": "data",
          "type": "bytes"
        }
      ],
      "name": "onERC721Received",
      "outputs": [
        {
          "internalType": "bytes4",
          "name": "",
          "type": "bytes4"
        }
      ],
      "stateMutability": "nonpayable",
      "type": "function"
    },
    {
      "inputs": [
        {
          "internalType": "uint256",
          "name": "tokenId",
          "type": "uint256"
        }
      ],
      "name": "ownerOf",
      "outputs": [
        {
          "internalType": "address",
          "name": "",
          "type": "address"
        }
      ],
      "stateMutability": "view",
      "type": "function"
    },
    {
      "inputs": [
        {
          "internalType": "address",
          "name": "from",
          "type": "address"
        },
        {
          "internalType": "address",
          "name": "to",
          "type": "address"
        },
        {
          "internalType": "uint256",
          "name": "tokenId",
          "type": "uint256"
        }
      ],
      "name": "safeTransferFrom",
      "outputs": [],
      "stateMutability": "nonpayable",
      "type": "function"
    },
    {
      "inputs": [
        {
          "internalType": "address",
          "name": "_from",
          "type": "address"
        },
        {
          "internalType": "address",
          "name": "_to",
          "type": "address"
        },
        {
          "internalType": "uint256",
          "name": "_tokenId",
          "type": "uint256"
        },
        {
          "internalType": "bytes",
          "name": "_data",
          "type": "bytes"
        }
      ],
      "name": "safeTransferFrom",
      "outputs": [],
      "stateMutability": "nonpayable",
      "type": "function"
    },
    {
      "inputs": [
        {
          "internalType": "address",
          "name": "operator",
          "type": "address"
        },
        {
          "internalType": "bool",
          "name": "approved",
          "type": "bool"
        }
      ],
      "name": "setApprovalForAll",
      "outputs": [],
      "stateMutability": "nonpayable",
      "type": "function"
    },
    {
      "inputs": [],
      "name": "source",
      "outputs": [
        {
          "internalType": "address",
          "name": "",
          "type": "address"
        }
      ],
      "stateMutability": "view",
      "type": "function"
    },
    {
      "inputs": [
        {
          "internalType": "bytes4",
          "name": "interfaceId",
          "type": "bytes4"
        }
      ],
      "name": "supportsInterface",
      "outputs": [
        {
          "internalType": "bool",
          "name": "",
          "type": "bool"
        }
      ],
      "stateMutability": "view",
      "type": "function"
    },
    {
      "inputs": [],
      "name": "symbol",
      "outputs": [
        {
          "internalType": "string",
          "name": "",
          "type": "string"
        }
      ],
      "stateMutability": "view",
      "type": "function"
    },
    {
      "inputs": [
        {
          "internalType": "uint256",
          "name": "tokenId",
          "type": "uint256"
        }
      ],
      "name": "tokenURI",
      "outputs": [
        {
          "internalType": "string",
          "name": "",
          "type": "string"
        }
      ],
      "stateMutability": "view",
      "type": "function"
    },
    {
      "inputs": [
        {
          "internalType": "address",
          "name": "_from",
          "type": "address"
        },
        {
          "internalType": "address",
          "name": "_to",
          "type": "address"
        },
        {
          "internalType": "uint256",
          "name": "_tokenId",
          "type": "uint256"
        }
      ],
      "name": "transferFrom",
      "outputs": [],
      "stateMutability": "nonpayable",
      "type": "function"
    },
    {
      "inputs": [
        {
          "internalType": "uint256",
          "name": "id",
          "type": "uint256"
        }
      ],
      "name": "withdraw",
      "outputs": [
        {
          "internalType": "uint256",
          "name": "",
          "type": "uint256"
        }
      ],
      "stateMutability": "nonpayable",
      "type": "function"
    }
  ],
  "bytecode": "0x60806040523480156200001157600080fd5b506040516200320738038062003207833981810160405281019062000037919062000259565b6040518060400160405280601581526020017f57726170706564204272696467652053636170657300000000000000000000008152506040518060400160405280600781526020017f57534341504553000000000000000000000000000000000000000000000000008152508160009080519060200190620000bb92919062000192565b508060019080519060200190620000d492919062000192565b505050600073ffffffffffffffffffffffffffffffffffffffff168173ffffffffffffffffffffffffffffffffffffffff1614156200014a576040517f08c379a00000000000000000000000000000000000000000000000000000000081526004016200014190620002b2565b60405180910390fd5b80600860006101000a81548173ffffffffffffffffffffffffffffffffffffffff021916908373ffffffffffffffffffffffffffffffffffffffff16021790555050620003c6565b828054620001a09062000319565b90600052602060002090601f016020900481019282620001c4576000855562000210565b82601f10620001df57805160ff191683800117855562000210565b8280016001018555821562000210579182015b828111156200020f578251825591602001919060010190620001f2565b5b5090506200021f919062000223565b5090565b5b808211156200023e57600081600090555060010162000224565b5090565b6000815190506200025381620003ac565b92915050565b6000602082840312156200027257620002716200037e565b5b6000620002828482850162000242565b91505092915050565b60006200029a600c83620002d4565b9150620002a78262000383565b602082019050919050565b60006020820190508181036000830152620002cd816200028b565b9050919050565b600082825260208201905092915050565b6000620002f282620002f9565b9050919050565b600073ffffffffffffffffffffffffffffffffffffffff82169050919050565b600060028204905060018216806200033257607f821691505b602082108114156200034957620003486200034f565b5b50919050565b7f4e487b7100000000000000000000000000000000000000000000000000000000600052602260045260246000fd5b600080fd5b7f5a45524f5f414444524553530000000000000000000000000000000000000000600082015250565b620003b781620002e5565b8114620003c357600080fd5b50565b612e3180620003d66000396000f3fe608060405234801561001057600080fd5b50600436106101165760003560e01c806367e828bf116100a2578063a22cb46511610071578063a22cb46514610319578063b88d4fde14610335578063c87b56dd14610351578063cd8bff3314610381578063e985e9c5146103b157610116565b806367e828bf1461027d57806370a082311461029b57806395d89b41146102cb578063a0712d68146102e957610116565b8063150b7a02116100e9578063150b7a02146101b557806323b872dd146101e55780632e1a7d4d1461020157806342842e0e146102315780636352211e1461024d57610116565b806301ffc9a71461011b57806306fdde031461014b578063081812fc14610169578063095ea7b314610199575b600080fd5b61013560048036038101906101309190611e97565b6103e1565b6040516101429190612341565b60405180910390f35b6101536104c3565b6040516101609190612377565b60405180910390f35b610183600480360381019061017e9190611f0d565b610555565b6040516101909190612290565b60405180910390f35b6101b360048036038101906101ae9190611e57565b6105da565b005b6101cf60048036038101906101ca9190611d94565b6106f2565b6040516101dc919061235c565b60405180910390f35b6101ff60048036038101906101fa9190611d41565b61079c565b005b61021b60048036038101906102169190611f0d565b6107a1565b6040516102289190612599565b60405180910390f35b61024b60048036038101906102469190611d41565b610a66565b005b61026760048036038101906102629190611f0d565b610a86565b6040516102749190612290565b60405180910390f35b610285610b38565b6040516102929190612290565b60405180910390f35b6102b560048036038101906102b09190611ca7565b610b5e565b6040516102c29190612599565b60405180910390f35b6102d3610c16565b6040516102e09190612377565b60405180910390f35b61030360048036038101906102fe9190611f0d565b610ca8565b6040516103109190612599565b60405180910390f35b610333600480360381019061032e9190611e17565b610f96565b005b61034f600480360381019061034a9190611d94565b611117565b005b61036b60048036038101906103669190611f0d565b61111c565b6040516103789190612377565b60405180910390f35b61039b60048036038101906103969190611f0d565b61126e565b6040516103a89190612599565b60405180910390f35b6103cb60048036038101906103c69190611d01565b611286565b6040516103d89190612341565b60405180910390f35b60007f80ac58cd000000000000000000000000000000000000000000000000000000007bffffffffffffffffffffffffffffffffffffffffffffffffffffffff1916827bffffffffffffffffffffffffffffffffffffffffffffffffffffffff191614806104ac57507f5b5e139f000000000000000000000000000000000000000000000000000000007bffffffffffffffffffffffffffffffffffffffffffffffffffffffff1916827bffffffffffffffffffffffffffffffffffffffffffffffffffffffff1916145b806104bc57506104bb8261131a565b5b9050919050565b6060600080546104d2906127ef565b80601f01602080910402602001604051908101604052809291908181526020018280546104fe906127ef565b801561054b5780601f106105205761010080835404028352916020019161054b565b820191906000526020600020905b81548152906001019060200180831161052e57829003601f168201915b5050505050905090565b600061056082611384565b61059f576040517f08c379a0000000000000000000000000000000000000000000000000000000008152600401610596906124d9565b60405180910390fd5b6004600083815260200190815260200160002060009054906101000a900473ffffffffffffffffffffffffffffffffffffffff169050919050565b60006105e582610a86565b90508073ffffffffffffffffffffffffffffffffffffffff168373ffffffffffffffffffffffffffffffffffffffff161415610656576040517f08c379a000000000000000000000000000000000000000000000000000000000815260040161064d90612519565b60405180910390fd5b8073ffffffffffffffffffffffffffffffffffffffff166106756113f0565b73ffffffffffffffffffffffffffffffffffffffff1614806106a457506106a38161069e6113f0565b611286565b5b6106e3576040517f08c379a00000000000000000000000000000000000000000000000000000000081526004016106da906123f9565b60405180910390fd5b6106ed83836113f8565b505050565b60008473ffffffffffffffffffffffffffffffffffffffff163073ffffffffffffffffffffffffffffffffffffffff161461073357600060e01b9050610794565b7f0895c277367ff99b8c0dec875f3149fc2c82df592f63ca6f0747ac20951690878585858560405161076894939291906122ab565b60405180910390a17f150b7a023d4804d13e8c85fb27262cb750cf6ba9f9dd3bb30d90f482ceeb4b1f90505b949350505050565b600080fd5b60008082116107e5576040517f08c379a00000000000000000000000000000000000000000000000000000000081526004016107dc90612479565b60405180910390fd5b600060096000848152602001908152602001600020541161083b576040517f08c379a000000000000000000000000000000000000000000000000000000000815260040161083290612579565b60405180910390fd5b3373ffffffffffffffffffffffffffffffffffffffff1661085b83610a86565b73ffffffffffffffffffffffffffffffffffffffff16146108b1576040517f08c379a00000000000000000000000000000000000000000000000000000000081526004016108a890612539565b60405180910390fd5b6000600860009054906101000a900473ffffffffffffffffffffffffffffffffffffffff1690503073ffffffffffffffffffffffffffffffffffffffff168173ffffffffffffffffffffffffffffffffffffffff16636352211e856040518263ffffffff1660e01b81526004016109289190612599565b60206040518083038186803b15801561094057600080fd5b505afa158015610954573d6000803e3d6000fd5b505050506040513d601f19601f820116820180604052508101906109789190611cd4565b73ffffffffffffffffffffffffffffffffffffffff16146109ce576040517f08c379a00000000000000000000000000000000000000000000000000000000081526004016109c5906123d9565b60405180910390fd5b8073ffffffffffffffffffffffffffffffffffffffff1663b88d4fde3033866040518463ffffffff1660e01b8152600401610a0b939291906122f7565b600060405180830381600087803b158015610a2557600080fd5b505af1158015610a39573d6000803e3d6000fd5b50505050610a46836114b1565b600960008481526020019081526020016000206000905582915050919050565b610a8183838360405180602001604052806000815250611117565b505050565b6000806002600084815260200190815260200160002060009054906101000a900473ffffffffffffffffffffffffffffffffffffffff169050600073ffffffffffffffffffffffffffffffffffffffff168173ffffffffffffffffffffffffffffffffffffffff161415610b2f576040517f08c379a0000000000000000000000000000000000000000000000000000000008152600401610b2690612439565b60405180910390fd5b80915050919050565b600860009054906101000a900473ffffffffffffffffffffffffffffffffffffffff1681565b60008073ffffffffffffffffffffffffffffffffffffffff168273ffffffffffffffffffffffffffffffffffffffff161415610bcf576040517f08c379a0000000000000000000000000000000000000000000000000000000008152600401610bc690612419565b60405180910390fd5b600360008373ffffffffffffffffffffffffffffffffffffffff1673ffffffffffffffffffffffffffffffffffffffff168152602001908152602001600020549050919050565b606060018054610c25906127ef565b80601f0160208091040260200160405190810160405280929190818152602001828054610c51906127ef565b8015610c9e5780601f10610c7357610100808354040283529160200191610c9e565b820191906000526020600020905b815481529060010190602001808311610c8157829003601f168201915b5050505050905090565b6000808211610cec576040517f08c379a0000000000000000000000000000000000000000000000000000000008152600401610ce390612479565b60405180910390fd5b6000600960008481526020019081526020016000205414610d42576040517f08c379a0000000000000000000000000000000000000000000000000000000008152600401610d3990612559565b60405180910390fd5b6000600860009054906101000a900473ffffffffffffffffffffffffffffffffffffffff1690503373ffffffffffffffffffffffffffffffffffffffff168173ffffffffffffffffffffffffffffffffffffffff16636352211e856040518263ffffffff1660e01b8152600401610db99190612599565b60206040518083038186803b158015610dd157600080fd5b505afa158015610de5573d6000803e3d6000fd5b505050506040513d601f19601f82011682018060405250810190610e099190611cd4565b73ffffffffffffffffffffffffffffffffffffffff1614610e5f576040517f08c379a0000000000000000000000000000000000000000000000000000000008152600401610e5690612539565b60405180910390fd5b60008173ffffffffffffffffffffffffffffffffffffffff1663c87b56dd856040518263ffffffff1660e01b8152600401610e9a9190612599565b60006040518083038186803b158015610eb257600080fd5b505afa158015610ec6573d6000803e3d6000fd5b505050506040513d6000823e3d601f19601f82011682018060405250810190610eef9190611ec4565b90508173ffffffffffffffffffffffffffffffffffffffff1663b88d4fde3330876040518463ffffffff1660e01b8152600401610f2e939291906122f7565b600060405180830381600087803b158015610f4857600080fd5b505af1158015610f5c573d6000803e3d6000fd5b50505050610f6a3385611504565b610f7484826116d2565b4360096000868152602001908152602001600020819055508392505050919050565b610f9e6113f0565b73ffffffffffffffffffffffffffffffffffffffff168273ffffffffffffffffffffffffffffffffffffffff16141561100c576040517f08c379a0000000000000000000000000000000000000000000000000000000008152600401611003906123b9565b60405180910390fd5b80600560006110196113f0565b73ffffffffffffffffffffffffffffffffffffffff1673ffffffffffffffffffffffffffffffffffffffff16815260200190815260200160002060008473ffffffffffffffffffffffffffffffffffffffff1673ffffffffffffffffffffffffffffffffffffffff16815260200190815260200160002060006101000a81548160ff0219169083151502179055508173ffffffffffffffffffffffffffffffffffffffff166110c66113f0565b73ffffffffffffffffffffffffffffffffffffffff167f17307eab39ab6107e8899845ad3d59bd9653f200f220920489ca2b5937696c318360405161110b9190612341565b60405180910390a35050565b600080fd5b606061112782611384565b611166576040517f08c379a000000000000000000000000000000000000000000000000000000000815260040161115d906124b9565b60405180910390fd5b6000600660008481526020019081526020016000208054611186906127ef565b80601f01602080910402602001604051908101604052809291908181526020018280546111b2906127ef565b80156111ff5780601f106111d4576101008083540402835291602001916111ff565b820191906000526020600020905b8154815290600101906020018083116111e257829003601f168201915b505050505090506000611210611746565b9050600081511415611226578192505050611269565b60008251111561125b57808260405160200161124392919061226c565b60405160208183030381529060405292505050611269565b6112648461175d565b925050505b919050565b60096020528060005260406000206000915090505481565b6000600560008473ffffffffffffffffffffffffffffffffffffffff1673ffffffffffffffffffffffffffffffffffffffff16815260200190815260200160002060008373ffffffffffffffffffffffffffffffffffffffff1673ffffffffffffffffffffffffffffffffffffffff16815260200190815260200160002060009054906101000a900460ff16905092915050565b60007f01ffc9a7000000000000000000000000000000000000000000000000000000007bffffffffffffffffffffffffffffffffffffffffffffffffffffffff1916827bffffffffffffffffffffffffffffffffffffffffffffffffffffffff1916149050919050565b60008073ffffffffffffffffffffffffffffffffffffffff166002600084815260200190815260200160002060009054906101000a900473ffffffffffffffffffffffffffffffffffffffff1673ffffffffffffffffffffffffffffffffffffffff1614159050919050565b600033905090565b816004600083815260200190815260200160002060006101000a81548173ffffffffffffffffffffffffffffffffffffffff021916908373ffffffffffffffffffffffffffffffffffffffff160217905550808273ffffffffffffffffffffffffffffffffffffffff1661146b83610a86565b73ffffffffffffffffffffffffffffffffffffffff167f8c5be1e5ebec7d5bd14f71427d1e84f3dd0314c0f7b2291e5b200ac8c7c3b92560405160405180910390a45050565b6114ba81611804565b60006006600083815260200190815260200160002080546114da906127ef565b905014611501576006600082815260200190815260200160002060006115009190611a7b565b5b50565b600073ffffffffffffffffffffffffffffffffffffffff168273ffffffffffffffffffffffffffffffffffffffff161415611574576040517f08c379a000000000000000000000000000000000000000000000000000000000815260040161156b90612499565b60405180910390fd5b61157d81611384565b156115bd576040517f08c379a00000000000000000000000000000000000000000000000000000000081526004016115b490612399565b60405180910390fd5b6115c960008383611915565b6001600360008473ffffffffffffffffffffffffffffffffffffffff1673ffffffffffffffffffffffffffffffffffffffff1681526020019081526020016000206000828254611619919061267e565b92505081905550816002600083815260200190815260200160002060006101000a81548173ffffffffffffffffffffffffffffffffffffffff021916908373ffffffffffffffffffffffffffffffffffffffff160217905550808273ffffffffffffffffffffffffffffffffffffffff16600073ffffffffffffffffffffffffffffffffffffffff167fddf252ad1be2c89b69c2b068fc378daa952ba7f163c4a11628f55a4df523b3ef60405160405180910390a45050565b6116db82611384565b61171a576040517f08c379a000000000000000000000000000000000000000000000000000000000815260040161171190612459565b60405180910390fd5b80600660008481526020019081526020016000209080519060200190611741929190611abb565b505050565b606060405180602001604052806000815250905090565b606061176882611384565b6117a7576040517f08c379a000000000000000000000000000000000000000000000000000000000815260040161179e906124f9565b60405180910390fd5b60006117b1611746565b905060008151116117d157604051806020016040528060008152506117fc565b806117db8461191a565b6040516020016117ec92919061226c565b6040516020818303038152906040525b915050919050565b600061180f82610a86565b905061181d81600084611915565b6118286000836113f8565b6001600360008373ffffffffffffffffffffffffffffffffffffffff1673ffffffffffffffffffffffffffffffffffffffff16815260200190815260200160002060008282546118789190612705565b925050819055506002600083815260200190815260200160002060006101000a81549073ffffffffffffffffffffffffffffffffffffffff021916905581600073ffffffffffffffffffffffffffffffffffffffff168273ffffffffffffffffffffffffffffffffffffffff167fddf252ad1be2c89b69c2b068fc378daa952ba7f163c4a11628f55a4df523b3ef60405160405180910390a45050565b505050565b60606000821415611962576040518060400160405280600181526020017f30000000000000000000000000000000000000000000000000000000000000008152509050611a76565b600082905060005b6000821461199457808061197d90612852565b915050600a8261198d91906126d4565b915061196a565b60008167ffffffffffffffff8111156119b0576119af612988565b5b6040519080825280601f01601f1916602001820160405280156119e25781602001600182028036833780820191505090505b5090505b60008514611a6f576001826119fb9190612705565b9150600a85611a0a919061289b565b6030611a16919061267e565b60f81b818381518110611a2c57611a2b612959565b5b60200101907effffffffffffffffffffffffffffffffffffffffffffffffffffffffffffff1916908160001a905350600a85611a6891906126d4565b94506119e6565b8093505050505b919050565b508054611a87906127ef565b6000825580601f10611a995750611ab8565b601f016020900490600052602060002090810190611ab79190611b41565b5b50565b828054611ac7906127ef565b90600052602060002090601f016020900481019282611ae95760008555611b30565b82601f10611b0257805160ff1916838001178555611b30565b82800160010185558215611b30579182015b82811115611b2f578251825591602001919060010190611b14565b5b509050611b3d9190611b41565b5090565b5b80821115611b5a576000816000905550600101611b42565b5090565b6000611b71611b6c846125d9565b6125b4565b905082815260208101848484011115611b8d57611b8c6129bc565b5b611b988482856127ad565b509392505050565b6000611bb3611bae8461260a565b6125b4565b905082815260208101848484011115611bcf57611bce6129bc565b5b611bda8482856127bc565b509392505050565b600081359050611bf181612d9f565b92915050565b600081519050611c0681612d9f565b92915050565b600081359050611c1b81612db6565b92915050565b600081359050611c3081612dcd565b92915050565b600082601f830112611c4b57611c4a6129b7565b5b8135611c5b848260208601611b5e565b91505092915050565b600082601f830112611c7957611c786129b7565b5b8151611c89848260208601611ba0565b91505092915050565b600081359050611ca181612de4565b92915050565b600060208284031215611cbd57611cbc6129c6565b5b6000611ccb84828501611be2565b91505092915050565b600060208284031215611cea57611ce96129c6565b5b6000611cf884828501611bf7565b91505092915050565b60008060408385031215611d1857611d176129c6565b5b6000611d2685828601611be2565b9250506020611d3785828601611be2565b9150509250929050565b600080600060608486031215611d5a57611d596129c6565b5b6000611d6886828701611be2565b9350506020611d7986828701611be2565b9250506040611d8a86828701611c92565b9150509250925092565b60008060008060808587031215611dae57611dad6129c6565b5b6000611dbc87828801611be2565b9450506020611dcd87828801611be2565b9350506040611dde87828801611c92565b925050606085013567ffffffffffffffff811115611dff57611dfe6129c1565b5b611e0b87828801611c36565b91505092959194509250565b60008060408385031215611e2e57611e2d6129c6565b5b6000611e3c85828601611be2565b9250506020611e4d85828601611c0c565b9150509250929050565b60008060408385031215611e6e57611e6d6129c6565b5b6000611e7c85828601611be2565b9250506020611e8d85828601611c92565b9150509250929050565b600060208284031215611ead57611eac6129c6565b5b6000611ebb84828501611c21565b91505092915050565b600060208284031215611eda57611ed96129c6565b5b600082015167ffffffffffffffff811115611ef857611ef76129c1565b5b611f0484828501611c64565b91505092915050565b600060208284031215611f2357611f226129c6565b5b6000611f3184828501611c92565b91505092915050565b611f4381612739565b82525050565b611f528161274b565b82525050565b611f6181612757565b82525050565b6000611f728261263b565b611f7c8185612651565b9350611f8c8185602086016127bc565b611f95816129cb565b840191505092915050565b6000611fab82612646565b611fb58185612662565b9350611fc58185602086016127bc565b611fce816129cb565b840191505092915050565b6000611fe482612646565b611fee8185612673565b9350611ffe8185602086016127bc565b80840191505092915050565b6000612017601c83612662565b9150612022826129dc565b602082019050919050565b600061203a601983612662565b915061204582612a05565b602082019050919050565b600061205d600b83612662565b915061206882612a2e565b602082019050919050565b6000612080603883612662565b915061208b82612a57565b604082019050919050565b60006120a3602a83612662565b91506120ae82612aa6565b604082019050919050565b60006120c6602983612662565b91506120d182612af5565b604082019050919050565b60006120e9602e83612662565b91506120f482612b44565b604082019050919050565b600061210c601083612662565b915061211782612b93565b602082019050919050565b600061212f602083612662565b915061213a82612bbc565b602082019050919050565b6000612152603183612662565b915061215d82612be5565b604082019050919050565b6000612175602c83612662565b915061218082612c34565b604082019050919050565b6000612198602f83612662565b91506121a382612c83565b604082019050919050565b60006121bb602183612662565b91506121c682612cd2565b604082019050919050565b60006121de600083612651565b91506121e982612d21565b600082019050919050565b6000612201600983612662565b915061220c82612d24565b602082019050919050565b6000612224600e83612662565b915061222f82612d4d565b602082019050919050565b6000612247600a83612662565b915061225282612d76565b602082019050919050565b612266816127a3565b82525050565b60006122788285611fd9565b91506122848284611fd9565b91508190509392505050565b60006020820190506122a56000830184611f3a565b92915050565b60006080820190506122c06000830187611f3a565b6122cd6020830186611f3a565b6122da604083018561225d565b81810360608301526122ec8184611f67565b905095945050505050565b600060808201905061230c6000830186611f3a565b6123196020830185611f3a565b612326604083018461225d565b8181036060830152612337816121d1565b9050949350505050565b60006020820190506123566000830184611f49565b92915050565b60006020820190506123716000830184611f58565b92915050565b600060208201905081810360008301526123918184611fa0565b905092915050565b600060208201905081810360008301526123b28161200a565b9050919050565b600060208201905081810360008301526123d28161202d565b9050919050565b600060208201905081810360008301526123f281612050565b9050919050565b6000602082019050818103600083015261241281612073565b9050919050565b6000602082019050818103600083015261243281612096565b9050919050565b60006020820190508181036000830152612452816120b9565b9050919050565b60006020820190508181036000830152612472816120dc565b9050919050565b60006020820190508181036000830152612492816120ff565b9050919050565b600060208201905081810360008301526124b281612122565b9050919050565b600060208201905081810360008301526124d281612145565b9050919050565b600060208201905081810360008301526124f281612168565b9050919050565b600060208201905081810360008301526125128161218b565b9050919050565b60006020820190508181036000830152612532816121ae565b9050919050565b60006020820190508181036000830152612552816121f4565b9050919050565b6000602082019050818103600083015261257281612217565b9050919050565b600060208201905081810360008301526125928161223a565b9050919050565b60006020820190506125ae600083018461225d565b92915050565b60006125be6125cf565b90506125ca8282612821565b919050565b6000604051905090565b600067ffffffffffffffff8211156125f4576125f3612988565b5b6125fd826129cb565b9050602081019050919050565b600067ffffffffffffffff82111561262557612624612988565b5b61262e826129cb565b9050602081019050919050565b600081519050919050565b600081519050919050565b600082825260208201905092915050565b600082825260208201905092915050565b600081905092915050565b6000612689826127a3565b9150612694836127a3565b9250827fffffffffffffffffffffffffffffffffffffffffffffffffffffffffffffffff038211156126c9576126c86128cc565b5b828201905092915050565b60006126df826127a3565b91506126ea836127a3565b9250826126fa576126f96128fb565b5b828204905092915050565b6000612710826127a3565b915061271b836127a3565b92508282101561272e5761272d6128cc565b5b828203905092915050565b600061274482612783565b9050919050565b60008115159050919050565b60007fffffffff0000000000000000000000000000000000000000000000000000000082169050919050565b600073ffffffffffffffffffffffffffffffffffffffff82169050919050565b6000819050919050565b82818337600083830152505050565b60005b838110156127da5780820151818401526020810190506127bf565b838111156127e9576000848401525b50505050565b6000600282049050600182168061280757607f821691505b6020821081141561281b5761281a61292a565b5b50919050565b61282a826129cb565b810181811067ffffffffffffffff8211171561284957612848612988565b5b80604052505050565b600061285d826127a3565b91507fffffffffffffffffffffffffffffffffffffffffffffffffffffffffffffffff8214156128905761288f6128cc565b5b600182019050919050565b60006128a6826127a3565b91506128b1836127a3565b9250826128c1576128c06128fb565b5b828206905092915050565b7f4e487b7100000000000000000000000000000000000000000000000000000000600052601160045260246000fd5b7f4e487b7100000000000000000000000000000000000000000000000000000000600052601260045260246000fd5b7f4e487b7100000000000000000000000000000000000000000000000000000000600052602260045260246000fd5b7f4e487b7100000000000000000000000000000000000000000000000000000000600052603260045260246000fd5b7f4e487b7100000000000000000000000000000000000000000000000000000000600052604160045260246000fd5b600080fd5b600080fd5b600080fd5b600080fd5b6000601f19601f8301169050919050565b7f4552433732313a20746f6b656e20616c7265616479206d696e74656400000000600082015250565b7f4552433732313a20617070726f766520746f2063616c6c657200000000000000600082015250565b7f4e4f545f57524150504544000000000000000000000000000000000000000000600082015250565b7f4552433732313a20617070726f76652063616c6c6572206973206e6f74206f7760008201527f6e6572206e6f7220617070726f76656420666f7220616c6c0000000000000000602082015250565b7f4552433732313a2062616c616e636520717565727920666f7220746865207a6560008201527f726f206164647265737300000000000000000000000000000000000000000000602082015250565b7f4552433732313a206f776e657220717565727920666f72206e6f6e657869737460008201527f656e7420746f6b656e0000000000000000000000000000000000000000000000602082015250565b7f45524337323155524953746f726167653a2055524920736574206f66206e6f6e60008201527f6578697374656e7420746f6b656e000000000000000000000000000000000000602082015250565b7f494e56414c49445f544f4b454e5f494400000000000000000000000000000000600082015250565b7f4552433732313a206d696e7420746f20746865207a65726f2061646472657373600082015250565b7f45524337323155524953746f726167653a2055524920717565727920666f722060008201527f6e6f6e6578697374656e7420746f6b656e000000000000000000000000000000602082015250565b7f4552433732313a20617070726f76656420717565727920666f72206e6f6e657860008201527f697374656e7420746f6b656e0000000000000000000000000000000000000000602082015250565b7f4552433732314d657461646174613a2055524920717565727920666f72206e6f60008201527f6e6578697374656e7420746f6b656e0000000000000000000000000000000000602082015250565b7f4552433732313a20617070726f76616c20746f2063757272656e74206f776e6560008201527f7200000000000000000000000000000000000000000000000000000000000000602082015250565b50565b7f4e4f545f4f574e45520000000000000000000000000000000000000000000000600082015250565b7f414c52454144595f4d494e544544000000000000000000000000000000000000600082015250565b7f4e4f545f4d494e54454400000000000000000000000000000000000000000000600082015250565b612da881612739565b8114612db357600080fd5b50565b612dbf8161274b565b8114612dca57600080fd5b50565b612dd681612757565b8114612de157600080fd5b50565b612ded816127a3565b8114612df857600080fd5b5056fea2646970667358221220e57da5b2a95f3076086b817a6c25b8ce42a2ee8911d846999f74dc740e2a322964736f6c63430008060033",
  "linkReferences": {},
  "deployedLinkReferences": {}
}