{
  "_format": "hh-sol-artifact-1",
  "contractName": "Denominations",
  "sourceName": "contracts/chainlink/v0.8/Denominations.sol",
  "abi": [
    {
      "inputs": [],
      "name": "ARS",
      "outputs": [
        {
          "internalType": "address",
          "name": "",
          "type": "address"
        }
      ],
      "stateMutability": "view",
      "type": "function"
    },
    {
      "inputs": [],
      "name": "AUD",
      "outputs": [
        {
          "internalType": "address",
          "name": "",
          "type": "address"
        }
      ],
      "stateMutability": "view",
      "type": "function"
    },
    {
      "inputs": [],
      "name": "BRL",
      "outputs": [
        {
          "internalType": "address",
          "name": "",
          "type": "address"
        }
      ],
      "stateMutability": "view",
      "type": "function"
    },
    {
      "inputs": [],
      "name": "BTC",
      "outputs": [
        {
          "internalType": "address",
          "name": "",
          "type": "address"
        }
      ],
      "stateMutability": "view",
      "type": "function"
    },
    {
      "inputs": [],
      "name": "CAD",
      "outputs": [
        {
          "internalType": "address",
          "name": "",
          "type": "address"
        }
      ],
      "stateMutability": "view",
      "type": "function"
    },
    {
      "inputs": [],
      "name": "CHF",
      "outputs": [
        {
          "internalType": "address",
          "name": "",
          "type": "address"
        }
      ],
      "stateMutability": "view",
      "type": "function"
    },
    {
      "inputs": [],
      "name": "CNY",
      "outputs": [
        {
          "internalType": "address",
          "name": "",
          "type": "address"
        }
      ],
      "stateMutability": "view",
      "type": "function"
    },
    {
      "inputs": [],
      "name": "ETH",
      "outputs": [
        {
          "internalType": "address",
          "name": "",
          "type": "address"
        }
      ],
      "stateMutability": "view",
      "type": "function"
    },
    {
      "inputs": [],
      "name": "EUR",
      "outputs": [
        {
          "internalType": "address",
          "name": "",
          "type": "address"
        }
      ],
      "stateMutability": "view",
      "type": "function"
    },
    {
      "inputs": [],
      "name": "GBP",
      "outputs": [
        {
          "internalType": "address",
          "name": "",
          "type": "address"
        }
      ],
      "stateMutability": "view",
      "type": "function"
    },
    {
      "inputs": [],
      "name": "INR",
      "outputs": [
        {
          "internalType": "address",
          "name": "",
          "type": "address"
        }
      ],
      "stateMutability": "view",
      "type": "function"
    },
    {
      "inputs": [],
      "name": "JPY",
      "outputs": [
        {
          "internalType": "address",
          "name": "",
          "type": "address"
        }
      ],
      "stateMutability": "view",
      "type": "function"
    },
    {
      "inputs": [],
      "name": "KRW",
      "outputs": [
        {
          "internalType": "address",
          "name": "",
          "type": "address"
        }
      ],
      "stateMutability": "view",
      "type": "function"
    },
    {
      "inputs": [],
      "name": "NGN",
      "outputs": [
        {
          "internalType": "address",
          "name": "",
          "type": "address"
        }
      ],
      "stateMutability": "view",
      "type": "function"
    },
    {
      "inputs": [],
      "name": "NZD",
      "outputs": [
        {
          "internalType": "address",
          "name": "",
          "type": "address"
        }
      ],
      "stateMutability": "view",
      "type": "function"
    },
    {
      "inputs": [],
      "name": "PHP",
      "outputs": [
        {
          "internalType": "address",
          "name": "",
          "type": "address"
        }
      ],
      "stateMutability": "view",
      "type": "function"
    },
    {
      "inputs": [],
      "name": "RUB",
      "outputs": [
        {
          "internalType": "address",
          "name": "",
          "type": "address"
        }
      ],
      "stateMutability": "view",
      "type": "function"
    },
    {
      "inputs": [],
      "name": "SGD",
      "outputs": [
        {
          "internalType": "address",
          "name": "",
          "type": "address"
        }
      ],
      "stateMutability": "view",
      "type": "function"
    },
    {
      "inputs": [],
      "name": "USD",
      "outputs": [
        {
          "internalType": "address",
          "name": "",
          "type": "address"
        }
      ],
      "stateMutability": "view",
      "type": "function"
    },
    {
      "inputs": [],
      "name": "ZAR",
      "outputs": [
        {
          "internalType": "address",
          "name": "",
          "type": "address"
        }
      ],
      "stateMutability": "view",
      "type": "function"
    }
  ],
  "bytecode": "0x6104bd610053600b82828239805160001a607314610046577f4e487b7100000000000000000000000000000000000000000000000000000000600052600060045260246000fd5b30600052607381538281f3fe73000000000000000000000000000000000000000030146080604052600436106101365760003560e01c806356ef4514116100b7578063a4a235951161007b578063a4a23595146102fd578063ca9d1a721461031b578063e774928e14610339578063f37fcc4214610357578063fd760c491461037557610136565b806356ef4514146102675780636b09583c146102855780638322fff2146102a3578063976d5e77146102c15780639db2a472146102df57610136565b80632792949d116100fe5780632792949d146101d1578063294a2bf2146101ef5780632e79477f1461020d578063465bd0a31461022b57806353f7c3671461024957610136565b806301b8b3391461013b57806303d698f2146101595780630c0128341461017757806319342a64146101955780631bf6c21b146101b3575b600080fd5b610143610393565b604051610150919061043a565b60405180910390f35b610161610399565b60405161016e919061043a565b60405180910390f35b61017f61039f565b60405161018c919061043a565b60405180910390f35b61019d6103a4565b6040516101aa919061043a565b60405180910390f35b6101bb6103a9565b6040516101c8919061043a565b60405180910390f35b6101d96103af565b6040516101e6919061043a565b60405180910390f35b6101f76103c7565b604051610204919061043a565b60405180910390f35b6102156103cd565b604051610222919061043a565b60405180910390f35b6102336103d3565b604051610240919061043a565b60405180910390f35b6102516103d9565b60405161025e919061043a565b60405180910390f35b61026f6103df565b60405161027c919061043a565b60405180910390f35b61028d6103e5565b60405161029a919061043a565b60405180910390f35b6102ab6103eb565b6040516102b8919061043a565b60405180910390f35b6102c9610403565b6040516102d6919061043a565b60405180910390f35b6102e7610409565b6040516102f4919061043a565b60405180910390f35b61030561040f565b604051610312919061043a565b60405180910390f35b610323610414565b604051610330919061043a565b60405180910390f35b61034161041a565b60405161034e919061043a565b60405180910390f35b61035f610420565b60405161036c919061043a565b60405180910390f35b61037d610426565b60405161038a919061043a565b60405180910390f35b61033a81565b61023681565b602081565b607c81565b61034881565b73bbbbbbbbbbbbbbbbbbbbbbbbbbbbbbbbbbbbbbbb81565b6103d281565b6102be81565b61018881565b61026081565b61019a81565b6103da81565b73eeeeeeeeeeeeeeeeeeeeeeeeeeeeeeeeeeeeeeee81565b61028381565b6102c681565b609c81565b61022a81565b61016481565b6102f481565b602481565b61043481610455565b82525050565b600060208201905061044f600083018461042b565b92915050565b600061046082610467565b9050919050565b600073ffffffffffffffffffffffffffffffffffffffff8216905091905056fea2646970667358221220fac3a599748dbb705e930e035c2cab300d656026f4bed149f39851dfd17fd68e64736f6c63430008060033",
  "linkReferences": {},
  "deployedLinkReferences": {}
}