{
  "_format": "hh-sol-artifact-1",
  "contractName": "VRFCoordinatorV2TestHelper",
  "sourceName": "contracts/chainlink/v0.8/tests/VRFCoordinatorV2TestHelper.sol",
  "abi": [
    {
      "inputs": [
        {
          "internalType": "address",
          "name": "link",
          "type": "address"
        },
        {
          "internalType": "address",
          "name": "blockhashStore",
          "type": "address"
        },
        {
          "internalType": "address",
          "name": "linkEthFeed",
          "type": "address"
        }
      ],
      "stateMutability": "nonpayable",
      "type": "constructor"
    },
    {
      "inputs": [
        {
          "internalType": "uint256",
          "name": "internalBalance",
          "type": "uint256"
        },
        {
          "internalType": "uint256",
          "name": "externalBalance",
          "type": "uint256"
        }
      ],
      "name": "BalanceInvariantViolated",
      "type": "error"
    },
    {
      "inputs": [
        {
          "internalType": "uint256",
          "name": "blockNum",
          "type": "uint256"
        }
      ],
      "name": "BlockhashNotInStore",
      "type": "error"
    },
    {
      "inputs": [
        {
          "internalType": "uint32",
          "name": "have",
          "type": "uint32"
        },
        {
          "internalType": "uint32",
          "name": "want",
          "type": "uint32"
        }
      ],
      "name": "GasLimitTooBig",
      "type": "error"
    },
    {
      "inputs": [],
      "name": "IncorrectCommitment",
      "type": "error"
    },
    {
      "inputs": [],
      "name": "InsufficientBalance",
      "type": "error"
    },
    {
      "inputs": [
        {
          "internalType": "uint256",
          "name": "have",
          "type": "uint256"
        },
        {
          "internalType": "uint256",
          "name": "want",
          "type": "uint256"
        }
      ],
      "name": "InsufficientGasForConsumer",
      "type": "error"
    },
    {
      "inputs": [],
      "name": "InvalidCalldata",
      "type": "error"
    },
    {
      "inputs": [
        {
          "internalType": "uint64",
          "name": "subId",
          "type": "uint64"
        },
        {
          "internalType": "address",
          "name": "consumer",
          "type": "address"
        }
      ],
      "name": "InvalidConsumer",
      "type": "error"
    },
    {
      "inputs": [
        {
          "internalType": "int256",
          "name": "linkWei",
          "type": "int256"
        }
      ],
      "name": "InvalidLinkWeiPrice",
      "type": "error"
    },
    {
      "inputs": [
        {
          "internalType": "uint16",
          "name": "have",
          "type": "uint16"
        },
        {
          "internalType": "uint16",
          "name": "min",
          "type": "uint16"
        },
        {
          "internalType": "uint16",
          "name": "max",
          "type": "uint16"
        }
      ],
      "name": "InvalidRequestConfirmations",
      "type": "error"
    },
    {
      "inputs": [],
      "name": "InvalidSubscription",
      "type": "error"
    },
    {
      "inputs": [
        {
          "internalType": "address",
          "name": "proposedOwner",
          "type": "address"
        }
      ],
      "name": "MustBeRequestedOwner",
      "type": "error"
    },
    {
      "inputs": [
        {
          "internalType": "address",
          "name": "owner",
          "type": "address"
        }
      ],
      "name": "MustBeSubOwner",
      "type": "error"
    },
    {
      "inputs": [],
      "name": "NoCorrespondingRequest",
      "type": "error"
    },
    {
      "inputs": [
        {
          "internalType": "bytes32",
          "name": "keyHash",
          "type": "bytes32"
        }
      ],
      "name": "NoSuchProvingKey",
      "type": "error"
    },
    {
      "inputs": [
        {
          "internalType": "uint32",
          "name": "have",
          "type": "uint32"
        },
        {
          "internalType": "uint32",
          "name": "want",
          "type": "uint32"
        }
      ],
      "name": "NumWordsTooBig",
      "type": "error"
    },
    {
      "inputs": [],
      "name": "OnlyCallableFromLink",
      "type": "error"
    },
    {
      "inputs": [],
      "name": "PaymentTooLarge",
      "type": "error"
    },
    {
      "inputs": [
        {
          "internalType": "bytes32",
          "name": "keyHash",
          "type": "bytes32"
        }
      ],
      "name": "ProvingKeyAlreadyRegistered",
      "type": "error"
    },
    {
      "inputs": [],
      "name": "Reentrant",
      "type": "error"
    },
    {
      "inputs": [],
      "name": "TooManyConsumers",
      "type": "error"
    },
    {
      "anonymous": false,
      "inputs": [
        {
          "indexed": false,
          "internalType": "uint16",
          "name": "minimumRequestConfirmations",
          "type": "uint16"
        },
        {
          "indexed": false,
          "internalType": "uint32",
          "name": "fulfillmentFlatFeeLinkPPM",
          "type": "uint32"
        },
        {
          "indexed": false,
          "internalType": "uint32",
          "name": "maxGasLimit",
          "type": "uint32"
        },
        {
          "indexed": false,
          "internalType": "uint32",
          "name": "stalenessSeconds",
          "type": "uint32"
        },
        {
          "indexed": false,
          "internalType": "uint32",
          "name": "gasAfterPaymentCalculation",
          "type": "uint32"
        },
        {
          "indexed": false,
          "internalType": "uint96",
          "name": "minimumSubscriptionBalance",
          "type": "uint96"
        },
        {
          "indexed": false,
          "internalType": "int256",
          "name": "fallbackWeiPerUnitLink",
          "type": "int256"
        }
      ],
      "name": "ConfigSet",
      "type": "event"
    },
    {
      "anonymous": false,
      "inputs": [
        {
          "indexed": false,
          "internalType": "address",
          "name": "to",
          "type": "address"
        },
        {
          "indexed": false,
          "internalType": "uint256",
          "name": "amount",
          "type": "uint256"
        }
      ],
      "name": "FundsRecovered",
      "type": "event"
    },
    {
      "anonymous": false,
      "inputs": [
        {
          "indexed": true,
          "internalType": "address",
          "name": "from",
          "type": "address"
        },
        {
          "indexed": true,
          "internalType": "address",
          "name": "to",
          "type": "address"
        }
      ],
      "name": "OwnershipTransferRequested",
      "type": "event"
    },
    {
      "anonymous": false,
      "inputs": [
        {
          "indexed": true,
          "internalType": "address",
          "name": "from",
          "type": "address"
        },
        {
          "indexed": true,
          "internalType": "address",
          "name": "to",
          "type": "address"
        }
      ],
      "name": "OwnershipTransferred",
      "type": "event"
    },
    {
      "anonymous": false,
      "inputs": [
        {
          "indexed": false,
          "internalType": "bytes32",
          "name": "keyHash",
          "type": "bytes32"
        },
        {
          "indexed": true,
          "internalType": "address",
          "name": "oracle",
          "type": "address"
        }
      ],
      "name": "ProvingKeyDeregistered",
      "type": "event"
    },
    {
      "anonymous": false,
      "inputs": [
        {
          "indexed": false,
          "internalType": "bytes32",
          "name": "keyHash",
          "type": "bytes32"
        },
        {
          "indexed": true,
          "internalType": "address",
          "name": "oracle",
          "type": "address"
        }
      ],
      "name": "ProvingKeyRegistered",
      "type": "event"
    },
    {
      "anonymous": false,
      "inputs": [
        {
          "indexed": true,
          "internalType": "uint256",
          "name": "requestId",
          "type": "uint256"
        },
        {
          "indexed": false,
          "internalType": "uint256[]",
          "name": "output",
          "type": "uint256[]"
        },
        {
          "indexed": false,
          "internalType": "bool",
          "name": "success",
          "type": "bool"
        }
      ],
      "name": "RandomWordsFulfilled",
      "type": "event"
    },
    {
      "anonymous": false,
      "inputs": [
        {
          "indexed": true,
          "internalType": "bytes32",
          "name": "keyHash",
          "type": "bytes32"
        },
        {
          "indexed": false,
          "internalType": "uint256",
          "name": "requestId",
          "type": "uint256"
        },
        {
          "indexed": false,
          "internalType": "uint256",
          "name": "preSeed",
          "type": "uint256"
        },
        {
          "indexed": false,
          "internalType": "uint64",
          "name": "subId",
          "type": "uint64"
        },
        {
          "indexed": false,
          "internalType": "uint16",
          "name": "minimumRequestConfirmations",
          "type": "uint16"
        },
        {
          "indexed": false,
          "internalType": "uint32",
          "name": "callbackGasLimit",
          "type": "uint32"
        },
        {
          "indexed": false,
          "internalType": "uint32",
          "name": "numWords",
          "type": "uint32"
        },
        {
          "indexed": true,
          "internalType": "address",
          "name": "sender",
          "type": "address"
        }
      ],
      "name": "RandomWordsRequested",
      "type": "event"
    },
    {
      "anonymous": false,
      "inputs": [
        {
          "indexed": true,
          "internalType": "uint64",
          "name": "subId",
          "type": "uint64"
        },
        {
          "indexed": false,
          "internalType": "address",
          "name": "to",
          "type": "address"
        },
        {
          "indexed": false,
          "internalType": "uint256",
          "name": "amount",
          "type": "uint256"
        }
      ],
      "name": "SubscriptionCanceled",
      "type": "event"
    },
    {
      "anonymous": false,
      "inputs": [
        {
          "indexed": true,
          "internalType": "uint64",
          "name": "subId",
          "type": "uint64"
        },
        {
          "indexed": false,
          "internalType": "address",
          "name": "consumer",
          "type": "address"
        }
      ],
      "name": "SubscriptionConsumerAdded",
      "type": "event"
    },
    {
      "anonymous": false,
      "inputs": [
        {
          "indexed": true,
          "internalType": "uint64",
          "name": "subId",
          "type": "uint64"
        },
        {
          "indexed": false,
          "internalType": "address",
          "name": "consumer",
          "type": "address"
        }
      ],
      "name": "SubscriptionConsumerRemoved",
      "type": "event"
    },
    {
      "anonymous": false,
      "inputs": [
        {
          "indexed": true,
          "internalType": "uint64",
          "name": "subId",
          "type": "uint64"
        },
        {
          "indexed": false,
          "internalType": "address",
          "name": "owner",
          "type": "address"
        }
      ],
      "name": "SubscriptionCreated",
      "type": "event"
    },
    {
      "anonymous": false,
      "inputs": [
        {
          "indexed": true,
          "internalType": "uint64",
          "name": "subId",
          "type": "uint64"
        },
        {
          "indexed": false,
          "internalType": "uint256",
          "name": "oldBalance",
          "type": "uint256"
        },
        {
          "indexed": false,
          "internalType": "uint256",
          "name": "newBalance",
          "type": "uint256"
        }
      ],
      "name": "SubscriptionDefunded",
      "type": "event"
    },
    {
      "anonymous": false,
      "inputs": [
        {
          "indexed": true,
          "internalType": "uint64",
          "name": "subId",
          "type": "uint64"
        },
        {
          "indexed": false,
          "internalType": "uint256",
          "name": "oldBalance",
          "type": "uint256"
        },
        {
          "indexed": false,
          "internalType": "uint256",
          "name": "newBalance",
          "type": "uint256"
        }
      ],
      "name": "SubscriptionFunded",
      "type": "event"
    },
    {
      "anonymous": false,
      "inputs": [
        {
          "indexed": true,
          "internalType": "uint64",
          "name": "subId",
          "type": "uint64"
        },
        {
          "indexed": false,
          "internalType": "address",
          "name": "from",
          "type": "address"
        },
        {
          "indexed": false,
          "internalType": "address",
          "name": "to",
          "type": "address"
        }
      ],
      "name": "SubscriptionOwnerTransferRequested",
      "type": "event"
    },
    {
      "anonymous": false,
      "inputs": [
        {
          "indexed": true,
          "internalType": "uint64",
          "name": "subId",
          "type": "uint64"
        },
        {
          "indexed": false,
          "internalType": "address",
          "name": "from",
          "type": "address"
        },
        {
          "indexed": false,
          "internalType": "address",
          "name": "to",
          "type": "address"
        }
      ],
      "name": "SubscriptionOwnerTransferred",
      "type": "event"
    },
    {
      "inputs": [],
      "name": "BLOCKHASH_STORE",
      "outputs": [
        {
          "internalType": "contract BlockhashStoreInterface",
          "name": "",
          "type": "address"
        }
      ],
      "stateMutability": "view",
      "type": "function"
    },
    {
      "inputs": [],
      "name": "LINK",
      "outputs": [
        {
          "internalType": "contract LinkTokenInterface",
          "name": "",
          "type": "address"
        }
      ],
      "stateMutability": "view",
      "type": "function"
    },
    {
      "inputs": [],
      "name": "LINK_ETH_FEED",
      "outputs": [
        {
          "internalType": "contract AggregatorV3Interface",
          "name": "",
          "type": "address"
        }
      ],
      "stateMutability": "view",
      "type": "function"
    },
    {
      "inputs": [],
      "name": "MAX_CONSUMERS",
      "outputs": [
        {
          "internalType": "uint16",
          "name": "",
          "type": "uint16"
        }
      ],
      "stateMutability": "view",
      "type": "function"
    },
    {
      "inputs": [],
      "name": "MAX_NUM_WORDS",
      "outputs": [
        {
          "internalType": "uint32",
          "name": "",
          "type": "uint32"
        }
      ],
      "stateMutability": "view",
      "type": "function"
    },
    {
      "inputs": [],
      "name": "MAX_REQUEST_CONFIRMATIONS",
      "outputs": [
        {
          "internalType": "uint16",
          "name": "",
          "type": "uint16"
        }
      ],
      "stateMutability": "view",
      "type": "function"
    },
    {
      "inputs": [],
      "name": "MIN_GAS_LIMIT",
      "outputs": [
        {
          "internalType": "uint256",
          "name": "",
          "type": "uint256"
        }
      ],
      "stateMutability": "view",
      "type": "function"
    },
    {
      "inputs": [],
      "name": "acceptOwnership",
      "outputs": [],
      "stateMutability": "nonpayable",
      "type": "function"
    },
    {
      "inputs": [
        {
          "internalType": "uint64",
          "name": "subId",
          "type": "uint64"
        }
      ],
      "name": "acceptSubscriptionOwnerTransfer",
      "outputs": [],
      "stateMutability": "nonpayable",
      "type": "function"
    },
    {
      "inputs": [
        {
          "internalType": "uint64",
          "name": "subId",
          "type": "uint64"
        },
        {
          "internalType": "address",
          "name": "consumer",
          "type": "address"
        }
      ],
      "name": "addConsumer",
      "outputs": [],
      "stateMutability": "nonpayable",
      "type": "function"
    },
    {
      "inputs": [
        {
          "internalType": "uint256",
          "name": "gasAfterPaymentCalculation",
          "type": "uint256"
        },
        {
          "internalType": "uint32",
          "name": "fulfillmentFlatFeeLinkPPM",
          "type": "uint32"
        },
        {
          "internalType": "uint256",
          "name": "weiPerUnitGas",
          "type": "uint256"
        }
      ],
      "name": "calculatePaymentAmountTest",
      "outputs": [],
      "stateMutability": "nonpayable",
      "type": "function"
    },
    {
      "inputs": [
        {
          "internalType": "uint64",
          "name": "subId",
          "type": "uint64"
        },
        {
          "internalType": "address",
          "name": "to",
          "type": "address"
        }
      ],
      "name": "cancelSubscription",
      "outputs": [],
      "stateMutability": "nonpayable",
      "type": "function"
    },
    {
      "inputs": [],
      "name": "createSubscription",
      "outputs": [
        {
          "internalType": "uint64",
          "name": "",
          "type": "uint64"
        }
      ],
      "stateMutability": "nonpayable",
      "type": "function"
    },
    {
      "inputs": [
        {
          "internalType": "uint64",
          "name": "subId",
          "type": "uint64"
        },
        {
          "internalType": "address",
          "name": "to",
          "type": "address"
        },
        {
          "internalType": "uint96",
          "name": "amount",
          "type": "uint96"
        }
      ],
      "name": "defundSubscription",
      "outputs": [],
      "stateMutability": "nonpayable",
      "type": "function"
    },
    {
      "inputs": [
        {
          "internalType": "uint256[2]",
          "name": "publicProvingKey",
          "type": "uint256[2]"
        }
      ],
      "name": "deregisterProvingKey",
      "outputs": [],
      "stateMutability": "nonpayable",
      "type": "function"
    },
    {
      "inputs": [
        {
          "components": [
            {
              "internalType": "uint256[2]",
              "name": "pk",
              "type": "uint256[2]"
            },
            {
              "internalType": "uint256[2]",
              "name": "gamma",
              "type": "uint256[2]"
            },
            {
              "internalType": "uint256",
              "name": "c",
              "type": "uint256"
            },
            {
              "internalType": "uint256",
              "name": "s",
              "type": "uint256"
            },
            {
              "internalType": "uint256",
              "name": "seed",
              "type": "uint256"
            },
            {
              "internalType": "address",
              "name": "uWitness",
              "type": "address"
            },
            {
              "internalType": "uint256[2]",
              "name": "cGammaWitness",
              "type": "uint256[2]"
            },
            {
              "internalType": "uint256[2]",
              "name": "sHashWitness",
              "type": "uint256[2]"
            },
            {
              "internalType": "uint256",
              "name": "zInv",
              "type": "uint256"
            }
          ],
          "internalType": "struct VRF.Proof",
          "name": "proof",
          "type": "tuple"
        },
        {
          "components": [
            {
              "internalType": "uint64",
              "name": "blockNum",
              "type": "uint64"
            },
            {
              "internalType": "uint64",
              "name": "subId",
              "type": "uint64"
            },
            {
              "internalType": "uint32",
              "name": "callbackGasLimit",
              "type": "uint32"
            },
            {
              "internalType": "uint32",
              "name": "numWords",
              "type": "uint32"
            },
            {
              "internalType": "address",
              "name": "sender",
              "type": "address"
            }
          ],
          "internalType": "struct VRFCoordinatorV2.RequestCommitment",
          "name": "rc",
          "type": "tuple"
        }
      ],
      "name": "fulfillRandomWords",
      "outputs": [],
      "stateMutability": "nonpayable",
      "type": "function"
    },
    {
      "inputs": [
        {
          "internalType": "uint256",
          "name": "requestId",
          "type": "uint256"
        }
      ],
      "name": "getCommitment",
      "outputs": [
        {
          "internalType": "bytes32",
          "name": "",
          "type": "bytes32"
        }
      ],
      "stateMutability": "view",
      "type": "function"
    },
    {
      "inputs": [],
      "name": "getConfig",
      "outputs": [
        {
          "internalType": "uint16",
          "name": "minimumRequestConfirmations",
          "type": "uint16"
        },
        {
          "internalType": "uint32",
          "name": "fulfillmentFlatFeeLinkPPM",
          "type": "uint32"
        },
        {
          "internalType": "uint32",
          "name": "maxGasLimit",
          "type": "uint32"
        },
        {
          "internalType": "uint32",
          "name": "stalenessSeconds",
          "type": "uint32"
        },
        {
          "internalType": "uint32",
          "name": "gasAfterPaymentCalculation",
          "type": "uint32"
        },
        {
          "internalType": "uint96",
          "name": "minimumSubscriptionBalance",
          "type": "uint96"
        },
        {
          "internalType": "int256",
          "name": "fallbackWeiPerUnitLink",
          "type": "int256"
        }
      ],
      "stateMutability": "view",
      "type": "function"
    },
    {
      "inputs": [],
      "name": "getGasStart",
      "outputs": [
        {
          "internalType": "uint256",
          "name": "",
          "type": "uint256"
        }
      ],
      "stateMutability": "view",
      "type": "function"
    },
    {
      "inputs": [],
      "name": "getPaymentAmount",
      "outputs": [
        {
          "internalType": "uint96",
          "name": "",
          "type": "uint96"
        }
      ],
      "stateMutability": "view",
      "type": "function"
    },
    {
      "inputs": [
        {
          "internalType": "uint64",
          "name": "subId",
          "type": "uint64"
        }
      ],
      "name": "getSubscription",
      "outputs": [
        {
          "internalType": "uint96",
          "name": "balance",
          "type": "uint96"
        },
        {
          "internalType": "address",
          "name": "owner",
          "type": "address"
        },
        {
          "internalType": "address[]",
          "name": "consumers",
          "type": "address[]"
        }
      ],
      "stateMutability": "view",
      "type": "function"
    },
    {
      "inputs": [
        {
          "internalType": "uint256[2]",
          "name": "publicKey",
          "type": "uint256[2]"
        }
      ],
      "name": "hashOfKey",
      "outputs": [
        {
          "internalType": "bytes32",
          "name": "",
          "type": "bytes32"
        }
      ],
      "stateMutability": "pure",
      "type": "function"
    },
    {
      "inputs": [
        {
          "internalType": "address",
          "name": "sender",
          "type": "address"
        },
        {
          "internalType": "uint256",
          "name": "amount",
          "type": "uint256"
        },
        {
          "internalType": "bytes",
          "name": "data",
          "type": "bytes"
        }
      ],
      "name": "onTokenTransfer",
      "outputs": [],
      "stateMutability": "nonpayable",
      "type": "function"
    },
    {
      "inputs": [
        {
          "internalType": "address",
          "name": "recipient",
          "type": "address"
        },
        {
          "internalType": "uint96",
          "name": "amount",
          "type": "uint96"
        }
      ],
      "name": "oracleWithdraw",
      "outputs": [],
      "stateMutability": "nonpayable",
      "type": "function"
    },
    {
      "inputs": [],
      "name": "owner",
      "outputs": [
        {
          "internalType": "address",
          "name": "",
          "type": "address"
        }
      ],
      "stateMutability": "view",
      "type": "function"
    },
    {
      "inputs": [
        {
          "internalType": "address",
          "name": "to",
          "type": "address"
        }
      ],
      "name": "recoverFunds",
      "outputs": [],
      "stateMutability": "nonpayable",
      "type": "function"
    },
    {
      "inputs": [
        {
          "internalType": "address",
          "name": "oracle",
          "type": "address"
        },
        {
          "internalType": "uint256[2]",
          "name": "publicProvingKey",
          "type": "uint256[2]"
        }
      ],
      "name": "registerProvingKey",
      "outputs": [],
      "stateMutability": "nonpayable",
      "type": "function"
    },
    {
      "inputs": [
        {
          "internalType": "uint64",
          "name": "subId",
          "type": "uint64"
        },
        {
          "internalType": "address",
          "name": "consumer",
          "type": "address"
        }
      ],
      "name": "removeConsumer",
      "outputs": [],
      "stateMutability": "nonpayable",
      "type": "function"
    },
    {
      "inputs": [
        {
          "internalType": "bytes32",
          "name": "keyHash",
          "type": "bytes32"
        },
        {
          "internalType": "uint64",
          "name": "subId",
          "type": "uint64"
        },
        {
          "internalType": "uint16",
          "name": "requestConfirmations",
          "type": "uint16"
        },
        {
          "internalType": "uint32",
          "name": "callbackGasLimit",
          "type": "uint32"
        },
        {
          "internalType": "uint32",
          "name": "numWords",
          "type": "uint32"
        }
      ],
      "name": "requestRandomWords",
      "outputs": [
        {
          "internalType": "uint256",
          "name": "",
          "type": "uint256"
        }
      ],
      "stateMutability": "nonpayable",
      "type": "function"
    },
    {
      "inputs": [
        {
          "internalType": "uint64",
          "name": "subId",
          "type": "uint64"
        },
        {
          "internalType": "address",
          "name": "newOwner",
          "type": "address"
        }
      ],
      "name": "requestSubscriptionOwnerTransfer",
      "outputs": [],
      "stateMutability": "nonpayable",
      "type": "function"
    },
    {
      "inputs": [],
      "name": "s_totalBalance",
      "outputs": [
        {
          "internalType": "uint96",
          "name": "",
          "type": "uint96"
        }
      ],
      "stateMutability": "view",
      "type": "function"
    },
    {
      "inputs": [
        {
          "internalType": "uint16",
          "name": "minimumRequestConfirmations",
          "type": "uint16"
        },
        {
          "internalType": "uint32",
          "name": "fulfillmentFlatFeeLinkPPM",
          "type": "uint32"
        },
        {
          "internalType": "uint32",
          "name": "maxGasLimit",
          "type": "uint32"
        },
        {
          "internalType": "uint32",
          "name": "stalenessSeconds",
          "type": "uint32"
        },
        {
          "internalType": "uint32",
          "name": "gasAfterPaymentCalculation",
          "type": "uint32"
        },
        {
          "internalType": "uint96",
          "name": "minimumSubscriptionBalance",
          "type": "uint96"
        },
        {
          "internalType": "int256",
          "name": "fallbackWeiPerUnitLink",
          "type": "int256"
        }
      ],
      "name": "setConfig",
      "outputs": [],
      "stateMutability": "nonpayable",
      "type": "function"
    },
    {
      "inputs": [
        {
          "internalType": "address",
          "name": "to",
          "type": "address"
        }
      ],
      "name": "transferOwnership",
      "outputs": [],
      "stateMutability": "nonpayable",
      "type": "function"
    },
    {
      "inputs": [],
      "name": "typeAndVersion",
      "outputs": [
        {
          "internalType": "string",
          "name": "",
          "type": "string"
        }
      ],
      "stateMutability": "pure",
      "type": "function"
    }
  ],
  "bytecode": "0x60e06040523480156200001157600080fd5b506040516200865438038062008654833981810160405281019062000037919062000332565b828282338060008073ffffffffffffffffffffffffffffffffffffffff168273ffffffffffffffffffffffffffffffffffffffff161415620000b0576040517f08c379a0000000000000000000000000000000000000000000000000000000008152600401620000a790620003dc565b60405180910390fd5b816000806101000a81548173ffffffffffffffffffffffffffffffffffffffff021916908373ffffffffffffffffffffffffffffffffffffffff160217905550600073ffffffffffffffffffffffffffffffffffffffff168173ffffffffffffffffffffffffffffffffffffffff161462000137576200013681620001eb60201b60201c565b5b5050508273ffffffffffffffffffffffffffffffffffffffff1660808173ffffffffffffffffffffffffffffffffffffffff1660601b815250508073ffffffffffffffffffffffffffffffffffffffff1660a08173ffffffffffffffffffffffffffffffffffffffff1660601b815250508173ffffffffffffffffffffffffffffffffffffffff1660c08173ffffffffffffffffffffffffffffffffffffffff1660601b81525050505050505050620004d6565b3373ffffffffffffffffffffffffffffffffffffffff168173ffffffffffffffffffffffffffffffffffffffff1614156200025d576040517f08c379a00000000000000000000000000000000000000000000000000000000081526004016200025490620003fe565b60405180910390fd5b80600160006101000a81548173ffffffffffffffffffffffffffffffffffffffff021916908373ffffffffffffffffffffffffffffffffffffffff1602179055508073ffffffffffffffffffffffffffffffffffffffff1660008054906101000a900473ffffffffffffffffffffffffffffffffffffffff1673ffffffffffffffffffffffffffffffffffffffff167fed8889f560326eb138920d842192f0eb3dd22b4f139c87a2c57538e05bae127860405160405180910390a350565b6000815190506200032c81620004bc565b92915050565b6000806000606084860312156200034e576200034d62000465565b5b60006200035e868287016200031b565b935050602062000371868287016200031b565b925050604062000384868287016200031b565b9150509250925092565b60006200039d60188362000420565b9150620003aa826200046a565b602082019050919050565b6000620003c460178362000420565b9150620003d18262000493565b602082019050919050565b60006020820190508181036000830152620003f7816200038e565b9050919050565b600060208201905081810360008301526200041981620003b5565b9050919050565b600082825260208201905092915050565b60006200043e8262000445565b9050919050565b600073ffffffffffffffffffffffffffffffffffffffff82169050919050565b600080fd5b7f43616e6e6f7420736574206f776e657220746f207a65726f0000000000000000600082015250565b7f43616e6e6f74207472616e7366657220746f2073656c66000000000000000000600082015250565b620004c78162000431565b8114620004d357600080fd5b50565b60805160601c60a05160601c60c05160601c61810d620005476000396000818161183f01526147370152600081816134850152614a23015260008181610a8a01528181610e0a01528181611758015281816130bd0152818161402b0152818161417201526142a9015261810d6000f3fe608060405234801561001057600080fd5b50600436106102065760003560e01c806379ba50971161011a578063a47c7696116100ad578063c3f909d41161007c578063c3f909d41461057d578063caf70c4a146105a1578063d7ae1d30146105d1578063e72f6e30146105ed578063f2fde38b1461060957610206565b8063a47c7696146104f5578063a4c0ed3614610527578063ad17836114610543578063af198b971461056157610206565b806386fe91c7116100e957806386fe91c71461047f5780638da5cb5b1461049d5780639f87fad7146104bb578063a21a23e4146104d757610206565b806379ba50971461041f5780637ce1ffeb146104295780638235974014610447578063862545d11461046357610206565b80635d3b1d301161019d57806369bcdb7d1161016c57806369bcdb7d1461037d5780636f64f03f146103ad5780637341c10c146103c95780637697bc18146103e5578063775de59d1461040357610206565b80635d3b1d30146102f557806364d51a2a1461032557806366316d8d14610343578063689c45171461035f57610206565b80631b6b6d23116101d95780631b6b6d231461027f5780633e8817aa1461029d57806340d6bb82146102bb57806344380d1f146102d957610206565b806304c357cb1461020b57806308821d581461022757806315c48b8414610243578063181f5a7714610261575b600080fd5b61022560048036038101906102209190616630565b610625565b005b610241600480360381019061023c9190616343565b6108c7565b005b61024b610a46565b604051610258919061728d565b60405180910390f35b610269610a4b565b604051610276919061702b565b60405180910390f35b610287610a88565b6040516102949190616ff5565b60405180910390f35b6102a5610aac565b6040516102b29190617603565b60405180910390f35b6102c3610ace565b6040516102d09190617560565b60405180910390f35b6102f360048036038101906102ee9190616670565b610ad4565b005b61030f600480360381019061030a91906163f7565b610f79565b60405161031c919061734e565b60405180910390f35b61032d61156f565b60405161033a919061728d565b60405180910390f35b61035d60048036038101906103589190616303565b611574565b005b61036761183d565b6040516103749190616fda565b60405180910390f35b61039760048036038101906103929190616556565b611861565b6040516103a49190616ef1565b60405180910390f35b6103c760048036038101906103c2919061624f565b61187e565b005b6103e360048036038101906103de9190616630565b611a13565b005b6103ed611e45565b6040516103fa919061734e565b60405180910390f35b61041d600480360381019061041891906165b0565b611e4f565b005b610427611e90565b005b610431612025565b60405161043e919061734e565b60405180910390f35b610461600480360381019061045c9190616603565b61202b565b005b61047d600480360381019061047891906164b4565b612394565b005b610487612602565b6040516104949190617603565b60405180910390f35b6104a5612620565b6040516104b29190616e10565b60405180910390f35b6104d560048036038101906104d09190616630565b612649565b005b6104df612bba565b6040516104ec91906175bf565b60405180910390f35b61050f600480360381019061050a9190616603565b612e6e565b60405161051e9392919061761e565b60405180910390f35b610541600480360381019061053c919061628f565b613071565b005b61054b613483565b6040516105589190616fbf565b60405180910390f35b61057b60048036038101906105769190616472565b6134a7565b005b61058561398f565b60405161059897969594939291906172df565b60405180910390f35b6105bb60048036038101906105b69190616370565b613af4565b6040516105c89190616ef1565b60405180910390f35b6105eb60048036038101906105e69190616630565b613b24565b005b61060760048036038101906106029190616222565b614166565b005b610623600480360381019061061e9190616222565b614395565b005b816000600360008367ffffffffffffffff1667ffffffffffffffff168152602001908152602001600020600001600c9054906101000a900473ffffffffffffffffffffffffffffffffffffffff169050600073ffffffffffffffffffffffffffffffffffffffff168173ffffffffffffffffffffffffffffffffffffffff1614156106dc576040517f1f6a65b600000000000000000000000000000000000000000000000000000000815260040160405180910390fd5b8073ffffffffffffffffffffffffffffffffffffffff163373ffffffffffffffffffffffffffffffffffffffff161461074c57806040517fd8a3fb520000000000000000000000000000000000000000000000000000000081526004016107439190616e10565b60405180910390fd5b6009600001601e9054906101000a900460ff1615610796576040517fed3ba6a600000000000000000000000000000000000000000000000000000000815260040160405180910390fd5b8273ffffffffffffffffffffffffffffffffffffffff16600360008667ffffffffffffffff1667ffffffffffffffff16815260200190815260200160002060010160009054906101000a900473ffffffffffffffffffffffffffffffffffffffff1673ffffffffffffffffffffffffffffffffffffffff16146108c15782600360008667ffffffffffffffff1667ffffffffffffffff16815260200190815260200160002060010160006101000a81548173ffffffffffffffffffffffffffffffffffffffff021916908373ffffffffffffffffffffffffffffffffffffffff1602179055508367ffffffffffffffff167f69436ea6df009049404f564eff6622cd00522b0bd6a89efd9e52a355c4a879be33856040516108b8929190616e2b565b60405180910390a25b50505050565b6108cf6143a9565b6000610911826002806020026040519081016040528092919082600260200280828437600081840152601f19601f820116905080830192505050505050613af4565b905060006005600083815260200190815260200160002060009054906101000a900473ffffffffffffffffffffffffffffffffffffffff169050600073ffffffffffffffffffffffffffffffffffffffff168173ffffffffffffffffffffffffffffffffffffffff1614156109bd57816040517f77f5b84c0000000000000000000000000000000000000000000000000000000081526004016109b49190616ef1565b60405180910390fd5b6005600083815260200190815260200160002060006101000a81549073ffffffffffffffffffffffffffffffffffffffff02191690558073ffffffffffffffffffffffffffffffffffffffff167f72be339577868f868798bac2c93e52d6f034fef4689a9848996c14ebb7416c0d83604051610a399190616ef1565b60405180910390a2505050565b60c881565b60606040518060400160405280601681526020017f565246436f6f7264696e61746f72563220312e302e3000000000000000000000815250905090565b7f000000000000000000000000000000000000000000000000000000000000000081565b6000600a60009054906101000a90046bffffffffffffffffffffffff16905090565b6101f481565b826000600360008367ffffffffffffffff1667ffffffffffffffff168152602001908152602001600020600001600c9054906101000a900473ffffffffffffffffffffffffffffffffffffffff169050600073ffffffffffffffffffffffffffffffffffffffff168173ffffffffffffffffffffffffffffffffffffffff161415610b8b576040517f1f6a65b600000000000000000000000000000000000000000000000000000000815260040160405180910390fd5b8073ffffffffffffffffffffffffffffffffffffffff163373ffffffffffffffffffffffffffffffffffffffff1614610bfb57806040517fd8a3fb52000000000000000000000000000000000000000000000000000000008152600401610bf29190616e10565b60405180910390fd5b6009600001601e9054906101000a900460ff1615610c45576040517fed3ba6a600000000000000000000000000000000000000000000000000000000815260040160405180910390fd5b826bffffffffffffffffffffffff16600360008767ffffffffffffffff1667ffffffffffffffff16815260200190815260200160002060000160009054906101000a90046bffffffffffffffffffffffff166bffffffffffffffffffffffff161015610cdd576040517ff4d678b800000000000000000000000000000000000000000000000000000000815260040160405180910390fd5b6000600360008767ffffffffffffffff1667ffffffffffffffff16815260200190815260200160002060000160009054906101000a90046bffffffffffffffffffffffff166bffffffffffffffffffffffff16905083600360008867ffffffffffffffff1667ffffffffffffffff16815260200190815260200160002060000160008282829054906101000a90046bffffffffffffffffffffffff16610d839190617902565b92506101000a8154816bffffffffffffffffffffffff02191690836bffffffffffffffffffffffff16021790555083600460088282829054906101000a90046bffffffffffffffffffffffff16610dda9190617902565b92506101000a8154816bffffffffffffffffffffffff02191690836bffffffffffffffffffffffff1602179055507f000000000000000000000000000000000000000000000000000000000000000073ffffffffffffffffffffffffffffffffffffffff1663a9059cbb86866040518363ffffffff1660e01b8152600401610e63929190616e7d565b602060405180830381600087803b158015610e7d57600080fd5b505af1158015610e91573d6000803e3d6000fd5b505050506040513d601f19601f82011682018060405250810190610eb5919061639d565b610eeb576040517ff4d678b800000000000000000000000000000000000000000000000000000000815260040160405180910390fd5b8567ffffffffffffffff167ffd47f8dea665a4ba9fd5ac2d5d60d09da40628a32c3e5b3ee970f0a36b43dd3282600360008a67ffffffffffffffff1667ffffffffffffffff16815260200190815260200160002060000160009054906101000a90046bffffffffffffffffffffffff16604051610f69929190617537565b60405180910390a2505050505050565b60006009600001601e9054906101000a900460ff1615610fc5576040517fed3ba6a600000000000000000000000000000000000000000000000000000000815260040160405180910390fd5b600073ffffffffffffffffffffffffffffffffffffffff16600360008767ffffffffffffffff1667ffffffffffffffff168152602001908152602001600020600001600c9054906101000a900473ffffffffffffffffffffffffffffffffffffffff1673ffffffffffffffffffffffffffffffffffffffff161415611076576040517f1f6a65b600000000000000000000000000000000000000000000000000000000815260040160405180910390fd5b6000600260003373ffffffffffffffffffffffffffffffffffffffff1673ffffffffffffffffffffffffffffffffffffffff16815260200190815260200160002060008767ffffffffffffffff1667ffffffffffffffff1681526020019081526020016000206040518060400160405290816000820160009054906101000a900467ffffffffffffffff1667ffffffffffffffff1667ffffffffffffffff1681526020016000820160089054906101000a900467ffffffffffffffff1667ffffffffffffffff1667ffffffffffffffff168152505090506000816000015167ffffffffffffffff1614156111a35785336040517ff0019fe600000000000000000000000000000000000000000000000000000000815260040161119a9291906175da565b60405180910390fd5b600960000160009054906101000a900461ffff1661ffff168561ffff1610806111d4575060c861ffff168561ffff16115b1561122e5784600960000160009054906101000a900461ffff1660c86040517fa7386976000000000000000000000000000000000000000000000000000000008152600401611225939291906172a8565b60405180910390fd5b600960000160129054906101000a90046bffffffffffffffffffffffff166bffffffffffffffffffffffff16600360008867ffffffffffffffff1667ffffffffffffffff16815260200190815260200160002060000160009054906101000a90046bffffffffffffffffffffffff166bffffffffffffffffffffffff1610156112e3576040517ff4d678b800000000000000000000000000000000000000000000000000000000815260040160405180910390fd5b600960000160069054906101000a900463ffffffff1663ffffffff168463ffffffff1611156113605783600960000160069054906101000a900463ffffffff166040517ff5d7e01e00000000000000000000000000000000000000000000000000000000815260040161135792919061757b565b60405180910390fd5b6101f463ffffffff168363ffffffff1611156113b757826101f46040517f47386bec0000000000000000000000000000000000000000000000000000000081526004016113ae92919061757b565b60405180910390fd5b6000600182602001516113ca91906177c3565b90506000883389846040516020016113e59493929190616f0c565b6040516020818303038152906040528051906020012060001c905060008982604051602001611415929190616f51565b6040516020818303038152906040528051906020012060001c905080438a89893360405160200161144b9695949392919061744c565b6040516020818303038152906040528051906020012060076000838152602001908152602001600020819055503373ffffffffffffffffffffffffffffffffffffffff168a7f63373d1c4696214b898952999c9aaec57dac1ee2723cec59bea6888f489a977283858d8d8d8d6040516114c9969594939291906173eb565b60405180910390a382600260003373ffffffffffffffffffffffffffffffffffffffff1673ffffffffffffffffffffffffffffffffffffffff16815260200190815260200160002060008b67ffffffffffffffff1667ffffffffffffffff16815260200190815260200160002060000160086101000a81548167ffffffffffffffff021916908367ffffffffffffffff1602179055508094505050505095945050505050565b606481565b6009600001601e9054906101000a900460ff16156115be576040517fed3ba6a600000000000000000000000000000000000000000000000000000000815260040160405180910390fd5b806bffffffffffffffffffffffff16600660003373ffffffffffffffffffffffffffffffffffffffff1673ffffffffffffffffffffffffffffffffffffffff16815260200190815260200160002060009054906101000a90046bffffffffffffffffffffffff166bffffffffffffffffffffffff16101561166b576040517ff4d678b800000000000000000000000000000000000000000000000000000000815260040160405180910390fd5b80600660003373ffffffffffffffffffffffffffffffffffffffff1673ffffffffffffffffffffffffffffffffffffffff16815260200190815260200160002060008282829054906101000a90046bffffffffffffffffffffffff166116d19190617902565b92506101000a8154816bffffffffffffffffffffffff02191690836bffffffffffffffffffffffff16021790555080600460088282829054906101000a90046bffffffffffffffffffffffff166117289190617902565b92506101000a8154816bffffffffffffffffffffffff02191690836bffffffffffffffffffffffff1602179055507f000000000000000000000000000000000000000000000000000000000000000073ffffffffffffffffffffffffffffffffffffffff1663a9059cbb83836040518363ffffffff1660e01b81526004016117b1929190616e7d565b602060405180830381600087803b1580156117cb57600080fd5b505af11580156117df573d6000803e3d6000fd5b505050506040513d601f19601f82011682018060405250810190611803919061639d565b611839576040517ff4d678b800000000000000000000000000000000000000000000000000000000815260040160405180910390fd5b5050565b7f000000000000000000000000000000000000000000000000000000000000000081565b600060076000838152602001908152602001600020549050919050565b6118866143a9565b60006118c8826002806020026040519081016040528092919082600260200280828437600081840152601f19601f820116905080830192505050505050613af4565b9050600073ffffffffffffffffffffffffffffffffffffffff166005600083815260200190815260200160002060009054906101000a900473ffffffffffffffffffffffffffffffffffffffff1673ffffffffffffffffffffffffffffffffffffffff161461196e57806040517f4a0b8fa70000000000000000000000000000000000000000000000000000000081526004016119659190616ef1565b60405180910390fd5b826005600083815260200190815260200160002060006101000a81548173ffffffffffffffffffffffffffffffffffffffff021916908373ffffffffffffffffffffffffffffffffffffffff1602179055508273ffffffffffffffffffffffffffffffffffffffff167fe729ae16526293f74ade739043022254f1489f616295a25bf72dfb4511ed73b882604051611a069190616ef1565b60405180910390a2505050565b816000600360008367ffffffffffffffff1667ffffffffffffffff168152602001908152602001600020600001600c9054906101000a900473ffffffffffffffffffffffffffffffffffffffff169050600073ffffffffffffffffffffffffffffffffffffffff168173ffffffffffffffffffffffffffffffffffffffff161415611aca576040517f1f6a65b600000000000000000000000000000000000000000000000000000000815260040160405180910390fd5b8073ffffffffffffffffffffffffffffffffffffffff163373ffffffffffffffffffffffffffffffffffffffff1614611b3a57806040517fd8a3fb52000000000000000000000000000000000000000000000000000000008152600401611b319190616e10565b60405180910390fd5b6009600001601e9054906101000a900460ff1615611b84576040517fed3ba6a600000000000000000000000000000000000000000000000000000000815260040160405180910390fd5b606461ffff16600360008667ffffffffffffffff1667ffffffffffffffff168152602001908152602001600020600201805490501415611bf0576040517f05a48e0f00000000000000000000000000000000000000000000000000000000815260040160405180910390fd5b6000600260008573ffffffffffffffffffffffffffffffffffffffff1673ffffffffffffffffffffffffffffffffffffffff16815260200190815260200160002060008667ffffffffffffffff1667ffffffffffffffff16815260200190815260200160002060000160009054906101000a900467ffffffffffffffff1667ffffffffffffffff1614611c8257611e3f565b60405180604001604052808567ffffffffffffffff168152602001600067ffffffffffffffff16815250600260008573ffffffffffffffffffffffffffffffffffffffff1673ffffffffffffffffffffffffffffffffffffffff16815260200190815260200160002060008667ffffffffffffffff1667ffffffffffffffff16815260200190815260200160002060008201518160000160006101000a81548167ffffffffffffffff021916908367ffffffffffffffff16021790555060208201518160000160086101000a81548167ffffffffffffffff021916908367ffffffffffffffff160217905550905050600360008567ffffffffffffffff1667ffffffffffffffff168152602001908152602001600020600201839080600181540180825580915050600190039060005260206000200160009091909190916101000a81548173ffffffffffffffffffffffffffffffffffffffff021916908373ffffffffffffffffffffffffffffffffffffffff1602179055508367ffffffffffffffff167f43dc749a04ac8fb825cbd514f7c0e13f13bc6f2ee66043b76629d51776cff8e084604051611e369190616e10565b60405180910390a25b50505050565b6000600b54905090565b611e5b5a848484614439565b600a60006101000a8154816bffffffffffffffffffffffff02191690836bffffffffffffffffffffffff160217905550505050565b600160009054906101000a900473ffffffffffffffffffffffffffffffffffffffff1673ffffffffffffffffffffffffffffffffffffffff163373ffffffffffffffffffffffffffffffffffffffff1614611f20576040517f08c379a0000000000000000000000000000000000000000000000000000000008152600401611f179061704d565b60405180910390fd5b60008060009054906101000a900473ffffffffffffffffffffffffffffffffffffffff169050336000806101000a81548173ffffffffffffffffffffffffffffffffffffffff021916908373ffffffffffffffffffffffffffffffffffffffff1602179055506000600160006101000a81548173ffffffffffffffffffffffffffffffffffffffff021916908373ffffffffffffffffffffffffffffffffffffffff1602179055503373ffffffffffffffffffffffffffffffffffffffff168173ffffffffffffffffffffffffffffffffffffffff167f8be0079c531659141344cd1fd0a4f28419497f9722a3daafe3b4186f6b6457e060405160405180910390a350565b61138881565b6009600001601e9054906101000a900460ff1615612075576040517fed3ba6a600000000000000000000000000000000000000000000000000000000815260040160405180910390fd5b600073ffffffffffffffffffffffffffffffffffffffff16600360008367ffffffffffffffff1667ffffffffffffffff168152602001908152602001600020600001600c9054906101000a900473ffffffffffffffffffffffffffffffffffffffff1673ffffffffffffffffffffffffffffffffffffffff161415612126576040517f1f6a65b600000000000000000000000000000000000000000000000000000000815260040160405180910390fd5b3373ffffffffffffffffffffffffffffffffffffffff16600360008367ffffffffffffffff1667ffffffffffffffff16815260200190815260200160002060010160009054906101000a900473ffffffffffffffffffffffffffffffffffffffff1673ffffffffffffffffffffffffffffffffffffffff161461222a57600360008267ffffffffffffffff1667ffffffffffffffff16815260200190815260200160002060010160009054906101000a900473ffffffffffffffffffffffffffffffffffffffff166040517fd084e9750000000000000000000000000000000000000000000000000000000081526004016122219190616e10565b60405180910390fd5b6000600360008367ffffffffffffffff1667ffffffffffffffff168152602001908152602001600020600001600c9054906101000a900473ffffffffffffffffffffffffffffffffffffffff16905033600360008467ffffffffffffffff1667ffffffffffffffff168152602001908152602001600020600001600c6101000a81548173ffffffffffffffffffffffffffffffffffffffff021916908373ffffffffffffffffffffffffffffffffffffffff1602179055506000600360008467ffffffffffffffff1667ffffffffffffffff16815260200190815260200160002060010160006101000a81548173ffffffffffffffffffffffffffffffffffffffff021916908373ffffffffffffffffffffffffffffffffffffffff1602179055508167ffffffffffffffff167f6f1dc65165ffffedfd8e507b4a0f1fcfdada045ed11f6c26ba27cedfe87802f08233604051612388929190616e2b565b60405180910390a25050565b61239c6143a9565b60c861ffff168761ffff1611156123ef57868760c86040517fa73869760000000000000000000000000000000000000000000000000000000081526004016123e6939291906172a8565b60405180910390fd5b6000811361243457806040517f43d4cf6600000000000000000000000000000000000000000000000000000000815260040161242b9190617010565b60405180910390fd5b6040518060e001604052808861ffff1681526020018763ffffffff1681526020018663ffffffff1681526020018563ffffffff1681526020018463ffffffff168152602001836bffffffffffffffffffffffff16815260200160001515815250600960008201518160000160006101000a81548161ffff021916908361ffff16021790555060208201518160000160026101000a81548163ffffffff021916908363ffffffff16021790555060408201518160000160066101000a81548163ffffffff021916908363ffffffff160217905550606082015181600001600a6101000a81548163ffffffff021916908363ffffffff160217905550608082015181600001600e6101000a81548163ffffffff021916908363ffffffff16021790555060a08201518160000160126101000a8154816bffffffffffffffffffffffff02191690836bffffffffffffffffffffffff16021790555060c082015181600001601e6101000a81548160ff021916908315150217905550905050806008819055507f56583fc0e609f432152501e64e8a4aaf7ecc715b33697f1cacb307f4b562d2c4878787878787876040516125f197969594939291906172df565b60405180910390a150505050505050565b600460089054906101000a90046bffffffffffffffffffffffff1681565b60008060009054906101000a900473ffffffffffffffffffffffffffffffffffffffff16905090565b816000600360008367ffffffffffffffff1667ffffffffffffffff168152602001908152602001600020600001600c9054906101000a900473ffffffffffffffffffffffffffffffffffffffff169050600073ffffffffffffffffffffffffffffffffffffffff168173ffffffffffffffffffffffffffffffffffffffff161415612700576040517f1f6a65b600000000000000000000000000000000000000000000000000000000815260040160405180910390fd5b8073ffffffffffffffffffffffffffffffffffffffff163373ffffffffffffffffffffffffffffffffffffffff161461277057806040517fd8a3fb520000000000000000000000000000000000000000000000000000000081526004016127679190616e10565b60405180910390fd5b6009600001601e9054906101000a900460ff16156127ba576040517fed3ba6a600000000000000000000000000000000000000000000000000000000815260040160405180910390fd5b6000600260008573ffffffffffffffffffffffffffffffffffffffff1673ffffffffffffffffffffffffffffffffffffffff16815260200190815260200160002060008667ffffffffffffffff1667ffffffffffffffff16815260200190815260200160002060000160009054906101000a900467ffffffffffffffff1667ffffffffffffffff1614156128875783836040517ff0019fe600000000000000000000000000000000000000000000000000000000815260040161287e9291906175da565b60405180910390fd5b6000600360008667ffffffffffffffff1667ffffffffffffffff16815260200190815260200160002060020180548060200260200160405190810160405280929190818152602001828054801561293357602002820191906000526020600020905b8160009054906101000a900473ffffffffffffffffffffffffffffffffffffffff1673ffffffffffffffffffffffffffffffffffffffff16815260200190600101908083116128e9575b5050505050905060006001825161294a91906178ce565b905060005b8251811015612ad2578573ffffffffffffffffffffffffffffffffffffffff1683828151811061298257612981617c75565b5b602002602001015173ffffffffffffffffffffffffffffffffffffffff161415612abf5760008383815181106129bb576129ba617c75565b5b6020026020010151905080600360008a67ffffffffffffffff1667ffffffffffffffff1681526020019081526020016000206002018381548110612a0257612a01617c75565b5b9060005260206000200160006101000a81548173ffffffffffffffffffffffffffffffffffffffff021916908373ffffffffffffffffffffffffffffffffffffffff160217905550600360008967ffffffffffffffff1667ffffffffffffffff168152602001908152602001600020600201805480612a8457612a83617c46565b5b6001900381819060005260206000200160006101000a81549073ffffffffffffffffffffffffffffffffffffffff0219169055905550612ad2565b8080612aca90617b05565b91505061294f565b50600260008673ffffffffffffffffffffffffffffffffffffffff1673ffffffffffffffffffffffffffffffffffffffff16815260200190815260200160002060008767ffffffffffffffff1667ffffffffffffffff168152602001908152602001600020600080820160006101000a81549067ffffffffffffffff02191690556000820160086101000a81549067ffffffffffffffff021916905550508567ffffffffffffffff167f182bff9831466789164ca77075fffd84916d35a8180ba73c27e45634549b445b86604051612baa9190616e10565b60405180910390a2505050505050565b60006009600001601e9054906101000a900460ff1615612c06576040517fed3ba6a600000000000000000000000000000000000000000000000000000000815260040160405180910390fd5b6004600081819054906101000a900467ffffffffffffffff1680929190612c2c90617b4e565b91906101000a81548167ffffffffffffffff021916908367ffffffffffffffff160217905550506000600460009054906101000a900467ffffffffffffffff16905060008067ffffffffffffffff811115612c8a57612c89617ca4565b5b604051908082528060200260200182016040528015612cb85781602001602082028036833780820191505090505b509050604051806080016040528060006bffffffffffffffffffffffff1681526020013373ffffffffffffffffffffffffffffffffffffffff168152602001600073ffffffffffffffffffffffffffffffffffffffff16815260200182815250600360008467ffffffffffffffff1667ffffffffffffffff16815260200190815260200160002060008201518160000160006101000a8154816bffffffffffffffffffffffff02191690836bffffffffffffffffffffffff160217905550602082015181600001600c6101000a81548173ffffffffffffffffffffffffffffffffffffffff021916908373ffffffffffffffffffffffffffffffffffffffff16021790555060408201518160010160006101000a81548173ffffffffffffffffffffffffffffffffffffffff021916908373ffffffffffffffffffffffffffffffffffffffff1602179055506060820151816002019080519060200190612e20929190615d6b565b509050508167ffffffffffffffff167f464722b4166576d3dcbba877b999bc35cf911f4eaf434b7eba68fa113951d0bf33604051612e5e9190616e10565b60405180910390a2819250505090565b6000806060600073ffffffffffffffffffffffffffffffffffffffff16600360008667ffffffffffffffff1667ffffffffffffffff168152602001908152602001600020600001600c9054906101000a900473ffffffffffffffffffffffffffffffffffffffff1673ffffffffffffffffffffffffffffffffffffffff161415612f24576040517f1f6a65b600000000000000000000000000000000000000000000000000000000815260040160405180910390fd5b600360008567ffffffffffffffff1667ffffffffffffffff16815260200190815260200160002060000160009054906101000a90046bffffffffffffffffffffffff16600360008667ffffffffffffffff1667ffffffffffffffff168152602001908152602001600020600001600c9054906101000a900473ffffffffffffffffffffffffffffffffffffffff16600360008767ffffffffffffffff1667ffffffffffffffff1681526020019081526020016000206002018080548060200260200160405190810160405280929190818152602001828054801561305d57602002820191906000526020600020905b8160009054906101000a900473ffffffffffffffffffffffffffffffffffffffff1673ffffffffffffffffffffffffffffffffffffffff1681526020019060010190808311613013575b505050505090509250925092509193909250565b6009600001601e9054906101000a900460ff16156130bb576040517fed3ba6a600000000000000000000000000000000000000000000000000000000815260040160405180910390fd5b7f000000000000000000000000000000000000000000000000000000000000000073ffffffffffffffffffffffffffffffffffffffff163373ffffffffffffffffffffffffffffffffffffffff1614613140576040517f44b0e3c300000000000000000000000000000000000000000000000000000000815260040160405180910390fd5b6020828290501461317d576040517f8129bbcd00000000000000000000000000000000000000000000000000000000815260040160405180910390fd5b6000828281019061318e9190616603565b9050600073ffffffffffffffffffffffffffffffffffffffff16600360008367ffffffffffffffff1667ffffffffffffffff168152602001908152602001600020600001600c9054906101000a900473ffffffffffffffffffffffffffffffffffffffff1673ffffffffffffffffffffffffffffffffffffffff161415613241576040517f1f6a65b600000000000000000000000000000000000000000000000000000000815260040160405180910390fd5b6000600360008367ffffffffffffffff1667ffffffffffffffff168152602001908152602001600020600001600c9054906101000a900473ffffffffffffffffffffffffffffffffffffffff1690508573ffffffffffffffffffffffffffffffffffffffff168173ffffffffffffffffffffffffffffffffffffffff161461330057806040517fd8a3fb520000000000000000000000000000000000000000000000000000000081526004016132f79190616e10565b60405180910390fd5b6000600360008467ffffffffffffffff1667ffffffffffffffff16815260200190815260200160002060000160009054906101000a90046bffffffffffffffffffffffff166bffffffffffffffffffffffff16905085600360008567ffffffffffffffff1667ffffffffffffffff16815260200190815260200160002060000160008282829054906101000a90046bffffffffffffffffffffffff166133a69190617801565b92506101000a8154816bffffffffffffffffffffffff02191690836bffffffffffffffffffffffff16021790555085600460088282829054906101000a90046bffffffffffffffffffffffff166133fd9190617801565b92506101000a8154816bffffffffffffffffffffffff02191690836bffffffffffffffffffffffff1602179055508267ffffffffffffffff167fd39ec07f4e209f627a4c427971473820dc129761ba28de8906bd56f57101d4f8828884613464919061776d565b6040516134729291906173c2565b60405180910390a250505050505050565b7f000000000000000000000000000000000000000000000000000000000000000081565b6009600001601e9054906101000a900460ff16156134f1576040517fed3ba6a600000000000000000000000000000000000000000000000000000000815260040160405180910390fd5b60005a905060008060006135058686614554565b9250925092506000856060015163ffffffff1667ffffffffffffffff81111561353157613530617ca4565b5b60405190808252806020026020018201604052801561355f5781602001602082028036833780820191505090505b50905060005b866060015163ffffffff168110156135d557828160405160200161358a9291906173c2565b6040516020818303038152906040528051906020012060001c8282815181106135b6576135b5617c75565b5b60200260200101818152505080806135cd90617b05565b915050613565565b506007600084815260200190815260200160002060009055600080631fe543e360e01b89608001518460405160240161360f929190617392565b604051602081830303815290604052907bffffffffffffffffffffffffffffffffffffffffffffffffffffffff19166020820180517bffffffffffffffffffffffffffffffffffffffffffffffffffffffff8381831617835250505050905060005a9050886040015163ffffffff168110156136c8578089604001516040517fd17e76640000000000000000000000000000000000000000000000000000000081526004016136bf9291906174ad565b60405180910390fd5b60016009600001601e6101000a81548160ff02191690831515021790555060006137018a6040015163ffffffff168b608001518561487c565b9050867f969e72fbacf24da85b4bce2a3cef3d8dc2497b1750c4cc5a06b52c10413383378683604051613735929190616ec1565b60405180910390a260006009600001601e6101000a81548160ff02191690831515021790555060006137998a6009600001600e9054906101000a900463ffffffff1663ffffffff16600960000160029054906101000a900463ffffffff163a614439565b9050806bffffffffffffffffffffffff16600360008d6020015167ffffffffffffffff1667ffffffffffffffff16815260200190815260200160002060000160009054906101000a90046bffffffffffffffffffffffff166bffffffffffffffffffffffff161015613837576040517ff4d678b800000000000000000000000000000000000000000000000000000000815260040160405180910390fd5b80600360008d6020015167ffffffffffffffff1667ffffffffffffffff16815260200190815260200160002060000160008282829054906101000a90046bffffffffffffffffffffffff1661388c9190617902565b92506101000a8154816bffffffffffffffffffffffff02191690836bffffffffffffffffffffffff1602179055508060066000600560008d815260200190815260200160002060009054906101000a900473ffffffffffffffffffffffffffffffffffffffff1673ffffffffffffffffffffffffffffffffffffffff1673ffffffffffffffffffffffffffffffffffffffff16815260200190815260200160002060008282829054906101000a90046bffffffffffffffffffffffff166139539190617801565b92506101000a8154816bffffffffffffffffffffffff02191690836bffffffffffffffffffffffff160217905550505050505050505050505050565b60008060008060008060008060096040518060e00160405290816000820160009054906101000a900461ffff1661ffff1661ffff1681526020016000820160029054906101000a900463ffffffff1663ffffffff1663ffffffff1681526020016000820160069054906101000a900463ffffffff1663ffffffff1663ffffffff16815260200160008201600a9054906101000a900463ffffffff1663ffffffff1663ffffffff16815260200160008201600e9054906101000a900463ffffffff1663ffffffff1663ffffffff1681526020016000820160129054906101000a90046bffffffffffffffffffffffff166bffffffffffffffffffffffff166bffffffffffffffffffffffff16815260200160008201601e9054906101000a900460ff1615151515815250509050806000015181602001518260400151836060015184608001518560a0015160085497509750975097509750975097505090919293949596565b600081604051602001613b079190616ea6565b604051602081830303815290604052805190602001209050919050565b816000600360008367ffffffffffffffff1667ffffffffffffffff168152602001908152602001600020600001600c9054906101000a900473ffffffffffffffffffffffffffffffffffffffff169050600073ffffffffffffffffffffffffffffffffffffffff168173ffffffffffffffffffffffffffffffffffffffff161415613bdb576040517f1f6a65b600000000000000000000000000000000000000000000000000000000815260040160405180910390fd5b8073ffffffffffffffffffffffffffffffffffffffff163373ffffffffffffffffffffffffffffffffffffffff1614613c4b57806040517fd8a3fb52000000000000000000000000000000000000000000000000000000008152600401613c429190616e10565b60405180910390fd5b6009600001601e9054906101000a900460ff1615613c95576040517fed3ba6a600000000000000000000000000000000000000000000000000000000815260040160405180910390fd5b6000600360008667ffffffffffffffff1667ffffffffffffffff1681526020019081526020016000206040518060800160405290816000820160009054906101000a90046bffffffffffffffffffffffff166bffffffffffffffffffffffff166bffffffffffffffffffffffff16815260200160008201600c9054906101000a900473ffffffffffffffffffffffffffffffffffffffff1673ffffffffffffffffffffffffffffffffffffffff1673ffffffffffffffffffffffffffffffffffffffff1681526020016001820160009054906101000a900473ffffffffffffffffffffffffffffffffffffffff1673ffffffffffffffffffffffffffffffffffffffff1673ffffffffffffffffffffffffffffffffffffffff16815260200160028201805480602002602001604051908101604052809291908181526020018280548015613e3857602002820191906000526020600020905b8160009054906101000a900473ffffffffffffffffffffffffffffffffffffffff1673ffffffffffffffffffffffffffffffffffffffff1681526020019060010190808311613dee575b505050505081525050905060008160000151905060005b826060015151811015613f2a576002600084606001518381518110613e7757613e76617c75565b5b602002602001015173ffffffffffffffffffffffffffffffffffffffff1673ffffffffffffffffffffffffffffffffffffffff16815260200190815260200160002060008867ffffffffffffffff1667ffffffffffffffff168152602001908152602001600020600080820160006101000a81549067ffffffffffffffff02191690556000820160086101000a81549067ffffffffffffffff021916905550508080613f2290617b05565b915050613e4f565b50600360008767ffffffffffffffff1667ffffffffffffffff168152602001908152602001600020600080820160006101000a8154906bffffffffffffffffffffffff021916905560008201600c6101000a81549073ffffffffffffffffffffffffffffffffffffffff02191690556001820160006101000a81549073ffffffffffffffffffffffffffffffffffffffff0219169055600282016000613fd09190615df5565b505080600460088282829054906101000a90046bffffffffffffffffffffffff16613ffb9190617902565b92506101000a8154816bffffffffffffffffffffffff02191690836bffffffffffffffffffffffff1602179055507f000000000000000000000000000000000000000000000000000000000000000073ffffffffffffffffffffffffffffffffffffffff1663a9059cbb86836bffffffffffffffffffffffff166040518363ffffffff1660e01b8152600401614092929190616e54565b602060405180830381600087803b1580156140ac57600080fd5b505af11580156140c0573d6000803e3d6000fd5b505050506040513d601f19601f820116820180604052508101906140e4919061639d565b61411a576040517ff4d678b800000000000000000000000000000000000000000000000000000000815260040160405180910390fd5b8567ffffffffffffffff167fe8ed5b475a5b5987aa9165e8731bb78043f39eee32ec5a1169a89e27fcd498158683604051614156929190616e7d565b60405180910390a2505050505050565b61416e6143a9565b60007f000000000000000000000000000000000000000000000000000000000000000073ffffffffffffffffffffffffffffffffffffffff166370a08231306040518263ffffffff1660e01b81526004016141c99190616e10565b60206040518083038186803b1580156141e157600080fd5b505afa1580156141f5573d6000803e3d6000fd5b505050506040513d601f19601f820116820180604052508101906142199190616583565b90506000600460089054906101000a90046bffffffffffffffffffffffff166bffffffffffffffffffffffff1690508181111561428f5780826040517fa99da3020000000000000000000000000000000000000000000000000000000081526004016142869291906173c2565b60405180910390fd5b8181101561439057600081836142a591906178ce565b90507f000000000000000000000000000000000000000000000000000000000000000073ffffffffffffffffffffffffffffffffffffffff1663a9059cbb85836040518363ffffffff1660e01b8152600401614302929190616e54565b602060405180830381600087803b15801561431c57600080fd5b505af1158015614330573d6000803e3d6000fd5b505050506040513d601f19601f82011682018060405250810190614354919061639d565b507f59bfc682b673f8cbf945f1e454df9334834abf7dfe7f92237ca29ecb9b4366008482604051614386929190616e54565b60405180910390a1505b505050565b61439d6143a9565b6143a6816148c9565b50565b60008054906101000a900473ffffffffffffffffffffffffffffffffffffffff1673ffffffffffffffffffffffffffffffffffffffff163373ffffffffffffffffffffffffffffffffffffffff1614614437576040517f08c379a000000000000000000000000000000000000000000000000000000000815260040161442e906170ad565b60405180910390fd5b565b6000806144446149f6565b90506000811361448b57806040517f43d4cf660000000000000000000000000000000000000000000000000000000081526004016144829190617010565b60405180910390fd5b6000815a888861449b919061776d565b6144a591906178ce565b85670de0b6b3a76400006144b99190617874565b6144c39190617874565b6144cd9190617843565b905060008563ffffffff1664e8d4a510006144e89190617874565b9050806b033b2e3c9fd0803ce800000061450291906178ce565b82111561453b576040517fe80fa38100000000000000000000000000000000000000000000000000000000815260040160405180910390fd5b8082614547919061776d565b9350505050949350505050565b60008060006145668560000151613af4565b925060006005600085815260200190815260200160002060009054906101000a900473ffffffffffffffffffffffffffffffffffffffff169050600073ffffffffffffffffffffffffffffffffffffffff168173ffffffffffffffffffffffffffffffffffffffff16141561461257836040517f77f5b84c0000000000000000000000000000000000000000000000000000000081526004016146099190616ef1565b60405180910390fd5b838660800151604051602001614629929190616f51565b6040516020818303038152906040528051906020012060001c92506000600760008581526020019081526020016000205490506000801b811415614699576040517f3688124a00000000000000000000000000000000000000000000000000000000815260040160405180910390fd5b8386600001518760200151886040015189606001518a608001516040516020016146c8969594939291906174d6565b604051602081830303815290604052805190602001208114614716576040517fd529142c00000000000000000000000000000000000000000000000000000000815260040160405180910390fd5b6000866000015167ffffffffffffffff164090506000801b811415614831577f000000000000000000000000000000000000000000000000000000000000000073ffffffffffffffffffffffffffffffffffffffff1663e9413d3888600001516040518263ffffffff1660e01b815260040161479291906175a4565b60206040518083038186803b1580156147aa57600080fd5b505afa1580156147be573d6000803e3d6000fd5b505050506040513d601f19601f820116820180604052508101906147e291906163ca565b90506000801b8114156148305786600001516040517f175dadad00000000000000000000000000000000000000000000000000000000815260040161482791906175a4565b60405180910390fd5b5b600088608001518260405160200161484a929190616de4565b6040516020818303038152906040528051906020012060001c905061486f8982614b02565b9450505050509250925092565b60005a61138881101561488e57600080fd5b6113888103905084604082048203116148a657600080fd5b833b6148b157600080fd5b6000808451602086016000888af19150509392505050565b3373ffffffffffffffffffffffffffffffffffffffff168173ffffffffffffffffffffffffffffffffffffffff161415614938576040517f08c379a000000000000000000000000000000000000000000000000000000000815260040161492f906171ed565b60405180910390fd5b80600160006101000a81548173ffffffffffffffffffffffffffffffffffffffff021916908373ffffffffffffffffffffffffffffffffffffffff1602179055508073ffffffffffffffffffffffffffffffffffffffff1660008054906101000a900473ffffffffffffffffffffffffffffffffffffffff1673ffffffffffffffffffffffffffffffffffffffff167fed8889f560326eb138920d842192f0eb3dd22b4f139c87a2c57538e05bae127860405160405180910390a350565b6000806009600001600a9054906101000a900463ffffffff1690506000808263ffffffff161190506000807f000000000000000000000000000000000000000000000000000000000000000073ffffffffffffffffffffffffffffffffffffffff1663feaf968c6040518163ffffffff1660e01b815260040160a06040518083038186803b158015614a8757600080fd5b505afa158015614a9b573d6000803e3d6000fd5b505050506040513d601f19601f82011682018060405250810190614abf91906166c3565b9091929350909150508093508192505050828015614aed57508142614ae491906178ce565b8463ffffffff16105b15614af85760085490505b8094505050505090565b6000614b368360000151846020015185604001518660600151868860a001518960c001518a60e001518b6101000151614b6f565b60038360200151604051602001614b4e929190617369565b6040516020818303038152906040528051906020012060001c905092915050565b614b7889614d5c565b614bb7576040517f08c379a0000000000000000000000000000000000000000000000000000000008152600401614bae9061718d565b60405180910390fd5b614bc088614d5c565b614bff576040517f08c379a0000000000000000000000000000000000000000000000000000000008152600401614bf6906171ad565b60405180910390fd5b614c0883614d5c565b614c47576040517f08c379a0000000000000000000000000000000000000000000000000000000008152600401614c3e9061716d565b60405180910390fd5b614c5082614d5c565b614c8f576040517f08c379a0000000000000000000000000000000000000000000000000000000008152600401614c869061726d565b60405180910390fd5b614c9b878a8887614edd565b614cda576040517f08c379a0000000000000000000000000000000000000000000000000000000008152600401614cd19061712d565b60405180910390fd5b6000614ce68a876150fb565b90506000614cf9898b878b86898961518d565b90506000614d0a838d8d8a866152e7565b9050808a14614d4e576040517f08c379a0000000000000000000000000000000000000000000000000000000008152600401614d45906171cd565b60405180910390fd5b505050505050505050505050565b60007ffffffffffffffffffffffffffffffffffffffffffffffffffffffffefffffc2f82600060028110614d9357614d92617c75565b5b602002015110614dd8576040517f08c379a0000000000000000000000000000000000000000000000000000000008152600401614dcf906170ed565b60405180910390fd5b7ffffffffffffffffffffffffffffffffffffffffffffffffffffffffefffffc2f82600160028110614e0d57614e0c617c75565b5b602002015110614e52576040517f08c379a0000000000000000000000000000000000000000000000000000000008152600401614e499061724d565b60405180910390fd5b7ffffffffffffffffffffffffffffffffffffffffffffffffffffffffefffffc2f80614e8157614e80617c17565b5b82600160028110614e9557614e94617c75565b5b602002015183600160028110614eae57614ead617c75565b5b602002015109614ed583600060028110614ecb57614eca617c75565b5b6020020151615329565b149050919050565b60008073ffffffffffffffffffffffffffffffffffffffff168273ffffffffffffffffffffffffffffffffffffffff161415614f4e576040517f08c379a0000000000000000000000000000000000000000000000000000000008152600401614f459061710d565b60405180910390fd5b600080600286600160028110614f6757614f66617c75565b5b602002015181614f7a57614f79617c17565b5b0614614f8757601c614f8a565b601b5b905060007ffffffffffffffffffffffffffffffffebaaedce6af48a03bbfd25e8cd036414180614fbd57614fbc617c17565b5b8587600060028110614fd257614fd1617c75565b5b6020020151097ffffffffffffffffffffffffffffffffebaaedce6af48a03bbfd25e8cd03641410360001b905060007ffffffffffffffffffffffffffffffffebaaedce6af48a03bbfd25e8cd0364141806150305761502f617c17565b5b8760006002811061504457615043617c75565b5b6020020151890960001b90506000600183858a60006002811061506a57615069617c75565b5b602002015160001b85604051600081526020016040526040516150909493929190616f7a565b6020604051602081039080840390855afa1580156150b2573d6000803e3d6000fd5b5050506020604051035190508573ffffffffffffffffffffffffffffffffffffffff168173ffffffffffffffffffffffffffffffffffffffff1614945050505050949350505050565b615103615e16565b6151306001848460405160200161511c93929190616da7565b6040516020818303038152906040526153cc565b90505b61513c81614d5c565b615187576151808160006002811061515757615156617c75565b5b602002015160405160200161516c9190616d1c565b6040516020818303038152906040526153cc565b9050615133565b92915050565b615195615e16565b60007ffffffffffffffffffffffffffffffffffffffffffffffffffffffffefffffc2f846000600281106151cc576151cb617c75565b5b6020020151886000600281106151e5576151e4617c75565b5b602002015103816151f9576151f8617c17565b5b06141561523b576040517f08c379a00000000000000000000000000000000000000000000000000000000081526004016152329061708d565b60405180910390fd5b6152468789886154d0565b615285576040517f08c379a000000000000000000000000000000000000000000000000000000000815260040161527c9061720d565b60405180910390fd5b6152908486856154d0565b6152cf576040517f08c379a00000000000000000000000000000000000000000000000000000000081526004016152c69061706d565b60405180910390fd5b6152da868484615668565b9050979650505050505050565b60006002868686858760405160200161530596959493929190616d37565b6040516020818303038152906040528051906020012060001c905095945050505050565b6000807ffffffffffffffffffffffffffffffffffffffffffffffffffffffffefffffc2f8061535b5761535a617c17565b5b7ffffffffffffffffffffffffffffffffffffffffffffffffffffffffefffffc2f8061538a57615389617c17565b5b848509840990507ffffffffffffffffffffffffffffffffffffffffffffffffffffffffefffffc2f806153c0576153bf617c17565b5b60078208915050919050565b6153d4615e16565b6153dd826157e4565b816000600281106153f1576153f0617c75565b5b60200201818152505061542361541e8260006002811061541457615413617c75565b5b6020020151615329565b615851565b8160016002811061543757615436617c75565b5b602002018181525050600160028260016002811061545857615457617c75565b5b60200201518161546b5761546a617c17565b5b0614156154cb578060016002811061548657615485617c75565b5b60200201517ffffffffffffffffffffffffffffffffffffffffffffffffffffffffefffffc2f03816001600281106154c1576154c0617c75565b5b6020020181815250505b919050565b600080831415615515576040517f08c379a000000000000000000000000000000000000000000000000000000000815260040161550c9061722d565b60405180910390fd5b60008460006002811061552b5761552a617c75565b5b6020020151905060008060028760016002811061554b5761554a617c75565b5b602002015161555a9190617bb7565b1461556657601c615569565b601b5b905060007ffffffffffffffffffffffffffffffffebaaedce6af48a03bbfd25e8cd03641418061559c5761559b617c17565b5b83870960001b9050600060016000801b848660001b85604051600081526020016040526040516155cf9493929190616f7a565b6020604051602081039080840390855afa1580156155f1573d6000803e3d6000fd5b5050506020604051035190506000866040516020016156109190616d01565b6040516020818303038152906040528051906020012060001c90508073ffffffffffffffffffffffffffffffffffffffff168273ffffffffffffffffffffffffffffffffffffffff1614955050505050509392505050565b615670615e16565b60008060006156e18760006002811061568c5761568b617c75565b5b6020020151886001600281106156a5576156a4617c75565b5b6020020151886000600281106156be576156bd617c75565b5b6020020151896001600281106156d7576156d6617c75565b5b6020020151615894565b80935081945082955050505060017ffffffffffffffffffffffffffffffffffffffffffffffffffffffffefffffc2f8061571e5761571d617c17565b5b86830914615761576040517f08c379a00000000000000000000000000000000000000000000000000000000081526004016157589061714d565b60405180910390fd5b60405180604001604052807ffffffffffffffffffffffffffffffffffffffffffffffffffffffffefffffc2f8061579b5761579a617c17565b5b87860981526020017ffffffffffffffffffffffffffffffffffffffffffffffffffffffffefffffc2f806157d2576157d1617c17565b5b87850981525093505050509392505050565b6000818051906020012060001c90505b7ffffffffffffffffffffffffffffffffffffffffffffffffffffffffefffffc2f811061584c578060405160200161582c9190616d1c565b6040516020818303038152906040528051906020012060001c90506157f4565b919050565b600061588d82600260017ffffffffffffffffffffffffffffffffffffffffffffffffffffffffefffffc2f615886919061776d565b901c615a8b565b9050919050565b60008060008060006001809150915060007ffffffffffffffffffffffffffffffffffffffffffffffffffffffffefffffc2f806158d4576158d3617c17565b5b897ffffffffffffffffffffffffffffffffffffffffffffffffffffffffefffffc2f038808905060007ffffffffffffffffffffffffffffffffffffffffffffffffffffffffefffffc2f8061592c5761592b617c17565b5b8b7ffffffffffffffffffffffffffffffffffffffffffffffffffffffffefffffc2f038a089050600061596183838585615beb565b809250819950505061597588828e88615c63565b809250819950505061598988828c87615c63565b8092508199505050600061599f8d878b85615c63565b80925081995050506159b388828686615beb565b80925081995050506159c788828e89615c63565b8092508199505050808214615a77577ffffffffffffffffffffffffffffffffffffffffffffffffffffffffefffffc2f80615a0557615a04617c17565b5b818a0998507ffffffffffffffffffffffffffffffffffffffffffffffffffffffffefffffc2f80615a3957615a38617c17565b5b82890997507ffffffffffffffffffffffffffffffffffffffffffffffffffffffffefffffc2f80615a6d57615a6c617c17565b5b8183099650615a7b565b8196505b5050505050509450945094915050565b600080615a96615e38565b602081600060068110615aac57615aab617c75565b5b602002018181525050602081600160068110615acb57615aca617c75565b5b602002018181525050602081600260068110615aea57615ae9617c75565b5b6020020181815250508481600360068110615b0857615b07617c75565b5b6020020181815250508381600460068110615b2657615b25617c75565b5b6020020181815250507ffffffffffffffffffffffffffffffffffffffffffffffffffffffffefffffc2f81600560068110615b6457615b63617c75565b5b602002018181525050615b75615e5a565b60208160c0846005600019fa92506000831415615bc7576040517f08c379a0000000000000000000000000000000000000000000000000000000008152600401615bbe906170cd565b60405180910390fd5b80600060018110615bdb57615bda617c75565b5b6020020151935050505092915050565b6000807ffffffffffffffffffffffffffffffffffffffffffffffffffffffffefffffc2f80615c1d57615c1c617c17565b5b8487097ffffffffffffffffffffffffffffffffffffffffffffffffffffffffefffffc2f80615c4f57615c4e617c17565b5b848709809250819350505094509492505050565b60008060007ffffffffffffffffffffffffffffffffffffffffffffffffffffffffefffffc2f80615c9757615c96617c17565b5b878509905060007ffffffffffffffffffffffffffffffffffffffffffffffffffffffffefffffc2f80615ccd57615ccc617c17565b5b87877ffffffffffffffffffffffffffffffffffffffffffffffffffffffffefffffc2f030990507ffffffffffffffffffffffffffffffffffffffffffffffffffffffffefffffc2f80615d2357615d22617c17565b5b8183087ffffffffffffffffffffffffffffffffffffffffffffffffffffffffefffffc2f80615d5557615d54617c17565b5b8689098094508195505050505094509492505050565b828054828255906000526020600020908101928215615de4579160200282015b82811115615de35782518260006101000a81548173ffffffffffffffffffffffffffffffffffffffff021916908373ffffffffffffffffffffffffffffffffffffffff16021790555091602001919060010190615d8b565b5b509050615df19190615e7c565b5090565b5080546000825590600052602060002090810190615e139190615e7c565b50565b6040518060400160405280600290602082028036833780820191505090505090565b6040518060c00160405280600690602082028036833780820191505090505090565b6040518060200160405280600190602082028036833780820191505090505090565b5b80821115615e95576000816000905550600101615e7d565b5090565b6000615eac615ea784617681565b61765c565b90508082856020860282011115615ec657615ec5617ce2565b5b60005b85811015615ef65781615edc88826161a4565b845260208401935060208301925050600181019050615ec9565b5050509392505050565b600081359050615f0f81617ff1565b92915050565b600081905082602060020282011115615f3157615f30617ce2565b5b92915050565b600082601f830112615f4c57615f4b617cd8565b5b6002615f59848285615e99565b91505092915050565b600081519050615f7181618008565b92915050565b600081359050615f868161801f565b92915050565b600081519050615f9b8161801f565b92915050565b60008083601f840112615fb757615fb6617cd8565b5b8235905067ffffffffffffffff811115615fd457615fd3617cd3565b5b602083019150836001820283011115615ff057615fef617ce2565b5b9250929050565b60008135905061600681618036565b92915050565b60008151905061601b81618036565b92915050565b60006101a0828403121561603857616037617cdd565b5b61604361012061765c565b9050600061605384828501615f37565b600083015250604061606784828501615f37565b602083015250608061607b848285016161a4565b60408301525060a061608f848285016161a4565b60608301525060c06160a3848285016161a4565b60808301525060e06160b784828501615f00565b60a0830152506101006160cc84828501615f37565b60c0830152506101406160e184828501615f37565b60e0830152506101806160f6848285016161a4565b6101008301525092915050565b600060a0828403121561611957616118617cdd565b5b61612360a061765c565b90506000616133848285016161e3565b6000830152506020616147848285016161e3565b602083015250604061615b848285016161ce565b604083015250606061616f848285016161ce565b606083015250608061618384828501615f00565b60808301525092915050565b60008135905061619e8161804d565b92915050565b6000813590506161b381618064565b92915050565b6000815190506161c881618064565b92915050565b6000813590506161dd8161807b565b92915050565b6000813590506161f281618092565b92915050565b600081519050616207816180a9565b92915050565b60008135905061621c816180c0565b92915050565b60006020828403121561623857616237617cec565b5b600061624684828501615f00565b91505092915050565b6000806060838503121561626657616265617cec565b5b600061627485828601615f00565b925050602061628585828601615f15565b9150509250929050565b600080600080606085870312156162a9576162a8617cec565b5b60006162b787828801615f00565b94505060206162c8878288016161a4565b935050604085013567ffffffffffffffff8111156162e9576162e8617ce7565b5b6162f587828801615fa1565b925092505092959194509250565b6000806040838503121561631a57616319617cec565b5b600061632885828601615f00565b92505060206163398582860161620d565b9150509250929050565b60006040828403121561635957616358617cec565b5b600061636784828501615f15565b91505092915050565b60006040828403121561638657616385617cec565b5b600061639484828501615f37565b91505092915050565b6000602082840312156163b3576163b2617cec565b5b60006163c184828501615f62565b91505092915050565b6000602082840312156163e0576163df617cec565b5b60006163ee84828501615f8c565b91505092915050565b600080600080600060a0868803121561641357616412617cec565b5b600061642188828901615f77565b9550506020616432888289016161e3565b94505060406164438882890161618f565b9350506060616454888289016161ce565b9250506080616465888289016161ce565b9150509295509295909350565b600080610240838503121561648a57616489617cec565b5b600061649885828601616021565b9250506101a06164aa85828601616103565b9150509250929050565b600080600080600080600060e0888a0312156164d3576164d2617cec565b5b60006164e18a828b0161618f565b97505060206164f28a828b016161ce565b96505060406165038a828b016161ce565b95505060606165148a828b016161ce565b94505060806165258a828b016161ce565b93505060a06165368a828b0161620d565b92505060c06165478a828b01615ff7565b91505092959891949750929550565b60006020828403121561656c5761656b617cec565b5b600061657a848285016161a4565b91505092915050565b60006020828403121561659957616598617cec565b5b60006165a7848285016161b9565b91505092915050565b6000806000606084860312156165c9576165c8617cec565b5b60006165d7868287016161a4565b93505060206165e8868287016161ce565b92505060406165f9868287016161a4565b9150509250925092565b60006020828403121561661957616618617cec565b5b6000616627848285016161e3565b91505092915050565b6000806040838503121561664757616646617cec565b5b6000616655858286016161e3565b925050602061666685828601615f00565b9150509250929050565b60008060006060848603121561668957616688617cec565b5b6000616697868287016161e3565b93505060206166a886828701615f00565b92505060406166b98682870161620d565b9150509250925092565b600080600080600060a086880312156166df576166de617cec565b5b60006166ed888289016161f8565b95505060206166fe8882890161600c565b945050604061670f888289016161b9565b9350506060616720888289016161b9565b9250506080616731888289016161f8565b9150509295509295909350565b600061674a8383616786565b60208301905092915050565b60006167628383616c54565b60208301905092915050565b600061677a8383616c72565b60208301905092915050565b61678f81617936565b82525050565b61679e81617936565b82525050565b6167b56167b082617936565b617b7f565b82525050565b60006167c6826176d1565b6167d08185617724565b93506167db836176a7565b8060005b8381101561680c5781516167f3888261673e565b97506167fe836176fd565b9250506001810190506167df565b5085935050505092915050565b616822816176dc565b61682c8184617735565b9250616837826176b7565b8060005b8381101561686857815161684f8782616756565b965061685a8361770a565b92505060018101905061683b565b505050505050565b616879816176dc565b6168838184617740565b925061688e826176b7565b8060005b838110156168bf5781516168a6878261676e565b96506168b18361770a565b925050600181019050616892565b505050505050565b60006168d2826176e7565b6168dc818561774b565b93506168e7836176c1565b8060005b838110156169185781516168ff8882616756565b975061690a83617717565b9250506001810190506168eb565b5085935050505092915050565b61692e81617948565b82525050565b61693d81617954565b82525050565b61695461694f82617954565b617b91565b82525050565b616963816179ff565b82525050565b61697281617a23565b82525050565b61698181617a47565b82525050565b6169908161795e565b82525050565b60006169a1826176f2565b6169ab818561775c565b93506169bb818560208601617aa1565b6169c481617cf1565b840191505092915050565b60006169dc60168361775c565b91506169e782617d0f565b602082019050919050565b60006169ff60178361775c565b9150616a0a82617d38565b602082019050919050565b6000616a22601e8361775c565b9150616a2d82617d61565b602082019050919050565b6000616a4560168361775c565b9150616a5082617d8a565b602082019050919050565b6000616a6860128361775c565b9150616a7382617db3565b602082019050919050565b6000616a8b60128361775c565b9150616a9682617ddc565b602082019050919050565b6000616aae600b8361775c565b9150616ab982617e05565b602082019050919050565b6000616ad160198361775c565b9150616adc82617e2e565b602082019050919050565b6000616af460198361775c565b9150616aff82617e57565b602082019050919050565b6000616b17601d8361775c565b9150616b2282617e80565b602082019050919050565b6000616b3a601a8361775c565b9150616b4582617ea9565b602082019050919050565b6000616b5d60158361775c565b9150616b6882617ed2565b602082019050919050565b6000616b80600d8361775c565b9150616b8b82617efb565b602082019050919050565b6000616ba360178361775c565b9150616bae82617f24565b602082019050919050565b6000616bc660168361775c565b9150616bd182617f4d565b602082019050919050565b6000616be9600b8361775c565b9150616bf482617f76565b602082019050919050565b6000616c0c60128361775c565b9150616c1782617f9f565b602082019050919050565b6000616c2f601c8361775c565b9150616c3a82617fc8565b602082019050919050565b616c4e81617968565b82525050565b616c5d81617996565b82525050565b616c6c81617996565b82525050565b616c7b81617996565b82525050565b616c92616c8d82617996565b617bad565b82525050565b616ca181617a6b565b82525050565b616cb0816179a0565b82525050565b616cbf81617a7d565b82525050565b616cce816179b0565b82525050565b616cdd816179c4565b82525050565b616cec81617a8f565b82525050565b616cfb816179e7565b82525050565b6000616d0d8284616870565b60408201915081905092915050565b6000616d288284616c81565b60208201915081905092915050565b6000616d438289616c81565b602082019150616d538288616870565b604082019150616d638287616870565b604082019150616d738286616870565b604082019150616d838285616870565b604082019150616d9382846167a4565b601482019150819050979650505050505050565b6000616db38286616c81565b602082019150616dc38285616870565b604082019150616dd38284616c81565b602082019150819050949350505050565b6000616df08285616c81565b602082019150616e008284616943565b6020820191508190509392505050565b6000602082019050616e256000830184616795565b92915050565b6000604082019050616e406000830185616795565b616e4d6020830184616795565b9392505050565b6000604082019050616e696000830185616795565b616e766020830184616c63565b9392505050565b6000604082019050616e926000830185616795565b616e9f6020830184616ce3565b9392505050565b6000604082019050616ebb6000830184616819565b92915050565b60006040820190508181036000830152616edb81856168c7565b9050616eea6020830184616925565b9392505050565b6000602082019050616f066000830184616934565b92915050565b6000608082019050616f216000830187616934565b616f2e6020830186616795565b616f3b6040830185616cc5565b616f486060830184616cc5565b95945050505050565b6000604082019050616f666000830185616934565b616f736020830184616c63565b9392505050565b6000608082019050616f8f6000830187616934565b616f9c6020830186616cd4565b616fa96040830185616934565b616fb66060830184616934565b95945050505050565b6000602082019050616fd4600083018461695a565b92915050565b6000602082019050616fef6000830184616969565b92915050565b600060208201905061700a6000830184616978565b92915050565b60006020820190506170256000830184616987565b92915050565b600060208201905081810360008301526170458184616996565b905092915050565b60006020820190508181036000830152617066816169cf565b9050919050565b60006020820190508181036000830152617086816169f2565b9050919050565b600060208201905081810360008301526170a681616a15565b9050919050565b600060208201905081810360008301526170c681616a38565b9050919050565b600060208201905081810360008301526170e681616a5b565b9050919050565b6000602082019050818103600083015261710681616a7e565b9050919050565b6000602082019050818103600083015261712681616aa1565b9050919050565b6000602082019050818103600083015261714681616ac4565b9050919050565b6000602082019050818103600083015261716681616ae7565b9050919050565b6000602082019050818103600083015261718681616b0a565b9050919050565b600060208201905081810360008301526171a681616b2d565b9050919050565b600060208201905081810360008301526171c681616b50565b9050919050565b600060208201905081810360008301526171e681616b73565b9050919050565b6000602082019050818103600083015261720681616b96565b9050919050565b6000602082019050818103600083015261722681616bb9565b9050919050565b6000602082019050818103600083015261724681616bdc565b9050919050565b6000602082019050818103600083015261726681616bff565b9050919050565b6000602082019050818103600083015261728681616c22565b9050919050565b60006020820190506172a26000830184616c45565b92915050565b60006060820190506172bd6000830186616c45565b6172ca6020830185616c45565b6172d76040830184616c45565b949350505050565b600060e0820190506172f4600083018a616c45565b6173016020830189616ca7565b61730e6040830188616ca7565b61731b6060830187616ca7565b6173286080830186616ca7565b61733560a0830185616cf2565b61734260c0830184616987565b98975050505050505050565b60006020820190506173636000830184616c63565b92915050565b600060608201905061737e6000830185616c63565b61738b6020830184616819565b9392505050565b60006040820190506173a76000830185616c63565b81810360208301526173b981846168c7565b90509392505050565b60006040820190506173d76000830185616c63565b6173e46020830184616c63565b9392505050565b600060c0820190506174006000830189616c63565b61740d6020830188616c63565b61741a6040830187616cc5565b6174276060830186616c45565b6174346080830185616ca7565b61744160a0830184616ca7565b979650505050505050565b600060c0820190506174616000830189616c63565b61746e6020830188616c63565b61747b6040830187616cc5565b6174886060830186616ca7565b6174956080830185616ca7565b6174a260a0830184616795565b979650505050505050565b60006040820190506174c26000830185616c63565b6174cf6020830184616c98565b9392505050565b600060c0820190506174eb6000830189616c63565b6174f86020830188616cc5565b6175056040830187616cc5565b6175126060830186616ca7565b61751f6080830185616ca7565b61752c60a0830184616795565b979650505050505050565b600060408201905061754c6000830185616c63565b6175596020830184616ce3565b9392505050565b60006020820190506175756000830184616ca7565b92915050565b60006040820190506175906000830185616ca7565b61759d6020830184616ca7565b9392505050565b60006020820190506175b96000830184616cb6565b92915050565b60006020820190506175d46000830184616cc5565b92915050565b60006040820190506175ef6000830185616cc5565b6175fc6020830184616795565b9392505050565b60006020820190506176186000830184616cf2565b92915050565b60006060820190506176336000830186616cf2565b6176406020830185616795565b818103604083015261765281846167bb565b9050949350505050565b6000617666617677565b90506176728282617ad4565b919050565b6000604051905090565b600067ffffffffffffffff82111561769c5761769b617ca4565b5b602082029050919050565b6000819050602082019050919050565b6000819050919050565b6000819050602082019050919050565b600081519050919050565b600060029050919050565b600081519050919050565b600081519050919050565b6000602082019050919050565b6000602082019050919050565b6000602082019050919050565b600082825260208201905092915050565b600081905092915050565b600081905092915050565b600082825260208201905092915050565b600082825260208201905092915050565b600061777882617996565b915061778383617996565b9250827fffffffffffffffffffffffffffffffffffffffffffffffffffffffffffffffff038211156177b8576177b7617be8565b5b828201905092915050565b60006177ce826179b0565b91506177d9836179b0565b92508267ffffffffffffffff038211156177f6576177f5617be8565b5b828201905092915050565b600061780c826179e7565b9150617817836179e7565b9250826bffffffffffffffffffffffff0382111561783857617837617be8565b5b828201905092915050565b600061784e82617996565b915061785983617996565b92508261786957617868617c17565b5b828204905092915050565b600061787f82617996565b915061788a83617996565b9250817fffffffffffffffffffffffffffffffffffffffffffffffffffffffffffffffff04831182151516156178c3576178c2617be8565b5b828202905092915050565b60006178d982617996565b91506178e483617996565b9250828210156178f7576178f6617be8565b5b828203905092915050565b600061790d826179e7565b9150617918836179e7565b92508282101561792b5761792a617be8565b5b828203905092915050565b600061794182617976565b9050919050565b60008115159050919050565b6000819050919050565b6000819050919050565b600061ffff82169050919050565b600073ffffffffffffffffffffffffffffffffffffffff82169050919050565b6000819050919050565b600063ffffffff82169050919050565b600067ffffffffffffffff82169050919050565b600060ff82169050919050565b600069ffffffffffffffffffff82169050919050565b60006bffffffffffffffffffffffff82169050919050565b6000617a0a82617a11565b9050919050565b6000617a1c82617976565b9050919050565b6000617a2e82617a35565b9050919050565b6000617a4082617976565b9050919050565b6000617a5282617a59565b9050919050565b6000617a6482617976565b9050919050565b6000617a76826179a0565b9050919050565b6000617a88826179b0565b9050919050565b6000617a9a826179e7565b9050919050565b60005b83811015617abf578082015181840152602081019050617aa4565b83811115617ace576000848401525b50505050565b617add82617cf1565b810181811067ffffffffffffffff82111715617afc57617afb617ca4565b5b80604052505050565b6000617b1082617996565b91507fffffffffffffffffffffffffffffffffffffffffffffffffffffffffffffffff821415617b4357617b42617be8565b5b600182019050919050565b6000617b59826179b0565b915067ffffffffffffffff821415617b7457617b73617be8565b5b600182019050919050565b6000617b8a82617b9b565b9050919050565b6000819050919050565b6000617ba682617d02565b9050919050565b6000819050919050565b6000617bc282617996565b9150617bcd83617996565b925082617bdd57617bdc617c17565b5b828206905092915050565b7f4e487b7100000000000000000000000000000000000000000000000000000000600052601160045260246000fd5b7f4e487b7100000000000000000000000000000000000000000000000000000000600052601260045260246000fd5b7f4e487b7100000000000000000000000000000000000000000000000000000000600052603160045260246000fd5b7f4e487b7100000000000000000000000000000000000000000000000000000000600052603260045260246000fd5b7f4e487b7100000000000000000000000000000000000000000000000000000000600052604160045260246000fd5b600080fd5b600080fd5b600080fd5b600080fd5b600080fd5b600080fd5b6000601f19601f8301169050919050565b60008160601b9050919050565b7f4d7573742062652070726f706f736564206f776e657200000000000000000000600082015250565b7f5365636f6e64206d756c20636865636b206661696c6564000000000000000000600082015250565b7f706f696e747320696e2073756d206d7573742062652064697374696e63740000600082015250565b7f4f6e6c792063616c6c61626c65206279206f776e657200000000000000000000600082015250565b7f6269674d6f64457870206661696c757265210000000000000000000000000000600082015250565b7f696e76616c696420782d6f7264696e6174650000000000000000000000000000600082015250565b7f626164207769746e657373000000000000000000000000000000000000000000600082015250565b7f6164647228632a706b2b732a6729213d5f755769746e65737300000000000000600082015250565b7f696e765a206d75737420626520696e7665727365206f66207a00000000000000600082015250565b7f6347616d6d615769746e657373206973206e6f74206f6e206375727665000000600082015250565b7f7075626c6963206b6579206973206e6f74206f6e206375727665000000000000600082015250565b7f67616d6d61206973206e6f74206f6e2063757276650000000000000000000000600082015250565b7f696e76616c69642070726f6f6600000000000000000000000000000000000000600082015250565b7f43616e6e6f74207472616e7366657220746f2073656c66000000000000000000600082015250565b7f4669727374206d756c20636865636b206661696c656400000000000000000000600082015250565b7f7a65726f207363616c6172000000000000000000000000000000000000000000600082015250565b7f696e76616c696420792d6f7264696e6174650000000000000000000000000000600082015250565b7f73486173685769746e657373206973206e6f74206f6e20637572766500000000600082015250565b617ffa81617936565b811461800557600080fd5b50565b61801181617948565b811461801c57600080fd5b50565b61802881617954565b811461803357600080fd5b50565b61803f8161795e565b811461804a57600080fd5b50565b61805681617968565b811461806157600080fd5b50565b61806d81617996565b811461807857600080fd5b50565b618084816179a0565b811461808f57600080fd5b50565b61809b816179b0565b81146180a657600080fd5b50565b6180b2816179d1565b81146180bd57600080fd5b50565b6180c9816179e7565b81146180d457600080fd5b5056fea26469706673582212209829421deda5b15ff5c7cae3f6a87498098526e5e4243edba04903facf82e72964736f6c63430008060033",
  "linkReferences": {},
  "deployedLinkReferences": {}
}