{
  "_format": "hh-sol-artifact-1",
  "contractName": "VestingPeriod",
  "sourceName": "contracts/Vesting.sol",
  "abi": [
    {
      "inputs": [
        {
          "internalType": "address",
          "name": "_token",
          "type": "address"
        },
        {
          "internalType": "uint256",
          "name": "_startTime",
          "type": "uint256"
        },
        {
          "internalType": "uint256",
          "name": "_vestingDuration",
          "type": "uint256"
        }
      ],
      "stateMutability": "nonpayable",
      "type": "constructor"
    },
    {
      "anonymous": false,
      "inputs": [
        {
          "indexed": true,
          "internalType": "address",
          "name": "oldOwner",
          "type": "address"
        },
        {
          "indexed": true,
          "internalType": "address",
          "name": "newOwner",
          "type": "address"
        }
      ],
      "name": "ChangeInvestor",
      "type": "event"
    },
    {
      "anonymous": false,
      "inputs": [
        {
          "indexed": true,
          "internalType": "address",
          "name": "recipient",
          "type": "address"
        },
        {
          "indexed": true,
          "internalType": "uint256",
          "name": "amount",
          "type": "uint256"
        }
      ],
      "name": "GrantAdded",
      "type": "event"
    },
    {
      "anonymous": false,
      "inputs": [
        {
          "indexed": true,
          "internalType": "address",
          "name": "recipient",
          "type": "address"
        },
        {
          "indexed": true,
          "internalType": "uint256",
          "name": "amountClaimed",
          "type": "uint256"
        }
      ],
      "name": "GrantTokensClaimed",
      "type": "event"
    },
    {
      "anonymous": false,
      "inputs": [
        {
          "indexed": true,
          "internalType": "address",
          "name": "previousOwner",
          "type": "address"
        },
        {
          "indexed": true,
          "internalType": "address",
          "name": "newOwner",
          "type": "address"
        }
      ],
      "name": "OwnershipTransferred",
      "type": "event"
    },
    {
      "inputs": [
        {
          "internalType": "address[]",
          "name": "_recipients",
          "type": "address[]"
        },
        {
          "internalType": "uint256[]",
          "name": "_amounts",
          "type": "uint256[]"
        }
      ],
      "name": "addTokenGrants",
      "outputs": [],
      "stateMutability": "nonpayable",
      "type": "function"
    },
    {
      "inputs": [
        {
          "internalType": "address",
          "name": "",
          "type": "address"
        }
      ],
      "name": "blacklist",
      "outputs": [
        {
          "internalType": "address",
          "name": "",
          "type": "address"
        }
      ],
      "stateMutability": "view",
      "type": "function"
    },
    {
      "inputs": [
        {
          "internalType": "address",
          "name": "_recipient",
          "type": "address"
        }
      ],
      "name": "calculateGrantClaim",
      "outputs": [
        {
          "internalType": "uint256",
          "name": "",
          "type": "uint256"
        }
      ],
      "stateMutability": "view",
      "type": "function"
    },
    {
      "inputs": [
        {
          "internalType": "address",
          "name": "_oldAddress",
          "type": "address"
        },
        {
          "internalType": "address",
          "name": "_newAddress",
          "type": "address"
        }
      ],
      "name": "changeInvestor",
      "outputs": [],
      "stateMutability": "nonpayable",
      "type": "function"
    },
    {
      "inputs": [
        {
          "internalType": "address",
          "name": "_recipient",
          "type": "address"
        }
      ],
      "name": "claimVestedTokens",
      "outputs": [],
      "stateMutability": "nonpayable",
      "type": "function"
    },
    {
      "inputs": [
        {
          "internalType": "address",
          "name": "_recipient",
          "type": "address"
        }
      ],
      "name": "claimedBalance",
      "outputs": [
        {
          "internalType": "uint256",
          "name": "",
          "type": "uint256"
        }
      ],
      "stateMutability": "view",
      "type": "function"
    },
    {
      "inputs": [
        {
          "internalType": "address",
          "name": "_recipient",
          "type": "address"
        }
      ],
      "name": "getTokenGrant",
      "outputs": [
        {
          "components": [
            {
              "internalType": "uint256",
              "name": "amount",
              "type": "uint256"
            },
            {
              "internalType": "uint256",
              "name": "totalClaimed",
              "type": "uint256"
            },
            {
              "internalType": "uint256",
              "name": "perSecond",
              "type": "uint256"
            }
          ],
          "internalType": "struct VestingPeriod.Grant",
          "name": "",
          "type": "tuple"
        }
      ],
      "stateMutability": "view",
      "type": "function"
    },
    {
      "inputs": [],
      "name": "owner",
      "outputs": [
        {
          "internalType": "address",
          "name": "",
          "type": "address"
        }
      ],
      "stateMutability": "view",
      "type": "function"
    },
    {
      "inputs": [],
      "name": "pool",
      "outputs": [
        {
          "internalType": "uint256",
          "name": "startTime",
          "type": "uint256"
        },
        {
          "internalType": "uint256",
          "name": "endTime",
          "type": "uint256"
        },
        {
          "internalType": "uint256",
          "name": "vestingDuration",
          "type": "uint256"
        },
        {
          "internalType": "uint256",
          "name": "amount",
          "type": "uint256"
        },
        {
          "internalType": "uint256",
          "name": "totalClaimed",
          "type": "uint256"
        },
        {
          "internalType": "uint256",
          "name": "grants",
          "type": "uint256"
        }
      ],
      "stateMutability": "view",
      "type": "function"
    },
    {
      "inputs": [],
      "name": "renounceOwnership",
      "outputs": [],
      "stateMutability": "nonpayable",
      "type": "function"
    },
    {
      "inputs": [],
      "name": "token",
      "outputs": [
        {
          "internalType": "contract IERC20",
          "name": "",
          "type": "address"
        }
      ],
      "stateMutability": "view",
      "type": "function"
    },
    {
      "inputs": [
        {
          "internalType": "address",
          "name": "",
          "type": "address"
        }
      ],
      "name": "tokenGrants",
      "outputs": [
        {
          "internalType": "uint256",
          "name": "amount",
          "type": "uint256"
        },
        {
          "internalType": "uint256",
          "name": "totalClaimed",
          "type": "uint256"
        },
        {
          "internalType": "uint256",
          "name": "perSecond",
          "type": "uint256"
        }
      ],
      "stateMutability": "view",
      "type": "function"
    },
    {
      "inputs": [
        {
          "internalType": "address",
          "name": "_recipient",
          "type": "address"
        }
      ],
      "name": "tokensVestedPerDay",
      "outputs": [
        {
          "internalType": "uint256",
          "name": "",
          "type": "uint256"
        }
      ],
      "stateMutability": "view",
      "type": "function"
    },
    {
      "inputs": [
        {
          "internalType": "uint256",
          "name": "_amount",
          "type": "uint256"
        }
      ],
      "name": "tokensVestedPerDay",
      "outputs": [
        {
          "internalType": "uint256",
          "name": "",
          "type": "uint256"
        }
      ],
      "stateMutability": "view",
      "type": "function"
    },
    {
      "inputs": [
        {
          "internalType": "address",
          "name": "newOwner",
          "type": "address"
        }
      ],
      "name": "transferOwnership",
      "outputs": [],
      "stateMutability": "nonpayable",
      "type": "function"
    },
    {
      "inputs": [
        {
          "internalType": "address",
          "name": "_recipient",
          "type": "address"
        }
      ],
      "name": "vestedBalance",
      "outputs": [
        {
          "internalType": "uint256",
          "name": "",
          "type": "uint256"
        }
      ],
      "stateMutability": "view",
      "type": "function"
    }
  ],
  "bytecode": "0x60806040523480156200001157600080fd5b506040516200334b3803806200334b8339818101604052810190620000379190620003de565b620000576200004b620002b460201b60201c565b620002bc60201b60201c565b600073ffffffffffffffffffffffffffffffffffffffff168373ffffffffffffffffffffffffffffffffffffffff161415620000ca576040517f08c379a0000000000000000000000000000000000000000000000000000000008152600401620000c19062000710565b60405180910390fd5b600082118015620000db5750600081115b6200011d576040517f08c379a00000000000000000000000000000000000000000000000000000000081526004016200011490620006cc565b60405180910390fd5b42821162000162576040517f08c379a00000000000000000000000000000000000000000000000000000000081526004016200015990620006ee565b60405180910390fd5b60008111620001a8576040517f08c379a00000000000000000000000000000000000000000000000000000000081526004016200019f90620006aa565b60405180910390fd5b620151808110156200023357620001ed61016d620001d9600a620151806200038060201b620018ca1790919060201c565b6200038060201b620018ca1790919060201c565b81111562000232576040517f08c379a0000000000000000000000000000000000000000000000000000000008152600401620002299062000688565b60405180910390fd5b5b82600160006101000a81548173ffffffffffffffffffffffffffffffffffffffff021916908373ffffffffffffffffffffffffffffffffffffffff1602179055508160036000018190555080600360020181905550620002a281836200039860201b620018e01790919060201c565b600360010181905550505050620008a2565b600033905090565b60008060009054906101000a900473ffffffffffffffffffffffffffffffffffffffff169050816000806101000a81548173ffffffffffffffffffffffffffffffffffffffff021916908373ffffffffffffffffffffffffffffffffffffffff1602179055508173ffffffffffffffffffffffffffffffffffffffff168173ffffffffffffffffffffffffffffffffffffffff167f8be0079c531659141344cd1fd0a4f28419497f9722a3daafe3b4186f6b6457e060405160405180910390a35050565b60008183620003909190620007a0565b905092915050565b60008183620003a8919062000743565b905092915050565b600081519050620003c1816200086e565b92915050565b600081519050620003d88162000888565b92915050565b600080600060608486031215620003f457600080fd5b60006200040486828701620003b0565b93505060206200041786828701620003c7565b92505060406200042a86828701620003c7565b9150509250925092565b60006200044360418362000732565b91507f56657374696e67506572696f643a3a636f6e7374727563746f723a204475726160008301527f74696f6e2073686f756c64206265206c657373207468616e203130207965617260208301527f73000000000000000000000000000000000000000000000000000000000000006040830152606082019050919050565b6000620004d1603e8362000732565b91507f56657374696e67506572696f643a3a636f6e7374727563746f723a204475726160008301527f74696f6e206f662074686520706572696f64206d757374206265203e203000006020830152604082019050919050565b600062000539603b8362000732565b91507f56657374696e67506572696f643a3a636f6e7374727563746f723a204f6e652060008301527f6f66207468652074696d6520706172616d6574657273206973203000000000006020830152604082019050919050565b6000620005a160448362000732565b91507f56657374696e67506572696f643a3a636f6e7374727563746f723a205374617260008301527f74696e672074696d65207368616c6c6c20626520696e2061206675747572652060208301527f74696d65000000000000000000000000000000000000000000000000000000006040830152606082019050919050565b60006200062f603e8362000732565b91507f56657374696e67506572696f643a3a636f6e7374727563746f723a205f746f6b60008301527f656e206d7573742062652076616c696420746f6b656e206164647265737300006020830152604082019050919050565b60006020820190508181036000830152620006a38162000434565b9050919050565b60006020820190508181036000830152620006c581620004c2565b9050919050565b60006020820190508181036000830152620006e7816200052a565b9050919050565b60006020820190508181036000830152620007098162000592565b9050919050565b600060208201905081810360008301526200072b8162000620565b9050919050565b600082825260208201905092915050565b6000620007508262000835565b91506200075d8362000835565b9250827fffffffffffffffffffffffffffffffffffffffffffffffffffffffffffffffff038211156200079557620007946200083f565b5b828201905092915050565b6000620007ad8262000835565b9150620007ba8362000835565b9250817fffffffffffffffffffffffffffffffffffffffffffffffffffffffffffffffff0483118215151615620007f657620007f56200083f565b5b828202905092915050565b60006200080e8262000815565b9050919050565b600073ffffffffffffffffffffffffffffffffffffffff82169050919050565b6000819050919050565b7f4e487b7100000000000000000000000000000000000000000000000000000000600052601160045260246000fd5b620008798162000801565b81146200088557600080fd5b50565b620008938162000835565b81146200089f57600080fd5b50565b612a9980620008b26000396000f3fe608060405234801561001057600080fd5b50600436106101005760003560e01c806398f3b12d11610097578063f2fde38b11610066578063f2fde38b146102c6578063f9f92be4146102e2578063fc0c546a14610312578063fd75b8d41461033057610100565b806398f3b12d1461022c578063a1fcee2814610248578063b81a4d8f14610264578063f09dafb21461029657610100565b80638da5cb5b116100d35780638da5cb5b146101925780638f816acc146101b05780639114557e146101cc5780639886c2a5146101fc57610100565b806316f0115b14610105578063376d3b8f146101285780636087349c14610158578063715018a614610188575b600080fd5b61010d610360565b60405161011f969594939291906126dc565b60405180910390f35b610142600480360381019061013d9190611b7a565b61038a565b60405161014f919061266f565b60405180910390f35b610172600480360381019061016d9190611b7a565b610401565b60405161017f919061268a565b60405180910390f35b610190610479565b005b61019a610501565b6040516101a791906123f9565b60405180910390f35b6101ca60048036038101906101c59190611bdf565b61052a565b005b6101e660048036038101906101e19190611b7a565b610c5e565b6040516101f3919061268a565b60405180910390f35b61021660048036038101906102119190611b7a565b610d6a565b604051610223919061268a565b60405180910390f35b61024660048036038101906102419190611b7a565b610db6565b005b610262600480360381019061025d9190611ba3565b610fc0565b005b61027e60048036038101906102799190611b7a565b611559565b60405161028d939291906126a5565b60405180910390f35b6102b060048036038101906102ab9190611c74565b611583565b6040516102bd919061268a565b60405180910390f35b6102e060048036038101906102db9190611b7a565b6115b9565b005b6102fc60048036038101906102f79190611b7a565b6116b1565b60405161030991906123f9565b60405180910390f35b61031a6116e4565b6040516103279190612474565b60405180910390f35b61034a60048036038101906103459190611b7a565b61170a565b604051610357919061268a565b60405180910390f35b60038060000154908060010154908060020154908060030154908060040154908060050154905086565b6103926119ee565b600260008373ffffffffffffffffffffffffffffffffffffffff1673ffffffffffffffffffffffffffffffffffffffff16815260200190815260200160002060405180606001604052908160008201548152602001600182015481526020016002820154815250509050919050565b6000610472610421620151806003600201546118f690919063ffffffff16565b600260008573ffffffffffffffffffffffffffffffffffffffff1673ffffffffffffffffffffffffffffffffffffffff168152602001908152602001600020600001546118f690919063ffffffff16565b9050919050565b61048161190c565b73ffffffffffffffffffffffffffffffffffffffff1661049f610501565b73ffffffffffffffffffffffffffffffffffffffff16146104f5576040517f08c379a00000000000000000000000000000000000000000000000000000000081526004016104ec9061258f565b60405180910390fd5b6104ff6000611914565b565b60008060009054906101000a900473ffffffffffffffffffffffffffffffffffffffff16905090565b61053261190c565b73ffffffffffffffffffffffffffffffffffffffff16610550610501565b73ffffffffffffffffffffffffffffffffffffffff16146105a6576040517f08c379a000000000000000000000000000000000000000000000000000000000815260040161059d9061258f565b60405180910390fd5b60008251116105ea576040517f08c379a00000000000000000000000000000000000000000000000000000000081526004016105e1906124af565b60405180910390fd5b60648251111561062f576040517f08c379a0000000000000000000000000000000000000000000000000000000008152600401610626906125ef565b60405180910390fd5b8051825114610673576040517f08c379a000000000000000000000000000000000000000000000000000000000815260040161066a9061264f565b60405180910390fd5b6000805b83518161ffff1610156108f457600073ffffffffffffffffffffffffffffffffffffffff16848261ffff16815181106106d9577f4e487b7100000000000000000000000000000000000000000000000000000000600052603260045260246000fd5b602002602001015173ffffffffffffffffffffffffffffffffffffffff161415610738576040517f08c379a000000000000000000000000000000000000000000000000000000000815260040161072f9061252f565b60405180910390fd5b600060026000868461ffff168151811061077b577f4e487b7100000000000000000000000000000000000000000000000000000000600052603260045260246000fd5b602002602001015173ffffffffffffffffffffffffffffffffffffffff1673ffffffffffffffffffffffffffffffffffffffff1681526020019081526020016000206000015414610801576040517f08c379a00000000000000000000000000000000000000000000000000000000081526004016107f89061250f565b60405180910390fd5b6000838261ffff1681518110610840577f4e487b7100000000000000000000000000000000000000000000000000000000600052603260045260246000fd5b602002602001015111610888576040517f08c379a000000000000000000000000000000000000000000000000000000000815260040161087f906125cf565b60405180910390fd5b6108df838261ffff16815181106108c8577f4e487b7100000000000000000000000000000000000000000000000000000000600052603260045260246000fd5b6020026020010151836118e090919063ffffffff16565b915080806108ec90612966565b915050610677565b50600160009054906101000a900473ffffffffffffffffffffffffffffffffffffffff1673ffffffffffffffffffffffffffffffffffffffff166323b872dd3330846040518463ffffffff1660e01b815260040161095493929190612414565b602060405180830381600087803b15801561096e57600080fd5b505af1158015610982573d6000803e3d6000fd5b505050506040513d601f19601f820116820180604052508101906109a69190611c4b565b6109e5576040517f08c379a00000000000000000000000000000000000000000000000000000000081526004016109dc906124ef565b60405180910390fd5b60005b83518161ffff161015610c395760006040518060600160405280858461ffff1681518110610a3f577f4e487b7100000000000000000000000000000000000000000000000000000000600052603260045260246000fd5b6020026020010151815260200160008152602001610aaf600360020154878661ffff1681518110610a99577f4e487b7100000000000000000000000000000000000000000000000000000000600052603260045260246000fd5b60200260200101516118f690919063ffffffff16565b81525090508060026000878561ffff1681518110610af6577f4e487b7100000000000000000000000000000000000000000000000000000000600052603260045260246000fd5b602002602001015173ffffffffffffffffffffffffffffffffffffffff1673ffffffffffffffffffffffffffffffffffffffff168152602001908152602001600020600082015181600001556020820151816001015560408201518160020155905050838261ffff1681518110610b96577f4e487b7100000000000000000000000000000000000000000000000000000000600052603260045260246000fd5b6020026020010151858361ffff1681518110610bdb577f4e487b7100000000000000000000000000000000000000000000000000000000600052603260045260246000fd5b602002602001015173ffffffffffffffffffffffffffffffffffffffff167f9d2a1eab91557a277ec725fe26546609d5a33a550c3f3476982ee177252be8f460405160405180910390a3508080610c3190612966565b9150506109e8565b50610c518160038001546118e090919063ffffffff16565b6003800181905550505050565b6000600360000154421015610c765760009050610d65565b6000429050600360010154811115610c915760036001015490505b600360010154811415610ce957600260008473ffffffffffffffffffffffffffffffffffffffff1673ffffffffffffffffffffffffffffffffffffffff16815260200190815260200160002060000154915050610d65565b6000610d03600360000154836119d890919063ffffffff16565b90506000610d5c82600260008873ffffffffffffffffffffffffffffffffffffffff1673ffffffffffffffffffffffffffffffffffffffff168152602001908152602001600020600201546118ca90919063ffffffff16565b90508093505050505b919050565b6000600260008373ffffffffffffffffffffffffffffffffffffffff1673ffffffffffffffffffffffffffffffffffffffff168152602001908152602001600020600101549050919050565b6000610dc18261170a565b905060008111610e06576040517f08c379a0000000000000000000000000000000000000000000000000000000008152600401610dfd9061256f565b60405180910390fd5b600160009054906101000a900473ffffffffffffffffffffffffffffffffffffffff1673ffffffffffffffffffffffffffffffffffffffff1663a9059cbb83836040518363ffffffff1660e01b8152600401610e6392919061244b565b602060405180830381600087803b158015610e7d57600080fd5b505af1158015610e91573d6000803e3d6000fd5b505050506040513d601f19601f82011682018060405250810190610eb59190611c4b565b610ef4576040517f08c379a0000000000000000000000000000000000000000000000000000000008152600401610eeb9061248f565b60405180910390fd5b6000600260008473ffffffffffffffffffffffffffffffffffffffff1673ffffffffffffffffffffffffffffffffffffffff1681526020019081526020016000209050610f4e8282600101546118e090919063ffffffff16565b8160010181905550610f6e826003600401546118e090919063ffffffff16565b600360040181905550818373ffffffffffffffffffffffffffffffffffffffff167fc6cbb4aa8681b18644bf64921eea8f2b9f44cbd58d64fc07a110bfccc203829660405160405180910390a3505050565b610fc861190c565b73ffffffffffffffffffffffffffffffffffffffff16610fe6610501565b73ffffffffffffffffffffffffffffffffffffffff161461103c576040517f08c379a00000000000000000000000000000000000000000000000000000000081526004016110339061258f565b60405180910390fd5b600073ffffffffffffffffffffffffffffffffffffffff16600960008473ffffffffffffffffffffffffffffffffffffffff1673ffffffffffffffffffffffffffffffffffffffff16815260200190815260200160002060009054906101000a900473ffffffffffffffffffffffffffffffffffffffff1673ffffffffffffffffffffffffffffffffffffffff161461110a576040517f08c379a00000000000000000000000000000000000000000000000000000000081526004016111019061262f565b60405180910390fd5b600073ffffffffffffffffffffffffffffffffffffffff16600960008373ffffffffffffffffffffffffffffffffffffffff1673ffffffffffffffffffffffffffffffffffffffff16815260200190815260200160002060009054906101000a900473ffffffffffffffffffffffffffffffffffffffff1673ffffffffffffffffffffffffffffffffffffffff16146111d8576040517f08c379a00000000000000000000000000000000000000000000000000000000081526004016111cf9061260f565b60405180910390fd5b6000600260008373ffffffffffffffffffffffffffffffffffffffff1673ffffffffffffffffffffffffffffffffffffffff168152602001908152602001600020600001541461125d576040517f08c379a00000000000000000000000000000000000000000000000000000000081526004016112549061254f565b60405180910390fd5b6000600260008473ffffffffffffffffffffffffffffffffffffffff1673ffffffffffffffffffffffffffffffffffffffff16815260200190815260200160002060000154116112e2576040517f08c379a00000000000000000000000000000000000000000000000000000000081526004016112d9906125af565b60405180910390fd5b6040518060600160405280600260008573ffffffffffffffffffffffffffffffffffffffff1673ffffffffffffffffffffffffffffffffffffffff168152602001908152602001600020600001548152602001600260008573ffffffffffffffffffffffffffffffffffffffff1673ffffffffffffffffffffffffffffffffffffffff168152602001908152602001600020600201548152602001600260008573ffffffffffffffffffffffffffffffffffffffff1673ffffffffffffffffffffffffffffffffffffffff16815260200190815260200160002060010154815250600260008373ffffffffffffffffffffffffffffffffffffffff1673ffffffffffffffffffffffffffffffffffffffff168152602001908152602001600020600082015181600001556020820151816001015560408201518160020155905050600260008373ffffffffffffffffffffffffffffffffffffffff1673ffffffffffffffffffffffffffffffffffffffff16815260200190815260200160002060008082016000905560018201600090556002820160009055505080600960008473ffffffffffffffffffffffffffffffffffffffff1673ffffffffffffffffffffffffffffffffffffffff16815260200190815260200160002060006101000a81548173ffffffffffffffffffffffffffffffffffffffff021916908373ffffffffffffffffffffffffffffffffffffffff1602179055508073ffffffffffffffffffffffffffffffffffffffff168273ffffffffffffffffffffffffffffffffffffffff167f706529ebf60134525d449e25291ab5a388947ed7a1ae42a102d878f5f7f8a32860405160405180910390a35050565b60026020528060005260406000206000915090508060000154908060010154908060020154905083565b60006115b26115a3620151806003600201546118f690919063ffffffff16565b836118f690919063ffffffff16565b9050919050565b6115c161190c565b73ffffffffffffffffffffffffffffffffffffffff166115df610501565b73ffffffffffffffffffffffffffffffffffffffff1614611635576040517f08c379a000000000000000000000000000000000000000000000000000000000815260040161162c9061258f565b60405180910390fd5b600073ffffffffffffffffffffffffffffffffffffffff168173ffffffffffffffffffffffffffffffffffffffff1614156116a5576040517f08c379a000000000000000000000000000000000000000000000000000000000815260040161169c906124cf565b60405180910390fd5b6116ae81611914565b50565b60096020528060005260406000206000915054906101000a900473ffffffffffffffffffffffffffffffffffffffff1681565b600160009054906101000a900473ffffffffffffffffffffffffffffffffffffffff1681565b600060036000015442101561172257600090506118c5565b600042905060036001015481111561173d5760036001015490505b6000611757600360000154836119d890919063ffffffff16565b9050600360020154811061180b5760006117fe600260008773ffffffffffffffffffffffffffffffffffffffff1673ffffffffffffffffffffffffffffffffffffffff16815260200190815260200160002060010154600260008873ffffffffffffffffffffffffffffffffffffffff1673ffffffffffffffffffffffffffffffffffffffff168152602001908152602001600020600001546119d890919063ffffffff16565b90508093505050506118c5565b600061186282600260008873ffffffffffffffffffffffffffffffffffffffff1673ffffffffffffffffffffffffffffffffffffffff168152602001908152602001600020600201546118ca90919063ffffffff16565b905060006118bb600260008873ffffffffffffffffffffffffffffffffffffffff1673ffffffffffffffffffffffffffffffffffffffff16815260200190815260200160002060010154836119d890919063ffffffff16565b9050809450505050505b919050565b600081836118d8919061285e565b905092915050565b600081836118ee91906127d7565b905092915050565b60008183611904919061282d565b905092915050565b600033905090565b60008060009054906101000a900473ffffffffffffffffffffffffffffffffffffffff169050816000806101000a81548173ffffffffffffffffffffffffffffffffffffffff021916908373ffffffffffffffffffffffffffffffffffffffff1602179055508173ffffffffffffffffffffffffffffffffffffffff168173ffffffffffffffffffffffffffffffffffffffff167f8be0079c531659141344cd1fd0a4f28419497f9722a3daafe3b4186f6b6457e060405160405180910390a35050565b600081836119e691906128b8565b905092915050565b60405180606001604052806000815260200160008152602001600081525090565b6000611a22611a1d8461276e565b61273d565b90508083825260208201905082856020860282011115611a4157600080fd5b60005b85811015611a715781611a578882611ae7565b845260208401935060208301925050600181019050611a44565b5050509392505050565b6000611a8e611a898461279a565b61273d565b90508083825260208201905082856020860282011115611aad57600080fd5b60005b85811015611add5781611ac38882611b65565b845260208401935060208301925050600181019050611ab0565b5050509392505050565b600081359050611af681612a1e565b92915050565b600082601f830112611b0d57600080fd5b8135611b1d848260208601611a0f565b91505092915050565b600082601f830112611b3757600080fd5b8135611b47848260208601611a7b565b91505092915050565b600081519050611b5f81612a35565b92915050565b600081359050611b7481612a4c565b92915050565b600060208284031215611b8c57600080fd5b6000611b9a84828501611ae7565b91505092915050565b60008060408385031215611bb657600080fd5b6000611bc485828601611ae7565b9250506020611bd585828601611ae7565b9150509250929050565b60008060408385031215611bf257600080fd5b600083013567ffffffffffffffff811115611c0c57600080fd5b611c1885828601611afc565b925050602083013567ffffffffffffffff811115611c3557600080fd5b611c4185828601611b26565b9150509250929050565b600060208284031215611c5d57600080fd5b6000611c6b84828501611b50565b91505092915050565b600060208284031215611c8657600080fd5b6000611c9484828501611b65565b91505092915050565b611ca6816128ec565b82525050565b611cb581612942565b82525050565b6000611cc86031836127c6565b91507f56657374696e67506572696f643a3a636c61696d566573746564546f6b656e7360008301527f3a207472616e73666572206661696c65640000000000000000000000000000006020830152604082019050919050565b6000611d2e602c836127c6565b91507f56657374696e67506572696f643a3a616464546f6b656e4772616e74733a206e60008301527f6f20726563697069656e747300000000000000000000000000000000000000006020830152604082019050919050565b6000611d946026836127c6565b91507f4f776e61626c653a206e6577206f776e657220697320746865207a65726f206160008301527f64647265737300000000000000000000000000000000000000000000000000006020830152604082019050919050565b6000611dfa602e836127c6565b91507f56657374696e67506572696f643a3a616464546f6b656e4772616e74733a207460008301527f72616e73666572206661696c65640000000000000000000000000000000000006020830152604082019050919050565b6000611e60604d836127c6565b91507f56657374696e67506572696f643a3a616464546f6b656e4772616e74733a206160008301527f206772616e7420616c72656164792065786973747320666f72206f6e65206f6660208301527f20746865206163636f756e7473000000000000000000000000000000000000006040830152606082019050919050565b6000611eec603e836127c6565b91507f56657374696e67506572696f643a616464546f6b656e4772616e74733a20746860008301527f65726520697320616e206164647265737320776974682076616c7565203000006020830152604082019050919050565b6000611f526051836127c6565b91507f56657374696e67506572696f643a3a6368616e6765496e766573746f723a207260008301527f65717569726573206120646966666572656e742061646472657373207468616e60208301527f206578697374696e67206772616e7465640000000000000000000000000000006040830152606082019050919050565b6000611fde6033836127c6565b91507f56657374696e67506572696f643a3a636c61696d566573746564546f6b656e7360008301527f3a20616d6f756e745665737465642069732030000000000000000000000000006020830152604082019050919050565b60006120446020836127c6565b91507f4f776e61626c653a2063616c6c6572206973206e6f7420746865206f776e65726000830152602082019050919050565b60006120846042836127c6565b91507f56657374696e67506572696f643a3a6368616e6765496e766573746f723a206f60008301527f6c644164647265737320686173206e6f2072656d61696e696e672062616c616e60208301527f63650000000000000000000000000000000000000000000000000000000000006040830152606082019050919050565b60006121106029836127c6565b91507f56657374696e67506572696f643a3a616464546f6b656e4772616e743a20616d60008301527f6f756e74203d3d203000000000000000000000000000000000000000000000006020830152604082019050919050565b60006121766045836127c6565b91507f56657374696e67506572696f643a3a616464546f6b656e4772616e74733a207460008301527f6f6f206d616e79206772616e74732c2069742077696c6c2070726f6261626c7960208301527f206661696c0000000000000000000000000000000000000000000000000000006040830152606082019050919050565b60006122026043836127c6565b91507f56657374696e67506572696f643a3a6368616e6765496e766573746f723a206e60008301527f65772061646472657373206973206120626c61636b6c6973746564206164647260208301527f65737300000000000000000000000000000000000000000000000000000000006040830152606082019050919050565b600061228e6042836127c6565b91507f56657374696e67506572696f643a3a6368616e6765496e766573746f723a206f60008301527f6c646164647265737320616c726561647920696e2074686520626c61636b6c6960208301527f73740000000000000000000000000000000000000000000000000000000000006040830152606082019050919050565b600061231a604e836127c6565b91507f56657374696e67506572696f643a3a616464546f6b656e4772616e74733a206960008301527f6e76616c696420706172616d6574657273206c656e677468202874686579207360208301527f686f756c642062652073616d65290000000000000000000000000000000000006040830152606082019050919050565b6060820160008201516123af60008501826123db565b5060208201516123c260208501826123db565b5060408201516123d560408501826123db565b50505050565b6123e481612938565b82525050565b6123f381612938565b82525050565b600060208201905061240e6000830184611c9d565b92915050565b60006060820190506124296000830186611c9d565b6124366020830185611c9d565b61244360408301846123ea565b949350505050565b60006040820190506124606000830185611c9d565b61246d60208301846123ea565b9392505050565b60006020820190506124896000830184611cac565b92915050565b600060208201905081810360008301526124a881611cbb565b9050919050565b600060208201905081810360008301526124c881611d21565b9050919050565b600060208201905081810360008301526124e881611d87565b9050919050565b6000602082019050818103600083015261250881611ded565b9050919050565b6000602082019050818103600083015261252881611e53565b9050919050565b6000602082019050818103600083015261254881611edf565b9050919050565b6000602082019050818103600083015261256881611f45565b9050919050565b6000602082019050818103600083015261258881611fd1565b9050919050565b600060208201905081810360008301526125a881612037565b9050919050565b600060208201905081810360008301526125c881612077565b9050919050565b600060208201905081810360008301526125e881612103565b9050919050565b6000602082019050818103600083015261260881612169565b9050919050565b60006020820190508181036000830152612628816121f5565b9050919050565b6000602082019050818103600083015261264881612281565b9050919050565b600060208201905081810360008301526126688161230d565b9050919050565b60006060820190506126846000830184612399565b92915050565b600060208201905061269f60008301846123ea565b92915050565b60006060820190506126ba60008301866123ea565b6126c760208301856123ea565b6126d460408301846123ea565b949350505050565b600060c0820190506126f160008301896123ea565b6126fe60208301886123ea565b61270b60408301876123ea565b61271860608301866123ea565b61272560808301856123ea565b61273260a08301846123ea565b979650505050505050565b6000604051905081810181811067ffffffffffffffff82111715612764576127636129ef565b5b8060405250919050565b600067ffffffffffffffff821115612789576127886129ef565b5b602082029050602081019050919050565b600067ffffffffffffffff8211156127b5576127b46129ef565b5b602082029050602081019050919050565b600082825260208201905092915050565b60006127e282612938565b91506127ed83612938565b9250827fffffffffffffffffffffffffffffffffffffffffffffffffffffffffffffffff0382111561282257612821612991565b5b828201905092915050565b600061283882612938565b915061284383612938565b925082612853576128526129c0565b5b828204905092915050565b600061286982612938565b915061287483612938565b9250817fffffffffffffffffffffffffffffffffffffffffffffffffffffffffffffffff04831182151516156128ad576128ac612991565b5b828202905092915050565b60006128c382612938565b91506128ce83612938565b9250828210156128e1576128e0612991565b5b828203905092915050565b60006128f782612918565b9050919050565b60008115159050919050565b600061ffff82169050919050565b600073ffffffffffffffffffffffffffffffffffffffff82169050919050565b6000819050919050565b600061294d82612954565b9050919050565b600061295f82612918565b9050919050565b60006129718261290a565b915061ffff82141561298657612985612991565b5b600182019050919050565b7f4e487b7100000000000000000000000000000000000000000000000000000000600052601160045260246000fd5b7f4e487b7100000000000000000000000000000000000000000000000000000000600052601260045260246000fd5b7f4e487b7100000000000000000000000000000000000000000000000000000000600052604160045260246000fd5b612a27816128ec565b8114612a3257600080fd5b50565b612a3e816128fe565b8114612a4957600080fd5b50565b612a5581612938565b8114612a6057600080fd5b5056fea2646970667358221220997ab958c04a883c0c47d8bc0178bb25646cbee2450df748ce149d3bb432ffbf64736f6c63430008000033",
  "linkReferences": {},
  "deployedLinkReferences": {}
}