{
  "_format": "hh-sol-artifact-1",
  "contractName": "LinkedNft",
  "sourceName": "contracts/LinkedNft.sol",
  "abi": [
    {
      "inputs": [
        {
          "internalType": "string",
          "name": "_name",
          "type": "string"
        },
        {
          "internalType": "string",
          "name": "_symbol",
          "type": "string"
        },
        {
          "internalType": "address",
          "name": "_source",
          "type": "address"
        },
        {
          "internalType": "address",
          "name": "_router",
          "type": "address"
        }
      ],
      "stateMutability": "nonpayable",
      "type": "constructor"
    },
    {
      "inputs": [
        {
          "internalType": "address",
          "name": "sender",
          "type": "address"
        },
        {
          "internalType": "uint256",
          "name": "tokenId",
          "type": "uint256"
        },
        {
          "internalType": "address",
          "name": "owner",
          "type": "address"
        }
      ],
      "name": "ERC721IncorrectOwner",
      "type": "error"
    },
    {
      "inputs": [
        {
          "internalType": "address",
          "name": "operator",
          "type": "address"
        },
        {
          "internalType": "uint256",
          "name": "tokenId",
          "type": "uint256"
        }
      ],
      "name": "ERC721InsufficientApproval",
      "type": "error"
    },
    {
      "inputs": [
        {
          "internalType": "address",
          "name": "approver",
          "type": "address"
        }
      ],
      "name": "ERC721InvalidApprover",
      "type": "error"
    },
    {
      "inputs": [
        {
          "internalType": "address",
          "name": "operator",
          "type": "address"
        }
      ],
      "name": "ERC721InvalidOperator",
      "type": "error"
    },
    {
      "inputs": [
        {
          "internalType": "address",
          "name": "owner",
          "type": "address"
        }
      ],
      "name": "ERC721InvalidOwner",
      "type": "error"
    },
    {
      "inputs": [
        {
          "internalType": "address",
          "name": "receiver",
          "type": "address"
        }
      ],
      "name": "ERC721InvalidReceiver",
      "type": "error"
    },
    {
      "inputs": [
        {
          "internalType": "address",
          "name": "sender",
          "type": "address"
        }
      ],
      "name": "ERC721InvalidSender",
      "type": "error"
    },
    {
      "inputs": [
        {
          "internalType": "uint256",
          "name": "tokenId",
          "type": "uint256"
        }
      ],
      "name": "ERC721NonexistentToken",
      "type": "error"
    },
    {
      "inputs": [
        {
          "internalType": "address",
          "name": "router",
          "type": "address"
        }
      ],
      "name": "InvalidRouter",
      "type": "error"
    },
    {
      "anonymous": false,
      "inputs": [
        {
          "indexed": true,
          "internalType": "address",
          "name": "owner",
          "type": "address"
        },
        {
          "indexed": true,
          "internalType": "address",
          "name": "approved",
          "type": "address"
        },
        {
          "indexed": true,
          "internalType": "uint256",
          "name": "tokenId",
          "type": "uint256"
        }
      ],
      "name": "Approval",
      "type": "event"
    },
    {
      "anonymous": false,
      "inputs": [
        {
          "indexed": true,
          "internalType": "address",
          "name": "owner",
          "type": "address"
        },
        {
          "indexed": true,
          "internalType": "address",
          "name": "operator",
          "type": "address"
        },
        {
          "indexed": false,
          "internalType": "bool",
          "name": "approved",
          "type": "bool"
        }
      ],
      "name": "ApprovalForAll",
      "type": "event"
    },
    {
      "anonymous": false,
      "inputs": [
        {
          "indexed": false,
          "internalType": "uint256",
          "name": "_fromTokenId",
          "type": "uint256"
        },
        {
          "indexed": false,
          "internalType": "uint256",
          "name": "_toTokenId",
          "type": "uint256"
        }
      ],
      "name": "BatchMetadataUpdate",
      "type": "event"
    },
    {
      "anonymous": false,
      "inputs": [
        {
          "indexed": false,
          "internalType": "uint256",
          "name": "_tokenId",
          "type": "uint256"
        }
      ],
      "name": "MetadataUpdate",
      "type": "event"
    },
    {
      "anonymous": false,
      "inputs": [
        {
          "indexed": true,
          "internalType": "address",
          "name": "from",
          "type": "address"
        },
        {
          "indexed": true,
          "internalType": "address",
          "name": "to",
          "type": "address"
        },
        {
          "indexed": true,
          "internalType": "uint256",
          "name": "tokenId",
          "type": "uint256"
        }
      ],
      "name": "Transfer",
      "type": "event"
    },
    {
      "anonymous": false,
      "inputs": [
        {
          "indexed": false,
          "internalType": "uint64",
          "name": "destSelector",
          "type": "uint64"
        },
        {
          "indexed": false,
          "internalType": "uint256",
          "name": "nftId",
          "type": "uint256"
        },
        {
          "indexed": false,
          "internalType": "address",
          "name": "owner",
          "type": "address"
        },
        {
          "indexed": false,
          "internalType": "bytes32",
          "name": "messageId",
          "type": "bytes32"
        }
      ],
      "name": "X_Bridge",
      "type": "event"
    },
    {
      "inputs": [
        {
          "internalType": "address",
          "name": "to",
          "type": "address"
        },
        {
          "internalType": "uint256",
          "name": "tokenId",
          "type": "uint256"
        }
      ],
      "name": "approve",
      "outputs": [],
      "stateMutability": "nonpayable",
      "type": "function"
    },
    {
      "inputs": [
        {
          "internalType": "address",
          "name": "owner",
          "type": "address"
        }
      ],
      "name": "balanceOf",
      "outputs": [
        {
          "internalType": "uint256",
          "name": "",
          "type": "uint256"
        }
      ],
      "stateMutability": "view",
      "type": "function"
    },
    {
      "inputs": [
        {
          "internalType": "uint256",
          "name": "nftId",
          "type": "uint256"
        },
        {
          "internalType": "uint64",
          "name": "chainSelector",
          "type": "uint64"
        }
      ],
      "name": "bridge",
      "outputs": [],
      "stateMutability": "payable",
      "type": "function"
    },
    {
      "inputs": [
        {
          "internalType": "uint256",
          "name": "nftId",
          "type": "uint256"
        },
        {
          "internalType": "address",
          "name": "to",
          "type": "address"
        },
        {
          "internalType": "string",
          "name": "uri",
          "type": "string"
        }
      ],
      "name": "bridge",
      "outputs": [],
      "stateMutability": "nonpayable",
      "type": "function"
    },
    {
      "inputs": [
        {
          "internalType": "uint256",
          "name": "nftId",
          "type": "uint256"
        },
        {
          "internalType": "uint64",
          "name": "chainSelector",
          "type": "uint64"
        }
      ],
      "name": "calculateBridgeFee",
      "outputs": [
        {
          "internalType": "uint256",
          "name": "",
          "type": "uint256"
        }
      ],
      "stateMutability": "view",
      "type": "function"
    },
    {
      "inputs": [
        {
          "components": [
            {
              "internalType": "bytes32",
              "name": "messageId",
              "type": "bytes32"
            },
            {
              "internalType": "uint64",
              "name": "sourceChainSelector",
              "type": "uint64"
            },
            {
              "internalType": "bytes",
              "name": "sender",
              "type": "bytes"
            },
            {
              "internalType": "bytes",
              "name": "data",
              "type": "bytes"
            },
            {
              "components": [
                {
                  "internalType": "address",
                  "name": "token",
                  "type": "address"
                },
                {
                  "internalType": "uint256",
                  "name": "amount",
                  "type": "uint256"
                }
              ],
              "internalType": "struct Client.EVMTokenAmount[]",
              "name": "destTokenAmounts",
              "type": "tuple[]"
            }
          ],
          "internalType": "struct Client.Any2EVMMessage",
          "name": "message",
          "type": "tuple"
        }
      ],
      "name": "ccipReceive",
      "outputs": [],
      "stateMutability": "nonpayable",
      "type": "function"
    },
    {
      "inputs": [],
      "name": "factory",
      "outputs": [
        {
          "internalType": "address",
          "name": "",
          "type": "address"
        }
      ],
      "stateMutability": "view",
      "type": "function"
    },
    {
      "inputs": [
        {
          "internalType": "uint256",
          "name": "tokenId",
          "type": "uint256"
        }
      ],
      "name": "getApproved",
      "outputs": [
        {
          "internalType": "address",
          "name": "",
          "type": "address"
        }
      ],
      "stateMutability": "view",
      "type": "function"
    },
    {
      "inputs": [],
      "name": "getRouter",
      "outputs": [
        {
          "internalType": "address",
          "name": "",
          "type": "address"
        }
      ],
      "stateMutability": "view",
      "type": "function"
    },
    {
      "inputs": [
        {
          "internalType": "address",
          "name": "owner",
          "type": "address"
        },
        {
          "internalType": "address",
          "name": "operator",
          "type": "address"
        }
      ],
      "name": "isApprovedForAll",
      "outputs": [
        {
          "internalType": "bool",
          "name": "",
          "type": "bool"
        }
      ],
      "stateMutability": "view",
      "type": "function"
    },
    {
      "inputs": [
        {
          "internalType": "uint64",
          "name": "",
          "type": "uint64"
        }
      ],
      "name": "linkedNfts",
      "outputs": [
        {
          "internalType": "address",
          "name": "",
          "type": "address"
        }
      ],
      "stateMutability": "view",
      "type": "function"
    },
    {
      "inputs": [],
      "name": "name",
      "outputs": [
        {
          "internalType": "string",
          "name": "",
          "type": "string"
        }
      ],
      "stateMutability": "view",
      "type": "function"
    },
    {
      "inputs": [
        {
          "internalType": "uint256",
          "name": "",
          "type": "uint256"
        }
      ],
      "name": "nftSupportedChains",
      "outputs": [
        {
          "internalType": "uint64",
          "name": "",
          "type": "uint64"
        }
      ],
      "stateMutability": "view",
      "type": "function"
    },
    {
      "inputs": [],
      "name": "originalNft",
      "outputs": [
        {
          "internalType": "address",
          "name": "",
          "type": "address"
        }
      ],
      "stateMutability": "view",
      "type": "function"
    },
    {
      "inputs": [
        {
          "internalType": "uint256",
          "name": "tokenId",
          "type": "uint256"
        }
      ],
      "name": "ownerOf",
      "outputs": [
        {
          "internalType": "address",
          "name": "",
          "type": "address"
        }
      ],
      "stateMutability": "view",
      "type": "function"
    },
    {
      "inputs": [],
      "name": "router",
      "outputs": [
        {
          "internalType": "address",
          "name": "",
          "type": "address"
        }
      ],
      "stateMutability": "view",
      "type": "function"
    },
    {
      "inputs": [
        {
          "internalType": "address",
          "name": "from",
          "type": "address"
        },
        {
          "internalType": "address",
          "name": "to",
          "type": "address"
        },
        {
          "internalType": "uint256",
          "name": "tokenId",
          "type": "uint256"
        }
      ],
      "name": "safeTransferFrom",
      "outputs": [],
      "stateMutability": "nonpayable",
      "type": "function"
    },
    {
      "inputs": [
        {
          "internalType": "address",
          "name": "from",
          "type": "address"
        },
        {
          "internalType": "address",
          "name": "to",
          "type": "address"
        },
        {
          "internalType": "uint256",
          "name": "tokenId",
          "type": "uint256"
        },
        {
          "internalType": "bytes",
          "name": "data",
          "type": "bytes"
        }
      ],
      "name": "safeTransferFrom",
      "outputs": [],
      "stateMutability": "nonpayable",
      "type": "function"
    },
    {
      "inputs": [
        {
          "internalType": "address",
          "name": "operator",
          "type": "address"
        },
        {
          "internalType": "bool",
          "name": "approved",
          "type": "bool"
        }
      ],
      "name": "setApprovalForAll",
      "outputs": [],
      "stateMutability": "nonpayable",
      "type": "function"
    },
    {
      "inputs": [
        {
          "internalType": "uint64[]",
          "name": "linkedSelectors",
          "type": "uint64[]"
        },
        {
          "internalType": "address[]",
          "name": "linkedNftAddrs",
          "type": "address[]"
        }
      ],
      "name": "setup",
      "outputs": [],
      "stateMutability": "nonpayable",
      "type": "function"
    },
    {
      "inputs": [
        {
          "internalType": "uint64",
          "name": "linkedSelector",
          "type": "uint64"
        },
        {
          "internalType": "address",
          "name": "linkedNftAddr",
          "type": "address"
        }
      ],
      "name": "setupOne",
      "outputs": [],
      "stateMutability": "nonpayable",
      "type": "function"
    },
    {
      "inputs": [
        {
          "internalType": "bytes4",
          "name": "interfaceId",
          "type": "bytes4"
        }
      ],
      "name": "supportsInterface",
      "outputs": [
        {
          "internalType": "bool",
          "name": "",
          "type": "bool"
        }
      ],
      "stateMutability": "view",
      "type": "function"
    },
    {
      "inputs": [],
      "name": "symbol",
      "outputs": [
        {
          "internalType": "string",
          "name": "",
          "type": "string"
        }
      ],
      "stateMutability": "view",
      "type": "function"
    },
    {
      "inputs": [
        {
          "internalType": "uint256",
          "name": "tokenId",
          "type": "uint256"
        }
      ],
      "name": "tokenURI",
      "outputs": [
        {
          "internalType": "string",
          "name": "",
          "type": "string"
        }
      ],
      "stateMutability": "view",
      "type": "function"
    },
    {
      "inputs": [
        {
          "internalType": "address",
          "name": "from",
          "type": "address"
        },
        {
          "internalType": "address",
          "name": "to",
          "type": "address"
        },
        {
          "internalType": "uint256",
          "name": "tokenId",
          "type": "uint256"
        }
      ],
      "name": "transferFrom",
      "outputs": [],
      "stateMutability": "nonpayable",
      "type": "function"
    }
  ],
  "bytecode": "0x60a06040523480156200001157600080fd5b5060405162002788380380620027888339810160408190526200003491620001b0565b8084846000620000458382620002ce565b506001620000548282620002ce565b5050506001600160a01b03811662000086576040516335fdcccd60e21b81526000600482015260240160405180910390fd5b6001600160a01b0390811660805260088054336001600160a01b03199182161790915560078054821694831694909417909355600980549093169116179055506200039a9050565b634e487b7160e01b600052604160045260246000fd5b600082601f830112620000f657600080fd5b81516001600160401b0380821115620001135762000113620000ce565b604051601f8301601f19908116603f011681019082821181831017156200013e576200013e620000ce565b816040528381526020925086838588010111156200015b57600080fd5b600091505b838210156200017f578582018301518183018401529082019062000160565b600093810190920192909252949350505050565b80516001600160a01b0381168114620001ab57600080fd5b919050565b60008060008060808587031215620001c757600080fd5b84516001600160401b0380821115620001df57600080fd5b620001ed88838901620000e4565b955060208701519150808211156200020457600080fd5b506200021387828801620000e4565b935050620002246040860162000193565b9150620002346060860162000193565b905092959194509250565b600181811c908216806200025457607f821691505b6020821081036200027557634e487b7160e01b600052602260045260246000fd5b50919050565b601f821115620002c957600081815260208120601f850160051c81016020861015620002a45750805b601f850160051c820191505b81811015620002c557828155600101620002b0565b5050505b505050565b81516001600160401b03811115620002ea57620002ea620000ce565b6200030281620002fb84546200023f565b846200027b565b602080601f8311600181146200033a5760008415620003215750858301515b600019600386901b1c1916600185901b178555620002c5565b600085815260208120601f198616915b828110156200036b578886015182559484019460019091019084016200034a565b50858210156200038a5787850151600019600388901b60f8161c191681555b5050505050600190811b01905550565b6080516123cb620003bd6000396000818161040e0152610e3a01526123cb6000f3fe6080604052600436106101655760003560e01c806377061bb7116100d1578063b0f479a11161008a578063c87b56dd11610064578063c87b56dd14610472578063e985e9c514610492578063f887ea40146104b2578063fedd6c8e146104d257600080fd5b8063b0f479a1146103ff578063b88d4fde14610432578063c45a01551461045257600080fd5b806377061bb71461033257806377887b6f1461036a57806380db5ea51461038a57806385572ffb146103aa57806395d89b41146103ca578063a22cb465146103df57600080fd5b80631a564085116101235780631a5640851461027157806323b872dd1461029f57806340bacbe0146102bf57806342842e0e146102d25780636352211e146102f257806370a082311461031257600080fd5b8062e07b111461016a57806301ffc9a7146101a757806306fdde03146101d7578063081812fc146101f9578063095ea7b3146102195780630a058be51461023b575b600080fd5b34801561017657600080fd5b5060075461018a906001600160a01b031681565b6040516001600160a01b0390911681526020015b60405180910390f35b3480156101b357600080fd5b506101c76101c23660046119e1565b6104f2565b604051901515815260200161019e565b3480156101e357600080fd5b506101ec610519565b60405161019e9190611a4e565b34801561020557600080fd5b5061018a610214366004611a61565b6105ab565b34801561022557600080fd5b50610239610234366004611a8f565b6105d4565b005b34801561024757600080fd5b5061018a610256366004611ad7565b600b602052600090815260409020546001600160a01b031681565b34801561027d57600080fd5b5061029161028c366004611af2565b6105e3565b60405190815260200161019e565b3480156102ab57600080fd5b506102396102ba366004611b1e565b6107ee565b6102396102cd366004611af2565b61087e565b3480156102de57600080fd5b506102396102ed366004611b1e565b610ba0565b3480156102fe57600080fd5b5061018a61030d366004611a61565b610bc0565b34801561031e57600080fd5b5061029161032d366004611b5f565b610bcb565b34801561033e57600080fd5b5061035261034d366004611a61565b610c13565b6040516001600160401b03909116815260200161019e565b34801561037657600080fd5b50610239610385366004611bc7565b610c50565b34801561039657600080fd5b506102396103a5366004611c32565b610d65565b3480156103b657600080fd5b506102396103c5366004611c69565b610e2f565b3480156103d657600080fd5b506101ec610e8e565b3480156103eb57600080fd5b506102396103fa366004611ca3565b610e9d565b34801561040b57600080fd5b507f000000000000000000000000000000000000000000000000000000000000000061018a565b34801561043e57600080fd5b5061023961044d366004611ddd565b610ea8565b34801561045e57600080fd5b5060085461018a906001600160a01b031681565b34801561047e57600080fd5b506101ec61048d366004611a61565b610ebf565b34801561049e57600080fd5b506101c76104ad366004611e48565b610fd0565b3480156104be57600080fd5b5060095461018a906001600160a01b031681565b3480156104de57600080fd5b506102396104ed366004611e66565b610ffe565b60006104fd82611068565b1561050a57506001919050565b6105138261108d565b92915050565b60606000805461052890611ed2565b80601f016020809104026020016040519081016040528092919081815260200182805461055490611ed2565b80156105a15780601f10610576576101008083540402835291602001916105a1565b820191906000526020600020905b81548152906001019060200180831161058457829003601f168201915b5050505050905090565b60006105b6826110c3565b506000828152600460205260409020546001600160a01b0316610513565b6105df8282336110fc565b5050565b6001600160401b0381166000818152600b6020526040812054600a805492936001600160a01b03909216926060929190859061062157610621611f0c565b6000918252602090912060048204015460039091166008026101000a90046001600160401b031603610691576040516024810186905233604482015260640160408051601f198184030181529190526020810180516001600160e01b03166312729a5d60e31b17905290506106db565b843361069c87610ebf565b6040516024016106ae93929190611f22565b60408051601f198184030181529190526020810180516001600160e01b0316637f6eb64760e11b17905290505b6040805160a0810182526001600160a01b03841660c0808301919091528251808303909101815260e08201835281526020808201849052825160008082529181018452909282019083610750565b60408051808201909152600080825260208201528152602001906001900390816107295790505b508152600060208083018290526040805191820181528282529283015260095491516320487ded60e01b8152929350916001600160a01b03909116906320487ded906107a29089908690600401611f55565b602060405180830381865afa1580156107bf573d6000803e3d6000fd5b505050506040513d601f19601f820116820180604052508101906107e3919061202e565b979650505050505050565b6001600160a01b03821661081d57604051633250574960e11b8152600060048201526024015b60405180910390fd5b600061082a838333611109565b9050836001600160a01b0316816001600160a01b031614610878576040516364283d7b60e01b81526001600160a01b0380861660048301526024820184905282166044820152606401610814565b50505050565b6001600160401b0381166000818152600b6020526040812054600a8054869486946001600160a01b039094169360609391926108bc576108bc611f0c565b6000918252602090912060048204015460039091166008026101000a90046001600160401b03160361092c576040516024810187905233604482015260640160408051601f198184030181529190526020810180516001600160e01b03166312729a5d60e31b1790529050610976565b853361093788610ebf565b60405160240161094993929190611f22565b60408051601f198184030181529190526020810180516001600160e01b0316637f6eb64760e11b17905290505b6040805160a0810182526001600160a01b03841660c0808301919091528251808303909101815260e082018352815260208082018490528251600080825291810184529092820190836109eb565b60408051808201909152600080825260208201528152602001906001900390816109c45790505b508152600060208083018290526040805191820181528282529283015260095491516320487ded60e01b8152929350916001600160a01b03909116906320487ded90610a3d908a908690600401611f55565b602060405180830381865afa158015610a5a573d6000803e3d6000fd5b505050506040513d601f19601f82011682018060405250810190610a7e919061202e565b905080341015610ac35760405162461bcd60e51b815260206004820152601060248201526f696e73756666696369656e742067617360801b6044820152606401610814565b6009546040516396f4e9f960e01b81526000916001600160a01b0316906396f4e9f9908490610af8908c908890600401611f55565b60206040518083038185885af1158015610b16573d6000803e3d6000fd5b50505050506040513d601f19601f82011682018060405250810190610b3b919061202e565b9050610b4689611202565b604080516001600160401b038a168152602081018b905233818301526060810183905290517f6ac78ae120135a77983cbdc4032f86767187d4a35a1cd7285782cde95b18ebe89181900360800190a1505050505050505050565b610bbb83838360405180602001604052806000815250610ea8565b505050565b6000610513826110c3565b60006001600160a01b038216610bf7576040516322718ad960e21b815260006004820152602401610814565b506001600160a01b031660009081526003602052604090205490565b600a8181548110610c2357600080fd5b9060005260206000209060049182820401919006600802915054906101000a90046001600160401b031681565b60005b83811015610d5e57600a858583818110610c6f57610c6f611f0c565b9050602002016020810190610c849190611ad7565b8154600181018355600092835260209092206004830401805460039093166008026101000a6001600160401b03818102199094169290931692909202179055828282818110610cd557610cd5611f0c565b9050602002016020810190610cea9190611b5f565b600b6000878785818110610d0057610d00611f0c565b9050602002016020810190610d159190611ad7565b6001600160401b03168152602081019190915260400160002080546001600160a01b0319166001600160a01b039290921691909117905580610d5681612047565b915050610c53565b5050505050565b600954600160a01b90046001600160401b0316600003610da5576009805467ffffffffffffffff60a01b1916600160a01b6001600160401b038516021790555b600a8054600181019091557fc65a7bb8d6351c1cf70c95a316cc6a92839c986682d98bc35f958f4883f9d2a86004820401805460039092166008026101000a6001600160401b038181021990931694909216918202939093179092556000918252600b602052604090912080546001600160a01b0319166001600160a01b03909216919091179055565b336001600160a01b037f00000000000000000000000000000000000000000000000000000000000000001614610e7a576040516335fdcccd60e21b8152336004820152602401610814565b610e8b610e868261211a565b61123d565b50565b60606001805461052890611ed2565b6105df338383611359565b610eb38484846107ee565b610878848484846113f8565b6060610eca826110c3565b5060008281526006602052604081208054610ee490611ed2565b80601f0160208091040260200160405190810160405280929190818152602001828054610f1090611ed2565b8015610f5d5780601f10610f3257610100808354040283529160200191610f5d565b820191906000526020600020905b815481529060010190602001808311610f4057829003601f168201915b505050505090506000610f7b60408051602081019091526000815290565b90508051600003610f8d575092915050565b815115610fbf578082604051602001610fa79291906121c6565b60405160208183030381529060405292505050919050565b610fc88461151a565b949350505050565b6001600160a01b03918216600090815260056020908152604080832093909416825291909152205460ff1690565b6000838152600260205260409020546001600160a01b0316156110545760405162461bcd60e51b815260206004820152600e60248201526d185b1c9958591e481b5a5b9d195960921b6044820152606401610814565b61105e828461158f565b610bbb83826115f4565b60006001600160e01b03198216632483248360e11b1480610513575061051382611644565b60006001600160e01b031982166385572ffb60e01b148061051357506001600160e01b031982166301ffc9a760e01b1492915050565b6000818152600260205260408120546001600160a01b03168061051357604051637e27328960e01b815260048101849052602401610814565b610bbb8383836001611694565b6000828152600260205260408120546001600160a01b03908116908316156111365761113681848661179a565b6001600160a01b0381161561117457611153600085600080611694565b6001600160a01b038116600090815260036020526040902080546000190190555b6001600160a01b038516156111a3576001600160a01b0385166000908152600360205260409020805460010190555b60008481526002602052604080822080546001600160a01b0319166001600160a01b0389811691821790925591518793918516917fddf252ad1be2c89b69c2b068fc378daa952ba7f163c4a11628f55a4df523b3ef91a4949350505050565b60006112116000836000611109565b90506001600160a01b0381166105df57604051637e27328960e01b815260048101839052602401610814565b806040015180602001905181019061125591906121f5565b600c80546001600160a01b0319166001600160a01b039283169081179091556020838101516001600160401b03166000908152600b9091526040902054909116146112d75760405162461bcd60e51b81526020600482015260126024820152711b9bdd081d1a19481b1a5b9ad959081b999d60721b6044820152606401610814565b6000306001600160a01b031682606001516040516112f59190612212565b6000604051808303816000865af19150503d8060008114611332576040519150601f19603f3d011682016040523d82523d6000602084013e611337565b606091505b505090508061134557600080fd5b5050600c80546001600160a01b0319169055565b6001600160a01b03821661138b57604051630b61174360e31b81526001600160a01b0383166004820152602401610814565b6001600160a01b03838116600081815260056020908152604080832094871680845294825291829020805460ff191686151590811790915591519182527f17307eab39ab6107e8899845ad3d59bd9653f200f220920489ca2b5937696c31910160405180910390a3505050565b6001600160a01b0383163b1561087857604051630a85bd0160e11b81526001600160a01b0384169063150b7a029061143a90339088908790879060040161222e565b6020604051808303816000875af1925050508015611475575060408051601f3d908101601f191682019092526114729181019061226b565b60015b6114de573d8080156114a3576040519150601f19603f3d011682016040523d82523d6000602084013e6114a8565b606091505b5080516000036114d657604051633250574960e11b81526001600160a01b0385166004820152602401610814565b805181602001fd5b6001600160e01b03198116630a85bd0160e11b14610d5e57604051633250574960e11b81526001600160a01b0385166004820152602401610814565b6060611525826110c3565b50600061153d60408051602081019091526000815290565b9050600081511161155d5760405180602001604052806000815250611588565b80611567846117fe565b6040516020016115789291906121c6565b6040516020818303038152906040525b9392505050565b6001600160a01b0382166115b957604051633250574960e11b815260006004820152602401610814565b60006115c783836000611109565b90506001600160a01b03811615610bbb576040516339e3563760e11b815260006004820152602401610814565b600082815260066020526040902061160c82826122d6565b506040518281527ff8e1a15aba9398e019f0b49df1a4fde98ee17ae345cb5f6b5e2c27f5033e8ce79060200160405180910390a15050565b60006001600160e01b031982166380ac58cd60e01b148061167557506001600160e01b03198216635b5e139f60e01b145b8061051357506301ffc9a760e01b6001600160e01b0319831614610513565b80806116a857506001600160a01b03821615155b1561176a5760006116b8846110c3565b90506001600160a01b038316158015906116e45750826001600160a01b0316816001600160a01b031614155b80156116f757506116f58184610fd0565b155b156117205760405163a9fbf51f60e01b81526001600160a01b0384166004820152602401610814565b81156117685783856001600160a01b0316826001600160a01b03167f8c5be1e5ebec7d5bd14f71427d1e84f3dd0314c0f7b2291e5b200ac8c7c3b92560405160405180910390a45b505b5050600090815260046020526040902080546001600160a01b0319166001600160a01b0392909216919091179055565b6117a5838383611890565b610bbb576001600160a01b0383166117d357604051637e27328960e01b815260048101829052602401610814565b60405163177e802f60e01b81526001600160a01b038316600482015260248101829052604401610814565b6060600061180b836118f3565b60010190506000816001600160401b0381111561182a5761182a611cd6565b6040519080825280601f01601f191660200182016040528015611854576020820181803683370190505b5090508181016020015b600019016f181899199a1a9b1b9c1cb0b131b232b360811b600a86061a8153600a850494508461185e57509392505050565b60006001600160a01b03831615801590610fc85750826001600160a01b0316846001600160a01b031614806118ca57506118ca8484610fd0565b80610fc85750506000908152600460205260409020546001600160a01b03908116911614919050565b60008072184f03e93ff9f4daa797ed6e38ed64bf6a1f0160401b83106119325772184f03e93ff9f4daa797ed6e38ed64bf6a1f0160401b830492506040015b6d04ee2d6d415b85acef8100000000831061195e576d04ee2d6d415b85acef8100000000830492506020015b662386f26fc10000831061197c57662386f26fc10000830492506010015b6305f5e1008310611994576305f5e100830492506008015b61271083106119a857612710830492506004015b606483106119ba576064830492506002015b600a83106105135760010192915050565b6001600160e01b031981168114610e8b57600080fd5b6000602082840312156119f357600080fd5b8135611588816119cb565b60005b83811015611a19578181015183820152602001611a01565b50506000910152565b60008151808452611a3a8160208601602086016119fe565b601f01601f19169290920160200192915050565b6020815260006115886020830184611a22565b600060208284031215611a7357600080fd5b5035919050565b6001600160a01b0381168114610e8b57600080fd5b60008060408385031215611aa257600080fd5b8235611aad81611a7a565b946020939093013593505050565b80356001600160401b0381168114611ad257600080fd5b919050565b600060208284031215611ae957600080fd5b61158882611abb565b60008060408385031215611b0557600080fd5b82359150611b1560208401611abb565b90509250929050565b600080600060608486031215611b3357600080fd5b8335611b3e81611a7a565b92506020840135611b4e81611a7a565b929592945050506040919091013590565b600060208284031215611b7157600080fd5b813561158881611a7a565b60008083601f840112611b8e57600080fd5b5081356001600160401b03811115611ba557600080fd5b6020830191508360208260051b8501011115611bc057600080fd5b9250929050565b60008060008060408587031215611bdd57600080fd5b84356001600160401b0380821115611bf457600080fd5b611c0088838901611b7c565b90965094506020870135915080821115611c1957600080fd5b50611c2687828801611b7c565b95989497509550505050565b60008060408385031215611c4557600080fd5b611c4e83611abb565b91506020830135611c5e81611a7a565b809150509250929050565b600060208284031215611c7b57600080fd5b81356001600160401b03811115611c9157600080fd5b820160a0818503121561158857600080fd5b60008060408385031215611cb657600080fd5b8235611cc181611a7a565b915060208301358015158114611c5e57600080fd5b634e487b7160e01b600052604160045260246000fd5b604080519081016001600160401b0381118282101715611d0e57611d0e611cd6565b60405290565b60405160a081016001600160401b0381118282101715611d0e57611d0e611cd6565b604051601f8201601f191681016001600160401b0381118282101715611d5e57611d5e611cd6565b604052919050565b60006001600160401b03831115611d7f57611d7f611cd6565b611d92601f8401601f1916602001611d36565b9050828152838383011115611da657600080fd5b828260208301376000602084830101529392505050565b600082601f830112611dce57600080fd5b61158883833560208501611d66565b60008060008060808587031215611df357600080fd5b8435611dfe81611a7a565b93506020850135611e0e81611a7a565b92506040850135915060608501356001600160401b03811115611e3057600080fd5b611e3c87828801611dbd565b91505092959194509250565b60008060408385031215611e5b57600080fd5b8235611c4e81611a7a565b600080600060608486031215611e7b57600080fd5b833592506020840135611e8d81611a7a565b915060408401356001600160401b03811115611ea857600080fd5b8401601f81018613611eb957600080fd5b611ec886823560208401611d66565b9150509250925092565b600181811c90821680611ee657607f821691505b602082108103611f0657634e487b7160e01b600052602260045260246000fd5b50919050565b634e487b7160e01b600052603260045260246000fd5b8381526001600160a01b0383166020820152606060408201819052600090611f4c90830184611a22565b95945050505050565b600060406001600160401b038516835260208181850152845160a083860152611f8160e0860182611a22565b905081860151603f1980878403016060880152611f9e8383611a22565b88860151888203830160808a01528051808352908601945060009350908501905b80841015611ff157845180516001600160a01b0316835286015186830152938501936001939093019290860190611fbf565b5060608901516001600160a01b031660a08901526080890151888203830160c08a015295506120208187611a22565b9a9950505050505050505050565b60006020828403121561204057600080fd5b5051919050565b60006001820161206757634e487b7160e01b600052601160045260246000fd5b5060010190565b600082601f83011261207f57600080fd5b813560206001600160401b0382111561209a5761209a611cd6565b6120a8818360051b01611d36565b82815260069290921b840181019181810190868411156120c757600080fd5b8286015b8481101561210f57604081890312156120e45760008081fd5b6120ec611cec565b81356120f781611a7a565b815281850135858201528352918301916040016120cb565b509695505050505050565b600060a0823603121561212c57600080fd5b612134611d14565b8235815261214460208401611abb565b602082015260408301356001600160401b038082111561216357600080fd5b61216f36838701611dbd565b6040840152606085013591508082111561218857600080fd5b61219436838701611dbd565b606084015260808501359150808211156121ad57600080fd5b506121ba3682860161206e565b60808301525092915050565b600083516121d88184602088016119fe565b8351908301906121ec8183602088016119fe565b01949350505050565b60006020828403121561220757600080fd5b815161158881611a7a565b600082516122248184602087016119fe565b9190910192915050565b6001600160a01b038581168252841660208201526040810183905260806060820181905260009061226190830184611a22565b9695505050505050565b60006020828403121561227d57600080fd5b8151611588816119cb565b601f821115610bbb57600081815260208120601f850160051c810160208610156122af5750805b601f850160051c820191505b818110156122ce578281556001016122bb565b505050505050565b81516001600160401b038111156122ef576122ef611cd6565b612303816122fd8454611ed2565b84612288565b602080601f83116001811461233857600084156123205750858301515b600019600386901b1c1916600185901b1785556122ce565b600085815260208120601f198616915b8281101561236757888601518255948401946001909101908401612348565b50858210156123855787850151600019600388901b60f8161c191681555b5050505050600190811b0190555056fea2646970667358221220e18d47badefdf555970c334571d257f43afddbcc5ae89ce369e6cd0894a91cd564736f6c63430008140033",
  "linkReferences": {},
  "deployedLinkReferences": {}
}