{
  "_format": "hh-sol-artifact-1",
  "contractName": "LinkedNft",
  "sourceName": "contracts/LinkedNft.sol",
  "abi": [
    {
      "inputs": [],
      "stateMutability": "nonpayable",
      "type": "constructor"
    },
    {
      "inputs": [
        {
          "internalType": "address",
          "name": "_to",
          "type": "address"
        },
        {
          "internalType": "uint256",
          "name": "_id",
          "type": "uint256"
        }
      ],
      "name": "linkedApprove",
      "outputs": [],
      "stateMutability": "nonpayable",
      "type": "function"
    },
    {
      "inputs": [
        {
          "internalType": "address",
          "name": "_from",
          "type": "address"
        },
        {
          "internalType": "address",
          "name": "_to",
          "type": "address"
        },
        {
          "internalType": "uint256",
          "name": "_tokenId",
          "type": "uint256"
        },
        {
          "internalType": "bytes",
          "name": "_data",
          "type": "bytes"
        }
      ],
      "name": "linkedSafeTransferFrom",
      "outputs": [],
      "stateMutability": "nonpayable",
      "type": "function"
    },
    {
      "inputs": [
        {
          "internalType": "address",
          "name": "_from",
          "type": "address"
        },
        {
          "internalType": "address",
          "name": "_to",
          "type": "address"
        },
        {
          "internalType": "uint256",
          "name": "_tokenId",
          "type": "uint256"
        }
      ],
      "name": "linkedSafeTransferFrom",
      "outputs": [],
      "stateMutability": "nonpayable",
      "type": "function"
    },
    {
      "inputs": [
        {
          "internalType": "address",
          "name": "_operator",
          "type": "address"
        },
        {
          "internalType": "bool",
          "name": "_approved",
          "type": "bool"
        }
      ],
      "name": "linkedSetApprovalForAll",
      "outputs": [],
      "stateMutability": "nonpayable",
      "type": "function"
    },
    {
      "inputs": [
        {
          "internalType": "address",
          "name": "_from",
          "type": "address"
        },
        {
          "internalType": "address",
          "name": "_to",
          "type": "address"
        },
        {
          "internalType": "uint256",
          "name": "_tokenId",
          "type": "uint256"
        }
      ],
      "name": "linkedTransferFrom",
      "outputs": [],
      "stateMutability": "nonpayable",
      "type": "function"
    },
    {
      "inputs": [
        {
          "internalType": "uint256",
          "name": "id",
          "type": "uint256"
        }
      ],
      "name": "mint",
      "outputs": [
        {
          "internalType": "uint256",
          "name": "",
          "type": "uint256"
        }
      ],
      "stateMutability": "nonpayable",
      "type": "function"
    },
    {
      "inputs": [
        {
          "internalType": "address",
          "name": "operator",
          "type": "address"
        },
        {
          "internalType": "address",
          "name": "from",
          "type": "address"
        },
        {
          "internalType": "uint256",
          "name": "tokenId",
          "type": "uint256"
        },
        {
          "internalType": "bytes",
          "name": "data",
          "type": "bytes"
        }
      ],
      "name": "onERC721Received",
      "outputs": [
        {
          "internalType": "bytes4",
          "name": "",
          "type": "bytes4"
        }
      ],
      "stateMutability": "nonpayable",
      "type": "function"
    },
    {
      "inputs": [
        {
          "internalType": "uint256",
          "name": "id",
          "type": "uint256"
        }
      ],
      "name": "withdraw",
      "outputs": [
        {
          "internalType": "uint256",
          "name": "",
          "type": "uint256"
        }
      ],
      "stateMutability": "nonpayable",
      "type": "function"
    }
  ],
  "bytecode": "0x608060405234801561001057600080fd5b5061069a806100206000396000f3fe608060405234801561001057600080fd5b50600436106100885760003560e01c8063818aedc11161005b578063818aedc114610125578063a0712d6814610141578063e222351014610171578063fbc042cf1461018d57610088565b8063150b7a021461008d578063235c156e146100bd5780632e1a7d4d146100d9578063540c2fac14610109575b600080fd5b6100a760048036038101906100a2919061033d565b6101a9565b6040516100b4919061048b565b60405180910390f35b6100d760048036038101906100d291906103c0565b610216565b005b6100f360048036038101906100ee9190610440565b61021a565b60405161010091906104a6565b60405180910390f35b610123600480360381019061011e9190610400565b610221565b005b61013f600480360381019061013a919061033d565b610225565b005b61015b60048036038101906101569190610440565b61022a565b60405161016891906104a6565b60405180910390f35b61018b600480360381019061018691906102ea565b610231565b005b6101a760048036038101906101a291906102ea565b610236565b005b60008473ffffffffffffffffffffffffffffffffffffffff163073ffffffffffffffffffffffffffffffffffffffff16146101ea57600060e01b905061020e565b7f150b7a023d4804d13e8c85fb27262cb750cf6ba9f9dd3bb30d90f482ceeb4b1f90505b949350505050565b5050565b6000919050565b5050565b600080fd5b6000919050565b600080fd5b600080fd5b600061024e610249846104e6565b6104c1565b90508281526020810184848401111561026a576102696105ff565b5b61027584828561058b565b509392505050565b60008135905061028c8161061f565b92915050565b6000813590506102a181610636565b92915050565b600082601f8301126102bc576102bb6105fa565b5b81356102cc84826020860161023b565b91505092915050565b6000813590506102e48161064d565b92915050565b60008060006060848603121561030357610302610609565b5b60006103118682870161027d565b93505060206103228682870161027d565b9250506040610333868287016102d5565b9150509250925092565b6000806000806080858703121561035757610356610609565b5b60006103658782880161027d565b94505060206103768782880161027d565b9350506040610387878288016102d5565b925050606085013567ffffffffffffffff8111156103a8576103a7610604565b5b6103b4878288016102a7565b91505092959194509250565b600080604083850312156103d7576103d6610609565b5b60006103e58582860161027d565b92505060206103f685828601610292565b9150509250929050565b6000806040838503121561041757610416610609565b5b60006104258582860161027d565b9250506020610436858286016102d5565b9150509250929050565b60006020828403121561045657610455610609565b5b6000610464848285016102d5565b91505092915050565b61047681610535565b82525050565b61048581610581565b82525050565b60006020820190506104a0600083018461046d565b92915050565b60006020820190506104bb600083018461047c565b92915050565b60006104cb6104dc565b90506104d7828261059a565b919050565b6000604051905090565b600067ffffffffffffffff821115610501576105006105cb565b5b61050a8261060e565b9050602081019050919050565b600061052282610561565b9050919050565b60008115159050919050565b60007fffffffff0000000000000000000000000000000000000000000000000000000082169050919050565b600073ffffffffffffffffffffffffffffffffffffffff82169050919050565b6000819050919050565b82818337600083830152505050565b6105a38261060e565b810181811067ffffffffffffffff821117156105c2576105c16105cb565b5b80604052505050565b7f4e487b7100000000000000000000000000000000000000000000000000000000600052604160045260246000fd5b600080fd5b600080fd5b600080fd5b600080fd5b6000601f19601f8301169050919050565b61062881610517565b811461063357600080fd5b50565b61063f81610529565b811461064a57600080fd5b50565b61065681610581565b811461066157600080fd5b5056fea26469706673582212206e660c6545f925c357d509d2138ad63107b254949fab8b8c5fe48fe9683bc2ce64736f6c63430008060033",
  "linkReferences": {},
  "deployedLinkReferences": {}
}