{
  "_format": "hh-sol-artifact-1",
  "contractName": "ChainlinkClientTestHelper",
  "sourceName": "contracts/chainlink/v0.8/tests/ChainlinkClientTestHelper.sol",
  "abi": [
    {
      "inputs": [
        {
          "internalType": "address",
          "name": "_link",
          "type": "address"
        },
        {
          "internalType": "address",
          "name": "_oracle",
          "type": "address"
        }
      ],
      "stateMutability": "nonpayable",
      "type": "constructor"
    },
    {
      "anonymous": false,
      "inputs": [
        {
          "indexed": true,
          "internalType": "bytes32",
          "name": "id",
          "type": "bytes32"
        }
      ],
      "name": "ChainlinkCancelled",
      "type": "event"
    },
    {
      "anonymous": false,
      "inputs": [
        {
          "indexed": true,
          "internalType": "bytes32",
          "name": "id",
          "type": "bytes32"
        }
      ],
      "name": "ChainlinkFulfilled",
      "type": "event"
    },
    {
      "anonymous": false,
      "inputs": [
        {
          "indexed": true,
          "internalType": "bytes32",
          "name": "id",
          "type": "bytes32"
        }
      ],
      "name": "ChainlinkRequested",
      "type": "event"
    },
    {
      "anonymous": false,
      "inputs": [
        {
          "indexed": false,
          "internalType": "uint256",
          "name": "amount",
          "type": "uint256"
        }
      ],
      "name": "LinkAmount",
      "type": "event"
    },
    {
      "anonymous": false,
      "inputs": [
        {
          "indexed": false,
          "internalType": "bytes32",
          "name": "id",
          "type": "bytes32"
        },
        {
          "indexed": false,
          "internalType": "address",
          "name": "callbackAddress",
          "type": "address"
        },
        {
          "indexed": false,
          "internalType": "bytes4",
          "name": "callbackfunctionSelector",
          "type": "bytes4"
        },
        {
          "indexed": false,
          "internalType": "bytes",
          "name": "data",
          "type": "bytes"
        }
      ],
      "name": "Request",
      "type": "event"
    },
    {
      "inputs": [
        {
          "internalType": "bytes32",
          "name": "_requestId",
          "type": "bytes32"
        },
        {
          "internalType": "bytes32",
          "name": "",
          "type": "bytes32"
        }
      ],
      "name": "fulfillRequest",
      "outputs": [],
      "stateMutability": "nonpayable",
      "type": "function"
    },
    {
      "inputs": [
        {
          "internalType": "address",
          "name": "_oracle",
          "type": "address"
        },
        {
          "internalType": "bytes32",
          "name": "_requestId",
          "type": "bytes32"
        }
      ],
      "name": "publicAddExternalRequest",
      "outputs": [],
      "stateMutability": "nonpayable",
      "type": "function"
    },
    {
      "inputs": [
        {
          "internalType": "bytes32",
          "name": "_requestId",
          "type": "bytes32"
        },
        {
          "internalType": "uint256",
          "name": "_payment",
          "type": "uint256"
        },
        {
          "internalType": "bytes4",
          "name": "_callbackFunctionId",
          "type": "bytes4"
        },
        {
          "internalType": "uint256",
          "name": "_expiration",
          "type": "uint256"
        }
      ],
      "name": "publicCancelRequest",
      "outputs": [],
      "stateMutability": "nonpayable",
      "type": "function"
    },
    {
      "inputs": [],
      "name": "publicChainlinkToken",
      "outputs": [
        {
          "internalType": "address",
          "name": "",
          "type": "address"
        }
      ],
      "stateMutability": "view",
      "type": "function"
    },
    {
      "inputs": [
        {
          "internalType": "bytes32",
          "name": "_requestId",
          "type": "bytes32"
        },
        {
          "internalType": "bytes32",
          "name": "",
          "type": "bytes32"
        }
      ],
      "name": "publicFulfillChainlinkRequest",
      "outputs": [],
      "stateMutability": "nonpayable",
      "type": "function"
    },
    {
      "inputs": [
        {
          "internalType": "uint256",
          "name": "_amount",
          "type": "uint256"
        }
      ],
      "name": "publicLINK",
      "outputs": [],
      "stateMutability": "nonpayable",
      "type": "function"
    },
    {
      "inputs": [
        {
          "internalType": "bytes32",
          "name": "_id",
          "type": "bytes32"
        },
        {
          "internalType": "address",
          "name": "_address",
          "type": "address"
        },
        {
          "internalType": "bytes",
          "name": "_fulfillmentSignature",
          "type": "bytes"
        }
      ],
      "name": "publicNewRequest",
      "outputs": [],
      "stateMutability": "nonpayable",
      "type": "function"
    },
    {
      "inputs": [],
      "name": "publicOracleAddress",
      "outputs": [
        {
          "internalType": "address",
          "name": "",
          "type": "address"
        }
      ],
      "stateMutability": "view",
      "type": "function"
    },
    {
      "inputs": [
        {
          "internalType": "bytes32",
          "name": "_id",
          "type": "bytes32"
        },
        {
          "internalType": "address",
          "name": "_address",
          "type": "address"
        },
        {
          "internalType": "bytes",
          "name": "_fulfillmentSignature",
          "type": "bytes"
        },
        {
          "internalType": "uint256",
          "name": "_wei",
          "type": "uint256"
        }
      ],
      "name": "publicRequest",
      "outputs": [],
      "stateMutability": "nonpayable",
      "type": "function"
    },
    {
      "inputs": [
        {
          "internalType": "bytes32",
          "name": "_id",
          "type": "bytes32"
        },
        {
          "internalType": "address",
          "name": "_address",
          "type": "address"
        },
        {
          "internalType": "bytes",
          "name": "_fulfillmentSignature",
          "type": "bytes"
        },
        {
          "internalType": "uint256",
          "name": "_wei",
          "type": "uint256"
        }
      ],
      "name": "publicRequestOracleData",
      "outputs": [],
      "stateMutability": "nonpayable",
      "type": "function"
    },
    {
      "inputs": [
        {
          "internalType": "address",
          "name": "_oracle",
          "type": "address"
        },
        {
          "internalType": "bytes32",
          "name": "_id",
          "type": "bytes32"
        },
        {
          "internalType": "address",
          "name": "_address",
          "type": "address"
        },
        {
          "internalType": "bytes",
          "name": "_fulfillmentSignature",
          "type": "bytes"
        },
        {
          "internalType": "uint256",
          "name": "_wei",
          "type": "uint256"
        }
      ],
      "name": "publicRequestOracleDataFrom",
      "outputs": [],
      "stateMutability": "nonpayable",
      "type": "function"
    },
    {
      "inputs": [
        {
          "internalType": "address",
          "name": "_oracle",
          "type": "address"
        },
        {
          "internalType": "bytes32",
          "name": "_id",
          "type": "bytes32"
        },
        {
          "internalType": "address",
          "name": "_address",
          "type": "address"
        },
        {
          "internalType": "bytes",
          "name": "_fulfillmentSignature",
          "type": "bytes"
        },
        {
          "internalType": "uint256",
          "name": "_wei",
          "type": "uint256"
        }
      ],
      "name": "publicRequestRunTo",
      "outputs": [],
      "stateMutability": "nonpayable",
      "type": "function"
    }
  ],
  "bytecode": "0x608060405260016004553480156200001657600080fd5b50604051620019973803806200199783398181016040528101906200003c919062000105565b6200004d826200006660201b60201c565b6200005e81620000aa60201b60201c565b50506200019f565b80600260006101000a81548173ffffffffffffffffffffffffffffffffffffffff021916908373ffffffffffffffffffffffffffffffffffffffff16021790555050565b80600360006101000a81548173ffffffffffffffffffffffffffffffffffffffff021916908373ffffffffffffffffffffffffffffffffffffffff16021790555050565b600081519050620000ff8162000185565b92915050565b600080604083850312156200011f576200011e62000180565b5b60006200012f85828601620000ee565b92505060206200014285828601620000ee565b9150509250929050565b6000620001598262000160565b9050919050565b600073ffffffffffffffffffffffffffffffffffffffff82169050919050565b600080fd5b62000190816200014c565b81146200019c57600080fd5b50565b6117e880620001af6000396000f3fe608060405234801561001057600080fd5b50600436106100b45760003560e01c8063898d49aa11610071578063898d49aa1461016157806398bb2b2d1461017d578063a1179a271461019b578063ad7e401c146101b7578063d9a26716146101d3578063f7ea03ff146101ef576100b4565b80633f14df82146100b9578063448d6c10146100d55780635491ec6a146100f15780635d64e3101461010d57806366a4f350146101295780636aab346d14610145575b600080fd5b6100d360048036038101906100ce9190610f8f565b61020d565b005b6100ef60048036038101906100ea9190610f28565b61025a565b005b61010b60048036038101906101069190610cf2565b61026c565b005b61012760048036038101906101229190610ee8565b61027a565b005b610143600480360381019061013e9190610e65565b610287565b005b61015f600480360381019061015a9190610d32565b6102af565b005b61017b60048036038101906101769190610e65565b6102d9565b005b610185610301565b60405161019291906110f4565b60405180910390f35b6101b560048036038101906101b09190610d32565b610310565b005b6101d160048036038101906101cc9190610ee8565b61033a565b005b6101ed60048036038101906101e89190610df6565b61034b565b005b6101f76103b8565b60405161020491906110f4565b60405180910390f35b7f81c82a6ea1ed1cf28a5376c6d13caab9047c853ec5107907ec9431c50ec1a85c81670de0b6b3a764000061024291906113b7565b60405161024f91906112c3565b60405180910390a150565b610266848484846103c7565b50505050565b61027682826104da565b5050565b610283826105d4565b5050565b600061029b858585805190602001206106dd565b90506102a7818361070e565b505050505050565b60006102c3858585805190602001206106dd565b90506102d0868284610745565b50505050505050565b60006102ed858585805190602001206106dd565b90506102f98183610765565b505050505050565b600061030b61079c565b905090565b6000610324858585805190602001206106dd565b90506103318682846107c6565b50505050505050565b610347826000801b61027a565b5050565b600061035f848484805190602001206106dd565b90507f6ae3654efc50e419eaebe21a0569020545587e83c4409cfb1d3a4217cbed8a218160000151826020015183604001518460800151600001516040516103aa94939291906111d2565b60405180910390a150505050565b60006103c26107e6565b905090565b60006005600086815260200190815260200160002060009054906101000a900473ffffffffffffffffffffffffffffffffffffffff1690506005600086815260200190815260200160002060006101000a81549073ffffffffffffffffffffffffffffffffffffffff0219169055847fe1fe3afa0f7f761ff0a8b89086790efd5140d2907ebd5b7ff6bfcb5e075fd4c560405160405180910390a28073ffffffffffffffffffffffffffffffffffffffff16636ee4d553868686866040518563ffffffff1660e01b81526004016104a1949392919061121e565b600060405180830381600087803b1580156104bb57600080fd5b505af11580156104cf573d6000803e3d6000fd5b505050505050505050565b80600073ffffffffffffffffffffffffffffffffffffffff166005600083815260200190815260200160002060009054906101000a900473ffffffffffffffffffffffffffffffffffffffff1673ffffffffffffffffffffffffffffffffffffffff161461057d576040517f08c379a0000000000000000000000000000000000000000000000000000000008152600401610574906112a3565b60405180910390fd5b826005600084815260200190815260200160002060006101000a81548173ffffffffffffffffffffffffffffffffffffffff021916908373ffffffffffffffffffffffffffffffffffffffff160217905550505050565b806005600082815260200190815260200160002060009054906101000a900473ffffffffffffffffffffffffffffffffffffffff1673ffffffffffffffffffffffffffffffffffffffff163373ffffffffffffffffffffffffffffffffffffffff1614610676576040517f08c379a000000000000000000000000000000000000000000000000000000000815260040161066d90611283565b60405180910390fd5b6005600082815260200190815260200160002060006101000a81549073ffffffffffffffffffffffffffffffffffffffff0219169055807f7cc135e0cebb02c3480ae5d74d377283180a2601f8f644edf7987b009316c63a60405160405180910390a25050565b6106e5610b92565b6106ed610b92565b61070485858584610810909392919063ffffffff16565b9150509392505050565b600061073d600360009054906101000a900473ffffffffffffffffffffffffffffffffffffffff1684846107c6565b905092915050565b600061075c8484846002636de879d660e01b6108c0565b90509392505050565b6000610794600360009054906101000a900473ffffffffffffffffffffffffffffffffffffffff168484610745565b905092915050565b6000600260009054906101000a900473ffffffffffffffffffffffffffffffffffffffff16905090565b60006107dd8484846001634042994660e01b6108c0565b90509392505050565b6000600360009054906101000a900473ffffffffffffffffffffffffffffffffffffffff16905090565b610818610b92565b6108288560800151610100610b28565b508385600001818152505082856020019073ffffffffffffffffffffffffffffffffffffffff16908173ffffffffffffffffffffffffffffffffffffffff16815250508185604001907bffffffffffffffffffffffffffffffffffffffffffffffffffffffff191690817bffffffffffffffffffffffffffffffffffffffffffffffffffffffff191681525050849050949350505050565b6000306004546040516020016108d79291906110c8565b604051602081830303815290604052805190602001209050600454856060018181525050856005600083815260200190815260200160002060006101000a81548173ffffffffffffffffffffffffffffffffffffffff021916908373ffffffffffffffffffffffffffffffffffffffff160217905550807fb5e6e01e79f91267dc17b4e6314d5d4d03593d2ceee0fbb452b750bd70ea5af960405160405180910390a2600082600080886000015189602001518a604001518b606001518a8d60800151600001516040516024016109b598979695949392919061110f565b604051602081830303815290604052907bffffffffffffffffffffffffffffffffffffffffffffffffffffffff19166020820180517bffffffffffffffffffffffffffffffffffffffffffffffffffffffff83818316178352505050509050600260009054906101000a900473ffffffffffffffffffffffffffffffffffffffff1673ffffffffffffffffffffffffffffffffffffffff16634000aea08887846040518463ffffffff1660e01b8152600401610a7393929190611194565b602060405180830381600087803b158015610a8d57600080fd5b505af1158015610aa1573d6000803e3d6000fd5b505050506040513d601f19601f82011682018060405250810190610ac59190610dc9565b610b04576040517f08c379a0000000000000000000000000000000000000000000000000000000008152600401610afb90611263565b60405180910390fd5b600160046000828254610b179190611361565b925050819055505095945050505050565b610b30610bff565b6000602083610b3f9190611588565b14610b6b57602082610b519190611588565b6020610b5d9190611411565b82610b689190611361565b91505b81836020018181525050604051808452600081528281016020016040525082905092915050565b6040518060a0016040528060008019168152602001600073ffffffffffffffffffffffffffffffffffffffff16815260200160007bffffffffffffffffffffffffffffffffffffffffffffffffffffffff1916815260200160008152602001610bf9610bff565b81525090565b604051806040016040528060608152602001600081525090565b6000610c2c610c2784611303565b6112de565b905082815260208101848484011115610c4857610c4761164b565b5b610c538482856114e7565b509392505050565b600081359050610c6a8161173f565b92915050565b600081519050610c7f81611756565b92915050565b600081359050610c948161176d565b92915050565b600081359050610ca981611784565b92915050565b600082601f830112610cc457610cc3611646565b5b8135610cd4848260208601610c19565b91505092915050565b600081359050610cec8161179b565b92915050565b60008060408385031215610d0957610d08611655565b5b6000610d1785828601610c5b565b9250506020610d2885828601610c85565b9150509250929050565b600080600080600060a08688031215610d4e57610d4d611655565b5b6000610d5c88828901610c5b565b9550506020610d6d88828901610c85565b9450506040610d7e88828901610c5b565b935050606086013567ffffffffffffffff811115610d9f57610d9e611650565b5b610dab88828901610caf565b9250506080610dbc88828901610cdd565b9150509295509295909350565b600060208284031215610ddf57610dde611655565b5b6000610ded84828501610c70565b91505092915050565b600080600060608486031215610e0f57610e0e611655565b5b6000610e1d86828701610c85565b9350506020610e2e86828701610c5b565b925050604084013567ffffffffffffffff811115610e4f57610e4e611650565b5b610e5b86828701610caf565b9150509250925092565b60008060008060808587031215610e7f57610e7e611655565b5b6000610e8d87828801610c85565b9450506020610e9e87828801610c5b565b935050604085013567ffffffffffffffff811115610ebf57610ebe611650565b5b610ecb87828801610caf565b9250506060610edc87828801610cdd565b91505092959194509250565b60008060408385031215610eff57610efe611655565b5b6000610f0d85828601610c85565b9250506020610f1e85828601610c85565b9150509250929050565b60008060008060808587031215610f4257610f41611655565b5b6000610f5087828801610c85565b9450506020610f6187828801610cdd565b9350506040610f7287828801610c9a565b9250506060610f8387828801610cdd565b91505092959194509250565b600060208284031215610fa557610fa4611655565b5b6000610fb384828501610cdd565b91505092915050565b610fc581611445565b82525050565b610fd481611463565b82525050565b610fe38161146d565b82525050565b6000610ff482611334565b610ffe818561133f565b935061100e8185602086016114f6565b6110178161165a565b840191505092915050565b61103361102e826114c3565b61155a565b82525050565b6000611046602383611350565b915061105182611678565b604082019050919050565b6000611069602883611350565b9150611074826116c7565b604082019050919050565b600061108c601a83611350565b915061109782611716565b602082019050919050565b6110ab816114b9565b82525050565b6110c26110bd826114b9565b61157e565b82525050565b60006110d48285611022565b6014820191506110e482846110b1565b6020820191508190509392505050565b60006020820190506111096000830184610fbc565b92915050565b600061010082019050611125600083018b610fbc565b611132602083018a6110a2565b61113f6040830189610fcb565b61114c6060830188610fbc565b6111596080830187610fda565b61116660a08301866110a2565b61117360c08301856110a2565b81810360e08301526111858184610fe9565b90509998505050505050505050565b60006060820190506111a96000830186610fbc565b6111b660208301856110a2565b81810360408301526111c88184610fe9565b9050949350505050565b60006080820190506111e76000830187610fcb565b6111f46020830186610fbc565b6112016040830185610fda565b81810360608301526112138184610fe9565b905095945050505050565b60006080820190506112336000830187610fcb565b61124060208301866110a2565b61124d6040830185610fda565b61125a60608301846110a2565b95945050505050565b6000602082019050818103600083015261127c81611039565b9050919050565b6000602082019050818103600083015261129c8161105c565b9050919050565b600060208201905081810360008301526112bc8161107f565b9050919050565b60006020820190506112d860008301846110a2565b92915050565b60006112e86112f9565b90506112f48282611529565b919050565b6000604051905090565b600067ffffffffffffffff82111561131e5761131d611617565b5b6113278261165a565b9050602081019050919050565b600081519050919050565b600082825260208201905092915050565b600082825260208201905092915050565b600061136c826114b9565b9150611377836114b9565b9250827fffffffffffffffffffffffffffffffffffffffffffffffffffffffffffffffff038211156113ac576113ab6115b9565b5b828201905092915050565b60006113c2826114b9565b91506113cd836114b9565b9250817fffffffffffffffffffffffffffffffffffffffffffffffffffffffffffffffff0483118215151615611406576114056115b9565b5b828202905092915050565b600061141c826114b9565b9150611427836114b9565b92508282101561143a576114396115b9565b5b828203905092915050565b600061145082611499565b9050919050565b60008115159050919050565b6000819050919050565b60007fffffffff0000000000000000000000000000000000000000000000000000000082169050919050565b600073ffffffffffffffffffffffffffffffffffffffff82169050919050565b6000819050919050565b60006114ce826114d5565b9050919050565b60006114e082611499565b9050919050565b82818337600083830152505050565b60005b838110156115145780820151818401526020810190506114f9565b83811115611523576000848401525b50505050565b6115328261165a565b810181811067ffffffffffffffff8211171561155157611550611617565b5b80604052505050565b60006115658261156c565b9050919050565b60006115778261166b565b9050919050565b6000819050919050565b6000611593826114b9565b915061159e836114b9565b9250826115ae576115ad6115e8565b5b828206905092915050565b7f4e487b7100000000000000000000000000000000000000000000000000000000600052601160045260246000fd5b7f4e487b7100000000000000000000000000000000000000000000000000000000600052601260045260246000fd5b7f4e487b7100000000000000000000000000000000000000000000000000000000600052604160045260246000fd5b600080fd5b600080fd5b600080fd5b600080fd5b6000601f19601f8301169050919050565b60008160601b9050919050565b7f756e61626c6520746f207472616e73666572416e6443616c6c20746f206f726160008201527f636c650000000000000000000000000000000000000000000000000000000000602082015250565b7f536f75726365206d75737420626520746865206f7261636c65206f662074686560008201527f2072657175657374000000000000000000000000000000000000000000000000602082015250565b7f5265717565737420697320616c72656164792070656e64696e67000000000000600082015250565b61174881611445565b811461175357600080fd5b50565b61175f81611457565b811461176a57600080fd5b50565b61177681611463565b811461178157600080fd5b50565b61178d8161146d565b811461179857600080fd5b50565b6117a4816114b9565b81146117af57600080fd5b5056fea26469706673582212205664a4a1882faa1445ca81f628e69721ba2d66db85c06b52b03e77af26ff9efb64736f6c63430008060033",
  "linkReferences": {},
  "deployedLinkReferences": {}
}