{
  "_format": "hh-sol-artifact-1",
  "contractName": "VRFTestHelper",
  "sourceName": "contracts/chainlink/v0.8/tests/VRFTestHelper.sol",
  "abi": [
    {
      "inputs": [
        {
          "internalType": "uint256[2]",
          "name": "p1",
          "type": "uint256[2]"
        },
        {
          "internalType": "uint256[2]",
          "name": "p2",
          "type": "uint256[2]"
        },
        {
          "internalType": "uint256",
          "name": "invZ",
          "type": "uint256"
        }
      ],
      "name": "affineECAdd_",
      "outputs": [
        {
          "internalType": "uint256[2]",
          "name": "",
          "type": "uint256[2]"
        }
      ],
      "stateMutability": "pure",
      "type": "function"
    },
    {
      "inputs": [
        {
          "internalType": "uint256",
          "name": "base",
          "type": "uint256"
        },
        {
          "internalType": "uint256",
          "name": "exponent",
          "type": "uint256"
        }
      ],
      "name": "bigModExp_",
      "outputs": [
        {
          "internalType": "uint256",
          "name": "",
          "type": "uint256"
        }
      ],
      "stateMutability": "view",
      "type": "function"
    },
    {
      "inputs": [
        {
          "internalType": "uint256[2]",
          "name": "x",
          "type": "uint256[2]"
        },
        {
          "internalType": "uint256",
          "name": "scalar",
          "type": "uint256"
        },
        {
          "internalType": "uint256[2]",
          "name": "q",
          "type": "uint256[2]"
        }
      ],
      "name": "ecmulVerify_",
      "outputs": [
        {
          "internalType": "bool",
          "name": "",
          "type": "bool"
        }
      ],
      "stateMutability": "pure",
      "type": "function"
    },
    {
      "inputs": [
        {
          "internalType": "bytes",
          "name": "b",
          "type": "bytes"
        }
      ],
      "name": "fieldHash_",
      "outputs": [
        {
          "internalType": "uint256",
          "name": "",
          "type": "uint256"
        }
      ],
      "stateMutability": "pure",
      "type": "function"
    },
    {
      "inputs": [
        {
          "internalType": "uint256[2]",
          "name": "pk",
          "type": "uint256[2]"
        },
        {
          "internalType": "uint256",
          "name": "x",
          "type": "uint256"
        }
      ],
      "name": "hashToCurve_",
      "outputs": [
        {
          "internalType": "uint256[2]",
          "name": "",
          "type": "uint256[2]"
        }
      ],
      "stateMutability": "view",
      "type": "function"
    },
    {
      "inputs": [
        {
          "internalType": "uint256[2]",
          "name": "p",
          "type": "uint256[2]"
        }
      ],
      "name": "isOnCurve_",
      "outputs": [
        {
          "internalType": "bool",
          "name": "",
          "type": "bool"
        }
      ],
      "stateMutability": "pure",
      "type": "function"
    },
    {
      "inputs": [
        {
          "internalType": "uint256",
          "name": "c",
          "type": "uint256"
        },
        {
          "internalType": "uint256[2]",
          "name": "p1",
          "type": "uint256[2]"
        },
        {
          "internalType": "uint256[2]",
          "name": "cp1Witness",
          "type": "uint256[2]"
        },
        {
          "internalType": "uint256",
          "name": "s",
          "type": "uint256"
        },
        {
          "internalType": "uint256[2]",
          "name": "p2",
          "type": "uint256[2]"
        },
        {
          "internalType": "uint256[2]",
          "name": "sp2Witness",
          "type": "uint256[2]"
        },
        {
          "internalType": "uint256",
          "name": "zInv",
          "type": "uint256"
        }
      ],
      "name": "linearCombination_",
      "outputs": [
        {
          "internalType": "uint256[2]",
          "name": "",
          "type": "uint256[2]"
        }
      ],
      "stateMutability": "pure",
      "type": "function"
    },
    {
      "inputs": [
        {
          "internalType": "uint256",
          "name": "px",
          "type": "uint256"
        },
        {
          "internalType": "uint256",
          "name": "py",
          "type": "uint256"
        },
        {
          "internalType": "uint256",
          "name": "qx",
          "type": "uint256"
        },
        {
          "internalType": "uint256",
          "name": "qy",
          "type": "uint256"
        }
      ],
      "name": "projectiveECAdd_",
      "outputs": [
        {
          "internalType": "uint256",
          "name": "",
          "type": "uint256"
        },
        {
          "internalType": "uint256",
          "name": "",
          "type": "uint256"
        },
        {
          "internalType": "uint256",
          "name": "",
          "type": "uint256"
        }
      ],
      "stateMutability": "pure",
      "type": "function"
    },
    {
      "inputs": [
        {
          "components": [
            {
              "internalType": "uint256[2]",
              "name": "pk",
              "type": "uint256[2]"
            },
            {
              "internalType": "uint256[2]",
              "name": "gamma",
              "type": "uint256[2]"
            },
            {
              "internalType": "uint256",
              "name": "c",
              "type": "uint256"
            },
            {
              "internalType": "uint256",
              "name": "s",
              "type": "uint256"
            },
            {
              "internalType": "uint256",
              "name": "seed",
              "type": "uint256"
            },
            {
              "internalType": "address",
              "name": "uWitness",
              "type": "address"
            },
            {
              "internalType": "uint256[2]",
              "name": "cGammaWitness",
              "type": "uint256[2]"
            },
            {
              "internalType": "uint256[2]",
              "name": "sHashWitness",
              "type": "uint256[2]"
            },
            {
              "internalType": "uint256",
              "name": "zInv",
              "type": "uint256"
            }
          ],
          "internalType": "struct VRF.Proof",
          "name": "proof",
          "type": "tuple"
        },
        {
          "internalType": "uint256",
          "name": "seed",
          "type": "uint256"
        }
      ],
      "name": "randomValueFromVRFProof_",
      "outputs": [
        {
          "internalType": "uint256",
          "name": "output",
          "type": "uint256"
        }
      ],
      "stateMutability": "view",
      "type": "function"
    },
    {
      "inputs": [
        {
          "internalType": "uint256[2]",
          "name": "hash",
          "type": "uint256[2]"
        },
        {
          "internalType": "uint256[2]",
          "name": "pk",
          "type": "uint256[2]"
        },
        {
          "internalType": "uint256[2]",
          "name": "gamma",
          "type": "uint256[2]"
        },
        {
          "internalType": "address",
          "name": "uWitness",
          "type": "address"
        },
        {
          "internalType": "uint256[2]",
          "name": "v",
          "type": "uint256[2]"
        }
      ],
      "name": "scalarFromCurvePoints_",
      "outputs": [
        {
          "internalType": "uint256",
          "name": "",
          "type": "uint256"
        }
      ],
      "stateMutability": "pure",
      "type": "function"
    },
    {
      "inputs": [
        {
          "internalType": "uint256",
          "name": "x",
          "type": "uint256"
        }
      ],
      "name": "squareRoot_",
      "outputs": [
        {
          "internalType": "uint256",
          "name": "",
          "type": "uint256"
        }
      ],
      "stateMutability": "view",
      "type": "function"
    },
    {
      "inputs": [
        {
          "internalType": "uint256",
          "name": "c",
          "type": "uint256"
        },
        {
          "internalType": "uint256[2]",
          "name": "p",
          "type": "uint256[2]"
        },
        {
          "internalType": "uint256",
          "name": "s",
          "type": "uint256"
        },
        {
          "internalType": "address",
          "name": "lcWitness",
          "type": "address"
        }
      ],
      "name": "verifyLinearCombinationWithGenerator_",
      "outputs": [
        {
          "internalType": "bool",
          "name": "",
          "type": "bool"
        }
      ],
      "stateMutability": "pure",
      "type": "function"
    },
    {
      "inputs": [
        {
          "internalType": "uint256[2]",
          "name": "pk",
          "type": "uint256[2]"
        },
        {
          "internalType": "uint256[2]",
          "name": "gamma",
          "type": "uint256[2]"
        },
        {
          "internalType": "uint256",
          "name": "c",
          "type": "uint256"
        },
        {
          "internalType": "uint256",
          "name": "s",
          "type": "uint256"
        },
        {
          "internalType": "uint256",
          "name": "seed",
          "type": "uint256"
        },
        {
          "internalType": "address",
          "name": "uWitness",
          "type": "address"
        },
        {
          "internalType": "uint256[2]",
          "name": "cGammaWitness",
          "type": "uint256[2]"
        },
        {
          "internalType": "uint256[2]",
          "name": "sHashWitness",
          "type": "uint256[2]"
        },
        {
          "internalType": "uint256",
          "name": "zInv",
          "type": "uint256"
        }
      ],
      "name": "verifyVRFProof_",
      "outputs": [],
      "stateMutability": "view",
      "type": "function"
    },
    {
      "inputs": [
        {
          "internalType": "uint256",
          "name": "x",
          "type": "uint256"
        }
      ],
      "name": "ySquared_",
      "outputs": [
        {
          "internalType": "uint256",
          "name": "",
          "type": "uint256"
        }
      ],
      "stateMutability": "pure",
      "type": "function"
    }
  ],
  "bytecode": "0x608060405234801561001057600080fd5b50612b77806100206000396000f3fe608060405234801561001057600080fd5b50600436106100ea5760003560e01c80639d6f03371161008c578063b481e26011610066578063b481e260146102d1578063ef3b10ec14610301578063fd7e4af91461031d578063fe54f2a21461034d576100ea565b80639d6f033714610241578063a5e9508f14610271578063aa7b2fbb146102a1576100ea565b80637f8f50a8116100c85780637f8f50a81461017f5780638af046ea146101af57806391d5f691146101df57806395e6ee921461020f576100ea565b8063244f896d146100ef578063354524501461011f5780635de600421461014f575b600080fd5b61010960048036038101906101049190611a52565b61037d565b60405161011691906122c5565b60405180910390f35b61013960048036038101906101349190611b71565b610399565b60405161014691906122c5565b60405180910390f35b61016960048036038101906101649190611dc8565b6103b3565b6040516101769190612520565b60405180910390f35b610199600480360381019061019491906119d6565b6103c7565b6040516101a69190612520565b60405180910390f35b6101c960048036038101906101c49190611c8f565b6103e1565b6040516101d69190612520565b60405180910390f35b6101f960048036038101906101f49190611d61565b6103f3565b60405161020691906122e0565b60405180910390f35b61022960048036038101906102249190611e08565b61040b565b60405161023893929190612564565b60405180910390f35b61025b60048036038101906102569190611c8f565b61042c565b6040516102689190612520565b60405180910390f35b61028b60048036038101906102869190611c4d565b61043e565b6040516102989190612520565b60405180910390f35b6102bb60048036038101906102b69190611bb1565b610452565b6040516102c891906122e0565b60405180910390f35b6102eb60048036038101906102e69190611c04565b610468565b6040516102f89190612520565b60405180910390f35b61031b60048036038101906103169190611aa5565b61047a565b005b610337600480360381019061033291906119a9565b610496565b60405161034491906122e0565b60405180910390f35b61036760048036038101906103629190611cbc565b6104a8565b60405161037491906122c5565b60405180910390f35b610385611735565b6103908484846104cc565b90509392505050565b6103a1611735565b6103ab8383610648565b905092915050565b60006103bf83836106da565b905092915050565b60006103d6868686868661083a565b905095945050505050565b60006103ec8261087c565b9050919050565b6000610401858585856108bf565b9050949350505050565b600080600061041c87878787610add565b9250925092509450945094915050565b600061043782610cd4565b9050919050565b600061044a8383610d77565b905092915050565b600061045f848484610de4565b90509392505050565b600061047382610f7c565b9050919050565b61048b898989898989898989610fe9565b505050505050505050565b60006104a1826111d6565b9050919050565b6104b0611735565b6104bf88888888888888611357565b9050979650505050505050565b6104d4611735565b6000806000610545876000600281106104f0576104ef612812565b5b60200201518860016002811061050957610508612812565b5b60200201518860006002811061052257610521612812565b5b60200201518960016002811061053b5761053a612812565b5b6020020151610add565b80935081945082955050505060017ffffffffffffffffffffffffffffffffffffffffffffffffffffffffefffffc2f80610582576105816127e3565b5b868309146105c5576040517f08c379a00000000000000000000000000000000000000000000000000000000081526004016105bc90612400565b60405180910390fd5b60405180604001604052807ffffffffffffffffffffffffffffffffffffffffffffffffffffffffefffffc2f806105ff576105fe6127e3565b5b87860981526020017ffffffffffffffffffffffffffffffffffffffffffffffffffffffffefffffc2f80610636576106356127e3565b5b87850981525093505050509392505050565b610650611735565b61067d6001848460405160200161066993929190612288565b6040516020818303038152906040526114b1565b90505b610689816111d6565b6106d4576106cd816000600281106106a4576106a3612812565b5b60200201516040516020016106b991906121fd565b6040516020818303038152906040526114b1565b9050610680565b92915050565b6000806106e5611757565b6020816000600681106106fb576106fa612812565b5b60200201818152505060208160016006811061071a57610719612812565b5b60200201818152505060208160026006811061073957610738612812565b5b602002018181525050848160036006811061075757610756612812565b5b602002018181525050838160046006811061077557610774612812565b5b6020020181815250507ffffffffffffffffffffffffffffffffffffffffffffffffffffffffefffffc2f816005600681106107b3576107b2612812565b5b6020020181815250506107c4611779565b60208160c0846005600019fa92506000831415610816576040517f08c379a000000000000000000000000000000000000000000000000000000000815260040161080d90612380565b60405180910390fd5b8060006001811061082a57610829612812565b5b6020020151935050505092915050565b60006002868686858760405160200161085896959493929190612218565b6040516020818303038152906040528051906020012060001c905095945050505050565b60006108b882600260017ffffffffffffffffffffffffffffffffffffffffffffffffffffffffefffffc2f6108b19190612660565b901c6106da565b9050919050565b60008073ffffffffffffffffffffffffffffffffffffffff168273ffffffffffffffffffffffffffffffffffffffff161415610930576040517f08c379a0000000000000000000000000000000000000000000000000000000008152600401610927906123c0565b60405180910390fd5b60008060028660016002811061094957610948612812565b5b60200201518161095c5761095b6127e3565b5b061461096957601c61096c565b601b5b905060007ffffffffffffffffffffffffffffffffebaaedce6af48a03bbfd25e8cd03641418061099f5761099e6127e3565b5b85876000600281106109b4576109b3612812565b5b6020020151097ffffffffffffffffffffffffffffffffebaaedce6af48a03bbfd25e8cd03641410360001b905060007ffffffffffffffffffffffffffffffffebaaedce6af48a03bbfd25e8cd036414180610a1257610a116127e3565b5b87600060028110610a2657610a25612812565b5b6020020151890960001b90506000600183858a600060028110610a4c57610a4b612812565b5b602002015160001b8560405160008152602001604052604051610a7294939291906122fb565b6020604051602081039080840390855afa158015610a94573d6000803e3d6000fd5b5050506020604051035190508573ffffffffffffffffffffffffffffffffffffffff168173ffffffffffffffffffffffffffffffffffffffff1614945050505050949350505050565b60008060008060006001809150915060007ffffffffffffffffffffffffffffffffffffffffffffffffffffffffefffffc2f80610b1d57610b1c6127e3565b5b897ffffffffffffffffffffffffffffffffffffffffffffffffffffffffefffffc2f038808905060007ffffffffffffffffffffffffffffffffffffffffffffffffffffffffefffffc2f80610b7557610b746127e3565b5b8b7ffffffffffffffffffffffffffffffffffffffffffffffffffffffffefffffc2f038a0890506000610baa838385856115b5565b8092508199505050610bbe88828e8861162d565b8092508199505050610bd288828c8761162d565b80925081995050506000610be88d878b8561162d565b8092508199505050610bfc888286866115b5565b8092508199505050610c1088828e8961162d565b8092508199505050808214610cc0577ffffffffffffffffffffffffffffffffffffffffffffffffffffffffefffffc2f80610c4e57610c4d6127e3565b5b818a0998507ffffffffffffffffffffffffffffffffffffffffffffffffffffffffefffffc2f80610c8257610c816127e3565b5b82890997507ffffffffffffffffffffffffffffffffffffffffffffffffffffffffefffffc2f80610cb657610cb56127e3565b5b8183099650610cc4565b8196505b5050505050509450945094915050565b6000807ffffffffffffffffffffffffffffffffffffffffffffffffffffffffefffffc2f80610d0657610d056127e3565b5b7ffffffffffffffffffffffffffffffffffffffffffffffffffffffffefffffc2f80610d3557610d346127e3565b5b848509840990507ffffffffffffffffffffffffffffffffffffffffffffffffffffffffefffffc2f80610d6b57610d6a6127e3565b5b60078208915050919050565b6000610dab8360000151846020015185604001518660600151868860a001518960c001518a60e001518b6101000151610fe9565b60038360200151604051602001610dc392919061253b565b6040516020818303038152906040528051906020012060001c905092915050565b600080831415610e29576040517f08c379a0000000000000000000000000000000000000000000000000000000008152600401610e20906124c0565b60405180910390fd5b600084600060028110610e3f57610e3e612812565b5b60200201519050600080600287600160028110610e5f57610e5e612812565b5b6020020151610e6e9190612783565b14610e7a57601c610e7d565b601b5b905060007ffffffffffffffffffffffffffffffffebaaedce6af48a03bbfd25e8cd036414180610eb057610eaf6127e3565b5b83870960001b9050600060016000801b848660001b8560405160008152602001604052604051610ee394939291906122fb565b6020604051602081039080840390855afa158015610f05573d6000803e3d6000fd5b505050602060405103519050600086604051602001610f2491906121e2565b6040516020818303038152906040528051906020012060001c90508073ffffffffffffffffffffffffffffffffffffffff168273ffffffffffffffffffffffffffffffffffffffff1614955050505050509392505050565b6000818051906020012060001c90505b7ffffffffffffffffffffffffffffffffffffffffffffffffffffffffefffffc2f8110610fe45780604051602001610fc491906121fd565b6040516020818303038152906040528051906020012060001c9050610f8c565b919050565b610ff2896111d6565b611031576040517f08c379a000000000000000000000000000000000000000000000000000000000815260040161102890612440565b60405180910390fd5b61103a886111d6565b611079576040517f08c379a000000000000000000000000000000000000000000000000000000000815260040161107090612460565b60405180910390fd5b611082836111d6565b6110c1576040517f08c379a00000000000000000000000000000000000000000000000000000000081526004016110b890612420565b60405180910390fd5b6110ca826111d6565b611109576040517f08c379a000000000000000000000000000000000000000000000000000000000815260040161110090612500565b60405180910390fd5b611115878a88876108bf565b611154576040517f08c379a000000000000000000000000000000000000000000000000000000000815260040161114b906123e0565b60405180910390fd5b60006111608a87610648565b90506000611173898b878b868989611357565b90506000611184838d8d8a8661083a565b9050808a146111c8576040517f08c379a00000000000000000000000000000000000000000000000000000000081526004016111bf90612480565b60405180910390fd5b505050505050505050505050565b60007ffffffffffffffffffffffffffffffffffffffffffffffffffffffffefffffc2f8260006002811061120d5761120c612812565b5b602002015110611252576040517f08c379a0000000000000000000000000000000000000000000000000000000008152600401611249906123a0565b60405180910390fd5b7ffffffffffffffffffffffffffffffffffffffffffffffffffffffffefffffc2f8260016002811061128757611286612812565b5b6020020151106112cc576040517f08c379a00000000000000000000000000000000000000000000000000000000081526004016112c3906124e0565b60405180910390fd5b7ffffffffffffffffffffffffffffffffffffffffffffffffffffffffefffffc2f806112fb576112fa6127e3565b5b8260016002811061130f5761130e612812565b5b60200201518360016002811061132857611327612812565b5b60200201510961134f8360006002811061134557611344612812565b5b6020020151610cd4565b149050919050565b61135f611735565b60007ffffffffffffffffffffffffffffffffffffffffffffffffffffffffefffffc2f8460006002811061139657611395612812565b5b6020020151886000600281106113af576113ae612812565b5b602002015103816113c3576113c26127e3565b5b061415611405576040517f08c379a00000000000000000000000000000000000000000000000000000000081526004016113fc90612360565b60405180910390fd5b611410878988610de4565b61144f576040517f08c379a0000000000000000000000000000000000000000000000000000000008152600401611446906124a0565b60405180910390fd5b61145a848685610de4565b611499576040517f08c379a000000000000000000000000000000000000000000000000000000000815260040161149090612340565b60405180910390fd5b6114a48684846104cc565b9050979650505050505050565b6114b9611735565b6114c282610f7c565b816000600281106114d6576114d5612812565b5b602002018181525050611508611503826000600281106114f9576114f8612812565b5b6020020151610cd4565b61087c565b8160016002811061151c5761151b612812565b5b602002018181525050600160028260016002811061153d5761153c612812565b5b6020020151816115505761154f6127e3565b5b0614156115b0578060016002811061156b5761156a612812565b5b60200201517ffffffffffffffffffffffffffffffffffffffffffffffffffffffffefffffc2f03816001600281106115a6576115a5612812565b5b6020020181815250505b919050565b6000807ffffffffffffffffffffffffffffffffffffffffffffffffffffffffefffffc2f806115e7576115e66127e3565b5b8487097ffffffffffffffffffffffffffffffffffffffffffffffffffffffffefffffc2f80611619576116186127e3565b5b848709809250819350505094509492505050565b60008060007ffffffffffffffffffffffffffffffffffffffffffffffffffffffffefffffc2f80611661576116606127e3565b5b878509905060007ffffffffffffffffffffffffffffffffffffffffffffffffffffffffefffffc2f80611697576116966127e3565b5b87877ffffffffffffffffffffffffffffffffffffffffffffffffffffffffefffffc2f030990507ffffffffffffffffffffffffffffffffffffffffffffffffffffffffefffffc2f806116ed576116ec6127e3565b5b8183087ffffffffffffffffffffffffffffffffffffffffffffffffffffffffefffffc2f8061171f5761171e6127e3565b5b8689098094508195505050505094509492505050565b6040518060400160405280600290602082028036833780820191505090505090565b6040518060c00160405280600690602082028036833780820191505090505090565b6040518060200160405280600190602082028036833780820191505090505090565b60006117ae6117a9846125c0565b61259b565b905080828560208602820111156117c8576117c761287a565b5b60005b858110156117f857816117de8882611994565b8452602084019350602083019250506001810190506117cb565b5050509392505050565b6000611815611810846125e6565b61259b565b9050828152602081018484840111156118315761183061287f565b5b61183c848285612715565b509392505050565b60008135905061185381612b13565b92915050565b600082601f83011261186e5761186d612870565b5b600261187b84828561179b565b91505092915050565b600082601f83011261189957611898612870565b5b81356118a9848260208601611802565b91505092915050565b60006101a082840312156118c9576118c8612875565b5b6118d461012061259b565b905060006118e484828501611859565b60008301525060406118f884828501611859565b602083015250608061190c84828501611994565b60408301525060a061192084828501611994565b60608301525060c061193484828501611994565b60808301525060e061194884828501611844565b60a08301525061010061195d84828501611859565b60c08301525061014061197284828501611859565b60e08301525061018061198784828501611994565b6101008301525092915050565b6000813590506119a381612b2a565b92915050565b6000604082840312156119bf576119be612889565b5b60006119cd84828501611859565b91505092915050565b600080600080600061012086880312156119f3576119f2612889565b5b6000611a0188828901611859565b9550506040611a1288828901611859565b9450506080611a2388828901611859565b93505060c0611a3488828901611844565b92505060e0611a4588828901611859565b9150509295509295909350565b600080600060a08486031215611a6b57611a6a612889565b5b6000611a7986828701611859565b9350506040611a8a86828701611859565b9250506080611a9b86828701611994565b9150509250925092565b60008060008060008060008060006101a08a8c031215611ac857611ac7612889565b5b6000611ad68c828d01611859565b9950506040611ae78c828d01611859565b9850506080611af88c828d01611994565b97505060a0611b098c828d01611994565b96505060c0611b1a8c828d01611994565b95505060e0611b2b8c828d01611844565b945050610100611b3d8c828d01611859565b935050610140611b4f8c828d01611859565b925050610180611b618c828d01611994565b9150509295985092959850929598565b60008060608385031215611b8857611b87612889565b5b6000611b9685828601611859565b9250506040611ba785828601611994565b9150509250929050565b600080600060a08486031215611bca57611bc9612889565b5b6000611bd886828701611859565b9350506040611be986828701611994565b9250506060611bfa86828701611859565b9150509250925092565b600060208284031215611c1a57611c19612889565b5b600082013567ffffffffffffffff811115611c3857611c37612884565b5b611c4484828501611884565b91505092915050565b6000806101c08385031215611c6557611c64612889565b5b6000611c73858286016118b2565b9250506101a0611c8585828601611994565b9150509250929050565b600060208284031215611ca557611ca4612889565b5b6000611cb384828501611994565b91505092915050565b6000806000806000806000610160888a031215611cdc57611cdb612889565b5b6000611cea8a828b01611994565b9750506020611cfb8a828b01611859565b9650506060611d0c8a828b01611859565b95505060a0611d1d8a828b01611994565b94505060c0611d2e8a828b01611859565b935050610100611d408a828b01611859565b925050610140611d528a828b01611994565b91505092959891949750929550565b60008060008060a08587031215611d7b57611d7a612889565b5b6000611d8987828801611994565b9450506020611d9a87828801611859565b9350506060611dab87828801611994565b9250506080611dbc87828801611844565b91505092959194509250565b60008060408385031215611ddf57611dde612889565b5b6000611ded85828601611994565b9250506020611dfe85828601611994565b9150509250929050565b60008060008060808587031215611e2257611e21612889565b5b6000611e3087828801611994565b9450506020611e4187828801611994565b9350506040611e5287828801611994565b9250506060611e6387828801611994565b91505092959194509250565b6000611e7b838361218f565b60208301905092915050565b6000611e9383836121ad565b60208301905092915050565b611eb0611eab826126b6565b612755565b82525050565b611ebf81612621565b611ec98184612639565b9250611ed482612617565b8060005b83811015611f05578151611eec8782611e6f565b9650611ef78361262c565b925050600181019050611ed8565b505050505050565b611f1681612621565b611f208184612644565b9250611f2b82612617565b8060005b83811015611f5c578151611f438782611e87565b9650611f4e8361262c565b925050600181019050611f2f565b505050505050565b611f6d816126c8565b82525050565b611f7c816126d4565b82525050565b6000611f8f60178361264f565b9150611f9a826128ac565b602082019050919050565b6000611fb2601e8361264f565b9150611fbd826128d5565b602082019050919050565b6000611fd560128361264f565b9150611fe0826128fe565b602082019050919050565b6000611ff860128361264f565b915061200382612927565b602082019050919050565b600061201b600b8361264f565b915061202682612950565b602082019050919050565b600061203e60198361264f565b915061204982612979565b602082019050919050565b600061206160198361264f565b915061206c826129a2565b602082019050919050565b6000612084601d8361264f565b915061208f826129cb565b602082019050919050565b60006120a7601a8361264f565b91506120b2826129f4565b602082019050919050565b60006120ca60158361264f565b91506120d582612a1d565b602082019050919050565b60006120ed600d8361264f565b91506120f882612a46565b602082019050919050565b600061211060168361264f565b915061211b82612a6f565b602082019050919050565b6000612133600b8361264f565b915061213e82612a98565b602082019050919050565b600061215660128361264f565b915061216182612ac1565b602082019050919050565b6000612179601c8361264f565b915061218482612aea565b602082019050919050565b612198816126fe565b82525050565b6121a7816126fe565b82525050565b6121b6816126fe565b82525050565b6121cd6121c8826126fe565b612779565b82525050565b6121dc81612708565b82525050565b60006121ee8284611f0d565b60408201915081905092915050565b600061220982846121bc565b60208201915081905092915050565b600061222482896121bc565b6020820191506122348288611f0d565b6040820191506122448287611f0d565b6040820191506122548286611f0d565b6040820191506122648285611f0d565b6040820191506122748284611e9f565b601482019150819050979650505050505050565b600061229482866121bc565b6020820191506122a48285611f0d565b6040820191506122b482846121bc565b602082019150819050949350505050565b60006040820190506122da6000830184611eb6565b92915050565b60006020820190506122f56000830184611f64565b92915050565b60006080820190506123106000830187611f73565b61231d60208301866121d3565b61232a6040830185611f73565b6123376060830184611f73565b95945050505050565b6000602082019050818103600083015261235981611f82565b9050919050565b6000602082019050818103600083015261237981611fa5565b9050919050565b6000602082019050818103600083015261239981611fc8565b9050919050565b600060208201905081810360008301526123b981611feb565b9050919050565b600060208201905081810360008301526123d98161200e565b9050919050565b600060208201905081810360008301526123f981612031565b9050919050565b6000602082019050818103600083015261241981612054565b9050919050565b6000602082019050818103600083015261243981612077565b9050919050565b600060208201905081810360008301526124598161209a565b9050919050565b60006020820190508181036000830152612479816120bd565b9050919050565b60006020820190508181036000830152612499816120e0565b9050919050565b600060208201905081810360008301526124b981612103565b9050919050565b600060208201905081810360008301526124d981612126565b9050919050565b600060208201905081810360008301526124f981612149565b9050919050565b600060208201905081810360008301526125198161216c565b9050919050565b6000602082019050612535600083018461219e565b92915050565b6000606082019050612550600083018561219e565b61255d6020830184611eb6565b9392505050565b6000606082019050612579600083018661219e565b612586602083018561219e565b612593604083018461219e565b949350505050565b60006125a56125b6565b90506125b18282612724565b919050565b6000604051905090565b600067ffffffffffffffff8211156125db576125da612841565b5b602082029050919050565b600067ffffffffffffffff82111561260157612600612841565b5b61260a8261288e565b9050602081019050919050565b6000819050919050565b600060029050919050565b6000602082019050919050565b600081905092915050565b600081905092915050565b600082825260208201905092915050565b600061266b826126fe565b9150612676836126fe565b9250827fffffffffffffffffffffffffffffffffffffffffffffffffffffffffffffffff038211156126ab576126aa6127b4565b5b828201905092915050565b60006126c1826126de565b9050919050565b60008115159050919050565b6000819050919050565b600073ffffffffffffffffffffffffffffffffffffffff82169050919050565b6000819050919050565b600060ff82169050919050565b82818337600083830152505050565b61272d8261288e565b810181811067ffffffffffffffff8211171561274c5761274b612841565b5b80604052505050565b600061276082612767565b9050919050565b60006127728261289f565b9050919050565b6000819050919050565b600061278e826126fe565b9150612799836126fe565b9250826127a9576127a86127e3565b5b828206905092915050565b7f4e487b7100000000000000000000000000000000000000000000000000000000600052601160045260246000fd5b7f4e487b7100000000000000000000000000000000000000000000000000000000600052601260045260246000fd5b7f4e487b7100000000000000000000000000000000000000000000000000000000600052603260045260246000fd5b7f4e487b7100000000000000000000000000000000000000000000000000000000600052604160045260246000fd5b600080fd5b600080fd5b600080fd5b600080fd5b600080fd5b600080fd5b6000601f19601f8301169050919050565b60008160601b9050919050565b7f5365636f6e64206d756c20636865636b206661696c6564000000000000000000600082015250565b7f706f696e747320696e2073756d206d7573742062652064697374696e63740000600082015250565b7f6269674d6f64457870206661696c757265210000000000000000000000000000600082015250565b7f696e76616c696420782d6f7264696e6174650000000000000000000000000000600082015250565b7f626164207769746e657373000000000000000000000000000000000000000000600082015250565b7f6164647228632a706b2b732a6729213d5f755769746e65737300000000000000600082015250565b7f696e765a206d75737420626520696e7665727365206f66207a00000000000000600082015250565b7f6347616d6d615769746e657373206973206e6f74206f6e206375727665000000600082015250565b7f7075626c6963206b6579206973206e6f74206f6e206375727665000000000000600082015250565b7f67616d6d61206973206e6f74206f6e2063757276650000000000000000000000600082015250565b7f696e76616c69642070726f6f6600000000000000000000000000000000000000600082015250565b7f4669727374206d756c20636865636b206661696c656400000000000000000000600082015250565b7f7a65726f207363616c6172000000000000000000000000000000000000000000600082015250565b7f696e76616c696420792d6f7264696e6174650000000000000000000000000000600082015250565b7f73486173685769746e657373206973206e6f74206f6e20637572766500000000600082015250565b612b1c816126b6565b8114612b2757600080fd5b50565b612b33816126fe565b8114612b3e57600080fd5b5056fea2646970667358221220207f75a83cd70b346d7c9d4788e1fd74b97cac22280d86dbc57e48edfa35ce1864736f6c63430008060033",
  "linkReferences": {},
  "deployedLinkReferences": {}
}