{
  "_format": "hh-sol-artifact-1",
  "contractName": "Flags",
  "sourceName": "contracts/chainlink/v0.8/Flags.sol",
  "abi": [
    {
      "inputs": [
        {
          "internalType": "address",
          "name": "racAddress",
          "type": "address"
        }
      ],
      "stateMutability": "nonpayable",
      "type": "constructor"
    },
    {
      "anonymous": false,
      "inputs": [
        {
          "indexed": false,
          "internalType": "address",
          "name": "user",
          "type": "address"
        }
      ],
      "name": "AddedAccess",
      "type": "event"
    },
    {
      "anonymous": false,
      "inputs": [],
      "name": "CheckAccessDisabled",
      "type": "event"
    },
    {
      "anonymous": false,
      "inputs": [],
      "name": "CheckAccessEnabled",
      "type": "event"
    },
    {
      "anonymous": false,
      "inputs": [
        {
          "indexed": true,
          "internalType": "address",
          "name": "subject",
          "type": "address"
        }
      ],
      "name": "FlagLowered",
      "type": "event"
    },
    {
      "anonymous": false,
      "inputs": [
        {
          "indexed": true,
          "internalType": "address",
          "name": "subject",
          "type": "address"
        }
      ],
      "name": "FlagRaised",
      "type": "event"
    },
    {
      "anonymous": false,
      "inputs": [
        {
          "indexed": true,
          "internalType": "address",
          "name": "from",
          "type": "address"
        },
        {
          "indexed": true,
          "internalType": "address",
          "name": "to",
          "type": "address"
        }
      ],
      "name": "OwnershipTransferRequested",
      "type": "event"
    },
    {
      "anonymous": false,
      "inputs": [
        {
          "indexed": true,
          "internalType": "address",
          "name": "from",
          "type": "address"
        },
        {
          "indexed": true,
          "internalType": "address",
          "name": "to",
          "type": "address"
        }
      ],
      "name": "OwnershipTransferred",
      "type": "event"
    },
    {
      "anonymous": false,
      "inputs": [
        {
          "indexed": true,
          "internalType": "address",
          "name": "previous",
          "type": "address"
        },
        {
          "indexed": true,
          "internalType": "address",
          "name": "current",
          "type": "address"
        }
      ],
      "name": "RaisingAccessControllerUpdated",
      "type": "event"
    },
    {
      "anonymous": false,
      "inputs": [
        {
          "indexed": false,
          "internalType": "address",
          "name": "user",
          "type": "address"
        }
      ],
      "name": "RemovedAccess",
      "type": "event"
    },
    {
      "inputs": [],
      "name": "acceptOwnership",
      "outputs": [],
      "stateMutability": "nonpayable",
      "type": "function"
    },
    {
      "inputs": [
        {
          "internalType": "address",
          "name": "_user",
          "type": "address"
        }
      ],
      "name": "addAccess",
      "outputs": [],
      "stateMutability": "nonpayable",
      "type": "function"
    },
    {
      "inputs": [],
      "name": "checkEnabled",
      "outputs": [
        {
          "internalType": "bool",
          "name": "",
          "type": "bool"
        }
      ],
      "stateMutability": "view",
      "type": "function"
    },
    {
      "inputs": [],
      "name": "disableAccessCheck",
      "outputs": [],
      "stateMutability": "nonpayable",
      "type": "function"
    },
    {
      "inputs": [],
      "name": "enableAccessCheck",
      "outputs": [],
      "stateMutability": "nonpayable",
      "type": "function"
    },
    {
      "inputs": [
        {
          "internalType": "address",
          "name": "subject",
          "type": "address"
        }
      ],
      "name": "getFlag",
      "outputs": [
        {
          "internalType": "bool",
          "name": "",
          "type": "bool"
        }
      ],
      "stateMutability": "view",
      "type": "function"
    },
    {
      "inputs": [
        {
          "internalType": "address[]",
          "name": "subjects",
          "type": "address[]"
        }
      ],
      "name": "getFlags",
      "outputs": [
        {
          "internalType": "bool[]",
          "name": "",
          "type": "bool[]"
        }
      ],
      "stateMutability": "view",
      "type": "function"
    },
    {
      "inputs": [
        {
          "internalType": "address",
          "name": "_user",
          "type": "address"
        },
        {
          "internalType": "bytes",
          "name": "_calldata",
          "type": "bytes"
        }
      ],
      "name": "hasAccess",
      "outputs": [
        {
          "internalType": "bool",
          "name": "",
          "type": "bool"
        }
      ],
      "stateMutability": "view",
      "type": "function"
    },
    {
      "inputs": [
        {
          "internalType": "address[]",
          "name": "subjects",
          "type": "address[]"
        }
      ],
      "name": "lowerFlags",
      "outputs": [],
      "stateMutability": "nonpayable",
      "type": "function"
    },
    {
      "inputs": [],
      "name": "owner",
      "outputs": [
        {
          "internalType": "address",
          "name": "",
          "type": "address"
        }
      ],
      "stateMutability": "view",
      "type": "function"
    },
    {
      "inputs": [
        {
          "internalType": "address",
          "name": "subject",
          "type": "address"
        }
      ],
      "name": "raiseFlag",
      "outputs": [],
      "stateMutability": "nonpayable",
      "type": "function"
    },
    {
      "inputs": [
        {
          "internalType": "address[]",
          "name": "subjects",
          "type": "address[]"
        }
      ],
      "name": "raiseFlags",
      "outputs": [],
      "stateMutability": "nonpayable",
      "type": "function"
    },
    {
      "inputs": [],
      "name": "raisingAccessController",
      "outputs": [
        {
          "internalType": "contract AccessControllerInterface",
          "name": "",
          "type": "address"
        }
      ],
      "stateMutability": "view",
      "type": "function"
    },
    {
      "inputs": [
        {
          "internalType": "address",
          "name": "_user",
          "type": "address"
        }
      ],
      "name": "removeAccess",
      "outputs": [],
      "stateMutability": "nonpayable",
      "type": "function"
    },
    {
      "inputs": [
        {
          "internalType": "address",
          "name": "racAddress",
          "type": "address"
        }
      ],
      "name": "setRaisingAccessController",
      "outputs": [],
      "stateMutability": "nonpayable",
      "type": "function"
    },
    {
      "inputs": [
        {
          "internalType": "address",
          "name": "to",
          "type": "address"
        }
      ],
      "name": "transferOwnership",
      "outputs": [],
      "stateMutability": "nonpayable",
      "type": "function"
    }
  ],
  "bytecode": "0x60806040523480156200001157600080fd5b50604051620020423803806200204283398181016040528101906200003791906200044e565b338060008073ffffffffffffffffffffffffffffffffffffffff168273ffffffffffffffffffffffffffffffffffffffff161415620000ad576040517f08c379a0000000000000000000000000000000000000000000000000000000008152600401620000a49062000517565b60405180910390fd5b816000806101000a81548173ffffffffffffffffffffffffffffffffffffffff021916908373ffffffffffffffffffffffffffffffffffffffff160217905550600073ffffffffffffffffffffffffffffffffffffffff168173ffffffffffffffffffffffffffffffffffffffff1614620001345762000133816200016960201b60201c565b5b50505060018060146101000a81548160ff02191690831515021790555062000162816200029960201b60201c565b506200063a565b3373ffffffffffffffffffffffffffffffffffffffff168173ffffffffffffffffffffffffffffffffffffffff161415620001db576040517f08c379a0000000000000000000000000000000000000000000000000000000008152600401620001d29062000539565b60405180910390fd5b80600160006101000a81548173ffffffffffffffffffffffffffffffffffffffff021916908373ffffffffffffffffffffffffffffffffffffffff1602179055508073ffffffffffffffffffffffffffffffffffffffff1660008054906101000a900473ffffffffffffffffffffffffffffffffffffffff1673ffffffffffffffffffffffffffffffffffffffff167fed8889f560326eb138920d842192f0eb3dd22b4f139c87a2c57538e05bae127860405160405180910390a350565b620002a9620003a460201b60201c565b6000600360009054906101000a900473ffffffffffffffffffffffffffffffffffffffff1690508173ffffffffffffffffffffffffffffffffffffffff168173ffffffffffffffffffffffffffffffffffffffff1614620003a05781600360006101000a81548173ffffffffffffffffffffffffffffffffffffffff021916908373ffffffffffffffffffffffffffffffffffffffff1602179055508173ffffffffffffffffffffffffffffffffffffffff168173ffffffffffffffffffffffffffffffffffffffff167fbaf9ea078655a4fffefd08f9435677bbc91e457a6d015fe7de1d0e68b8802cac60405160405180910390a35b5050565b60008054906101000a900473ffffffffffffffffffffffffffffffffffffffff1673ffffffffffffffffffffffffffffffffffffffff163373ffffffffffffffffffffffffffffffffffffffff161462000435576040517f08c379a00000000000000000000000000000000000000000000000000000000081526004016200042c90620004f5565b60405180910390fd5b565b600081519050620004488162000620565b92915050565b600060208284031215620004675762000466620005a0565b5b6000620004778482850162000437565b91505092915050565b60006200048f6016836200055b565b91506200049c82620005a5565b602082019050919050565b6000620004b66018836200055b565b9150620004c382620005ce565b602082019050919050565b6000620004dd6017836200055b565b9150620004ea82620005f7565b602082019050919050565b60006020820190508181036000830152620005108162000480565b9050919050565b600060208201905081810360008301526200053281620004a7565b9050919050565b600060208201905081810360008301526200055481620004ce565b9050919050565b600082825260208201905092915050565b6000620005798262000580565b9050919050565b600073ffffffffffffffffffffffffffffffffffffffff82169050919050565b600080fd5b7f4f6e6c792063616c6c61626c65206279206f776e657200000000000000000000600082015250565b7f43616e6e6f7420736574206f776e657220746f207a65726f0000000000000000600082015250565b7f43616e6e6f74207472616e7366657220746f2073656c66000000000000000000600082015250565b6200062b816200056c565b81146200063757600080fd5b50565b6119f8806200064a6000396000f3fe608060405234801561001057600080fd5b50600436106101005760003560e01c80637d723cac11610097578063a118f24911610066578063a118f2491461025f578063d74af2631461027b578063dc7f012414610297578063f2fde38b146102b557610100565b80637d723cac146101eb5780638038e4a11461021b5780638823da6c146102255780638da5cb5b1461024157610100565b8063517e89fe116100d3578063517e89fe146101795780636b14daf814610195578063760bc82d146101c557806379ba5097146101e157610100565b80630a75698314610105578063282865961461010f5780632e1d859c1461012b578063357e47fe14610149575b600080fd5b61010d6102d1565b005b61012960048036038101906101249190611318565b610338565b005b610133610481565b60405161014091906115aa565b60405180910390f35b610163600480360381019061015e919061128f565b6104a7565b604051610170919061158f565b60405180910390f35b610193600480360381019061018e919061128f565b61058b565b005b6101af60048036038101906101aa91906112bc565b61068d565b6040516101bc919061158f565b60405180910390f35b6101df60048036038101906101da9190611318565b6106d7565b005b6101e9610774565b005b61020560048036038101906102009190611318565b610909565b604051610212919061156d565b60405180910390f35b610223610aae565b005b61023f600480360381019061023a919061128f565b610b13565b005b610249610c00565b6040516102569190611520565b60405180910390f35b6102796004803603810190610274919061128f565b610c29565b005b6102956004803603810190610290919061128f565b610d15565b005b61029f610d68565b6040516102ac919061158f565b60405180910390f35b6102cf60048036038101906102ca919061128f565b610d7b565b005b6102d9610d8f565b600160149054906101000a900460ff1615610336576000600160146101000a81548160ff0219169083151502179055507f3be8a977a014527b50ae38adda80b56911c267328965c98ddc385d248f53963860405160405180910390a15b565b610340610d8f565b60005b8282905081101561047c5760008383838181106103635761036261183a565b5b9050602002016020810190610378919061128f565b9050600460008273ffffffffffffffffffffffffffffffffffffffff1673ffffffffffffffffffffffffffffffffffffffff16815260200190815260200160002060009054906101000a900460ff1615610468576000600460008373ffffffffffffffffffffffffffffffffffffffff1673ffffffffffffffffffffffffffffffffffffffff16815260200190815260200160002060006101000a81548160ff0219169083151502179055508073ffffffffffffffffffffffffffffffffffffffff167fd86728e2e5cbaa28c1d357b5fbccc9c1ab0add09950eb7cac42df9acb24c4bc860405160405180910390a25b508080610474906117c2565b915050610343565b505050565b600360009054906101000a900473ffffffffffffffffffffffffffffffffffffffff1681565b60006104f8336000368080601f016020809104026020016040519081016040528093929190818152602001838380828437600081840152601f19601f8201169050808301925050505050505061068d565b610537576040517f08c379a000000000000000000000000000000000000000000000000000000000815260040161052e90611625565b60405180910390fd5b600460008373ffffffffffffffffffffffffffffffffffffffff1673ffffffffffffffffffffffffffffffffffffffff16815260200190815260200160002060009054906101000a900460ff169050919050565b610593610d8f565b6000600360009054906101000a900473ffffffffffffffffffffffffffffffffffffffff1690508173ffffffffffffffffffffffffffffffffffffffff168173ffffffffffffffffffffffffffffffffffffffff16146106895781600360006101000a81548173ffffffffffffffffffffffffffffffffffffffff021916908373ffffffffffffffffffffffffffffffffffffffff1602179055508173ffffffffffffffffffffffffffffffffffffffff168173ffffffffffffffffffffffffffffffffffffffff167fbaf9ea078655a4fffefd08f9435677bbc91e457a6d015fe7de1d0e68b8802cac60405160405180910390a35b5050565b60006106998383610e1f565b806106cf57503273ffffffffffffffffffffffffffffffffffffffff168373ffffffffffffffffffffffffffffffffffffffff16145b905092915050565b6106df610e8e565b61071e576040517f08c379a000000000000000000000000000000000000000000000000000000000815260040161071590611605565b60405180910390fd5b60005b8282905081101561076f5761075c8383838181106107425761074161183a565b5b9050602002016020810190610757919061128f565b610f82565b8080610767906117c2565b915050610721565b505050565b600160009054906101000a900473ffffffffffffffffffffffffffffffffffffffff1673ffffffffffffffffffffffffffffffffffffffff163373ffffffffffffffffffffffffffffffffffffffff1614610804576040517f08c379a00000000000000000000000000000000000000000000000000000000081526004016107fb906115c5565b60405180910390fd5b60008060009054906101000a900473ffffffffffffffffffffffffffffffffffffffff169050336000806101000a81548173ffffffffffffffffffffffffffffffffffffffff021916908373ffffffffffffffffffffffffffffffffffffffff1602179055506000600160006101000a81548173ffffffffffffffffffffffffffffffffffffffff021916908373ffffffffffffffffffffffffffffffffffffffff1602179055503373ffffffffffffffffffffffffffffffffffffffff168173ffffffffffffffffffffffffffffffffffffffff167f8be0079c531659141344cd1fd0a4f28419497f9722a3daafe3b4186f6b6457e060405160405180910390a350565b606061095a336000368080601f016020809104026020016040519081016040528093929190818152602001838380828437600081840152601f19601f8201169050808301925050505050505061068d565b610999576040517f08c379a000000000000000000000000000000000000000000000000000000000815260040161099090611625565b60405180910390fd5b60008383905067ffffffffffffffff8111156109b8576109b7611869565b5b6040519080825280602002602001820160405280156109e65781602001602082028036833780820191505090505b50905060005b84849050811015610aa35760046000868684818110610a0e57610a0d61183a565b5b9050602002016020810190610a23919061128f565b73ffffffffffffffffffffffffffffffffffffffff1673ffffffffffffffffffffffffffffffffffffffff16815260200190815260200160002060009054906101000a900460ff16828281518110610a7e57610a7d61183a565b5b6020026020010190151590811515815250508080610a9b906117c2565b9150506109ec565b508091505092915050565b610ab6610d8f565b600160149054906101000a900460ff16610b115760018060146101000a81548160ff0219169083151502179055507faebf329500988c6488a0074e5a0a9ff304561fc5c6fc877aeb1d59c8282c348060405160405180910390a15b565b610b1b610d8f565b600260008273ffffffffffffffffffffffffffffffffffffffff1673ffffffffffffffffffffffffffffffffffffffff16815260200190815260200160002060009054906101000a900460ff1615610bfd576000600260008373ffffffffffffffffffffffffffffffffffffffff1673ffffffffffffffffffffffffffffffffffffffff16815260200190815260200160002060006101000a81548160ff0219169083151502179055507f3d68a6fce901d20453d1a7aa06bf3950302a735948037deb182a8db66df2a0d181604051610bf49190611520565b60405180910390a15b50565b60008060009054906101000a900473ffffffffffffffffffffffffffffffffffffffff16905090565b610c31610d8f565b600260008273ffffffffffffffffffffffffffffffffffffffff1673ffffffffffffffffffffffffffffffffffffffff16815260200190815260200160002060009054906101000a900460ff16610d12576001600260008373ffffffffffffffffffffffffffffffffffffffff1673ffffffffffffffffffffffffffffffffffffffff16815260200190815260200160002060006101000a81548160ff0219169083151502179055507f87286ad1f399c8e82bf0c4ef4fcdc570ea2e1e92176e5c848b6413545b885db481604051610d099190611520565b60405180910390a15b50565b610d1d610e8e565b610d5c576040517f08c379a0000000000000000000000000000000000000000000000000000000008152600401610d5390611605565b60405180910390fd5b610d6581610f82565b50565b600160149054906101000a900460ff1681565b610d83610d8f565b610d8c81611072565b50565b60008054906101000a900473ffffffffffffffffffffffffffffffffffffffff1673ffffffffffffffffffffffffffffffffffffffff163373ffffffffffffffffffffffffffffffffffffffff1614610e1d576040517f08c379a0000000000000000000000000000000000000000000000000000000008152600401610e14906115e5565b60405180910390fd5b565b6000600260008473ffffffffffffffffffffffffffffffffffffffff1673ffffffffffffffffffffffffffffffffffffffff16815260200190815260200160002060009054906101000a900460ff1680610e865750600160149054906101000a900460ff16155b905092915050565b6000610e98610c00565b73ffffffffffffffffffffffffffffffffffffffff163373ffffffffffffffffffffffffffffffffffffffff161480610f7d5750600360009054906101000a900473ffffffffffffffffffffffffffffffffffffffff1673ffffffffffffffffffffffffffffffffffffffff16636b14daf8336000366040518463ffffffff1660e01b8152600401610f2c9392919061153b565b60206040518083038186803b158015610f4457600080fd5b505afa158015610f58573d6000803e3d6000fd5b505050506040513d601f19601f82011682018060405250810190610f7c9190611365565b5b905090565b600460008273ffffffffffffffffffffffffffffffffffffffff1673ffffffffffffffffffffffffffffffffffffffff16815260200190815260200160002060009054906101000a900460ff1661106f576001600460008373ffffffffffffffffffffffffffffffffffffffff1673ffffffffffffffffffffffffffffffffffffffff16815260200190815260200160002060006101000a81548160ff0219169083151502179055508073ffffffffffffffffffffffffffffffffffffffff167f881febd4cd194dd4ace637642862aef1fb59a65c7e5551a5d9208f268d11c00660405160405180910390a25b50565b3373ffffffffffffffffffffffffffffffffffffffff168173ffffffffffffffffffffffffffffffffffffffff1614156110e1576040517f08c379a00000000000000000000000000000000000000000000000000000000081526004016110d890611645565b60405180910390fd5b80600160006101000a81548173ffffffffffffffffffffffffffffffffffffffff021916908373ffffffffffffffffffffffffffffffffffffffff1602179055508073ffffffffffffffffffffffffffffffffffffffff1660008054906101000a900473ffffffffffffffffffffffffffffffffffffffff1673ffffffffffffffffffffffffffffffffffffffff167fed8889f560326eb138920d842192f0eb3dd22b4f139c87a2c57538e05bae127860405160405180910390a350565b60006111b26111ad8461168a565b611665565b9050828152602081018484840111156111ce576111cd6118a7565b5b6111d9848285611782565b509392505050565b6000813590506111f081611994565b92915050565b60008083601f84011261120c5761120b61189d565b5b8235905067ffffffffffffffff81111561122957611228611898565b5b602083019150836020820283011115611245576112446118a2565b5b9250929050565b60008151905061125b816119ab565b92915050565b600082601f8301126112765761127561189d565b5b813561128684826020860161119f565b91505092915050565b6000602082840312156112a5576112a46118b1565b5b60006112b3848285016111e1565b91505092915050565b600080604083850312156112d3576112d26118b1565b5b60006112e1858286016111e1565b925050602083013567ffffffffffffffff811115611302576113016118ac565b5b61130e85828601611261565b9150509250929050565b6000806020838503121561132f5761132e6118b1565b5b600083013567ffffffffffffffff81111561134d5761134c6118ac565b5b611359858286016111f6565b92509250509250929050565b60006020828403121561137b5761137a6118b1565b5b60006113898482850161124c565b91505092915050565b600061139e8383611417565b60208301905092915050565b6113b381611716565b82525050565b60006113c4826116cb565b6113ce81856116e3565b93506113d9836116bb565b8060005b8381101561140a5781516113f18882611392565b97506113fc836116d6565b9250506001810190506113dd565b5085935050505092915050565b61142081611728565b82525050565b61142f81611728565b82525050565b600061144183856116f4565b935061144e838584611782565b611457836118b6565b840190509392505050565b61146b8161175e565b82525050565b600061147e601683611705565b9150611489826118c7565b602082019050919050565b60006114a1601683611705565b91506114ac826118f0565b602082019050919050565b60006114c4601a83611705565b91506114cf82611919565b602082019050919050565b60006114e7600983611705565b91506114f282611942565b602082019050919050565b600061150a601783611705565b91506115158261196b565b602082019050919050565b600060208201905061153560008301846113aa565b92915050565b600060408201905061155060008301866113aa565b8181036020830152611563818486611435565b9050949350505050565b6000602082019050818103600083015261158781846113b9565b905092915050565b60006020820190506115a46000830184611426565b92915050565b60006020820190506115bf6000830184611462565b92915050565b600060208201905081810360008301526115de81611471565b9050919050565b600060208201905081810360008301526115fe81611494565b9050919050565b6000602082019050818103600083015261161e816114b7565b9050919050565b6000602082019050818103600083015261163e816114da565b9050919050565b6000602082019050818103600083015261165e816114fd565b9050919050565b600061166f611680565b905061167b8282611791565b919050565b6000604051905090565b600067ffffffffffffffff8211156116a5576116a4611869565b5b6116ae826118b6565b9050602081019050919050565b6000819050602082019050919050565b600081519050919050565b6000602082019050919050565b600082825260208201905092915050565b600082825260208201905092915050565b600082825260208201905092915050565b600061172182611734565b9050919050565b60008115159050919050565b600073ffffffffffffffffffffffffffffffffffffffff82169050919050565b6000819050919050565b600061176982611770565b9050919050565b600061177b82611734565b9050919050565b82818337600083830152505050565b61179a826118b6565b810181811067ffffffffffffffff821117156117b9576117b8611869565b5b80604052505050565b60006117cd82611754565b91507fffffffffffffffffffffffffffffffffffffffffffffffffffffffffffffffff821415611800576117ff61180b565b5b600182019050919050565b7f4e487b7100000000000000000000000000000000000000000000000000000000600052601160045260246000fd5b7f4e487b7100000000000000000000000000000000000000000000000000000000600052603260045260246000fd5b7f4e487b7100000000000000000000000000000000000000000000000000000000600052604160045260246000fd5b600080fd5b600080fd5b600080fd5b600080fd5b600080fd5b600080fd5b6000601f19601f8301169050919050565b7f4d7573742062652070726f706f736564206f776e657200000000000000000000600082015250565b7f4f6e6c792063616c6c61626c65206279206f776e657200000000000000000000600082015250565b7f4e6f7420616c6c6f77656420746f20726169736520666c616773000000000000600082015250565b7f4e6f206163636573730000000000000000000000000000000000000000000000600082015250565b7f43616e6e6f74207472616e7366657220746f2073656c66000000000000000000600082015250565b61199d81611716565b81146119a857600080fd5b50565b6119b481611728565b81146119bf57600080fd5b5056fea2646970667358221220f5b787b7473c6771364bf19378551b9245ecffdbd56af762dd5d1c3fbbd32c6a64736f6c63430008060033",
  "linkReferences": {},
  "deployedLinkReferences": {}
}