{
  "_format": "hh-sol-artifact-1",
  "contractName": "BridgedNft",
  "sourceName": "contracts/BridgedNft.sol",
  "abi": [
    {
      "inputs": [
        {
          "internalType": "address",
          "name": "_wrapped",
          "type": "address"
        }
      ],
      "stateMutability": "nonpayable",
      "type": "constructor"
    },
    {
      "anonymous": false,
      "inputs": [
        {
          "indexed": true,
          "internalType": "address",
          "name": "owner",
          "type": "address"
        },
        {
          "indexed": true,
          "internalType": "address",
          "name": "approved",
          "type": "address"
        },
        {
          "indexed": true,
          "internalType": "uint256",
          "name": "tokenId",
          "type": "uint256"
        }
      ],
      "name": "Approval",
      "type": "event"
    },
    {
      "anonymous": false,
      "inputs": [
        {
          "indexed": true,
          "internalType": "address",
          "name": "owner",
          "type": "address"
        },
        {
          "indexed": true,
          "internalType": "address",
          "name": "operator",
          "type": "address"
        },
        {
          "indexed": false,
          "internalType": "bool",
          "name": "approved",
          "type": "bool"
        }
      ],
      "name": "ApprovalForAll",
      "type": "event"
    },
    {
      "anonymous": false,
      "inputs": [
        {
          "indexed": true,
          "internalType": "address",
          "name": "from",
          "type": "address"
        },
        {
          "indexed": true,
          "internalType": "address",
          "name": "to",
          "type": "address"
        },
        {
          "indexed": true,
          "internalType": "uint256",
          "name": "tokenId",
          "type": "uint256"
        }
      ],
      "name": "Transfer",
      "type": "event"
    },
    {
      "inputs": [
        {
          "internalType": "address",
          "name": "to",
          "type": "address"
        },
        {
          "internalType": "uint256",
          "name": "tokenId",
          "type": "uint256"
        }
      ],
      "name": "approve",
      "outputs": [],
      "stateMutability": "nonpayable",
      "type": "function"
    },
    {
      "inputs": [
        {
          "internalType": "address",
          "name": "owner",
          "type": "address"
        }
      ],
      "name": "balanceOf",
      "outputs": [
        {
          "internalType": "uint256",
          "name": "",
          "type": "uint256"
        }
      ],
      "stateMutability": "view",
      "type": "function"
    },
    {
      "inputs": [
        {
          "internalType": "uint256",
          "name": "tokenId",
          "type": "uint256"
        }
      ],
      "name": "getApproved",
      "outputs": [
        {
          "internalType": "address",
          "name": "",
          "type": "address"
        }
      ],
      "stateMutability": "view",
      "type": "function"
    },
    {
      "inputs": [
        {
          "internalType": "address",
          "name": "owner",
          "type": "address"
        },
        {
          "internalType": "address",
          "name": "operator",
          "type": "address"
        }
      ],
      "name": "isApprovedForAll",
      "outputs": [
        {
          "internalType": "bool",
          "name": "",
          "type": "bool"
        }
      ],
      "stateMutability": "view",
      "type": "function"
    },
    {
      "inputs": [
        {
          "internalType": "uint256",
          "name": "id",
          "type": "uint256"
        }
      ],
      "name": "mint",
      "outputs": [],
      "stateMutability": "nonpayable",
      "type": "function"
    },
    {
      "inputs": [],
      "name": "name",
      "outputs": [
        {
          "internalType": "string",
          "name": "",
          "type": "string"
        }
      ],
      "stateMutability": "view",
      "type": "function"
    },
    {
      "inputs": [
        {
          "internalType": "uint256",
          "name": "tokenId",
          "type": "uint256"
        }
      ],
      "name": "ownerOf",
      "outputs": [
        {
          "internalType": "address",
          "name": "",
          "type": "address"
        }
      ],
      "stateMutability": "view",
      "type": "function"
    },
    {
      "inputs": [
        {
          "internalType": "address",
          "name": "from",
          "type": "address"
        },
        {
          "internalType": "address",
          "name": "to",
          "type": "address"
        },
        {
          "internalType": "uint256",
          "name": "tokenId",
          "type": "uint256"
        }
      ],
      "name": "safeTransferFrom",
      "outputs": [],
      "stateMutability": "nonpayable",
      "type": "function"
    },
    {
      "inputs": [
        {
          "internalType": "address",
          "name": "from",
          "type": "address"
        },
        {
          "internalType": "address",
          "name": "to",
          "type": "address"
        },
        {
          "internalType": "uint256",
          "name": "tokenId",
          "type": "uint256"
        },
        {
          "internalType": "bytes",
          "name": "_data",
          "type": "bytes"
        }
      ],
      "name": "safeTransferFrom",
      "outputs": [],
      "stateMutability": "nonpayable",
      "type": "function"
    },
    {
      "inputs": [
        {
          "internalType": "address",
          "name": "operator",
          "type": "address"
        },
        {
          "internalType": "bool",
          "name": "approved",
          "type": "bool"
        }
      ],
      "name": "setApprovalForAll",
      "outputs": [],
      "stateMutability": "nonpayable",
      "type": "function"
    },
    {
      "inputs": [
        {
          "internalType": "bytes4",
          "name": "interfaceId",
          "type": "bytes4"
        }
      ],
      "name": "supportsInterface",
      "outputs": [
        {
          "internalType": "bool",
          "name": "",
          "type": "bool"
        }
      ],
      "stateMutability": "view",
      "type": "function"
    },
    {
      "inputs": [],
      "name": "symbol",
      "outputs": [
        {
          "internalType": "string",
          "name": "",
          "type": "string"
        }
      ],
      "stateMutability": "view",
      "type": "function"
    },
    {
      "inputs": [
        {
          "internalType": "uint256",
          "name": "tokenId",
          "type": "uint256"
        }
      ],
      "name": "tokenURI",
      "outputs": [
        {
          "internalType": "string",
          "name": "",
          "type": "string"
        }
      ],
      "stateMutability": "view",
      "type": "function"
    },
    {
      "inputs": [
        {
          "internalType": "address",
          "name": "from",
          "type": "address"
        },
        {
          "internalType": "address",
          "name": "to",
          "type": "address"
        },
        {
          "internalType": "uint256",
          "name": "tokenId",
          "type": "uint256"
        }
      ],
      "name": "transferFrom",
      "outputs": [],
      "stateMutability": "nonpayable",
      "type": "function"
    },
    {
      "inputs": [
        {
          "internalType": "uint256",
          "name": "id",
          "type": "uint256"
        }
      ],
      "name": "withdraw",
      "outputs": [
        {
          "internalType": "uint256",
          "name": "",
          "type": "uint256"
        }
      ],
      "stateMutability": "nonpayable",
      "type": "function"
    },
    {
      "inputs": [],
      "name": "wrapped",
      "outputs": [
        {
          "internalType": "address",
          "name": "",
          "type": "address"
        }
      ],
      "stateMutability": "view",
      "type": "function"
    }
  ],
  "bytecode": "0x60806040523480156200001157600080fd5b5060405162002f6f38038062002f6f833981810160405281019062000037919062000259565b6040518060400160405280600981526020017f5363617065204e465400000000000000000000000000000000000000000000008152506040518060400160405280600681526020017f53434150455300000000000000000000000000000000000000000000000000008152508160009080519060200190620000bb92919062000192565b508060019080519060200190620000d492919062000192565b505050600073ffffffffffffffffffffffffffffffffffffffff168173ffffffffffffffffffffffffffffffffffffffff1614156200014a576040517f08c379a00000000000000000000000000000000000000000000000000000000081526004016200014190620002c7565b60405180910390fd5b80600760006101000a81548173ffffffffffffffffffffffffffffffffffffffff021916908373ffffffffffffffffffffffffffffffffffffffff16021790555050620003ad565b828054620001a0906200032e565b90600052602060002090601f016020900481019282620001c4576000855562000210565b82601f10620001df57805160ff191683800117855562000210565b8280016001018555821562000210579182015b828111156200020f578251825591602001919060010190620001f2565b5b5090506200021f919062000223565b5090565b5b808211156200023e57600081600090555060010162000224565b5090565b600081519050620002538162000393565b92915050565b6000602082840312156200026c57600080fd5b60006200027c8482850162000242565b91505092915050565b600062000294600c83620002e9565b91507f5a45524f5f4144445245535300000000000000000000000000000000000000006000830152602082019050919050565b60006020820190508181036000830152620002e28162000285565b9050919050565b600082825260208201905092915050565b600062000307826200030e565b9050919050565b600073ffffffffffffffffffffffffffffffffffffffff82169050919050565b600060028204905060018216806200034757607f821691505b602082108114156200035e576200035d62000364565b5b50919050565b7f4e487b7100000000000000000000000000000000000000000000000000000000600052602260045260246000fd5b6200039e81620002fa565b8114620003aa57600080fd5b50565b612bb280620003bd6000396000f3fe608060405234801561001057600080fd5b50600436106101005760003560e01c80636352211e11610097578063a22cb46511610066578063a22cb465146102bf578063b88d4fde146102db578063c87b56dd146102f7578063e985e9c51461032757610100565b80636352211e1461022557806370a082311461025557806395d89b4114610285578063a0712d68146102a357610100565b806323b872dd116100d357806323b872dd1461019f5780632e1a7d4d146101bb57806342842e0e146101eb57806350e70d481461020757610100565b806301ffc9a71461010557806306fdde0314610135578063081812fc14610153578063095ea7b314610183575b600080fd5b61011f600480360381019061011a9190611d3c565b610357565b60405161012c919061251a565b60405180910390f35b61013d610439565b60405161014a9190612535565b60405180910390f35b61016d60048036038101906101689190611d8e565b6104cb565b60405161017a91906124b3565b60405180910390f35b61019d60048036038101906101989190611d00565b610550565b005b6101b960048036038101906101b49190611bfa565b610668565b005b6101d560048036038101906101d09190611d8e565b6106c8565b6040516101e29190612777565b60405180910390f35b61020560048036038101906102009190611bfa565b610793565b005b61020f6107b3565b60405161021c91906124b3565b60405180910390f35b61023f600480360381019061023a9190611d8e565b6107d9565b60405161024c91906124b3565b60405180910390f35b61026f600480360381019061026a9190611b95565b61088b565b60405161027c9190612777565b60405180910390f35b61028d610943565b60405161029a9190612535565b60405180910390f35b6102bd60048036038101906102b89190611d8e565b6109d5565b005b6102d960048036038101906102d49190611cc4565b610a25565b005b6102f560048036038101906102f09190611c49565b610ba6565b005b610311600480360381019061030c9190611d8e565b610c08565b60405161031e9190612535565b60405180910390f35b610341600480360381019061033c9190611bbe565b610d5a565b60405161034e919061251a565b60405180910390f35b60007f80ac58cd000000000000000000000000000000000000000000000000000000007bffffffffffffffffffffffffffffffffffffffffffffffffffffffff1916827bffffffffffffffffffffffffffffffffffffffffffffffffffffffff1916148061042257507f5b5e139f000000000000000000000000000000000000000000000000000000007bffffffffffffffffffffffffffffffffffffffffffffffffffffffff1916827bffffffffffffffffffffffffffffffffffffffffffffffffffffffff1916145b80610432575061043182610dee565b5b9050919050565b606060008054610448906129a7565b80601f0160208091040260200160405190810160405280929190818152602001828054610474906129a7565b80156104c15780601f10610496576101008083540402835291602001916104c1565b820191906000526020600020905b8154815290600101906020018083116104a457829003601f168201915b5050505050905090565b60006104d682610e58565b610515576040517f08c379a000000000000000000000000000000000000000000000000000000000815260040161050c906126b7565b60405180910390fd5b6004600083815260200190815260200160002060009054906101000a900473ffffffffffffffffffffffffffffffffffffffff169050919050565b600061055b826107d9565b90508073ffffffffffffffffffffffffffffffffffffffff168373ffffffffffffffffffffffffffffffffffffffff1614156105cc576040517f08c379a00000000000000000000000000000000000000000000000000000000081526004016105c390612717565b60405180910390fd5b8073ffffffffffffffffffffffffffffffffffffffff166105eb610ec4565b73ffffffffffffffffffffffffffffffffffffffff16148061061a575061061981610614610ec4565b610d5a565b5b610659576040517f08c379a0000000000000000000000000000000000000000000000000000000008152600401610650906125f7565b60405180910390fd5b6106638383610ecc565b505050565b610679610673610ec4565b82610f85565b6106b8576040517f08c379a00000000000000000000000000000000000000000000000000000000081526004016106af90612737565b60405180910390fd5b6106c3838383611063565b505050565b600080821161070c576040517f08c379a000000000000000000000000000000000000000000000000000000000815260040161070390612657565b60405180910390fd5b3373ffffffffffffffffffffffffffffffffffffffff1661072c836107d9565b73ffffffffffffffffffffffffffffffffffffffff1614610782576040517f08c379a000000000000000000000000000000000000000000000000000000000815260040161077990612757565b60405180910390fd5b61078b826112bf565b819050919050565b6107ae83838360405180602001604052806000815250610ba6565b505050565b600760009054906101000a900473ffffffffffffffffffffffffffffffffffffffff1681565b6000806002600084815260200190815260200160002060009054906101000a900473ffffffffffffffffffffffffffffffffffffffff169050600073ffffffffffffffffffffffffffffffffffffffff168173ffffffffffffffffffffffffffffffffffffffff161415610882576040517f08c379a000000000000000000000000000000000000000000000000000000000815260040161087990612637565b60405180910390fd5b80915050919050565b60008073ffffffffffffffffffffffffffffffffffffffff168273ffffffffffffffffffffffffffffffffffffffff1614156108fc576040517f08c379a00000000000000000000000000000000000000000000000000000000081526004016108f390612617565b60405180910390fd5b600360008373ffffffffffffffffffffffffffffffffffffffff1673ffffffffffffffffffffffffffffffffffffffff168152602001908152602001600020549050919050565b606060018054610952906129a7565b80601f016020809104026020016040519081016040528092919081815260200182805461097e906129a7565b80156109cb5780601f106109a0576101008083540402835291602001916109cb565b820191906000526020600020905b8154815290600101906020018083116109ae57829003601f168201915b5050505050905090565b60008111610a18576040517f08c379a0000000000000000000000000000000000000000000000000000000008152600401610a0f90612657565b60405180910390fd5b610a223382611312565b50565b610a2d610ec4565b73ffffffffffffffffffffffffffffffffffffffff168273ffffffffffffffffffffffffffffffffffffffff161415610a9b576040517f08c379a0000000000000000000000000000000000000000000000000000000008152600401610a92906125b7565b60405180910390fd5b8060056000610aa8610ec4565b73ffffffffffffffffffffffffffffffffffffffff1673ffffffffffffffffffffffffffffffffffffffff16815260200190815260200160002060008473ffffffffffffffffffffffffffffffffffffffff1673ffffffffffffffffffffffffffffffffffffffff16815260200190815260200160002060006101000a81548160ff0219169083151502179055508173ffffffffffffffffffffffffffffffffffffffff16610b55610ec4565b73ffffffffffffffffffffffffffffffffffffffff167f17307eab39ab6107e8899845ad3d59bd9653f200f220920489ca2b5937696c3183604051610b9a919061251a565b60405180910390a35050565b610bb7610bb1610ec4565b83610f85565b610bf6576040517f08c379a0000000000000000000000000000000000000000000000000000000008152600401610bed90612737565b60405180910390fd5b610c02848484846114e0565b50505050565b6060610c1382610e58565b610c52576040517f08c379a0000000000000000000000000000000000000000000000000000000008152600401610c4990612697565b60405180910390fd5b6000600660008481526020019081526020016000208054610c72906129a7565b80601f0160208091040260200160405190810160405280929190818152602001828054610c9e906129a7565b8015610ceb5780601f10610cc057610100808354040283529160200191610ceb565b820191906000526020600020905b815481529060010190602001808311610cce57829003601f168201915b505050505090506000610cfc61153c565b9050600081511415610d12578192505050610d55565b600082511115610d47578082604051602001610d2f92919061248f565b60405160208183030381529060405292505050610d55565b610d5084611553565b925050505b919050565b6000600560008473ffffffffffffffffffffffffffffffffffffffff1673ffffffffffffffffffffffffffffffffffffffff16815260200190815260200160002060008373ffffffffffffffffffffffffffffffffffffffff1673ffffffffffffffffffffffffffffffffffffffff16815260200190815260200160002060009054906101000a900460ff16905092915050565b60007f01ffc9a7000000000000000000000000000000000000000000000000000000007bffffffffffffffffffffffffffffffffffffffffffffffffffffffff1916827bffffffffffffffffffffffffffffffffffffffffffffffffffffffff1916149050919050565b60008073ffffffffffffffffffffffffffffffffffffffff166002600084815260200190815260200160002060009054906101000a900473ffffffffffffffffffffffffffffffffffffffff1673ffffffffffffffffffffffffffffffffffffffff1614159050919050565b600033905090565b816004600083815260200190815260200160002060006101000a81548173ffffffffffffffffffffffffffffffffffffffff021916908373ffffffffffffffffffffffffffffffffffffffff160217905550808273ffffffffffffffffffffffffffffffffffffffff16610f3f836107d9565b73ffffffffffffffffffffffffffffffffffffffff167f8c5be1e5ebec7d5bd14f71427d1e84f3dd0314c0f7b2291e5b200ac8c7c3b92560405160405180910390a45050565b6000610f9082610e58565b610fcf576040517f08c379a0000000000000000000000000000000000000000000000000000000008152600401610fc6906125d7565b60405180910390fd5b6000610fda836107d9565b90508073ffffffffffffffffffffffffffffffffffffffff168473ffffffffffffffffffffffffffffffffffffffff16148061104957508373ffffffffffffffffffffffffffffffffffffffff16611031846104cb565b73ffffffffffffffffffffffffffffffffffffffff16145b8061105a57506110598185610d5a565b5b91505092915050565b8273ffffffffffffffffffffffffffffffffffffffff16611083826107d9565b73ffffffffffffffffffffffffffffffffffffffff16146110d9576040517f08c379a00000000000000000000000000000000000000000000000000000000081526004016110d0906126d7565b60405180910390fd5b600073ffffffffffffffffffffffffffffffffffffffff168273ffffffffffffffffffffffffffffffffffffffff161415611149576040517f08c379a000000000000000000000000000000000000000000000000000000000815260040161114090612597565b60405180910390fd5b6111548383836115fa565b61115f600082610ecc565b6001600360008573ffffffffffffffffffffffffffffffffffffffff1673ffffffffffffffffffffffffffffffffffffffff16815260200190815260200160002060008282546111af91906128bd565b925050819055506001600360008473ffffffffffffffffffffffffffffffffffffffff1673ffffffffffffffffffffffffffffffffffffffff16815260200190815260200160002060008282546112069190612836565b92505081905550816002600083815260200190815260200160002060006101000a81548173ffffffffffffffffffffffffffffffffffffffff021916908373ffffffffffffffffffffffffffffffffffffffff160217905550808273ffffffffffffffffffffffffffffffffffffffff168473ffffffffffffffffffffffffffffffffffffffff167fddf252ad1be2c89b69c2b068fc378daa952ba7f163c4a11628f55a4df523b3ef60405160405180910390a4505050565b6112c8816115ff565b60006006600083815260200190815260200160002080546112e8906129a7565b90501461130f5760066000828152602001908152602001600020600061130e9190611a67565b5b50565b600073ffffffffffffffffffffffffffffffffffffffff168273ffffffffffffffffffffffffffffffffffffffff161415611382576040517f08c379a000000000000000000000000000000000000000000000000000000000815260040161137990612677565b60405180910390fd5b61138b81610e58565b156113cb576040517f08c379a00000000000000000000000000000000000000000000000000000000081526004016113c290612577565b60405180910390fd5b6113d7600083836115fa565b6001600360008473ffffffffffffffffffffffffffffffffffffffff1673ffffffffffffffffffffffffffffffffffffffff16815260200190815260200160002060008282546114279190612836565b92505081905550816002600083815260200190815260200160002060006101000a81548173ffffffffffffffffffffffffffffffffffffffff021916908373ffffffffffffffffffffffffffffffffffffffff160217905550808273ffffffffffffffffffffffffffffffffffffffff16600073ffffffffffffffffffffffffffffffffffffffff167fddf252ad1be2c89b69c2b068fc378daa952ba7f163c4a11628f55a4df523b3ef60405160405180910390a45050565b6114eb848484611063565b6114f784848484611710565b611536576040517f08c379a000000000000000000000000000000000000000000000000000000000815260040161152d90612557565b60405180910390fd5b50505050565b606060405180602001604052806000815250905090565b606061155e82610e58565b61159d576040517f08c379a0000000000000000000000000000000000000000000000000000000008152600401611594906126f7565b60405180910390fd5b60006115a761153c565b905060008151116115c757604051806020016040528060008152506115f2565b806115d1846118a7565b6040516020016115e292919061248f565b6040516020818303038152906040525b915050919050565b505050565b600061160a826107d9565b9050611618816000846115fa565b611623600083610ecc565b6001600360008373ffffffffffffffffffffffffffffffffffffffff1673ffffffffffffffffffffffffffffffffffffffff168152602001908152602001600020600082825461167391906128bd565b925050819055506002600083815260200190815260200160002060006101000a81549073ffffffffffffffffffffffffffffffffffffffff021916905581600073ffffffffffffffffffffffffffffffffffffffff168273ffffffffffffffffffffffffffffffffffffffff167fddf252ad1be2c89b69c2b068fc378daa952ba7f163c4a11628f55a4df523b3ef60405160405180910390a45050565b60006117318473ffffffffffffffffffffffffffffffffffffffff16611a54565b1561189a578373ffffffffffffffffffffffffffffffffffffffff1663150b7a0261175a610ec4565b8786866040518563ffffffff1660e01b815260040161177c94939291906124ce565b602060405180830381600087803b15801561179657600080fd5b505af19250505080156117c757506040513d601f19601f820116820180604052508101906117c49190611d65565b60015b61184a573d80600081146117f7576040519150601f19603f3d011682016040523d82523d6000602084013e6117fc565b606091505b50600081511415611842576040517f08c379a000000000000000000000000000000000000000000000000000000000815260040161183990612557565b60405180910390fd5b805181602001fd5b63150b7a0260e01b7bffffffffffffffffffffffffffffffffffffffffffffffffffffffff1916817bffffffffffffffffffffffffffffffffffffffffffffffffffffffff19161491505061189f565b600190505b949350505050565b606060008214156118ef576040518060400160405280600181526020017f30000000000000000000000000000000000000000000000000000000000000008152509050611a4f565b600082905060005b6000821461192157808061190a906129d9565b915050600a8261191a919061288c565b91506118f7565b60008167ffffffffffffffff811115611963577f4e487b7100000000000000000000000000000000000000000000000000000000600052604160045260246000fd5b6040519080825280601f01601f1916602001820160405280156119955781602001600182028036833780820191505090505b5090505b60008514611a48576001826119ae91906128bd565b9150600a856119bd9190612a22565b60306119c99190612836565b60f81b818381518110611a05577f4e487b7100000000000000000000000000000000000000000000000000000000600052603260045260246000fd5b60200101907effffffffffffffffffffffffffffffffffffffffffffffffffffffffffffff1916908160001a905350600a85611a41919061288c565b9450611999565b8093505050505b919050565b600080823b905060008111915050919050565b508054611a73906129a7565b6000825580601f10611a855750611aa4565b601f016020900490600052602060002090810190611aa39190611aa7565b5b50565b5b80821115611ac0576000816000905550600101611aa8565b5090565b6000611ad7611ad2846127c3565b612792565b905082815260208101848484011115611aef57600080fd5b611afa848285612965565b509392505050565b600081359050611b1181612b20565b92915050565b600081359050611b2681612b37565b92915050565b600081359050611b3b81612b4e565b92915050565b600081519050611b5081612b4e565b92915050565b600082601f830112611b6757600080fd5b8135611b77848260208601611ac4565b91505092915050565b600081359050611b8f81612b65565b92915050565b600060208284031215611ba757600080fd5b6000611bb584828501611b02565b91505092915050565b60008060408385031215611bd157600080fd5b6000611bdf85828601611b02565b9250506020611bf085828601611b02565b9150509250929050565b600080600060608486031215611c0f57600080fd5b6000611c1d86828701611b02565b9350506020611c2e86828701611b02565b9250506040611c3f86828701611b80565b9150509250925092565b60008060008060808587031215611c5f57600080fd5b6000611c6d87828801611b02565b9450506020611c7e87828801611b02565b9350506040611c8f87828801611b80565b925050606085013567ffffffffffffffff811115611cac57600080fd5b611cb887828801611b56565b91505092959194509250565b60008060408385031215611cd757600080fd5b6000611ce585828601611b02565b9250506020611cf685828601611b17565b9150509250929050565b60008060408385031215611d1357600080fd5b6000611d2185828601611b02565b9250506020611d3285828601611b80565b9150509250929050565b600060208284031215611d4e57600080fd5b6000611d5c84828501611b2c565b91505092915050565b600060208284031215611d7757600080fd5b6000611d8584828501611b41565b91505092915050565b600060208284031215611da057600080fd5b6000611dae84828501611b80565b91505092915050565b611dc0816128f1565b82525050565b611dcf81612903565b82525050565b6000611de0826127f3565b611dea8185612809565b9350611dfa818560208601612974565b611e0381612b0f565b840191505092915050565b6000611e19826127fe565b611e23818561281a565b9350611e33818560208601612974565b611e3c81612b0f565b840191505092915050565b6000611e52826127fe565b611e5c818561282b565b9350611e6c818560208601612974565b80840191505092915050565b6000611e8560328361281a565b91507f4552433732313a207472616e7366657220746f206e6f6e20455243373231526560008301527f63656976657220696d706c656d656e74657200000000000000000000000000006020830152604082019050919050565b6000611eeb601c8361281a565b91507f4552433732313a20746f6b656e20616c7265616479206d696e746564000000006000830152602082019050919050565b6000611f2b60248361281a565b91507f4552433732313a207472616e7366657220746f20746865207a65726f2061646460008301527f72657373000000000000000000000000000000000000000000000000000000006020830152604082019050919050565b6000611f9160198361281a565b91507f4552433732313a20617070726f766520746f2063616c6c6572000000000000006000830152602082019050919050565b6000611fd1602c8361281a565b91507f4552433732313a206f70657261746f7220717565727920666f72206e6f6e657860008301527f697374656e7420746f6b656e00000000000000000000000000000000000000006020830152604082019050919050565b600061203760388361281a565b91507f4552433732313a20617070726f76652063616c6c6572206973206e6f74206f7760008301527f6e6572206e6f7220617070726f76656420666f7220616c6c00000000000000006020830152604082019050919050565b600061209d602a8361281a565b91507f4552433732313a2062616c616e636520717565727920666f7220746865207a6560008301527f726f2061646472657373000000000000000000000000000000000000000000006020830152604082019050919050565b600061210360298361281a565b91507f4552433732313a206f776e657220717565727920666f72206e6f6e657869737460008301527f656e7420746f6b656e00000000000000000000000000000000000000000000006020830152604082019050919050565b600061216960108361281a565b91507f494e56414c49445f544f4b454e5f4944000000000000000000000000000000006000830152602082019050919050565b60006121a960208361281a565b91507f4552433732313a206d696e7420746f20746865207a65726f20616464726573736000830152602082019050919050565b60006121e960318361281a565b91507f45524337323155524953746f726167653a2055524920717565727920666f722060008301527f6e6f6e6578697374656e7420746f6b656e0000000000000000000000000000006020830152604082019050919050565b600061224f602c8361281a565b91507f4552433732313a20617070726f76656420717565727920666f72206e6f6e657860008301527f697374656e7420746f6b656e00000000000000000000000000000000000000006020830152604082019050919050565b60006122b560298361281a565b91507f4552433732313a207472616e73666572206f6620746f6b656e2074686174206960008301527f73206e6f74206f776e00000000000000000000000000000000000000000000006020830152604082019050919050565b600061231b602f8361281a565b91507f4552433732314d657461646174613a2055524920717565727920666f72206e6f60008301527f6e6578697374656e7420746f6b656e00000000000000000000000000000000006020830152604082019050919050565b600061238160218361281a565b91507f4552433732313a20617070726f76616c20746f2063757272656e74206f776e6560008301527f72000000000000000000000000000000000000000000000000000000000000006020830152604082019050919050565b60006123e760318361281a565b91507f4552433732313a207472616e736665722063616c6c6572206973206e6f74206f60008301527f776e6572206e6f7220617070726f7665640000000000000000000000000000006020830152604082019050919050565b600061244d60098361281a565b91507f4e4f545f4f574e455200000000000000000000000000000000000000000000006000830152602082019050919050565b6124898161295b565b82525050565b600061249b8285611e47565b91506124a78284611e47565b91508190509392505050565b60006020820190506124c86000830184611db7565b92915050565b60006080820190506124e36000830187611db7565b6124f06020830186611db7565b6124fd6040830185612480565b818103606083015261250f8184611dd5565b905095945050505050565b600060208201905061252f6000830184611dc6565b92915050565b6000602082019050818103600083015261254f8184611e0e565b905092915050565b6000602082019050818103600083015261257081611e78565b9050919050565b6000602082019050818103600083015261259081611ede565b9050919050565b600060208201905081810360008301526125b081611f1e565b9050919050565b600060208201905081810360008301526125d081611f84565b9050919050565b600060208201905081810360008301526125f081611fc4565b9050919050565b600060208201905081810360008301526126108161202a565b9050919050565b6000602082019050818103600083015261263081612090565b9050919050565b60006020820190508181036000830152612650816120f6565b9050919050565b600060208201905081810360008301526126708161215c565b9050919050565b600060208201905081810360008301526126908161219c565b9050919050565b600060208201905081810360008301526126b0816121dc565b9050919050565b600060208201905081810360008301526126d081612242565b9050919050565b600060208201905081810360008301526126f0816122a8565b9050919050565b600060208201905081810360008301526127108161230e565b9050919050565b6000602082019050818103600083015261273081612374565b9050919050565b60006020820190508181036000830152612750816123da565b9050919050565b6000602082019050818103600083015261277081612440565b9050919050565b600060208201905061278c6000830184612480565b92915050565b6000604051905081810181811067ffffffffffffffff821117156127b9576127b8612ae0565b5b8060405250919050565b600067ffffffffffffffff8211156127de576127dd612ae0565b5b601f19601f8301169050602081019050919050565b600081519050919050565b600081519050919050565b600082825260208201905092915050565b600082825260208201905092915050565b600081905092915050565b60006128418261295b565b915061284c8361295b565b9250827fffffffffffffffffffffffffffffffffffffffffffffffffffffffffffffffff0382111561288157612880612a53565b5b828201905092915050565b60006128978261295b565b91506128a28361295b565b9250826128b2576128b1612a82565b5b828204905092915050565b60006128c88261295b565b91506128d38361295b565b9250828210156128e6576128e5612a53565b5b828203905092915050565b60006128fc8261293b565b9050919050565b60008115159050919050565b60007fffffffff0000000000000000000000000000000000000000000000000000000082169050919050565b600073ffffffffffffffffffffffffffffffffffffffff82169050919050565b6000819050919050565b82818337600083830152505050565b60005b83811015612992578082015181840152602081019050612977565b838111156129a1576000848401525b50505050565b600060028204905060018216806129bf57607f821691505b602082108114156129d3576129d2612ab1565b5b50919050565b60006129e48261295b565b91507fffffffffffffffffffffffffffffffffffffffffffffffffffffffffffffffff821415612a1757612a16612a53565b5b600182019050919050565b6000612a2d8261295b565b9150612a388361295b565b925082612a4857612a47612a82565b5b828206905092915050565b7f4e487b7100000000000000000000000000000000000000000000000000000000600052601160045260246000fd5b7f4e487b7100000000000000000000000000000000000000000000000000000000600052601260045260246000fd5b7f4e487b7100000000000000000000000000000000000000000000000000000000600052602260045260246000fd5b7f4e487b7100000000000000000000000000000000000000000000000000000000600052604160045260246000fd5b6000601f19601f8301169050919050565b612b29816128f1565b8114612b3457600080fd5b50565b612b4081612903565b8114612b4b57600080fd5b50565b612b578161290f565b8114612b6257600080fd5b50565b612b6e8161295b565b8114612b7957600080fd5b5056fea264697066735822122015bbd1afa2b13256ed99e012ce032567ee422aea536fe93962aaf383dadd92de64736f6c63430008000033",
  "linkReferences": {},
  "deployedLinkReferences": {}
}