{
  "_format": "hh-sol-artifact-1",
  "contractName": "MockAggregatorValidator",
  "sourceName": "contracts/chainlink/v0.8/mocks/MockAggregatorValidator.sol",
  "abi": [
    {
      "inputs": [
        {
          "internalType": "uint8",
          "name": "id_",
          "type": "uint8"
        }
      ],
      "stateMutability": "nonpayable",
      "type": "constructor"
    },
    {
      "anonymous": false,
      "inputs": [
        {
          "indexed": false,
          "internalType": "uint8",
          "name": "id",
          "type": "uint8"
        },
        {
          "indexed": false,
          "internalType": "uint256",
          "name": "previousRoundId",
          "type": "uint256"
        },
        {
          "indexed": false,
          "internalType": "int256",
          "name": "previousAnswer",
          "type": "int256"
        },
        {
          "indexed": false,
          "internalType": "uint256",
          "name": "currentRoundId",
          "type": "uint256"
        },
        {
          "indexed": false,
          "internalType": "int256",
          "name": "currentAnswer",
          "type": "int256"
        }
      ],
      "name": "ValidateCalled",
      "type": "event"
    },
    {
      "inputs": [
        {
          "internalType": "uint256",
          "name": "previousRoundId",
          "type": "uint256"
        },
        {
          "internalType": "int256",
          "name": "previousAnswer",
          "type": "int256"
        },
        {
          "internalType": "uint256",
          "name": "currentRoundId",
          "type": "uint256"
        },
        {
          "internalType": "int256",
          "name": "currentAnswer",
          "type": "int256"
        }
      ],
      "name": "validate",
      "outputs": [
        {
          "internalType": "bool",
          "name": "",
          "type": "bool"
        }
      ],
      "stateMutability": "nonpayable",
      "type": "function"
    }
  ],
  "bytecode": "0x60a060405234801561001057600080fd5b5060405161036f38038061036f8339818101604052810190610032919061005e565b8060ff1660808160ff1660f81b81525050506100b4565b6000815190506100588161009d565b92915050565b60006020828403121561007457610073610098565b5b600061008284828501610049565b91505092915050565b600060ff82169050919050565b600080fd5b6100a68161008b565b81146100b157600080fd5b50565b60805160f81c61029e6100d160003960006085015261029e6000f3fe608060405234801561001057600080fd5b506004361061002b5760003560e01c8063beed9b5114610030575b600080fd5b61004a600480360381019061004591906100f7565b610060565b604051610057919061019a565b60405180910390f35b60007f9ef8f58acca419d2e95bed9bdae0cb763fe14db033353f206cded59ef3359d5d7f0000000000000000000000000000000000000000000000000000000000000000868686866040516100b99594939291906101b5565b60405180910390a160019050949350505050565b6000813590506100dc8161023a565b92915050565b6000813590506100f181610251565b92915050565b6000806000806080858703121561011157610110610235565b5b600061011f878288016100e2565b9450506020610130878288016100cd565b9350506040610141878288016100e2565b9250506060610152878288016100cd565b91505092959194509250565b61016781610208565b82525050565b61017681610214565b82525050565b6101858161021e565b82525050565b61019481610228565b82525050565b60006020820190506101af600083018461015e565b92915050565b600060a0820190506101ca600083018861018b565b6101d7602083018761017c565b6101e4604083018661016d565b6101f1606083018561017c565b6101fe608083018461016d565b9695505050505050565b60008115159050919050565b6000819050919050565b6000819050919050565b600060ff82169050919050565b600080fd5b61024381610214565b811461024e57600080fd5b50565b61025a8161021e565b811461026557600080fd5b5056fea264697066735822122082f2d88a4d93b22f9e1aa0d50822ac1e5f4041a2d7a6185da0190dde7044ac0f64736f6c63430008060033",
  "linkReferences": {},
  "deployedLinkReferences": {}
}