{
  "_format": "hh-sol-artifact-1",
  "contractName": "ChainlinkTestHelper",
  "sourceName": "contracts/chainlink/v0.8/tests/ChainlinkTestHelper.sol",
  "abi": [
    {
      "anonymous": false,
      "inputs": [
        {
          "indexed": false,
          "internalType": "bytes",
          "name": "payload",
          "type": "bytes"
        }
      ],
      "name": "RequestData",
      "type": "event"
    },
    {
      "inputs": [
        {
          "internalType": "string",
          "name": "_key",
          "type": "string"
        },
        {
          "internalType": "string",
          "name": "_value",
          "type": "string"
        }
      ],
      "name": "add",
      "outputs": [],
      "stateMutability": "nonpayable",
      "type": "function"
    },
    {
      "inputs": [
        {
          "internalType": "string",
          "name": "_key",
          "type": "string"
        },
        {
          "internalType": "bytes",
          "name": "_value",
          "type": "bytes"
        }
      ],
      "name": "addBytes",
      "outputs": [],
      "stateMutability": "nonpayable",
      "type": "function"
    },
    {
      "inputs": [
        {
          "internalType": "string",
          "name": "_key",
          "type": "string"
        },
        {
          "internalType": "int256",
          "name": "_value",
          "type": "int256"
        }
      ],
      "name": "addInt",
      "outputs": [],
      "stateMutability": "nonpayable",
      "type": "function"
    },
    {
      "inputs": [
        {
          "internalType": "string",
          "name": "_key",
          "type": "string"
        },
        {
          "internalType": "string[]",
          "name": "_values",
          "type": "string[]"
        }
      ],
      "name": "addStringArray",
      "outputs": [],
      "stateMutability": "nonpayable",
      "type": "function"
    },
    {
      "inputs": [
        {
          "internalType": "string",
          "name": "_key",
          "type": "string"
        },
        {
          "internalType": "uint256",
          "name": "_value",
          "type": "uint256"
        }
      ],
      "name": "addUint",
      "outputs": [],
      "stateMutability": "nonpayable",
      "type": "function"
    },
    {
      "inputs": [],
      "name": "closeEvent",
      "outputs": [],
      "stateMutability": "nonpayable",
      "type": "function"
    },
    {
      "inputs": [
        {
          "internalType": "bytes",
          "name": "data",
          "type": "bytes"
        }
      ],
      "name": "setBuffer",
      "outputs": [],
      "stateMutability": "nonpayable",
      "type": "function"
    }
  ],
  "bytecode": "0x608060405234801561001057600080fd5b506122f0806100206000396000f3fe608060405234801561001057600080fd5b506004361061007d5760003560e01c80635e31692e1161005b5780635e31692e146100c4578063c85ddbc0146100e0578063cc39406f146100fc578063ebdf86ca146101185761007d565b806303dc5326146100825780630e734a581461008c5780632255beb0146100a8575b600080fd5b61008a610134565b005b6100a660048036038101906100a19190611b80565b610174565b005b6100c260048036038101906100bd9190611a34565b6103c3565b005b6100de60048036038101906100d99190611aac565b610612565b005b6100fa60048036038101906100f591906119bc565b610861565b005b61011660048036038101906101119190611973565b610ab0565b005b610132600480360381019061012d9190611b08565b610cfc565b005b7f84485ae823e5c366e9581c146349e23f73b2f459d9eee1b9f15f36aac3b3145a600060030160000160405161016a9190611c6b565b60405180910390a1565b6000806040518060a0016040529081600082015481526020016001820160009054906101000a900473ffffffffffffffffffffffffffffffffffffffff1673ffffffffffffffffffffffffffffffffffffffff1673ffffffffffffffffffffffffffffffffffffffff1681526020016001820160149054906101000a900460e01b7bffffffffffffffffffffffffffffffffffffffffffffffffffffffff19167bffffffffffffffffffffffffffffffffffffffffffffffffffffffff1916815260200160028201548152602001600382016040518060400160405290816000820180546102619061208d565b80601f016020809104026020016040519081016040528092919081815260200182805461028d9061208d565b80156102da5780601f106102af576101008083540402835291602001916102da565b820191906000526020600020905b8154815290600101906020018083116102bd57829003601f168201915b50505050508152602001600182015481525050815250509050610308838383610f4b9092919063ffffffff16565b80600080820151816000015560208201518160010160006101000a81548173ffffffffffffffffffffffffffffffffffffffff021916908373ffffffffffffffffffffffffffffffffffffffff16021790555060408201518160010160146101000a81548163ffffffff021916908360e01c02179055506060820151816002015560808201518160030160008201518160000190805190602001906103ae9291906116f0565b50602082015181600101555050905050505050565b6000806040518060a0016040529081600082015481526020016001820160009054906101000a900473ffffffffffffffffffffffffffffffffffffffff1673ffffffffffffffffffffffffffffffffffffffff1673ffffffffffffffffffffffffffffffffffffffff1681526020016001820160149054906101000a900460e01b7bffffffffffffffffffffffffffffffffffffffffffffffffffffffff19167bffffffffffffffffffffffffffffffffffffffffffffffffffffffff1916815260200160028201548152602001600382016040518060400160405290816000820180546104b09061208d565b80601f01602080910402602001604051908101604052809291908181526020018280546104dc9061208d565b80156105295780601f106104fe57610100808354040283529160200191610529565b820191906000526020600020905b81548152906001019060200180831161050c57829003601f168201915b50505050508152602001600182015481525050815250509050610557838383610f7e9092919063ffffffff16565b80600080820151816000015560208201518160010160006101000a81548173ffffffffffffffffffffffffffffffffffffffff021916908373ffffffffffffffffffffffffffffffffffffffff16021790555060408201518160010160146101000a81548163ffffffff021916908360e01c02179055506060820151816002015560808201518160030160008201518160000190805190602001906105fd9291906116f0565b50602082015181600101555050905050505050565b6000806040518060a0016040529081600082015481526020016001820160009054906101000a900473ffffffffffffffffffffffffffffffffffffffff1673ffffffffffffffffffffffffffffffffffffffff1673ffffffffffffffffffffffffffffffffffffffff1681526020016001820160149054906101000a900460e01b7bffffffffffffffffffffffffffffffffffffffffffffffffffffffff19167bffffffffffffffffffffffffffffffffffffffffffffffffffffffff1916815260200160028201548152602001600382016040518060400160405290816000820180546106ff9061208d565b80601f016020809104026020016040519081016040528092919081815260200182805461072b9061208d565b80156107785780601f1061074d57610100808354040283529160200191610778565b820191906000526020600020905b81548152906001019060200180831161075b57829003601f168201915b505050505081526020016001820154815250508152505090506107a6838383610fb19092919063ffffffff16565b80600080820151816000015560208201518160010160006101000a81548173ffffffffffffffffffffffffffffffffffffffff021916908373ffffffffffffffffffffffffffffffffffffffff16021790555060408201518160010160146101000a81548163ffffffff021916908360e01c021790555060608201518160020155608082015181600301600082015181600001908051906020019061084c9291906116f0565b50602082015181600101555050905050505050565b6000806040518060a0016040529081600082015481526020016001820160009054906101000a900473ffffffffffffffffffffffffffffffffffffffff1673ffffffffffffffffffffffffffffffffffffffff1673ffffffffffffffffffffffffffffffffffffffff1681526020016001820160149054906101000a900460e01b7bffffffffffffffffffffffffffffffffffffffffffffffffffffffff19167bffffffffffffffffffffffffffffffffffffffffffffffffffffffff19168152602001600282015481526020016003820160405180604001604052908160008201805461094e9061208d565b80601f016020809104026020016040519081016040528092919081815260200182805461097a9061208d565b80156109c75780601f1061099c576101008083540402835291602001916109c7565b820191906000526020600020905b8154815290600101906020018083116109aa57829003601f168201915b505050505081526020016001820154815250508152505090506109f5838383610fe49092919063ffffffff16565b80600080820151816000015560208201518160010160006101000a81548173ffffffffffffffffffffffffffffffffffffffff021916908373ffffffffffffffffffffffffffffffffffffffff16021790555060408201518160010160146101000a81548163ffffffff021916908360e01c0217905550606082015181600201556080820151816003016000820151816000019080519060200190610a9b9291906116f0565b50602082015181600101555050905050505050565b6000806040518060a0016040529081600082015481526020016001820160009054906101000a900473ffffffffffffffffffffffffffffffffffffffff1673ffffffffffffffffffffffffffffffffffffffff1673ffffffffffffffffffffffffffffffffffffffff1681526020016001820160149054906101000a900460e01b7bffffffffffffffffffffffffffffffffffffffffffffffffffffffff19167bffffffffffffffffffffffffffffffffffffffffffffffffffffffff191681526020016002820154815260200160038201604051806040016040529081600082018054610b9d9061208d565b80601f0160208091040260200160405190810160405280929190818152602001828054610bc99061208d565b8015610c165780601f10610beb57610100808354040283529160200191610c16565b820191906000526020600020905b815481529060010190602001808311610bf957829003601f168201915b50505050508152602001600182015481525050815250509050610c42828261106b90919063ffffffff16565b80600080820151816000015560208201518160010160006101000a81548173ffffffffffffffffffffffffffffffffffffffff021916908373ffffffffffffffffffffffffffffffffffffffff16021790555060408201518160010160146101000a81548163ffffffff021916908360e01c0217905550606082015181600201556080820151816003016000820151816000019080519060200190610ce89291906116f0565b506020820151816001015550509050505050565b6000806040518060a0016040529081600082015481526020016001820160009054906101000a900473ffffffffffffffffffffffffffffffffffffffff1673ffffffffffffffffffffffffffffffffffffffff1673ffffffffffffffffffffffffffffffffffffffff1681526020016001820160149054906101000a900460e01b7bffffffffffffffffffffffffffffffffffffffffffffffffffffffff19167bffffffffffffffffffffffffffffffffffffffffffffffffffffffff191681526020016002820154815260200160038201604051806040016040529081600082018054610de99061208d565b80601f0160208091040260200160405190810160405280929190818152602001828054610e159061208d565b8015610e625780601f10610e3757610100808354040283529160200191610e62565b820191906000526020600020905b815481529060010190602001808311610e4557829003601f168201915b50505050508152602001600182015481525050815250509050610e9083838361108e9092919063ffffffff16565b80600080820151816000015560208201518160010160006101000a81548173ffffffffffffffffffffffffffffffffffffffff021916908373ffffffffffffffffffffffffffffffffffffffff16021790555060408201518160010160146101000a81548163ffffffff021916908360e01c0217905550606082015181600201556080820151816003016000820151816000019080519060200190610f369291906116f0565b50602082015181600101555050905050505050565b610f628284608001516110c190919063ffffffff16565b610f798184608001516110e690919063ffffffff16565b505050565b610f958284608001516110c190919063ffffffff16565b610fac8184608001516110f690919063ffffffff16565b505050565b610fc88284608001516110c190919063ffffffff16565b610fdf81846080015161111b90919063ffffffff16565b505050565b610ffb8284608001516110c190919063ffffffff16565b61100883608001516111c8565b60005b81518110156110585761104582828151811061102a576110296121f7565b5b602002602001015185608001516110c190919063ffffffff16565b8080611050906120f0565b91505061100b565b5061106683608001516111d6565b505050565b61107a826080015182516111e4565b5061108982608001518261124e565b505050565b6110a58284608001516110c190919063ffffffff16565b6110bc8184608001516110c190919063ffffffff16565b505050565b6110ce8260038351611270565b6110e1818361124e90919063ffffffff16565b505050565b6110f282600083611270565b5050565b6111038260028351611270565b611116818361124e90919063ffffffff16565b505050565b7fffffffffffffffffffffffffffffffffffffffffffffffff00000000000000008112156111525761114d82826113b5565b6111c4565b67ffffffffffffffff8113156111715761116c828261142c565b6111c3565b6000811261118a5761118582600083611270565b6111c2565b6111c1826001837fffffffffffffffffffffffffffffffffffffffffffffffffffffffffffffffff6111bc9190611fa2565b611270565b5b5b5b5050565b6111d3816004611478565b50565b6111e1816007611478565b50565b6111ec611776565b60006020836111fb9190612139565b146112275760208261120d9190612139565b60206112199190612036565b826112249190611d81565b91505b81836020018181525050604051808452600081528281016020016040525082905092915050565b611256611776565b6112688384600001515184855161149a565b905092915050565b6017811161129d576112978160058460ff16901b60ff16178461158990919063ffffffff16565b506113b0565b60ff81116112df576112c2601860058460ff16901b178461158990919063ffffffff16565b506112d9816001856115a99092919063ffffffff16565b506113af565b61ffff811161132257611305601960058460ff16901b178461158990919063ffffffff16565b5061131c816002856115a99092919063ffffffff16565b506113ae565b63ffffffff81116113675761134a601a60058460ff16901b178461158990919063ffffffff16565b50611361816004856115a99092919063ffffffff16565b506113ad565b67ffffffffffffffff81116113ac57611393601b60058460ff16901b178461158990919063ffffffff16565b506113aa816008856115a99092919063ffffffff16565b505b5b5b5b5b505050565b6113d360036005600660ff16901b178361158990919063ffffffff16565b5061142882827fffffffffffffffffffffffffffffffffffffffffffffffffffffffffffffffff6114049190611fa2565b6040516020016114149190611c8d565b6040516020818303038152906040526110f6565b5050565b61144a60026005600660ff16901b178361158990919063ffffffff16565b5061147482826040516020016114609190611c8d565b6040516020818303038152906040526110f6565b5050565b611495601f60058360ff16901b178361158990919063ffffffff16565b505050565b6114a2611776565b82518211156114b057600080fd5b846020015182856114c19190611d81565b11156114f6576114f58560026114e6886020015188876114e19190611d81565b6115cb565b6114f09190611f48565b6115e7565b5b6000808651805187602083010193508088870111156115155787860182525b60208701925050505b6020841061155c57805182526020826115379190611d81565b91506020816115469190611d81565b90506020846115559190612036565b935061151e565b60006001856020036101000a03905080198251168184511681811785525050508692505050949350505050565b611591611776565b6115a1838460000151518461160b565b905092915050565b6115b1611776565b6115c2848560000151518585611662565b90509392505050565b6000818311156115dd578290506115e1565b8190505b92915050565b6000826000015190506115fa83836111e4565b50611605838261124e565b50505050565b611613611776565b836020015183106116395761163884600286602001516116339190611f48565b6115e7565b5b8351805160208583010184815381861415611655576001820183525b5050508390509392505050565b61166a611776565b8460200151848361167b9190611d81565b11156116a3576116a285600286856116939190611d81565b61169d9190611f48565b6115e7565b5b60006001836101006116b59190611e2a565b6116bf9190612036565b905085518386820101858319825116178152815185880111156116e25784870182525b505085915050949350505050565b8280546116fc9061208d565b90600052602060002090601f01602090048101928261171e5760008555611765565b82601f1061173757805160ff1916838001178555611765565b82800160010185558215611765579182015b82811115611764578251825591602001919060010190611749565b5b5090506117729190611790565b5090565b604051806040016040528060608152602001600081525090565b5b808211156117a9576000816000905550600101611791565b5090565b60006117c06117bb84611ccd565b611ca8565b905080838252602082019050828560208602820111156117e3576117e261225a565b5b60005b8581101561183157813567ffffffffffffffff81111561180957611808612255565b5b8086016118168982611930565b855260208501945060208401935050506001810190506117e6565b5050509392505050565b600061184e61184984611cf9565b611ca8565b90508281526020810184848401111561186a5761186961225f565b5b61187584828561207e565b509392505050565b600061189061188b84611d2a565b611ca8565b9050828152602081018484840111156118ac576118ab61225f565b5b6118b784828561207e565b509392505050565b600082601f8301126118d4576118d3612255565b5b81356118e48482602086016117ad565b91505092915050565b600082601f83011261190257611901612255565b5b813561191284826020860161183b565b91505092915050565b60008135905061192a8161228c565b92915050565b600082601f83011261194557611944612255565b5b813561195584826020860161187d565b91505092915050565b60008135905061196d816122a3565b92915050565b60006020828403121561198957611988612269565b5b600082013567ffffffffffffffff8111156119a7576119a6612264565b5b6119b3848285016118ed565b91505092915050565b600080604083850312156119d3576119d2612269565b5b600083013567ffffffffffffffff8111156119f1576119f0612264565b5b6119fd85828601611930565b925050602083013567ffffffffffffffff811115611a1e57611a1d612264565b5b611a2a858286016118bf565b9150509250929050565b60008060408385031215611a4b57611a4a612269565b5b600083013567ffffffffffffffff811115611a6957611a68612264565b5b611a7585828601611930565b925050602083013567ffffffffffffffff811115611a9657611a95612264565b5b611aa2858286016118ed565b9150509250929050565b60008060408385031215611ac357611ac2612269565b5b600083013567ffffffffffffffff811115611ae157611ae0612264565b5b611aed85828601611930565b9250506020611afe8582860161191b565b9150509250929050565b60008060408385031215611b1f57611b1e612269565b5b600083013567ffffffffffffffff811115611b3d57611b3c612264565b5b611b4985828601611930565b925050602083013567ffffffffffffffff811115611b6a57611b69612264565b5b611b7685828601611930565b9150509250929050565b60008060408385031215611b9757611b96612269565b5b600083013567ffffffffffffffff811115611bb557611bb4612264565b5b611bc185828601611930565b9250506020611bd28582860161195e565b9150509250929050565b60008154611be98161208d565b611bf38186611d70565b94506001821660008114611c0e5760018114611c2057611c53565b60ff1983168652602086019350611c53565b611c2985611d5b565b60005b83811015611c4b57815481890152600182019150602081019050611c2c565b808801955050505b50505092915050565b611c6581612074565b82525050565b60006020820190508181036000830152611c858184611bdc565b905092915050565b6000602082019050611ca26000830184611c5c565b92915050565b6000611cb2611cc3565b9050611cbe82826120bf565b919050565b6000604051905090565b600067ffffffffffffffff821115611ce857611ce7612226565b5b602082029050602081019050919050565b600067ffffffffffffffff821115611d1457611d13612226565b5b611d1d8261226e565b9050602081019050919050565b600067ffffffffffffffff821115611d4557611d44612226565b5b611d4e8261226e565b9050602081019050919050565b60008190508160005260206000209050919050565b600082825260208201905092915050565b6000611d8c82612074565b9150611d9783612074565b9250827fffffffffffffffffffffffffffffffffffffffffffffffffffffffffffffffff03821115611dcc57611dcb61216a565b5b828201905092915050565b6000808291508390505b6001851115611e2157808604811115611dfd57611dfc61216a565b5b6001851615611e0c5780820291505b8081029050611e1a8561227f565b9450611de1565b94509492505050565b6000611e3582612074565b9150611e4083612074565b9250611e6d7fffffffffffffffffffffffffffffffffffffffffffffffffffffffffffffffff8484611e75565b905092915050565b600082611e855760019050611f41565b81611e935760009050611f41565b8160018114611ea95760028114611eb357611ee2565b6001915050611f41565b60ff841115611ec557611ec461216a565b5b8360020a915084821115611edc57611edb61216a565b5b50611f41565b5060208310610133831016604e8410600b8410161715611f175782820a905083811115611f1257611f1161216a565b5b611f41565b611f248484846001611dd7565b92509050818404811115611f3b57611f3a61216a565b5b81810290505b9392505050565b6000611f5382612074565b9150611f5e83612074565b9250817fffffffffffffffffffffffffffffffffffffffffffffffffffffffffffffffff0483118215151615611f9757611f9661216a565b5b828202905092915050565b6000611fad8261206a565b9150611fb88361206a565b9250827f800000000000000000000000000000000000000000000000000000000000000001821260008412151615611ff357611ff261216a565b5b827f7fffffffffffffffffffffffffffffffffffffffffffffffffffffffffffffff01821360008412161561202b5761202a61216a565b5b828203905092915050565b600061204182612074565b915061204c83612074565b92508282101561205f5761205e61216a565b5b828203905092915050565b6000819050919050565b6000819050919050565b82818337600083830152505050565b600060028204905060018216806120a557607f821691505b602082108114156120b9576120b86121c8565b5b50919050565b6120c88261226e565b810181811067ffffffffffffffff821117156120e7576120e6612226565b5b80604052505050565b60006120fb82612074565b91507fffffffffffffffffffffffffffffffffffffffffffffffffffffffffffffffff82141561212e5761212d61216a565b5b600182019050919050565b600061214482612074565b915061214f83612074565b92508261215f5761215e612199565b5b828206905092915050565b7f4e487b7100000000000000000000000000000000000000000000000000000000600052601160045260246000fd5b7f4e487b7100000000000000000000000000000000000000000000000000000000600052601260045260246000fd5b7f4e487b7100000000000000000000000000000000000000000000000000000000600052602260045260246000fd5b7f4e487b7100000000000000000000000000000000000000000000000000000000600052603260045260246000fd5b7f4e487b7100000000000000000000000000000000000000000000000000000000600052604160045260246000fd5b600080fd5b600080fd5b600080fd5b600080fd5b600080fd5b6000601f19601f8301169050919050565b60008160011c9050919050565b6122958161206a565b81146122a057600080fd5b50565b6122ac81612074565b81146122b757600080fd5b5056fea264697066735822122075426f71ed8cf9329070bb16771c2de50fd1af216dd57a3dd30d940165f9602464736f6c63430008060033",
  "linkReferences": {},
  "deployedLinkReferences": {}
}