{
  "_format": "hh-sol-artifact-1",
  "contractName": "FlagsTestHelper",
  "sourceName": "contracts/chainlink/v0.8/tests/FlagsTestHelper.sol",
  "abi": [
    {
      "inputs": [
        {
          "internalType": "address",
          "name": "flagsContract",
          "type": "address"
        }
      ],
      "stateMutability": "nonpayable",
      "type": "constructor"
    },
    {
      "inputs": [],
      "name": "flags",
      "outputs": [
        {
          "internalType": "contract Flags",
          "name": "",
          "type": "address"
        }
      ],
      "stateMutability": "view",
      "type": "function"
    },
    {
      "inputs": [
        {
          "internalType": "address",
          "name": "subject",
          "type": "address"
        }
      ],
      "name": "getFlag",
      "outputs": [
        {
          "internalType": "bool",
          "name": "",
          "type": "bool"
        }
      ],
      "stateMutability": "view",
      "type": "function"
    },
    {
      "inputs": [
        {
          "internalType": "address[]",
          "name": "subjects",
          "type": "address[]"
        }
      ],
      "name": "getFlags",
      "outputs": [
        {
          "internalType": "bool[]",
          "name": "",
          "type": "bool[]"
        }
      ],
      "stateMutability": "view",
      "type": "function"
    }
  ],
  "bytecode": "0x608060405234801561001057600080fd5b506040516109603803806109608339818101604052810190610032919061008d565b806000806101000a81548173ffffffffffffffffffffffffffffffffffffffff021916908373ffffffffffffffffffffffffffffffffffffffff16021790555050610108565b600081519050610087816100f1565b92915050565b6000602082840312156100a3576100a26100ec565b5b60006100b184828501610078565b91505092915050565b60006100c5826100cc565b9050919050565b600073ffffffffffffffffffffffffffffffffffffffff82169050919050565b600080fd5b6100fa816100ba565b811461010557600080fd5b50565b610849806101176000396000f3fe608060405234801561001057600080fd5b50600436106100415760003560e01c8063357e47fe1461004657806364cc4aa5146100765780637d723cac14610094575b600080fd5b610060600480360381019061005b9190610373565b6100c4565b60405161006d91906105fa565b60405180910390f35b61007e610177565b60405161008b9190610615565b60405180910390f35b6100ae60048036038101906100a991906103a0565b61019b565b6040516100bb91906105d8565b60405180910390f35b60008060009054906101000a900473ffffffffffffffffffffffffffffffffffffffff1673ffffffffffffffffffffffffffffffffffffffff1663357e47fe836040518263ffffffff1660e01b81526004016101209190610599565b60206040518083038186803b15801561013857600080fd5b505afa15801561014c573d6000803e3d6000fd5b505050506040513d601f19601f820116820180604052508101906101709190610436565b9050919050565b60008054906101000a900473ffffffffffffffffffffffffffffffffffffffff1681565b606060008054906101000a900473ffffffffffffffffffffffffffffffffffffffff1673ffffffffffffffffffffffffffffffffffffffff16637d723cac84846040518363ffffffff1660e01b81526004016101f89291906105b4565b60006040518083038186803b15801561021057600080fd5b505afa158015610224573d6000803e3d6000fd5b505050506040513d6000823e3d601f19601f8201168201806040525081019061024d91906103ed565b905092915050565b600061026861026384610655565b610630565b9050808382526020820190508285602086028201111561028b5761028a6107c5565b5b60005b858110156102bb57816102a1888261035e565b84526020840193506020830192505060018101905061028e565b5050509392505050565b6000813590506102d4816107e5565b92915050565b60008083601f8401126102f0576102ef6107c0565b5b8235905067ffffffffffffffff81111561030d5761030c6107bb565b5b602083019150836020820283011115610329576103286107c5565b5b9250929050565b600082601f830112610345576103446107c0565b5b8151610355848260208601610255565b91505092915050565b60008151905061036d816107fc565b92915050565b600060208284031215610389576103886107cf565b5b6000610397848285016102c5565b91505092915050565b600080602083850312156103b7576103b66107cf565b5b600083013567ffffffffffffffff8111156103d5576103d46107ca565b5b6103e1858286016102da565b92509250509250929050565b600060208284031215610403576104026107cf565b5b600082015167ffffffffffffffff811115610421576104206107ca565b5b61042d84828501610330565b91505092915050565b60006020828403121561044c5761044b6107cf565b5b600061045a8482850161035e565b91505092915050565b600061046f8383610493565b60208301905092915050565b6000610487838361056c565b60208301905092915050565b61049c816106f9565b82525050565b6104ab816106f9565b82525050565b60006104bd83856106c0565b93506104c882610681565b8060005b85811015610501576104de82846106e2565b6104e88882610463565b97506104f3836106a6565b9250506001810190506104cc565b5085925050509392505050565b60006105198261069b565b61052381856106d1565b935061052e8361068b565b8060005b8381101561055f578151610546888261047b565b9750610551836106b3565b925050600181019050610532565b5085935050505092915050565b6105758161070b565b82525050565b6105848161070b565b82525050565b61059381610737565b82525050565b60006020820190506105ae60008301846104a2565b92915050565b600060208201905081810360008301526105cf8184866104b1565b90509392505050565b600060208201905081810360008301526105f2818461050e565b905092915050565b600060208201905061060f600083018461057b565b92915050565b600060208201905061062a600083018461058a565b92915050565b600061063a61064b565b9050610646828261075b565b919050565b6000604051905090565b600067ffffffffffffffff8211156106705761066f61078c565b5b602082029050602081019050919050565b6000819050919050565b6000819050602082019050919050565b600081519050919050565b6000602082019050919050565b6000602082019050919050565b600082825260208201905092915050565b600082825260208201905092915050565b60006106f160208401846102c5565b905092915050565b600061070482610717565b9050919050565b60008115159050919050565b600073ffffffffffffffffffffffffffffffffffffffff82169050919050565b600061074282610749565b9050919050565b600061075482610717565b9050919050565b610764826107d4565b810181811067ffffffffffffffff821117156107835761078261078c565b5b80604052505050565b7f4e487b7100000000000000000000000000000000000000000000000000000000600052604160045260246000fd5b600080fd5b600080fd5b600080fd5b600080fd5b600080fd5b6000601f19601f8301169050919050565b6107ee816106f9565b81146107f957600080fd5b50565b6108058161070b565b811461081057600080fd5b5056fea2646970667358221220a8305df42cf3595bbb0965de7de9d1524d8bdcc8136ef33b8679c4eaf5c8199f64736f6c63430008060033",
  "linkReferences": {},
  "deployedLinkReferences": {}
}