{
  "_format": "hh-sol-artifact-1",
  "contractName": "SimpleWriteAccessController",
  "sourceName": "contracts/chainlink/v0.8/SimpleWriteAccessController.sol",
  "abi": [
    {
      "inputs": [],
      "stateMutability": "nonpayable",
      "type": "constructor"
    },
    {
      "anonymous": false,
      "inputs": [
        {
          "indexed": false,
          "internalType": "address",
          "name": "user",
          "type": "address"
        }
      ],
      "name": "AddedAccess",
      "type": "event"
    },
    {
      "anonymous": false,
      "inputs": [],
      "name": "CheckAccessDisabled",
      "type": "event"
    },
    {
      "anonymous": false,
      "inputs": [],
      "name": "CheckAccessEnabled",
      "type": "event"
    },
    {
      "anonymous": false,
      "inputs": [
        {
          "indexed": true,
          "internalType": "address",
          "name": "from",
          "type": "address"
        },
        {
          "indexed": true,
          "internalType": "address",
          "name": "to",
          "type": "address"
        }
      ],
      "name": "OwnershipTransferRequested",
      "type": "event"
    },
    {
      "anonymous": false,
      "inputs": [
        {
          "indexed": true,
          "internalType": "address",
          "name": "from",
          "type": "address"
        },
        {
          "indexed": true,
          "internalType": "address",
          "name": "to",
          "type": "address"
        }
      ],
      "name": "OwnershipTransferred",
      "type": "event"
    },
    {
      "anonymous": false,
      "inputs": [
        {
          "indexed": false,
          "internalType": "address",
          "name": "user",
          "type": "address"
        }
      ],
      "name": "RemovedAccess",
      "type": "event"
    },
    {
      "inputs": [],
      "name": "acceptOwnership",
      "outputs": [],
      "stateMutability": "nonpayable",
      "type": "function"
    },
    {
      "inputs": [
        {
          "internalType": "address",
          "name": "_user",
          "type": "address"
        }
      ],
      "name": "addAccess",
      "outputs": [],
      "stateMutability": "nonpayable",
      "type": "function"
    },
    {
      "inputs": [],
      "name": "checkEnabled",
      "outputs": [
        {
          "internalType": "bool",
          "name": "",
          "type": "bool"
        }
      ],
      "stateMutability": "view",
      "type": "function"
    },
    {
      "inputs": [],
      "name": "disableAccessCheck",
      "outputs": [],
      "stateMutability": "nonpayable",
      "type": "function"
    },
    {
      "inputs": [],
      "name": "enableAccessCheck",
      "outputs": [],
      "stateMutability": "nonpayable",
      "type": "function"
    },
    {
      "inputs": [
        {
          "internalType": "address",
          "name": "_user",
          "type": "address"
        },
        {
          "internalType": "bytes",
          "name": "",
          "type": "bytes"
        }
      ],
      "name": "hasAccess",
      "outputs": [
        {
          "internalType": "bool",
          "name": "",
          "type": "bool"
        }
      ],
      "stateMutability": "view",
      "type": "function"
    },
    {
      "inputs": [],
      "name": "owner",
      "outputs": [
        {
          "internalType": "address",
          "name": "",
          "type": "address"
        }
      ],
      "stateMutability": "view",
      "type": "function"
    },
    {
      "inputs": [
        {
          "internalType": "address",
          "name": "_user",
          "type": "address"
        }
      ],
      "name": "removeAccess",
      "outputs": [],
      "stateMutability": "nonpayable",
      "type": "function"
    },
    {
      "inputs": [
        {
          "internalType": "address",
          "name": "to",
          "type": "address"
        }
      ],
      "name": "transferOwnership",
      "outputs": [],
      "stateMutability": "nonpayable",
      "type": "function"
    }
  ],
  "bytecode": "0x60806040523480156200001157600080fd5b50338060008073ffffffffffffffffffffffffffffffffffffffff168273ffffffffffffffffffffffffffffffffffffffff16141562000088576040517f08c379a00000000000000000000000000000000000000000000000000000000081526004016200007f90620002b0565b60405180910390fd5b816000806101000a81548173ffffffffffffffffffffffffffffffffffffffff021916908373ffffffffffffffffffffffffffffffffffffffff160217905550600073ffffffffffffffffffffffffffffffffffffffff168173ffffffffffffffffffffffffffffffffffffffff16146200010f576200010e816200013260201b60201c565b5b50505060018060146101000a81548160ff02191690831515021790555062000357565b3373ffffffffffffffffffffffffffffffffffffffff168173ffffffffffffffffffffffffffffffffffffffff161415620001a4576040517f08c379a00000000000000000000000000000000000000000000000000000000081526004016200019b90620002d2565b60405180910390fd5b80600160006101000a81548173ffffffffffffffffffffffffffffffffffffffff021916908373ffffffffffffffffffffffffffffffffffffffff1602179055508073ffffffffffffffffffffffffffffffffffffffff1660008054906101000a900473ffffffffffffffffffffffffffffffffffffffff1673ffffffffffffffffffffffffffffffffffffffff167fed8889f560326eb138920d842192f0eb3dd22b4f139c87a2c57538e05bae127860405160405180910390a350565b600062000271601883620002f4565b91506200027e8262000305565b602082019050919050565b600062000298601783620002f4565b9150620002a5826200032e565b602082019050919050565b60006020820190508181036000830152620002cb8162000262565b9050919050565b60006020820190508181036000830152620002ed8162000289565b9050919050565b600082825260208201905092915050565b7f43616e6e6f7420736574206f776e657220746f207a65726f0000000000000000600082015250565b7f43616e6e6f74207472616e7366657220746f2073656c66000000000000000000600082015250565b610c5880620003676000396000f3fe608060405234801561001057600080fd5b50600436106100935760003560e01c80638823da6c116100665780638823da6c146100e65780638da5cb5b14610102578063a118f24914610120578063dc7f01241461013c578063f2fde38b1461015a57610093565b80630a756983146100985780636b14daf8146100a257806379ba5097146100d25780638038e4a1146100dc575b600080fd5b6100a0610176565b005b6100bc60048036038101906100b791906108de565b6101dd565b6040516100c991906109dc565b60405180910390f35b6100da61024c565b005b6100e46103e1565b005b61010060048036038101906100fb91906108b1565b610446565b005b61010a610533565b60405161011791906109c1565b60405180910390f35b61013a600480360381019061013591906108b1565b61055c565b005b610144610648565b60405161015191906109dc565b60405180910390f35b610174600480360381019061016f91906108b1565b61065b565b005b61017e61066f565b600160149054906101000a900460ff16156101db576000600160146101000a81548160ff0219169083151502179055507f3be8a977a014527b50ae38adda80b56911c267328965c98ddc385d248f53963860405160405180910390a15b565b6000600260008473ffffffffffffffffffffffffffffffffffffffff1673ffffffffffffffffffffffffffffffffffffffff16815260200190815260200160002060009054906101000a900460ff16806102445750600160149054906101000a900460ff16155b905092915050565b600160009054906101000a900473ffffffffffffffffffffffffffffffffffffffff1673ffffffffffffffffffffffffffffffffffffffff163373ffffffffffffffffffffffffffffffffffffffff16146102dc576040517f08c379a00000000000000000000000000000000000000000000000000000000081526004016102d3906109f7565b60405180910390fd5b60008060009054906101000a900473ffffffffffffffffffffffffffffffffffffffff169050336000806101000a81548173ffffffffffffffffffffffffffffffffffffffff021916908373ffffffffffffffffffffffffffffffffffffffff1602179055506000600160006101000a81548173ffffffffffffffffffffffffffffffffffffffff021916908373ffffffffffffffffffffffffffffffffffffffff1602179055503373ffffffffffffffffffffffffffffffffffffffff168173ffffffffffffffffffffffffffffffffffffffff167f8be0079c531659141344cd1fd0a4f28419497f9722a3daafe3b4186f6b6457e060405160405180910390a350565b6103e961066f565b600160149054906101000a900460ff166104445760018060146101000a81548160ff0219169083151502179055507faebf329500988c6488a0074e5a0a9ff304561fc5c6fc877aeb1d59c8282c348060405160405180910390a15b565b61044e61066f565b600260008273ffffffffffffffffffffffffffffffffffffffff1673ffffffffffffffffffffffffffffffffffffffff16815260200190815260200160002060009054906101000a900460ff1615610530576000600260008373ffffffffffffffffffffffffffffffffffffffff1673ffffffffffffffffffffffffffffffffffffffff16815260200190815260200160002060006101000a81548160ff0219169083151502179055507f3d68a6fce901d20453d1a7aa06bf3950302a735948037deb182a8db66df2a0d18160405161052791906109c1565b60405180910390a15b50565b60008060009054906101000a900473ffffffffffffffffffffffffffffffffffffffff16905090565b61056461066f565b600260008273ffffffffffffffffffffffffffffffffffffffff1673ffffffffffffffffffffffffffffffffffffffff16815260200190815260200160002060009054906101000a900460ff16610645576001600260008373ffffffffffffffffffffffffffffffffffffffff1673ffffffffffffffffffffffffffffffffffffffff16815260200190815260200160002060006101000a81548160ff0219169083151502179055507f87286ad1f399c8e82bf0c4ef4fcdc570ea2e1e92176e5c848b6413545b885db48160405161063c91906109c1565b60405180910390a15b50565b600160149054906101000a900460ff1681565b61066361066f565b61066c816106ff565b50565b60008054906101000a900473ffffffffffffffffffffffffffffffffffffffff1673ffffffffffffffffffffffffffffffffffffffff163373ffffffffffffffffffffffffffffffffffffffff16146106fd576040517f08c379a00000000000000000000000000000000000000000000000000000000081526004016106f490610a17565b60405180910390fd5b565b3373ffffffffffffffffffffffffffffffffffffffff168173ffffffffffffffffffffffffffffffffffffffff16141561076e576040517f08c379a000000000000000000000000000000000000000000000000000000000815260040161076590610a37565b60405180910390fd5b80600160006101000a81548173ffffffffffffffffffffffffffffffffffffffff021916908373ffffffffffffffffffffffffffffffffffffffff1602179055508073ffffffffffffffffffffffffffffffffffffffff1660008054906101000a900473ffffffffffffffffffffffffffffffffffffffff1673ffffffffffffffffffffffffffffffffffffffff167fed8889f560326eb138920d842192f0eb3dd22b4f139c87a2c57538e05bae127860405160405180910390a350565b600061083f61083a84610a7c565b610a57565b90508281526020810184848401111561085b5761085a610b70565b5b610866848285610afc565b509392505050565b60008135905061087d81610c0b565b92915050565b600082601f83011261089857610897610b6b565b5b81356108a884826020860161082c565b91505092915050565b6000602082840312156108c7576108c6610b7a565b5b60006108d58482850161086e565b91505092915050565b600080604083850312156108f5576108f4610b7a565b5b60006109038582860161086e565b925050602083013567ffffffffffffffff81111561092457610923610b75565b5b61093085828601610883565b9150509250929050565b61094381610abe565b82525050565b61095281610ad0565b82525050565b6000610965601683610aad565b915061097082610b90565b602082019050919050565b6000610988601683610aad565b915061099382610bb9565b602082019050919050565b60006109ab601783610aad565b91506109b682610be2565b602082019050919050565b60006020820190506109d6600083018461093a565b92915050565b60006020820190506109f16000830184610949565b92915050565b60006020820190508181036000830152610a1081610958565b9050919050565b60006020820190508181036000830152610a308161097b565b9050919050565b60006020820190508181036000830152610a508161099e565b9050919050565b6000610a61610a72565b9050610a6d8282610b0b565b919050565b6000604051905090565b600067ffffffffffffffff821115610a9757610a96610b3c565b5b610aa082610b7f565b9050602081019050919050565b600082825260208201905092915050565b6000610ac982610adc565b9050919050565b60008115159050919050565b600073ffffffffffffffffffffffffffffffffffffffff82169050919050565b82818337600083830152505050565b610b1482610b7f565b810181811067ffffffffffffffff82111715610b3357610b32610b3c565b5b80604052505050565b7f4e487b7100000000000000000000000000000000000000000000000000000000600052604160045260246000fd5b600080fd5b600080fd5b600080fd5b600080fd5b6000601f19601f8301169050919050565b7f4d7573742062652070726f706f736564206f776e657200000000000000000000600082015250565b7f4f6e6c792063616c6c61626c65206279206f776e657200000000000000000000600082015250565b7f43616e6e6f74207472616e7366657220746f2073656c66000000000000000000600082015250565b610c1481610abe565b8114610c1f57600080fd5b5056fea264697066735822122020f7e1033c9577f682d7bc3b35510430eaf74e290e77f1a339fdbd6603bee4f064736f6c63430008060033",
  "linkReferences": {},
  "deployedLinkReferences": {}
}