{
  "_format": "hh-sol-artifact-1",
  "contractName": "ValidatorProxy",
  "sourceName": "contracts/chainlink/v0.8/ValidatorProxy.sol",
  "abi": [
    {
      "inputs": [
        {
          "internalType": "address",
          "name": "aggregator",
          "type": "address"
        },
        {
          "internalType": "contract AggregatorValidatorInterface",
          "name": "validator",
          "type": "address"
        }
      ],
      "stateMutability": "nonpayable",
      "type": "constructor"
    },
    {
      "anonymous": false,
      "inputs": [
        {
          "indexed": true,
          "internalType": "address",
          "name": "aggregator",
          "type": "address"
        }
      ],
      "name": "AggregatorProposed",
      "type": "event"
    },
    {
      "anonymous": false,
      "inputs": [
        {
          "indexed": true,
          "internalType": "address",
          "name": "previous",
          "type": "address"
        },
        {
          "indexed": true,
          "internalType": "address",
          "name": "current",
          "type": "address"
        }
      ],
      "name": "AggregatorUpgraded",
      "type": "event"
    },
    {
      "anonymous": false,
      "inputs": [
        {
          "indexed": true,
          "internalType": "address",
          "name": "from",
          "type": "address"
        },
        {
          "indexed": true,
          "internalType": "address",
          "name": "to",
          "type": "address"
        }
      ],
      "name": "OwnershipTransferRequested",
      "type": "event"
    },
    {
      "anonymous": false,
      "inputs": [
        {
          "indexed": true,
          "internalType": "address",
          "name": "from",
          "type": "address"
        },
        {
          "indexed": true,
          "internalType": "address",
          "name": "to",
          "type": "address"
        }
      ],
      "name": "OwnershipTransferred",
      "type": "event"
    },
    {
      "anonymous": false,
      "inputs": [
        {
          "indexed": true,
          "internalType": "address",
          "name": "proposed",
          "type": "address"
        },
        {
          "indexed": false,
          "internalType": "uint256",
          "name": "previousRoundId",
          "type": "uint256"
        },
        {
          "indexed": false,
          "internalType": "int256",
          "name": "previousAnswer",
          "type": "int256"
        },
        {
          "indexed": false,
          "internalType": "uint256",
          "name": "currentRoundId",
          "type": "uint256"
        },
        {
          "indexed": false,
          "internalType": "int256",
          "name": "currentAnswer",
          "type": "int256"
        }
      ],
      "name": "ProposedAggregatorValidateCall",
      "type": "event"
    },
    {
      "anonymous": false,
      "inputs": [
        {
          "indexed": true,
          "internalType": "contract AggregatorValidatorInterface",
          "name": "validator",
          "type": "address"
        }
      ],
      "name": "ValidatorProposed",
      "type": "event"
    },
    {
      "anonymous": false,
      "inputs": [
        {
          "indexed": true,
          "internalType": "contract AggregatorValidatorInterface",
          "name": "previous",
          "type": "address"
        },
        {
          "indexed": true,
          "internalType": "contract AggregatorValidatorInterface",
          "name": "current",
          "type": "address"
        }
      ],
      "name": "ValidatorUpgraded",
      "type": "event"
    },
    {
      "inputs": [],
      "name": "acceptOwnership",
      "outputs": [],
      "stateMutability": "nonpayable",
      "type": "function"
    },
    {
      "inputs": [],
      "name": "getAggregators",
      "outputs": [
        {
          "internalType": "address",
          "name": "current",
          "type": "address"
        },
        {
          "internalType": "bool",
          "name": "hasProposal",
          "type": "bool"
        },
        {
          "internalType": "address",
          "name": "proposed",
          "type": "address"
        }
      ],
      "stateMutability": "view",
      "type": "function"
    },
    {
      "inputs": [],
      "name": "getValidators",
      "outputs": [
        {
          "internalType": "contract AggregatorValidatorInterface",
          "name": "current",
          "type": "address"
        },
        {
          "internalType": "bool",
          "name": "hasProposal",
          "type": "bool"
        },
        {
          "internalType": "contract AggregatorValidatorInterface",
          "name": "proposed",
          "type": "address"
        }
      ],
      "stateMutability": "view",
      "type": "function"
    },
    {
      "inputs": [],
      "name": "owner",
      "outputs": [
        {
          "internalType": "address",
          "name": "",
          "type": "address"
        }
      ],
      "stateMutability": "view",
      "type": "function"
    },
    {
      "inputs": [
        {
          "internalType": "address",
          "name": "proposed",
          "type": "address"
        }
      ],
      "name": "proposeNewAggregator",
      "outputs": [],
      "stateMutability": "nonpayable",
      "type": "function"
    },
    {
      "inputs": [
        {
          "internalType": "contract AggregatorValidatorInterface",
          "name": "proposed",
          "type": "address"
        }
      ],
      "name": "proposeNewValidator",
      "outputs": [],
      "stateMutability": "nonpayable",
      "type": "function"
    },
    {
      "inputs": [
        {
          "internalType": "address",
          "name": "to",
          "type": "address"
        }
      ],
      "name": "transferOwnership",
      "outputs": [],
      "stateMutability": "nonpayable",
      "type": "function"
    },
    {
      "inputs": [],
      "name": "typeAndVersion",
      "outputs": [
        {
          "internalType": "string",
          "name": "",
          "type": "string"
        }
      ],
      "stateMutability": "pure",
      "type": "function"
    },
    {
      "inputs": [],
      "name": "upgradeAggregator",
      "outputs": [],
      "stateMutability": "nonpayable",
      "type": "function"
    },
    {
      "inputs": [],
      "name": "upgradeValidator",
      "outputs": [],
      "stateMutability": "nonpayable",
      "type": "function"
    },
    {
      "inputs": [
        {
          "internalType": "uint256",
          "name": "previousRoundId",
          "type": "uint256"
        },
        {
          "internalType": "int256",
          "name": "previousAnswer",
          "type": "int256"
        },
        {
          "internalType": "uint256",
          "name": "currentRoundId",
          "type": "uint256"
        },
        {
          "internalType": "int256",
          "name": "currentAnswer",
          "type": "int256"
        }
      ],
      "name": "validate",
      "outputs": [
        {
          "internalType": "bool",
          "name": "",
          "type": "bool"
        }
      ],
      "stateMutability": "nonpayable",
      "type": "function"
    }
  ],
  "bytecode": "0x60806040523480156200001157600080fd5b5060405162001fa238038062001fa28339818101604052810190620000379190620003d1565b338060008073ffffffffffffffffffffffffffffffffffffffff168273ffffffffffffffffffffffffffffffffffffffff161415620000ad576040517f08c379a0000000000000000000000000000000000000000000000000000000008152600401620000a49062000466565b60405180910390fd5b816000806101000a81548173ffffffffffffffffffffffffffffffffffffffff021916908373ffffffffffffffffffffffffffffffffffffffff160217905550600073ffffffffffffffffffffffffffffffffffffffff168173ffffffffffffffffffffffffffffffffffffffff1614620001345762000133816200027360201b60201c565b5b50505060405180604001604052808373ffffffffffffffffffffffffffffffffffffffff16815260200160001515815250600260008201518160000160006101000a81548173ffffffffffffffffffffffffffffffffffffffff021916908373ffffffffffffffffffffffffffffffffffffffff16021790555060208201518160000160146101000a81548160ff02191690831515021790555090505060405180604001604052808273ffffffffffffffffffffffffffffffffffffffff16815260200160001515815250600460008201518160000160006101000a81548173ffffffffffffffffffffffffffffffffffffffff021916908373ffffffffffffffffffffffffffffffffffffffff16021790555060208201518160000160146101000a81548160ff02191690831515021790555090505050506200058e565b3373ffffffffffffffffffffffffffffffffffffffff168173ffffffffffffffffffffffffffffffffffffffff161415620002e5576040517f08c379a0000000000000000000000000000000000000000000000000000000008152600401620002dc9062000488565b60405180910390fd5b80600160006101000a81548173ffffffffffffffffffffffffffffffffffffffff021916908373ffffffffffffffffffffffffffffffffffffffff1602179055508073ffffffffffffffffffffffffffffffffffffffff1660008054906101000a900473ffffffffffffffffffffffffffffffffffffffff1673ffffffffffffffffffffffffffffffffffffffff167fed8889f560326eb138920d842192f0eb3dd22b4f139c87a2c57538e05bae127860405160405180910390a350565b600081519050620003b4816200055a565b92915050565b600081519050620003cb8162000574565b92915050565b60008060408385031215620003eb57620003ea62000503565b5b6000620003fb85828601620003a3565b92505060206200040e85828601620003ba565b9150509250929050565b600062000427601883620004aa565b9150620004348262000508565b602082019050919050565b60006200044e601783620004aa565b91506200045b8262000531565b602082019050919050565b60006020820190508181036000830152620004818162000418565b9050919050565b60006020820190508181036000830152620004a3816200043f565b9050919050565b600082825260208201905092915050565b6000620004c882620004e3565b9050919050565b6000620004dc82620004bb565b9050919050565b600073ffffffffffffffffffffffffffffffffffffffff82169050919050565b600080fd5b7f43616e6e6f7420736574206f776e657220746f207a65726f0000000000000000600082015250565b7f43616e6e6f74207472616e7366657220746f2073656c66000000000000000000600082015250565b6200056581620004bb565b81146200057157600080fd5b50565b6200057f81620004cf565b81146200058b57600080fd5b50565b611a04806200059e6000396000f3fe608060405234801561001057600080fd5b50600436106100a95760003560e01c80638da5cb5b116100715780638da5cb5b1461011c57806394ce943b1461013a578063b7ab4db514610156578063beed9b5114610176578063c97f7856146101a6578063f2fde38b146101b0576100a9565b8063181f5a77146100ae57806359112a4e146100cc5780637903677f146100e857806379ba5097146100f25780637ee7f7d1146100fc575b600080fd5b6100b66101cc565b6040516100c39190611609565b60405180910390f35b6100e660048036038101906100e191906112e3565b610209565b005b6100f06103d3565b005b6100fa6105ef565b005b610104610784565b60405161011393929190611580565b60405180910390f35b6101246107f0565b6040516101319190611565565b60405180910390f35b610154600480360381019061014f9190611310565b610819565b005b61015e6109e2565b60405161016d939291906115d2565b60405180910390f35b610190600480360381019061018b919061133d565b610a4e565b60405161019d91906115b7565b60405180910390f35b6101ae610ea2565b005b6101ca60048036038101906101c591906112e3565b6110be565b005b60606040518060400160405280601481526020017f56616c696461746f7250726f787920312e302e30000000000000000000000000815250905090565b6102116110d2565b8073ffffffffffffffffffffffffffffffffffffffff16600360009054906101000a900473ffffffffffffffffffffffffffffffffffffffff1673ffffffffffffffffffffffffffffffffffffffff16141580156102c057508073ffffffffffffffffffffffffffffffffffffffff16600260000160009054906101000a900473ffffffffffffffffffffffffffffffffffffffff1673ffffffffffffffffffffffffffffffffffffffff1614155b6102ff576040517f08c379a00000000000000000000000000000000000000000000000000000000081526004016102f6906116eb565b60405180910390fd5b80600360006101000a81548173ffffffffffffffffffffffffffffffffffffffff021916908373ffffffffffffffffffffffffffffffffffffffff160217905550600073ffffffffffffffffffffffffffffffffffffffff168173ffffffffffffffffffffffffffffffffffffffff161415600260000160146101000a81548160ff0219169083151502179055508073ffffffffffffffffffffffffffffffffffffffff167f5f9c9d260db95e6065c958ac4462171e7a8e70c0c5a7e1864ec8e425c3348de760405160405180910390a250565b6103db6110d2565b600060046040518060400160405290816000820160009054906101000a900473ffffffffffffffffffffffffffffffffffffffff1673ffffffffffffffffffffffffffffffffffffffff1673ffffffffffffffffffffffffffffffffffffffff1681526020016000820160149054906101000a900460ff16151515158152505090506000816000015190506000600560009054906101000a900473ffffffffffffffffffffffffffffffffffffffff16905082602001516104d1576040517f08c379a00000000000000000000000000000000000000000000000000000000081526004016104c8906116cb565b60405180910390fd5b60405180604001604052808273ffffffffffffffffffffffffffffffffffffffff16815260200160001515815250600460008201518160000160006101000a81548173ffffffffffffffffffffffffffffffffffffffff021916908373ffffffffffffffffffffffffffffffffffffffff16021790555060208201518160000160146101000a81548160ff021916908315150217905550905050600560006101000a81549073ffffffffffffffffffffffffffffffffffffffff02191690558073ffffffffffffffffffffffffffffffffffffffff168273ffffffffffffffffffffffffffffffffffffffff167fb78a7598213b871cdb0b5cf984a129fa34c321bfd3b74073ba5147e0e3f1c33c60405160405180910390a3505050565b600160009054906101000a900473ffffffffffffffffffffffffffffffffffffffff1673ffffffffffffffffffffffffffffffffffffffff163373ffffffffffffffffffffffffffffffffffffffff161461067f576040517f08c379a00000000000000000000000000000000000000000000000000000000081526004016106769061162b565b60405180910390fd5b60008060009054906101000a900473ffffffffffffffffffffffffffffffffffffffff169050336000806101000a81548173ffffffffffffffffffffffffffffffffffffffff021916908373ffffffffffffffffffffffffffffffffffffffff1602179055506000600160006101000a81548173ffffffffffffffffffffffffffffffffffffffff021916908373ffffffffffffffffffffffffffffffffffffffff1602179055503373ffffffffffffffffffffffffffffffffffffffff168173ffffffffffffffffffffffffffffffffffffffff167f8be0079c531659141344cd1fd0a4f28419497f9722a3daafe3b4186f6b6457e060405160405180910390a350565b6000806000600260000160009054906101000a900473ffffffffffffffffffffffffffffffffffffffff169250600260000160149054906101000a900460ff169150600360009054906101000a900473ffffffffffffffffffffffffffffffffffffffff169050909192565b60008060009054906101000a900473ffffffffffffffffffffffffffffffffffffffff16905090565b6108216110d2565b8073ffffffffffffffffffffffffffffffffffffffff16600560009054906101000a900473ffffffffffffffffffffffffffffffffffffffff1673ffffffffffffffffffffffffffffffffffffffff16141580156108d057508073ffffffffffffffffffffffffffffffffffffffff16600460000160009054906101000a900473ffffffffffffffffffffffffffffffffffffffff1673ffffffffffffffffffffffffffffffffffffffff1614155b61090f576040517f08c379a0000000000000000000000000000000000000000000000000000000008152600401610906906116eb565b60405180910390fd5b80600560006101000a81548173ffffffffffffffffffffffffffffffffffffffff021916908373ffffffffffffffffffffffffffffffffffffffff160217905550600073ffffffffffffffffffffffffffffffffffffffff168173ffffffffffffffffffffffffffffffffffffffff161415600460000160146101000a81548160ff0219169083151502179055508073ffffffffffffffffffffffffffffffffffffffff167e2d79d30d9a290b4aa306dc3542d81c243b1f679b4083044b9723d2378600be60405160405180910390a250565b6000806000600460000160009054906101000a900473ffffffffffffffffffffffffffffffffffffffff169250600460000160149054906101000a900460ff169150600560009054906101000a900473ffffffffffffffffffffffffffffffffffffffff169050909192565b600080600260000160009054906101000a900473ffffffffffffffffffffffffffffffffffffffff1690508073ffffffffffffffffffffffffffffffffffffffff163373ffffffffffffffffffffffffffffffffffffffff1614610ba0576000600360009054906101000a900473ffffffffffffffffffffffffffffffffffffffff1690508073ffffffffffffffffffffffffffffffffffffffff163373ffffffffffffffffffffffffffffffffffffffff1614610b41576040517f08c379a0000000000000000000000000000000000000000000000000000000008152600401610b389061164b565b60405180910390fd5b8073ffffffffffffffffffffffffffffffffffffffff167f5a76b3e9adddfd8f853f50a26cb51f7e4cfef4fbaf1d49df7da37b90119aba7888888888604051610b8d949392919061170b565b60405180910390a2600192505050610e9a565b600060046040518060400160405290816000820160009054906101000a900473ffffffffffffffffffffffffffffffffffffffff1673ffffffffffffffffffffffffffffffffffffffff1673ffffffffffffffffffffffffffffffffffffffff1681526020016000820160149054906101000a900460ff1615151515815250509050600081600001519050600073ffffffffffffffffffffffffffffffffffffffff168173ffffffffffffffffffffffffffffffffffffffff161415610c9b576040517f08c379a0000000000000000000000000000000000000000000000000000000008152600401610c929061168b565b60405180910390fd5b8073ffffffffffffffffffffffffffffffffffffffff1663beed9b5160e01b89898989604051602401610cd1949392919061170b565b604051602081830303815290604052907bffffffffffffffffffffffffffffffffffffffffffffffffffffffff19166020820180517bffffffffffffffffffffffffffffffffffffffffffffffffffffffff8381831617835250505050604051610d3b919061154e565b6000604051808303816000865af19150503d8060008114610d78576040519150601f19603f3d011682016040523d82523d6000602084013e610d7d565b606091505b505050816020015115610e9257600560009054906101000a900473ffffffffffffffffffffffffffffffffffffffff1673ffffffffffffffffffffffffffffffffffffffff1663beed9b5160e01b89898989604051602401610de2949392919061170b565b604051602081830303815290604052907bffffffffffffffffffffffffffffffffffffffffffffffffffffffff19166020820180517bffffffffffffffffffffffffffffffffffffffffffffffffffffffff8381831617835250505050604051610e4c919061154e565b6000604051808303816000865af19150503d8060008114610e89576040519150601f19603f3d011682016040523d82523d6000602084013e610e8e565b606091505b5050505b600193505050505b949350505050565b610eaa6110d2565b600060026040518060400160405290816000820160009054906101000a900473ffffffffffffffffffffffffffffffffffffffff1673ffffffffffffffffffffffffffffffffffffffff1673ffffffffffffffffffffffffffffffffffffffff1681526020016000820160149054906101000a900460ff16151515158152505090506000816000015190506000600360009054906101000a900473ffffffffffffffffffffffffffffffffffffffff1690508260200151610fa0576040517f08c379a0000000000000000000000000000000000000000000000000000000008152600401610f97906116cb565b60405180910390fd5b60405180604001604052808273ffffffffffffffffffffffffffffffffffffffff16815260200160001515815250600260008201518160000160006101000a81548173ffffffffffffffffffffffffffffffffffffffff021916908373ffffffffffffffffffffffffffffffffffffffff16021790555060208201518160000160146101000a81548160ff021916908315150217905550905050600360006101000a81549073ffffffffffffffffffffffffffffffffffffffff02191690558073ffffffffffffffffffffffffffffffffffffffff168273ffffffffffffffffffffffffffffffffffffffff167f7005ddb42f7ac176ef55c6adb46b53f52e2832c77e915dad61a643841466ea2160405160405180910390a3505050565b6110c66110d2565b6110cf81611162565b50565b60008054906101000a900473ffffffffffffffffffffffffffffffffffffffff1673ffffffffffffffffffffffffffffffffffffffff163373ffffffffffffffffffffffffffffffffffffffff1614611160576040517f08c379a00000000000000000000000000000000000000000000000000000000081526004016111579061166b565b60405180910390fd5b565b3373ffffffffffffffffffffffffffffffffffffffff168173ffffffffffffffffffffffffffffffffffffffff1614156111d1576040517f08c379a00000000000000000000000000000000000000000000000000000000081526004016111c8906116ab565b60405180910390fd5b80600160006101000a81548173ffffffffffffffffffffffffffffffffffffffff021916908373ffffffffffffffffffffffffffffffffffffffff1602179055508073ffffffffffffffffffffffffffffffffffffffff1660008054906101000a900473ffffffffffffffffffffffffffffffffffffffff1673ffffffffffffffffffffffffffffffffffffffff167fed8889f560326eb138920d842192f0eb3dd22b4f139c87a2c57538e05bae127860405160405180910390a350565b60008135905061129e81611972565b92915050565b6000813590506112b381611989565b92915050565b6000813590506112c8816119a0565b92915050565b6000813590506112dd816119b7565b92915050565b6000602082840312156112f9576112f861183d565b5b60006113078482850161128f565b91505092915050565b6000602082840312156113265761132561183d565b5b6000611334848285016112a4565b91505092915050565b600080600080608085870312156113575761135661183d565b5b6000611365878288016112ce565b9450506020611376878288016112b9565b9350506040611387878288016112ce565b9250506060611398878288016112b9565b91505092959194509250565b6113ad81611782565b82525050565b6113bc81611794565b82525050565b60006113cd82611750565b6113d78185611766565b93506113e781856020860161180a565b80840191505092915050565b6113fc816117e6565b82525050565b61140b816117b2565b82525050565b600061141c8261175b565b6114268185611771565b935061143681856020860161180a565b61143f81611842565b840191505092915050565b6000611457601683611771565b915061146282611853565b602082019050919050565b600061147a601b83611771565b91506114858261187c565b602082019050919050565b600061149d601683611771565b91506114a8826118a5565b602082019050919050565b60006114c0601083611771565b91506114cb826118ce565b602082019050919050565b60006114e3601783611771565b91506114ee826118f7565b602082019050919050565b6000611506600b83611771565b915061151182611920565b602082019050919050565b6000611529601083611771565b915061153482611949565b602082019050919050565b611548816117dc565b82525050565b600061155a82846113c2565b915081905092915050565b600060208201905061157a60008301846113a4565b92915050565b600060608201905061159560008301866113a4565b6115a260208301856113b3565b6115af60408301846113a4565b949350505050565b60006020820190506115cc60008301846113b3565b92915050565b60006060820190506115e760008301866113f3565b6115f460208301856113b3565b61160160408301846113f3565b949350505050565b600060208201905081810360008301526116238184611411565b905092915050565b600060208201905081810360008301526116448161144a565b9050919050565b600060208201905081810360008301526116648161146d565b9050919050565b6000602082019050818103600083015261168481611490565b9050919050565b600060208201905081810360008301526116a4816114b3565b9050919050565b600060208201905081810360008301526116c4816114d6565b9050919050565b600060208201905081810360008301526116e4816114f9565b9050919050565b600060208201905081810360008301526117048161151c565b9050919050565b6000608082019050611720600083018761153f565b61172d6020830186611402565b61173a604083018561153f565b6117476060830184611402565b95945050505050565b600081519050919050565b600081519050919050565b600081905092915050565b600082825260208201905092915050565b600061178d826117bc565b9050919050565b60008115159050919050565b60006117ab82611782565b9050919050565b6000819050919050565b600073ffffffffffffffffffffffffffffffffffffffff82169050919050565b6000819050919050565b60006117f1826117f8565b9050919050565b6000611803826117bc565b9050919050565b60005b8381101561182857808201518184015260208101905061180d565b83811115611837576000848401525b50505050565b600080fd5b6000601f19601f8301169050919050565b7f4d7573742062652070726f706f736564206f776e657200000000000000000000600082015250565b7f4e6f74206120636f6e666967757265642061676772656761746f720000000000600082015250565b7f4f6e6c792063616c6c61626c65206279206f776e657200000000000000000000600082015250565b7f4e6f2076616c696461746f722073657400000000000000000000000000000000600082015250565b7f43616e6e6f74207472616e7366657220746f2073656c66000000000000000000600082015250565b7f4e6f2070726f706f73616c000000000000000000000000000000000000000000600082015250565b7f496e76616c69642070726f706f73616c00000000000000000000000000000000600082015250565b61197b81611782565b811461198657600080fd5b50565b611992816117a0565b811461199d57600080fd5b50565b6119a9816117b2565b81146119b457600080fd5b50565b6119c0816117dc565b81146119cb57600080fd5b5056fea26469706673582212207f13d695ade354cfa3d5852e56682693562fd9b9454cf5fd09626696a9bab76364736f6c63430008060033",
  "linkReferences": {},
  "deployedLinkReferences": {}
}