{
  "_format": "hh-sol-artifact-1",
  "contractName": "VRFConsumer",
  "sourceName": "contracts/chainlink/v0.8/tests/VRFConsumer.sol",
  "abi": [
    {
      "inputs": [
        {
          "internalType": "address",
          "name": "vrfCoordinator",
          "type": "address"
        },
        {
          "internalType": "address",
          "name": "link",
          "type": "address"
        }
      ],
      "stateMutability": "nonpayable",
      "type": "constructor"
    },
    {
      "inputs": [],
      "name": "randomnessOutput",
      "outputs": [
        {
          "internalType": "uint256",
          "name": "",
          "type": "uint256"
        }
      ],
      "stateMutability": "view",
      "type": "function"
    },
    {
      "inputs": [
        {
          "internalType": "bytes32",
          "name": "requestId",
          "type": "bytes32"
        },
        {
          "internalType": "uint256",
          "name": "randomness",
          "type": "uint256"
        }
      ],
      "name": "rawFulfillRandomness",
      "outputs": [],
      "stateMutability": "nonpayable",
      "type": "function"
    },
    {
      "inputs": [],
      "name": "requestId",
      "outputs": [
        {
          "internalType": "bytes32",
          "name": "",
          "type": "bytes32"
        }
      ],
      "stateMutability": "view",
      "type": "function"
    },
    {
      "inputs": [
        {
          "internalType": "bytes32",
          "name": "keyHash",
          "type": "bytes32"
        },
        {
          "internalType": "uint256",
          "name": "fee",
          "type": "uint256"
        }
      ],
      "name": "testRequestRandomness",
      "outputs": [
        {
          "internalType": "bytes32",
          "name": "",
          "type": "bytes32"
        }
      ],
      "stateMutability": "nonpayable",
      "type": "function"
    }
  ],
  "bytecode": "0x60c060405234801561001057600080fd5b50604051610982380380610982833981810160405281019061003291906100c0565b81818173ffffffffffffffffffffffffffffffffffffffff1660a08173ffffffffffffffffffffffffffffffffffffffff1660601b815250508073ffffffffffffffffffffffffffffffffffffffff1660808173ffffffffffffffffffffffffffffffffffffffff1660601b815250505050505061014e565b6000815190506100ba81610137565b92915050565b600080604083850312156100d7576100d6610132565b5b60006100e5858286016100ab565b92505060206100f6858286016100ab565b9150509250929050565b600061010b82610112565b9050919050565b600073ffffffffffffffffffffffffffffffffffffffff82169050919050565b600080fd5b61014081610100565b811461014b57600080fd5b50565b60805160601c60a05160601c61080361017f6000396000818160fa01526101d40152600061019801526108036000f3fe608060405234801561001057600080fd5b506004361061004b5760003560e01c80626d6cae146100505780632f47fd861461006e578063866ee7481461008c57806394985ddd146100bc575b600080fd5b6100586100d8565b604051610065919061053a565b60405180910390f35b6100766100de565b60405161008391906105e3565b60405180910390f35b6100a660048036038101906100a191906103d9565b6100e4565b6040516100b3919061053a565b60405180910390f35b6100d660048036038101906100d191906103d9565b6100f8565b005b60025481565b60015481565b60006100f08383610194565b905092915050565b7f000000000000000000000000000000000000000000000000000000000000000073ffffffffffffffffffffffffffffffffffffffff163373ffffffffffffffffffffffffffffffffffffffff1614610186576040517f08c379a000000000000000000000000000000000000000000000000000000000815260040161017d906105c3565b60405180910390fd5b61019082826102f3565b5050565b60007f000000000000000000000000000000000000000000000000000000000000000073ffffffffffffffffffffffffffffffffffffffff16634000aea07f000000000000000000000000000000000000000000000000000000000000000084866000604051602001610208929190610555565b6040516020818303038152906040526040518463ffffffff1660e01b8152600401610235939291906104fc565b602060405180830381600087803b15801561024f57600080fd5b505af1158015610263573d6000803e3d6000fd5b505050506040513d601f19601f8201168201806040525081019061028791906103ac565b5060006102a984600030600080898152602001908152602001600020546102fe565b90506001600080868152602001908152602001600020546102ca919061062b565b600080868152602001908152602001600020819055506102ea848261033a565b91505092915050565b806001819055505050565b600084848484604051602001610317949392919061057e565b6040516020818303038152906040528051906020012060001c9050949350505050565b6000828260405160200161034f9291906104d0565b60405160208183030381529060405280519060200120905092915050565b60008151905061037c81610788565b92915050565b6000813590506103918161079f565b92915050565b6000813590506103a6816107b6565b92915050565b6000602082840312156103c2576103c1610749565b5b60006103d08482850161036d565b91505092915050565b600080604083850312156103f0576103ef610749565b5b60006103fe85828601610382565b925050602061040f85828601610397565b9150509250929050565b61042281610681565b82525050565b6104318161069f565b82525050565b6104486104438261069f565b610706565b82525050565b6000610459826105fe565b6104638185610609565b93506104738185602086016106d3565b61047c8161074e565b840191505092915050565b6000610494601f8361061a565b915061049f8261075f565b602082019050919050565b6104b3816106c9565b82525050565b6104ca6104c5826106c9565b610710565b82525050565b60006104dc8285610437565b6020820191506104ec82846104b9565b6020820191508190509392505050565b60006060820190506105116000830186610419565b61051e60208301856104aa565b8181036040830152610530818461044e565b9050949350505050565b600060208201905061054f6000830184610428565b92915050565b600060408201905061056a6000830185610428565b61057760208301846104aa565b9392505050565b60006080820190506105936000830187610428565b6105a060208301866104aa565b6105ad6040830185610419565b6105ba60608301846104aa565b95945050505050565b600060208201905081810360008301526105dc81610487565b9050919050565b60006020820190506105f860008301846104aa565b92915050565b600081519050919050565b600082825260208201905092915050565b600082825260208201905092915050565b6000610636826106c9565b9150610641836106c9565b9250827fffffffffffffffffffffffffffffffffffffffffffffffffffffffffffffffff038211156106765761067561071a565b5b828201905092915050565b600061068c826106a9565b9050919050565b60008115159050919050565b6000819050919050565b600073ffffffffffffffffffffffffffffffffffffffff82169050919050565b6000819050919050565b60005b838110156106f15780820151818401526020810190506106d6565b83811115610700576000848401525b50505050565b6000819050919050565b6000819050919050565b7f4e487b7100000000000000000000000000000000000000000000000000000000600052601160045260246000fd5b600080fd5b6000601f19601f8301169050919050565b7f4f6e6c7920565246436f6f7264696e61746f722063616e2066756c66696c6c00600082015250565b61079181610693565b811461079c57600080fd5b50565b6107a88161069f565b81146107b357600080fd5b50565b6107bf816106c9565b81146107ca57600080fd5b5056fea2646970667358221220fca98aca0ccad477df3d153b13d1ec9345d2764e1abba0af1ba30e836c3d9b1664736f6c63430008060033",
  "linkReferences": {},
  "deployedLinkReferences": {}
}