{
  "_format": "hh-sol-artifact-1",
  "contractName": "ArbitrumValidator",
  "sourceName": "contracts/chainlink/v0.8/dev/ArbitrumValidator.sol",
  "abi": [
    {
      "inputs": [
        {
          "internalType": "address",
          "name": "crossDomainMessengerAddr",
          "type": "address"
        },
        {
          "internalType": "address",
          "name": "l2CrossDomainForwarderAddr",
          "type": "address"
        },
        {
          "internalType": "address",
          "name": "l2FlagsAddr",
          "type": "address"
        },
        {
          "internalType": "address",
          "name": "configACAddr",
          "type": "address"
        },
        {
          "internalType": "uint256",
          "name": "maxGas",
          "type": "uint256"
        },
        {
          "internalType": "uint256",
          "name": "gasPriceBid",
          "type": "uint256"
        },
        {
          "internalType": "address",
          "name": "gasPriceL1FeedAddr",
          "type": "address"
        },
        {
          "internalType": "enum ArbitrumValidator.PaymentStrategy",
          "name": "paymentStrategy",
          "type": "uint8"
        }
      ],
      "stateMutability": "nonpayable",
      "type": "constructor"
    },
    {
      "anonymous": false,
      "inputs": [
        {
          "indexed": false,
          "internalType": "address",
          "name": "user",
          "type": "address"
        }
      ],
      "name": "AddedAccess",
      "type": "event"
    },
    {
      "anonymous": false,
      "inputs": [],
      "name": "CheckAccessDisabled",
      "type": "event"
    },
    {
      "anonymous": false,
      "inputs": [],
      "name": "CheckAccessEnabled",
      "type": "event"
    },
    {
      "anonymous": false,
      "inputs": [
        {
          "indexed": true,
          "internalType": "address",
          "name": "previous",
          "type": "address"
        },
        {
          "indexed": true,
          "internalType": "address",
          "name": "current",
          "type": "address"
        }
      ],
      "name": "ConfigACSet",
      "type": "event"
    },
    {
      "anonymous": false,
      "inputs": [
        {
          "indexed": false,
          "internalType": "uint256",
          "name": "maxGas",
          "type": "uint256"
        },
        {
          "indexed": false,
          "internalType": "uint256",
          "name": "gasPriceBid",
          "type": "uint256"
        },
        {
          "indexed": true,
          "internalType": "address",
          "name": "gasPriceL1FeedAddr",
          "type": "address"
        }
      ],
      "name": "GasConfigSet",
      "type": "event"
    },
    {
      "anonymous": false,
      "inputs": [
        {
          "indexed": true,
          "internalType": "uint256",
          "name": "id",
          "type": "uint256"
        },
        {
          "indexed": false,
          "internalType": "uint256",
          "name": "amount",
          "type": "uint256"
        },
        {
          "indexed": true,
          "internalType": "address",
          "name": "refundAddr",
          "type": "address"
        }
      ],
      "name": "L2WithdrawalRequested",
      "type": "event"
    },
    {
      "anonymous": false,
      "inputs": [
        {
          "indexed": true,
          "internalType": "address",
          "name": "from",
          "type": "address"
        },
        {
          "indexed": true,
          "internalType": "address",
          "name": "to",
          "type": "address"
        }
      ],
      "name": "OwnershipTransferRequested",
      "type": "event"
    },
    {
      "anonymous": false,
      "inputs": [
        {
          "indexed": true,
          "internalType": "address",
          "name": "from",
          "type": "address"
        },
        {
          "indexed": true,
          "internalType": "address",
          "name": "to",
          "type": "address"
        }
      ],
      "name": "OwnershipTransferred",
      "type": "event"
    },
    {
      "anonymous": false,
      "inputs": [
        {
          "indexed": true,
          "internalType": "enum ArbitrumValidator.PaymentStrategy",
          "name": "paymentStrategy",
          "type": "uint8"
        }
      ],
      "name": "PaymentStrategySet",
      "type": "event"
    },
    {
      "anonymous": false,
      "inputs": [
        {
          "indexed": false,
          "internalType": "address",
          "name": "user",
          "type": "address"
        }
      ],
      "name": "RemovedAccess",
      "type": "event"
    },
    {
      "inputs": [],
      "name": "CROSS_DOMAIN_MESSENGER",
      "outputs": [
        {
          "internalType": "address",
          "name": "",
          "type": "address"
        }
      ],
      "stateMutability": "view",
      "type": "function"
    },
    {
      "inputs": [],
      "name": "L2_ALIAS",
      "outputs": [
        {
          "internalType": "address",
          "name": "",
          "type": "address"
        }
      ],
      "stateMutability": "view",
      "type": "function"
    },
    {
      "inputs": [],
      "name": "L2_CROSS_DOMAIN_FORWARDER",
      "outputs": [
        {
          "internalType": "address",
          "name": "",
          "type": "address"
        }
      ],
      "stateMutability": "view",
      "type": "function"
    },
    {
      "inputs": [],
      "name": "L2_FLAGS",
      "outputs": [
        {
          "internalType": "address",
          "name": "",
          "type": "address"
        }
      ],
      "stateMutability": "view",
      "type": "function"
    },
    {
      "inputs": [],
      "name": "acceptOwnership",
      "outputs": [],
      "stateMutability": "nonpayable",
      "type": "function"
    },
    {
      "inputs": [
        {
          "internalType": "address",
          "name": "_user",
          "type": "address"
        }
      ],
      "name": "addAccess",
      "outputs": [],
      "stateMutability": "nonpayable",
      "type": "function"
    },
    {
      "inputs": [],
      "name": "checkEnabled",
      "outputs": [
        {
          "internalType": "bool",
          "name": "",
          "type": "bool"
        }
      ],
      "stateMutability": "view",
      "type": "function"
    },
    {
      "inputs": [],
      "name": "configAC",
      "outputs": [
        {
          "internalType": "address",
          "name": "",
          "type": "address"
        }
      ],
      "stateMutability": "view",
      "type": "function"
    },
    {
      "inputs": [],
      "name": "disableAccessCheck",
      "outputs": [],
      "stateMutability": "nonpayable",
      "type": "function"
    },
    {
      "inputs": [],
      "name": "enableAccessCheck",
      "outputs": [],
      "stateMutability": "nonpayable",
      "type": "function"
    },
    {
      "inputs": [],
      "name": "gasConfig",
      "outputs": [
        {
          "components": [
            {
              "internalType": "uint256",
              "name": "maxGas",
              "type": "uint256"
            },
            {
              "internalType": "uint256",
              "name": "gasPriceBid",
              "type": "uint256"
            },
            {
              "internalType": "address",
              "name": "gasPriceL1FeedAddr",
              "type": "address"
            }
          ],
          "internalType": "struct ArbitrumValidator.GasConfig",
          "name": "",
          "type": "tuple"
        }
      ],
      "stateMutability": "view",
      "type": "function"
    },
    {
      "inputs": [
        {
          "internalType": "address",
          "name": "_user",
          "type": "address"
        },
        {
          "internalType": "bytes",
          "name": "",
          "type": "bytes"
        }
      ],
      "name": "hasAccess",
      "outputs": [
        {
          "internalType": "bool",
          "name": "",
          "type": "bool"
        }
      ],
      "stateMutability": "view",
      "type": "function"
    },
    {
      "inputs": [],
      "name": "owner",
      "outputs": [
        {
          "internalType": "address",
          "name": "",
          "type": "address"
        }
      ],
      "stateMutability": "view",
      "type": "function"
    },
    {
      "inputs": [],
      "name": "paymentStrategy",
      "outputs": [
        {
          "internalType": "enum ArbitrumValidator.PaymentStrategy",
          "name": "",
          "type": "uint8"
        }
      ],
      "stateMutability": "view",
      "type": "function"
    },
    {
      "inputs": [
        {
          "internalType": "address",
          "name": "_user",
          "type": "address"
        }
      ],
      "name": "removeAccess",
      "outputs": [],
      "stateMutability": "nonpayable",
      "type": "function"
    },
    {
      "inputs": [
        {
          "internalType": "address",
          "name": "accessController",
          "type": "address"
        }
      ],
      "name": "setConfigAC",
      "outputs": [],
      "stateMutability": "nonpayable",
      "type": "function"
    },
    {
      "inputs": [
        {
          "internalType": "uint256",
          "name": "maxGas",
          "type": "uint256"
        },
        {
          "internalType": "uint256",
          "name": "gasPriceBid",
          "type": "uint256"
        },
        {
          "internalType": "address",
          "name": "gasPriceL1FeedAddr",
          "type": "address"
        }
      ],
      "name": "setGasConfig",
      "outputs": [],
      "stateMutability": "nonpayable",
      "type": "function"
    },
    {
      "inputs": [
        {
          "internalType": "enum ArbitrumValidator.PaymentStrategy",
          "name": "paymentStrategy",
          "type": "uint8"
        }
      ],
      "name": "setPaymentStrategy",
      "outputs": [],
      "stateMutability": "nonpayable",
      "type": "function"
    },
    {
      "inputs": [
        {
          "internalType": "address",
          "name": "to",
          "type": "address"
        }
      ],
      "name": "transferOwnership",
      "outputs": [],
      "stateMutability": "nonpayable",
      "type": "function"
    },
    {
      "inputs": [],
      "name": "typeAndVersion",
      "outputs": [
        {
          "internalType": "string",
          "name": "",
          "type": "string"
        }
      ],
      "stateMutability": "pure",
      "type": "function"
    },
    {
      "inputs": [
        {
          "internalType": "uint256",
          "name": "",
          "type": "uint256"
        },
        {
          "internalType": "int256",
          "name": "previousAnswer",
          "type": "int256"
        },
        {
          "internalType": "uint256",
          "name": "",
          "type": "uint256"
        },
        {
          "internalType": "int256",
          "name": "currentAnswer",
          "type": "int256"
        }
      ],
      "name": "validate",
      "outputs": [
        {
          "internalType": "bool",
          "name": "",
          "type": "bool"
        }
      ],
      "stateMutability": "nonpayable",
      "type": "function"
    },
    {
      "inputs": [],
      "name": "withdrawFunds",
      "outputs": [],
      "stateMutability": "nonpayable",
      "type": "function"
    },
    {
      "inputs": [
        {
          "internalType": "uint256",
          "name": "amount",
          "type": "uint256"
        },
        {
          "internalType": "address",
          "name": "refundAddr",
          "type": "address"
        }
      ],
      "name": "withdrawFundsFromL2",
      "outputs": [
        {
          "internalType": "uint256",
          "name": "id",
          "type": "uint256"
        }
      ],
      "stateMutability": "nonpayable",
      "type": "function"
    },
    {
      "inputs": [
        {
          "internalType": "address payable",
          "name": "recipient",
          "type": "address"
        }
      ],
      "name": "withdrawFundsTo",
      "outputs": [],
      "stateMutability": "nonpayable",
      "type": "function"
    },
    {
      "stateMutability": "payable",
      "type": "receive"
    }
  ],
  "bytecode": "0x6101006040526200001b30620003de60201b620015841760201c565b73ffffffffffffffffffffffffffffffffffffffff1660e09073ffffffffffffffffffffffffffffffffffffffff1660601b8152503480156200005d57600080fd5b5060405162003c2c38038062003c2c8339818101604052810190620000839190620008c7565b338060008073ffffffffffffffffffffffffffffffffffffffff168273ffffffffffffffffffffffffffffffffffffffff161415620000f9576040517f08c379a0000000000000000000000000000000000000000000000000000000008152600401620000f09062000b61565b60405180910390fd5b816000806101000a81548173ffffffffffffffffffffffffffffffffffffffff021916908373ffffffffffffffffffffffffffffffffffffffff160217905550600073ffffffffffffffffffffffffffffffffffffffff168173ffffffffffffffffffffffffffffffffffffffff161462000180576200017f81620003fe60201b60201c565b5b50505060018060146101000a81548160ff021916908315150217905550600073ffffffffffffffffffffffffffffffffffffffff168873ffffffffffffffffffffffffffffffffffffffff16141562000210576040517f08c379a0000000000000000000000000000000000000000000000000000000008152600401620002079062000afb565b60405180910390fd5b600073ffffffffffffffffffffffffffffffffffffffff168773ffffffffffffffffffffffffffffffffffffffff16141562000283576040517f08c379a00000000000000000000000000000000000000000000000000000000081526004016200027a9062000ad9565b60405180910390fd5b600073ffffffffffffffffffffffffffffffffffffffff168673ffffffffffffffffffffffffffffffffffffffff161415620002f6576040517f08c379a0000000000000000000000000000000000000000000000000000000008152600401620002ed9062000b3f565b60405180910390fd5b8773ffffffffffffffffffffffffffffffffffffffff1660808173ffffffffffffffffffffffffffffffffffffffff1660601b815250508673ffffffffffffffffffffffffffffffffffffffff1660a08173ffffffffffffffffffffffffffffffffffffffff1660601b815250508573ffffffffffffffffffffffffffffffffffffffff1660c08173ffffffffffffffffffffffffffffffffffffffff1660601b81525050620003ac856200052e60201b60201c565b620003bf8484846200062960201b60201c565b620003d0816200081060201b60201c565b505050505050505062000e98565b600073111100000000000000000000000000000000111182019050919050565b3373ffffffffffffffffffffffffffffffffffffffff168173ffffffffffffffffffffffffffffffffffffffff16141562000470576040517f08c379a0000000000000000000000000000000000000000000000000000000008152600401620004679062000ba5565b60405180910390fd5b80600160006101000a81548173ffffffffffffffffffffffffffffffffffffffff021916908373ffffffffffffffffffffffffffffffffffffffff1602179055508073ffffffffffffffffffffffffffffffffffffffff1660008054906101000a900473ffffffffffffffffffffffffffffffffffffffff1673ffffffffffffffffffffffffffffffffffffffff167fed8889f560326eb138920d842192f0eb3dd22b4f139c87a2c57538e05bae127860405160405180910390a350565b6000600760009054906101000a900473ffffffffffffffffffffffffffffffffffffffff1690508073ffffffffffffffffffffffffffffffffffffffff168273ffffffffffffffffffffffffffffffffffffffff1614620006255781600760006101000a81548173ffffffffffffffffffffffffffffffffffffffff021916908373ffffffffffffffffffffffffffffffffffffffff1602179055508173ffffffffffffffffffffffffffffffffffffffff168173ffffffffffffffffffffffffffffffffffffffff167f6b0ce63879b19fa36f93da30a36f44140d8c3c727b6c75a16165c2017037d2cc60405160405180910390a35b5050565b600083116200066f576040517f08c379a0000000000000000000000000000000000000000000000000000000008152600401620006669062000b83565b60405180910390fd5b60008211620006b5576040517f08c379a0000000000000000000000000000000000000000000000000000000008152600401620006ac9062000bc7565b60405180910390fd5b600073ffffffffffffffffffffffffffffffffffffffff168173ffffffffffffffffffffffffffffffffffffffff16141562000728576040517f08c379a00000000000000000000000000000000000000000000000000000000081526004016200071f9062000b1d565b60405180910390fd5b60405180606001604052808481526020018381526020018273ffffffffffffffffffffffffffffffffffffffff168152506004600082015181600001556020820151816001015560408201518160020160006101000a81548173ffffffffffffffffffffffffffffffffffffffff021916908373ffffffffffffffffffffffffffffffffffffffff1602179055509050508073ffffffffffffffffffffffffffffffffffffffff167f35674f8e28e701bef8f072d1034d588998f6966a59806b4299f6749c86b269e384846040516200080392919062000be9565b60405180910390a2505050565b80600360006101000a81548160ff0219169083600181111562000838576200083762000c65565b5b021790555080600181111562000853576200085262000c65565b5b7fcc19f6868f2a8f851b1b59973487a53f0ac827f88698345b1529ef7c77b22bb560405160405180910390a250565b600081519050620008938162000e53565b92915050565b600081519050620008aa8162000e6d565b92915050565b600081519050620008c18162000e7e565b92915050565b600080600080600080600080610100898b031215620008eb57620008ea62000c94565b5b6000620008fb8b828c0162000882565b98505060206200090e8b828c0162000882565b9750506040620009218b828c0162000882565b9650506060620009348b828c0162000882565b9550506080620009478b828c01620008b0565b94505060a06200095a8b828c01620008b0565b93505060c06200096d8b828c0162000882565b92505060e0620009808b828c0162000899565b9150509295985092959890939650565b60006200099f60248362000c16565b9150620009ac8262000c99565b604082019050919050565b6000620009c660218362000c16565b9150620009d38262000ce8565b604082019050919050565b6000620009ed60248362000c16565b9150620009fa8262000d37565b604082019050919050565b600062000a14601e8362000c16565b915062000a218262000d86565b602082019050919050565b600062000a3b60188362000c16565b915062000a488262000daf565b602082019050919050565b600062000a62600f8362000c16565b915062000a6f8262000dd8565b602082019050919050565b600062000a8960178362000c16565b915062000a968262000e01565b602082019050919050565b600062000ab060158362000c16565b915062000abd8262000e2a565b602082019050919050565b62000ad38162000c5b565b82525050565b6000602082019050818103600083015262000af48162000990565b9050919050565b6000602082019050818103600083015262000b1681620009b7565b9050919050565b6000602082019050818103600083015262000b3881620009de565b9050919050565b6000602082019050818103600083015262000b5a8162000a05565b9050919050565b6000602082019050818103600083015262000b7c8162000a2c565b9050919050565b6000602082019050818103600083015262000b9e8162000a53565b9050919050565b6000602082019050818103600083015262000bc08162000a7a565b9050919050565b6000602082019050818103600083015262000be28162000aa1565b9050919050565b600060408201905062000c00600083018562000ac8565b62000c0f602083018462000ac8565b9392505050565b600082825260208201905092915050565b600062000c348262000c3b565b9050919050565b600073ffffffffffffffffffffffffffffffffffffffff82169050919050565b6000819050919050565b7f4e487b7100000000000000000000000000000000000000000000000000000000600052602160045260246000fd5b600080fd5b7f496e76616c6964204c322078446f6d61696e20466f727761726465722061646460008201527f7265737300000000000000000000000000000000000000000000000000000000602082015250565b7f496e76616c69642078446f6d61696e204d657373656e6765722061646472657360008201527f7300000000000000000000000000000000000000000000000000000000000000602082015250565b7f4761732070726963652041676772656761746f72206973207a65726f2061646460008201527f7265737300000000000000000000000000000000000000000000000000000000602082015250565b7f496e76616c696420466c61677320636f6e747261637420616464726573730000600082015250565b7f43616e6e6f7420736574206f776e657220746f207a65726f0000000000000000600082015250565b7f4d617820676173206973207a65726f0000000000000000000000000000000000600082015250565b7f43616e6e6f74207472616e7366657220746f2073656c66000000000000000000600082015250565b7f47617320707269636520626964206973207a65726f0000000000000000000000600082015250565b62000e5e8162000c27565b811462000e6a57600080fd5b50565b6002811062000e7b57600080fd5b50565b62000e898162000c5b565b811462000e9557600080fd5b50565b60805160601c60a05160601c60c05160601c60e05160601c612d2b62000f016000396000818161068701526111c901526000818161066301526111fa01526000818161110201526114aa0152600081816105b8015281816107a0015261146d0152612d2b6000f3fe60806040526004361061014f5760003560e01c80636b14daf8116100b6578063a118f2491161006f578063a118f2491461042d578063a2e6e0eb14610456578063a975f9421461047f578063beed9b51146104aa578063dc7f0124146104e7578063f2fde38b1461051257610156565b80636b14daf81461034557806379ba5097146103825780638038e4a1146103995780638823da6c146103b05780638a67ad0f146103d95780638da5cb5b1461040257610156565b80632b62c33a116101085780632b62c33a146102335780633e48f0151461025e57806344c2fa0c14610289578063490a4432146102c65780635def6ea7146102f15780635e521eca1461031a57610156565b806302163e6c1461015b5780630a7569831461018457806316be836c1461019b578063181f5a77146101c657806324600fc3146101f1578063276bf08f1461020857610156565b3661015657005b600080fd5b34801561016757600080fd5b50610182600480360381019061017d9190611e07565b61053b565b005b34801561019057600080fd5b5061019961054f565b005b3480156101a757600080fd5b506101b06105b6565b6040516101bd9190612376565b60405180910390f35b3480156101d257600080fd5b506101db6105da565b6040516101e89190612533565b60405180910390f35b3480156101fd57600080fd5b50610206610617565b005b34801561021457600080fd5b5061021d610637565b60405161022a9190612376565b60405180910390f35b34801561023f57600080fd5b50610248610661565b6040516102559190612376565b60405180910390f35b34801561026a57600080fd5b50610273610685565b6040516102809190612376565b60405180910390f35b34801561029557600080fd5b506102b060048036038101906102ab9190611f44565b6106a9565b6040516102bd9190612690565b60405180910390f35b3480156102d257600080fd5b506102db6108b5565b6040516102e89190612675565b60405180910390f35b3480156102fd57600080fd5b5061031860048036038101906103139190611feb565b610939565b005b34801561032657600080fd5b5061032f610ad0565b60405161033c9190612518565b60405180910390f35b34801561035157600080fd5b5061036c60048036038101906103679190611e61565b610ae7565b60405161037991906124fd565b60405180910390f35b34801561038e57600080fd5b50610397610b56565b005b3480156103a557600080fd5b506103ae610ceb565b005b3480156103bc57600080fd5b506103d760048036038101906103d29190611e07565b610d50565b005b3480156103e557600080fd5b5061040060048036038101906103fb9190611eea565b610e3d565b005b34801561040e57600080fd5b50610417610fd0565b6040516104249190612376565b60405180910390f35b34801561043957600080fd5b50610454600480360381019061044f9190611e07565b610ff9565b005b34801561046257600080fd5b5061047d60048036038101906104789190611e34565b6110e5565b005b34801561048b57600080fd5b50610494611100565b6040516104a19190612376565b60405180910390f35b3480156104b657600080fd5b506104d160048036038101906104cc9190611f84565b611124565b6040516104de91906124fd565b60405180910390f35b3480156104f357600080fd5b506104fc61155d565b60405161050991906124fd565b60405180910390f35b34801561051e57600080fd5b5061053960048036038101906105349190611e07565b611570565b005b6105436115a4565b61054c81611634565b50565b6105576115a4565b600160149054906101000a900460ff16156105b4576000600160146101000a81548160ff0219169083151502179055507f3be8a977a014527b50ae38adda80b56911c267328965c98ddc385d248f53963860405160405180910390a15b565b7f000000000000000000000000000000000000000000000000000000000000000081565b60606040518060400160405280601781526020017f417262697472756d56616c696461746f7220302e322e30000000000000000000815250905090565b61061f6115a4565b60003390506000479050610633828261172e565b5050565b6000600760009054906101000a900473ffffffffffffffffffffffffffffffffffffffff16905090565b7f000000000000000000000000000000000000000000000000000000000000000081565b7f000000000000000000000000000000000000000000000000000000000000000081565b60006106b36115a4565b600063928c169a60e01b306040516024016106ce9190612376565b604051602081830303815290604052907bffffffffffffffffffffffffffffffffffffffffffffffffffffffff19166020820180517bffffffffffffffffffffffffffffffffffffffffffffffffffffffff8381831617835250505050905060006107398251611822565b90506000620186a0905060006004600101549050600080600181111561076257610761612a04565b5b600360009054906101000a900460ff16600181111561078457610783612a04565b5b1461079057600061079c565b61079b84848461190c565b5b90507f000000000000000000000000000000000000000000000000000000000000000073ffffffffffffffffffffffffffffffffffffffff16631b871c8d8260648b888c8d8a8a8e6040518a63ffffffff1660e01b8152600401610807989796959493929190612478565b6020604051808303818588803b15801561082057600080fd5b505af1158015610834573d6000803e3d6000fd5b50505050506040513d601f19601f820116820180604052508101906108599190611f17565b95508673ffffffffffffffffffffffffffffffffffffffff16867f06f76b16d832d9e442e96306c36f3f2a819b64bd28441aa14fef67308a95c7168a6040516108a29190612690565b60405180910390a3505050505092915050565b6108bd611ca3565b600460405180606001604052908160008201548152602001600182015481526020016002820160009054906101000a900473ffffffffffffffffffffffffffffffffffffffff1673ffffffffffffffffffffffffffffffffffffffff1673ffffffffffffffffffffffffffffffffffffffff1681525050905090565b610941610fd0565b73ffffffffffffffffffffffffffffffffffffffff163373ffffffffffffffffffffffffffffffffffffffff161480610a815750600073ffffffffffffffffffffffffffffffffffffffff16600760009054906101000a900473ffffffffffffffffffffffffffffffffffffffff1673ffffffffffffffffffffffffffffffffffffffff1614158015610a805750600760009054906101000a900473ffffffffffffffffffffffffffffffffffffffff1673ffffffffffffffffffffffffffffffffffffffff16636b14daf8336000366040518463ffffffff1660e01b8152600401610a2f93929190612391565b60206040518083038186803b158015610a4757600080fd5b505afa158015610a5b573d6000803e3d6000fd5b505050506040513d601f19601f82011682018060405250810190610a7f9190611ebd565b5b5b610ac0576040517f08c379a0000000000000000000000000000000000000000000000000000000008152600401610ab7906125f5565b60405180910390fd5b610acb83838361192e565b505050565b6000600360009054906101000a900460ff16905090565b6000600260008473ffffffffffffffffffffffffffffffffffffffff1673ffffffffffffffffffffffffffffffffffffffff16815260200190815260200160002060009054906101000a900460ff1680610b4e5750600160149054906101000a900460ff16155b905092915050565b600160009054906101000a900473ffffffffffffffffffffffffffffffffffffffff1673ffffffffffffffffffffffffffffffffffffffff163373ffffffffffffffffffffffffffffffffffffffff1614610be6576040517f08c379a0000000000000000000000000000000000000000000000000000000008152600401610bdd90612555565b60405180910390fd5b60008060009054906101000a900473ffffffffffffffffffffffffffffffffffffffff169050336000806101000a81548173ffffffffffffffffffffffffffffffffffffffff021916908373ffffffffffffffffffffffffffffffffffffffff1602179055506000600160006101000a81548173ffffffffffffffffffffffffffffffffffffffff021916908373ffffffffffffffffffffffffffffffffffffffff1602179055503373ffffffffffffffffffffffffffffffffffffffff168173ffffffffffffffffffffffffffffffffffffffff167f8be0079c531659141344cd1fd0a4f28419497f9722a3daafe3b4186f6b6457e060405160405180910390a350565b610cf36115a4565b600160149054906101000a900460ff16610d4e5760018060146101000a81548160ff0219169083151502179055507faebf329500988c6488a0074e5a0a9ff304561fc5c6fc877aeb1d59c8282c348060405160405180910390a15b565b610d586115a4565b600260008273ffffffffffffffffffffffffffffffffffffffff1673ffffffffffffffffffffffffffffffffffffffff16815260200190815260200160002060009054906101000a900460ff1615610e3a576000600260008373ffffffffffffffffffffffffffffffffffffffff1673ffffffffffffffffffffffffffffffffffffffff16815260200190815260200160002060006101000a81548160ff0219169083151502179055507f3d68a6fce901d20453d1a7aa06bf3950302a735948037deb182a8db66df2a0d181604051610e319190612376565b60405180910390a15b50565b610e45610fd0565b73ffffffffffffffffffffffffffffffffffffffff163373ffffffffffffffffffffffffffffffffffffffff161480610f855750600073ffffffffffffffffffffffffffffffffffffffff16600760009054906101000a900473ffffffffffffffffffffffffffffffffffffffff1673ffffffffffffffffffffffffffffffffffffffff1614158015610f845750600760009054906101000a900473ffffffffffffffffffffffffffffffffffffffff1673ffffffffffffffffffffffffffffffffffffffff16636b14daf8336000366040518463ffffffff1660e01b8152600401610f3393929190612391565b60206040518083038186803b158015610f4b57600080fd5b505afa158015610f5f573d6000803e3d6000fd5b505050506040513d601f19601f82011682018060405250810190610f839190611ebd565b5b5b610fc4576040517f08c379a0000000000000000000000000000000000000000000000000000000008152600401610fbb906125f5565b60405180910390fd5b610fcd81611b0a565b50565b60008060009054906101000a900473ffffffffffffffffffffffffffffffffffffffff16905090565b6110016115a4565b600260008273ffffffffffffffffffffffffffffffffffffffff1673ffffffffffffffffffffffffffffffffffffffff16815260200190815260200160002060009054906101000a900460ff166110e2576001600260008373ffffffffffffffffffffffffffffffffffffffff1673ffffffffffffffffffffffffffffffffffffffff16815260200190815260200160002060006101000a81548160ff0219169083151502179055507f87286ad1f399c8e82bf0c4ef4fcdc570ea2e1e92176e5c848b6413545b885db4816040516110d99190612376565b60405180910390a15b50565b6110ed6115a4565b60004790506110fc828261172e565b5050565b7f000000000000000000000000000000000000000000000000000000000000000081565b6000611175336000368080601f016020809104026020016040519081016040528093929190818152602001838380828437600081840152601f19601f82011690508083019250505050505050610ae7565b6111b4576040517f08c379a00000000000000000000000000000000000000000000000000000000081526004016111ab906125f5565b60405180910390fd5b818414156111c55760019050611555565b60007f000000000000000000000000000000000000000000000000000000000000000090506000636fadcf7260e01b905060007f000000000000000000000000000000000000000000000000000000000000000090506000600186146112d55763e37a836660e01b60017fa438451d6458044c3c8cd2f6f31c91ac882a6d917fa1d50c2bc3074c4524952d60001c61125d919061284e565b60001b60601c6040516024016112739190612376565b604051602081830303815290604052907bffffffffffffffffffffffffffffffffffffffffffffffffffffffff19166020820180517bffffffffffffffffffffffffffffffffffffffffffffffffffffffff8381831617835250505050611381565b63d74af26360e01b60017fa438451d6458044c3c8cd2f6f31c91ac882a6d917fa1d50c2bc3074c4524952d60001c61130d919061284e565b60001b60601c6040516024016113239190612376565b604051602081830303815290604052907bffffffffffffffffffffffffffffffffffffffffffffffffffffffff19166020820180517bffffffffffffffffffffffffffffffffffffffffffffffffffffffff83818316178352505050505b905060008383836040516024016113999291906123c3565b604051602081830303815290604052907bffffffffffffffffffffffffffffffffffffffffffffffffffffffff19166020820180517bffffffffffffffffffffffffffffffffffffffffffffffffffffffff8381831617835250505050905060006114048251611822565b90506000600460000154905060006004600101549050600080600181111561142f5761142e612a04565b5b600360009054906101000a900460ff16600181111561145157611450612a04565b5b1461145d576000611469565b61146884848461190c565b5b90507f000000000000000000000000000000000000000000000000000000000000000073ffffffffffffffffffffffffffffffffffffffff16631b871c8d827f00000000000000000000000000000000000000000000000000000000000000006000888e8f8a8a8e6040518a63ffffffff1660e01b81526004016114f49897969594939291906123f3565b6020604051808303818588803b15801561150d57600080fd5b505af1158015611521573d6000803e3d6000fd5b50505050506040513d601f19601f820116820180604052508101906115469190611f17565b50600199505050505050505050505b949350505050565b600160149054906101000a900460ff1681565b6115786115a4565b61158181611b76565b50565b600073111100000000000000000000000000000000111182019050919050565b60008054906101000a900473ffffffffffffffffffffffffffffffffffffffff1673ffffffffffffffffffffffffffffffffffffffff163373ffffffffffffffffffffffffffffffffffffffff1614611632576040517f08c379a000000000000000000000000000000000000000000000000000000000815260040161162990612575565b60405180910390fd5b565b6000600760009054906101000a900473ffffffffffffffffffffffffffffffffffffffff1690508073ffffffffffffffffffffffffffffffffffffffff168273ffffffffffffffffffffffffffffffffffffffff161461172a5781600760006101000a81548173ffffffffffffffffffffffffffffffffffffffff021916908373ffffffffffffffffffffffffffffffffffffffff1602179055508173ffffffffffffffffffffffffffffffffffffffff168173ffffffffffffffffffffffffffffffffffffffff167f6b0ce63879b19fa36f93da30a36f44140d8c3c727b6c75a16165c2017037d2cc60405160405180910390a35b5050565b80471015611771576040517f08c379a0000000000000000000000000000000000000000000000000000000008152600401611768906125d5565b60405180910390fd5b60008273ffffffffffffffffffffffffffffffffffffffff168260405161179790612361565b60006040518083038185875af1925050503d80600081146117d4576040519150601f19603f3d011682016040523d82523d6000602084013e6117d9565b606091505b505090508061181d576040517f08c379a0000000000000000000000000000000000000000000000000000000008152600401611814906125b5565b60405180910390fd5b505050565b600080600460020160009054906101000a900473ffffffffffffffffffffffffffffffffffffffff1673ffffffffffffffffffffffffffffffffffffffff1663feaf968c6040518163ffffffff1660e01b815260040160a06040518083038186803b15801561189057600080fd5b505afa1580156118a4573d6000803e3d6000fd5b505050506040513d601f19601f820116820180604052508101906118c8919061203e565b50505091505060006003826118dd91906127f4565b90508061010085836118ef91906127f4565b6118f991906127c3565b611903919061276d565b92505050919050565b6000818361191a91906127f4565b84611925919061276d565b90509392505050565b60008311611971576040517f08c379a000000000000000000000000000000000000000000000000000000000815260040161196890612615565b60405180910390fd5b600082116119b4576040517f08c379a00000000000000000000000000000000000000000000000000000000081526004016119ab90612655565b60405180910390fd5b600073ffffffffffffffffffffffffffffffffffffffff168173ffffffffffffffffffffffffffffffffffffffff161415611a24576040517f08c379a0000000000000000000000000000000000000000000000000000000008152600401611a1b90612595565b60405180910390fd5b60405180606001604052808481526020018381526020018273ffffffffffffffffffffffffffffffffffffffff168152506004600082015181600001556020820151816001015560408201518160020160006101000a81548173ffffffffffffffffffffffffffffffffffffffff021916908373ffffffffffffffffffffffffffffffffffffffff1602179055509050508073ffffffffffffffffffffffffffffffffffffffff167f35674f8e28e701bef8f072d1034d588998f6966a59806b4299f6749c86b269e38484604051611afd9291906126ab565b60405180910390a2505050565b80600360006101000a81548160ff02191690836001811115611b2f57611b2e612a04565b5b0217905550806001811115611b4757611b46612a04565b5b7fcc19f6868f2a8f851b1b59973487a53f0ac827f88698345b1529ef7c77b22bb560405160405180910390a250565b3373ffffffffffffffffffffffffffffffffffffffff168173ffffffffffffffffffffffffffffffffffffffff161415611be5576040517f08c379a0000000000000000000000000000000000000000000000000000000008152600401611bdc90612635565b60405180910390fd5b80600160006101000a81548173ffffffffffffffffffffffffffffffffffffffff021916908373ffffffffffffffffffffffffffffffffffffffff1602179055508073ffffffffffffffffffffffffffffffffffffffff1660008054906101000a900473ffffffffffffffffffffffffffffffffffffffff1673ffffffffffffffffffffffffffffffffffffffff167fed8889f560326eb138920d842192f0eb3dd22b4f139c87a2c57538e05bae127860405160405180910390a350565b60405180606001604052806000815260200160008152602001600073ffffffffffffffffffffffffffffffffffffffff1681525090565b6000611ced611ce8846126f9565b6126d4565b905082815260208101848484011115611d0957611d08612a67565b5b611d14848285612933565b509392505050565b600081359050611d2b81612c5b565b92915050565b600081359050611d4081612c72565b92915050565b600081519050611d5581612c89565b92915050565b600082601f830112611d7057611d6f612a62565b5b8135611d80848260208601611cda565b91505092915050565b600081359050611d9881612ca0565b92915050565b600081359050611dad81612cb0565b92915050565b600081519050611dc281612cb0565b92915050565b600081359050611dd781612cc7565b92915050565b600081519050611dec81612cc7565b92915050565b600081519050611e0181612cde565b92915050565b600060208284031215611e1d57611e1c612a71565b5b6000611e2b84828501611d1c565b91505092915050565b600060208284031215611e4a57611e49612a71565b5b6000611e5884828501611d31565b91505092915050565b60008060408385031215611e7857611e77612a71565b5b6000611e8685828601611d1c565b925050602083013567ffffffffffffffff811115611ea757611ea6612a6c565b5b611eb385828601611d5b565b9150509250929050565b600060208284031215611ed357611ed2612a71565b5b6000611ee184828501611d46565b91505092915050565b600060208284031215611f0057611eff612a71565b5b6000611f0e84828501611d89565b91505092915050565b600060208284031215611f2d57611f2c612a71565b5b6000611f3b84828501611ddd565b91505092915050565b60008060408385031215611f5b57611f5a612a71565b5b6000611f6985828601611dc8565b9250506020611f7a85828601611d1c565b9150509250929050565b60008060008060808587031215611f9e57611f9d612a71565b5b6000611fac87828801611dc8565b9450506020611fbd87828801611d9e565b9350506040611fce87828801611dc8565b9250506060611fdf87828801611d9e565b91505092959194509250565b60008060006060848603121561200457612003612a71565b5b600061201286828701611dc8565b935050602061202386828701611dc8565b925050604061203486828701611d1c565b9150509250925092565b600080600080600060a0868803121561205a57612059612a71565b5b600061206888828901611df2565b955050602061207988828901611db3565b945050604061208a88828901611ddd565b935050606061209b88828901611ddd565b92505060806120ac88828901611df2565b9150509295509295909350565b6120c281612882565b82525050565b6120d181612882565b82525050565b6120e0816128a6565b82525050565b60006120f28385612740565b93506120ff838584612933565b61210883612a76565b840190509392505050565b600061211e8261272a565b6121288185612740565b9350612138818560208601612942565b61214181612a76565b840191505092915050565b6121558161290f565b82525050565b61216481612921565b82525050565b600061217582612735565b61217f818561275c565b935061218f818560208601612942565b61219881612a76565b840191505092915050565b60006121b060168361275c565b91506121bb82612a87565b602082019050919050565b60006121d360168361275c565b91506121de82612ab0565b602082019050919050565b60006121f660248361275c565b915061220182612ad9565b604082019050919050565b6000612219603a8361275c565b915061222482612b28565b604082019050919050565b600061223c601d8361275c565b915061224782612b77565b602082019050919050565b600061225f60098361275c565b915061226a82612ba0565b602082019050919050565b6000612282600f8361275c565b915061228d82612bc9565b602082019050919050565b60006122a5600083612751565b91506122b082612bf2565b600082019050919050565b60006122c860178361275c565b91506122d382612bf5565b602082019050919050565b60006122eb60158361275c565b91506122f682612c1e565b602082019050919050565b6060820160008201516123176000850182612343565b50602082015161232a6020850182612343565b50604082015161233d60408501826120b9565b50505050565b61234c816128ef565b82525050565b61235b816128ef565b82525050565b600061236c82612298565b9150819050919050565b600060208201905061238b60008301846120c8565b92915050565b60006040820190506123a660008301866120c8565b81810360208301526123b98184866120e6565b9050949350505050565b60006040820190506123d860008301856120c8565b81810360208301526123ea8184612113565b90509392505050565b600061010082019050612409600083018b6120c8565b612416602083018a61215b565b6124236040830189612352565b61243060608301886120c8565b61243d60808301876120c8565b61244a60a0830186612352565b61245760c0830185612352565b81810360e08301526124698184612113565b90509998505050505050505050565b60006101008201905061248e600083018b6120c8565b61249b602083018a612352565b6124a86040830189612352565b6124b560608301886120c8565b6124c260808301876120c8565b6124cf60a0830186612352565b6124dc60c0830185612352565b81810360e08301526124ee8184612113565b90509998505050505050505050565b600060208201905061251260008301846120d7565b92915050565b600060208201905061252d600083018461214c565b92915050565b6000602082019050818103600083015261254d818461216a565b905092915050565b6000602082019050818103600083015261256e816121a3565b9050919050565b6000602082019050818103600083015261258e816121c6565b9050919050565b600060208201905081810360008301526125ae816121e9565b9050919050565b600060208201905081810360008301526125ce8161220c565b9050919050565b600060208201905081810360008301526125ee8161222f565b9050919050565b6000602082019050818103600083015261260e81612252565b9050919050565b6000602082019050818103600083015261262e81612275565b9050919050565b6000602082019050818103600083015261264e816122bb565b9050919050565b6000602082019050818103600083015261266e816122de565b9050919050565b600060608201905061268a6000830184612301565b92915050565b60006020820190506126a56000830184612352565b92915050565b60006040820190506126c06000830185612352565b6126cd6020830184612352565b9392505050565b60006126de6126ef565b90506126ea8282612975565b919050565b6000604051905090565b600067ffffffffffffffff82111561271457612713612a33565b5b61271d82612a76565b9050602081019050919050565b600081519050919050565b600081519050919050565b600082825260208201905092915050565b600081905092915050565b600082825260208201905092915050565b6000612778826128ef565b9150612783836128ef565b9250827fffffffffffffffffffffffffffffffffffffffffffffffffffffffffffffffff038211156127b8576127b76129a6565b5b828201905092915050565b60006127ce826128ef565b91506127d9836128ef565b9250826127e9576127e86129d5565b5b828204905092915050565b60006127ff826128ef565b915061280a836128ef565b9250817fffffffffffffffffffffffffffffffffffffffffffffffffffffffffffffffff0483118215151615612843576128426129a6565b5b828202905092915050565b6000612859826128ef565b9150612864836128ef565b925082821015612877576128766129a6565b5b828203905092915050565b600061288d826128cf565b9050919050565b600061289f826128cf565b9050919050565b60008115159050919050565b60008190506128c082612c47565b919050565b6000819050919050565b600073ffffffffffffffffffffffffffffffffffffffff82169050919050565b6000819050919050565b600069ffffffffffffffffffff82169050919050565b600061291a826128b2565b9050919050565b600061292c826128ef565b9050919050565b82818337600083830152505050565b60005b83811015612960578082015181840152602081019050612945565b8381111561296f576000848401525b50505050565b61297e82612a76565b810181811067ffffffffffffffff8211171561299d5761299c612a33565b5b80604052505050565b7f4e487b7100000000000000000000000000000000000000000000000000000000600052601160045260246000fd5b7f4e487b7100000000000000000000000000000000000000000000000000000000600052601260045260246000fd5b7f4e487b7100000000000000000000000000000000000000000000000000000000600052602160045260246000fd5b7f4e487b7100000000000000000000000000000000000000000000000000000000600052604160045260246000fd5b600080fd5b600080fd5b600080fd5b600080fd5b6000601f19601f8301169050919050565b7f4d7573742062652070726f706f736564206f776e657200000000000000000000600082015250565b7f4f6e6c792063616c6c61626c65206279206f776e657200000000000000000000600082015250565b7f4761732070726963652041676772656761746f72206973207a65726f2061646460008201527f7265737300000000000000000000000000000000000000000000000000000000602082015250565b7f416464726573733a20756e61626c6520746f2073656e642076616c75652c207260008201527f6563697069656e74206d61792068617665207265766572746564000000000000602082015250565b7f416464726573733a20696e73756666696369656e742062616c616e6365000000600082015250565b7f4e6f206163636573730000000000000000000000000000000000000000000000600082015250565b7f4d617820676173206973207a65726f0000000000000000000000000000000000600082015250565b50565b7f43616e6e6f74207472616e7366657220746f2073656c66000000000000000000600082015250565b7f47617320707269636520626964206973207a65726f0000000000000000000000600082015250565b60028110612c5857612c57612a04565b5b50565b612c6481612882565b8114612c6f57600080fd5b50565b612c7b81612894565b8114612c8657600080fd5b50565b612c92816128a6565b8114612c9d57600080fd5b50565b60028110612cad57600080fd5b50565b612cb9816128c5565b8114612cc457600080fd5b50565b612cd0816128ef565b8114612cdb57600080fd5b50565b612ce7816128f9565b8114612cf257600080fd5b5056fea2646970667358221220a04851979372ac708258d320ecb28b5448369cb74cd7c5e6b167b11f7b817b0d64736f6c63430008060033",
  "linkReferences": {},
  "deployedLinkReferences": {}
}