{
  "_format": "hh-sol-artifact-1",
  "contractName": "VRFConsumerExternalSubOwnerExample",
  "sourceName": "contracts/chainlink/v0.8/tests/VRFConsumerExternalSubOwnerExample.sol",
  "abi": [
    {
      "inputs": [
        {
          "internalType": "address",
          "name": "vrfCoordinator",
          "type": "address"
        },
        {
          "internalType": "address",
          "name": "link",
          "type": "address"
        },
        {
          "internalType": "uint32",
          "name": "callbackGasLimit",
          "type": "uint32"
        },
        {
          "internalType": "uint16",
          "name": "requestConfirmations",
          "type": "uint16"
        },
        {
          "internalType": "uint32",
          "name": "numWords",
          "type": "uint32"
        },
        {
          "internalType": "bytes32",
          "name": "keyHash",
          "type": "bytes32"
        }
      ],
      "stateMutability": "nonpayable",
      "type": "constructor"
    },
    {
      "inputs": [
        {
          "internalType": "address",
          "name": "have",
          "type": "address"
        },
        {
          "internalType": "address",
          "name": "want",
          "type": "address"
        }
      ],
      "name": "OnlyCoordinatorCanFulfill",
      "type": "error"
    },
    {
      "inputs": [
        {
          "internalType": "uint256",
          "name": "requestId",
          "type": "uint256"
        },
        {
          "internalType": "uint256[]",
          "name": "randomWords",
          "type": "uint256[]"
        }
      ],
      "name": "rawFulfillRandomWords",
      "outputs": [],
      "stateMutability": "nonpayable",
      "type": "function"
    },
    {
      "inputs": [],
      "name": "requestRandomWords",
      "outputs": [],
      "stateMutability": "nonpayable",
      "type": "function"
    },
    {
      "inputs": [
        {
          "internalType": "uint64",
          "name": "subId",
          "type": "uint64"
        }
      ],
      "name": "setSubscriptionID",
      "outputs": [],
      "stateMutability": "nonpayable",
      "type": "function"
    }
  ],
  "bytecode": "0x60a06040523480156200001157600080fd5b5060405162000b6538038062000b6583398181016040528101906200003791906200024a565b858073ffffffffffffffffffffffffffffffffffffffff1660808173ffffffffffffffffffffffffffffffffffffffff1660601b8152505050856000806101000a81548173ffffffffffffffffffffffffffffffffffffffff021916908373ffffffffffffffffffffffffffffffffffffffff16021790555084600160006101000a81548173ffffffffffffffffffffffffffffffffffffffff021916908373ffffffffffffffffffffffffffffffffffffffff1602179055506040518060a00160405280600067ffffffffffffffff1681526020018563ffffffff1681526020018461ffff1681526020018363ffffffff16815260200182815250600260008201518160000160006101000a81548167ffffffffffffffff021916908367ffffffffffffffff16021790555060208201518160000160086101000a81548163ffffffff021916908363ffffffff160217905550604082015181600001600c6101000a81548161ffff021916908361ffff160217905550606082015181600001600e6101000a81548163ffffffff021916908363ffffffff16021790555060808201518160010155905050505050505050620003af565b600081519050620001ff8162000347565b92915050565b600081519050620002168162000361565b92915050565b6000815190506200022d816200037b565b92915050565b600081519050620002448162000395565b92915050565b60008060008060008060c087890312156200026a576200026962000342565b5b60006200027a89828a01620001ee565b96505060206200028d89828a01620001ee565b9550506040620002a089828a0162000233565b9450506060620002b389828a016200021c565b9350506080620002c689828a0162000233565b92505060a0620002d989828a0162000205565b9150509295509295509295565b6000620002f38262000312565b9050919050565b6000819050919050565b600061ffff82169050919050565b600073ffffffffffffffffffffffffffffffffffffffff82169050919050565b600063ffffffff82169050919050565b600080fd5b6200035281620002e6565b81146200035e57600080fd5b50565b6200036c81620002fa565b81146200037857600080fd5b50565b620003868162000304565b81146200039257600080fd5b50565b620003a08162000332565b8114620003ac57600080fd5b50565b60805160601c610791620003d46000396000818160b9015261010d01526107916000f3fe608060405234801561001057600080fd5b50600436106100415760003560e01c80631edebf0b146100465780631fe543e314610062578063e0c862891461007e575b600080fd5b610060600480360381019061005b91906104eb565b610088565b005b61007c6004803603810190610077919061048f565b6100b7565b005b610086610177565b005b80600260000160006101000a81548167ffffffffffffffff021916908367ffffffffffffffff16021790555050565b7f000000000000000000000000000000000000000000000000000000000000000073ffffffffffffffffffffffffffffffffffffffff163373ffffffffffffffffffffffffffffffffffffffff161461016957337f00000000000000000000000000000000000000000000000000000000000000006040517f1cf993f4000000000000000000000000000000000000000000000000000000008152600401610160929190610563565b60405180910390fd5b6101738282610300565b5050565b600060026040518060a00160405290816000820160009054906101000a900467ffffffffffffffff1667ffffffffffffffff1667ffffffffffffffff1681526020016000820160089054906101000a900463ffffffff1663ffffffff1663ffffffff16815260200160008201600c9054906101000a900461ffff1661ffff1661ffff16815260200160008201600e9054906101000a900463ffffffff1663ffffffff1663ffffffff168152602001600182015481525050905060008054906101000a900473ffffffffffffffffffffffffffffffffffffffff1673ffffffffffffffffffffffffffffffffffffffff16635d3b1d30826080015183600001518460400151856020015186606001516040518663ffffffff1660e01b81526004016102a595949392919061058c565b602060405180830381600087803b1580156102bf57600080fd5b505af11580156102d3573d6000803e3d6000fd5b505050506040513d601f19601f820116820180604052508101906102f79190610462565b60058190555050565b806004908051906020019061031692919061031b565b505050565b828054828255906000526020600020908101928215610357579160200282015b8281111561035657825182559160200191906001019061033b565b5b5090506103649190610368565b5090565b5b80821115610381576000816000905550600101610369565b5090565b600061039861039384610604565b6105df565b905080838252602082019050828560208602820111156103bb576103ba61070d565b5b60005b858110156103eb57816103d18882610423565b8452602084019350602083019250506001810190506103be565b5050509392505050565b600082601f83011261040a57610409610708565b5b813561041a848260208601610385565b91505092915050565b6000813590506104328161072d565b92915050565b6000815190506104478161072d565b92915050565b60008135905061045c81610744565b92915050565b60006020828403121561047857610477610717565b5b600061048684828501610438565b91505092915050565b600080604083850312156104a6576104a5610717565b5b60006104b485828601610423565b925050602083013567ffffffffffffffff8111156104d5576104d4610712565b5b6104e1858286016103f5565b9150509250929050565b60006020828403121561050157610500610717565b5b600061050f8482850161044d565b91505092915050565b61052181610630565b82525050565b61053081610642565b82525050565b61053f8161064c565b82525050565b61054e81610684565b82525050565b61055d81610694565b82525050565b60006040820190506105786000830185610518565b6105856020830184610518565b9392505050565b600060a0820190506105a16000830188610527565b6105ae6020830187610554565b6105bb6040830186610536565b6105c86060830185610545565b6105d56080830184610545565b9695505050505050565b60006105e96105fa565b90506105f582826106a8565b919050565b6000604051905090565b600067ffffffffffffffff82111561061f5761061e6106d9565b5b602082029050602081019050919050565b600061063b8261065a565b9050919050565b6000819050919050565b600061ffff82169050919050565b600073ffffffffffffffffffffffffffffffffffffffff82169050919050565b6000819050919050565b600063ffffffff82169050919050565b600067ffffffffffffffff82169050919050565b6106b18261071c565b810181811067ffffffffffffffff821117156106d0576106cf6106d9565b5b80604052505050565b7f4e487b7100000000000000000000000000000000000000000000000000000000600052604160045260246000fd5b600080fd5b600080fd5b600080fd5b600080fd5b6000601f19601f8301169050919050565b6107368161067a565b811461074157600080fd5b50565b61074d81610694565b811461075857600080fd5b5056fea26469706673582212206c5bbc4f98d76b0412839c857b48125c0e9cb191095aaa1e4f24136d5e6a0b1264736f6c63430008060033",
  "linkReferences": {},
  "deployedLinkReferences": {}
}