{
  "_format": "hh-sol-artifact-1",
  "contractName": "MockAggregator",
  "sourceName": "contracts/chainlink/v0.8/mocks/MockAggregator.sol",
  "abi": [
    {
      "inputs": [],
      "name": "latestAnswer",
      "outputs": [
        {
          "internalType": "int256",
          "name": "",
          "type": "int256"
        }
      ],
      "stateMutability": "view",
      "type": "function"
    },
    {
      "inputs": [],
      "name": "s_answer",
      "outputs": [
        {
          "internalType": "int256",
          "name": "",
          "type": "int256"
        }
      ],
      "stateMutability": "view",
      "type": "function"
    },
    {
      "inputs": [
        {
          "internalType": "int256",
          "name": "answer",
          "type": "int256"
        }
      ],
      "name": "setLatestAnswer",
      "outputs": [],
      "stateMutability": "nonpayable",
      "type": "function"
    }
  ],
  "bytecode": "0x608060405234801561001057600080fd5b5061017f806100206000396000f3fe608060405234801561001057600080fd5b50600436106100415760003560e01c806304ea97b014610046578063305da2db1461006257806350d25bcd14610080575b600080fd5b610060600480360381019061005b91906100cc565b61009e565b005b61006a6100a8565b6040516100779190610108565b60405180910390f35b6100886100ae565b6040516100959190610108565b60405180910390f35b8060008190555050565b60005481565b60008054905090565b6000813590506100c681610132565b92915050565b6000602082840312156100e2576100e161012d565b5b60006100f0848285016100b7565b91505092915050565b61010281610123565b82525050565b600060208201905061011d60008301846100f9565b92915050565b6000819050919050565b600080fd5b61013b81610123565b811461014657600080fd5b5056fea26469706673582212207a0a124c3e00987719e45f95200b3dde4afdc3d7a4b181dbdad406f430397a3f64736f6c63430008060033",
  "linkReferences": {},
  "deployedLinkReferences": {}
}